{
  "contractName": "ZKChessGame",
  "abi": [
    {
      "anonymous": false,
      "inputs": [],
      "name": "GameFinished",
      "type": "event"
    },
    {
      "anonymous": false,
      "inputs": [
        {
          "indexed": false,
          "internalType": "address",
          "name": "p1",
          "type": "address"
        },
        {
          "indexed": false,
          "internalType": "address",
          "name": "p2",
          "type": "address"
        }
      ],
      "name": "GameStart",
      "type": "event"
    },
    {
      "anonymous": false,
      "inputs": [
        {
          "indexed": false,
          "internalType": "address",
          "name": "player",
          "type": "address"
        }
      ],
      "name": "MoveMade",
      "type": "event"
    },
    {
      "anonymous": false,
      "inputs": [
        {
          "indexed": false,
          "internalType": "uint256",
          "name": "pfsAccepted",
          "type": "uint256"
        }
      ],
      "name": "ProofVerified",
      "type": "event"
    },
    {
      "inputs": [],
      "name": "BOARD_SIZE",
      "outputs": [
        {
          "internalType": "uint256",
          "name": "",
          "type": "uint256"
        }
      ],
      "stateMutability": "view",
      "type": "function",
      "constant": true
    },
    {
      "inputs": [],
      "name": "DISABLE_ZK_CHECK",
      "outputs": [
        {
          "internalType": "bool",
          "name": "",
          "type": "bool"
        }
      ],
      "stateMutability": "view",
      "type": "function",
      "constant": true
    },
    {
      "inputs": [],
      "name": "FIELD_SIZE",
      "outputs": [
        {
          "internalType": "uint256",
          "name": "",
          "type": "uint256"
        }
      ],
      "stateMutability": "view",
      "type": "function",
      "constant": true
    },
    {
      "inputs": [],
      "name": "GHOST_START_COMMITMENT",
      "outputs": [
        {
          "internalType": "uint256",
          "name": "",
          "type": "uint256"
        }
      ],
      "stateMutability": "view",
      "type": "function",
      "constant": true
    },
    {
      "inputs": [
        {
          "internalType": "uint256",
          "name": "",
          "type": "uint256"
        },
        {
          "internalType": "uint256",
          "name": "",
          "type": "uint256"
        }
      ],
      "name": "boardObjectives",
      "outputs": [
        {
          "internalType": "uint8",
          "name": "",
          "type": "uint8"
        }
      ],
      "stateMutability": "view",
      "type": "function",
      "constant": true
    },
    {
      "inputs": [
        {
          "internalType": "uint256",
          "name": "",
          "type": "uint256"
        },
        {
          "internalType": "uint256",
          "name": "",
          "type": "uint256"
        }
      ],
      "name": "boardPieces",
      "outputs": [
        {
          "internalType": "uint8",
          "name": "",
          "type": "uint8"
        }
      ],
      "stateMutability": "view",
      "type": "function",
      "constant": true
    },
    {
      "inputs": [],
      "name": "gameState",
      "outputs": [
        {
          "internalType": "enum GameState",
          "name": "",
          "type": "uint8"
        }
      ],
      "stateMutability": "view",
      "type": "function",
      "constant": true
    },
    {
      "inputs": [
        {
          "internalType": "uint256",
          "name": "",
          "type": "uint256"
        }
      ],
      "name": "objectiveIds",
      "outputs": [
        {
          "internalType": "uint8",
          "name": "",
          "type": "uint8"
        }
      ],
      "stateMutability": "view",
      "type": "function",
      "constant": true
    },
    {
      "inputs": [
        {
          "internalType": "uint8",
          "name": "",
          "type": "uint8"
        }
      ],
      "name": "objectives",
      "outputs": [
        {
          "internalType": "uint8",
          "name": "id",
          "type": "uint8"
        },
        {
          "internalType": "uint8",
          "name": "value",
          "type": "uint8"
        },
        {
          "internalType": "uint8",
          "name": "row",
          "type": "uint8"
        },
        {
          "internalType": "uint8",
          "name": "col",
          "type": "uint8"
        },
        {
          "internalType": "address",
          "name": "capturedBy",
          "type": "address"
        }
      ],
      "stateMutability": "view",
      "type": "function",
      "constant": true
    },
    {
      "inputs": [
        {
          "internalType": "uint256",
          "name": "",
          "type": "uint256"
        }
      ],
      "name": "pieceIds",
      "outputs": [
        {
          "internalType": "uint8",
          "name": "",
          "type": "uint8"
        }
      ],
      "stateMutability": "view",
      "type": "function",
      "constant": true
    },
    {
      "inputs": [
        {
          "internalType": "uint8",
          "name": "",
          "type": "uint8"
        }
      ],
      "name": "pieces",
      "outputs": [
        {
          "internalType": "uint8",
          "name": "id",
          "type": "uint8"
        },
        {
          "internalType": "enum PieceType",
          "name": "pieceType",
          "type": "uint8"
        },
        {
          "internalType": "address",
          "name": "owner",
          "type": "address"
        },
        {
          "internalType": "uint8",
          "name": "row",
          "type": "uint8"
        },
        {
          "internalType": "uint8",
          "name": "col",
          "type": "uint8"
        },
        {
          "internalType": "bool",
          "name": "dead",
          "type": "bool"
        },
        {
          "internalType": "uint256",
          "name": "commitment",
          "type": "uint256"
        }
      ],
      "stateMutability": "view",
      "type": "function",
      "constant": true
    },
    {
      "inputs": [],
      "name": "player1",
      "outputs": [
        {
          "internalType": "address",
          "name": "",
          "type": "address"
        }
      ],
      "stateMutability": "view",
      "type": "function",
      "constant": true
    },
    {
      "inputs": [],
      "name": "player1Score",
      "outputs": [
        {
          "internalType": "uint8",
          "name": "",
          "type": "uint8"
        }
      ],
      "stateMutability": "view",
      "type": "function",
      "constant": true
    },
    {
      "inputs": [],
      "name": "player2",
      "outputs": [
        {
          "internalType": "address",
          "name": "",
          "type": "address"
        }
      ],
      "stateMutability": "view",
      "type": "function",
      "constant": true
    },
    {
      "inputs": [],
      "name": "player2Score",
      "outputs": [
        {
          "internalType": "uint8",
          "name": "",
          "type": "uint8"
        }
      ],
      "stateMutability": "view",
      "type": "function",
      "constant": true
    },
    {
      "inputs": [],
      "name": "turnNumber",
      "outputs": [
        {
          "internalType": "uint8",
          "name": "",
          "type": "uint8"
        }
      ],
      "stateMutability": "view",
      "type": "function",
      "constant": true
    },
    {
      "inputs": [
        {
          "internalType": "bool",
          "name": "_disableZKCheck",
          "type": "bool"
        }
      ],
      "name": "initialize",
      "outputs": [],
      "stateMutability": "nonpayable",
      "type": "function"
    },
    {
      "inputs": [],
      "name": "getPieces",
      "outputs": [
        {
          "components": [
            {
              "internalType": "uint8",
              "name": "id",
              "type": "uint8"
            },
            {
              "internalType": "enum PieceType",
              "name": "pieceType",
              "type": "uint8"
            },
            {
              "internalType": "address",
              "name": "owner",
              "type": "address"
            },
            {
              "internalType": "uint8",
              "name": "row",
              "type": "uint8"
            },
            {
              "internalType": "uint8",
              "name": "col",
              "type": "uint8"
            },
            {
              "internalType": "bool",
              "name": "dead",
              "type": "bool"
            },
            {
              "internalType": "uint256",
              "name": "commitment",
              "type": "uint256"
            }
          ],
          "internalType": "struct Piece[]",
          "name": "ret",
          "type": "tuple[]"
        }
      ],
      "stateMutability": "view",
      "type": "function",
      "constant": true
    },
    {
      "inputs": [],
      "name": "getObjectives",
      "outputs": [
        {
          "components": [
            {
              "internalType": "uint8",
              "name": "id",
              "type": "uint8"
            },
            {
              "internalType": "uint8",
              "name": "value",
              "type": "uint8"
            },
            {
              "internalType": "uint8",
              "name": "row",
              "type": "uint8"
            },
            {
              "internalType": "uint8",
              "name": "col",
              "type": "uint8"
            },
            {
              "internalType": "address",
              "name": "capturedBy",
              "type": "address"
            }
          ],
          "internalType": "struct Objective[]",
          "name": "ret",
          "type": "tuple[]"
        }
      ],
      "stateMutability": "view",
      "type": "function",
      "constant": true
    },
    {
      "inputs": [
        {
          "components": [
            {
              "internalType": "uint8",
              "name": "id",
              "type": "uint8"
            },
            {
              "internalType": "enum PieceType",
              "name": "pieceType",
              "type": "uint8"
            },
            {
              "internalType": "address",
              "name": "owner",
              "type": "address"
            },
            {
              "internalType": "uint8",
              "name": "row",
              "type": "uint8"
            },
            {
              "internalType": "uint8",
              "name": "col",
              "type": "uint8"
            },
            {
              "internalType": "bool",
              "name": "dead",
              "type": "bool"
            },
            {
              "internalType": "uint256",
              "name": "commitment",
              "type": "uint256"
            }
          ],
          "internalType": "struct Piece",
          "name": "piece",
          "type": "tuple"
        },
        {
          "internalType": "uint8",
          "name": "toRow",
          "type": "uint8"
        },
        {
          "internalType": "uint8",
          "name": "toCol",
          "type": "uint8"
        }
      ],
      "name": "isValidMove",
      "outputs": [
        {
          "internalType": "bool",
          "name": "",
          "type": "bool"
        }
      ],
      "stateMutability": "view",
      "type": "function",
      "constant": true
    },
    {
      "inputs": [],
      "name": "gameShouldBeCompleted",
      "outputs": [
        {
          "internalType": "bool",
          "name": "",
          "type": "bool"
        }
      ],
      "stateMutability": "view",
      "type": "function",
      "constant": true
    },
    {
      "inputs": [],
      "name": "joinGame",
      "outputs": [],
      "stateMutability": "nonpayable",
      "type": "function"
    },
    {
      "inputs": [
        {
          "internalType": "uint8",
          "name": "pieceId",
          "type": "uint8"
        },
        {
          "internalType": "uint8",
          "name": "toRow",
          "type": "uint8"
        },
        {
          "internalType": "uint8",
          "name": "toCol",
          "type": "uint8"
        }
      ],
      "name": "movePiece",
      "outputs": [],
      "stateMutability": "nonpayable",
      "type": "function"
    },
    {
      "inputs": [
        {
          "internalType": "uint256[2]",
          "name": "_a",
          "type": "uint256[2]"
        },
        {
          "internalType": "uint256[2][2]",
          "name": "_b",
          "type": "uint256[2][2]"
        },
        {
          "internalType": "uint256[2]",
          "name": "_c",
          "type": "uint256[2]"
        },
        {
          "internalType": "uint256[2]",
          "name": "_input",
          "type": "uint256[2]"
        },
        {
          "internalType": "uint8",
          "name": "pieceId",
          "type": "uint8"
        }
      ],
      "name": "moveGhost",
      "outputs": [],
      "stateMutability": "nonpayable",
      "type": "function"
    },
    {
      "inputs": [
        {
          "internalType": "uint8",
          "name": "pieceId",
          "type": "uint8"
        },
        {
          "internalType": "uint256",
          "name": "row",
          "type": "uint256"
        },
        {
          "internalType": "uint256",
          "name": "col",
          "type": "uint256"
        },
        {
          "internalType": "uint256",
          "name": "salt",
          "type": "uint256"
        }
      ],
      "name": "ghostAttack",
      "outputs": [],
      "stateMutability": "nonpayable",
      "type": "function"
    }
  ],
  "bytecode": "0x608060405234801561001057600080fd5b506158fb80620000216000396000f3fe608060405234801561001057600080fd5b50600436106101735760003560e01c806396d57948116100de578063cfecc6de11610097578063d4f77b1c11610071578063d4f77b1c14610472578063d53a822f1461047c578063dc4a3e9514610498578063e645206a146104b657610173565b8063cfecc6de14610406578063d1f9c24d14610436578063d30895e41461045457610173565b806396d5794814610330578063acbc1a911461034c578063b02282461461036a578063bd91fdb41461039a578063c6204ee2146103b8578063cf615f6c146103e857610173565b80635700401e116101305780635700401e1461026657806359a5f12d146102845780635c3beb32146102a25780637174f2c0146102d65780637e15247d146102f45780638af9d5621461031257610173565b8063210851b5146101785780632c784f32146101a85780633fb7388e146101de578063414a37ba1461020e57806351df541c1461022c578063562fb4271461024a575b600080fd5b610192600480360381019061018d91906148ab565b6104d2565b60405161019f91906152de565b60405180910390f35b6101c260048036038101906101bd919061498a565b6107db565b6040516101d5979695949392919061554f565b60405180910390f35b6101f860048036038101906101f3919061494e565b61087e565b6040516102059190615534565b60405180910390f35b6102166108b4565b60405161022391906154d4565b60405180910390f35b6102346108d8565b60405161024191906152de565b60405180910390f35b610264600480360381019061025f91906147df565b610a4b565b005b61026e610eab565b60405161027b9190615534565b60405180910390f35b61028c610ebe565b60405161029991906151f4565b60405180910390f35b6102bc60048036038101906102b7919061498a565b610ee4565b6040516102cd9594939291906155be565b60405180910390f35b6102de610f6e565b6040516102eb9190615534565b60405180910390f35b6102fc610f81565b6040516103099190615253565b60405180910390f35b61031a61112b565b60405161032791906152de565b60405180910390f35b61034a600480360381019061034591906149b3565b61113e565b005b610354611731565b60405161036191906154d4565b60405180910390f35b610384600480360381019061037f919061494e565b611755565b6040516103919190615534565b60405180910390f35b6103a261178b565b6040516103af9190615534565b60405180910390f35b6103d260048036038101906103cd91906148fc565b61179e565b6040516103df9190615534565b60405180910390f35b6103f06117c5565b6040516103fd9190615275565b60405180910390f35b610420600480360381019061041b91906148fc565b6119a4565b60405161042d9190615534565b60405180910390f35b61043e6119cb565b60405161044b91906152f9565b60405180910390f35b61045c6119de565b60405161046991906151f4565b60405180910390f35b61047a611a04565b005b61049660048036038101906104919190614859565b611e78565b005b6104a06135ac565b6040516104ad91906154d4565b60405180910390f35b6104d060048036038101906104cb9190614a16565b6135b1565b005b600060078360ff161015806104eb575060078260ff1610155b156104f957600090506107d4565b600060348460ff166007811061050b57fe5b018360ff166007811061051a57fe5b602091828204019190069054906101000a900460ff1660ff16111561054257600090506107d4565b60028081111561054e57fe5b8460200151600281111561055e57fe5b141561056d57600090506107d4565b6000600281111561057a57fe5b8460200151600281111561058a57fe5b1415610670578260ff16846060015160ff161480156105b257508160ff16846080015160ff16145b156105c057600090506107d4565b60008360ff16856060015160ff1603905060018160010b138061060557507fffffffffffffffffffffffffffffffffffffffffffffffffffffffffffffffff8160010b125b156106145760009150506107d4565b60008360ff16866080015160ff1603905060018160010b138061065957507fffffffffffffffffffffffffffffffffffffffffffffffffffffffffffffffff8160010b125b15610669576000925050506107d4565b50506107cf565b6001600281111561067d57fe5b8460200151600281111561068d57fe5b14156107ce5760008360ff16856060015160ff1603905060008360ff16866080015160ff1603905060028260010b14806106e957507ffffffffffffffffffffffffffffffffffffffffffffffffffffffffffffffffe8260010b145b1561073a5760018160010b1415801561072557507fffffffffffffffffffffffffffffffffffffffffffffffffffffffffffffffff8160010b14155b15610735576000925050506107d4565b6107cb565b60018260010b148061076e57507fffffffffffffffffffffffffffffffffffffffffffffffffffffffffffffffff8260010b145b156107bf5760028160010b141580156107aa57507ffffffffffffffffffffffffffffffffffffffffffffffffffffffffffffffffe8160010b14155b156107ba576000925050506107d4565b6107ca565b6000925050506107d4565b5b50505b5b600190505b9392505050565b60436020528060005260406000206000915090508060000160009054906101000a900460ff16908060000160019054906101000a900460ff16908060000160029054906101000a900473ffffffffffffffffffffffffffffffffffffffff16908060000160169054906101000a900460ff16908060000160179054906101000a900460ff16908060000160189054906101000a900460ff16908060010154905087565b6034826007811061088b57fe5b01816007811061089757fe5b60209182820401919006915091509054906101000a900460ff1681565b7f30644e72e131a029b85045b68181585d2833e84879b9709143e1f593f000000181565b6000806001905060008090505b60088160ff16101561095a576043600060428360ff166008811061090557fe5b602091828204019190069054906101000a900460ff1660ff1660ff16815260200190815260200160002060000160189054906101000a900460ff1661094d576000915061095a565b80806001019150506108e5565b50801561096b576001915050610a48565b60006001905060008090505b60068160ff161015610a2f57600073ffffffffffffffffffffffffffffffffffffffff166045600060448460ff16600681106109af57fe5b602091828204019190069054906101000a900460ff1660ff1660ff16815260200190815260200160002060000160049054906101000a900473ffffffffffffffffffffffffffffffffffffffff1673ffffffffffffffffffffffffffffffffffffffff161415610a225760009150610a2f565b8080600101915050610977565b508015610a4157600192505050610a48565b6000925050505b90565b600380811115610a5757fe5b603360019054906101000a900460ff166003811115610a7257fe5b1415610ab3576040517f08c379a0000000000000000000000000000000000000000000000000000000008152600401610aaa906153d4565b60405180910390fd5b604660019054906101000a900473ffffffffffffffffffffffffffffffffffffffff1673ffffffffffffffffffffffffffffffffffffffff163373ffffffffffffffffffffffffffffffffffffffff161415610b725760016003811115610b1657fe5b603360019054906101000a900460ff166003811115610b3157fe5b14610b71576040517f08c379a0000000000000000000000000000000000000000000000000000000008152600401610b68906154b4565b60405180910390fd5b5b604760009054906101000a900473ffffffffffffffffffffffffffffffffffffffff1673ffffffffffffffffffffffffffffffffffffffff163373ffffffffffffffffffffffffffffffffffffffff161415610c315760026003811115610bd557fe5b603360019054906101000a900460ff166003811115610bf057fe5b14610c30576040517f08c379a0000000000000000000000000000000000000000000000000000000008152600401610c27906153f4565b60405180910390fd5b5b6000604360008360ff1660ff1681526020019081526020016000209050600280811115610c5a57fe5b8160000160019054906101000a900460ff166002811115610c7757fe5b14610cb7576040517f08c379a0000000000000000000000000000000000000000000000000000000008152600401610cae906153b4565b60405180910390fd5b3373ffffffffffffffffffffffffffffffffffffffff168160000160029054906101000a900473ffffffffffffffffffffffffffffffffffffffff1673ffffffffffffffffffffffffffffffffffffffff1614610d49576040517f08c379a0000000000000000000000000000000000000000000000000000000008152600401610d4090615494565b60405180910390fd5b82600060028110610d5657fe5b6020020151816001015414610da0576040517f08c379a0000000000000000000000000000000000000000000000000000000008152600401610d9790615434565b60405180910390fd5b604660009054906101000a900460ff16610e815773__Verifier______________________________63ab475307878787876040518563ffffffff1660e01b8152600401610df19493929190615297565b60206040518083038186803b158015610e0957600080fd5b505af4158015610e1d573d6000803e3d6000fd5b505050506040513d601f19601f82011682018060405250810190610e419190614882565b610e80576040517f08c379a0000000000000000000000000000000000000000000000000000000008152600401610e7790615354565b60405180910390fd5b5b82600160028110610e8e57fe5b60200201518160010181905550610ea3613d49565b505050505050565b603360009054906101000a900460ff1681565b604760009054906101000a900473ffffffffffffffffffffffffffffffffffffffff1681565b60456020528060005260406000206000915090508060000160009054906101000a900460ff16908060000160019054906101000a900460ff16908060000160029054906101000a900460ff16908060000160039054906101000a900460ff16908060000160049054906101000a900473ffffffffffffffffffffffffffffffffffffffff16905085565b604760149054906101000a900460ff1681565b6060600667ffffffffffffffff81118015610f9b57600080fd5b50604051908082528060200260200182016040528015610fd557816020015b610fc2614396565b815260200190600190039081610fba5790505b50905060008090505b60068160ff161015611124576045600060448360ff1660068110610ffe57fe5b602091828204019190069054906101000a900460ff1660ff1660ff1681526020019081526020016000206040518060a00160405290816000820160009054906101000a900460ff1660ff1660ff1681526020016000820160019054906101000a900460ff1660ff1660ff1681526020016000820160029054906101000a900460ff1660ff1660ff1681526020016000820160039054906101000a900460ff1660ff1660ff1681526020016000820160049054906101000a900473ffffffffffffffffffffffffffffffffffffffff1673ffffffffffffffffffffffffffffffffffffffff1673ffffffffffffffffffffffffffffffffffffffff1681525050828260ff168151811061110c57fe5b60200260200101819052508080600101915050610fde565b5080905090565b604660009054906101000a900460ff1681565b60038081111561114a57fe5b603360019054906101000a900460ff16600381111561116557fe5b14156111a6576040517f08c379a000000000000000000000000000000000000000000000000000000000815260040161119d906153d4565b60405180910390fd5b604660019054906101000a900473ffffffffffffffffffffffffffffffffffffffff1673ffffffffffffffffffffffffffffffffffffffff163373ffffffffffffffffffffffffffffffffffffffff161415611265576001600381111561120957fe5b603360019054906101000a900460ff16600381111561122457fe5b14611264576040517f08c379a000000000000000000000000000000000000000000000000000000000815260040161125b906154b4565b60405180910390fd5b5b604760009054906101000a900473ffffffffffffffffffffffffffffffffffffffff1673ffffffffffffffffffffffffffffffffffffffff163373ffffffffffffffffffffffffffffffffffffffff16141561132457600260038111156112c857fe5b603360019054906101000a900460ff1660038111156112e357fe5b14611323576040517f08c379a000000000000000000000000000000000000000000000000000000000815260040161131a906153f4565b60405180910390fd5b5b6000603360009054906101000a900460ff1660ff1611611379576040517f08c379a000000000000000000000000000000000000000000000000000000000815260040161137090615454565b60405180910390fd5b6000604360008660ff1660ff16815260200190815260200160002090506002808111156113a257fe5b8160000160019054906101000a900460ff1660028111156113bf57fe5b146113ff576040517f08c379a00000000000000000000000000000000000000000000000000000000081526004016113f6906153b4565b60405180910390fd5b3373ffffffffffffffffffffffffffffffffffffffff168160000160029054906101000a900473ffffffffffffffffffffffffffffffffffffffff1673ffffffffffffffffffffffffffffffffffffffff1614611491576040517f08c379a000000000000000000000000000000000000000000000000000000000815260040161148890615494565b60405180910390fd5b806001015473__ZKChessUtils__________________________639c93c9858686867f30644e72e131a029b85045b68181585d2833e84879b9709143e1f593f00000016040518563ffffffff1660e01b81526004016114f394939291906154ef565b60206040518083038186803b15801561150b57600080fd5b505af415801561151f573d6000803e3d6000fd5b505050506040513d601f19601f820116820180604052508101906115439190614925565b14611583576040517f08c379a000000000000000000000000000000000000000000000000000000000815260040161157a90615414565b60405180910390fd5b6000604360006034876007811061159657fe5b0186600781106115a257fe5b602091828204019190069054906101000a900460ff1660ff1660ff16815260200190815260200160002090506000604660019054906101000a900473ffffffffffffffffffffffffffffffffffffffff169050604660019054906101000a900473ffffffffffffffffffffffffffffffffffffffff1673ffffffffffffffffffffffffffffffffffffffff163373ffffffffffffffffffffffffffffffffffffffff16141561167157604760009054906101000a900473ffffffffffffffffffffffffffffffffffffffff1690505b8073ffffffffffffffffffffffffffffffffffffffff168260000160029054906101000a900473ffffffffffffffffffffffffffffffffffffffff1673ffffffffffffffffffffffffffffffffffffffff1614611703576040517f08c379a00000000000000000000000000000000000000000000000000000000081526004016116fa90615394565b60405180910390fd5b60018260000160186101000a81548160ff021916908315150217905550611728613d49565b50505050505050565b7f104ddaefd01036b8465b22025720f944733190135fd4ed564186bc3cfcaec72281565b603b826007811061176257fe5b01816007811061176e57fe5b60209182820401919006915091509054906101000a900460ff1681565b604760159054906101000a900460ff1681565b604481600681106117ab57fe5b60209182820401919006915054906101000a900460ff1681565b6060600867ffffffffffffffff811180156117df57600080fd5b5060405190808252806020026020018201604052801561181957816020015b6118066143e7565b8152602001906001900390816117fe5790505b50905060008090505b60088160ff16101561199d576043600060428360ff166008811061184257fe5b602091828204019190069054906101000a900460ff1660ff1660ff1681526020019081526020016000206040518060e00160405290816000820160009054906101000a900460ff1660ff1660ff1681526020016000820160019054906101000a900460ff1660028111156118b257fe5b60028111156118bd57fe5b81526020016000820160029054906101000a900473ffffffffffffffffffffffffffffffffffffffff1673ffffffffffffffffffffffffffffffffffffffff1673ffffffffffffffffffffffffffffffffffffffff1681526020016000820160169054906101000a900460ff1660ff1660ff1681526020016000820160179054906101000a900460ff1660ff1660ff1681526020016000820160189054906101000a900460ff16151515158152602001600182015481525050828260ff168151811061198557fe5b60200260200101819052508080600101915050611822565b5080905090565b604281600881106119b157fe5b60209182820401919006915054906101000a900460ff1681565b603360019054906101000a900460ff1681565b604660019054906101000a900473ffffffffffffffffffffffffffffffffffffffff1681565b60006003811115611a1157fe5b603360019054906101000a900460ff166003811115611a2c57fe5b14611a6c576040517f08c379a0000000000000000000000000000000000000000000000000000000008152600401611a6390615474565b60405180910390fd5b600073ffffffffffffffffffffffffffffffffffffffff16604660019054906101000a900473ffffffffffffffffffffffffffffffffffffffff1673ffffffffffffffffffffffffffffffffffffffff161415611b095733604660016101000a81548173ffffffffffffffffffffffffffffffffffffffff021916908373ffffffffffffffffffffffffffffffffffffffff160217905550611e76565b604660019054906101000a900473ffffffffffffffffffffffffffffffffffffffff1673ffffffffffffffffffffffffffffffffffffffff163373ffffffffffffffffffffffffffffffffffffffff161415611b9a576040517f08c379a0000000000000000000000000000000000000000000000000000000008152600401611b9190615334565b60405180910390fd5b600060024281611ba657fe5b061415611bf35733604760006101000a81548173ffffffffffffffffffffffffffffffffffffffff021916908373ffffffffffffffffffffffffffffffffffffffff160217905550611c98565b604660019054906101000a900473ffffffffffffffffffffffffffffffffffffffff16604760006101000a81548173ffffffffffffffffffffffffffffffffffffffff021916908373ffffffffffffffffffffffffffffffffffffffff16021790555033604660016101000a81548173ffffffffffffffffffffffffffffffffffffffff021916908373ffffffffffffffffffffffffffffffffffffffff1602179055505b6000600190505b60058160ff161015611d3557604660019054906101000a900473ffffffffffffffffffffffffffffffffffffffff16604360008360ff1660ff16815260200190815260200160002060000160026101000a81548173ffffffffffffffffffffffffffffffffffffffff021916908373ffffffffffffffffffffffffffffffffffffffff1602179055508080600101915050611c9f565b506000600590505b60098160ff161015611dd357604760009054906101000a900473ffffffffffffffffffffffffffffffffffffffff16604360008360ff1660ff16815260200190815260200160002060000160026101000a81548173ffffffffffffffffffffffffffffffffffffffff021916908373ffffffffffffffffffffffffffffffffffffffff1602179055508080600101915050611d3d565b506001603360016101000a81548160ff02191690836003811115611df357fe5b02179055507f8fd707874eb940598510258c64cad23fd35fe8c85c5c38e8782fac2cc887fb6e604660019054906101000a900473ffffffffffffffffffffffffffffffffffffffff16604760009054906101000a900473ffffffffffffffffffffffffffffffffffffffff16604051611e6d92919061522a565b60405180910390a15b565b80604660006101000a81548160ff0219169083151502179055506000603360016101000a81548160ff02191690836003811115611eb157fe5b0217905550604051806101000160405280600160ff168152602001600260ff168152602001600360ff168152602001600460ff168152602001600560ff168152602001600660ff168152602001600760ff168152602001600860ff168152506042906008611f20929190614450565b506040518060c00160405280600960ff168152602001600a60ff168152602001600b60ff168152602001600c60ff168152602001600d60ff168152602001600e60ff168152506044906006611f769291906144ea565b506040518060e00160405280600160ff16815260200160006002811115611f9957fe5b8152602001600073ffffffffffffffffffffffffffffffffffffffff168152602001600060ff168152602001600160ff168152602001600015158152602001600081525060436000600160ff16815260200190815260200160002060008201518160000160006101000a81548160ff021916908360ff16021790555060208201518160000160016101000a81548160ff0219169083600281111561203957fe5b021790555060408201518160000160026101000a81548173ffffffffffffffffffffffffffffffffffffffff021916908373ffffffffffffffffffffffffffffffffffffffff16021790555060608201518160000160166101000a81548160ff021916908360ff16021790555060808201518160000160176101000a81548160ff021916908360ff16021790555060a08201518160000160186101000a81548160ff02191690831515021790555060c082015181600101559050506001603460006007811061210457fe5b0160016007811061211157fe5b602091828204019190066101000a81548160ff021916908360ff1602179055506040518060e00160405280600260ff1681526020016001600281111561215357fe5b8152602001600073ffffffffffffffffffffffffffffffffffffffff168152602001600060ff168152602001600360ff168152602001600015158152602001600081525060436000600260ff16815260200190815260200160002060008201518160000160006101000a81548160ff021916908360ff16021790555060208201518160000160016101000a81548160ff021916908360028111156121f357fe5b021790555060408201518160000160026101000a81548173ffffffffffffffffffffffffffffffffffffffff021916908373ffffffffffffffffffffffffffffffffffffffff16021790555060608201518160000160166101000a81548160ff021916908360ff16021790555060808201518160000160176101000a81548160ff021916908360ff16021790555060a08201518160000160186101000a81548160ff02191690831515021790555060c08201518160010155905050600260346000600781106122be57fe5b016003600781106122cb57fe5b602091828204019190066101000a81548160ff021916908360ff1602179055506040518060e00160405280600360ff1681526020016000600281111561230d57fe5b8152602001600073ffffffffffffffffffffffffffffffffffffffff168152602001600060ff168152602001600560ff168152602001600015158152602001600081525060436000600360ff16815260200190815260200160002060008201518160000160006101000a81548160ff021916908360ff16021790555060208201518160000160016101000a81548160ff021916908360028111156123ad57fe5b021790555060408201518160000160026101000a81548173ffffffffffffffffffffffffffffffffffffffff021916908373ffffffffffffffffffffffffffffffffffffffff16021790555060608201518160000160166101000a81548160ff021916908360ff16021790555060808201518160000160176101000a81548160ff021916908360ff16021790555060a08201518160000160186101000a81548160ff02191690831515021790555060c082015181600101559050506003603460006007811061247857fe5b0160056007811061248557fe5b602091828204019190066101000a81548160ff021916908360ff1602179055506040518060e00160405280600460ff1681526020016002808111156124c657fe5b8152602001600073ffffffffffffffffffffffffffffffffffffffff168152602001600060ff168152602001600060ff1681526020016000151581526020017f104ddaefd01036b8465b22025720f944733190135fd4ed564186bc3cfcaec72281525060436000600460ff16815260200190815260200160002060008201518160000160006101000a81548160ff021916908360ff16021790555060208201518160000160016101000a81548160ff0219169083600281111561258557fe5b021790555060408201518160000160026101000a81548173ffffffffffffffffffffffffffffffffffffffff021916908373ffffffffffffffffffffffffffffffffffffffff16021790555060608201518160000160166101000a81548160ff021916908360ff16021790555060808201518160000160176101000a81548160ff021916908360ff16021790555060a08201518160000160186101000a81548160ff02191690831515021790555060c082015181600101559050506040518060e00160405280600560ff1681526020016000600281111561266257fe5b8152602001600073ffffffffffffffffffffffffffffffffffffffff168152602001600660ff168152602001600160ff168152602001600015158152602001600081525060436000600560ff16815260200190815260200160002060008201518160000160006101000a81548160ff021916908360ff16021790555060208201518160000160016101000a81548160ff0219169083600281111561270257fe5b021790555060408201518160000160026101000a81548173ffffffffffffffffffffffffffffffffffffffff021916908373ffffffffffffffffffffffffffffffffffffffff16021790555060608201518160000160166101000a81548160ff021916908360ff16021790555060808201518160000160176101000a81548160ff021916908360ff16021790555060a08201518160000160186101000a81548160ff02191690831515021790555060c08201518160010155905050600560346006600781106127cd57fe5b016001600781106127da57fe5b602091828204019190066101000a81548160ff021916908360ff1602179055506040518060e00160405280600660ff1681526020016001600281111561281c57fe5b8152602001600073ffffffffffffffffffffffffffffffffffffffff168152602001600660ff168152602001600360ff168152602001600015158152602001600081525060436000600660ff16815260200190815260200160002060008201518160000160006101000a81548160ff021916908360ff16021790555060208201518160000160016101000a81548160ff021916908360028111156128bc57fe5b021790555060408201518160000160026101000a81548173ffffffffffffffffffffffffffffffffffffffff021916908373ffffffffffffffffffffffffffffffffffffffff16021790555060608201518160000160166101000a81548160ff021916908360ff16021790555060808201518160000160176101000a81548160ff021916908360ff16021790555060a08201518160000160186101000a81548160ff02191690831515021790555060c082015181600101559050506006603460066007811061298757fe5b0160036007811061299457fe5b602091828204019190066101000a81548160ff021916908360ff1602179055506040518060e00160405280600760ff168152602001600060028111156129d657fe5b8152602001600073ffffffffffffffffffffffffffffffffffffffff168152602001600660ff168152602001600560ff168152602001600015158152602001600081525060436000600760ff16815260200190815260200160002060008201518160000160006101000a81548160ff021916908360ff16021790555060208201518160000160016101000a81548160ff02191690836002811115612a7657fe5b021790555060408201518160000160026101000a81548173ffffffffffffffffffffffffffffffffffffffff021916908373ffffffffffffffffffffffffffffffffffffffff16021790555060608201518160000160166101000a81548160ff021916908360ff16021790555060808201518160000160176101000a81548160ff021916908360ff16021790555060a08201518160000160186101000a81548160ff02191690831515021790555060c0820151816001015590505060076034600660078110612b4157fe5b01600560078110612b4e57fe5b602091828204019190066101000a81548160ff021916908360ff1602179055506040518060e00160405280600860ff168152602001600280811115612b8f57fe5b8152602001600073ffffffffffffffffffffffffffffffffffffffff168152602001600660ff168152602001600060ff1681526020016000151581526020017f104ddaefd01036b8465b22025720f944733190135fd4ed564186bc3cfcaec72281525060436000600860ff16815260200190815260200160002060008201518160000160006101000a81548160ff021916908360ff16021790555060208201518160000160016101000a81548160ff02191690836002811115612c4e57fe5b021790555060408201518160000160026101000a81548173ffffffffffffffffffffffffffffffffffffffff021916908373ffffffffffffffffffffffffffffffffffffffff16021790555060608201518160000160166101000a81548160ff021916908360ff16021790555060808201518160000160176101000a81548160ff021916908360ff16021790555060a08201518160000160186101000a81548160ff02191690831515021790555060c082015181600101559050506040518060a00160405280600960ff168152602001600560ff168152602001600360ff168152602001600060ff168152602001600073ffffffffffffffffffffffffffffffffffffffff1681525060456000600960ff16815260200190815260200160002060008201518160000160006101000a81548160ff021916908360ff16021790555060208201518160000160016101000a81548160ff021916908360ff16021790555060408201518160000160026101000a81548160ff021916908360ff16021790555060608201518160000160036101000a81548160ff021916908360ff16021790555060808201518160000160046101000a81548173ffffffffffffffffffffffffffffffffffffffff021916908373ffffffffffffffffffffffffffffffffffffffff1602179055509050506009603b600360078110612e4c57fe5b01600060078110612e5957fe5b602091828204019190066101000a81548160ff021916908360ff1602179055506040518060a00160405280600a60ff168152602001600560ff168152602001600260ff168152602001600260ff168152602001600073ffffffffffffffffffffffffffffffffffffffff1681525060456000600a60ff16815260200190815260200160002060008201518160000160006101000a81548160ff021916908360ff16021790555060208201518160000160016101000a81548160ff021916908360ff16021790555060408201518160000160026101000a81548160ff021916908360ff16021790555060608201518160000160036101000a81548160ff021916908360ff16021790555060808201518160000160046101000a81548173ffffffffffffffffffffffffffffffffffffffff021916908373ffffffffffffffffffffffffffffffffffffffff160217905550905050600a603b600260078110612fbc57fe5b01600260078110612fc957fe5b602091828204019190066101000a81548160ff021916908360ff1602179055506040518060a00160405280600b60ff168152602001600a60ff168152602001600460ff168152602001600260ff168152602001600073ffffffffffffffffffffffffffffffffffffffff1681525060456000600b60ff16815260200190815260200160002060008201518160000160006101000a81548160ff021916908360ff16021790555060208201518160000160016101000a81548160ff021916908360ff16021790555060408201518160000160026101000a81548160ff021916908360ff16021790555060608201518160000160036101000a81548160ff021916908360ff16021790555060808201518160000160046101000a81548173ffffffffffffffffffffffffffffffffffffffff021916908373ffffffffffffffffffffffffffffffffffffffff160217905550905050600b603b60046007811061312c57fe5b0160026007811061313957fe5b602091828204019190066101000a81548160ff021916908360ff1602179055506040518060a00160405280600c60ff168152602001600a60ff168152602001600260ff168152602001600460ff168152602001600073ffffffffffffffffffffffffffffffffffffffff1681525060456000600c60ff16815260200190815260200160002060008201518160000160006101000a81548160ff021916908360ff16021790555060208201518160000160016101000a81548160ff021916908360ff16021790555060408201518160000160026101000a81548160ff021916908360ff16021790555060608201518160000160036101000a81548160ff021916908360ff16021790555060808201518160000160046101000a81548173ffffffffffffffffffffffffffffffffffffffff021916908373ffffffffffffffffffffffffffffffffffffffff160217905550905050600c603b60026007811061329c57fe5b016004600781106132a957fe5b602091828204019190066101000a81548160ff021916908360ff1602179055506040518060a00160405280600d60ff168152602001600560ff168152602001600460ff168152602001600460ff168152602001600073ffffffffffffffffffffffffffffffffffffffff1681525060456000600d60ff16815260200190815260200160002060008201518160000160006101000a81548160ff021916908360ff16021790555060208201518160000160016101000a81548160ff021916908360ff16021790555060408201518160000160026101000a81548160ff021916908360ff16021790555060608201518160000160036101000a81548160ff021916908360ff16021790555060808201518160000160046101000a81548173ffffffffffffffffffffffffffffffffffffffff021916908373ffffffffffffffffffffffffffffffffffffffff160217905550905050600d603b60046007811061340c57fe5b0160046007811061341957fe5b602091828204019190066101000a81548160ff021916908360ff1602179055506040518060a00160405280600e60ff168152602001600560ff168152602001600360ff168152602001600660ff168152602001600073ffffffffffffffffffffffffffffffffffffffff1681525060456000600e60ff16815260200190815260200160002060008201518160000160006101000a81548160ff021916908360ff16021790555060208201518160000160016101000a81548160ff021916908360ff16021790555060408201518160000160026101000a81548160ff021916908360ff16021790555060608201518160000160036101000a81548160ff021916908360ff16021790555060808201518160000160046101000a81548173ffffffffffffffffffffffffffffffffffffffff021916908373ffffffffffffffffffffffffffffffffffffffff160217905550905050600e603b60036007811061357c57fe5b0160066007811061358957fe5b602091828204019190066101000a81548160ff021916908360ff16021790555050565b600781565b6003808111156135bd57fe5b603360019054906101000a900460ff1660038111156135d857fe5b1415613619576040517f08c379a0000000000000000000000000000000000000000000000000000000008152600401613610906153d4565b60405180910390fd5b604660019054906101000a900473ffffffffffffffffffffffffffffffffffffffff1673ffffffffffffffffffffffffffffffffffffffff163373ffffffffffffffffffffffffffffffffffffffff1614156136d8576001600381111561367c57fe5b603360019054906101000a900460ff16600381111561369757fe5b146136d7576040517f08c379a00000000000000000000000000000000000000000000000000000000081526004016136ce906154b4565b60405180910390fd5b5b604760009054906101000a900473ffffffffffffffffffffffffffffffffffffffff1673ffffffffffffffffffffffffffffffffffffffff163373ffffffffffffffffffffffffffffffffffffffff161415613797576002600381111561373b57fe5b603360019054906101000a900460ff16600381111561375657fe5b14613796576040517f08c379a000000000000000000000000000000000000000000000000000000000815260040161378d906153f4565b60405180910390fd5b5b6000603360009054906101000a900460ff1660ff16116137ec576040517f08c379a00000000000000000000000000000000000000000000000000000000081526004016137e390615454565b60405180910390fd5b6000604360008560ff1660ff16815260200190815260200160002090503373ffffffffffffffffffffffffffffffffffffffff168160000160029054906101000a900473ffffffffffffffffffffffffffffffffffffffff1673ffffffffffffffffffffffffffffffffffffffff161461389b576040517f08c379a000000000000000000000000000000000000000000000000000000000815260040161389290615494565b60405180910390fd5b8060000160189054906101000a900460ff16156138ed576040517f08c379a00000000000000000000000000000000000000000000000000000000081526004016138e490615314565b60405180910390fd5b613a02816040518060e00160405290816000820160009054906101000a900460ff1660ff1660ff1681526020016000820160019054906101000a900460ff16600281111561393757fe5b600281111561394257fe5b81526020016000820160029054906101000a900473ffffffffffffffffffffffffffffffffffffffff1673ffffffffffffffffffffffffffffffffffffffff1673ffffffffffffffffffffffffffffffffffffffff1681526020016000820160169054906101000a900460ff1660ff1660ff1681526020016000820160179054906101000a900460ff1660ff1660ff1681526020016000820160189054906101000a900460ff1615151515815260200160018201548152505084846104d2565b613a41576040517f08c379a0000000000000000000000000000000000000000000000000000000008152600401613a3890615374565b60405180910390fd5b600060348260000160169054906101000a900460ff1660ff1660078110613a6457fe5b018260000160179054906101000a900460ff1660ff1660078110613a8457fe5b602091828204019190066101000a81548160ff021916908360ff1602179055508060000160009054906101000a900460ff1660348460ff1660078110613ac657fe5b018360ff1660078110613ad557fe5b602091828204019190066101000a81548160ff021916908360ff160217905550828160000160166101000a81548160ff021916908360ff160217905550818160000160176101000a81548160ff021916908360ff160217905550600060456000603b8660ff1660078110613b4557fe5b018560ff1660078110613b5457fe5b602091828204019190069054906101000a900460ff1660ff1660ff16815260200190815260200160002060000160019054906101000a900460ff1660ff16118015613c3b5750600073ffffffffffffffffffffffffffffffffffffffff1660456000603b8660ff1660078110613bc657fe5b018560ff1660078110613bd557fe5b602091828204019190069054906101000a900460ff1660ff1660ff16815260200190815260200160002060000160049054906101000a900473ffffffffffffffffffffffffffffffffffffffff1673ffffffffffffffffffffffffffffffffffffffff16145b15613d3b57604660019054906101000a900473ffffffffffffffffffffffffffffffffffffffff1673ffffffffffffffffffffffffffffffffffffffff163373ffffffffffffffffffffffffffffffffffffffff161415613cea57603b8360ff1660078110613ca657fe5b018260ff1660078110613cb557fe5b602091828204019190069054906101000a900460ff16604760166101000a81548160ff021916908360ff160217905550613d3a565b603b8360ff1660078110613cfa57fe5b018260ff1660078110613d0957fe5b602091828204019190069054906101000a900460ff16604760176101000a81548160ff021916908360ff1602179055505b5b613d43613d49565b50505050565b604660019054906101000a900473ffffffffffffffffffffffffffffffffffffffff1673ffffffffffffffffffffffffffffffffffffffff163373ffffffffffffffffffffffffffffffffffffffff16141561403857600060456000604760179054906101000a900460ff1660ff1660ff168152602001908152602001600020905060008160000160019054906101000a900460ff1660ff16118015613e3f5750600073ffffffffffffffffffffffffffffffffffffffff168160000160049054906101000a900473ffffffffffffffffffffffffffffffffffffffff1673ffffffffffffffffffffffffffffffffffffffff16145b15613ff25760006043600060348460000160029054906101000a900460ff1660ff1660078110613e6b57fe5b018460000160039054906101000a900460ff1660ff1660078110613e8b57fe5b602091828204019190069054906101000a900460ff1660ff1660ff1681526020019081526020016000209050604760009054906101000a900473ffffffffffffffffffffffffffffffffffffffff1673ffffffffffffffffffffffffffffffffffffffff168160000160029054906101000a900473ffffffffffffffffffffffffffffffffffffffff1673ffffffffffffffffffffffffffffffffffffffff16148015613f4757508060000160189054906101000a900460ff16155b15613ff057604760009054906101000a900473ffffffffffffffffffffffffffffffffffffffff168260000160046101000a81548173ffffffffffffffffffffffffffffffffffffffff021916908373ffffffffffffffffffffffffffffffffffffffff1602179055508160000160019054906101000a900460ff16604760158282829054906101000a900460ff160192506101000a81548160ff021916908360ff1602179055505b505b6000604760176101000a81548160ff021916908360ff1602179055506002603360016101000a81548160ff0219169083600381111561402d57fe5b0217905550506142ff565b600060456000604760169054906101000a900460ff1660ff1660ff168152602001908152602001600020905060008160000160019054906101000a900460ff1660ff161180156140d85750600073ffffffffffffffffffffffffffffffffffffffff168160000160049054906101000a900473ffffffffffffffffffffffffffffffffffffffff1673ffffffffffffffffffffffffffffffffffffffff16145b1561428b5760006043600060348460000160029054906101000a900460ff1660ff166007811061410457fe5b018460000160039054906101000a900460ff1660ff166007811061412457fe5b602091828204019190069054906101000a900460ff1660ff1660ff1681526020019081526020016000209050604660019054906101000a900473ffffffffffffffffffffffffffffffffffffffff1673ffffffffffffffffffffffffffffffffffffffff168160000160029054906101000a900473ffffffffffffffffffffffffffffffffffffffff1673ffffffffffffffffffffffffffffffffffffffff161480156141e057508060000160189054906101000a900460ff16155b1561428957604660019054906101000a900473ffffffffffffffffffffffffffffffffffffffff168260000160046101000a81548173ffffffffffffffffffffffffffffffffffffffff021916908373ffffffffffffffffffffffffffffffffffffffff1602179055508160000160019054906101000a900460ff16604760148282829054906101000a900460ff160192506101000a81548160ff021916908360ff1602179055505b505b6000604760166101000a81548160ff021916908360ff1602179055506033600081819054906101000a900460ff168092919060010191906101000a81548160ff021916908360ff160217905550506001603360016101000a81548160ff021916908360038111156142f857fe5b0217905550505b7f8eaa9f09cc5e3b56163bc8d93f99b4299c7172f83d51d1448e8d9a3dc6d1a1013360405161432e919061520f565b60405180910390a161433e6108d8565b15614394576003603360016101000a81548160ff0219169083600381111561436257fe5b02179055507fb537cbcadc098cfedf5a04ef7e68a8554b55f7e45bfdaca1cbc51a686ef65f4860405160405180910390a15b565b6040518060a00160405280600060ff168152602001600060ff168152602001600060ff168152602001600060ff168152602001600073ffffffffffffffffffffffffffffffffffffffff1681525090565b6040518060e00160405280600060ff1681526020016000600281111561440957fe5b8152602001600073ffffffffffffffffffffffffffffffffffffffff168152602001600060ff168152602001600060ff168152602001600015158152602001600081525090565b826008601f016020900481019282156144d95791602002820160005b838211156144aa57835183826101000a81548160ff021916908360ff160217905550926020019260010160208160000104928301926001030261446c565b80156144d75782816101000a81549060ff02191690556001016020816000010492830192600103026144aa565b505b5090506144e69190614584565b5090565b826006601f016020900481019282156145735791602002820160005b8382111561454457835183826101000a81548160ff021916908360ff1602179055509260200192600101602081600001049283019260010302614506565b80156145715782816101000a81549060ff0219169055600101602081600001049283019260010302614544565b505b5090506145809190614584565b5090565b6145b191905b808211156145ad57600081816101000a81549060ff02191690555060010161458a565b5090565b90565b6000813590506145c381615859565b92915050565b600082601f8301126145da57600080fd5b60026145ed6145e88261563e565b615611565b9150818385604084028201111561460357600080fd5b60005b838110156146335781614619888261463d565b845260208401935060408301925050600181019050614606565b5050505092915050565b600082601f83011261464e57600080fd5b600261466161465c82615660565b615611565b9150818385602084028201111561467757600080fd5b60005b838110156146a7578161468d88826147a0565b84526020840193506020830192505060018101905061467a565b5050505092915050565b6000813590506146c081615870565b92915050565b6000815190506146d581615870565b92915050565b6000813590506146ea81615887565b92915050565b600060e0828403121561470257600080fd5b61470c60e0615611565b9050600061471c848285016147ca565b6000830152506020614730848285016146db565b6020830152506040614744848285016145b4565b6040830152506060614758848285016147ca565b606083015250608061476c848285016147ca565b60808301525060a0614780848285016146b1565b60a08301525060c0614794848285016147a0565b60c08301525092915050565b6000813590506147af81615897565b92915050565b6000815190506147c481615897565b92915050565b6000813590506147d9816158ae565b92915050565b600080600080600061016086880312156147f857600080fd5b60006148068882890161463d565b9550506040614817888289016145c9565b94505060c06148288882890161463d565b93505061010061483a8882890161463d565b92505061014061484c888289016147ca565b9150509295509295909350565b60006020828403121561486b57600080fd5b6000614879848285016146b1565b91505092915050565b60006020828403121561489457600080fd5b60006148a2848285016146c6565b91505092915050565b600080600061012084860312156148c157600080fd5b60006148cf868287016146f0565b93505060e06148e0868287016147ca565b9250506101006148f2868287016147ca565b9150509250925092565b60006020828403121561490e57600080fd5b600061491c848285016147a0565b91505092915050565b60006020828403121561493757600080fd5b6000614945848285016147b5565b91505092915050565b6000806040838503121561496157600080fd5b600061496f858286016147a0565b9250506020614980858286016147a0565b9150509250929050565b60006020828403121561499c57600080fd5b60006149aa848285016147ca565b91505092915050565b600080600080608085870312156149c957600080fd5b60006149d7878288016147ca565b94505060206149e8878288016147a0565b93505060406149f9878288016147a0565b9250506060614a0a878288016147a0565b91505092959194509250565b600080600060608486031215614a2b57600080fd5b6000614a39868287016147ca565b9350506020614a4a868287016147ca565b9250506040614a5b868287016147ca565b9150509250925092565b6000614a718383614c5c565b60408301905092915050565b6000614a8983836150a4565b60a08301905092915050565b6000614aa1838361510c565b60e08301905092915050565b6000614ab983836151c7565b60208301905092915050565b614ace816157e5565b82525050565b614add8161576a565b82525050565b614aec8161576a565b82525050565b614afb816156b6565b614b058184615716565b9250614b1082615682565b8060005b83811015614b41578151614b288782614a65565b9650614b33836156e2565b925050600181019050614b14565b505050505050565b6000614b54826156c1565b614b5e8185615721565b9350614b698361568c565b8060005b83811015614b9a578151614b818882614a7d565b9750614b8c836156ef565b925050600181019050614b6d565b5085935050505092915050565b6000614bb2826156cc565b614bbc8185615732565b9350614bc78361569c565b8060005b83811015614bf8578151614bdf8882614a95565b9750614bea836156fc565b925050600181019050614bcb565b5085935050505092915050565b614c0e816156d7565b614c188184615743565b9250614c23826156ac565b8060005b83811015614c54578151614c3b8782614aad565b9650614c4683615709565b925050600181019050614c27565b505050505050565b614c65816156d7565b614c6f818461574e565b9250614c7a826156ac565b8060005b83811015614cab578151614c928782614aad565b9650614c9d83615709565b925050600181019050614c7e565b505050505050565b614cbc8161577c565b82525050565b614ccb8161577c565b82525050565b614cda816157f7565b82525050565b614ce981615809565b82525050565b614cf881615809565b82525050565b6000614d0b600d83615759565b91507f50696563652069732064656164000000000000000000000000000000000000006000830152602082019050919050565b6000614d4b601583615759565b91507f63616e2774206a6f696e2067616d6520747769636500000000000000000000006000830152602082019050919050565b6000614d8b601483615759565b91507f4661696c6564207a6b206d6f766520636865636b0000000000000000000000006000830152602082019050919050565b6000614dcb600c83615759565b91507f496e76616c6964206d6f766500000000000000000000000000000000000000006000830152602082019050919050565b6000614e0b602983615759565b91507f63616e206f6e6c792072657665616c20746f2063617074757265206f70706f7360008301527f696e6720706965636500000000000000000000000000000000000000000000006020830152604082019050919050565b6000614e71601583615759565b91507f5069656365206d75737420626520612067686f737400000000000000000000006000830152602082019050919050565b6000614eb1600d83615759565b91507f47616d6520697320656e646564000000000000000000000000000000000000006000830152602082019050919050565b6000614ef1600d83615759565b91507f4e6f742070322773207475726e000000000000000000000000000000000000006000830152602082019050919050565b6000614f31600e83615759565b91507f496e76616c69642072657665616c0000000000000000000000000000000000006000830152602082019050919050565b6000614f71601083615759565b91507f5a4b2050726f6f6620696e76616c6964000000000000000000000000000000006000830152602082019050919050565b6000614fb1601d83615759565b91507f4d757374206d6f76652067686f7374206f6e206669727374207475726e0000006000830152602082019050919050565b6000614ff1601483615759565b91507f47616d6520616c726561647920737461727465640000000000000000000000006000830152602082019050919050565b6000615031601883615759565b91507f596f7520646f6e2774206f776e207468617420706965636500000000000000006000830152602082019050919050565b6000615071600d83615759565b91507f4e6f742070312773207475726e000000000000000000000000000000000000006000830152602082019050919050565b60a0820160008201516150ba60008501826151d6565b5060208201516150cd60208501826151d6565b5060408201516150e060408501826151d6565b5060608201516150f360608501826151d6565b5060808201516151066080850182614ad4565b50505050565b60e08201600082015161512260008501826151d6565b5060208201516151356020850182614ce0565b5060408201516151486040850182614ad4565b50606082015161515b60608501826151d6565b50608082015161516e60808501826151d6565b5060a082015161518160a0850182614cb3565b5060c082015161519460c085018261519a565b50505050565b6151a3816157ce565b82525050565b6151b2816157ce565b82525050565b6151c1816157ce565b82525050565b6151d0816157ce565b82525050565b6151df816157d8565b82525050565b6151ee816157d8565b82525050565b60006020820190506152096000830184614ae3565b92915050565b60006020820190506152246000830184614ac5565b92915050565b600060408201905061523f6000830185614ae3565b61524c6020830184614ae3565b9392505050565b6000602082019050818103600083015261526d8184614b49565b905092915050565b6000602082019050818103600083015261528f8184614ba7565b905092915050565b6000610140820190506152ad6000830187614c05565b6152ba6040830186614af2565b6152c760c0830185614c05565b6152d5610100830184614c05565b95945050505050565b60006020820190506152f36000830184614cc2565b92915050565b600060208201905061530e6000830184614cd1565b92915050565b6000602082019050818103600083015261532d81614cfe565b9050919050565b6000602082019050818103600083015261534d81614d3e565b9050919050565b6000602082019050818103600083015261536d81614d7e565b9050919050565b6000602082019050818103600083015261538d81614dbe565b9050919050565b600060208201905081810360008301526153ad81614dfe565b9050919050565b600060208201905081810360008301526153cd81614e64565b9050919050565b600060208201905081810360008301526153ed81614ea4565b9050919050565b6000602082019050818103600083015261540d81614ee4565b9050919050565b6000602082019050818103600083015261542d81614f24565b9050919050565b6000602082019050818103600083015261544d81614f64565b9050919050565b6000602082019050818103600083015261546d81614fa4565b9050919050565b6000602082019050818103600083015261548d81614fe4565b9050919050565b600060208201905081810360008301526154ad81615024565b9050919050565b600060208201905081810360008301526154cd81615064565b9050919050565b60006020820190506154e960008301846151a9565b92915050565b600060808201905061550460008301876151b8565b61551160208301866151b8565b61551e60408301856151b8565b61552b60608301846151b8565b95945050505050565b600060208201905061554960008301846151e5565b92915050565b600060e082019050615564600083018a6151e5565b6155716020830189614cef565b61557e6040830188614ae3565b61558b60608301876151e5565b61559860808301866151e5565b6155a560a0830185614cc2565b6155b260c08301846151a9565b98975050505050505050565b600060a0820190506155d360008301886151e5565b6155e060208301876151e5565b6155ed60408301866151e5565b6155fa60608301856151e5565b6156076080830184614ae3565b9695505050505050565b6000604051905081810181811067ffffffffffffffff8211171561563457600080fd5b8060405250919050565b600067ffffffffffffffff82111561565557600080fd5b602082029050919050565b600067ffffffffffffffff82111561567757600080fd5b602082029050919050565b6000819050919050565b6000819050602082019050919050565b6000819050602082019050919050565b6000819050919050565b600060029050919050565b600081519050919050565b600081519050919050565b600060029050919050565b6000602082019050919050565b6000602082019050919050565b6000602082019050919050565b6000602082019050919050565b600081905092915050565b600082825260208201905092915050565b600082825260208201905092915050565b600081905092915050565b600081905092915050565b600082825260208201905092915050565b6000615775826157ae565b9050919050565b60008115159050919050565b60008190506157968261583f565b919050565b60008190506157a98261584c565b919050565b600073ffffffffffffffffffffffffffffffffffffffff82169050919050565b6000819050919050565b600060ff82169050919050565b60006157f08261581b565b9050919050565b600061580282615788565b9050919050565b60006158148261579b565b9050919050565b60006158268261582d565b9050919050565b6000615838826157ae565b9050919050565b6004811061584957fe5b50565b6003811061585657fe5b50565b6158628161576a565b811461586d57600080fd5b50565b6158798161577c565b811461588457600080fd5b50565b6003811061589457600080fd5b50565b6158a0816157ce565b81146158ab57600080fd5b50565b6158b7816157d8565b81146158c257600080fd5b5056fea2646970667358221220c4e0d2212eda8c20e6dad45045ab8a4c54d768bcc531c890e8c5926bf96ab1bc64736f6c63430006070033",
  "immutableReferences": {},
  "source": "pragma solidity ^0.6.7;\npragma experimental ABIEncoderV2;\n\nimport \"@openzeppelin/contracts-ethereum-package/contracts/Initializable.sol\";\nimport \"./ZKChessTypes.sol\";\nimport \"./ZKChessUtils.sol\";\nimport \"./Verifier.sol\";\n\ncontract ZKChessGame is Initializable {\n    uint256\n        public constant FIELD_SIZE = 21888242871839275222246405745257275088548364400416034343698204186575808495617;\n    uint256\n        public constant GHOST_START_COMMITMENT = 7374563847362678215915084925243633004703986452179446109135597066279732561698;\n    uint256 public constant BOARD_SIZE = 7;\n\n    uint8 public turnNumber;\n    GameState public gameState;\n    uint8[BOARD_SIZE][BOARD_SIZE] public boardPieces; // board[row][col]\n    uint8[BOARD_SIZE][BOARD_SIZE] public boardObjectives;\n\n    uint8[8] public pieceIds;\n    mapping(uint8 => Piece) public pieces;\n    uint8[6] public objectiveIds;\n    mapping(uint8 => Objective) public objectives;\n\n    bool public DISABLE_ZK_CHECK;\n\n    address public player1;\n    address public player2;\n\n    uint8 public player1Score;\n    uint8 public player2Score;\n\n    uint8 p1CurrentlyCapturing;\n    uint8 p2CurrentlyCapturing;\n\n    uint256 pfsVerified;\n\n    function initialize(bool _disableZKCheck) public {\n        DISABLE_ZK_CHECK = _disableZKCheck;\n        gameState = GameState.WAITING_FOR_PLAYERS;\n\n        pieceIds = [1, 2, 3, 4, 5, 6, 7, 8];\n        objectiveIds = [9, 10, 11, 12, 13, 14];\n\n        // initialize pieces\n        pieces[1] = Piece({\n            id: 1,\n            pieceType: PieceType.KING,\n            owner: address(0),\n            row: 0,\n            col: 1,\n            dead: false,\n            commitment: 0\n        });\n        boardPieces[0][1] = 1;\n        pieces[2] = Piece({\n            id: 2,\n            pieceType: PieceType.KNIGHT,\n            owner: address(0),\n            row: 0,\n            col: 3,\n            dead: false,\n            commitment: 0\n        });\n        boardPieces[0][3] = 2;\n        pieces[3] = Piece({\n            id: 3,\n            pieceType: PieceType.KING,\n            owner: address(0),\n            row: 0,\n            col: 5,\n            dead: false,\n            commitment: 0\n        });\n        boardPieces[0][5] = 3;\n        pieces[4] = Piece({\n            id: 4,\n            pieceType: PieceType.GHOST,\n            owner: address(0),\n            row: 0,\n            col: 0,\n            dead: false,\n            commitment: GHOST_START_COMMITMENT\n        });\n        pieces[5] = Piece({\n            id: 5,\n            pieceType: PieceType.KING,\n            owner: address(0),\n            row: 6,\n            col: 1,\n            dead: false,\n            commitment: 0\n        });\n        boardPieces[6][1] = 5;\n        pieces[6] = Piece({\n            id: 6,\n            pieceType: PieceType.KNIGHT,\n            owner: address(0),\n            row: 6,\n            col: 3,\n            dead: false,\n            commitment: 0\n        });\n        boardPieces[6][3] = 6;\n        pieces[7] = Piece({\n            id: 7,\n            pieceType: PieceType.KING,\n            owner: address(0),\n            row: 6,\n            col: 5,\n            dead: false,\n            commitment: 0\n        });\n        boardPieces[6][5] = 7;\n        pieces[8] = Piece({\n            id: 8,\n            pieceType: PieceType.GHOST,\n            owner: address(0),\n            row: 6,\n            col: 0,\n            dead: false,\n            commitment: GHOST_START_COMMITMENT\n        });\n\n        // initialize objectives\n        objectives[9] = Objective({\n            id: 9,\n            value: 5,\n            row: 3,\n            col: 0,\n            capturedBy: address(0)\n        });\n        boardObjectives[3][0] = 9;\n        objectives[10] = Objective({\n            id: 10,\n            value: 5,\n            row: 2,\n            col: 2,\n            capturedBy: address(0)\n        });\n        boardObjectives[2][2] = 10;\n        objectives[11] = Objective({\n            id: 11,\n            value: 10,\n            row: 4,\n            col: 2,\n            capturedBy: address(0)\n        });\n        boardObjectives[4][2] = 11;\n        objectives[12] = Objective({\n            id: 12,\n            value: 10,\n            row: 2,\n            col: 4,\n            capturedBy: address(0)\n        });\n        boardObjectives[2][4] = 12;\n        objectives[13] = Objective({\n            id: 13,\n            value: 5,\n            row: 4,\n            col: 4,\n            capturedBy: address(0)\n        });\n        boardObjectives[4][4] = 13;\n        objectives[14] = Objective({\n            id: 14,\n            value: 5,\n            row: 3,\n            col: 6,\n            capturedBy: address(0)\n        });\n        boardObjectives[3][6] = 14;\n    }\n\n    //////////////\n    /// EVENTS ///\n    //////////////\n\n    event ProofVerified(uint256 pfsAccepted);\n    event GameStart(address p1, address p2);\n    event MoveMade(address player);\n    event GameFinished();\n\n    ///////////////\n    /// GETTERS ///\n    ///////////////\n\n    function getPieces() public view returns (Piece[] memory ret) {\n        ret = new Piece[](pieceIds.length);\n        for (uint8 i = 0; i < pieceIds.length; i++) {\n            ret[i] = pieces[pieceIds[i]];\n        }\n        return ret;\n    }\n\n    function getObjectives() public view returns (Objective[] memory ret) {\n        ret = new Objective[](objectiveIds.length);\n        for (uint8 i = 0; i < objectiveIds.length; i++) {\n            ret[i] = objectives[objectiveIds[i]];\n        }\n        return ret;\n    }\n\n    //////////////\n    /// Helper ///\n    //////////////\n\n    function isValidMove(\n        Piece memory piece,\n        uint8 toRow,\n        uint8 toCol\n    ) public view returns (bool) {\n        if (toRow >= BOARD_SIZE || toCol >= BOARD_SIZE) {\n            // must be in the range [0, SIZE - 1]\n            return false;\n        }\n        if (boardPieces[toRow][toCol] > 0) {\n            // a piece already exists there\n            return false;\n        }\n        if (piece.pieceType == PieceType.GHOST) {\n            return false;\n        } else if (piece.pieceType == PieceType.KING) {\n            if (piece.row == toRow && piece.col == toCol) {\n                return false;\n            }\n            int16 rowDiff = int16(piece.row) - int16(toRow);\n            if (rowDiff > 1 || rowDiff < -1) {\n                return false;\n            }\n            int16 colDiff = int16(piece.col) - int16(toCol);\n            if (colDiff > 1 || colDiff < -1) {\n                return false;\n            }\n        } else if (piece.pieceType == PieceType.KNIGHT) {\n            int16 rowDiff = int16(piece.row) - int16(toRow);\n            int16 colDiff = int16(piece.col) - int16(toCol);\n            if (rowDiff == 2 || rowDiff == -2) {\n                if (colDiff != 1 && colDiff != -1) {\n                    return false;\n                }\n            } else if (rowDiff == 1 || rowDiff == -1) {\n                if (colDiff != 2 && colDiff != -2) {\n                    return false;\n                }\n            } else {\n                return false;\n            }\n        }\n        return true;\n    }\n\n    function gameShouldBeCompleted() public view returns (bool) {\n        // check if game is over: no pieces left, OR no objectives left\n        bool noPiecesLeft = true;\n        for (uint8 i = 0; i < pieceIds.length; i++) {\n            if (!pieces[pieceIds[i]].dead) {\n                noPiecesLeft = false;\n                break;\n            }\n        }\n        if (noPiecesLeft) {\n            return true;\n        }\n\n        bool noObjectivesLeft = true;\n        for (uint8 i = 0; i < objectiveIds.length; i++) {\n            if (objectives[objectiveIds[i]].capturedBy == address(0)) {\n                noObjectivesLeft = false;\n                break;\n            }\n        }\n        if (noObjectivesLeft) {\n            return true;\n        }\n        return false;\n    }\n\n    //////////////////////\n    /// Game Mechanics ///\n    //////////////////////\n\n    function joinGame() public {\n        require(\n            gameState == GameState.WAITING_FOR_PLAYERS,\n            \"Game already started\"\n        );\n        if (player1 == address(0)) {\n            // first player to join game\n            player1 = msg.sender;\n            return;\n        }\n        // another player has joined. game is ready to start\n\n        require(msg.sender != player1, \"can't join game twice\");\n        // randomize player order\n        if (block.timestamp % 2 == 0) {\n            player2 = msg.sender;\n        } else {\n            player2 = player1;\n            player1 = msg.sender;\n        }\n\n        // set pieces\n        for (uint8 i = 1; i < 5; i++) {\n            pieces[i].owner = player1;\n        }\n        for (uint8 i = 5; i < 9; i++) {\n            pieces[i].owner = player2;\n        }\n\n        gameState = GameState.P1_TO_MOVE;\n        emit GameStart(player1, player2);\n    }\n\n    function movePiece(\n        uint8 pieceId,\n        uint8 toRow,\n        uint8 toCol\n    ) public {\n        require(gameState != GameState.COMPLETE, \"Game is ended\");\n        if (msg.sender == player1) {\n            require(gameState == GameState.P1_TO_MOVE, \"Not p1's turn\");\n        }\n        if (msg.sender == player2) {\n            require(gameState == GameState.P2_TO_MOVE, \"Not p2's turn\");\n        }\n        require(turnNumber > 0, \"Must move ghost on first turn\");\n        Piece storage piece = pieces[pieceId];\n        require(piece.owner == msg.sender, \"You don't own that piece\");\n        require(!piece.dead, \"Piece is dead\");\n        require(isValidMove(piece, toRow, toCol), \"Invalid move\");\n\n        boardPieces[piece.row][piece.col] = 0;\n        boardPieces[toRow][toCol] = piece.id;\n        piece.row = toRow;\n        piece.col = toCol;\n        if (\n            objectives[boardObjectives[toRow][toCol]].value > 0 &&\n            objectives[boardObjectives[toRow][toCol]].capturedBy == address(0)\n        ) {\n            if (msg.sender == player1) {\n                p1CurrentlyCapturing = boardObjectives[toRow][toCol];\n            } else {\n                p2CurrentlyCapturing = boardObjectives[toRow][toCol];\n            }\n        }\n        completeTurn();\n    }\n\n    function moveGhost(\n        uint256[2] memory _a,\n        uint256[2][2] memory _b,\n        uint256[2] memory _c,\n        uint256[2] memory _input,\n        uint8 pieceId\n    ) public {\n        require(gameState != GameState.COMPLETE, \"Game is ended\");\n        if (msg.sender == player1) {\n            require(gameState == GameState.P1_TO_MOVE, \"Not p1's turn\");\n        }\n        if (msg.sender == player2) {\n            require(gameState == GameState.P2_TO_MOVE, \"Not p2's turn\");\n        }\n        Piece storage piece = pieces[pieceId];\n        require(piece.pieceType == PieceType.GHOST, \"Piece must be a ghost\");\n        require(piece.owner == msg.sender, \"You don't own that piece\");\n        require(piece.commitment == _input[0], \"ZK Proof invalid\");\n        if (!DISABLE_ZK_CHECK) {\n            require(\n                Verifier.verifyMoveProof(_a, _b, _c, _input),\n                \"Failed zk move check\"\n            );\n        }\n        piece.commitment = _input[1];\n        completeTurn();\n    }\n\n    function ghostAttack(\n        uint8 pieceId,\n        uint256 row,\n        uint256 col,\n        uint256 salt\n    ) public {\n        require(gameState != GameState.COMPLETE, \"Game is ended\");\n        if (msg.sender == player1) {\n            require(gameState == GameState.P1_TO_MOVE, \"Not p1's turn\");\n        }\n        if (msg.sender == player2) {\n            require(gameState == GameState.P2_TO_MOVE, \"Not p2's turn\");\n        }\n        require(turnNumber > 0, \"Must move ghost on first turn\");\n        Piece storage piece = pieces[pieceId];\n        require(piece.pieceType == PieceType.GHOST, \"Piece must be a ghost\");\n        require(piece.owner == msg.sender, \"You don't own that piece\");\n        require(\n            ZKChessUtils.hashTriple(row, col, salt, FIELD_SIZE) ==\n                piece.commitment,\n            \"Invalid reveal\"\n        );\n        Piece storage theirPiece = pieces[boardPieces[row][col]];\n        address opponent = player1;\n        if (msg.sender == player1) {\n            opponent = player2;\n        }\n        require(\n            theirPiece.owner == opponent,\n            \"can only reveal to capture opposing piece\"\n        );\n        theirPiece.dead = true;\n        completeTurn();\n    }\n\n    function completeTurn() internal {\n        if (msg.sender == player1) {\n            // check if opponent captures any objectives\n            Objective storage capturing = objectives[p2CurrentlyCapturing];\n            if (capturing.value > 0 && capturing.capturedBy == address(0)) {\n                // is an uncaptured objective\n                Piece storage onObjective = pieces[boardPieces[capturing\n                    .row][capturing.col]];\n                if (onObjective.owner == player2 && !onObjective.dead) {\n                    // p2's live piece is stationed on top\n                    capturing.capturedBy = player2;\n                    player2Score += capturing.value;\n                }\n            }\n            // change to p2's turn\n            p2CurrentlyCapturing = 0;\n            gameState = GameState.P2_TO_MOVE;\n        } else {\n            // check if opponent captures any objectives\n            Objective storage capturing = objectives[p1CurrentlyCapturing];\n            if (capturing.value > 0 && capturing.capturedBy == address(0)) {\n                // is an uncaptured objective\n                Piece storage onObjective = pieces[boardPieces[capturing\n                    .row][capturing.col]];\n                if (onObjective.owner == player1 && !onObjective.dead) {\n                    // p1's live piece is stationed on top\n                    capturing.capturedBy = player1;\n                    player1Score += capturing.value;\n                }\n            }\n            // change to p1's turn\n            p1CurrentlyCapturing = 0;\n            turnNumber++;\n            gameState = GameState.P1_TO_MOVE;\n        }\n        emit MoveMade(msg.sender);\n\n        if (gameShouldBeCompleted()) {\n            gameState = GameState.COMPLETE;\n            emit GameFinished();\n        }\n    }\n}\n",
  "sourcePath": "/Users/bgu/zk-chess/eth/contracts/ZKChessGame.sol",
  "compiler": {
    "name": "solc",
    "version": "0.6.7+commit.b8d736ae.Emscripten.clang"
  },
  "schemaVersion": "3.3.1",
  "updatedAt": "2020-11-01T15:27:20.137Z",
  "networkType": "ethereum",
  "devdoc": {
    "methods": {}
  },
  "userdoc": {
    "methods": {
      "getPieces()": {
        "notice": "//////////// GETTERS /// ////////////"
      },
      "isValidMove((uint8,uint8,address,uint8,uint8,bool,uint256),uint8,uint8)": {
        "notice": "/////////// Helper /// ///////////"
      },
      "joinGame()": {
        "notice": "/////////////////// Game Mechanics /// ///////////////////"
      }
    }
  }
}