{
  "contractName": "ZKChessGame",
  "abi": [
    {
      "anonymous": false,
      "inputs": [
        {
          "indexed": false,
          "internalType": "address",
          "name": "player",
          "type": "address"
        }
      ],
      "name": "ActionMade",
      "type": "event"
    },
    {
      "anonymous": false,
      "inputs": [],
      "name": "GameFinished",
      "type": "event"
    },
    {
      "anonymous": false,
      "inputs": [
        {
          "indexed": false,
          "internalType": "address",
          "name": "p1",
          "type": "address"
        },
        {
          "indexed": false,
          "internalType": "address",
          "name": "p2",
          "type": "address"
        }
      ],
      "name": "GameStart",
      "type": "event"
    },
    {
      "anonymous": false,
      "inputs": [
        {
          "indexed": false,
          "internalType": "uint256",
          "name": "pfsAccepted",
          "type": "uint256"
        }
      ],
      "name": "ProofVerified",
      "type": "event"
    },
    {
      "inputs": [],
      "name": "BOARD_SIZE",
      "outputs": [
        {
          "internalType": "uint256",
          "name": "",
          "type": "uint256"
        }
      ],
      "stateMutability": "view",
      "type": "function",
      "constant": true
    },
    {
      "inputs": [],
      "name": "DISABLE_ZK_CHECK",
      "outputs": [
        {
          "internalType": "bool",
          "name": "",
          "type": "bool"
        }
      ],
      "stateMutability": "view",
      "type": "function",
      "constant": true
    },
    {
      "inputs": [],
      "name": "FIELD_SIZE",
      "outputs": [
        {
          "internalType": "uint256",
          "name": "",
          "type": "uint256"
        }
      ],
      "stateMutability": "view",
      "type": "function",
      "constant": true
    },
    {
      "inputs": [],
      "name": "GHOST_START_COMMITMENT",
      "outputs": [
        {
          "internalType": "uint256",
          "name": "",
          "type": "uint256"
        }
      ],
      "stateMutability": "view",
      "type": "function",
      "constant": true
    },
    {
      "inputs": [
        {
          "internalType": "uint256",
          "name": "",
          "type": "uint256"
        },
        {
          "internalType": "uint256",
          "name": "",
          "type": "uint256"
        }
      ],
      "name": "boardPieces",
      "outputs": [
        {
          "internalType": "uint8",
          "name": "",
          "type": "uint8"
        }
      ],
      "stateMutability": "view",
      "type": "function",
      "constant": true
    },
    {
      "inputs": [
        {
          "internalType": "enum PieceType",
          "name": "",
          "type": "uint8"
        }
      ],
      "name": "defaultStats",
      "outputs": [
        {
          "internalType": "enum PieceType",
          "name": "pieceType",
          "type": "uint8"
        },
        {
          "internalType": "uint8",
          "name": "mvRange",
          "type": "uint8"
        },
        {
          "internalType": "uint8",
          "name": "atkRange",
          "type": "uint8"
        },
        {
          "internalType": "uint8",
          "name": "hp",
          "type": "uint8"
        },
        {
          "internalType": "uint8",
          "name": "atk",
          "type": "uint8"
        },
        {
          "internalType": "bool",
          "name": "isZk",
          "type": "bool"
        }
      ],
      "stateMutability": "view",
      "type": "function",
      "constant": true
    },
    {
      "inputs": [],
      "name": "gameId",
      "outputs": [
        {
          "internalType": "uint256",
          "name": "",
          "type": "uint256"
        }
      ],
      "stateMutability": "view",
      "type": "function",
      "constant": true
    },
    {
      "inputs": [],
      "name": "gameState",
      "outputs": [
        {
          "internalType": "enum GameState",
          "name": "",
          "type": "uint8"
        }
      ],
      "stateMutability": "view",
      "type": "function",
      "constant": true
    },
    {
      "inputs": [
        {
          "internalType": "uint8",
          "name": "",
          "type": "uint8"
        },
        {
          "internalType": "uint8",
          "name": "",
          "type": "uint8"
        }
      ],
      "name": "hasAttacked",
      "outputs": [
        {
          "internalType": "bool",
          "name": "",
          "type": "bool"
        }
      ],
      "stateMutability": "view",
      "type": "function",
      "constant": true
    },
    {
      "inputs": [
        {
          "internalType": "uint8",
          "name": "",
          "type": "uint8"
        },
        {
          "internalType": "uint8",
          "name": "",
          "type": "uint8"
        }
      ],
      "name": "hasMoved",
      "outputs": [
        {
          "internalType": "bool",
          "name": "",
          "type": "bool"
        }
      ],
      "stateMutability": "view",
      "type": "function",
      "constant": true
    },
    {
      "inputs": [
        {
          "internalType": "uint256",
          "name": "",
          "type": "uint256"
        }
      ],
      "name": "pieceIds",
      "outputs": [
        {
          "internalType": "uint8",
          "name": "",
          "type": "uint8"
        }
      ],
      "stateMutability": "view",
      "type": "function",
      "constant": true
    },
    {
      "inputs": [
        {
          "internalType": "uint8",
          "name": "",
          "type": "uint8"
        }
      ],
      "name": "pieces",
      "outputs": [
        {
          "internalType": "uint8",
          "name": "id",
          "type": "uint8"
        },
        {
          "internalType": "enum PieceType",
          "name": "pieceType",
          "type": "uint8"
        },
        {
          "internalType": "address",
          "name": "owner",
          "type": "address"
        },
        {
          "internalType": "uint8",
          "name": "row",
          "type": "uint8"
        },
        {
          "internalType": "uint8",
          "name": "col",
          "type": "uint8"
        },
        {
          "internalType": "bool",
          "name": "alive",
          "type": "bool"
        },
        {
          "internalType": "bool",
          "name": "initialized",
          "type": "bool"
        },
        {
          "internalType": "uint8",
          "name": "hp",
          "type": "uint8"
        },
        {
          "internalType": "uint8",
          "name": "initializedOnTurn",
          "type": "uint8"
        },
        {
          "internalType": "uint256",
          "name": "commitment",
          "type": "uint256"
        }
      ],
      "stateMutability": "view",
      "type": "function",
      "constant": true
    },
    {
      "inputs": [],
      "name": "player1",
      "outputs": [
        {
          "internalType": "address",
          "name": "",
          "type": "address"
        }
      ],
      "stateMutability": "view",
      "type": "function",
      "constant": true
    },
    {
      "inputs": [],
      "name": "player2",
      "outputs": [
        {
          "internalType": "address",
          "name": "",
          "type": "address"
        }
      ],
      "stateMutability": "view",
      "type": "function",
      "constant": true
    },
    {
      "inputs": [],
      "name": "turnNumber",
      "outputs": [
        {
          "internalType": "uint8",
          "name": "",
          "type": "uint8"
        }
      ],
      "stateMutability": "view",
      "type": "function",
      "constant": true
    },
    {
      "inputs": [
        {
          "internalType": "uint256",
          "name": "_gameId",
          "type": "uint256"
        },
        {
          "internalType": "bool",
          "name": "_disableZKCheck",
          "type": "bool"
        }
      ],
      "name": "initialize",
      "outputs": [],
      "stateMutability": "nonpayable",
      "type": "function"
    },
    {
      "inputs": [],
      "name": "getPieces",
      "outputs": [
        {
          "components": [
            {
              "internalType": "uint8",
              "name": "id",
              "type": "uint8"
            },
            {
              "internalType": "enum PieceType",
              "name": "pieceType",
              "type": "uint8"
            },
            {
              "internalType": "address",
              "name": "owner",
              "type": "address"
            },
            {
              "internalType": "uint8",
              "name": "row",
              "type": "uint8"
            },
            {
              "internalType": "uint8",
              "name": "col",
              "type": "uint8"
            },
            {
              "internalType": "bool",
              "name": "alive",
              "type": "bool"
            },
            {
              "internalType": "bool",
              "name": "initialized",
              "type": "bool"
            },
            {
              "internalType": "uint8",
              "name": "hp",
              "type": "uint8"
            },
            {
              "internalType": "uint8",
              "name": "initializedOnTurn",
              "type": "uint8"
            },
            {
              "internalType": "uint256",
              "name": "commitment",
              "type": "uint256"
            }
          ],
          "internalType": "struct Piece[]",
          "name": "ret",
          "type": "tuple[]"
        }
      ],
      "stateMutability": "view",
      "type": "function",
      "constant": true
    },
    {
      "inputs": [],
      "name": "getDefaults",
      "outputs": [
        {
          "components": [
            {
              "internalType": "enum PieceType",
              "name": "pieceType",
              "type": "uint8"
            },
            {
              "internalType": "uint8",
              "name": "mvRange",
              "type": "uint8"
            },
            {
              "internalType": "uint8",
              "name": "atkRange",
              "type": "uint8"
            },
            {
              "internalType": "uint8",
              "name": "hp",
              "type": "uint8"
            },
            {
              "internalType": "uint8",
              "name": "atk",
              "type": "uint8"
            },
            {
              "internalType": "bool",
              "name": "isZk",
              "type": "bool"
            }
          ],
          "internalType": "struct PieceDefaultStats[]",
          "name": "ret",
          "type": "tuple[]"
        }
      ],
      "stateMutability": "view",
      "type": "function",
      "constant": true
    },
    {
      "inputs": [],
      "name": "gameShouldBeCompleted",
      "outputs": [
        {
          "internalType": "bool",
          "name": "",
          "type": "bool"
        }
      ],
      "stateMutability": "view",
      "type": "function",
      "constant": true
    },
    {
      "inputs": [],
      "name": "joinGame",
      "outputs": [],
      "stateMutability": "nonpayable",
      "type": "function"
    },
    {
      "inputs": [
        {
          "components": [
            {
              "internalType": "uint8",
              "name": "turnNumber",
              "type": "uint8"
            },
            {
              "internalType": "uint8",
              "name": "pieceId",
              "type": "uint8"
            },
            {
              "internalType": "enum PieceType",
              "name": "pieceType",
              "type": "uint8"
            },
            {
              "internalType": "uint8",
              "name": "row",
              "type": "uint8"
            },
            {
              "internalType": "uint8",
              "name": "col",
              "type": "uint8"
            },
            {
              "components": [
                {
                  "internalType": "uint256[2]",
                  "name": "a",
                  "type": "uint256[2]"
                },
                {
                  "internalType": "uint256[2][2]",
                  "name": "b",
                  "type": "uint256[2][2]"
                },
                {
                  "internalType": "uint256[2]",
                  "name": "c",
                  "type": "uint256[2]"
                },
                {
                  "internalType": "uint256[5]",
                  "name": "input",
                  "type": "uint256[5]"
                }
              ],
              "internalType": "struct SummonZKP",
              "name": "zkp",
              "type": "tuple"
            }
          ],
          "internalType": "struct Summon",
          "name": "summon",
          "type": "tuple"
        }
      ],
      "name": "doSummon",
      "outputs": [],
      "stateMutability": "nonpayable",
      "type": "function"
    },
    {
      "inputs": [
        {
          "components": [
            {
              "internalType": "uint8",
              "name": "turnNumber",
              "type": "uint8"
            },
            {
              "internalType": "uint8",
              "name": "pieceId",
              "type": "uint8"
            },
            {
              "internalType": "uint8[]",
              "name": "moveToRow",
              "type": "uint8[]"
            },
            {
              "internalType": "uint8[]",
              "name": "moveToCol",
              "type": "uint8[]"
            },
            {
              "components": [
                {
                  "internalType": "uint256[2]",
                  "name": "a",
                  "type": "uint256[2]"
                },
                {
                  "internalType": "uint256[2][2]",
                  "name": "b",
                  "type": "uint256[2][2]"
                },
                {
                  "internalType": "uint256[2]",
                  "name": "c",
                  "type": "uint256[2]"
                },
                {
                  "internalType": "uint256[4]",
                  "name": "input",
                  "type": "uint256[4]"
                }
              ],
              "internalType": "struct MoveZKP",
              "name": "zkp",
              "type": "tuple"
            }
          ],
          "internalType": "struct Move",
          "name": "move",
          "type": "tuple"
        }
      ],
      "name": "doMove",
      "outputs": [],
      "stateMutability": "nonpayable",
      "type": "function"
    },
    {
      "inputs": [
        {
          "internalType": "uint8",
          "name": "_turnNumber",
          "type": "uint8"
        }
      ],
      "name": "endTurn",
      "outputs": [],
      "stateMutability": "nonpayable",
      "type": "function"
    }
  ],
  "bytecode": "0x608060405234801561001057600080fd5b506150c3806100206000396000f3fe608060405234801561001057600080fd5b506004361061014d5760003560e01c806381cb97ca116100c3578063d1f9c24d1161007c578063d1f9c24d146103b0578063d30895e4146103ce578063d4f77b1c146103ec578063d7c81b55146103f6578063dc4a3e9514610414578063df54a928146104325761014d565b806381cb97ca146102d85780638af9d56214610308578063acbc1a9114610326578063b172ed4d14610344578063cf615f6c14610362578063cfecc6de146103805761014d565b8063430632ea11610115578063430632ea1461021157806351df541c1461024657806352fa0917146102645780635595b5d5146102805780635700401e1461029c57806359a5f12d146102ba5761014d565b806327964666146101525780632c1025cd1461016e5780632c784f321461018a5780633fb7388e146101c3578063414a37ba146101f3575b600080fd5b61016c60048036038101906101679190613a5b565b610462565b005b610188600480360381019061018391906139c7565b6109c0565b005b6101a4600480360381019061019f9190613ad3565b61127a565b6040516101ba9a99989796959493929190614c8e565b60405180910390f35b6101dd60048036038101906101d89190613a97565b611356565b6040516101ea9190614c73565b60405180910390f35b6101fb61138c565b6040516102089190614c58565b60405180910390f35b61022b6004803603810190610226919061399e565b6113b0565b60405161023d969594939291906148b7565b60405180910390f35b61024e61143a565b60405161025b9190614881565b60405180910390f35b61027e60048036038101906102799190613a08565b611600565b005b61029a60048036038101906102959190613ad3565b611eb4565b005b6102a461202b565b6040516102b19190614c73565b60405180910390f35b6102c261203e565b6040516102cf9190614750565b60405180910390f35b6102f260048036038101906102ed9190613afc565b612064565b6040516102ff9190614881565b60405180910390f35b610310612093565b60405161031d9190614881565b60405180910390f35b61032e6120a6565b60405161033b9190614c58565b60405180910390f35b61034c6120ca565b60405161035991906147af565b60405180910390f35b61036a61225f565b60405161037791906147d1565b60405180910390f35b61039a60048036038101906103959190613a32565b6124a6565b6040516103a79190614c73565b60405180910390f35b6103b86124d7565b6040516103c5919061489c565b60405180910390f35b6103d66124ea565b6040516103e39190614750565b60405180910390f35b6103f4612510565b005b6103fe612dfc565b60405161040b9190614c58565b60405180910390f35b61041c612e02565b6040516104299190614c58565b60405180910390f35b61044c60048036038101906104479190613afc565b612e07565b6040516104599190614881565b60405180910390f35b8160338190555080603f60006101000a81548160ff0219169083151502179055506000603460016101000a81548160ff021916908360038111156104a257fe5b02179055506040518060c00160405280600060038111156104bf57fe5b8152602001600260ff168152602001600160ff168152602001600360ff168152602001600260ff16815260200160001515815250603e600080600381111561050357fe5b600381111561050e57fe5b815260200190815260200160002060008201518160000160006101000a81548160ff0219169083600381111561054057fe5b021790555060208201518160000160016101000a81548160ff021916908360ff16021790555060408201518160000160026101000a81548160ff021916908360ff16021790555060608201518160000160036101000a81548160ff021916908360ff16021790555060808201518160000160046101000a81548160ff021916908360ff16021790555060a08201518160000160056101000a81548160ff0219169083151502179055509050506040518060c001604052806001600381111561060457fe5b8152602001600260ff168152602001600260ff168152602001600360ff168152602001600260ff16815260200160001515815250603e60006001600381111561064957fe5b600381111561065457fe5b815260200190815260200160002060008201518160000160006101000a81548160ff0219169083600381111561068657fe5b021790555060208201518160000160016101000a81548160ff021916908360ff16021790555060408201518160000160026101000a81548160ff021916908360ff16021790555060608201518160000160036101000a81548160ff021916908360ff16021790555060808201518160000160046101000a81548160ff021916908360ff16021790555060a08201518160000160056101000a81548160ff0219169083151502179055509050506040518060c001604052806002600381111561074a57fe5b8152602001600160ff168152602001600160ff168152602001600360ff168152602001600160ff16815260200160011515815250603e60006002600381111561078f57fe5b600381111561079a57fe5b815260200190815260200160002060008201518160000160006101000a81548160ff021916908360038111156107cc57fe5b021790555060208201518160000160016101000a81548160ff021916908360ff16021790555060408201518160000160026101000a81548160ff021916908360ff16021790555060608201518160000160036101000a81548160ff021916908360ff16021790555060808201518160000160046101000a81548160ff021916908360ff16021790555060a08201518160000160056101000a81548160ff0219169083151502179055509050506040518060c0016040528060038081111561088f57fe5b8152602001600060ff168152602001600260ff168152602001600a60ff168152602001600260ff16815260200160001515815250603e60006003808111156108d357fe5b60038111156108de57fe5b815260200190815260200160002060008201518160000160006101000a81548160ff0219169083600381111561091057fe5b021790555060208201518160000160016101000a81548160ff021916908360ff16021790555060408201518160000160026101000a81548160ff021916908360ff16021790555060608201518160000160036101000a81548160ff021916908360ff16021790555060808201518160000160046101000a81548160ff021916908360ff16021790555060a08201518160000160056101000a81548160ff0219169083151502179055509050505050565b6109cd8160000151612e36565b6000603d6000836020015160ff1660ff16815260200190815260200160002090503373ffffffffffffffffffffffffffffffffffffffff168160000160029054906101000a900473ffffffffffffffffffffffffffffffffffffffff1673ffffffffffffffffffffffffffffffffffffffff16148015610a9e5750600073ffffffffffffffffffffffffffffffffffffffff168160000160029054906101000a900473ffffffffffffffffffffffffffffffffffffffff1673ffffffffffffffffffffffffffffffffffffffff1614155b610add576040517f08c379a0000000000000000000000000000000000000000000000000000000008152600401610ad490614a78565b60405180910390fd5b8060000160189054906101000a900460ff16610b2e576040517f08c379a0000000000000000000000000000000000000000000000000000000008152600401610b2590614998565b60405180910390fd5b60416000836000015160ff1660ff16815260200190815260200160002060008260000160009054906101000a900460ff1660ff1660ff16815260200190815260200160002060009054906101000a900460ff1615610bc1576040517f08c379a0000000000000000000000000000000000000000000000000000000008152600401610bb890614a98565b60405180910390fd5b60426000836000015160ff1660ff16815260200190815260200160002060008260000160009054906101000a900460ff1660ff1660ff16815260200190815260200160002060009054906101000a900460ff1615610c54576040517f08c379a0000000000000000000000000000000000000000000000000000000008152600401610c4b90614a38565b60405180910390fd5b603e60008260000160019054906101000a900460ff166003811115610c7557fe5b6003811115610c8057fe5b815260200190815260200160002060000160059054906101000a900460ff1615610efa57816080015160600151600060048110610cb957fe5b6020020151816001015414610d03576040517f08c379a0000000000000000000000000000000000000000000000000000000008152600401610cfa90614b98565b60405180910390fd5b6007826080015160600151600360048110610d1a57fe5b602002015114610d2957600080fd5b603e60008260000160019054906101000a900460ff166003811115610d4a57fe5b6003811115610d5557fe5b815260200190815260200160002060000160019054906101000a900460ff1660ff16826080015160600151600260048110610d8c57fe5b60200201511115610dd2576040517f08c379a0000000000000000000000000000000000000000000000000000000008152600401610dc990614b78565b60405180910390fd5b603f60009054906101000a900460ff16610ed35773__Verifier______________________________636f2aea8d8360800151600001518460800151602001518560800151604001518660800151606001516040518563ffffffff1660e01b8152600401610e4394939291906147f3565b60206040518083038186803b158015610e5b57600080fd5b505af4158015610e6f573d6000803e3d6000fd5b505050506040513d601f19601f82011682018060405250810190610e939190613975565b610ed2576040517f08c379a0000000000000000000000000000000000000000000000000000000008152600401610ec990614a18565b60405180910390fd5b5b816080015160600151600160048110610ee857fe5b602002015181600101819055506111e1565b60608260400151905060608360600151905061107783604051806101400160405290816000820160009054906101000a900460ff1660ff1660ff1681526020016000820160019054906101000a900460ff166003811115610f5757fe5b6003811115610f6257fe5b81526020016000820160029054906101000a900473ffffffffffffffffffffffffffffffffffffffff1673ffffffffffffffffffffffffffffffffffffffff1673ffffffffffffffffffffffffffffffffffffffff1681526020016000820160169054906101000a900460ff1660ff1660ff1681526020016000820160179054906101000a900460ff1660ff1660ff1681526020016000820160189054906101000a900460ff161515151581526020016000820160199054906101000a900460ff1615151515815260200160008201601a9054906101000a900460ff1660ff1660ff16815260200160008201601b9054906101000a900460ff1660ff1660ff1681526020016001820154815250508383613076565b6110b6576040517f08c379a00000000000000000000000000000000000000000000000000000000081526004016110ad90614a58565b60405180910390fd5b6000826001845103815181106110c857fe5b602002602001015190506000826001845103815181106110e457fe5b60200260200101519050600060358660000160169054906101000a900460ff1660ff166007811061111157fe5b018660000160179054906101000a900460ff1660ff166007811061113157fe5b602091828204019190066101000a81548160ff021916908360ff1602179055508460000160009054906101000a900460ff1660358360ff166007811061117357fe5b018260ff166007811061118257fe5b602091828204019190066101000a81548160ff021916908360ff160217905550818560000160166101000a81548160ff021916908360ff160217905550808560000160176101000a81548160ff021916908360ff160217905550505050505b600160416000846000015160ff1660ff16815260200190815260200160002060008360000160009054906101000a900460ff1660ff1660ff16815260200190815260200160002060006101000a81548160ff0219169083151502179055507f95d8dea3d987d2163d15eb7c5db7cdff58efde46972835877952ee40cb7a16a03360405161126e919061476b565b60405180910390a15050565b603d6020528060005260406000206000915090508060000160009054906101000a900460ff16908060000160019054906101000a900460ff16908060000160029054906101000a900473ffffffffffffffffffffffffffffffffffffffff16908060000160169054906101000a900460ff16908060000160179054906101000a900460ff16908060000160189054906101000a900460ff16908060000160199054906101000a900460ff169080600001601a9054906101000a900460ff169080600001601b9054906101000a900460ff1690806001015490508a565b6035826007811061136357fe5b01816007811061136f57fe5b60209182820401919006915091509054906101000a900460ff1681565b7f30644e72e131a029b85045b68181585d2833e84879b9709143e1f593f000000181565b603e6020528060005260406000206000915090508060000160009054906101000a900460ff16908060000160019054906101000a900460ff16908060000160029054906101000a900460ff16908060000160039054906101000a900460ff16908060000160049054906101000a900460ff16908060000160059054906101000a900460ff16905086565b60008060009050600080905060008090505b603c805490508160ff1610156115ed576000603d6000603c8460ff168154811061147257fe5b90600052602060002090602091828204019190069054906101000a900460ff1660ff1660ff1681526020019081526020016000209050603f60019054906101000a900473ffffffffffffffffffffffffffffffffffffffff1673ffffffffffffffffffffffffffffffffffffffff168160000160029054906101000a900473ffffffffffffffffffffffffffffffffffffffff1673ffffffffffffffffffffffffffffffffffffffff1614801561153757508060000160189054906101000a900460ff165b1561154557600193506115df565b604060009054906101000a900473ffffffffffffffffffffffffffffffffffffffff1673ffffffffffffffffffffffffffffffffffffffff168160000160029054906101000a900473ffffffffffffffffffffffffffffffffffffffff1673ffffffffffffffffffffffffffffffffffffffff161480156115d457508060000160189054906101000a900460ff165b156115de57600192505b5b50808060010191505061144c565b508180156115f85750805b159250505090565b61160d8160000151612e36565b603d6000826020015160ff1660ff16815260200190815260200160002060000160199054906101000a900460ff161561167b576040517f08c379a000000000000000000000000000000000000000000000000000000000815260040161167290614b18565b60405180910390fd5b6000809050600060039050604060009054906101000a900473ffffffffffffffffffffffffffffffffffffffff1673ffffffffffffffffffffffffffffffffffffffff163373ffffffffffffffffffffffffffffffffffffffff1614156116e157600691505b603e6000846040015160038111156116f557fe5b600381111561170057fe5b815260200190815260200160002060000160059054906101000a900460ff16611890576007836060015160ff1610801561174157506007836080015160ff16105b611780576040517f08c379a000000000000000000000000000000000000000000000000000000000815260040161177790614b58565b60405180910390fd5b60006035846060015160ff166007811061179657fe5b01846080015160ff16600781106117a957fe5b602091828204019190069054906101000a900460ff1690506000603d60008360ff1660ff16815260200190815260200160002090508060000160189054906101000a900460ff1615611830576040517f08c379a0000000000000000000000000000000000000000000000000000000008152600401611827906149f8565b60405180910390fd5b600161184686606001518760800151878761334a565b60ff1614611889576040517f08c379a000000000000000000000000000000000000000000000000000000000815260040161188090614bf8565b60405180910390fd5b5050611acf565b603f60009054906101000a900460ff16611ace578160ff168360a00151606001516001600581106118bd57fe5b60200201511480156118ea57508060ff168360a00151606001516002600581106118e357fe5b6020020151145b611929576040517f08c379a000000000000000000000000000000000000000000000000000000000815260040161192090614bd8565b60405180910390fd5b60018360a001516060015160036005811061194057fe5b602002015114611985576040517f08c379a000000000000000000000000000000000000000000000000000000000815260040161197c90614b38565b60405180910390fd5b60078360a001516060015160046005811061199c57fe5b6020020151146119e1576040517f08c379a00000000000000000000000000000000000000000000000000000000081526004016119d890614958565b60405180910390fd5b73__Verifier______________________________63afd115578460a00151600001518560a00151602001518660a00151604001518760a00151606001516040518563ffffffff1660e01b8152600401611a3e949392919061483a565b60206040518083038186803b158015611a5657600080fd5b505af4158015611a6a573d6000803e3d6000fd5b505050506040513d601f19601f82011682018060405250810190611a8e9190613975565b611acd576040517f08c379a0000000000000000000000000000000000000000000000000000000008152600401611ac490614978565b60405180910390fd5b5b5b604051806101400160405280846020015160ff16815260200184604001516003811115611af857fe5b81526020013373ffffffffffffffffffffffffffffffffffffffff168152602001846060015160ff168152602001846080015160ff168152602001600115158152602001600115158152602001603e600086604001516003811115611b5957fe5b6003811115611b6457fe5b815260200190815260200160002060000160039054906101000a900460ff1660ff168152602001603460009054906101000a900460ff1660ff1681526020018460a0015160600151600060058110611bb857fe5b6020020151815250603d6000856020015160ff1660ff16815260200190815260200160002060008201518160000160006101000a81548160ff021916908360ff16021790555060208201518160000160016101000a81548160ff02191690836003811115611c2257fe5b021790555060408201518160000160026101000a81548173ffffffffffffffffffffffffffffffffffffffff021916908373ffffffffffffffffffffffffffffffffffffffff16021790555060608201518160000160166101000a81548160ff021916908360ff16021790555060808201518160000160176101000a81548160ff021916908360ff16021790555060a08201518160000160186101000a81548160ff02191690831515021790555060c08201518160000160196101000a81548160ff02191690831515021790555060e082015181600001601a6101000a81548160ff021916908360ff16021790555061010082015181600001601b6101000a81548160ff021916908360ff1602179055506101208201518160010155905050603c836020015190806001815401808255809150506001900390600052602060002090602091828204019190069091909190916101000a81548160ff021916908360ff16021790555082602001516035846060015160ff1660078110611da357fe5b01846080015160ff1660078110611db657fe5b602091828204019190066101000a81548160ff021916908360ff160217905550600160416000856000015160ff1660ff1681526020019081526020016000206000856020015160ff1660ff16815260200190815260200160002060006101000a81548160ff021916908315150217905550600160426000856000015160ff1660ff1681526020019081526020016000206000856020015160ff1660ff16815260200190815260200160002060006101000a81548160ff0219169083151502179055507f95d8dea3d987d2163d15eb7c5db7cdff58efde46972835877952ee40cb7a16a033604051611ea7919061476b565b60405180910390a1505050565b611ebd81612e36565b603f60019054906101000a900473ffffffffffffffffffffffffffffffffffffffff1673ffffffffffffffffffffffffffffffffffffffff163373ffffffffffffffffffffffffffffffffffffffff161415611f3c576002603460016101000a81548160ff02191690836003811115611f3257fe5b0217905550611f93565b6034600081819054906101000a900460ff168092919060010191906101000a81548160ff021916908360ff160217905550506001603460016101000a81548160ff02191690836003811115611f8d57fe5b02179055505b7f95d8dea3d987d2163d15eb7c5db7cdff58efde46972835877952ee40cb7a16a033604051611fc2919061476b565b60405180910390a1611fd261143a565b15612028576003603460016101000a81548160ff02191690836003811115611ff657fe5b02179055507fb537cbcadc098cfedf5a04ef7e68a8554b55f7e45bfdaca1cbc51a686ef65f4860405160405180910390a15b50565b603460009054906101000a900460ff1681565b604060009054906101000a900473ffffffffffffffffffffffffffffffffffffffff1681565b60426020528160005260406000206020528060005260406000206000915091509054906101000a900460ff1681565b603f60009054906101000a900460ff1681565b7f104ddaefd01036b8465b22025720f944733190135fd4ed564186bc3cfcaec72281565b6060600467ffffffffffffffff811180156120e457600080fd5b5060405190808252806020026020018201604052801561211e57816020015b61210b6133a1565b8152602001906001900390816121035790505b50905060008090505b60048160ff16101561225857603e60008260ff16600381111561214657fe5b600381111561215157fe5b600381111561215c57fe5b81526020019081526020016000206040518060c00160405290816000820160009054906101000a900460ff16600381111561219357fe5b600381111561219e57fe5b81526020016000820160019054906101000a900460ff1660ff1660ff1681526020016000820160029054906101000a900460ff1660ff1660ff1681526020016000820160039054906101000a900460ff1660ff1660ff1681526020016000820160049054906101000a900460ff1660ff1660ff1681526020016000820160059054906101000a900460ff161515151581525050828260ff168151811061224057fe5b60200260200101819052508080600101915050612127565b5080905090565b6060603c8054905067ffffffffffffffff8111801561227d57600080fd5b506040519080825280602002602001820160405280156122b757816020015b6122a46133f0565b81526020019060019003908161229c5790505b50905060008090505b603c805490508160ff16101561249f57603d6000603c8360ff16815481106122e457fe5b90600052602060002090602091828204019190069054906101000a900460ff1660ff1660ff168152602001908152602001600020604051806101400160405290816000820160009054906101000a900460ff1660ff1660ff1681526020016000820160019054906101000a900460ff16600381111561235f57fe5b600381111561236a57fe5b81526020016000820160029054906101000a900473ffffffffffffffffffffffffffffffffffffffff1673ffffffffffffffffffffffffffffffffffffffff1673ffffffffffffffffffffffffffffffffffffffff1681526020016000820160169054906101000a900460ff1660ff1660ff1681526020016000820160179054906101000a900460ff1660ff1660ff1681526020016000820160189054906101000a900460ff161515151581526020016000820160199054906101000a900460ff1615151515815260200160008201601a9054906101000a900460ff1660ff1660ff16815260200160008201601b9054906101000a900460ff1660ff1660ff168152602001600182015481525050828260ff168151811061248757fe5b602002602001018190525080806001019150506122c0565b5080905090565b603c81815481106124b357fe5b9060005260206000209060209182820401919006915054906101000a900460ff1681565b603460019054906101000a900460ff1681565b603f60019054906101000a900473ffffffffffffffffffffffffffffffffffffffff1681565b6000600381111561251d57fe5b603460019054906101000a900460ff16600381111561253857fe5b14612578576040517f08c379a000000000000000000000000000000000000000000000000000000000815260040161256f90614c18565b60405180910390fd5b600073ffffffffffffffffffffffffffffffffffffffff16603f60019054906101000a900473ffffffffffffffffffffffffffffffffffffffff1673ffffffffffffffffffffffffffffffffffffffff1614156126155733603f60016101000a81548173ffffffffffffffffffffffffffffffffffffffff021916908373ffffffffffffffffffffffffffffffffffffffff160217905550612dfa565b603f60019054906101000a900473ffffffffffffffffffffffffffffffffffffffff1673ffffffffffffffffffffffffffffffffffffffff163373ffffffffffffffffffffffffffffffffffffffff1614156126a6576040517f08c379a000000000000000000000000000000000000000000000000000000000815260040161269d906149b8565b60405180910390fd5b6000600242816126b257fe5b0614156126ff5733604060006101000a81548173ffffffffffffffffffffffffffffffffffffffff021916908373ffffffffffffffffffffffffffffffffffffffff1602179055506127a4565b603f60019054906101000a900473ffffffffffffffffffffffffffffffffffffffff16604060006101000a81548173ffffffffffffffffffffffffffffffffffffffff021916908373ffffffffffffffffffffffffffffffffffffffff16021790555033603f60016101000a81548173ffffffffffffffffffffffffffffffffffffffff021916908373ffffffffffffffffffffffffffffffffffffffff1602179055505b604051806101400160405280600160ff1681526020016003808111156127c657fe5b8152602001603f60019054906101000a900473ffffffffffffffffffffffffffffffffffffffff1673ffffffffffffffffffffffffffffffffffffffff168152602001600060ff168152602001600360ff168152602001600115158152602001600115158152602001603e600060038081111561283f57fe5b600381111561284a57fe5b815260200190815260200160002060000160039054906101000a900460ff1660ff168152602001600060ff1681526020016000815250603d6000600160ff16815260200190815260200160002060008201518160000160006101000a81548160ff021916908360ff16021790555060208201518160000160016101000a81548160ff021916908360038111156128dc57fe5b021790555060408201518160000160026101000a81548173ffffffffffffffffffffffffffffffffffffffff021916908373ffffffffffffffffffffffffffffffffffffffff16021790555060608201518160000160166101000a81548160ff021916908360ff16021790555060808201518160000160176101000a81548160ff021916908360ff16021790555060a08201518160000160186101000a81548160ff02191690831515021790555060c08201518160000160196101000a81548160ff02191690831515021790555060e082015181600001601a6101000a81548160ff021916908360ff16021790555061010082015181600001601b6101000a81548160ff021916908360ff1602179055506101208201518160010155905050603c600190806001815401808255809150506001900390600052602060002090602091828204019190069091909190916101000a81548160ff021916908360ff16021790555060016035600060078110612a5157fe5b01600360078110612a5e57fe5b602091828204019190066101000a81548160ff021916908360ff160217905550604051806101400160405280600260ff168152602001600380811115612aa057fe5b8152602001604060009054906101000a900473ffffffffffffffffffffffffffffffffffffffff1673ffffffffffffffffffffffffffffffffffffffff168152602001600660ff168152602001600360ff168152602001600115158152602001600115158152602001603e6000600380811115612b1957fe5b6003811115612b2457fe5b815260200190815260200160002060000160039054906101000a900460ff1660ff168152602001600060ff1681526020016000815250603d6000600260ff16815260200190815260200160002060008201518160000160006101000a81548160ff021916908360ff16021790555060208201518160000160016101000a81548160ff02191690836003811115612bb657fe5b021790555060408201518160000160026101000a81548173ffffffffffffffffffffffffffffffffffffffff021916908373ffffffffffffffffffffffffffffffffffffffff16021790555060608201518160000160166101000a81548160ff021916908360ff16021790555060808201518160000160176101000a81548160ff021916908360ff16021790555060a08201518160000160186101000a81548160ff02191690831515021790555060c08201518160000160196101000a81548160ff02191690831515021790555060e082015181600001601a6101000a81548160ff021916908360ff16021790555061010082015181600001601b6101000a81548160ff021916908360ff1602179055506101208201518160010155905050603c600290806001815401808255809150506001900390600052602060002090602091828204019190069091909190916101000a81548160ff021916908360ff16021790555060026035600660078110612d2b57fe5b01600360078110612d3857fe5b602091828204019190066101000a81548160ff021916908360ff1602179055506001603460016101000a81548160ff02191690836003811115612d7757fe5b02179055507f8fd707874eb940598510258c64cad23fd35fe8c85c5c38e8782fac2cc887fb6e603f60019054906101000a900473ffffffffffffffffffffffffffffffffffffffff16604060009054906101000a900473ffffffffffffffffffffffffffffffffffffffff16604051612df1929190614786565b60405180910390a15b565b60335481565b600781565b60416020528160005260406000206020528060005260406000206000915091509054906101000a900460ff1681565b600380811115612e4257fe5b603460019054906101000a900460ff166003811115612e5d57fe5b1415612e9e576040517f08c379a0000000000000000000000000000000000000000000000000000000008152600401612e9590614ab8565b60405180910390fd5b603f60019054906101000a900473ffffffffffffffffffffffffffffffffffffffff1673ffffffffffffffffffffffffffffffffffffffff163373ffffffffffffffffffffffffffffffffffffffff161415612f5d5760016003811115612f0157fe5b603460019054906101000a900460ff166003811115612f1c57fe5b14612f5c576040517f08c379a0000000000000000000000000000000000000000000000000000000008152600401612f5390614c38565b60405180910390fd5b5b604060009054906101000a900473ffffffffffffffffffffffffffffffffffffffff1673ffffffffffffffffffffffffffffffffffffffff163373ffffffffffffffffffffffffffffffffffffffff16141561301c5760026003811115612fc057fe5b603460019054906101000a900460ff166003811115612fdb57fe5b1461301b576040517f08c379a000000000000000000000000000000000000000000000000000000000815260040161301290614ad8565b60405180910390fd5b5b603460009054906101000a900460ff1660ff168160ff1614613073576040517f08c379a000000000000000000000000000000000000000000000000000000000815260040161306a90614938565b60405180910390fd5b50565b6000808460600151905060008560800151905083518551146130cd576040517f08c379a00000000000000000000000000000000000000000000000000000000081526004016130c490614af8565b60405180910390fd5b603e6000876020015160038111156130e157fe5b60038111156130ec57fe5b815260200190815260200160002060000160019054906101000a900460ff1660ff1685511115613151576040517f08c379a000000000000000000000000000000000000000000000000000000000815260040161314890614bb8565b60405180910390fd5b60008090505b855181101561333c57600086828151811061316e57fe5b60200260200101519050600086838151811061318657fe5b6020026020010151905060078260ff1610806131a5575060078160ff16105b6131e4576040517f08c379a00000000000000000000000000000000000000000000000000000000081526004016131db906149d8565b60405180910390fd5b8460ff168260ff1614806131fd57508360ff168160ff16145b801561323e5750600185830360ff16148061321d5750600182860360ff16145b8061322d5750600184820360ff16145b8061323d5750600181850360ff16145b5b61327d576040517f08c379a000000000000000000000000000000000000000000000000000000000815260040161327490614af8565b60405180910390fd5b600060358360ff166007811061328f57fe5b018260ff166007811061329e57fe5b602091828204019190069054906101000a900460ff1690506000603d60008360ff1660ff16815260200190815260200160002090508060000160189054906101000a900460ff1615613325576040517f08c379a000000000000000000000000000000000000000000000000000000000815260040161331c90614918565b60405180910390fd5b839650829550505050508080600101915050613157565b506001925050509392505050565b600080600090508360ff168660ff16111561336b5783860381019050613373565b858403810190505b8260ff168560ff16111561338d5782850381019050613395565b848303810190505b80915050949350505050565b6040518060c00160405280600060038111156133b957fe5b8152602001600060ff168152602001600060ff168152602001600060ff168152602001600060ff1681526020016000151581525090565b604051806101400160405280600060ff1681526020016000600381111561341357fe5b8152602001600073ffffffffffffffffffffffffffffffffffffffff168152602001600060ff168152602001600060ff168152602001600015158152602001600015158152602001600060ff168152602001600060ff168152602001600081525090565b600082601f83011261348857600080fd5b600261349b61349682614d57565b614d2a565b915081838560408402820111156134b157600080fd5b60005b838110156134e157816134c788826134eb565b8452602084019350604083019250506001810190506134b4565b5050505092915050565b600082601f8301126134fc57600080fd5b600261350f61350a82614d79565b614d2a565b9150818385602084028201111561352557600080fd5b60005b83811015613555578161353b888261394b565b845260208401935060208301925050600181019050613528565b5050505092915050565b600082601f83011261357057600080fd5b600461358361357e82614d9b565b614d2a565b9150818385602084028201111561359957600080fd5b60005b838110156135c957816135af888261394b565b84526020840193506020830192505060018101905061359c565b5050505092915050565b600082601f8301126135e457600080fd5b60056135f76135f282614dbd565b614d2a565b9150818385602084028201111561360d57600080fd5b60005b8381101561363d5781613623888261394b565b845260208401935060208301925050600181019050613610565b5050505092915050565b600082601f83011261365857600080fd5b813561366b61366682614ddf565b614d2a565b9150818183526020840193506020810190508385602084028201111561369057600080fd5b60005b838110156136c057816136a68882613960565b845260208401935060208301925050600181019050613693565b5050505092915050565b6000813590506136d981615038565b92915050565b6000815190506136ee81615038565b92915050565b6000813590506137038161504f565b92915050565b6000610180828403121561371c57600080fd5b6137266080614d2a565b90506000613736848285016134eb565b600083015250604061374a84828501613477565b60208301525060c061375e848285016134eb565b6040830152506101006137738482850161355f565b60608301525092915050565b6000610200828403121561379257600080fd5b61379c60a0614d2a565b905060006137ac84828501613960565b60008301525060206137c084828501613960565b602083015250604082013567ffffffffffffffff8111156137e057600080fd5b6137ec84828501613647565b604083015250606082013567ffffffffffffffff81111561380c57600080fd5b61381884828501613647565b606083015250608061382c84828501613709565b60808301525092915050565b60006101a0828403121561384b57600080fd5b6138556080614d2a565b90506000613865848285016134eb565b600083015250604061387984828501613477565b60208301525060c061388d848285016134eb565b6040830152506101006138a2848285016135d3565b60608301525092915050565b600061024082840312156138c157600080fd5b6138cb60c0614d2a565b905060006138db84828501613960565b60008301525060206138ef84828501613960565b6020830152506040613903848285016136f4565b604083015250606061391784828501613960565b606083015250608061392b84828501613960565b60808301525060a061393f84828501613838565b60a08301525092915050565b60008135905061395a8161505f565b92915050565b60008135905061396f81615076565b92915050565b60006020828403121561398757600080fd5b6000613995848285016136df565b91505092915050565b6000602082840312156139b057600080fd5b60006139be848285016136f4565b91505092915050565b6000602082840312156139d957600080fd5b600082013567ffffffffffffffff8111156139f357600080fd5b6139ff8482850161377f565b91505092915050565b60006102408284031215613a1b57600080fd5b6000613a29848285016138ae565b91505092915050565b600060208284031215613a4457600080fd5b6000613a528482850161394b565b91505092915050565b60008060408385031215613a6e57600080fd5b6000613a7c8582860161394b565b9250506020613a8d858286016136ca565b9150509250929050565b60008060408385031215613aaa57600080fd5b6000613ab88582860161394b565b9250506020613ac98582860161394b565b9150509250929050565b600060208284031215613ae557600080fd5b6000613af384828501613960565b91505092915050565b60008060408385031215613b0f57600080fd5b6000613b1d85828601613960565b9250506020613b2e85828601613960565b9150509250929050565b6000613b448383613d30565b60408301905092915050565b6000613b5c83836145be565b60c08301905092915050565b6000613b748383614639565b6101408301905092915050565b6000613b8d8383614723565b60208301905092915050565b613ba281614fc4565b82525050565b613bb181614f49565b82525050565b613bc081614f49565b82525050565b613bcf81614e4f565b613bd98184614edf565b9250613be482614e07565b8060005b83811015613c15578151613bfc8782613b38565b9650613c0783614e91565b925050600181019050613be8565b505050505050565b6000613c2882614e5a565b613c328185614eea565b9350613c3d83614e11565b8060005b83811015613c6e578151613c558882613b50565b9750613c6083614e9e565b925050600181019050613c41565b5085935050505092915050565b6000613c8682614e65565b613c908185614efb565b9350613c9b83614e21565b8060005b83811015613ccc578151613cb38882613b68565b9750613cbe83614eab565b925050600181019050613c9f565b5085935050505092915050565b613ce281614e70565b613cec8184614f0c565b9250613cf782614e31565b8060005b83811015613d28578151613d0f8782613b81565b9650613d1a83614eb8565b925050600181019050613cfb565b505050505050565b613d3981614e70565b613d438184614f17565b9250613d4e82614e31565b8060005b83811015613d7f578151613d668782613b81565b9650613d7183614eb8565b925050600181019050613d52565b505050505050565b613d9081614e7b565b613d9a8184614f22565b9250613da582614e3b565b8060005b83811015613dd6578151613dbd8782613b81565b9650613dc883614ec5565b925050600181019050613da9565b505050505050565b613de781614e86565b613df18184614f2d565b9250613dfc82614e45565b8060005b83811015613e2d578151613e148782613b81565b9650613e1f83614ed2565b925050600181019050613e00565b505050505050565b613e3e81614f5b565b82525050565b613e4d81614f5b565b82525050565b613e5c81614fd6565b82525050565b613e6b81614fe8565b82525050565b613e7a81614fe8565b82525050565b6000613e8d602783614f38565b91507f747269656420746f206d6f7665207468726f75676820616e206578697374696e60008301527f67207069656365000000000000000000000000000000000000000000000000006020830152604082019050919050565b6000613ef3601183614f38565b91507f57726f6e67207475726e206e756d6265720000000000000000000000000000006000830152602082019050919050565b6000613f33602483614f38565b91507f696e76616c6964205a4b2070726f6f663a20696e76616c696420626f6172642060008301527f73697a65000000000000000000000000000000000000000000000000000000006020830152604082019050919050565b6000613f99601683614f38565b91507f4661696c6564205a4b2073756d6d6f6e20636865636b000000000000000000006000830152602082019050919050565b6000613fd9600d83614f38565b91507f50696563652069732064656164000000000000000000000000000000000000006000830152602082019050919050565b6000614019601583614f38565b91507f63616e2774206a6f696e2067616d6520747769636500000000000000000000006000830152602082019050919050565b6000614059601b83614f38565b91507f747269656420746f206d6f7665206f7574206f6620626f756e647300000000006000830152602082019050919050565b6000614099602683614f38565b91507f747269656420746f2073756d6d6f6e206f6e746f20616e206578697374696e6760008301527f20706965636500000000000000000000000000000000000000000000000000006020830152604082019050919050565b60006140ff601483614f38565b91507f4661696c6564207a6b206d6f766520636865636b0000000000000000000000006000830152602082019050919050565b600061413f601383614f38565b91507f706965636520616c7265616479206163746564000000000000000000000000006000830152602082019050919050565b600061417f600c83614f38565b91507f496e76616c6964206d6f766500000000000000000000000000000000000000006000830152602082019050919050565b60006141bf601b83614f38565b91507f63616e2774206d6f7665206f70706f6e656e74277320706965636500000000006000830152602082019050919050565b60006141ff601383614f38565b91507f706965636520616c7265616479206d6f766564000000000000000000000000006000830152602082019050919050565b600061423f600d83614f38565b91507f47616d6520697320656e646564000000000000000000000000000000000000006000830152602082019050919050565b600061427f600d83614f38565b91507f4e6f742070322773207475726e000000000000000000000000000000000000006000830152602082019050919050565b60006142bf600c83614f38565b91507f696e76616c6964206d6f766500000000000000000000000000000000000000006000830152602082019050919050565b60006142ff601783614f38565b91507f706965636520494420616c726561647920696e207573650000000000000000006000830152602082019050919050565b600061433f602e83614f38565b91507f696e76616c6964205a4b2070726f6f663a2063616e206f6e6c792073756d6d6f60008301527f6e206e65787420746f20706f72740000000000000000000000000000000000006020830152604082019050919050565b60006143a5600d83614f38565b91507f6e6f7420696e20626f756e6473000000000000000000000000000000000000006000830152602082019050919050565b60006143e5601583614f38565b91507f547269656420746f206d6f766520746f6f2066617200000000000000000000006000830152602082019050919050565b6000614425601083614f38565b91507f5a4b2050726f6f6620696e76616c6964000000000000000000000000000000006000830152602082019050919050565b6000614465602d83614f38565b91507f747269656420746f206d6f76652070696563652066757274686572207468616e60008301527f2072616e676520616c6c6f7773000000000000000000000000000000000000006020830152604082019050919050565b60006144cb601e83614f38565b91507f696e76616c6964205a4b2070726f6f663a20696e76616c696420706f727400006000830152602082019050919050565b600061450b601283614f38565b91507f63616e27742073756d6d6f6e20746865726500000000000000000000000000006000830152602082019050919050565b600061454b601483614f38565b91507f47616d6520616c726561647920737461727465640000000000000000000000006000830152602082019050919050565b600061458b600d83614f38565b91507f4e6f742070312773207475726e000000000000000000000000000000000000006000830152602082019050919050565b60c0820160008201516145d46000850182613e62565b5060208201516145e76020850182614732565b5060408201516145fa6040850182614732565b50606082015161460d6060850182614732565b5060808201516146206080850182614732565b5060a082015161463360a0850182613e35565b50505050565b610140820160008201516146506000850182614732565b5060208201516146636020850182613e62565b5060408201516146766040850182613ba8565b5060608201516146896060850182614732565b50608082015161469c6080850182614732565b5060a08201516146af60a0850182613e35565b5060c08201516146c260c0850182613e35565b5060e08201516146d560e0850182614732565b506101008201516146ea610100850182614732565b506101208201516146ff610120850182614705565b50505050565b61470e81614fad565b82525050565b61471d81614fad565b82525050565b61472c81614fad565b82525050565b61473b81614fb7565b82525050565b61474a81614fb7565b82525050565b60006020820190506147656000830184613bb7565b92915050565b60006020820190506147806000830184613b99565b92915050565b600060408201905061479b6000830185613bb7565b6147a86020830184613bb7565b9392505050565b600060208201905081810360008301526147c98184613c1d565b905092915050565b600060208201905081810360008301526147eb8184613c7b565b905092915050565b6000610180820190506148096000830187613cd9565b6148166040830186613bc6565b61482360c0830185613cd9565b614831610100830184613d87565b95945050505050565b60006101a0820190506148506000830187613cd9565b61485d6040830186613bc6565b61486a60c0830185613cd9565b614878610100830184613dde565b95945050505050565b60006020820190506148966000830184613e44565b92915050565b60006020820190506148b16000830184613e53565b92915050565b600060c0820190506148cc6000830189613e71565b6148d96020830188614741565b6148e66040830187614741565b6148f36060830186614741565b6149006080830185614741565b61490d60a0830184613e44565b979650505050505050565b6000602082019050818103600083015261493181613e80565b9050919050565b6000602082019050818103600083015261495181613ee6565b9050919050565b6000602082019050818103600083015261497181613f26565b9050919050565b6000602082019050818103600083015261499181613f8c565b9050919050565b600060208201905081810360008301526149b181613fcc565b9050919050565b600060208201905081810360008301526149d18161400c565b9050919050565b600060208201905081810360008301526149f18161404c565b9050919050565b60006020820190508181036000830152614a118161408c565b9050919050565b60006020820190508181036000830152614a31816140f2565b9050919050565b60006020820190508181036000830152614a5181614132565b9050919050565b60006020820190508181036000830152614a7181614172565b9050919050565b60006020820190508181036000830152614a91816141b2565b9050919050565b60006020820190508181036000830152614ab1816141f2565b9050919050565b60006020820190508181036000830152614ad181614232565b9050919050565b60006020820190508181036000830152614af181614272565b9050919050565b60006020820190508181036000830152614b11816142b2565b9050919050565b60006020820190508181036000830152614b31816142f2565b9050919050565b60006020820190508181036000830152614b5181614332565b9050919050565b60006020820190508181036000830152614b7181614398565b9050919050565b60006020820190508181036000830152614b91816143d8565b9050919050565b60006020820190508181036000830152614bb181614418565b9050919050565b60006020820190508181036000830152614bd181614458565b9050919050565b60006020820190508181036000830152614bf1816144be565b9050919050565b60006020820190508181036000830152614c11816144fe565b9050919050565b60006020820190508181036000830152614c318161453e565b9050919050565b60006020820190508181036000830152614c518161457e565b9050919050565b6000602082019050614c6d6000830184614714565b92915050565b6000602082019050614c886000830184614741565b92915050565b600061014082019050614ca4600083018d614741565b614cb1602083018c613e71565b614cbe604083018b613bb7565b614ccb606083018a614741565b614cd86080830189614741565b614ce560a0830188613e44565b614cf260c0830187613e44565b614cff60e0830186614741565b614d0d610100830185614741565b614d1b610120830184614714565b9b9a5050505050505050505050565b6000604051905081810181811067ffffffffffffffff82111715614d4d57600080fd5b8060405250919050565b600067ffffffffffffffff821115614d6e57600080fd5b602082029050919050565b600067ffffffffffffffff821115614d9057600080fd5b602082029050919050565b600067ffffffffffffffff821115614db257600080fd5b602082029050919050565b600067ffffffffffffffff821115614dd457600080fd5b602082029050919050565b600067ffffffffffffffff821115614df657600080fd5b602082029050602081019050919050565b6000819050919050565b6000819050602082019050919050565b6000819050602082019050919050565b6000819050919050565b6000819050919050565b6000819050919050565b600060029050919050565b600081519050919050565b600081519050919050565b600060029050919050565b600060049050919050565b600060059050919050565b6000602082019050919050565b6000602082019050919050565b6000602082019050919050565b6000602082019050919050565b6000602082019050919050565b6000602082019050919050565b600081905092915050565b600082825260208201905092915050565b600082825260208201905092915050565b600081905092915050565b600081905092915050565b600081905092915050565b600081905092915050565b600082825260208201905092915050565b6000614f5482614f8d565b9050919050565b60008115159050919050565b6000819050614f758261501e565b919050565b6000819050614f888261502b565b919050565b600073ffffffffffffffffffffffffffffffffffffffff82169050919050565b6000819050919050565b600060ff82169050919050565b6000614fcf82614ffa565b9050919050565b6000614fe182614f67565b9050919050565b6000614ff382614f7a565b9050919050565b60006150058261500c565b9050919050565b600061501782614f8d565b9050919050565b6004811061502857fe5b50565b6004811061503557fe5b50565b61504181614f5b565b811461504c57600080fd5b50565b6004811061505c57600080fd5b50565b61506881614fad565b811461507357600080fd5b50565b61507f81614fb7565b811461508a57600080fd5b5056fea2646970667358221220de3ff9783ea6f4d1c441845465b5ab62802569f56782dae524e70c375c0e432864736f6c63430006070033",
  "immutableReferences": {},
  "source": "pragma solidity ^0.6.7;\npragma experimental ABIEncoderV2;\n\nimport \"@openzeppelin/contracts-ethereum-package/contracts/Initializable.sol\";\nimport \"./ZKChessTypes.sol\";\nimport \"./ZKChessUtils.sol\";\nimport \"./Verifier.sol\";\n\ncontract ZKChessGame is Initializable {\n    uint256\n        public constant FIELD_SIZE = 21888242871839275222246405745257275088548364400416034343698204186575808495617;\n    uint256\n        public constant GHOST_START_COMMITMENT = 7374563847362678215915084925243633004703986452179446109135597066279732561698;\n    uint256 public constant BOARD_SIZE = 7;\n\n    uint256 public gameId;\n\n    uint8 public turnNumber;\n    GameState public gameState;\n    uint8[BOARD_SIZE][BOARD_SIZE] public boardPieces; // board[row][col]\n\n    uint8[] public pieceIds;\n    mapping(uint8 => Piece) public pieces;\n\n    mapping(PieceType => PieceDefaultStats) public defaultStats;\n\n    bool public DISABLE_ZK_CHECK;\n\n    address public player1;\n    address public player2;\n\n    // mapping from turn # -> piece # -> has acted\n    mapping(uint8 => mapping(uint8 => bool)) public hasMoved;\n    mapping(uint8 => mapping(uint8 => bool)) public hasAttacked;\n\n    uint256 pfsVerified;\n\n    function initialize(uint256 _gameId, bool _disableZKCheck) public {\n        gameId = _gameId;\n        DISABLE_ZK_CHECK = _disableZKCheck;\n        gameState = GameState.WAITING_FOR_PLAYERS;\n\n        // initialize pieces\n        defaultStats[PieceType.KING] = PieceDefaultStats({\n            pieceType: PieceType.KING,\n            mvRange: 2,\n            atkRange: 1,\n            hp: 3,\n            atk: 2,\n            isZk: false\n        });\n        defaultStats[PieceType.KNIGHT] = PieceDefaultStats({\n            pieceType: PieceType.KNIGHT,\n            mvRange: 2,\n            atkRange: 2,\n            hp: 3,\n            atk: 2,\n            isZk: false\n        });\n        defaultStats[PieceType.GHOST] = PieceDefaultStats({\n            pieceType: PieceType.GHOST,\n            mvRange: 1,\n            atkRange: 1,\n            hp: 3,\n            atk: 1,\n            isZk: true\n        });\n        defaultStats[PieceType.PORT] = PieceDefaultStats({\n            pieceType: PieceType.PORT,\n            mvRange: 0,\n            atkRange: 2,\n            hp: 10,\n            atk: 2,\n            isZk: false\n        });\n    }\n\n    //////////////\n    /// EVENTS ///\n    //////////////\n\n    event ProofVerified(uint256 pfsAccepted);\n    event GameStart(address p1, address p2);\n    event ActionMade(address player);\n    event GameFinished();\n\n    ///////////////\n    /// GETTERS ///\n    ///////////////\n\n    function getPieces() public view returns (Piece[] memory ret) {\n        ret = new Piece[](pieceIds.length);\n        for (uint8 i = 0; i < pieceIds.length; i++) {\n            ret[i] = pieces[pieceIds[i]];\n        }\n        return ret;\n    }\n\n    function getDefaults()\n        public\n        view\n        returns (PieceDefaultStats[] memory ret)\n    {\n        ret = new PieceDefaultStats[](4);\n        // TODO hardcode bad >:(\n        for (uint8 i = 0; i < 4; i++) {\n            ret[i] = defaultStats[PieceType(i)];\n        }\n        return ret;\n    }\n\n    //////////////\n    /// Helper ///\n    //////////////\n\n    function taxiDist(\n        uint8 row1,\n        uint8 col1,\n        uint8 row2,\n        uint8 col2\n    ) private pure returns (uint8) {\n        uint8 ret = 0;\n        if (row1 > row2) {\n            ret += row1 - row2;\n        } else {\n            ret += row2 - row1;\n        }\n        if (col1 > col2) {\n            ret += col1 - col2;\n        } else {\n            ret += col2 - col1;\n        }\n        return ret;\n    }\n\n    function isValidMove(\n        Piece memory piece,\n        uint8[] memory toRow,\n        uint8[] memory toCol\n    ) private view returns (bool) {\n        uint8 currentRow = piece.row;\n        uint8 currentCol = piece.col;\n        require(toRow.length == toCol.length, \"invalid move\");\n        require(\n            toRow.length <= defaultStats[piece.pieceType].mvRange,\n            \"tried to move piece further than range allows\"\n        );\n\n        for (uint256 i = 0; i < toRow.length; i++) {\n            uint8 nextRow = toRow[i];\n            uint8 nextCol = toCol[i];\n            // must be in range [0, SIZE - 1]\n            require(\n                nextRow < BOARD_SIZE || nextCol < BOARD_SIZE,\n                \"tried to move out of bounds\"\n            );\n            // (nextRow, nextCol) must be adjacent to (currentRow, currentCol)\n            require(\n                (nextRow == currentRow || nextCol == currentCol) &&\n                    (nextRow - currentRow == 1 ||\n                        currentRow - nextRow == 1 ||\n                        nextCol - currentCol == 1 ||\n                        currentCol - nextCol == 1),\n                \"invalid move\"\n            );\n            // can't move through or onto a square with a piece on it\n            uint8 pieceIdAtNextTile = boardPieces[nextRow][nextCol];\n            Piece storage pieceAtNextTile = pieces[pieceIdAtNextTile];\n            require(\n                !pieceAtNextTile.alive,\n                \"tried to move through an existing piece\"\n            );\n            currentRow = nextRow;\n            currentCol = nextCol;\n        }\n        return true;\n    }\n\n    function gameShouldBeCompleted() public view returns (bool) {\n        // check if game is over: at least one player has no pieces left\n        bool player1HasPiecesLeft = false;\n        bool player2HasPiecesLeft = false;\n        for (uint8 i = 0; i < pieceIds.length; i++) {\n            Piece storage piece = pieces[pieceIds[i]];\n            if (piece.owner == player1 && piece.alive) {\n                player1HasPiecesLeft = true;\n            } else if (piece.owner == player2 && piece.alive) {\n                player2HasPiecesLeft = true;\n            }\n        }\n        return !(player1HasPiecesLeft && player2HasPiecesLeft);\n    }\n\n    //////////////////////\n    /// Game Mechanics ///\n    //////////////////////\n\n    function checkAction(uint8 _turnNumber) internal {\n        require(gameState != GameState.COMPLETE, \"Game is ended\");\n        if (msg.sender == player1) {\n            require(gameState == GameState.P1_TO_MOVE, \"Not p1's turn\");\n        }\n        if (msg.sender == player2) {\n            require(gameState == GameState.P2_TO_MOVE, \"Not p2's turn\");\n        }\n        require(_turnNumber == turnNumber, \"Wrong turn number\");\n    }\n\n    function joinGame() public {\n        require(\n            gameState == GameState.WAITING_FOR_PLAYERS,\n            \"Game already started\"\n        );\n        if (player1 == address(0)) {\n            // first player to join game\n            player1 = msg.sender;\n            return;\n        }\n        // another player has joined. game is ready to start\n\n        require(msg.sender != player1, \"can't join game twice\");\n        // randomize player order\n        if (block.timestamp % 2 == 0) {\n            player2 = msg.sender;\n        } else {\n            player2 = player1;\n            player1 = msg.sender;\n        }\n\n        // set pieces\n        pieces[1] = Piece({\n            id: 1,\n            pieceType: PieceType.PORT,\n            owner: player1,\n            row: 0,\n            col: 3,\n            alive: true,\n            commitment: 0,\n            initialized: true,\n            hp: defaultStats[PieceType.PORT].hp,\n            initializedOnTurn: 0\n        });\n        pieceIds.push(1);\n        boardPieces[0][3] = 1;\n        pieces[2] = Piece({\n            id: 2,\n            pieceType: PieceType.PORT,\n            owner: player2,\n            row: 6,\n            col: 3,\n            alive: true,\n            commitment: 0,\n            initialized: true,\n            hp: defaultStats[PieceType.PORT].hp,\n            initializedOnTurn: 0\n        });\n        pieceIds.push(2);\n        boardPieces[6][3] = 2;\n\n        gameState = GameState.P1_TO_MOVE;\n        emit GameStart(player1, player2);\n    }\n\n    function doSummon(Summon memory summon) public {\n        checkAction(summon.turnNumber);\n        require(!pieces[summon.pieceId].initialized, \"piece ID already in use\");\n\n        // PORT tile\n        uint8 homeRow = 0;\n        uint8 homeCol = 3;\n        if (msg.sender == player2) {\n            homeRow = 6;\n        }\n        if (!defaultStats[summon.pieceType].isZk) {\n            require(\n                summon.row < BOARD_SIZE && summon.col < BOARD_SIZE,\n                \"not in bounds\"\n            );\n            // if visible piece, can't summon on existing piece\n            uint8 pieceIdAtSummonTile = boardPieces[summon.row][summon.col];\n            Piece storage pieceAtSummonTile = pieces[pieceIdAtSummonTile];\n            require(\n                !pieceAtSummonTile.alive,\n                \"tried to summon onto an existing piece\"\n            );\n            // must summon adjacent to the PORT tile\n            require(\n                taxiDist(summon.row, summon.col, homeRow, homeCol) == 1,\n                \"can't summon there\"\n            );\n        } else {\n            if (!DISABLE_ZK_CHECK) {\n                require(\n                    summon.zkp.input[1] == homeRow &&\n                        summon.zkp.input[2] == homeCol,\n                    \"invalid ZK proof: invalid port\"\n                );\n                require(\n                    summon.zkp.input[3] == 1,\n                    \"invalid ZK proof: can only summon next to port\"\n                );\n                require(\n                    summon.zkp.input[4] == BOARD_SIZE,\n                    \"invalid ZK proof: invalid board size\"\n                );\n                require(\n                    Verifier.verifyDist1Proof(\n                        summon.zkp.a,\n                        summon.zkp.b,\n                        summon.zkp.c,\n                        summon.zkp.input\n                    ),\n                    \"Failed ZK summon check\"\n                );\n            }\n        }\n        pieces[summon.pieceId] = Piece({\n            id: summon.pieceId,\n            pieceType: summon.pieceType,\n            owner: msg.sender,\n            row: summon.row,\n            col: summon.col,\n            alive: true,\n            commitment: summon.zkp.input[0],\n            initialized: true,\n            hp: defaultStats[summon.pieceType].hp,\n            initializedOnTurn: turnNumber\n        });\n        pieceIds.push(summon.pieceId);\n        boardPieces[summon.row][summon.col] = summon.pieceId;\n        // if piece has just been made, can't use it yet\n        // in the future this should be tracked in its own field\n        hasMoved[summon.turnNumber][summon.pieceId] = true;\n        hasAttacked[summon.turnNumber][summon.pieceId] = true;\n        emit ActionMade(msg.sender);\n    }\n\n    function doMove(Move memory move) public {\n        checkAction(move.turnNumber);\n        Piece storage piece = pieces[move.pieceId];\n        require(\n            piece.owner == msg.sender && piece.owner != address(0),\n            \"can't move opponent's piece\"\n        );\n        require(piece.alive, \"Piece is dead\");\n        require(!hasMoved[move.turnNumber][piece.id], \"piece already moved\");\n        require(!hasAttacked[move.turnNumber][piece.id], \"piece already acted\");\n\n        if (defaultStats[piece.pieceType].isZk) {\n            require(piece.commitment == move.zkp.input[0], \"ZK Proof invalid\");\n            require(move.zkp.input[3] == BOARD_SIZE);\n            // TODO: check that move is within pieceType's move range\n            require(\n                move.zkp.input[2] <= defaultStats[piece.pieceType].mvRange,\n                \"Tried to move too far\"\n            );\n            if (!DISABLE_ZK_CHECK) {\n                require(\n                    Verifier.verifyDist2Proof(\n                        move.zkp.a,\n                        move.zkp.b,\n                        move.zkp.c,\n                        move.zkp.input\n                    ),\n                    \"Failed zk move check\"\n                );\n            }\n            piece.commitment = move.zkp.input[1];\n        } else {\n            uint8[] memory moveToRow = move.moveToRow;\n            uint8[] memory moveToCol = move.moveToCol;\n            require(isValidMove(piece, moveToRow, moveToCol), \"Invalid move\");\n            uint8 toRow = moveToRow[moveToRow.length - 1];\n            uint8 toCol = moveToCol[moveToCol.length - 1];\n            boardPieces[piece.row][piece.col] = 0;\n            boardPieces[toRow][toCol] = piece.id;\n            piece.row = toRow;\n            piece.col = toCol;\n        }\n        hasMoved[move.turnNumber][piece.id] = true;\n        emit ActionMade(msg.sender);\n    }\n\n    function endTurn(uint8 _turnNumber) public {\n        checkAction(_turnNumber);\n        if (msg.sender == player1) {\n            // change to p2's turn\n            gameState = GameState.P2_TO_MOVE;\n        } else {\n            // change to p1's turn\n            turnNumber++;\n            gameState = GameState.P1_TO_MOVE;\n        }\n        emit ActionMade(msg.sender);\n\n        if (gameShouldBeCompleted()) {\n            gameState = GameState.COMPLETE;\n            emit GameFinished();\n        }\n    }\n}\n",
  "sourcePath": "/Users/bgu/zk-chess/eth/contracts/ZKChessGame.sol",
  "compiler": {
    "name": "solc",
    "version": "0.6.7+commit.b8d736ae.Emscripten.clang"
  },
  "schemaVersion": "3.3.1",
  "updatedAt": "2020-11-10T21:16:07.603Z",
  "networkType": "ethereum",
  "devdoc": {
    "methods": {}
  },
  "userdoc": {
    "methods": {
      "getPieces()": {
        "notice": "//////////// GETTERS /// ////////////"
      }
    }
  }
}