{
  "contractName": "ZKChessGame",
  "abi": [
    {
      "anonymous": false,
      "inputs": [
        {
          "indexed": false,
          "internalType": "uint16",
          "name": "sequenceNumber",
          "type": "uint16"
        },
        {
          "indexed": false,
          "internalType": "uint8",
          "name": "attacker",
          "type": "uint8"
        },
        {
          "indexed": false,
          "internalType": "uint8",
          "name": "attacked",
          "type": "uint8"
        },
        {
          "indexed": false,
          "internalType": "uint8",
          "name": "attackerHp",
          "type": "uint8"
        },
        {
          "indexed": false,
          "internalType": "uint8",
          "name": "attackedHp",
          "type": "uint8"
        }
      ],
      "name": "DidAttack",
      "type": "event"
    },
    {
      "anonymous": false,
      "inputs": [
        {
          "indexed": false,
          "internalType": "address",
          "name": "player",
          "type": "address"
        },
        {
          "indexed": false,
          "internalType": "uint8",
          "name": "turnNumber",
          "type": "uint8"
        },
        {
          "indexed": false,
          "internalType": "uint16",
          "name": "sequenceNumber",
          "type": "uint16"
        }
      ],
      "name": "DidEndTurn",
      "type": "event"
    },
    {
      "anonymous": false,
      "inputs": [
        {
          "indexed": false,
          "internalType": "uint16",
          "name": "sequenceNumber",
          "type": "uint16"
        },
        {
          "indexed": false,
          "internalType": "uint8",
          "name": "pieceId",
          "type": "uint8"
        },
        {
          "indexed": false,
          "internalType": "uint8",
          "name": "fromRow",
          "type": "uint8"
        },
        {
          "indexed": false,
          "internalType": "uint8",
          "name": "fromCol",
          "type": "uint8"
        },
        {
          "indexed": false,
          "internalType": "uint8",
          "name": "toRow",
          "type": "uint8"
        },
        {
          "indexed": false,
          "internalType": "uint8",
          "name": "toCol",
          "type": "uint8"
        }
      ],
      "name": "DidMove",
      "type": "event"
    },
    {
      "anonymous": false,
      "inputs": [
        {
          "indexed": false,
          "internalType": "address",
          "name": "player",
          "type": "address"
        },
        {
          "indexed": false,
          "internalType": "uint8",
          "name": "pieceId",
          "type": "uint8"
        },
        {
          "indexed": false,
          "internalType": "uint16",
          "name": "sequenceNumber",
          "type": "uint16"
        },
        {
          "indexed": false,
          "internalType": "enum PieceType",
          "name": "pieceType",
          "type": "uint8"
        },
        {
          "indexed": false,
          "internalType": "uint8",
          "name": "atRow",
          "type": "uint8"
        },
        {
          "indexed": false,
          "internalType": "uint8",
          "name": "atCol",
          "type": "uint8"
        }
      ],
      "name": "DidSummon",
      "type": "event"
    },
    {
      "anonymous": false,
      "inputs": [],
      "name": "GameFinished",
      "type": "event"
    },
    {
      "anonymous": false,
      "inputs": [
        {
          "indexed": false,
          "internalType": "address",
          "name": "p1",
          "type": "address"
        },
        {
          "indexed": false,
          "internalType": "address",
          "name": "p2",
          "type": "address"
        }
      ],
      "name": "GameStart",
      "type": "event"
    },
    {
      "inputs": [],
      "name": "NCOLS",
      "outputs": [
        {
          "internalType": "uint8",
          "name": "",
          "type": "uint8"
        }
      ],
      "stateMutability": "view",
      "type": "function",
      "constant": true
    },
    {
      "inputs": [],
      "name": "NROWS",
      "outputs": [
        {
          "internalType": "uint8",
          "name": "",
          "type": "uint8"
        }
      ],
      "stateMutability": "view",
      "type": "function",
      "constant": true
    },
    {
      "inputs": [
        {
          "internalType": "uint256",
          "name": "",
          "type": "uint256"
        },
        {
          "internalType": "uint256",
          "name": "",
          "type": "uint256"
        }
      ],
      "name": "boardPieces",
      "outputs": [
        {
          "internalType": "uint8",
          "name": "",
          "type": "uint8"
        }
      ],
      "stateMutability": "view",
      "type": "function",
      "constant": true
    },
    {
      "inputs": [
        {
          "internalType": "enum PieceType",
          "name": "",
          "type": "uint8"
        }
      ],
      "name": "defaultStats",
      "outputs": [
        {
          "internalType": "enum PieceType",
          "name": "pieceType",
          "type": "uint8"
        },
        {
          "internalType": "uint8",
          "name": "mvRange",
          "type": "uint8"
        },
        {
          "internalType": "uint8",
          "name": "atkRange",
          "type": "uint8"
        },
        {
          "internalType": "uint8",
          "name": "hp",
          "type": "uint8"
        },
        {
          "internalType": "uint8",
          "name": "atk",
          "type": "uint8"
        },
        {
          "internalType": "uint8",
          "name": "cost",
          "type": "uint8"
        },
        {
          "internalType": "bool",
          "name": "isZk",
          "type": "bool"
        },
        {
          "internalType": "bool",
          "name": "kamikaze",
          "type": "bool"
        }
      ],
      "stateMutability": "view",
      "type": "function",
      "constant": true
    },
    {
      "inputs": [],
      "name": "gameId",
      "outputs": [
        {
          "internalType": "uint256",
          "name": "",
          "type": "uint256"
        }
      ],
      "stateMutability": "view",
      "type": "function",
      "constant": true
    },
    {
      "inputs": [],
      "name": "gameState",
      "outputs": [
        {
          "internalType": "enum GameState",
          "name": "",
          "type": "uint8"
        }
      ],
      "stateMutability": "view",
      "type": "function",
      "constant": true
    },
    {
      "inputs": [
        {
          "internalType": "uint8",
          "name": "",
          "type": "uint8"
        },
        {
          "internalType": "uint8",
          "name": "",
          "type": "uint8"
        }
      ],
      "name": "hasAttacked",
      "outputs": [
        {
          "internalType": "bool",
          "name": "",
          "type": "bool"
        }
      ],
      "stateMutability": "view",
      "type": "function",
      "constant": true
    },
    {
      "inputs": [
        {
          "internalType": "uint8",
          "name": "",
          "type": "uint8"
        },
        {
          "internalType": "uint8",
          "name": "",
          "type": "uint8"
        }
      ],
      "name": "hasMoved",
      "outputs": [
        {
          "internalType": "bool",
          "name": "",
          "type": "bool"
        }
      ],
      "stateMutability": "view",
      "type": "function",
      "constant": true
    },
    {
      "inputs": [
        {
          "internalType": "uint256",
          "name": "",
          "type": "uint256"
        }
      ],
      "name": "objectives",
      "outputs": [
        {
          "internalType": "uint8",
          "name": "row",
          "type": "uint8"
        },
        {
          "internalType": "uint8",
          "name": "col",
          "type": "uint8"
        }
      ],
      "stateMutability": "view",
      "type": "function",
      "constant": true
    },
    {
      "inputs": [
        {
          "internalType": "uint256",
          "name": "",
          "type": "uint256"
        }
      ],
      "name": "pieceIds",
      "outputs": [
        {
          "internalType": "uint8",
          "name": "",
          "type": "uint8"
        }
      ],
      "stateMutability": "view",
      "type": "function",
      "constant": true
    },
    {
      "inputs": [
        {
          "internalType": "uint8",
          "name": "",
          "type": "uint8"
        }
      ],
      "name": "pieces",
      "outputs": [
        {
          "internalType": "uint8",
          "name": "id",
          "type": "uint8"
        },
        {
          "internalType": "enum PieceType",
          "name": "pieceType",
          "type": "uint8"
        },
        {
          "internalType": "address",
          "name": "owner",
          "type": "address"
        },
        {
          "internalType": "uint8",
          "name": "row",
          "type": "uint8"
        },
        {
          "internalType": "uint8",
          "name": "col",
          "type": "uint8"
        },
        {
          "internalType": "bool",
          "name": "alive",
          "type": "bool"
        },
        {
          "internalType": "bool",
          "name": "initialized",
          "type": "bool"
        },
        {
          "internalType": "uint8",
          "name": "hp",
          "type": "uint8"
        },
        {
          "internalType": "uint8",
          "name": "initializedOnTurn",
          "type": "uint8"
        },
        {
          "internalType": "uint256",
          "name": "commitment",
          "type": "uint256"
        },
        {
          "internalType": "uint8",
          "name": "lastMove",
          "type": "uint8"
        },
        {
          "internalType": "uint8",
          "name": "lastAttack",
          "type": "uint8"
        }
      ],
      "stateMutability": "view",
      "type": "function",
      "constant": true
    },
    {
      "inputs": [],
      "name": "player1",
      "outputs": [
        {
          "internalType": "address",
          "name": "",
          "type": "address"
        }
      ],
      "stateMutability": "view",
      "type": "function",
      "constant": true
    },
    {
      "inputs": [],
      "name": "player1Mana",
      "outputs": [
        {
          "internalType": "uint8",
          "name": "",
          "type": "uint8"
        }
      ],
      "stateMutability": "view",
      "type": "function",
      "constant": true
    },
    {
      "inputs": [],
      "name": "player2",
      "outputs": [
        {
          "internalType": "address",
          "name": "",
          "type": "address"
        }
      ],
      "stateMutability": "view",
      "type": "function",
      "constant": true
    },
    {
      "inputs": [],
      "name": "player2Mana",
      "outputs": [
        {
          "internalType": "uint8",
          "name": "",
          "type": "uint8"
        }
      ],
      "stateMutability": "view",
      "type": "function",
      "constant": true
    },
    {
      "inputs": [],
      "name": "sequenceNumber",
      "outputs": [
        {
          "internalType": "uint16",
          "name": "",
          "type": "uint16"
        }
      ],
      "stateMutability": "view",
      "type": "function",
      "constant": true
    },
    {
      "inputs": [],
      "name": "turnNumber",
      "outputs": [
        {
          "internalType": "uint8",
          "name": "",
          "type": "uint8"
        }
      ],
      "stateMutability": "view",
      "type": "function",
      "constant": true
    },
    {
      "inputs": [
        {
          "internalType": "uint256",
          "name": "_gameId",
          "type": "uint256"
        }
      ],
      "name": "initialize",
      "outputs": [],
      "stateMutability": "nonpayable",
      "type": "function"
    },
    {
      "inputs": [],
      "name": "getPieces",
      "outputs": [
        {
          "components": [
            {
              "internalType": "uint8",
              "name": "id",
              "type": "uint8"
            },
            {
              "internalType": "enum PieceType",
              "name": "pieceType",
              "type": "uint8"
            },
            {
              "internalType": "address",
              "name": "owner",
              "type": "address"
            },
            {
              "internalType": "uint8",
              "name": "row",
              "type": "uint8"
            },
            {
              "internalType": "uint8",
              "name": "col",
              "type": "uint8"
            },
            {
              "internalType": "bool",
              "name": "alive",
              "type": "bool"
            },
            {
              "internalType": "bool",
              "name": "initialized",
              "type": "bool"
            },
            {
              "internalType": "uint8",
              "name": "hp",
              "type": "uint8"
            },
            {
              "internalType": "uint8",
              "name": "initializedOnTurn",
              "type": "uint8"
            },
            {
              "internalType": "uint256",
              "name": "commitment",
              "type": "uint256"
            },
            {
              "internalType": "uint8",
              "name": "lastMove",
              "type": "uint8"
            },
            {
              "internalType": "uint8",
              "name": "lastAttack",
              "type": "uint8"
            }
          ],
          "internalType": "struct Piece[]",
          "name": "ret",
          "type": "tuple[]"
        }
      ],
      "stateMutability": "view",
      "type": "function",
      "constant": true
    },
    {
      "inputs": [],
      "name": "getDefaults",
      "outputs": [
        {
          "components": [
            {
              "internalType": "enum PieceType",
              "name": "pieceType",
              "type": "uint8"
            },
            {
              "internalType": "uint8",
              "name": "mvRange",
              "type": "uint8"
            },
            {
              "internalType": "uint8",
              "name": "atkRange",
              "type": "uint8"
            },
            {
              "internalType": "uint8",
              "name": "hp",
              "type": "uint8"
            },
            {
              "internalType": "uint8",
              "name": "atk",
              "type": "uint8"
            },
            {
              "internalType": "uint8",
              "name": "cost",
              "type": "uint8"
            },
            {
              "internalType": "bool",
              "name": "isZk",
              "type": "bool"
            },
            {
              "internalType": "bool",
              "name": "kamikaze",
              "type": "bool"
            }
          ],
          "internalType": "struct PieceDefaultStats[]",
          "name": "ret",
          "type": "tuple[]"
        }
      ],
      "stateMutability": "view",
      "type": "function",
      "constant": true
    },
    {
      "inputs": [],
      "name": "getObjectives",
      "outputs": [
        {
          "components": [
            {
              "internalType": "uint8",
              "name": "row",
              "type": "uint8"
            },
            {
              "internalType": "uint8",
              "name": "col",
              "type": "uint8"
            }
          ],
          "internalType": "struct Objective[]",
          "name": "ret",
          "type": "tuple[]"
        }
      ],
      "stateMutability": "view",
      "type": "function",
      "constant": true
    },
    {
      "inputs": [
        {
          "internalType": "uint8",
          "name": "_turnNumber",
          "type": "uint8"
        },
        {
          "internalType": "uint16",
          "name": "_sequenceNumber",
          "type": "uint16"
        }
      ],
      "name": "checkAction",
      "outputs": [
        {
          "internalType": "bool",
          "name": "",
          "type": "bool"
        }
      ],
      "stateMutability": "view",
      "type": "function",
      "constant": true
    },
    {
      "inputs": [],
      "name": "gameShouldBeCompleted",
      "outputs": [
        {
          "internalType": "bool",
          "name": "",
          "type": "bool"
        }
      ],
      "stateMutability": "view",
      "type": "function",
      "constant": true
    },
    {
      "inputs": [],
      "name": "joinGame",
      "outputs": [],
      "stateMutability": "nonpayable",
      "type": "function"
    },
    {
      "inputs": [
        {
          "components": [
            {
              "internalType": "uint8",
              "name": "turnNumber",
              "type": "uint8"
            },
            {
              "internalType": "uint16",
              "name": "sequenceNumber",
              "type": "uint16"
            },
            {
              "internalType": "uint8",
              "name": "pieceId",
              "type": "uint8"
            },
            {
              "internalType": "enum PieceType",
              "name": "pieceType",
              "type": "uint8"
            },
            {
              "internalType": "uint8",
              "name": "row",
              "type": "uint8"
            },
            {
              "internalType": "uint8",
              "name": "col",
              "type": "uint8"
            },
            {
              "components": [
                {
                  "internalType": "uint256[2]",
                  "name": "a",
                  "type": "uint256[2]"
                },
                {
                  "internalType": "uint256[2][2]",
                  "name": "b",
                  "type": "uint256[2][2]"
                },
                {
                  "internalType": "uint256[2]",
                  "name": "c",
                  "type": "uint256[2]"
                },
                {
                  "internalType": "uint256[6]",
                  "name": "input",
                  "type": "uint256[6]"
                }
              ],
              "internalType": "struct SummonZKP",
              "name": "zkp",
              "type": "tuple"
            }
          ],
          "internalType": "struct Summon",
          "name": "summon",
          "type": "tuple"
        }
      ],
      "name": "doSummon",
      "outputs": [],
      "stateMutability": "nonpayable",
      "type": "function"
    },
    {
      "inputs": [
        {
          "components": [
            {
              "internalType": "uint8",
              "name": "turnNumber",
              "type": "uint8"
            },
            {
              "internalType": "uint16",
              "name": "sequenceNumber",
              "type": "uint16"
            },
            {
              "internalType": "uint8",
              "name": "pieceId",
              "type": "uint8"
            },
            {
              "internalType": "uint8[]",
              "name": "moveToRow",
              "type": "uint8[]"
            },
            {
              "internalType": "uint8[]",
              "name": "moveToCol",
              "type": "uint8[]"
            },
            {
              "components": [
                {
                  "internalType": "uint256[2]",
                  "name": "a",
                  "type": "uint256[2]"
                },
                {
                  "internalType": "uint256[2][2]",
                  "name": "b",
                  "type": "uint256[2][2]"
                },
                {
                  "internalType": "uint256[2]",
                  "name": "c",
                  "type": "uint256[2]"
                },
                {
                  "internalType": "uint256[5]",
                  "name": "input",
                  "type": "uint256[5]"
                }
              ],
              "internalType": "struct MoveZKP",
              "name": "zkp",
              "type": "tuple"
            }
          ],
          "internalType": "struct Move",
          "name": "move",
          "type": "tuple"
        }
      ],
      "name": "doMove",
      "outputs": [],
      "stateMutability": "nonpayable",
      "type": "function"
    },
    {
      "inputs": [
        {
          "components": [
            {
              "internalType": "uint8",
              "name": "turnNumber",
              "type": "uint8"
            },
            {
              "internalType": "uint16",
              "name": "sequenceNumber",
              "type": "uint16"
            },
            {
              "internalType": "uint8",
              "name": "pieceId",
              "type": "uint8"
            },
            {
              "internalType": "uint8",
              "name": "attackedId",
              "type": "uint8"
            },
            {
              "components": [
                {
                  "internalType": "uint256[2]",
                  "name": "a",
                  "type": "uint256[2]"
                },
                {
                  "internalType": "uint256[2][2]",
                  "name": "b",
                  "type": "uint256[2][2]"
                },
                {
                  "internalType": "uint256[2]",
                  "name": "c",
                  "type": "uint256[2]"
                },
                {
                  "internalType": "uint256[6]",
                  "name": "input",
                  "type": "uint256[6]"
                }
              ],
              "internalType": "struct AttackZKP",
              "name": "zkp",
              "type": "tuple"
            }
          ],
          "internalType": "struct Attack",
          "name": "attack",
          "type": "tuple"
        }
      ],
      "name": "doAttack",
      "outputs": [],
      "stateMutability": "nonpayable",
      "type": "function"
    },
    {
      "inputs": [
        {
          "internalType": "uint8",
          "name": "_turnNumber",
          "type": "uint8"
        },
        {
          "internalType": "uint8",
          "name": "_sequenceNumber",
          "type": "uint8"
        }
      ],
      "name": "endTurn",
      "outputs": [],
      "stateMutability": "nonpayable",
      "type": "function"
    }
  ],
  "bytecode": "0x608060405234801561001057600080fd5b5061571980620000216000396000f3fe608060405234801561001057600080fd5b50600436106101c45760003560e01c80637e15247d116100f9578063d1f9c24d11610097578063d7c81b5511610071578063d7c81b5514610510578063df54a9281461052e578063e8f5294d1461055e578063fe4b84df1461057a576101c4565b8063d1f9c24d146104ca578063d30895e4146104e8578063d4f77b1c14610506576101c4565b8063b172ed4d116100d3578063b172ed4d1461042e578063c0c74a761461044c578063cf615f6c1461047c578063cfecc6de1461049a576101c4565b80637e15247d146103c457806381cb97ca146103e257806385c55ab914610412576101c4565b806351df541c1161016657806359a5f12d1161014057806359a5f12d1461034c57806362d9fd871461036a57806364ca23ef146103885780637267a359146103a6576101c4565b806351df541c146102f45780635700401e1461031257806358f9809114610330576101c4565b80632c784f32116101a25780632c784f321461023657806339813cbd146102715780633fb7388e1461028d578063430632ea146102bd576101c4565b806311628abc146101c95780631d99a4d3146101e75780632a5102fb14610218575b600080fd5b6101d1610596565b6040516101de919061510f565b60405180910390f35b61020160048036038101906101fc9190613e5b565b6105a9565b60405161020f9291906151e4565b60405180910390f35b6102206105f0565b60405161022d919061510f565b60405180910390f35b610250600480360381019061024b9190613ec0565b6105f5565b6040516102689c9b9a9998979695949392919061512a565b60405180910390f35b61028b60048036038101906102869190613f4e565b6106f7565b005b6102a760048036038101906102a29190613e84565b610d09565b6040516102b4919061510f565b60405180910390f35b6102d760048036038101906102d29190613d9d565b610d52565b6040516102eb989796959493929190614d28565b60405180910390f35b6102fc610e02565b6040516103099190614cf2565b60405180910390f35b61031a610edc565b604051610327919061510f565b60405180910390f35b61034a60048036038101906103459190613dc6565b610eef565b005b610354611127565b6040516103619190614b09565b60405180910390f35b61037261114d565b60405161037f919061510f565b60405180910390f35b610390611152565b60405161039d9190615025565b60405180910390f35b6103ae611166565b6040516103bb919061510f565b60405180910390f35b6103cc611179565b6040516103d99190614be5565b60405180910390f35b6103fc60048036038101906103f79190613f4e565b611277565b6040516104099190614cf2565b60405180910390f35b61042c60048036038101906104279190613df0565b6112a6565b005b6104366116e0565b6040516104439190614c22565b60405180910390f35b61046660048036038101906104619190613f12565b6118ae565b6040516104739190614cf2565b60405180910390f35b6104846119bd565b6040516104919190614c44565b60405180910390f35b6104b460048036038101906104af9190613e5b565b611c3e565b6040516104c1919061510f565b60405180910390f35b6104d2611c6f565b6040516104df9190614d0d565b60405180910390f35b6104f0611c82565b6040516104fd9190614b09565b60405180910390f35b61050e611ca8565b005b6105186126b2565b60405161052591906150f4565b60405180910390f35b61054860048036038101906105439190613f4e565b6126b8565b6040516105559190614cf2565b60405180910390f35b61057860048036038101906105739190613e31565b6126e7565b005b610594600480360381019061058f9190613e5b565b61345d565b005b603b60159054906101000a900460ff1681565b603781815481106105b657fe5b906000526020600020016000915090508060000160009054906101000a900460ff16908060000160019054906101000a900460ff16905082565b600581565b60386020528060005260406000206000915090508060000160009054906101000a900460ff16908060000160019054906101000a900460ff16908060000160029054906101000a900473ffffffffffffffffffffffffffffffffffffffff16908060000160169054906101000a900460ff16908060000160179054906101000a900460ff16908060000160189054906101000a900460ff16908060000160199054906101000a900460ff169080600001601a9054906101000a900460ff169080600001601b9054906101000a900460ff16908060010154908060020160009054906101000a900460ff16908060020160019054906101000a900460ff1690508c565b610704828260ff166118ae565b50603a60009054906101000a900473ffffffffffffffffffffffffffffffffffffffff1673ffffffffffffffffffffffffffffffffffffffff163373ffffffffffffffffffffffffffffffffffffffff1614156109b2576000603b60146101000a81548160ff021916908360ff160217905550603460009054906101000a900460ff16603b60156101000a81548160ff021916908360ff1602179055506008603b60159054906101000a900460ff1660ff1611156107d9576008603b60156101000a81548160ff021916908360ff1602179055505b60008090505b6037805490508160ff16101561098857600060378260ff168154811061080157fe5b9060005260206000200160000160009054906101000a900460ff169050600060378360ff168154811061083057fe5b9060005260206000200160000160019054906101000a900460ff16905060006038600060358560ff168154811061086357fe5b906000526020600020018460ff168154811061087b57fe5b90600052602060002090602091828204019190069054906101000a900460ff1660ff1660ff16815260200190815260200160002090508060000160189054906101000a900460ff1680156109405750603b60009054906101000a900473ffffffffffffffffffffffffffffffffffffffff1673ffffffffffffffffffffffffffffffffffffffff168160000160029054906101000a900473ffffffffffffffffffffffffffffffffffffffff1673ffffffffffffffffffffffffffffffffffffffff16145b1561097857603b601581819054906101000a900460ff168092919060010191906101000a81548160ff021916908360ff160217905550505b50505080806001019150506107df565b506002603460036101000a81548160ff021916908360038111156109a857fe5b0217905550610c37565b6034600081819054906101000a900460ff168092919060010191906101000a81548160ff021916908360ff160217905550506000603b60156101000a81548160ff021916908360ff160217905550603460009054906101000a900460ff16603b60146101000a81548160ff021916908360ff1602179055506008603b60149054906101000a900460ff1660ff161115610a62576008603b60146101000a81548160ff021916908360ff1602179055505b60008090505b6037805490508160ff161015610c1157600060378260ff1681548110610a8a57fe5b9060005260206000200160000160009054906101000a900460ff169050600060378360ff1681548110610ab957fe5b9060005260206000200160000160019054906101000a900460ff16905060006038600060358560ff1681548110610aec57fe5b906000526020600020018460ff1681548110610b0457fe5b90600052602060002090602091828204019190069054906101000a900460ff1660ff1660ff16815260200190815260200160002090508060000160189054906101000a900460ff168015610bc95750603a60009054906101000a900473ffffffffffffffffffffffffffffffffffffffff1673ffffffffffffffffffffffffffffffffffffffff168160000160029054906101000a900473ffffffffffffffffffffffffffffffffffffffff1673ffffffffffffffffffffffffffffffffffffffff16145b15610c0157603b601481819054906101000a900460ff168092919060010191906101000a81548160ff021916908360ff160217905550505b5050508080600101915050610a68565b506001603460036101000a81548160ff02191690836003811115610c3157fe5b02179055505b7f27e77cb9303b56e18ceb82b3e0df64b35731cea5df6f30547f9fec78b1081bbf338383604051610c6a93929190614b85565b60405180910390a16034600181819054906101000a900461ffff168092919060010191906101000a81548161ffff021916908361ffff16021790555050610caf610e02565b15610d05576003603460036101000a81548160ff02191690836003811115610cd357fe5b02179055507fb537cbcadc098cfedf5a04ef7e68a8554b55f7e45bfdaca1cbc51a686ef65f4860405160405180910390a15b5050565b60358281548110610d1657fe5b906000526020600020018181548110610d2b57fe5b9060005260206000209060209182820401919006915091509054906101000a900460ff1681565b60396020528060005260406000206000915090508060000160009054906101000a900460ff16908060000160019054906101000a900460ff16908060000160029054906101000a900460ff16908060000160039054906101000a900460ff16908060000160049054906101000a900460ff16908060000160059054906101000a900460ff16908060000160069054906101000a900460ff16908060000160079054906101000a900460ff16905088565b600073__ZKChessUtils__________________________63e382904460366038603a60009054906101000a900473ffffffffffffffffffffffffffffffffffffffff16603b60009054906101000a900473ffffffffffffffffffffffffffffffffffffffff166040518563ffffffff1660e01b8152600401610e879493929190614cad565b60206040518083038186803b158015610e9f57600080fd5b505af4158015610eb3573d6000803e3d6000fd5b505050506040513d601f19601f82011682018060405250810190610ed79190613d74565b905090565b603460009054906101000a900460ff1681565b610f01816000015182602001516118ae565b5073__ZKChessUtils__________________________6369fe0a208260386039603d600560076040518763ffffffff1660e01b8152600401610f4896959493929190614f39565b60206040518083038186803b158015610f6057600080fd5b505af4158015610f74573d6000803e3d6000fd5b505050506040513d601f19601f82011682018060405250810190610f989190613d74565b610fd7576040517f08c379a0000000000000000000000000000000000000000000000000000000008152600401610fce90614e81565b60405180910390fd5b73__ZKChessUtils__________________________6317a5da6382603860356039603d6040518663ffffffff1660e01b815260040161101a959493929190614ee1565b60006040518083038186803b15801561103257600080fd5b505af4158015611046573d6000803e3d6000fd5b505050507f26b1bbbf4d915af107239a76abff01456db75ac5dd5aafafd4b3d1286060734681602001518260400151836060015160386000866040015160ff1660ff168152602001908152602001600020600001601a9054906101000a900460ff1660386000876060015160ff1660ff168152602001908152602001600020600001601a9054906101000a900460ff166040516110e7959493929190615040565b60405180910390a16034600181819054906101000a900461ffff168092919060010191906101000a81548161ffff021916908361ffff1602179055505050565b603b60009054906101000a900473ffffffffffffffffffffffffffffffffffffffff1681565b600781565b603460019054906101000a900461ffff1681565b603b60149054906101000a900460ff1681565b606060378054905067ffffffffffffffff8111801561119757600080fd5b506040519080825280602002602001820160405280156111d157816020015b6111be61361c565b8152602001906001900390816111b65790505b50905060008090505b6037805490508160ff1610156112705760378160ff16815481106111fa57fe5b906000526020600020016040518060400160405290816000820160009054906101000a900460ff1660ff1660ff1681526020016000820160019054906101000a900460ff1660ff1660ff1681525050828260ff168151811061125857fe5b602002602001018190525080806001019150506111da565b5080905090565b603d6020528160005260406000206020528060005260406000206000915091509054906101000a900460ff1681565b6112b8816000015182602001516118ae565b50600060386000836040015160ff1660ff168152602001908152602001600020905060008160000160169054906101000a900460ff16905060008260000160179054906101000a900460ff16905073__ZKChessUtils__________________________630233d6fb8560386039603c603d6035600560076040518963ffffffff1660e01b8152600401611352989796959493929190614fa0565b60206040518083038186803b15801561136a57600080fd5b505af415801561137e573d6000803e3d6000fd5b505050506040513d601f19601f820116820180604052508101906113a29190613d74565b6113e1576040517f08c379a00000000000000000000000000000000000000000000000000000000081526004016113d890614e21565b60405180910390fd5b603960008460000160019054906101000a900460ff16600581111561140257fe5b600581111561140d57fe5b815260200190815260200160002060000160069054906101000a900460ff1615611458578360a001516060015160016005811061144657fe5b602002015183600101819055506115bb565b60608460600151905060608560800151905060008260018451038151811061147c57fe5b6020026020010151905060008260018451038151811061149857fe5b60200260200101519050600060358860000160169054906101000a900460ff1660ff16815481106114c557fe5b906000526020600020018860000160179054906101000a900460ff1660ff16815481106114ee57fe5b90600052602060002090602091828204019190066101000a81548160ff021916908360ff1602179055508660000160009054906101000a900460ff1660358360ff168154811061153a57fe5b906000526020600020018260ff168154811061155257fe5b90600052602060002090602091828204019190066101000a81548160ff021916908360ff160217905550818760000160166101000a81548160ff021916908360ff160217905550808760000160176101000a81548160ff021916908360ff160217905550505050505b6001603c6000866000015160ff1660ff16815260200190815260200160002060008560000160009054906101000a900460ff1660ff1660ff16815260200190815260200160002060006101000a81548160ff02191690831515021790555083600001518360020160006101000a81548160ff021916908360ff1602179055507f7e2f4aae474473f9e261f72d50b4f8aaabb3f5380276750de70e0121b377fac68460200151856040015184848760000160169054906101000a900460ff168860000160179054906101000a900460ff1660405161169d96959493929190615093565b60405180910390a16034600181819054906101000a900461ffff168092919060010191906101000a81548161ffff021916908361ffff1602179055505050505050565b6060600667ffffffffffffffff811180156116fa57600080fd5b5060405190808252806020026020018201604052801561173457816020015b61172161363c565b8152602001906001900390816117195790505b50905060008090505b60068160ff1610156118a757603960008260ff16600581111561175c57fe5b600581111561176757fe5b600581111561177257fe5b8152602001908152602001600020604051806101000160405290816000820160009054906101000a900460ff1660058111156117aa57fe5b60058111156117b557fe5b81526020016000820160019054906101000a900460ff1660ff1660ff1681526020016000820160029054906101000a900460ff1660ff1660ff1681526020016000820160039054906101000a900460ff1660ff1660ff1681526020016000820160049054906101000a900460ff1660ff1660ff1681526020016000820160059054906101000a900460ff1660ff1660ff1681526020016000820160069054906101000a900460ff161515151581526020016000820160079054906101000a900460ff161515151581525050828260ff168151811061188f57fe5b6020026020010181905250808060010191505061173d565b5080905090565b600073__ZKChessUtils__________________________63bbca541f84603460009054906101000a900460ff1685603460019054906101000a900461ffff16603a60009054906101000a900473ffffffffffffffffffffffffffffffffffffffff16603b60009054906101000a900473ffffffffffffffffffffffffffffffffffffffff16603460039054906101000a900460ff166040518863ffffffff1660e01b8152600401611965979695949392919061520d565b60206040518083038186803b15801561197d57600080fd5b505af4158015611991573d6000803e3d6000fd5b505050506040513d601f19601f820116820180604052508101906119b59190613d74565b905092915050565b606060368054905067ffffffffffffffff811180156119db57600080fd5b50604051908082528060200260200182016040528015611a1557816020015b611a0261369f565b8152602001906001900390816119fa5790505b50905060008090505b6036805490508160ff161015611c37576038600060368360ff1681548110611a4257fe5b90600052602060002090602091828204019190069054906101000a900460ff1660ff1660ff168152602001908152602001600020604051806101800160405290816000820160009054906101000a900460ff1660ff1660ff1681526020016000820160019054906101000a900460ff166005811115611abd57fe5b6005811115611ac857fe5b81526020016000820160029054906101000a900473ffffffffffffffffffffffffffffffffffffffff1673ffffffffffffffffffffffffffffffffffffffff1673ffffffffffffffffffffffffffffffffffffffff1681526020016000820160169054906101000a900460ff1660ff1660ff1681526020016000820160179054906101000a900460ff1660ff1660ff1681526020016000820160189054906101000a900460ff161515151581526020016000820160199054906101000a900460ff1615151515815260200160008201601a9054906101000a900460ff1660ff1660ff16815260200160008201601b9054906101000a900460ff1660ff1660ff168152602001600182015481526020016002820160009054906101000a900460ff1660ff1660ff1681526020016002820160019054906101000a900460ff1660ff1660ff1681525050828260ff1681518110611c1f57fe5b60200260200101819052508080600101915050611a1e565b5080905090565b60368181548110611c4b57fe5b9060005260206000209060209182820401919006915054906101000a900460ff1681565b603460039054906101000a900460ff1681565b603a60009054906101000a900473ffffffffffffffffffffffffffffffffffffffff1681565b60006003811115611cb557fe5b603460039054906101000a900460ff166003811115611cd057fe5b14611d10576040517f08c379a0000000000000000000000000000000000000000000000000000000008152600401611d0790614ec1565b60405180910390fd5b600073ffffffffffffffffffffffffffffffffffffffff16603a60009054906101000a900473ffffffffffffffffffffffffffffffffffffffff1673ffffffffffffffffffffffffffffffffffffffff161415611dad5733603a60006101000a81548173ffffffffffffffffffffffffffffffffffffffff021916908373ffffffffffffffffffffffffffffffffffffffff1602179055506126b0565b603a60009054906101000a900473ffffffffffffffffffffffffffffffffffffffff1673ffffffffffffffffffffffffffffffffffffffff163373ffffffffffffffffffffffffffffffffffffffff161415611e3e576040517f08c379a0000000000000000000000000000000000000000000000000000000008152600401611e3590614e01565b60405180910390fd5b600060024281611e4a57fe5b061415611e975733603b60006101000a81548173ffffffffffffffffffffffffffffffffffffffff021916908373ffffffffffffffffffffffffffffffffffffffff160217905550611f3c565b603a60009054906101000a900473ffffffffffffffffffffffffffffffffffffffff16603b60006101000a81548173ffffffffffffffffffffffffffffffffffffffff021916908373ffffffffffffffffffffffffffffffffffffffff16021790555033603a60006101000a81548173ffffffffffffffffffffffffffffffffffffffff021916908373ffffffffffffffffffffffffffffffffffffffff1602179055505b604051806101800160405280600160ff16815260200160006005811115611f5f57fe5b8152602001603a60009054906101000a900473ffffffffffffffffffffffffffffffffffffffff1673ffffffffffffffffffffffffffffffffffffffff168152602001600260ff168152602001600060ff16815260200160011515815260200160011515815260200160396000806005811115611fd857fe5b6005811115611fe357fe5b815260200190815260200160002060000160039054906101000a900460ff1660ff168152602001600060ff16815260200160008152602001600060ff168152602001600060ff1681525060386000600160ff16815260200190815260200160002060008201518160000160006101000a81548160ff021916908360ff16021790555060208201518160000160016101000a81548160ff0219169083600581111561208957fe5b021790555060408201518160000160026101000a81548173ffffffffffffffffffffffffffffffffffffffff021916908373ffffffffffffffffffffffffffffffffffffffff16021790555060608201518160000160166101000a81548160ff021916908360ff16021790555060808201518160000160176101000a81548160ff021916908360ff16021790555060a08201518160000160186101000a81548160ff02191690831515021790555060c08201518160000160196101000a81548160ff02191690831515021790555060e082015181600001601a6101000a81548160ff021916908360ff16021790555061010082015181600001601b6101000a81548160ff021916908360ff16021790555061012082015181600101556101408201518160020160006101000a81548160ff021916908360ff1602179055506101608201518160020160016101000a81548160ff021916908360ff1602179055509050506036600190806001815401808255809150506001900390600052602060002090602091828204019190069091909190916101000a81548160ff021916908360ff1602179055506001603560028154811061224257fe5b9060005260206000200160008154811061225857fe5b90600052602060002090602091828204019190066101000a81548160ff021916908360ff160217905550604051806101800160405280600260ff168152602001600060058111156122a557fe5b8152602001603b60009054906101000a900473ffffffffffffffffffffffffffffffffffffffff1673ffffffffffffffffffffffffffffffffffffffff168152602001600260ff168152602001600660ff1681526020016001151581526020016001151581526020016039600080600581111561231e57fe5b600581111561232957fe5b815260200190815260200160002060000160039054906101000a900460ff1660ff168152602001600060ff16815260200160008152602001600060ff168152602001600060ff1681525060386000600260ff16815260200190815260200160002060008201518160000160006101000a81548160ff021916908360ff16021790555060208201518160000160016101000a81548160ff021916908360058111156123cf57fe5b021790555060408201518160000160026101000a81548173ffffffffffffffffffffffffffffffffffffffff021916908373ffffffffffffffffffffffffffffffffffffffff16021790555060608201518160000160166101000a81548160ff021916908360ff16021790555060808201518160000160176101000a81548160ff021916908360ff16021790555060a08201518160000160186101000a81548160ff02191690831515021790555060c08201518160000160196101000a81548160ff02191690831515021790555060e082015181600001601a6101000a81548160ff021916908360ff16021790555061010082015181600001601b6101000a81548160ff021916908360ff16021790555061012082015181600101556101408201518160020160006101000a81548160ff021916908360ff1602179055506101608201518160020160016101000a81548160ff021916908360ff1602179055509050506036600290806001815401808255809150506001900390600052602060002090602091828204019190069091909190916101000a81548160ff021916908360ff1602179055506002603560028154811061258857fe5b9060005260206000200160068154811061259e57fe5b90600052602060002090602091828204019190066101000a81548160ff021916908360ff1602179055506001603460036101000a81548160ff021916908360038111156125e757fe5b02179055506001603460006101000a81548160ff021916908360ff160217905550603460009054906101000a900460ff16603b60146101000a81548160ff021916908360ff1602179055507f8fd707874eb940598510258c64cad23fd35fe8c85c5c38e8782fac2cc887fb6e603a60009054906101000a900473ffffffffffffffffffffffffffffffffffffffff16603b60009054906101000a900473ffffffffffffffffffffffffffffffffffffffff166040516126a7929190614bbc565b60405180910390a15b565b60335481565b603c6020528160005260406000206020528060005260406000206000915091509054906101000a900460ff1681565b6126f9816000015182602001516118ae565b5060386000826040015160ff1660ff16815260200190815260200160002060000160199054906101000a900460ff1615612768576040517f08c379a000000000000000000000000000000000000000000000000000000000815260040161275f90614e41565b60405180910390fd5b600080603a60009054906101000a900473ffffffffffffffffffffffffffffffffffffffff1673ffffffffffffffffffffffffffffffffffffffff163373ffffffffffffffffffffffffffffffffffffffff16141561281a5760386000600160ff16815260200190815260200160002060000160169054906101000a900460ff16915060386000600160ff16815260200190815260200160002060000160179054906101000a900460ff16905061286f565b60386000600260ff16815260200190815260200160002060000160169054906101000a900460ff16915060386000600260ff16815260200190815260200160002060000160179054906101000a900460ff1690505b603a60009054906101000a900473ffffffffffffffffffffffffffffffffffffffff1673ffffffffffffffffffffffffffffffffffffffff163373ffffffffffffffffffffffffffffffffffffffff1614156129c95760396000846060015160058111156128d957fe5b60058111156128e457fe5b815260200190815260200160002060000160059054906101000a900460ff1660ff16603b60149054906101000a900460ff1660ff16101561295a576040517f08c379a000000000000000000000000000000000000000000000000000000000815260040161295190614dc1565b60405180910390fd5b603960008460600151600581111561296e57fe5b600581111561297957fe5b815260200190815260200160002060000160059054906101000a900460ff16603b60148282829054906101000a900460ff160392506101000a81548160ff021916908360ff160217905550612ac9565b60396000846060015160058111156129dd57fe5b60058111156129e857fe5b815260200190815260200160002060000160059054906101000a900460ff1660ff16603b60159054906101000a900460ff1660ff161015612a5e576040517f08c379a0000000000000000000000000000000000000000000000000000000008152600401612a5590614dc1565b60405180910390fd5b6039600084606001516005811115612a7257fe5b6005811115612a7d57fe5b815260200190815260200160002060000160059054906101000a900460ff16603b60158282829054906101000a900460ff160392506101000a81548160ff021916908360ff1602179055505b6039600084606001516005811115612add57fe5b6005811115612ae857fe5b815260200190815260200160002060000160069054906101000a900460ff16612d1257600560ff16836080015160ff16108015612b2f5750600760ff168360a0015160ff16105b612b6e576040517f08c379a0000000000000000000000000000000000000000000000000000000008152600401612b6590614e61565b60405180910390fd5b60006035846080015160ff1681548110612b8457fe5b906000526020600020018460a0015160ff1681548110612ba057fe5b90600052602060002090602091828204019190069054906101000a900460ff1690506000603860008360ff1660ff16815260200190815260200160002090508060000160189054906101000a900460ff1615612c31576040517f08c379a0000000000000000000000000000000000000000000000000000000008152600401612c2890614ea1565b60405180910390fd5b600173__ZKChessUtils__________________________632542841a87608001518860a0015188886040518563ffffffff1660e01b8152600401612c78949392919061527c565b60206040518083038186803b158015612c9057600080fd5b505af4158015612ca4573d6000803e3d6000fd5b505050506040513d601f19601f82011682018060405250810190612cc89190613ee9565b60ff1614612d0b576040517f08c379a0000000000000000000000000000000000000000000000000000000008152600401612d0290614ea1565b60405180910390fd5b5050612f9e565b8160ff168360c0015160600151600160068110612d2b57fe5b6020020151148015612d5857508060ff168360c0015160600151600260068110612d5157fe5b6020020151145b612d97576040517f08c379a0000000000000000000000000000000000000000000000000000000008152600401612d8e90614de1565b60405180910390fd5b60018360c0015160600151600360068110612dae57fe5b602002015114612df3576040517f08c379a0000000000000000000000000000000000000000000000000000000008152600401612dea90614de1565b60405180910390fd5b600560ff168360c0015160600151600460068110612e0d57fe5b602002015114612e52576040517f08c379a0000000000000000000000000000000000000000000000000000000008152600401612e4990614de1565b60405180910390fd5b600760ff168360c0015160600151600560068110612e6c57fe5b602002015114612eb1576040517f08c379a0000000000000000000000000000000000000000000000000000000008152600401612ea890614de1565b60405180910390fd5b73__Verifier______________________________6395eb76fc8460c00151600001518560c00151602001518660c00151604001518760c00151606001516040518563ffffffff1660e01b8152600401612f0e9493929190614c66565b60206040518083038186803b158015612f2657600080fd5b505af4158015612f3a573d6000803e3d6000fd5b505050506040513d601f19601f82011682018060405250810190612f5e9190613d74565b612f9d576040517f08c379a0000000000000000000000000000000000000000000000000000000008152600401612f9490614de1565b60405180910390fd5b5b604051806101800160405280846040015160ff16815260200184606001516005811115612fc757fe5b81526020013373ffffffffffffffffffffffffffffffffffffffff168152602001846080015160ff1681526020018460a0015160ff168152602001600115158152602001600115158152602001603960008660600151600581111561302857fe5b600581111561303357fe5b815260200190815260200160002060000160039054906101000a900460ff1660ff168152602001603460009054906101000a900460ff1660ff1681526020018460c001516060015160006006811061308757fe5b60200201518152602001603460009054906101000a900460ff1660ff168152602001603460009054906101000a900460ff1660ff1681525060386000856040015160ff1660ff16815260200190815260200160002060008201518160000160006101000a81548160ff021916908360ff16021790555060208201518160000160016101000a81548160ff0219169083600581111561312157fe5b021790555060408201518160000160026101000a81548173ffffffffffffffffffffffffffffffffffffffff021916908373ffffffffffffffffffffffffffffffffffffffff16021790555060608201518160000160166101000a81548160ff021916908360ff16021790555060808201518160000160176101000a81548160ff021916908360ff16021790555060a08201518160000160186101000a81548160ff02191690831515021790555060c08201518160000160196101000a81548160ff02191690831515021790555060e082015181600001601a6101000a81548160ff021916908360ff16021790555061010082015181600001601b6101000a81548160ff021916908360ff16021790555061012082015181600101556101408201518160020160006101000a81548160ff021916908360ff1602179055506101608201518160020160016101000a81548160ff021916908360ff1602179055509050506036836040015190806001815401808255809150506001900390600052602060002090602091828204019190069091909190916101000a81548160ff021916908360ff16021790555082604001516035846080015160ff16815481106132e657fe5b906000526020600020018460a0015160ff168154811061330257fe5b90600052602060002090602091828204019190066101000a81548160ff021916908360ff1602179055506001603c6000856000015160ff1660ff1681526020019081526020016000206000856040015160ff1660ff16815260200190815260200160002060006101000a81548160ff0219169083151502179055506001603d6000856000015160ff1660ff1681526020019081526020016000206000856040015160ff1660ff16815260200190815260200160002060006101000a81548160ff0219169083151502179055507f0c028d8e3094b70fecb63c902612f5b21d26edfeea4f8ec3f69b411d1d50f20d3384604001518560200151866060015187608001518860a0015160405161341b96959493929190614b24565b60405180910390a16034600181819054906101000a900461ffff168092919060010191906101000a81548161ffff021916908361ffff16021790555050505050565b806033819055506000603460036101000a81548160ff0219169083600381111561348357fe5b021790555060008090505b600560ff168160ff16101561354857603560018160018154018082558091505003906000526020600020505060008090505b600760ff168160ff16101561353a5760358260ff16815481106134df57fe5b90600052602060002001600090806001815401808255809150506001900390600052602060002090602091828204019190069091909190916101000a81548160ff021916908360ff16021790555080806001019150506134c0565b50808060010191505061348e565b5073__ZKChessUtils__________________________63df9f019560396040518263ffffffff1660e01b81526004016135819190614da6565b60006040518083038186803b15801561359957600080fd5b505af41580156135ad573d6000803e3d6000fd5b5050505073__ZKChessUtils__________________________63217be09060376040518263ffffffff1660e01b81526004016135e99190614c07565b60006040518083038186803b15801561360157600080fd5b505af4158015613615573d6000803e3d6000fd5b5050505050565b6040518060400160405280600060ff168152602001600060ff1681525090565b6040518061010001604052806000600581111561365557fe5b8152602001600060ff168152602001600060ff168152602001600060ff168152602001600060ff168152602001600060ff1681526020016000151581526020016000151581525090565b604051806101800160405280600060ff168152602001600060058111156136c257fe5b8152602001600073ffffffffffffffffffffffffffffffffffffffff168152602001600060ff168152602001600060ff168152602001600015158152602001600015158152602001600060ff168152602001600060ff16815260200160008152602001600060ff168152602001600060ff1681525090565b600082601f83011261374b57600080fd5b600261375e613759826152ee565b6152c1565b9150818385604084028201111561377457600080fd5b60005b838110156137a4578161378a88826137ae565b845260208401935060408301925050600181019050613777565b5050505092915050565b600082601f8301126137bf57600080fd5b60026137d26137cd82615310565b6152c1565b915081838560208402820111156137e857600080fd5b60005b8381101561381857816137fe8882613d35565b8452602084019350602083019250506001810190506137eb565b5050505092915050565b600082601f83011261383357600080fd5b600561384661384182615332565b6152c1565b9150818385602084028201111561385c57600080fd5b60005b8381101561388c57816138728882613d35565b84526020840193506020830192505060018101905061385f565b5050505092915050565b600082601f8301126138a757600080fd5b60066138ba6138b582615354565b6152c1565b915081838560208402820111156138d057600080fd5b60005b8381101561390057816138e68882613d35565b8452602084019350602083019250506001810190506138d3565b5050505092915050565b600082601f83011261391b57600080fd5b813561392e61392982615376565b6152c1565b9150818183526020840193506020810190508385602084028201111561395357600080fd5b60005b8381101561398357816139698882613d4a565b845260208401935060208301925050600181019050613956565b5050505092915050565b60008151905061399c81615677565b92915050565b6000813590506139b18161568e565b92915050565b60006101c082840312156139ca57600080fd5b6139d460806152c1565b905060006139e4848285016137ae565b60008301525060406139f88482850161373a565b60208301525060c0613a0c848285016137ae565b604083015250610100613a2184828501613896565b60608301525092915050565b60006102408284031215613a4057600080fd5b613a4a60a06152c1565b90506000613a5a84828501613d4a565b6000830152506020613a6e84828501613d20565b6020830152506040613a8284828501613d4a565b6040830152506060613a9684828501613d4a565b6060830152506080613aaa848285016139b7565b60808301525092915050565b60006101a08284031215613ac957600080fd5b613ad360806152c1565b90506000613ae3848285016137ae565b6000830152506040613af78482850161373a565b60208301525060c0613b0b848285016137ae565b604083015250610100613b2084828501613822565b60608301525092915050565b60006102408284031215613b3f57600080fd5b613b4960c06152c1565b90506000613b5984828501613d4a565b6000830152506020613b6d84828501613d20565b6020830152506040613b8184828501613d4a565b604083015250606082013567ffffffffffffffff811115613ba157600080fd5b613bad8482850161390a565b606083015250608082013567ffffffffffffffff811115613bcd57600080fd5b613bd98482850161390a565b60808301525060a0613bed84828501613ab6565b60a08301525092915050565b60006101c08284031215613c0c57600080fd5b613c1660806152c1565b90506000613c26848285016137ae565b6000830152506040613c3a8482850161373a565b60208301525060c0613c4e848285016137ae565b604083015250610100613c6384828501613896565b60608301525092915050565b60006102808284031215613c8257600080fd5b613c8c60e06152c1565b90506000613c9c84828501613d4a565b6000830152506020613cb084828501613d20565b6020830152506040613cc484828501613d4a565b6040830152506060613cd8848285016139a2565b6060830152506080613cec84828501613d4a565b60808301525060a0613d0084828501613d4a565b60a08301525060c0613d1484828501613bf9565b60c08301525092915050565b600081359050613d2f8161569e565b92915050565b600081359050613d44816156b5565b92915050565b600081359050613d59816156cc565b92915050565b600081519050613d6e816156cc565b92915050565b600060208284031215613d8657600080fd5b6000613d948482850161398d565b91505092915050565b600060208284031215613daf57600080fd5b6000613dbd848285016139a2565b91505092915050565b60006102408284031215613dd957600080fd5b6000613de784828501613a2d565b91505092915050565b600060208284031215613e0257600080fd5b600082013567ffffffffffffffff811115613e1c57600080fd5b613e2884828501613b2c565b91505092915050565b60006102808284031215613e4457600080fd5b6000613e5284828501613c6f565b91505092915050565b600060208284031215613e6d57600080fd5b6000613e7b84828501613d35565b91505092915050565b60008060408385031215613e9757600080fd5b6000613ea585828601613d35565b9250506020613eb685828601613d35565b9150509250929050565b600060208284031215613ed257600080fd5b6000613ee084828501613d4a565b91505092915050565b600060208284031215613efb57600080fd5b6000613f0984828501613d5f565b91505092915050565b60008060408385031215613f2557600080fd5b6000613f3385828601613d4a565b9250506020613f4485828601613d20565b9150509250929050565b60008060408385031215613f6157600080fd5b6000613f6f85828601613d4a565b9250506020613f8085828601613d4a565b9150509250929050565b6000613f968383614285565b60408301905092915050565b6000613fae838361489d565b60408301905092915050565b6000613fc683836148cc565b6101008301905092915050565b6000613fdf838361496e565b6101808301905092915050565b6000613ff88383614aaf565b60208301905092915050565b60006140108383614afa565b60208301905092915050565b614025816155f1565b82525050565b61403481615568565b82525050565b61404381615568565b82525050565b61405281615568565b82525050565b61406181615406565b61406b81846154c6565b92506140768261539e565b8060005b838110156140a757815161408e8782613f8a565b96506140998361545e565b92505060018101905061407a565b505050505050565b6140b881615406565b6140c281846154d1565b92506140cd8261539e565b8060005b838110156140fe5781516140e58782613f8a565b96506140f08361545e565b9250506001810190506140d1565b505050505050565b8082525050565b600061411882615411565b61412281856154dc565b935061412d836153a8565b8060005b8381101561415e5781516141458882613fa2565b97506141508361546b565b925050600181019050614131565b5085935050505092915050565b8082525050565b600061417d8261541c565b61418781856154ed565b9350614192836153b8565b8060005b838110156141c35781516141aa8882613fba565b97506141b583615478565b925050600181019050614196565b5085935050505092915050565b60006141db82615427565b6141e581856154fe565b93506141f0836153c8565b8060005b838110156142215781516142088882613fd3565b975061421383615485565b9250506001810190506141f4565b5085935050505092915050565b61423781615432565b614241818461550f565b925061424c826153d8565b8060005b8381101561427d5781516142648782613fec565b965061426f83615492565b925050600181019050614250565b505050505050565b61428e81615432565b614298818461551a565b92506142a3826153d8565b8060005b838110156142d45781516142bb8782613fec565b96506142c683615492565b9250506001810190506142a7565b505050505050565b6142e58161543d565b6142ef8184615525565b92506142fa826153e2565b8060005b8381101561432b5781516143128782613fec565b965061431d8361549f565b9250506001810190506142fe565b505050505050565b61433c81615448565b6143468184615530565b9250614351826153ec565b8060005b838110156143825781516143698782613fec565b9650614374836154ac565b925050600181019050614355565b505050505050565b61439381615448565b61439d818461553b565b92506143a8826153ec565b8060005b838110156143d95781516143c08782613fec565b96506143cb836154ac565b9250506001810190506143ac565b505050505050565b60006143ec82615453565b6143f68185615546565b9350614401836153f6565b8060005b838110156144325781516144198882614004565b9750614424836154b9565b925050600181019050614405565b5085935050505092915050565b8082525050565b61444f8161557a565b82525050565b61445e8161557a565b82525050565b61446d81615603565b82525050565b61447c81615603565b82525050565b61448b81615615565b82525050565b61449a81615615565b82525050565b8082525050565b8082525050565b8082525050565b60006144c2600f83615557565b91507f6e6f7420656e6f756768206d616e6100000000000000000000000000000000006000830152602082019050919050565b6000614502600783615557565b91507f626164205a4b50000000000000000000000000000000000000000000000000006000830152602082019050919050565b6000614542601583615557565b91507f63616e2774206a6f696e2067616d6520747769636500000000000000000000006000830152602082019050919050565b6000614582600b83615557565b91507f6d6f7665206661696c65640000000000000000000000000000000000000000006000830152602082019050919050565b60006145c2601783615557565b91507f706965636520494420616c726561647920696e207573650000000000000000006000830152602082019050919050565b6000614602600d83615557565b91507f6e6f7420696e20626f756e6473000000000000000000000000000000000000006000830152602082019050919050565b6000614642600e83615557565b91507f696e76616c69642061747461636b0000000000000000000000000000000000006000830152602082019050919050565b6000614682601283615557565b91507f63616e27742073756d6d6f6e20746865726500000000000000000000000000006000830152602082019050919050565b60006146c2601483615557565b91507f47616d6520616c726561647920737461727465640000000000000000000000006000830152602082019050919050565b6101c08201600082015161470c6000850182614285565b50602082015161471f60408501826140af565b50604082015161473260c0850182614285565b50606082015161474661010085018261438a565b50505050565b610240820160008201516147636000850182614afa565b5060208201516147766020850182614a82565b5060408201516147896040850182614afa565b50606082015161479c6060850182614afa565b5060808201516147af60808501826146f5565b50505050565b6101a0820160008201516147cc6000850182614285565b5060208201516147df60408501826140af565b5060408201516147f260c0850182614285565b5060608201516148066101008501826142dc565b50505050565b6000610240830160008301516148256000860182614afa565b5060208301516148386020860182614a82565b50604083015161484b6040860182614afa565b506060830151848203606086015261486382826143e1565b9150506080830151848203608086015261487d82826143e1565b91505060a083015161489260a08601826147b5565b508091505092915050565b6040820160008201516148b36000850182614acd565b5060208201516148c66020850182614acd565b50505050565b610100820160008201516148e36000850182614482565b5060208201516148f66020850182614acd565b5060408201516149096040850182614acd565b50606082015161491c6060850182614acd565b50608082015161492f6080850182614acd565b5060a082015161494260a0850182614acd565b5060c082015161495560c0850182614446565b5060e082015161496860e0850182614446565b50505050565b610180820160008201516149856000850182614acd565b5060208201516149986020850182614482565b5060408201516149ab604085018261402b565b5060608201516149be6060850182614acd565b5060808201516149d16080850182614acd565b5060a08201516149e460a0850182614446565b5060c08201516149f760c0850182614446565b5060e0820151614a0a60e0850182614acd565b50610100820151614a1f610100850182614acd565b50610120820151614a34610120850182614a91565b50610140820151614a49610140850182614acd565b50610160820151614a5e610160850182614acd565b50505050565b614a6d816155ac565b82525050565b614a7c816155ac565b82525050565b614a8b816155ac565b82525050565b614a9a816155da565b82525050565b614aa9816155da565b82525050565b614ab8816155da565b82525050565b614ac78161564b565b82525050565b614ad6816155e4565b82525050565b614ae5816155e4565b82525050565b614af4816155e4565b82525050565b614b03816155e4565b82525050565b6000602082019050614b1e600083018461403a565b92915050565b600060c082019050614b39600083018961401c565b614b466020830188614adc565b614b536040830187614a64565b614b606060830186614491565b614b6d6080830185614adc565b614b7a60a0830184614adc565b979650505050505050565b6000606082019050614b9a600083018661401c565b614ba76020830185614adc565b614bb46040830184614abe565b949350505050565b6000604082019050614bd1600083018561403a565b614bde602083018461403a565b9392505050565b60006020820190508181036000830152614bff818461410d565b905092915050565b6000602082019050614c1c600083018461416b565b92915050565b60006020820190508181036000830152614c3c8184614172565b905092915050565b60006020820190508181036000830152614c5e81846141d0565b905092915050565b60006101c082019050614c7c600083018761422e565b614c896040830186614058565b614c9660c083018561422e565b614ca4610100830184614333565b95945050505050565b6000608082019050614cc2600083018761443f565b614ccf60208301866144ae565b614cdc6040830185614049565b614ce96060830184614049565b95945050505050565b6000602082019050614d076000830184614455565b92915050565b6000602082019050614d226000830184614464565b92915050565b600061010082019050614d3e600083018b614491565b614d4b602083018a614adc565b614d586040830189614adc565b614d656060830188614adc565b614d726080830187614adc565b614d7f60a0830186614adc565b614d8c60c0830185614455565b614d9960e0830184614455565b9998505050505050505050565b6000602082019050614dbb60008301846144a0565b92915050565b60006020820190508181036000830152614dda816144b5565b9050919050565b60006020820190508181036000830152614dfa816144f5565b9050919050565b60006020820190508181036000830152614e1a81614535565b9050919050565b60006020820190508181036000830152614e3a81614575565b9050919050565b60006020820190508181036000830152614e5a816145b5565b9050919050565b60006020820190508181036000830152614e7a816145f5565b9050919050565b60006020820190508181036000830152614e9a81614635565b9050919050565b60006020820190508181036000830152614eba81614675565b9050919050565b60006020820190508181036000830152614eda816146b5565b9050919050565b60006102c082019050614ef7600083018861474c565b614f056102408301876144ae565b614f13610260830186614106565b614f216102808301856144a0565b614f2f6102a08301846144a7565b9695505050505050565b60006102e082019050614f4f600083018961474c565b614f5d6102408301886144ae565b614f6b6102608301876144a0565b614f796102808301866144a7565b614f876102a0830185614aeb565b614f956102c0830184614aeb565b979650505050505050565b6000610100820190508181036000830152614fbb818b61480c565b9050614fca602083018a6144ae565b614fd760408301896144a0565b614fe460608301886144a7565b614ff160808301876144a7565b614ffe60a0830186614106565b61500b60c0830185614aeb565b61501860e0830184614aeb565b9998505050505050505050565b600060208201905061503a6000830184614a64565b92915050565b600060a0820190506150556000830188614a64565b6150626020830187614adc565b61506f6040830186614adc565b61507c6060830185614adc565b6150896080830184614adc565b9695505050505050565b600060c0820190506150a86000830189614a64565b6150b56020830188614adc565b6150c26040830187614adc565b6150cf6060830186614adc565b6150dc6080830185614adc565b6150e960a0830184614adc565b979650505050505050565b60006020820190506151096000830184614aa0565b92915050565b60006020820190506151246000830184614adc565b92915050565b600061018082019050615140600083018f614adc565b61514d602083018e614491565b61515a604083018d61403a565b615167606083018c614adc565b615174608083018b614adc565b61518160a083018a614455565b61518e60c0830189614455565b61519b60e0830188614adc565b6151a9610100830187614adc565b6151b7610120830186614aa0565b6151c5610140830185614adc565b6151d3610160830184614adc565b9d9c50505050505050505050505050565b60006040820190506151f96000830185614adc565b6152066020830184614adc565b9392505050565b600060e082019050615222600083018a614aeb565b61522f6020830189614aeb565b61523c6040830188614a73565b6152496060830187614a73565b6152566080830186614049565b61526360a0830185614049565b61527060c0830184614473565b98975050505050505050565b60006080820190506152916000830187614aeb565b61529e6020830186614aeb565b6152ab6040830185614aeb565b6152b86060830184614aeb565b95945050505050565b6000604051905081810181811067ffffffffffffffff821117156152e457600080fd5b8060405250919050565b600067ffffffffffffffff82111561530557600080fd5b602082029050919050565b600067ffffffffffffffff82111561532757600080fd5b602082029050919050565b600067ffffffffffffffff82111561534957600080fd5b602082029050919050565b600067ffffffffffffffff82111561536b57600080fd5b602082029050919050565b600067ffffffffffffffff82111561538d57600080fd5b602082029050602081019050919050565b6000819050919050565b6000819050602082019050919050565b6000819050602082019050919050565b6000819050602082019050919050565b6000819050919050565b6000819050919050565b6000819050919050565b6000819050602082019050919050565b600060029050919050565b600081519050919050565b600081519050919050565b600081519050919050565b600060029050919050565b600060059050919050565b600060069050919050565b600081519050919050565b6000602082019050919050565b6000602082019050919050565b6000602082019050919050565b6000602082019050919050565b6000602082019050919050565b6000602082019050919050565b6000602082019050919050565b6000602082019050919050565b600081905092915050565b600081905092915050565b600082825260208201905092915050565b600082825260208201905092915050565b600082825260208201905092915050565b600081905092915050565b600081905092915050565b600081905092915050565b600081905092915050565b600081905092915050565b600082825260208201905092915050565b600082825260208201905092915050565b6000615573826155ba565b9050919050565b60008115159050919050565b60008190506155948261565d565b919050565b60008190506155a78261566a565b919050565b600061ffff82169050919050565b600073ffffffffffffffffffffffffffffffffffffffff82169050919050565b6000819050919050565b600060ff82169050919050565b60006155fc82615627565b9050919050565b600061560e82615586565b9050919050565b600061562082615599565b9050919050565b600061563282615639565b9050919050565b6000615644826155ba565b9050919050565b6000615656826155e4565b9050919050565b6004811061566757fe5b50565b6006811061567457fe5b50565b6156808161557a565b811461568b57600080fd5b50565b6006811061569b57600080fd5b50565b6156a7816155ac565b81146156b257600080fd5b50565b6156be816155da565b81146156c957600080fd5b50565b6156d5816155e4565b81146156e057600080fd5b5056fea264697066735822122075b33dc4b269e4a93f0bde169915a4950c712e0744df63b27a532be882e3c7b364736f6c63430006070033",
  "immutableReferences": {},
  "source": "pragma solidity ^0.6.7;\npragma experimental ABIEncoderV2;\n\nimport \"@openzeppelin/contracts-ethereum-package/contracts/Initializable.sol\";\nimport \"./ZKChessTypes.sol\";\nimport \"./ZKChessUtils.sol\";\nimport \"./Verifier.sol\";\n\ncontract ZKChessGame is Initializable {\n    uint8 public constant NROWS = 5;\n    uint8 public constant NCOLS = 7;\n\n    uint256 public gameId;\n\n    uint8 public turnNumber;\n    uint16 public sequenceNumber;\n    GameState public gameState;\n    uint8[][] public boardPieces; // board[row][col]\n\n    uint8[] public pieceIds;\n    Objective[] public objectives;\n    mapping(uint8 => Piece) public pieces;\n\n    mapping(PieceType => PieceDefaultStats) public defaultStats;\n\n    address public player1;\n    address public player2;\n\n    uint8 public player1Mana;\n    uint8 public player2Mana;\n\n    // mapping from turn # -> piece # -> has acted\n    mapping(uint8 => mapping(uint8 => bool)) public hasMoved;\n    mapping(uint8 => mapping(uint8 => bool)) public hasAttacked;\n\n    function initialize(uint256 _gameId) public {\n        gameId = _gameId;\n        gameState = GameState.WAITING_FOR_PLAYERS;\n\n        for (uint8 i = 0; i < NROWS; i++) {\n            boardPieces.push();\n            for (uint8 j = 0; j < NCOLS; j++) {\n                boardPieces[i].push(0);\n            }\n        }\n\n        // initialize pieces\n        ZKChessUtils.initializeDefaults(defaultStats);\n        ZKChessUtils.initializeObjectives(objectives);\n    }\n\n    //////////////\n    /// EVENTS ///\n    //////////////\n\n    event GameStart(address p1, address p2);\n    event DidSummon(\n        address player,\n        uint8 pieceId,\n        uint16 sequenceNumber,\n        PieceType pieceType,\n        uint8 atRow,\n        uint8 atCol\n    );\n    event DidMove(\n        uint16 sequenceNumber,\n        uint8 pieceId,\n        uint8 fromRow,\n        uint8 fromCol,\n        uint8 toRow,\n        uint8 toCol\n    );\n    event DidAttack(\n        uint16 sequenceNumber,\n        uint8 attacker,\n        uint8 attacked,\n        uint8 attackerHp,\n        uint8 attackedHp\n    );\n    event DidEndTurn(address player, uint8 turnNumber, uint16 sequenceNumber);\n    event GameFinished();\n\n    ///////////////\n    /// GETTERS ///\n    ///////////////\n\n    function getPieces() public view returns (Piece[] memory ret) {\n        ret = new Piece[](pieceIds.length);\n        for (uint8 i = 0; i < pieceIds.length; i++) {\n            ret[i] = pieces[pieceIds[i]];\n        }\n        return ret;\n    }\n\n    function getDefaults()\n        public\n        view\n        returns (PieceDefaultStats[] memory ret)\n    {\n        ret = new PieceDefaultStats[](6);\n        // TODO hardcode bad >:(\n        for (uint8 i = 0; i < 6; i++) {\n            ret[i] = defaultStats[PieceType(i)];\n        }\n        return ret;\n    }\n\n    function getObjectives() public view returns (Objective[] memory ret) {\n        ret = new Objective[](objectives.length);\n        for (uint8 i = 0; i < objectives.length; i++) {\n            ret[i] = objectives[i];\n        }\n        return ret;\n    }\n\n    //////////////\n    /// Helper ///\n    //////////////\n\n    function checkAction(uint8 _turnNumber, uint16 _sequenceNumber)\n        public\n        view\n        returns (bool)\n    {\n        return\n            ZKChessUtils.checkAction(\n                _turnNumber,\n                turnNumber,\n                _sequenceNumber,\n                sequenceNumber,\n                player1,\n                player2,\n                gameState\n            );\n    }\n\n    function gameShouldBeCompleted() public view returns (bool) {\n        return\n            ZKChessUtils.gameShouldBeCompleted(\n                pieceIds,\n                pieces,\n                player1,\n                player2\n            );\n    }\n\n    //////////////////////\n    /// Game Mechanics ///\n    //////////////////////\n\n    function joinGame() public {\n        require(\n            gameState == GameState.WAITING_FOR_PLAYERS,\n            \"Game already started\"\n        );\n        if (player1 == address(0)) {\n            // first player to join game\n            player1 = msg.sender;\n            return;\n        }\n        // another player has joined. game is ready to start\n\n        require(msg.sender != player1, \"can't join game twice\");\n        // randomize player order\n        if (block.timestamp % 2 == 0) {\n            player2 = msg.sender;\n        } else {\n            player2 = player1;\n            player1 = msg.sender;\n        }\n\n        // set pieces\n        pieces[1] = Piece({\n            id: 1,\n            pieceType: PieceType.MOTHERSHIP_00,\n            owner: player1,\n            row: 2,\n            col: 0,\n            alive: true,\n            commitment: 0,\n            initialized: true,\n            hp: defaultStats[PieceType.MOTHERSHIP_00].hp,\n            initializedOnTurn: 0,\n            lastMove: 0,\n            lastAttack: 0\n        });\n        pieceIds.push(1);\n        boardPieces[2][0] = 1;\n        pieces[2] = Piece({\n            id: 2,\n            pieceType: PieceType.MOTHERSHIP_00,\n            owner: player2,\n            row: 2,\n            col: 6,\n            alive: true,\n            commitment: 0,\n            initialized: true,\n            hp: defaultStats[PieceType.MOTHERSHIP_00].hp,\n            initializedOnTurn: 0,\n            lastMove: 0,\n            lastAttack: 0\n        });\n        pieceIds.push(2);\n        boardPieces[2][6] = 2;\n\n        gameState = GameState.P1_TO_MOVE;\n        turnNumber = 1;\n        player1Mana = turnNumber;\n        emit GameStart(player1, player2);\n    }\n\n    function doSummon(Summon memory summon) public {\n        checkAction(summon.turnNumber, summon.sequenceNumber);\n        require(!pieces[summon.pieceId].initialized, \"piece ID already in use\");\n\n        // PORT tile\n        uint8 homeRow;\n        uint8 homeCol;\n        if (msg.sender == player1) {\n            homeRow = pieces[1].row;\n            homeCol = pieces[1].col;\n        } else {\n            homeRow = pieces[2].row;\n            homeCol = pieces[2].col;\n        }\n\n        // MANA checks\n        if (msg.sender == player1) {\n            require(\n                player1Mana >= defaultStats[summon.pieceType].cost,\n                \"not enough mana\"\n            );\n            player1Mana -= defaultStats[summon.pieceType].cost;\n        } else {\n            require(\n                player2Mana >= defaultStats[summon.pieceType].cost,\n                \"not enough mana\"\n            );\n            player2Mana -= defaultStats[summon.pieceType].cost;\n        }\n\n        // validity checks\n        if (!defaultStats[summon.pieceType].isZk) {\n            require(summon.row < NROWS && summon.col < NCOLS, \"not in bounds\");\n            // if visible piece, can't summon on existing piece\n            uint8 pieceIdAtSummonTile = boardPieces[summon.row][summon.col];\n            Piece storage pieceAtSummonTile = pieces[pieceIdAtSummonTile];\n            require(!pieceAtSummonTile.alive, \"can't summon there\");\n            // must summon adjacent to the PORT tile\n            require(\n                ZKChessUtils.taxiDist(\n                    summon.row,\n                    summon.col,\n                    homeRow,\n                    homeCol\n                ) == 1,\n                \"can't summon there\"\n            );\n        } else {\n            require(\n                summon.zkp.input[1] == homeRow &&\n                    summon.zkp.input[2] == homeCol,\n                \"bad ZKP\"\n            );\n            require(summon.zkp.input[3] == 1, \"bad ZKP\");\n            require(summon.zkp.input[4] == NROWS, \"bad ZKP\");\n            require(summon.zkp.input[5] == NCOLS, \"bad ZKP\");\n            require(\n                Verifier.verifyDist1Proof(\n                    summon.zkp.a,\n                    summon.zkp.b,\n                    summon.zkp.c,\n                    summon.zkp.input\n                ),\n                \"bad ZKP\"\n            );\n        }\n\n        // create piece\n        pieces[summon.pieceId] = Piece({\n            id: summon.pieceId,\n            pieceType: summon.pieceType,\n            owner: msg.sender,\n            row: summon.row,\n            col: summon.col,\n            alive: true,\n            commitment: summon.zkp.input[0],\n            initialized: true,\n            hp: defaultStats[summon.pieceType].hp,\n            initializedOnTurn: turnNumber,\n            lastMove: turnNumber,\n            lastAttack: turnNumber\n        });\n        pieceIds.push(summon.pieceId);\n        boardPieces[summon.row][summon.col] = summon.pieceId;\n        // if piece has just been made, can't use it yet\n        // in the future this should be tracked in its own field\n        hasMoved[summon.turnNumber][summon.pieceId] = true;\n        hasAttacked[summon.turnNumber][summon.pieceId] = true;\n        emit DidSummon(\n            msg.sender,\n            summon.pieceId,\n            summon.sequenceNumber,\n            summon.pieceType,\n            summon.row,\n            summon.col\n        );\n        sequenceNumber++;\n    }\n\n    function doMove(Move memory move) public {\n        checkAction(move.turnNumber, move.sequenceNumber);\n        Piece storage piece = pieces[move.pieceId];\n        uint8 originRow = piece.row;\n        uint8 originCol = piece.col;\n\n        require(\n            ZKChessUtils.checkMove(\n                move,\n                pieces,\n                defaultStats,\n                hasMoved,\n                hasAttacked,\n                boardPieces,\n                NROWS,\n                NCOLS\n            ),\n            \"move failed\"\n        );\n\n        if (defaultStats[piece.pieceType].isZk) {\n            piece.commitment = move.zkp.input[1];\n        } else {\n            uint8[] memory moveToRow = move.moveToRow;\n            uint8[] memory moveToCol = move.moveToCol;\n            uint8 toRow = moveToRow[moveToRow.length - 1];\n            uint8 toCol = moveToCol[moveToCol.length - 1];\n            boardPieces[piece.row][piece.col] = 0;\n            boardPieces[toRow][toCol] = piece.id;\n            piece.row = toRow;\n            piece.col = toCol;\n        }\n        hasMoved[move.turnNumber][piece.id] = true;\n        piece.lastMove = move.turnNumber;\n        emit DidMove(\n            move.sequenceNumber,\n            move.pieceId,\n            originRow,\n            originCol,\n            piece.row,\n            piece.col\n        );\n        sequenceNumber++;\n    }\n\n    function doAttack(Attack memory attack) public {\n        checkAction(attack.turnNumber, attack.sequenceNumber);\n        require(\n            ZKChessUtils.checkAttack(\n                attack,\n                pieces,\n                defaultStats,\n                hasAttacked,\n                NROWS,\n                NCOLS\n            ),\n            \"invalid attack\"\n        );\n\n        ZKChessUtils.executeAttack(\n            attack,\n            pieces,\n            boardPieces,\n            defaultStats,\n            hasAttacked\n        );\n        emit DidAttack(\n            attack.sequenceNumber,\n            attack.pieceId,\n            attack.attackedId,\n            pieces[attack.pieceId].hp,\n            pieces[attack.attackedId].hp\n        );\n        sequenceNumber++;\n    }\n\n    function endTurn(uint8 _turnNumber, uint8 _sequenceNumber) public {\n        checkAction(_turnNumber, _sequenceNumber);\n        if (msg.sender == player1) {\n            // change to p2's turn\n            player1Mana = 0;\n            player2Mana = turnNumber;\n            if (player2Mana > 8) {\n                player2Mana = 8;\n            }\n            for (uint8 i = 0; i < objectives.length; i++) {\n                uint8 row = objectives[i].row;\n                uint8 col = objectives[i].col;\n                Piece storage occupyingPiece = pieces[boardPieces[row][col]];\n                if (occupyingPiece.alive && occupyingPiece.owner == player2) {\n                    player2Mana++;\n                }\n            }\n            gameState = GameState.P2_TO_MOVE;\n        } else {\n            // change to p1's turn\n            turnNumber++;\n            player2Mana = 0;\n            player1Mana = turnNumber;\n            if (player1Mana > 8) {\n                player1Mana = 8;\n            }\n            for (uint8 i = 0; i < objectives.length; i++) {\n                uint8 row = objectives[i].row;\n                uint8 col = objectives[i].col;\n                Piece storage occupyingPiece = pieces[boardPieces[row][col]];\n                if (occupyingPiece.alive && occupyingPiece.owner == player1) {\n                    player1Mana++;\n                }\n            }\n            gameState = GameState.P1_TO_MOVE;\n        }\n        emit DidEndTurn(msg.sender, _turnNumber, _sequenceNumber);\n        sequenceNumber++;\n\n        if (gameShouldBeCompleted()) {\n            gameState = GameState.COMPLETE;\n            emit GameFinished();\n        }\n    }\n}\n",
  "sourcePath": "/Users/alan/Sites/zk-chess/eth/contracts/ZKChessGame.sol",
  "compiler": {
    "name": "solc",
    "version": "0.6.7+commit.b8d736ae.Emscripten.clang"
  },
  "schemaVersion": "3.2.0",
  "updatedAt": "2020-11-17T03:00:24.167Z",
  "networkType": "ethereum",
  "devdoc": {
    "methods": {}
  },
  "userdoc": {
    "methods": {
      "checkAction(uint8,uint16)": {
        "notice": "/////////// Helper /// ///////////"
      },
      "getPieces()": {
        "notice": "//////////// GETTERS /// ////////////"
      },
      "joinGame()": {
        "notice": "/////////////////// Game Mechanics /// ///////////////////"
      }
    }
  }
}