{
  "contractName": "ZKChessGameFactory",
  "abi": [
    {
      "inputs": [
        {
          "internalType": "address",
          "name": "_implementationContract",
          "type": "address"
        }
      ],
      "stateMutability": "nonpayable",
      "type": "constructor"
    },
    {
      "anonymous": false,
      "inputs": [
        {
          "indexed": false,
          "internalType": "uint256",
          "name": "gameId",
          "type": "uint256"
        }
      ],
      "name": "CreatedGame",
      "type": "event"
    },
    {
      "inputs": [
        {
          "internalType": "uint256",
          "name": "",
          "type": "uint256"
        }
      ],
      "name": "gameIdToAddr",
      "outputs": [
        {
          "internalType": "address",
          "name": "",
          "type": "address"
        }
      ],
      "stateMutability": "view",
      "type": "function",
      "constant": true
    },
    {
      "inputs": [
        {
          "internalType": "uint256",
          "name": "",
          "type": "uint256"
        }
      ],
      "name": "gameIds",
      "outputs": [
        {
          "internalType": "uint256",
          "name": "",
          "type": "uint256"
        }
      ],
      "stateMutability": "view",
      "type": "function",
      "constant": true
    },
    {
      "inputs": [],
      "name": "implementationContract",
      "outputs": [
        {
          "internalType": "address",
          "name": "",
          "type": "address"
        }
      ],
      "stateMutability": "view",
      "type": "function",
      "constant": true
    },
    {
      "inputs": [],
      "name": "getAllGameIds",
      "outputs": [
        {
          "internalType": "uint256[]",
          "name": "",
          "type": "uint256[]"
        }
      ],
      "stateMutability": "view",
      "type": "function",
      "constant": true
    },
    {
      "inputs": [
        {
          "internalType": "uint256",
          "name": "gameId",
          "type": "uint256"
        }
      ],
      "name": "createGame",
      "outputs": [
        {
          "internalType": "address",
          "name": "",
          "type": "address"
        }
      ],
      "stateMutability": "nonpayable",
      "type": "function"
    }
  ],
  "bytecode": "0x608060405234801561001057600080fd5b5060405161081b38038061081b8339818101604052810190610032919061008d565b806000806101000a81548173ffffffffffffffffffffffffffffffffffffffff021916908373ffffffffffffffffffffffffffffffffffffffff160217905550506100ff565b600081519050610087816100e8565b92915050565b60006020828403121561009f57600080fd5b60006100ad84828501610078565b91505092915050565b60006100c1826100c8565b9050919050565b600073ffffffffffffffffffffffffffffffffffffffff82169050919050565b6100f1816100b6565b81146100fc57600080fd5b50565b61070d8061010e6000396000f3fe608060405234801561001057600080fd5b50600436106100575760003560e01c806348e837b91461005c5780636999700c1461008c5780636b3d2cbb146100bc57806399e7d056146100da578063d82c13f0146100f8575b600080fd5b61007660048036038101906100719190610472565b610128565b604051610083919061058d565b60405180910390f35b6100a660048036038101906100a19190610472565b610322565b6040516100b3919061058d565b60405180910390f35b6100c4610355565b6040516100d191906105a8565b60405180910390f35b6100e26103ad565b6040516100ef919061058d565b60405180910390f35b610112600480360381019061010d9190610472565b6103d2565b60405161011f91906105ea565b60405180910390f35b60008073ffffffffffffffffffffffffffffffffffffffff166001600084815260200190815260200160002060009054906101000a900473ffffffffffffffffffffffffffffffffffffffff1673ffffffffffffffffffffffffffffffffffffffff16146101cb576040517f08c379a00000000000000000000000000000000000000000000000000000000081526004016101c2906105ca565b60405180910390fd5b60006101f76000809054906101000a900473ffffffffffffffffffffffffffffffffffffffff166103f3565b90508073ffffffffffffffffffffffffffffffffffffffff1663279646668460006040518363ffffffff1660e01b8152600401610235929190610605565b600060405180830381600087803b15801561024f57600080fd5b505af1158015610263573d6000803e3d6000fd5b505050506002839080600181540180825580915050600190039060005260206000200160009091909190915055806001600085815260200190815260200160002060006101000a81548173ffffffffffffffffffffffffffffffffffffffff021916908373ffffffffffffffffffffffffffffffffffffffff1602179055507f99146aff770fef32e56c26f3d6a16a798454c52bcf1c392f0223a2aaa350e6df8360405161031191906105ea565b60405180910390a180915050919050565b60016020528060005260406000206000915054906101000a900473ffffffffffffffffffffffffffffffffffffffff1681565b606060028054806020026020016040519081016040528092919081815260200182805480156103a357602002820191906000526020600020905b81548152602001906001019080831161038f575b5050505050905090565b6000809054906101000a900473ffffffffffffffffffffffffffffffffffffffff1681565b600281815481106103df57fe5b906000526020600020016000915090505481565b6000808260601b90506040517f3d602d80600a3d3981f3363d3d373d3d3d363d7300000000000000000000000081528160148201527f5af43d82803e903d91602b57fd5bf3000000000000000000000000000000000060288201526037816000f092505050919050565b60008135905061046c816106c0565b92915050565b60006020828403121561048457600080fd5b60006104928482850161045d565b91505092915050565b60006104a7838361056f565b60208301905092915050565b6104bc81610678565b82525050565b60006104cd8261063e565b6104d78185610656565b93506104e28361062e565b8060005b838110156105135781516104fa888261049b565b975061050583610649565b9250506001810190506104e6565b5085935050505092915050565b6105298161068a565b82525050565b600061053c602083610667565b91507f67616d652077697468207468617420494420616c7265616479206578697374736000830152602082019050919050565b610578816106b6565b82525050565b610587816106b6565b82525050565b60006020820190506105a260008301846104b3565b92915050565b600060208201905081810360008301526105c281846104c2565b905092915050565b600060208201905081810360008301526105e38161052f565b9050919050565b60006020820190506105ff600083018461057e565b92915050565b600060408201905061061a600083018561057e565b6106276020830184610520565b9392505050565b6000819050602082019050919050565b600081519050919050565b6000602082019050919050565b600082825260208201905092915050565b600082825260208201905092915050565b600061068382610696565b9050919050565b60008115159050919050565b600073ffffffffffffffffffffffffffffffffffffffff82169050919050565b6000819050919050565b6106c9816106b6565b81146106d457600080fd5b5056fea264697066735822122024a4c00a1c55fd647acf699ab570275ec63771b55a6ff7798cb395f11e4916e064736f6c63430006070033",
  "immutableReferences": {},
  "source": "pragma solidity ^0.6.7;\npragma experimental ABIEncoderV2;\n\nimport \"./ZKChessGame.sol\";\nimport \"./CloneFactory.sol\";\n\ncontract ZKChessGameFactory is CloneFactory {\n    address public implementationContract;\n\n    mapping(uint256 => address) public gameIdToAddr;\n    uint256[] public gameIds;\n\n    event CreatedGame(uint256 gameId);\n\n    constructor(address _implementationContract) public {\n        implementationContract = _implementationContract;\n    }\n\n    function getAllGameIds() public view returns (uint256[] memory) {\n        return gameIds;\n    }\n\n    function createGame(uint256 gameId) public returns (address) {\n        require(\n            gameIdToAddr[gameId] == address(0),\n            \"game with that ID already exists\"\n        );\n        address proxy = createClone(implementationContract);\n        ZKChessGame(proxy).initialize(gameId, false);\n        gameIds.push(gameId);\n        gameIdToAddr[gameId] = proxy;\n        emit CreatedGame(gameId);\n        return proxy;\n    }\n}\n",
  "sourcePath": "/Users/bgu/zk-chess/eth/contracts/ZKChessGameFactory.sol",
  "compiler": {
    "name": "solc",
    "version": "0.6.7+commit.b8d736ae.Emscripten.clang"
  },
  "schemaVersion": "3.3.1",
  "updatedAt": "2020-11-06T20:05:04.219Z",
  "networkType": "ethereum",
  "devdoc": {
    "methods": {}
  },
  "userdoc": {
    "methods": {}
  }
}