{
  "contractName": "ZKChessGame",
  "abi": [
    {
      "anonymous": false,
      "inputs": [
        {
          "indexed": false,
          "internalType": "address",
          "name": "player",
          "type": "address"
        }
      ],
      "name": "ActionMade",
      "type": "event"
    },
    {
      "anonymous": false,
      "inputs": [],
      "name": "GameFinished",
      "type": "event"
    },
    {
      "anonymous": false,
      "inputs": [
        {
          "indexed": false,
          "internalType": "address",
          "name": "p1",
          "type": "address"
        },
        {
          "indexed": false,
          "internalType": "address",
          "name": "p2",
          "type": "address"
        }
      ],
      "name": "GameStart",
      "type": "event"
    },
    {
      "anonymous": false,
      "inputs": [
        {
          "indexed": false,
          "internalType": "uint256",
          "name": "pfsAccepted",
          "type": "uint256"
        }
      ],
      "name": "ProofVerified",
      "type": "event"
    },
    {
      "inputs": [],
      "name": "BOARD_SIZE",
      "outputs": [
        {
          "internalType": "uint256",
          "name": "",
          "type": "uint256"
        }
      ],
      "stateMutability": "view",
      "type": "function",
      "constant": true
    },
    {
      "inputs": [],
      "name": "DISABLE_ZK_CHECK",
      "outputs": [
        {
          "internalType": "bool",
          "name": "",
          "type": "bool"
        }
      ],
      "stateMutability": "view",
      "type": "function",
      "constant": true
    },
    {
      "inputs": [],
      "name": "FIELD_SIZE",
      "outputs": [
        {
          "internalType": "uint256",
          "name": "",
          "type": "uint256"
        }
      ],
      "stateMutability": "view",
      "type": "function",
      "constant": true
    },
    {
      "inputs": [],
      "name": "GHOST_START_COMMITMENT",
      "outputs": [
        {
          "internalType": "uint256",
          "name": "",
          "type": "uint256"
        }
      ],
      "stateMutability": "view",
      "type": "function",
      "constant": true
    },
    {
      "inputs": [
        {
          "internalType": "uint256",
          "name": "",
          "type": "uint256"
        },
        {
          "internalType": "uint256",
          "name": "",
          "type": "uint256"
        }
      ],
      "name": "boardPieces",
      "outputs": [
        {
          "internalType": "uint8",
          "name": "",
          "type": "uint8"
        }
      ],
      "stateMutability": "view",
      "type": "function",
      "constant": true
    },
    {
      "inputs": [],
      "name": "gameId",
      "outputs": [
        {
          "internalType": "uint256",
          "name": "",
          "type": "uint256"
        }
      ],
      "stateMutability": "view",
      "type": "function",
      "constant": true
    },
    {
      "inputs": [],
      "name": "gameState",
      "outputs": [
        {
          "internalType": "enum GameState",
          "name": "",
          "type": "uint8"
        }
      ],
      "stateMutability": "view",
      "type": "function",
      "constant": true
    },
    {
      "inputs": [
        {
          "internalType": "uint8",
          "name": "",
          "type": "uint8"
        },
        {
          "internalType": "uint8",
          "name": "",
          "type": "uint8"
        }
      ],
      "name": "hasAttacked",
      "outputs": [
        {
          "internalType": "bool",
          "name": "",
          "type": "bool"
        }
      ],
      "stateMutability": "view",
      "type": "function",
      "constant": true
    },
    {
      "inputs": [
        {
          "internalType": "uint8",
          "name": "",
          "type": "uint8"
        },
        {
          "internalType": "uint8",
          "name": "",
          "type": "uint8"
        }
      ],
      "name": "hasMoved",
      "outputs": [
        {
          "internalType": "bool",
          "name": "",
          "type": "bool"
        }
      ],
      "stateMutability": "view",
      "type": "function",
      "constant": true
    },
    {
      "inputs": [
        {
          "internalType": "uint256",
          "name": "",
          "type": "uint256"
        }
      ],
      "name": "pieceIds",
      "outputs": [
        {
          "internalType": "uint8",
          "name": "",
          "type": "uint8"
        }
      ],
      "stateMutability": "view",
      "type": "function",
      "constant": true
    },
    {
      "inputs": [
        {
          "internalType": "uint8",
          "name": "",
          "type": "uint8"
        }
      ],
      "name": "pieces",
      "outputs": [
        {
          "internalType": "uint8",
          "name": "id",
          "type": "uint8"
        },
        {
          "internalType": "enum PieceType",
          "name": "pieceType",
          "type": "uint8"
        },
        {
          "internalType": "address",
          "name": "owner",
          "type": "address"
        },
        {
          "internalType": "uint8",
          "name": "row",
          "type": "uint8"
        },
        {
          "internalType": "uint8",
          "name": "col",
          "type": "uint8"
        },
        {
          "internalType": "bool",
          "name": "alive",
          "type": "bool"
        },
        {
          "internalType": "uint256",
          "name": "commitment",
          "type": "uint256"
        },
        {
          "internalType": "bool",
          "name": "initialized",
          "type": "bool"
        }
      ],
      "stateMutability": "view",
      "type": "function",
      "constant": true
    },
    {
      "inputs": [],
      "name": "player1",
      "outputs": [
        {
          "internalType": "address",
          "name": "",
          "type": "address"
        }
      ],
      "stateMutability": "view",
      "type": "function",
      "constant": true
    },
    {
      "inputs": [],
      "name": "player2",
      "outputs": [
        {
          "internalType": "address",
          "name": "",
          "type": "address"
        }
      ],
      "stateMutability": "view",
      "type": "function",
      "constant": true
    },
    {
      "inputs": [],
      "name": "turnNumber",
      "outputs": [
        {
          "internalType": "uint8",
          "name": "",
          "type": "uint8"
        }
      ],
      "stateMutability": "view",
      "type": "function",
      "constant": true
    },
    {
      "inputs": [
        {
          "internalType": "uint256",
          "name": "_gameId",
          "type": "uint256"
        },
        {
          "internalType": "bool",
          "name": "_disableZKCheck",
          "type": "bool"
        }
      ],
      "name": "initialize",
      "outputs": [],
      "stateMutability": "nonpayable",
      "type": "function"
    },
    {
      "inputs": [],
      "name": "getPieces",
      "outputs": [
        {
          "components": [
            {
              "internalType": "uint8",
              "name": "id",
              "type": "uint8"
            },
            {
              "internalType": "enum PieceType",
              "name": "pieceType",
              "type": "uint8"
            },
            {
              "internalType": "address",
              "name": "owner",
              "type": "address"
            },
            {
              "internalType": "uint8",
              "name": "row",
              "type": "uint8"
            },
            {
              "internalType": "uint8",
              "name": "col",
              "type": "uint8"
            },
            {
              "internalType": "bool",
              "name": "alive",
              "type": "bool"
            },
            {
              "internalType": "uint256",
              "name": "commitment",
              "type": "uint256"
            },
            {
              "internalType": "bool",
              "name": "initialized",
              "type": "bool"
            }
          ],
          "internalType": "struct Piece[]",
          "name": "ret",
          "type": "tuple[]"
        }
      ],
      "stateMutability": "view",
      "type": "function",
      "constant": true
    },
    {
      "inputs": [],
      "name": "gameShouldBeCompleted",
      "outputs": [
        {
          "internalType": "bool",
          "name": "",
          "type": "bool"
        }
      ],
      "stateMutability": "view",
      "type": "function",
      "constant": true
    },
    {
      "inputs": [],
      "name": "joinGame",
      "outputs": [],
      "stateMutability": "nonpayable",
      "type": "function"
    },
    {
      "inputs": [
        {
          "components": [
            {
              "internalType": "uint8",
              "name": "turnNumber",
              "type": "uint8"
            },
            {
              "internalType": "uint8",
              "name": "pieceId",
              "type": "uint8"
            },
            {
              "internalType": "enum PieceType",
              "name": "pieceType",
              "type": "uint8"
            },
            {
              "internalType": "uint8",
              "name": "row",
              "type": "uint8"
            },
            {
              "internalType": "uint8",
              "name": "col",
              "type": "uint8"
            },
            {
              "components": [
                {
                  "internalType": "uint256[2]",
                  "name": "a",
                  "type": "uint256[2]"
                },
                {
                  "internalType": "uint256[2][2]",
                  "name": "b",
                  "type": "uint256[2][2]"
                },
                {
                  "internalType": "uint256[2]",
                  "name": "c",
                  "type": "uint256[2]"
                },
                {
                  "internalType": "uint256[5]",
                  "name": "input",
                  "type": "uint256[5]"
                }
              ],
              "internalType": "struct SummonZKP",
              "name": "zkp",
              "type": "tuple"
            }
          ],
          "internalType": "struct Summon",
          "name": "summon",
          "type": "tuple"
        }
      ],
      "name": "doSummon",
      "outputs": [],
      "stateMutability": "nonpayable",
      "type": "function"
    },
    {
      "inputs": [
        {
          "components": [
            {
              "internalType": "uint8",
              "name": "turnNumber",
              "type": "uint8"
            },
            {
              "internalType": "uint8",
              "name": "pieceId",
              "type": "uint8"
            },
            {
              "internalType": "uint8[]",
              "name": "moveToRow",
              "type": "uint8[]"
            },
            {
              "internalType": "uint8[]",
              "name": "moveToCol",
              "type": "uint8[]"
            },
            {
              "components": [
                {
                  "internalType": "uint256[2]",
                  "name": "a",
                  "type": "uint256[2]"
                },
                {
                  "internalType": "uint256[2][2]",
                  "name": "b",
                  "type": "uint256[2][2]"
                },
                {
                  "internalType": "uint256[2]",
                  "name": "c",
                  "type": "uint256[2]"
                },
                {
                  "internalType": "uint256[4]",
                  "name": "input",
                  "type": "uint256[4]"
                }
              ],
              "internalType": "struct MoveZKP",
              "name": "zkp",
              "type": "tuple"
            }
          ],
          "internalType": "struct Move",
          "name": "move",
          "type": "tuple"
        }
      ],
      "name": "doMove",
      "outputs": [],
      "stateMutability": "nonpayable",
      "type": "function"
    },
    {
      "inputs": [
        {
          "internalType": "uint8",
          "name": "_turnNumber",
          "type": "uint8"
        }
      ],
      "name": "endTurn",
      "outputs": [],
      "stateMutability": "nonpayable",
      "type": "function"
    }
  ],
  "bytecode": "0x608060405234801561001057600080fd5b506150f2806100206000396000f3fe608060405234801561001057600080fd5b50600436106101375760003560e01c806381cb97ca116100b8578063d1f9c24d1161007c578063d1f9c24d14610345578063d30895e414610363578063d4f77b1c14610381578063d7c81b551461038b578063dc4a3e95146103a9578063df54a928146103c757610137565b806381cb97ca1461028b5780638af9d562146102bb578063acbc1a91146102d9578063cf615f6c146102f7578063cfecc6de1461031557610137565b806351df541c116100ff57806351df541c146101f957806352fa0917146102175780635595b5d5146102335780635700401e1461024f57806359a5f12d1461026d57610137565b8063279646661461013c5780632c1025cd146101585780632c784f32146101745780633fb7388e146101ab578063414a37ba146101db575b600080fd5b61015660048036038101906101519190613cdf565b6103f7565b005b610172600480360381019061016d9190613c4b565b611552565b005b61018e60048036038101906101899190613d57565b611d08565b6040516101a2989796959493929190614d14565b60405180910390f35b6101c560048036038101906101c09190613d1b565b611dbe565b6040516101d29190614cf9565b60405180910390f35b6101e3611df4565b6040516101f09190614cde565b60405180910390f35b610201611e18565b60405161020e9190614988565b60405180910390f35b610231600480360381019061022c9190613c8c565b611fde565b005b61024d60048036038101906102489190613d57565b6127ed565b005b610257612964565b6040516102649190614cf9565b60405180910390f35b610275612977565b6040516102829190614879565b60405180910390f35b6102a560048036038101906102a09190613d80565b61299d565b6040516102b29190614988565b60405180910390f35b6102c36129cc565b6040516102d09190614988565b60405180910390f35b6102e16129df565b6040516102ee9190614cde565b60405180910390f35b6102ff612a03565b60405161030c91906148d8565b60405180910390f35b61032f600480360381019061032a9190613cb6565b612c10565b60405161033c9190614cf9565b60405180910390f35b61034d612c41565b60405161035a91906149a3565b60405180910390f35b61036b612c54565b6040516103789190614879565b60405180910390f35b610389612c7a565b005b6103936130ee565b6040516103a09190614cde565b60405180910390f35b6103b16130f4565b6040516103be9190614cde565b60405180910390f35b6103e160048036038101906103dc9190613d80565b6130f9565b6040516103ee9190614988565b60405180910390f35b8160338190555080603e60006101000a81548160ff0219169083151502179055506000603460016101000a81548160ff0219169083600381111561043757fe5b0217905550604051806101000160405280600160ff1681526020016000600281111561045f57fe5b8152602001600073ffffffffffffffffffffffffffffffffffffffff168152602001600060ff168152602001600160ff1681526020016001151581526020016000815260200160011515815250603d6000600160ff16815260200190815260200160002060008201518160000160006101000a81548160ff021916908360ff16021790555060208201518160000160016101000a81548160ff0219169083600281111561050857fe5b021790555060408201518160000160026101000a81548173ffffffffffffffffffffffffffffffffffffffff021916908373ffffffffffffffffffffffffffffffffffffffff16021790555060608201518160000160166101000a81548160ff021916908360ff16021790555060808201518160000160176101000a81548160ff021916908360ff16021790555060a08201518160000160186101000a81548160ff02191690831515021790555060c0820151816001015560e08201518160020160006101000a81548160ff021916908315150217905550905050603c600190806001815401808255809150506001900390600052602060002090602091828204019190069091909190916101000a81548160ff021916908360ff1602179055506001603560006007811061063957fe5b0160016007811061064657fe5b602091828204019190066101000a81548160ff021916908360ff160217905550604051806101000160405280600260ff1681526020016001600281111561068957fe5b8152602001600073ffffffffffffffffffffffffffffffffffffffff168152602001600060ff168152602001600360ff1681526020016001151581526020016000815260200160011515815250603d6000600260ff16815260200190815260200160002060008201518160000160006101000a81548160ff021916908360ff16021790555060208201518160000160016101000a81548160ff0219169083600281111561073257fe5b021790555060408201518160000160026101000a81548173ffffffffffffffffffffffffffffffffffffffff021916908373ffffffffffffffffffffffffffffffffffffffff16021790555060608201518160000160166101000a81548160ff021916908360ff16021790555060808201518160000160176101000a81548160ff021916908360ff16021790555060a08201518160000160186101000a81548160ff02191690831515021790555060c0820151816001015560e08201518160020160006101000a81548160ff021916908315150217905550905050603c600290806001815401808255809150506001900390600052602060002090602091828204019190069091909190916101000a81548160ff021916908360ff1602179055506002603560006007811061086357fe5b0160036007811061087057fe5b602091828204019190066101000a81548160ff021916908360ff160217905550604051806101000160405280600360ff168152602001600060028111156108b357fe5b8152602001600073ffffffffffffffffffffffffffffffffffffffff168152602001600060ff168152602001600560ff1681526020016001151581526020016000815260200160011515815250603d6000600360ff16815260200190815260200160002060008201518160000160006101000a81548160ff021916908360ff16021790555060208201518160000160016101000a81548160ff0219169083600281111561095c57fe5b021790555060408201518160000160026101000a81548173ffffffffffffffffffffffffffffffffffffffff021916908373ffffffffffffffffffffffffffffffffffffffff16021790555060608201518160000160166101000a81548160ff021916908360ff16021790555060808201518160000160176101000a81548160ff021916908360ff16021790555060a08201518160000160186101000a81548160ff02191690831515021790555060c0820151816001015560e08201518160020160006101000a81548160ff021916908315150217905550905050603c600390806001815401808255809150506001900390600052602060002090602091828204019190069091909190916101000a81548160ff021916908360ff16021790555060036035600060078110610a8d57fe5b01600560078110610a9a57fe5b602091828204019190066101000a81548160ff021916908360ff160217905550604051806101000160405280600460ff168152602001600280811115610adc57fe5b8152602001600073ffffffffffffffffffffffffffffffffffffffff168152602001600060ff168152602001600060ff1681526020016001151581526020017f104ddaefd01036b8465b22025720f944733190135fd4ed564186bc3cfcaec722815260200160011515815250603d6000600460ff16815260200190815260200160002060008201518160000160006101000a81548160ff021916908360ff16021790555060208201518160000160016101000a81548160ff02191690836002811115610ba457fe5b021790555060408201518160000160026101000a81548173ffffffffffffffffffffffffffffffffffffffff021916908373ffffffffffffffffffffffffffffffffffffffff16021790555060608201518160000160166101000a81548160ff021916908360ff16021790555060808201518160000160176101000a81548160ff021916908360ff16021790555060a08201518160000160186101000a81548160ff02191690831515021790555060c0820151816001015560e08201518160020160006101000a81548160ff021916908315150217905550905050603c600490806001815401808255809150506001900390600052602060002090602091828204019190069091909190916101000a81548160ff021916908360ff160217905550604051806101000160405280600560ff16815260200160006002811115610ce857fe5b8152602001600073ffffffffffffffffffffffffffffffffffffffff168152602001600660ff168152602001600160ff1681526020016001151581526020016000815260200160011515815250603d6000600560ff16815260200190815260200160002060008201518160000160006101000a81548160ff021916908360ff16021790555060208201518160000160016101000a81548160ff02191690836002811115610d9157fe5b021790555060408201518160000160026101000a81548173ffffffffffffffffffffffffffffffffffffffff021916908373ffffffffffffffffffffffffffffffffffffffff16021790555060608201518160000160166101000a81548160ff021916908360ff16021790555060808201518160000160176101000a81548160ff021916908360ff16021790555060a08201518160000160186101000a81548160ff02191690831515021790555060c0820151816001015560e08201518160020160006101000a81548160ff021916908315150217905550905050603c600590806001815401808255809150506001900390600052602060002090602091828204019190069091909190916101000a81548160ff021916908360ff16021790555060056035600660078110610ec257fe5b01600160078110610ecf57fe5b602091828204019190066101000a81548160ff021916908360ff160217905550604051806101000160405280600660ff16815260200160016002811115610f1257fe5b8152602001600073ffffffffffffffffffffffffffffffffffffffff168152602001600660ff168152602001600360ff1681526020016001151581526020016000815260200160011515815250603d6000600660ff16815260200190815260200160002060008201518160000160006101000a81548160ff021916908360ff16021790555060208201518160000160016101000a81548160ff02191690836002811115610fbb57fe5b021790555060408201518160000160026101000a81548173ffffffffffffffffffffffffffffffffffffffff021916908373ffffffffffffffffffffffffffffffffffffffff16021790555060608201518160000160166101000a81548160ff021916908360ff16021790555060808201518160000160176101000a81548160ff021916908360ff16021790555060a08201518160000160186101000a81548160ff02191690831515021790555060c0820151816001015560e08201518160020160006101000a81548160ff021916908315150217905550905050603c600690806001815401808255809150506001900390600052602060002090602091828204019190069091909190916101000a81548160ff021916908360ff160217905550600660356006600781106110ec57fe5b016003600781106110f957fe5b602091828204019190066101000a81548160ff021916908360ff160217905550604051806101000160405280600760ff1681526020016000600281111561113c57fe5b8152602001600073ffffffffffffffffffffffffffffffffffffffff168152602001600660ff168152602001600560ff1681526020016001151581526020016000815260200160011515815250603d6000600760ff16815260200190815260200160002060008201518160000160006101000a81548160ff021916908360ff16021790555060208201518160000160016101000a81548160ff021916908360028111156111e557fe5b021790555060408201518160000160026101000a81548173ffffffffffffffffffffffffffffffffffffffff021916908373ffffffffffffffffffffffffffffffffffffffff16021790555060608201518160000160166101000a81548160ff021916908360ff16021790555060808201518160000160176101000a81548160ff021916908360ff16021790555060a08201518160000160186101000a81548160ff02191690831515021790555060c0820151816001015560e08201518160020160006101000a81548160ff021916908315150217905550905050603c600790806001815401808255809150506001900390600052602060002090602091828204019190069091909190916101000a81548160ff021916908360ff1602179055506007603560066007811061131657fe5b0160056007811061132357fe5b602091828204019190066101000a81548160ff021916908360ff160217905550604051806101000160405280600860ff16815260200160028081111561136557fe5b8152602001600073ffffffffffffffffffffffffffffffffffffffff168152602001600660ff168152602001600060ff1681526020016001151581526020017f104ddaefd01036b8465b22025720f944733190135fd4ed564186bc3cfcaec722815260200160011515815250603d6000600860ff16815260200190815260200160002060008201518160000160006101000a81548160ff021916908360ff16021790555060208201518160000160016101000a81548160ff0219169083600281111561142d57fe5b021790555060408201518160000160026101000a81548173ffffffffffffffffffffffffffffffffffffffff021916908373ffffffffffffffffffffffffffffffffffffffff16021790555060608201518160000160166101000a81548160ff021916908360ff16021790555060808201518160000160176101000a81548160ff021916908360ff16021790555060a08201518160000160186101000a81548160ff02191690831515021790555060c0820151816001015560e08201518160020160006101000a81548160ff021916908315150217905550905050603c600890806001815401808255809150506001900390600052602060002090602091828204019190069091909190916101000a81548160ff021916908360ff1602179055505050565b61155f8160000151613128565b6000603d6000836020015160ff1660ff16815260200190815260200160002090503373ffffffffffffffffffffffffffffffffffffffff168160000160029054906101000a900473ffffffffffffffffffffffffffffffffffffffff1673ffffffffffffffffffffffffffffffffffffffff161480156116305750600073ffffffffffffffffffffffffffffffffffffffff168160000160029054906101000a900473ffffffffffffffffffffffffffffffffffffffff1673ffffffffffffffffffffffffffffffffffffffff1614155b61166f576040517f08c379a000000000000000000000000000000000000000000000000000000000815260040161166690614b1e565b60405180910390fd5b8060000160189054906101000a900460ff166116c0576040517f08c379a00000000000000000000000000000000000000000000000000000000081526004016116b790614a3e565b60405180910390fd5b60406000836000015160ff1660ff16815260200190815260200160002060008260000160009054906101000a900460ff1660ff1660ff16815260200190815260200160002060009054906101000a900460ff1615611753576040517f08c379a000000000000000000000000000000000000000000000000000000000815260040161174a90614b3e565b60405180910390fd5b60416000836000015160ff1660ff16815260200190815260200160002060008260000160009054906101000a900460ff1660ff1660ff16815260200190815260200160002060009054906101000a900460ff16156117e6576040517f08c379a00000000000000000000000000000000000000000000000000000000081526004016117dd90614ade565b60405180910390fd5b6002808111156117f257fe5b8160000160019054906101000a900460ff16600281111561180f57fe5b14156119c25781608001516060015160006004811061182a57fe5b6020020151816001015414611874576040517f08c379a000000000000000000000000000000000000000000000000000000000815260040161186b90614c1e565b60405180910390fd5b600782608001516060015160036004811061188b57fe5b60200201511461189a57600080fd5b603e60009054906101000a900460ff1661199b5773__Verifier______________________________636f2aea8d8360800151600001518460800151602001518560800151604001518660800151606001516040518563ffffffff1660e01b815260040161190b94939291906148fa565b60206040518083038186803b15801561192357600080fd5b505af4158015611937573d6000803e3d6000fd5b505050506040513d601f19601f8201168201806040525081019061195b9190613c22565b61199a576040517f08c379a000000000000000000000000000000000000000000000000000000000815260040161199190614abe565b60405180910390fd5b5b8160800151606001516001600481106119b057fe5b60200201518160010181905550611c6f565b606082604001519050606083606001519050611b0583604051806101000160405290816000820160009054906101000a900460ff1660ff1660ff1681526020016000820160019054906101000a900460ff166002811115611a1f57fe5b6002811115611a2a57fe5b81526020016000820160029054906101000a900473ffffffffffffffffffffffffffffffffffffffff1673ffffffffffffffffffffffffffffffffffffffff1673ffffffffffffffffffffffffffffffffffffffff1681526020016000820160169054906101000a900460ff1660ff1660ff1681526020016000820160179054906101000a900460ff1660ff1660ff1681526020016000820160189054906101000a900460ff16151515158152602001600182015481526020016002820160009054906101000a900460ff1615151515815250508383613368565b611b44576040517f08c379a0000000000000000000000000000000000000000000000000000000008152600401611b3b90614afe565b60405180910390fd5b600082600184510381518110611b5657fe5b60200260200101519050600082600184510381518110611b7257fe5b60200260200101519050600060358660000160169054906101000a900460ff1660ff1660078110611b9f57fe5b018660000160179054906101000a900460ff1660ff1660078110611bbf57fe5b602091828204019190066101000a81548160ff021916908360ff1602179055508460000160009054906101000a900460ff1660358360ff1660078110611c0157fe5b018260ff1660078110611c1057fe5b602091828204019190066101000a81548160ff021916908360ff160217905550818560000160166101000a81548160ff021916908360ff160217905550808560000160176101000a81548160ff021916908360ff160217905550505050505b600160406000846000015160ff1660ff16815260200190815260200160002060008360000160009054906101000a900460ff1660ff1660ff16815260200190815260200160002060006101000a81548160ff0219169083151502179055507f95d8dea3d987d2163d15eb7c5db7cdff58efde46972835877952ee40cb7a16a033604051611cfc9190614894565b60405180910390a15050565b603d6020528060005260406000206000915090508060000160009054906101000a900460ff16908060000160019054906101000a900460ff16908060000160029054906101000a900473ffffffffffffffffffffffffffffffffffffffff16908060000160169054906101000a900460ff16908060000160179054906101000a900460ff16908060000160189054906101000a900460ff16908060010154908060020160009054906101000a900460ff16905088565b60358260078110611dcb57fe5b018160078110611dd757fe5b60209182820401919006915091509054906101000a900460ff1681565b7f30644e72e131a029b85045b68181585d2833e84879b9709143e1f593f000000181565b60008060009050600080905060008090505b603c805490508160ff161015611fcb576000603d6000603c8460ff1681548110611e5057fe5b90600052602060002090602091828204019190069054906101000a900460ff1660ff1660ff1681526020019081526020016000209050603e60019054906101000a900473ffffffffffffffffffffffffffffffffffffffff1673ffffffffffffffffffffffffffffffffffffffff168160000160029054906101000a900473ffffffffffffffffffffffffffffffffffffffff1673ffffffffffffffffffffffffffffffffffffffff16148015611f1557508060000160189054906101000a900460ff165b15611f235760019350611fbd565b603f60009054906101000a900473ffffffffffffffffffffffffffffffffffffffff1673ffffffffffffffffffffffffffffffffffffffff168160000160029054906101000a900473ffffffffffffffffffffffffffffffffffffffff1673ffffffffffffffffffffffffffffffffffffffff16148015611fb257508060000160189054906101000a900460ff165b15611fbc57600192505b5b508080600101915050611e2a565b50818015611fd65750805b159250505090565b611feb8160000151613128565b603d6000826020015160ff1660ff16815260200190815260200160002060020160009054906101000a900460ff1615612059576040517f08c379a000000000000000000000000000000000000000000000000000000000815260040161205090614bbe565b60405180910390fd5b6000809050600060039050603f60009054906101000a900473ffffffffffffffffffffffffffffffffffffffff1673ffffffffffffffffffffffffffffffffffffffff163373ffffffffffffffffffffffffffffffffffffffff1614156120bf57600691505b6002808111156120cb57fe5b836040015160028111156120db57fe5b14612249576007836060015160ff161080156120fe57506007836080015160ff16105b61213d576040517f08c379a000000000000000000000000000000000000000000000000000000000815260040161213490614bfe565b60405180910390fd5b60006035846060015160ff166007811061215357fe5b01846080015160ff166007811061216657fe5b602091828204019190069054906101000a900460ff1690506000603d60008360ff1660ff16815260200190815260200160002090508060000160189054906101000a900460ff16156121ed576040517f08c379a00000000000000000000000000000000000000000000000000000000081526004016121e490614a9e565b60405180910390fd5b600161220386606001518760800151878761365a565b60ff1614612246576040517f08c379a000000000000000000000000000000000000000000000000000000000815260040161223d90614c7e565b60405180910390fd5b50505b60028081111561225557fe5b8360400151600281111561226557fe5b14156124aa57603e60009054906101000a900460ff166124a9578160ff168360a001516060015160016005811061229857fe5b60200201511480156122c557508060ff168360a00151606001516002600581106122be57fe5b6020020151145b612304576040517f08c379a00000000000000000000000000000000000000000000000000000000081526004016122fb90614c5e565b60405180910390fd5b60018360a001516060015160036005811061231b57fe5b602002015114612360576040517f08c379a000000000000000000000000000000000000000000000000000000000815260040161235790614bde565b60405180910390fd5b60078360a001516060015160046005811061237757fe5b6020020151146123bc576040517f08c379a00000000000000000000000000000000000000000000000000000000081526004016123b3906149fe565b60405180910390fd5b73__Verifier______________________________63afd115578460a00151600001518560a00151602001518660a00151604001518760a00151606001516040518563ffffffff1660e01b81526004016124199493929190614941565b60206040518083038186803b15801561243157600080fd5b505af4158015612445573d6000803e3d6000fd5b505050506040513d601f19601f820116820180604052508101906124699190613c22565b6124a8576040517f08c379a000000000000000000000000000000000000000000000000000000000815260040161249f90614a1e565b60405180910390fd5b5b5b604051806101000160405280846020015160ff168152602001846040015160028111156124d357fe5b81526020013373ffffffffffffffffffffffffffffffffffffffff168152602001846060015160ff168152602001846080015160ff1681526020016001151581526020018460a001516060015160006005811061252c57fe5b6020020151815260200160011515815250603d6000856020015160ff1660ff16815260200190815260200160002060008201518160000160006101000a81548160ff021916908360ff16021790555060208201518160000160016101000a81548160ff0219169083600281111561259f57fe5b021790555060408201518160000160026101000a81548173ffffffffffffffffffffffffffffffffffffffff021916908373ffffffffffffffffffffffffffffffffffffffff16021790555060608201518160000160166101000a81548160ff021916908360ff16021790555060808201518160000160176101000a81548160ff021916908360ff16021790555060a08201518160000160186101000a81548160ff02191690831515021790555060c0820151816001015560e08201518160020160006101000a81548160ff021916908315150217905550905050603c836020015190806001815401808255809150506001900390600052602060002090602091828204019190069091909190916101000a81548160ff021916908360ff16021790555082602001516035846060015160ff16600781106126dc57fe5b01846080015160ff16600781106126ef57fe5b602091828204019190066101000a81548160ff021916908360ff160217905550600160406000856000015160ff1660ff1681526020019081526020016000206000856020015160ff1660ff16815260200190815260200160002060006101000a81548160ff021916908315150217905550600160416000856000015160ff1660ff1681526020019081526020016000206000856020015160ff1660ff16815260200190815260200160002060006101000a81548160ff0219169083151502179055507f95d8dea3d987d2163d15eb7c5db7cdff58efde46972835877952ee40cb7a16a0336040516127e09190614894565b60405180910390a1505050565b6127f681613128565b603e60019054906101000a900473ffffffffffffffffffffffffffffffffffffffff1673ffffffffffffffffffffffffffffffffffffffff163373ffffffffffffffffffffffffffffffffffffffff161415612875576002603460016101000a81548160ff0219169083600381111561286b57fe5b02179055506128cc565b6034600081819054906101000a900460ff168092919060010191906101000a81548160ff021916908360ff160217905550506001603460016101000a81548160ff021916908360038111156128c657fe5b02179055505b7f95d8dea3d987d2163d15eb7c5db7cdff58efde46972835877952ee40cb7a16a0336040516128fb9190614894565b60405180910390a161290b611e18565b15612961576003603460016101000a81548160ff0219169083600381111561292f57fe5b02179055507fb537cbcadc098cfedf5a04ef7e68a8554b55f7e45bfdaca1cbc51a686ef65f4860405160405180910390a15b50565b603460009054906101000a900460ff1681565b603f60009054906101000a900473ffffffffffffffffffffffffffffffffffffffff1681565b60416020528160005260406000206020528060005260406000206000915091509054906101000a900460ff1681565b603e60009054906101000a900460ff1681565b7f104ddaefd01036b8465b22025720f944733190135fd4ed564186bc3cfcaec72281565b6060603c8054905067ffffffffffffffff81118015612a2157600080fd5b50604051908082528060200260200182016040528015612a5b57816020015b612a486136b1565b815260200190600190039081612a405790505b50905060008090505b603c805490508160ff161015612c0957603d6000603c8360ff1681548110612a8857fe5b90600052602060002090602091828204019190069054906101000a900460ff1660ff1660ff168152602001908152602001600020604051806101000160405290816000820160009054906101000a900460ff1660ff1660ff1681526020016000820160019054906101000a900460ff166002811115612b0357fe5b6002811115612b0e57fe5b81526020016000820160029054906101000a900473ffffffffffffffffffffffffffffffffffffffff1673ffffffffffffffffffffffffffffffffffffffff1673ffffffffffffffffffffffffffffffffffffffff1681526020016000820160169054906101000a900460ff1660ff1660ff1681526020016000820160179054906101000a900460ff1660ff1660ff1681526020016000820160189054906101000a900460ff16151515158152602001600182015481526020016002820160009054906101000a900460ff161515151581525050828260ff1681518110612bf157fe5b60200260200101819052508080600101915050612a64565b5080905090565b603c8181548110612c1d57fe5b9060005260206000209060209182820401919006915054906101000a900460ff1681565b603460019054906101000a900460ff1681565b603e60019054906101000a900473ffffffffffffffffffffffffffffffffffffffff1681565b60006003811115612c8757fe5b603460019054906101000a900460ff166003811115612ca257fe5b14612ce2576040517f08c379a0000000000000000000000000000000000000000000000000000000008152600401612cd990614c9e565b60405180910390fd5b600073ffffffffffffffffffffffffffffffffffffffff16603e60019054906101000a900473ffffffffffffffffffffffffffffffffffffffff1673ffffffffffffffffffffffffffffffffffffffff161415612d7f5733603e60016101000a81548173ffffffffffffffffffffffffffffffffffffffff021916908373ffffffffffffffffffffffffffffffffffffffff1602179055506130ec565b603e60019054906101000a900473ffffffffffffffffffffffffffffffffffffffff1673ffffffffffffffffffffffffffffffffffffffff163373ffffffffffffffffffffffffffffffffffffffff161415612e10576040517f08c379a0000000000000000000000000000000000000000000000000000000008152600401612e0790614a5e565b60405180910390fd5b600060024281612e1c57fe5b061415612e695733603f60006101000a81548173ffffffffffffffffffffffffffffffffffffffff021916908373ffffffffffffffffffffffffffffffffffffffff160217905550612f0e565b603e60019054906101000a900473ffffffffffffffffffffffffffffffffffffffff16603f60006101000a81548173ffffffffffffffffffffffffffffffffffffffff021916908373ffffffffffffffffffffffffffffffffffffffff16021790555033603e60016101000a81548173ffffffffffffffffffffffffffffffffffffffff021916908373ffffffffffffffffffffffffffffffffffffffff1602179055505b6000600190505b60058160ff161015612fab57603e60019054906101000a900473ffffffffffffffffffffffffffffffffffffffff16603d60008360ff1660ff16815260200190815260200160002060000160026101000a81548173ffffffffffffffffffffffffffffffffffffffff021916908373ffffffffffffffffffffffffffffffffffffffff1602179055508080600101915050612f15565b506000600590505b60098160ff16101561304957603f60009054906101000a900473ffffffffffffffffffffffffffffffffffffffff16603d60008360ff1660ff16815260200190815260200160002060000160026101000a81548173ffffffffffffffffffffffffffffffffffffffff021916908373ffffffffffffffffffffffffffffffffffffffff1602179055508080600101915050612fb3565b506001603460016101000a81548160ff0219169083600381111561306957fe5b02179055507f8fd707874eb940598510258c64cad23fd35fe8c85c5c38e8782fac2cc887fb6e603e60019054906101000a900473ffffffffffffffffffffffffffffffffffffffff16603f60009054906101000a900473ffffffffffffffffffffffffffffffffffffffff166040516130e39291906148af565b60405180910390a15b565b60335481565b600781565b60406020528160005260406000206020528060005260406000206000915091509054906101000a900460ff1681565b60038081111561313457fe5b603460019054906101000a900460ff16600381111561314f57fe5b1415613190576040517f08c379a000000000000000000000000000000000000000000000000000000000815260040161318790614b5e565b60405180910390fd5b603e60019054906101000a900473ffffffffffffffffffffffffffffffffffffffff1673ffffffffffffffffffffffffffffffffffffffff163373ffffffffffffffffffffffffffffffffffffffff16141561324f57600160038111156131f357fe5b603460019054906101000a900460ff16600381111561320e57fe5b1461324e576040517f08c379a000000000000000000000000000000000000000000000000000000000815260040161324590614cbe565b60405180910390fd5b5b603f60009054906101000a900473ffffffffffffffffffffffffffffffffffffffff1673ffffffffffffffffffffffffffffffffffffffff163373ffffffffffffffffffffffffffffffffffffffff16141561330e57600260038111156132b257fe5b603460019054906101000a900460ff1660038111156132cd57fe5b1461330d576040517f08c379a000000000000000000000000000000000000000000000000000000000815260040161330490614b7e565b60405180910390fd5b5b603460009054906101000a900460ff1660ff168160ff1614613365576040517f08c379a000000000000000000000000000000000000000000000000000000000815260040161335c906149de565b60405180910390fd5b50565b6000808460600151905060008560800151905083518551146133bf576040517f08c379a00000000000000000000000000000000000000000000000000000000081526004016133b690614b9e565b60405180910390fd5b6000809050600060028111156133d157fe5b876020015160028111156133e157fe5b14156133f05760019050613419565b600160028111156133fd57fe5b8760200151600281111561340d57fe5b141561341857600290505b5b8060ff1686511115613460576040517f08c379a000000000000000000000000000000000000000000000000000000000815260040161345790614c3e565b60405180910390fd5b60008090505b865181101561364b57600087828151811061347d57fe5b60200260200101519050600087838151811061349557fe5b6020026020010151905060078260ff1610806134b4575060078160ff16105b6134f3576040517f08c379a00000000000000000000000000000000000000000000000000000000081526004016134ea90614a7e565b60405180910390fd5b8560ff168260ff16148061350c57508460ff168160ff16145b801561354d5750600186830360ff16148061352c5750600182870360ff16145b8061353c5750600185820360ff16145b8061354c5750600181860360ff16145b5b61358c576040517f08c379a000000000000000000000000000000000000000000000000000000000815260040161358390614b9e565b60405180910390fd5b600060358360ff166007811061359e57fe5b018260ff16600781106135ad57fe5b602091828204019190069054906101000a900460ff1690506000603d60008360ff1660ff16815260200190815260200160002090508060000160189054906101000a900460ff1615613634576040517f08c379a000000000000000000000000000000000000000000000000000000000815260040161362b906149be565b60405180910390fd5b839750829650505050508080600101915050613466565b50600193505050509392505050565b600080600090508360ff168660ff16111561367b5783860381019050613683565b858403810190505b8260ff168560ff16111561369d57828503810190506136a5565b848303810190505b80915050949350505050565b604051806101000160405280600060ff168152602001600060028111156136d457fe5b8152602001600073ffffffffffffffffffffffffffffffffffffffff168152602001600060ff168152602001600060ff168152602001600015158152602001600081526020016000151581525090565b600082601f83011261373557600080fd5b600261374861374382614dbf565b614d92565b9150818385604084028201111561375e57600080fd5b60005b8381101561378e57816137748882613798565b845260208401935060408301925050600181019050613761565b5050505092915050565b600082601f8301126137a957600080fd5b60026137bc6137b782614de1565b614d92565b915081838560208402820111156137d257600080fd5b60005b8381101561380257816137e88882613bf8565b8452602084019350602083019250506001810190506137d5565b5050505092915050565b600082601f83011261381d57600080fd5b600461383061382b82614e03565b614d92565b9150818385602084028201111561384657600080fd5b60005b83811015613876578161385c8882613bf8565b845260208401935060208301925050600181019050613849565b5050505092915050565b600082601f83011261389157600080fd5b60056138a461389f82614e25565b614d92565b915081838560208402820111156138ba57600080fd5b60005b838110156138ea57816138d08882613bf8565b8452602084019350602083019250506001810190506138bd565b5050505092915050565b600082601f83011261390557600080fd5b813561391861391382614e47565b614d92565b9150818183526020840193506020810190508385602084028201111561393d57600080fd5b60005b8381101561396d57816139538882613c0d565b845260208401935060208301925050600181019050613940565b5050505092915050565b60008135905061398681615067565b92915050565b60008151905061399b81615067565b92915050565b6000813590506139b08161507e565b92915050565b600061018082840312156139c957600080fd5b6139d36080614d92565b905060006139e384828501613798565b60008301525060406139f784828501613724565b60208301525060c0613a0b84828501613798565b604083015250610100613a208482850161380c565b60608301525092915050565b60006102008284031215613a3f57600080fd5b613a4960a0614d92565b90506000613a5984828501613c0d565b6000830152506020613a6d84828501613c0d565b602083015250604082013567ffffffffffffffff811115613a8d57600080fd5b613a99848285016138f4565b604083015250606082013567ffffffffffffffff811115613ab957600080fd5b613ac5848285016138f4565b6060830152506080613ad9848285016139b6565b60808301525092915050565b60006101a08284031215613af857600080fd5b613b026080614d92565b90506000613b1284828501613798565b6000830152506040613b2684828501613724565b60208301525060c0613b3a84828501613798565b604083015250610100613b4f84828501613880565b60608301525092915050565b60006102408284031215613b6e57600080fd5b613b7860c0614d92565b90506000613b8884828501613c0d565b6000830152506020613b9c84828501613c0d565b6020830152506040613bb0848285016139a1565b6040830152506060613bc484828501613c0d565b6060830152506080613bd884828501613c0d565b60808301525060a0613bec84828501613ae5565b60a08301525092915050565b600081359050613c078161508e565b92915050565b600081359050613c1c816150a5565b92915050565b600060208284031215613c3457600080fd5b6000613c428482850161398c565b91505092915050565b600060208284031215613c5d57600080fd5b600082013567ffffffffffffffff811115613c7757600080fd5b613c8384828501613a2c565b91505092915050565b60006102408284031215613c9f57600080fd5b6000613cad84828501613b5b565b91505092915050565b600060208284031215613cc857600080fd5b6000613cd684828501613bf8565b91505092915050565b60008060408385031215613cf257600080fd5b6000613d0085828601613bf8565b9250506020613d1185828601613977565b9150509250929050565b60008060408385031215613d2e57600080fd5b6000613d3c85828601613bf8565b9250506020613d4d85828601613bf8565b9150509250929050565b600060208284031215613d6957600080fd5b6000613d7784828501613c0d565b91505092915050565b60008060408385031215613d9357600080fd5b6000613da185828601613c0d565b9250506020613db285828601613c0d565b9150509250929050565b6000613dc88383613f3e565b60408301905092915050565b6000613de0838361478c565b6101008301905092915050565b6000613df9838361484c565b60208301905092915050565b613e0e81614ff3565b82525050565b613e1d81614f78565b82525050565b613e2c81614f78565b82525050565b613e3b81614ea7565b613e458184614f1f565b9250613e5082614e6f565b8060005b83811015613e81578151613e688782613dbc565b9650613e7383614ede565b925050600181019050613e54565b505050505050565b6000613e9482614eb2565b613e9e8185614f2a565b9350613ea983614e79565b8060005b83811015613eda578151613ec18882613dd4565b9750613ecc83614eeb565b925050600181019050613ead565b5085935050505092915050565b613ef081614ebd565b613efa8184614f3b565b9250613f0582614e89565b8060005b83811015613f36578151613f1d8782613ded565b9650613f2883614ef8565b925050600181019050613f09565b505050505050565b613f4781614ebd565b613f518184614f46565b9250613f5c82614e89565b8060005b83811015613f8d578151613f748782613ded565b9650613f7f83614ef8565b925050600181019050613f60565b505050505050565b613f9e81614ec8565b613fa88184614f51565b9250613fb382614e93565b8060005b83811015613fe4578151613fcb8782613ded565b9650613fd683614f05565b925050600181019050613fb7565b505050505050565b613ff581614ed3565b613fff8184614f5c565b925061400a82614e9d565b8060005b8381101561403b5781516140228782613ded565b965061402d83614f12565b92505060018101905061400e565b505050505050565b61404c81614f8a565b82525050565b61405b81614f8a565b82525050565b61406a81615005565b82525050565b61407981615017565b82525050565b61408881615017565b82525050565b600061409b602783614f67565b91507f747269656420746f206d6f7665207468726f75676820616e206578697374696e60008301527f67207069656365000000000000000000000000000000000000000000000000006020830152604082019050919050565b6000614101601183614f67565b91507f57726f6e67207475726e206e756d6265720000000000000000000000000000006000830152602082019050919050565b6000614141602483614f67565b91507f696e76616c6964205a4b2070726f6f663a20696e76616c696420626f6172642060008301527f73697a65000000000000000000000000000000000000000000000000000000006020830152604082019050919050565b60006141a7601683614f67565b91507f4661696c6564205a4b2073756d6d6f6e20636865636b000000000000000000006000830152602082019050919050565b60006141e7600d83614f67565b91507f50696563652069732064656164000000000000000000000000000000000000006000830152602082019050919050565b6000614227601583614f67565b91507f63616e2774206a6f696e2067616d6520747769636500000000000000000000006000830152602082019050919050565b6000614267601b83614f67565b91507f747269656420746f206d6f7665206f7574206f6620626f756e647300000000006000830152602082019050919050565b60006142a7602683614f67565b91507f747269656420746f2073756d6d6f6e206f6e746f20616e206578697374696e6760008301527f20706965636500000000000000000000000000000000000000000000000000006020830152604082019050919050565b600061430d601483614f67565b91507f4661696c6564207a6b206d6f766520636865636b0000000000000000000000006000830152602082019050919050565b600061434d601383614f67565b91507f706965636520616c7265616479206163746564000000000000000000000000006000830152602082019050919050565b600061438d600c83614f67565b91507f496e76616c6964206d6f766500000000000000000000000000000000000000006000830152602082019050919050565b60006143cd601b83614f67565b91507f63616e2774206d6f7665206f70706f6e656e74277320706965636500000000006000830152602082019050919050565b600061440d601383614f67565b91507f706965636520616c7265616479206d6f766564000000000000000000000000006000830152602082019050919050565b600061444d600d83614f67565b91507f47616d6520697320656e646564000000000000000000000000000000000000006000830152602082019050919050565b600061448d600d83614f67565b91507f4e6f742070322773207475726e000000000000000000000000000000000000006000830152602082019050919050565b60006144cd600c83614f67565b91507f696e76616c6964206d6f766500000000000000000000000000000000000000006000830152602082019050919050565b600061450d601783614f67565b91507f706965636520494420616c726561647920696e207573650000000000000000006000830152602082019050919050565b600061454d602e83614f67565b91507f696e76616c6964205a4b2070726f6f663a2063616e206f6e6c792073756d6d6f60008301527f6e206e65787420746f20706f72740000000000000000000000000000000000006020830152604082019050919050565b60006145b3600d83614f67565b91507f6e6f7420696e20626f756e6473000000000000000000000000000000000000006000830152602082019050919050565b60006145f3601083614f67565b91507f5a4b2050726f6f6620696e76616c6964000000000000000000000000000000006000830152602082019050919050565b6000614633602d83614f67565b91507f747269656420746f206d6f76652070696563652066757274686572207468616e60008301527f2072616e676520616c6c6f7773000000000000000000000000000000000000006020830152604082019050919050565b6000614699601e83614f67565b91507f696e76616c6964205a4b2070726f6f663a20696e76616c696420706f727400006000830152602082019050919050565b60006146d9601283614f67565b91507f63616e27742073756d6d6f6e20746865726500000000000000000000000000006000830152602082019050919050565b6000614719601483614f67565b91507f47616d6520616c726561647920737461727465640000000000000000000000006000830152602082019050919050565b6000614759600d83614f67565b91507f4e6f742070312773207475726e000000000000000000000000000000000000006000830152602082019050919050565b610100820160008201516147a3600085018261485b565b5060208201516147b66020850182614070565b5060408201516147c96040850182613e14565b5060608201516147dc606085018261485b565b5060808201516147ef608085018261485b565b5060a082015161480260a0850182614043565b5060c082015161481560c085018261482e565b5060e082015161482860e0850182614043565b50505050565b61483781614fdc565b82525050565b61484681614fdc565b82525050565b61485581614fdc565b82525050565b61486481614fe6565b82525050565b61487381614fe6565b82525050565b600060208201905061488e6000830184613e23565b92915050565b60006020820190506148a96000830184613e05565b92915050565b60006040820190506148c46000830185613e23565b6148d16020830184613e23565b9392505050565b600060208201905081810360008301526148f28184613e89565b905092915050565b6000610180820190506149106000830187613ee7565b61491d6040830186613e32565b61492a60c0830185613ee7565b614938610100830184613f95565b95945050505050565b60006101a0820190506149576000830187613ee7565b6149646040830186613e32565b61497160c0830185613ee7565b61497f610100830184613fec565b95945050505050565b600060208201905061499d6000830184614052565b92915050565b60006020820190506149b86000830184614061565b92915050565b600060208201905081810360008301526149d78161408e565b9050919050565b600060208201905081810360008301526149f7816140f4565b9050919050565b60006020820190508181036000830152614a1781614134565b9050919050565b60006020820190508181036000830152614a378161419a565b9050919050565b60006020820190508181036000830152614a57816141da565b9050919050565b60006020820190508181036000830152614a778161421a565b9050919050565b60006020820190508181036000830152614a978161425a565b9050919050565b60006020820190508181036000830152614ab78161429a565b9050919050565b60006020820190508181036000830152614ad781614300565b9050919050565b60006020820190508181036000830152614af781614340565b9050919050565b60006020820190508181036000830152614b1781614380565b9050919050565b60006020820190508181036000830152614b37816143c0565b9050919050565b60006020820190508181036000830152614b5781614400565b9050919050565b60006020820190508181036000830152614b7781614440565b9050919050565b60006020820190508181036000830152614b9781614480565b9050919050565b60006020820190508181036000830152614bb7816144c0565b9050919050565b60006020820190508181036000830152614bd781614500565b9050919050565b60006020820190508181036000830152614bf781614540565b9050919050565b60006020820190508181036000830152614c17816145a6565b9050919050565b60006020820190508181036000830152614c37816145e6565b9050919050565b60006020820190508181036000830152614c5781614626565b9050919050565b60006020820190508181036000830152614c778161468c565b9050919050565b60006020820190508181036000830152614c97816146cc565b9050919050565b60006020820190508181036000830152614cb78161470c565b9050919050565b60006020820190508181036000830152614cd78161474c565b9050919050565b6000602082019050614cf3600083018461483d565b92915050565b6000602082019050614d0e600083018461486a565b92915050565b600061010082019050614d2a600083018b61486a565b614d37602083018a61407f565b614d446040830189613e23565b614d51606083018861486a565b614d5e608083018761486a565b614d6b60a0830186614052565b614d7860c083018561483d565b614d8560e0830184614052565b9998505050505050505050565b6000604051905081810181811067ffffffffffffffff82111715614db557600080fd5b8060405250919050565b600067ffffffffffffffff821115614dd657600080fd5b602082029050919050565b600067ffffffffffffffff821115614df857600080fd5b602082029050919050565b600067ffffffffffffffff821115614e1a57600080fd5b602082029050919050565b600067ffffffffffffffff821115614e3c57600080fd5b602082029050919050565b600067ffffffffffffffff821115614e5e57600080fd5b602082029050602081019050919050565b6000819050919050565b6000819050602082019050919050565b6000819050919050565b6000819050919050565b6000819050919050565b600060029050919050565b600081519050919050565b600060029050919050565b600060049050919050565b600060059050919050565b6000602082019050919050565b6000602082019050919050565b6000602082019050919050565b6000602082019050919050565b6000602082019050919050565b600081905092915050565b600082825260208201905092915050565b600081905092915050565b600081905092915050565b600081905092915050565b600081905092915050565b600082825260208201905092915050565b6000614f8382614fbc565b9050919050565b60008115159050919050565b6000819050614fa48261504d565b919050565b6000819050614fb78261505a565b919050565b600073ffffffffffffffffffffffffffffffffffffffff82169050919050565b6000819050919050565b600060ff82169050919050565b6000614ffe82615029565b9050919050565b600061501082614f96565b9050919050565b600061502282614fa9565b9050919050565b60006150348261503b565b9050919050565b600061504682614fbc565b9050919050565b6004811061505757fe5b50565b6003811061506457fe5b50565b61507081614f8a565b811461507b57600080fd5b50565b6003811061508b57600080fd5b50565b61509781614fdc565b81146150a257600080fd5b50565b6150ae81614fe6565b81146150b957600080fd5b5056fea26469706673582212202b51167fe493905e5a4a76e736b49d523faee23db792fb13acfd16603bc5ae6864736f6c63430006070033",
  "immutableReferences": {},
  "source": "pragma solidity ^0.6.7;\npragma experimental ABIEncoderV2;\n\nimport \"@openzeppelin/contracts-ethereum-package/contracts/Initializable.sol\";\nimport \"./ZKChessTypes.sol\";\nimport \"./ZKChessUtils.sol\";\nimport \"./Verifier.sol\";\n\ncontract ZKChessGame is Initializable {\n    uint256\n        public constant FIELD_SIZE = 21888242871839275222246405745257275088548364400416034343698204186575808495617;\n    uint256\n        public constant GHOST_START_COMMITMENT = 7374563847362678215915084925243633004703986452179446109135597066279732561698;\n    uint256 public constant BOARD_SIZE = 7;\n\n    uint256 public gameId;\n\n    uint8 public turnNumber;\n    GameState public gameState;\n    uint8[BOARD_SIZE][BOARD_SIZE] public boardPieces; // board[row][col]\n\n    uint8[] public pieceIds;\n    mapping(uint8 => Piece) public pieces;\n\n    bool public DISABLE_ZK_CHECK;\n\n    address public player1;\n    address public player2;\n\n    // mapping from turn # -> piece # -> has acted\n    mapping(uint8 => mapping(uint8 => bool)) public hasMoved;\n    mapping(uint8 => mapping(uint8 => bool)) public hasAttacked;\n\n    uint256 pfsVerified;\n\n    function initialize(uint256 _gameId, bool _disableZKCheck) public {\n        gameId = _gameId;\n        DISABLE_ZK_CHECK = _disableZKCheck;\n        gameState = GameState.WAITING_FOR_PLAYERS;\n\n        // initialize pieces\n        pieces[1] = Piece({\n            id: 1,\n            pieceType: PieceType.KING,\n            owner: address(0),\n            row: 0,\n            col: 1,\n            alive: true,\n            commitment: 0,\n            initialized: true\n        });\n        pieceIds.push(1);\n        boardPieces[0][1] = 1;\n        pieces[2] = Piece({\n            id: 2,\n            pieceType: PieceType.KNIGHT,\n            owner: address(0),\n            row: 0,\n            col: 3,\n            alive: true,\n            commitment: 0,\n            initialized: true\n        });\n        pieceIds.push(2);\n        boardPieces[0][3] = 2;\n        pieces[3] = Piece({\n            id: 3,\n            pieceType: PieceType.KING,\n            owner: address(0),\n            row: 0,\n            col: 5,\n            alive: true,\n            commitment: 0,\n            initialized: true\n        });\n        pieceIds.push(3);\n        boardPieces[0][5] = 3;\n        pieces[4] = Piece({\n            id: 4,\n            pieceType: PieceType.GHOST,\n            owner: address(0),\n            row: 0,\n            col: 0,\n            alive: true,\n            commitment: GHOST_START_COMMITMENT,\n            initialized: true\n        });\n        pieceIds.push(4);\n        pieces[5] = Piece({\n            id: 5,\n            pieceType: PieceType.KING,\n            owner: address(0),\n            row: 6,\n            col: 1,\n            alive: true,\n            commitment: 0,\n            initialized: true\n        });\n        pieceIds.push(5);\n        boardPieces[6][1] = 5;\n        pieces[6] = Piece({\n            id: 6,\n            pieceType: PieceType.KNIGHT,\n            owner: address(0),\n            row: 6,\n            col: 3,\n            alive: true,\n            commitment: 0,\n            initialized: true\n        });\n        pieceIds.push(6);\n        boardPieces[6][3] = 6;\n        pieces[7] = Piece({\n            id: 7,\n            pieceType: PieceType.KING,\n            owner: address(0),\n            row: 6,\n            col: 5,\n            alive: true,\n            commitment: 0,\n            initialized: true\n        });\n        pieceIds.push(7);\n        boardPieces[6][5] = 7;\n        pieces[8] = Piece({\n            id: 8,\n            pieceType: PieceType.GHOST,\n            owner: address(0),\n            row: 6,\n            col: 0,\n            alive: true,\n            commitment: GHOST_START_COMMITMENT,\n            initialized: true\n        });\n        pieceIds.push(8);\n    }\n\n    //////////////\n    /// EVENTS ///\n    //////////////\n\n    event ProofVerified(uint256 pfsAccepted);\n    event GameStart(address p1, address p2);\n    event ActionMade(address player);\n    event GameFinished();\n\n    ///////////////\n    /// GETTERS ///\n    ///////////////\n\n    function getPieces() public view returns (Piece[] memory ret) {\n        ret = new Piece[](pieceIds.length);\n        for (uint8 i = 0; i < pieceIds.length; i++) {\n            ret[i] = pieces[pieceIds[i]];\n        }\n        return ret;\n    }\n\n    //////////////\n    /// Helper ///\n    //////////////\n\n    function taxiDist(\n        uint8 row1,\n        uint8 col1,\n        uint8 row2,\n        uint8 col2\n    ) private pure returns (uint8) {\n        uint8 ret = 0;\n        if (row1 > row2) {\n            ret += row1 - row2;\n        } else {\n            ret += row2 - row1;\n        }\n        if (col1 > col2) {\n            ret += col1 - col2;\n        } else {\n            ret += col2 - col1;\n        }\n        return ret;\n    }\n\n    function isValidMove(\n        Piece memory piece,\n        uint8[] memory toRow,\n        uint8[] memory toCol\n    ) private view returns (bool) {\n        uint8 currentRow = piece.row;\n        uint8 currentCol = piece.col;\n        require(toRow.length == toCol.length, \"invalid move\");\n        uint8 moveRange = 0;\n        if (piece.pieceType == PieceType.KING) {\n            moveRange = 1;\n        } else if (piece.pieceType == PieceType.KNIGHT) {\n            moveRange = 2;\n        }\n        require(\n            toRow.length <= moveRange,\n            \"tried to move piece further than range allows\"\n        );\n\n        for (uint256 i = 0; i < toRow.length; i++) {\n            uint8 nextRow = toRow[i];\n            uint8 nextCol = toCol[i];\n            // must be in range [0, SIZE - 1]\n            require(\n                nextRow < BOARD_SIZE || nextCol < BOARD_SIZE,\n                \"tried to move out of bounds\"\n            );\n            // (nextRow, nextCol) must be adjacent to (currentRow, currentCol)\n            require(\n                (nextRow == currentRow || nextCol == currentCol) &&\n                    (nextRow - currentRow == 1 ||\n                        currentRow - nextRow == 1 ||\n                        nextCol - currentCol == 1 ||\n                        currentCol - nextCol == 1),\n                \"invalid move\"\n            );\n            // can't move through or onto a square with a piece on it\n            uint8 pieceIdAtNextTile = boardPieces[nextRow][nextCol];\n            Piece storage pieceAtNextTile = pieces[pieceIdAtNextTile];\n            require(\n                !pieceAtNextTile.alive,\n                \"tried to move through an existing piece\"\n            );\n            currentRow = nextRow;\n            currentCol = nextCol;\n        }\n        return true;\n    }\n\n    function gameShouldBeCompleted() public view returns (bool) {\n        // check if game is over: at least one player has no pieces left\n        bool player1HasPiecesLeft = false;\n        bool player2HasPiecesLeft = false;\n        for (uint8 i = 0; i < pieceIds.length; i++) {\n            Piece storage piece = pieces[pieceIds[i]];\n            if (piece.owner == player1 && piece.alive) {\n                player1HasPiecesLeft = true;\n            } else if (piece.owner == player2 && piece.alive) {\n                player2HasPiecesLeft = true;\n            }\n        }\n        return !(player1HasPiecesLeft && player2HasPiecesLeft);\n    }\n\n    //////////////////////\n    /// Game Mechanics ///\n    //////////////////////\n\n    function checkAction(uint8 _turnNumber) internal {\n        require(gameState != GameState.COMPLETE, \"Game is ended\");\n        if (msg.sender == player1) {\n            require(gameState == GameState.P1_TO_MOVE, \"Not p1's turn\");\n        }\n        if (msg.sender == player2) {\n            require(gameState == GameState.P2_TO_MOVE, \"Not p2's turn\");\n        }\n        require(_turnNumber == turnNumber, \"Wrong turn number\");\n    }\n\n    function joinGame() public {\n        require(\n            gameState == GameState.WAITING_FOR_PLAYERS,\n            \"Game already started\"\n        );\n        if (player1 == address(0)) {\n            // first player to join game\n            player1 = msg.sender;\n            return;\n        }\n        // another player has joined. game is ready to start\n\n        require(msg.sender != player1, \"can't join game twice\");\n        // randomize player order\n        if (block.timestamp % 2 == 0) {\n            player2 = msg.sender;\n        } else {\n            player2 = player1;\n            player1 = msg.sender;\n        }\n\n        // set pieces\n        for (uint8 i = 1; i < 5; i++) {\n            pieces[i].owner = player1;\n        }\n        for (uint8 i = 5; i < 9; i++) {\n            pieces[i].owner = player2;\n        }\n\n        gameState = GameState.P1_TO_MOVE;\n        emit GameStart(player1, player2);\n    }\n\n    function doSummon(Summon memory summon) public {\n        checkAction(summon.turnNumber);\n        require(!pieces[summon.pieceId].initialized, \"piece ID already in use\");\n\n        // PORT tile\n        uint8 homeRow = 0;\n        uint8 homeCol = 3;\n        if (msg.sender == player2) {\n            homeRow = 6;\n        }\n        if (summon.pieceType != PieceType.GHOST) {\n            require(\n                summon.row < BOARD_SIZE && summon.col < BOARD_SIZE,\n                \"not in bounds\"\n            );\n            // if visible piece, can't summon on existing piece\n            uint8 pieceIdAtSummonTile = boardPieces[summon.row][summon.col];\n            Piece storage pieceAtSummonTile = pieces[pieceIdAtSummonTile];\n            require(\n                !pieceAtSummonTile.alive,\n                \"tried to summon onto an existing piece\"\n            );\n            // must summon adjacent to the PORT tile\n            require(\n                taxiDist(summon.row, summon.col, homeRow, homeCol) == 1,\n                \"can't summon there\"\n            );\n        }\n        if (summon.pieceType == PieceType.GHOST) {\n            if (!DISABLE_ZK_CHECK) {\n                require(\n                    summon.zkp.input[1] == homeRow &&\n                        summon.zkp.input[2] == homeCol,\n                    \"invalid ZK proof: invalid port\"\n                );\n                require(\n                    summon.zkp.input[3] == 1,\n                    \"invalid ZK proof: can only summon next to port\"\n                );\n                require(\n                    summon.zkp.input[4] == BOARD_SIZE,\n                    \"invalid ZK proof: invalid board size\"\n                );\n                require(\n                    Verifier.verifyDist1Proof(\n                        summon.zkp.a,\n                        summon.zkp.b,\n                        summon.zkp.c,\n                        summon.zkp.input\n                    ),\n                    \"Failed ZK summon check\"\n                );\n            }\n        }\n        pieces[summon.pieceId] = Piece({\n            id: summon.pieceId,\n            pieceType: summon.pieceType,\n            owner: msg.sender,\n            row: summon.row,\n            col: summon.col,\n            alive: true,\n            commitment: summon.zkp.input[0],\n            initialized: true\n        });\n        pieceIds.push(summon.pieceId);\n        boardPieces[summon.row][summon.col] = summon.pieceId;\n        // if piece has just been made, can't use it yet\n        // in the future this should be tracked in its own field\n        hasMoved[summon.turnNumber][summon.pieceId] = true;\n        hasAttacked[summon.turnNumber][summon.pieceId] = true;\n        emit ActionMade(msg.sender);\n    }\n\n    function doMove(Move memory move) public {\n        checkAction(move.turnNumber);\n        Piece storage piece = pieces[move.pieceId];\n        require(\n            piece.owner == msg.sender && piece.owner != address(0),\n            \"can't move opponent's piece\"\n        );\n        require(piece.alive, \"Piece is dead\");\n        require(!hasMoved[move.turnNumber][piece.id], \"piece already moved\");\n        require(!hasAttacked[move.turnNumber][piece.id], \"piece already acted\");\n\n        if (piece.pieceType == PieceType.GHOST) {\n            require(piece.commitment == move.zkp.input[0], \"ZK Proof invalid\");\n            require(move.zkp.input[3] == BOARD_SIZE);\n            // TODO: check that move is within pieceType's move range\n            if (!DISABLE_ZK_CHECK) {\n                require(\n                    Verifier.verifyDist2Proof(\n                        move.zkp.a,\n                        move.zkp.b,\n                        move.zkp.c,\n                        move.zkp.input\n                    ),\n                    \"Failed zk move check\"\n                );\n            }\n            piece.commitment = move.zkp.input[1];\n        } else {\n            uint8[] memory moveToRow = move.moveToRow;\n            uint8[] memory moveToCol = move.moveToCol;\n            require(isValidMove(piece, moveToRow, moveToCol), \"Invalid move\");\n            uint8 toRow = moveToRow[moveToRow.length - 1];\n            uint8 toCol = moveToCol[moveToCol.length - 1];\n            boardPieces[piece.row][piece.col] = 0;\n            boardPieces[toRow][toCol] = piece.id;\n            piece.row = toRow;\n            piece.col = toCol;\n        }\n        hasMoved[move.turnNumber][piece.id] = true;\n        emit ActionMade(msg.sender);\n    }\n\n    function endTurn(uint8 _turnNumber) public {\n        checkAction(_turnNumber);\n        if (msg.sender == player1) {\n            // change to p2's turn\n            gameState = GameState.P2_TO_MOVE;\n        } else {\n            // change to p1's turn\n            turnNumber++;\n            gameState = GameState.P1_TO_MOVE;\n        }\n        emit ActionMade(msg.sender);\n\n        if (gameShouldBeCompleted()) {\n            gameState = GameState.COMPLETE;\n            emit GameFinished();\n        }\n    }\n}\n",
  "sourcePath": "/Users/bgu/zk-chess/eth/contracts/ZKChessGame.sol",
  "compiler": {
    "name": "solc",
    "version": "0.6.7+commit.b8d736ae.Emscripten.clang"
  },
  "schemaVersion": "3.3.1",
  "updatedAt": "2020-11-10T02:37:07.599Z",
  "networkType": "ethereum",
  "devdoc": {
    "methods": {}
  },
  "userdoc": {
    "methods": {
      "getPieces()": {
        "notice": "//////////// GETTERS /// ////////////"
      }
    }
  }
}