{
  "contractName": "ZKChessGameFactory",
  "abi": [
    {
      "inputs": [
        {
          "internalType": "address",
          "name": "_implementationContract",
          "type": "address"
        }
      ],
      "stateMutability": "nonpayable",
      "type": "constructor"
    },
    {
      "anonymous": false,
      "inputs": [
        {
          "indexed": false,
          "internalType": "uint256",
          "name": "gameId",
          "type": "uint256"
        }
      ],
      "name": "CreatedGame",
      "type": "event"
    },
    {
      "inputs": [
        {
          "internalType": "uint256",
          "name": "",
          "type": "uint256"
        }
      ],
      "name": "gameIdToAddr",
      "outputs": [
        {
          "internalType": "address",
          "name": "",
          "type": "address"
        }
      ],
      "stateMutability": "view",
      "type": "function",
      "constant": true
    },
    {
      "inputs": [
        {
          "internalType": "uint256",
          "name": "",
          "type": "uint256"
        }
      ],
      "name": "gameIds",
      "outputs": [
        {
          "internalType": "uint256",
          "name": "",
          "type": "uint256"
        }
      ],
      "stateMutability": "view",
      "type": "function",
      "constant": true
    },
    {
      "inputs": [],
      "name": "implementationContract",
      "outputs": [
        {
          "internalType": "address",
          "name": "",
          "type": "address"
        }
      ],
      "stateMutability": "view",
      "type": "function",
      "constant": true
    },
    {
      "inputs": [],
      "name": "getAllGameIds",
      "outputs": [
        {
          "internalType": "uint256[]",
          "name": "",
          "type": "uint256[]"
        }
      ],
      "stateMutability": "view",
      "type": "function",
      "constant": true
    },
    {
      "inputs": [
        {
          "internalType": "uint256",
          "name": "gameId",
          "type": "uint256"
        }
      ],
      "name": "createGame",
      "outputs": [
        {
          "internalType": "address",
          "name": "",
          "type": "address"
        }
      ],
      "stateMutability": "nonpayable",
      "type": "function"
    }
  ],
  "bytecode": "0x608060405234801561001057600080fd5b506040516107d43803806107d48339818101604052810190610032919061008d565b806000806101000a81548173ffffffffffffffffffffffffffffffffffffffff021916908373ffffffffffffffffffffffffffffffffffffffff160217905550506100ff565b600081519050610087816100e8565b92915050565b60006020828403121561009f57600080fd5b60006100ad84828501610078565b91505092915050565b60006100c1826100c8565b9050919050565b600073ffffffffffffffffffffffffffffffffffffffff82169050919050565b6100f1816100b6565b81146100fc57600080fd5b50565b6106c68061010e6000396000f3fe608060405234801561001057600080fd5b50600436106100575760003560e01c806348e837b91461005c5780636999700c1461008c5780636b3d2cbb146100bc57806399e7d056146100da578063d82c13f0146100f8575b600080fd5b6100766004803603810190610071919061046f565b610128565b604051610083919061057b565b60405180910390f35b6100a660048036038101906100a1919061046f565b61031f565b6040516100b3919061057b565b60405180910390f35b6100c4610352565b6040516100d19190610596565b60405180910390f35b6100e26103aa565b6040516100ef919061057b565b60405180910390f35b610112600480360381019061010d919061046f565b6103cf565b60405161011f91906105d8565b60405180910390f35b60008073ffffffffffffffffffffffffffffffffffffffff166001600084815260200190815260200160002060009054906101000a900473ffffffffffffffffffffffffffffffffffffffff1673ffffffffffffffffffffffffffffffffffffffff16146101cb576040517f08c379a00000000000000000000000000000000000000000000000000000000081526004016101c2906105b8565b60405180910390fd5b60006101f76000809054906101000a900473ffffffffffffffffffffffffffffffffffffffff166103f0565b90508073ffffffffffffffffffffffffffffffffffffffff1663fe4b84df846040518263ffffffff1660e01b815260040161023291906105d8565b600060405180830381600087803b15801561024c57600080fd5b505af1158015610260573d6000803e3d6000fd5b505050506002839080600181540180825580915050600190039060005260206000200160009091909190915055806001600085815260200190815260200160002060006101000a81548173ffffffffffffffffffffffffffffffffffffffff021916908373ffffffffffffffffffffffffffffffffffffffff1602179055507f99146aff770fef32e56c26f3d6a16a798454c52bcf1c392f0223a2aaa350e6df8360405161030e91906105d8565b60405180910390a180915050919050565b60016020528060005260406000206000915054906101000a900473ffffffffffffffffffffffffffffffffffffffff1681565b606060028054806020026020016040519081016040528092919081815260200182805480156103a057602002820191906000526020600020905b81548152602001906001019080831161038c575b5050505050905090565b6000809054906101000a900473ffffffffffffffffffffffffffffffffffffffff1681565b600281815481106103dc57fe5b906000526020600020016000915090505481565b6000808260601b90506040517f3d602d80600a3d3981f3363d3d373d3d3d363d7300000000000000000000000081528160148201527f5af43d82803e903d91602b57fd5bf3000000000000000000000000000000000060288201526037816000f092505050919050565b60008135905061046981610679565b92915050565b60006020828403121561048157600080fd5b600061048f8482850161045a565b91505092915050565b60006104a4838361055d565b60208301905092915050565b6104b98161063d565b82525050565b60006104ca82610603565b6104d4818561061b565b93506104df836105f3565b8060005b838110156105105781516104f78882610498565b97506105028361060e565b9250506001810190506104e3565b5085935050505092915050565b600061052a60208361062c565b91507f67616d652077697468207468617420494420616c7265616479206578697374736000830152602082019050919050565b6105668161066f565b82525050565b6105758161066f565b82525050565b600060208201905061059060008301846104b0565b92915050565b600060208201905081810360008301526105b081846104bf565b905092915050565b600060208201905081810360008301526105d18161051d565b9050919050565b60006020820190506105ed600083018461056c565b92915050565b6000819050602082019050919050565b600081519050919050565b6000602082019050919050565b600082825260208201905092915050565b600082825260208201905092915050565b60006106488261064f565b9050919050565b600073ffffffffffffffffffffffffffffffffffffffff82169050919050565b6000819050919050565b6106828161066f565b811461068d57600080fd5b5056fea26469706673582212205b3083a20e0fd66b49bb765a5a2c0392c304ac510cadb533293b58247526750264736f6c63430006070033",
  "immutableReferences": {},
  "source": "pragma solidity ^0.6.7;\npragma experimental ABIEncoderV2;\n\nimport \"./ZKChessGame.sol\";\nimport \"./CloneFactory.sol\";\n\ncontract ZKChessGameFactory is CloneFactory {\n    address public implementationContract;\n\n    mapping(uint256 => address) public gameIdToAddr;\n    uint256[] public gameIds;\n\n    event CreatedGame(uint256 gameId);\n\n    constructor(address _implementationContract) public {\n        implementationContract = _implementationContract;\n    }\n\n    function getAllGameIds() public view returns (uint256[] memory) {\n        return gameIds;\n    }\n\n    function createGame(uint256 gameId) public returns (address) {\n        require(\n            gameIdToAddr[gameId] == address(0),\n            \"game with that ID already exists\"\n        );\n        address proxy = createClone(implementationContract);\n        ZKChessGame(proxy).initialize(gameId);\n        gameIds.push(gameId);\n        gameIdToAddr[gameId] = proxy;\n        emit CreatedGame(gameId);\n        return proxy;\n    }\n}\n",
  "sourcePath": "/Users/bgu/zk-chess/eth/contracts/ZKChessGameFactory.sol",
  "compiler": {
    "name": "solc",
    "version": "0.6.7+commit.b8d736ae.Emscripten.clang"
  },
  "schemaVersion": "3.3.1",
  "updatedAt": "2020-11-13T21:50:45.256Z",
  "networkType": "ethereum",
  "devdoc": {
    "methods": {}
  },
  "userdoc": {
    "methods": {}
  }
}