{
  "contractName": "ZKChessGame",
  "abi": [
    {
      "anonymous": false,
      "inputs": [],
      "name": "GameFinished",
      "type": "event"
    },
    {
      "anonymous": false,
      "inputs": [
        {
          "indexed": false,
          "internalType": "address",
          "name": "p1",
          "type": "address"
        },
        {
          "indexed": false,
          "internalType": "address",
          "name": "p2",
          "type": "address"
        }
      ],
      "name": "GameStart",
      "type": "event"
    },
    {
      "anonymous": false,
      "inputs": [
        {
          "indexed": false,
          "internalType": "address",
          "name": "player",
          "type": "address"
        }
      ],
      "name": "MoveMade",
      "type": "event"
    },
    {
      "anonymous": false,
      "inputs": [
        {
          "indexed": false,
          "internalType": "uint256",
          "name": "pfsAccepted",
          "type": "uint256"
        }
      ],
      "name": "ProofVerified",
      "type": "event"
    },
    {
      "inputs": [],
      "name": "BOARD_SIZE",
      "outputs": [
        {
          "internalType": "uint256",
          "name": "",
          "type": "uint256"
        }
      ],
      "stateMutability": "view",
      "type": "function",
      "constant": true
    },
    {
      "inputs": [],
      "name": "DISABLE_ZK_CHECK",
      "outputs": [
        {
          "internalType": "bool",
          "name": "",
          "type": "bool"
        }
      ],
      "stateMutability": "view",
      "type": "function",
      "constant": true
    },
    {
      "inputs": [],
      "name": "FIELD_SIZE",
      "outputs": [
        {
          "internalType": "uint256",
          "name": "",
          "type": "uint256"
        }
      ],
      "stateMutability": "view",
      "type": "function",
      "constant": true
    },
    {
      "inputs": [],
      "name": "GHOST_START_COMMITMENT",
      "outputs": [
        {
          "internalType": "uint256",
          "name": "",
          "type": "uint256"
        }
      ],
      "stateMutability": "view",
      "type": "function",
      "constant": true
    },
    {
      "inputs": [
        {
          "internalType": "uint256",
          "name": "",
          "type": "uint256"
        },
        {
          "internalType": "uint256",
          "name": "",
          "type": "uint256"
        }
      ],
      "name": "boardObjectives",
      "outputs": [
        {
          "internalType": "uint8",
          "name": "",
          "type": "uint8"
        }
      ],
      "stateMutability": "view",
      "type": "function",
      "constant": true
    },
    {
      "inputs": [
        {
          "internalType": "uint256",
          "name": "",
          "type": "uint256"
        },
        {
          "internalType": "uint256",
          "name": "",
          "type": "uint256"
        }
      ],
      "name": "boardPieces",
      "outputs": [
        {
          "internalType": "uint8",
          "name": "",
          "type": "uint8"
        }
      ],
      "stateMutability": "view",
      "type": "function",
      "constant": true
    },
    {
      "inputs": [],
      "name": "gameId",
      "outputs": [
        {
          "internalType": "uint256",
          "name": "",
          "type": "uint256"
        }
      ],
      "stateMutability": "view",
      "type": "function",
      "constant": true
    },
    {
      "inputs": [],
      "name": "gameState",
      "outputs": [
        {
          "internalType": "enum GameState",
          "name": "",
          "type": "uint8"
        }
      ],
      "stateMutability": "view",
      "type": "function",
      "constant": true
    },
    {
      "inputs": [
        {
          "internalType": "uint8",
          "name": "",
          "type": "uint8"
        },
        {
          "internalType": "uint8",
          "name": "",
          "type": "uint8"
        }
      ],
      "name": "hasAttacked",
      "outputs": [
        {
          "internalType": "bool",
          "name": "",
          "type": "bool"
        }
      ],
      "stateMutability": "view",
      "type": "function",
      "constant": true
    },
    {
      "inputs": [
        {
          "internalType": "uint8",
          "name": "",
          "type": "uint8"
        },
        {
          "internalType": "uint8",
          "name": "",
          "type": "uint8"
        }
      ],
      "name": "hasMoved",
      "outputs": [
        {
          "internalType": "bool",
          "name": "",
          "type": "bool"
        }
      ],
      "stateMutability": "view",
      "type": "function",
      "constant": true
    },
    {
      "inputs": [
        {
          "internalType": "uint256",
          "name": "",
          "type": "uint256"
        }
      ],
      "name": "objectiveIds",
      "outputs": [
        {
          "internalType": "uint8",
          "name": "",
          "type": "uint8"
        }
      ],
      "stateMutability": "view",
      "type": "function",
      "constant": true
    },
    {
      "inputs": [
        {
          "internalType": "uint8",
          "name": "",
          "type": "uint8"
        }
      ],
      "name": "objectives",
      "outputs": [
        {
          "internalType": "uint8",
          "name": "id",
          "type": "uint8"
        },
        {
          "internalType": "uint8",
          "name": "value",
          "type": "uint8"
        },
        {
          "internalType": "uint8",
          "name": "row",
          "type": "uint8"
        },
        {
          "internalType": "uint8",
          "name": "col",
          "type": "uint8"
        },
        {
          "internalType": "address",
          "name": "capturedBy",
          "type": "address"
        }
      ],
      "stateMutability": "view",
      "type": "function",
      "constant": true
    },
    {
      "inputs": [
        {
          "internalType": "uint256",
          "name": "",
          "type": "uint256"
        }
      ],
      "name": "pieceIds",
      "outputs": [
        {
          "internalType": "uint8",
          "name": "",
          "type": "uint8"
        }
      ],
      "stateMutability": "view",
      "type": "function",
      "constant": true
    },
    {
      "inputs": [
        {
          "internalType": "uint8",
          "name": "",
          "type": "uint8"
        }
      ],
      "name": "pieces",
      "outputs": [
        {
          "internalType": "uint8",
          "name": "id",
          "type": "uint8"
        },
        {
          "internalType": "enum PieceType",
          "name": "pieceType",
          "type": "uint8"
        },
        {
          "internalType": "address",
          "name": "owner",
          "type": "address"
        },
        {
          "internalType": "uint8",
          "name": "row",
          "type": "uint8"
        },
        {
          "internalType": "uint8",
          "name": "col",
          "type": "uint8"
        },
        {
          "internalType": "bool",
          "name": "alive",
          "type": "bool"
        },
        {
          "internalType": "uint256",
          "name": "commitment",
          "type": "uint256"
        }
      ],
      "stateMutability": "view",
      "type": "function",
      "constant": true
    },
    {
      "inputs": [],
      "name": "player1",
      "outputs": [
        {
          "internalType": "address",
          "name": "",
          "type": "address"
        }
      ],
      "stateMutability": "view",
      "type": "function",
      "constant": true
    },
    {
      "inputs": [],
      "name": "player1Score",
      "outputs": [
        {
          "internalType": "uint8",
          "name": "",
          "type": "uint8"
        }
      ],
      "stateMutability": "view",
      "type": "function",
      "constant": true
    },
    {
      "inputs": [],
      "name": "player2",
      "outputs": [
        {
          "internalType": "address",
          "name": "",
          "type": "address"
        }
      ],
      "stateMutability": "view",
      "type": "function",
      "constant": true
    },
    {
      "inputs": [],
      "name": "player2Score",
      "outputs": [
        {
          "internalType": "uint8",
          "name": "",
          "type": "uint8"
        }
      ],
      "stateMutability": "view",
      "type": "function",
      "constant": true
    },
    {
      "inputs": [],
      "name": "turnNumber",
      "outputs": [
        {
          "internalType": "uint8",
          "name": "",
          "type": "uint8"
        }
      ],
      "stateMutability": "view",
      "type": "function",
      "constant": true
    },
    {
      "inputs": [
        {
          "internalType": "uint256",
          "name": "_gameId",
          "type": "uint256"
        },
        {
          "internalType": "bool",
          "name": "_disableZKCheck",
          "type": "bool"
        }
      ],
      "name": "initialize",
      "outputs": [],
      "stateMutability": "nonpayable",
      "type": "function"
    },
    {
      "inputs": [],
      "name": "getPieces",
      "outputs": [
        {
          "components": [
            {
              "internalType": "uint8",
              "name": "id",
              "type": "uint8"
            },
            {
              "internalType": "enum PieceType",
              "name": "pieceType",
              "type": "uint8"
            },
            {
              "internalType": "address",
              "name": "owner",
              "type": "address"
            },
            {
              "internalType": "uint8",
              "name": "row",
              "type": "uint8"
            },
            {
              "internalType": "uint8",
              "name": "col",
              "type": "uint8"
            },
            {
              "internalType": "bool",
              "name": "alive",
              "type": "bool"
            },
            {
              "internalType": "uint256",
              "name": "commitment",
              "type": "uint256"
            }
          ],
          "internalType": "struct Piece[]",
          "name": "ret",
          "type": "tuple[]"
        }
      ],
      "stateMutability": "view",
      "type": "function",
      "constant": true
    },
    {
      "inputs": [],
      "name": "getObjectives",
      "outputs": [
        {
          "components": [
            {
              "internalType": "uint8",
              "name": "id",
              "type": "uint8"
            },
            {
              "internalType": "uint8",
              "name": "value",
              "type": "uint8"
            },
            {
              "internalType": "uint8",
              "name": "row",
              "type": "uint8"
            },
            {
              "internalType": "uint8",
              "name": "col",
              "type": "uint8"
            },
            {
              "internalType": "address",
              "name": "capturedBy",
              "type": "address"
            }
          ],
          "internalType": "struct Objective[]",
          "name": "ret",
          "type": "tuple[]"
        }
      ],
      "stateMutability": "view",
      "type": "function",
      "constant": true
    },
    {
      "inputs": [
        {
          "components": [
            {
              "internalType": "uint8",
              "name": "id",
              "type": "uint8"
            },
            {
              "internalType": "enum PieceType",
              "name": "pieceType",
              "type": "uint8"
            },
            {
              "internalType": "address",
              "name": "owner",
              "type": "address"
            },
            {
              "internalType": "uint8",
              "name": "row",
              "type": "uint8"
            },
            {
              "internalType": "uint8",
              "name": "col",
              "type": "uint8"
            },
            {
              "internalType": "bool",
              "name": "alive",
              "type": "bool"
            },
            {
              "internalType": "uint256",
              "name": "commitment",
              "type": "uint256"
            }
          ],
          "internalType": "struct Piece",
          "name": "piece",
          "type": "tuple"
        },
        {
          "internalType": "uint8[]",
          "name": "toRow",
          "type": "uint8[]"
        },
        {
          "internalType": "uint8[]",
          "name": "toCol",
          "type": "uint8[]"
        }
      ],
      "name": "isValidMove",
      "outputs": [
        {
          "internalType": "bool",
          "name": "",
          "type": "bool"
        }
      ],
      "stateMutability": "view",
      "type": "function",
      "constant": true
    },
    {
      "inputs": [],
      "name": "gameShouldBeCompleted",
      "outputs": [
        {
          "internalType": "bool",
          "name": "",
          "type": "bool"
        }
      ],
      "stateMutability": "view",
      "type": "function",
      "constant": true
    },
    {
      "inputs": [],
      "name": "joinGame",
      "outputs": [],
      "stateMutability": "nonpayable",
      "type": "function"
    },
    {
      "inputs": [
        {
          "components": [
            {
              "internalType": "uint8",
              "name": "turnNumber",
              "type": "uint8"
            },
            {
              "internalType": "uint8",
              "name": "pieceId",
              "type": "uint8"
            },
            {
              "internalType": "uint8[]",
              "name": "moveToRow",
              "type": "uint8[]"
            },
            {
              "internalType": "uint8[]",
              "name": "moveToCol",
              "type": "uint8[]"
            },
            {
              "components": [
                {
                  "internalType": "uint256[2]",
                  "name": "a",
                  "type": "uint256[2]"
                },
                {
                  "internalType": "uint256[2][2]",
                  "name": "b",
                  "type": "uint256[2][2]"
                },
                {
                  "internalType": "uint256[2]",
                  "name": "c",
                  "type": "uint256[2]"
                },
                {
                  "internalType": "uint256[2]",
                  "name": "input",
                  "type": "uint256[2]"
                }
              ],
              "internalType": "struct MoveZKP",
              "name": "zkp",
              "type": "tuple"
            }
          ],
          "internalType": "struct Move",
          "name": "move",
          "type": "tuple"
        }
      ],
      "name": "doMove",
      "outputs": [],
      "stateMutability": "nonpayable",
      "type": "function"
    },
    {
      "inputs": [
        {
          "internalType": "uint8",
          "name": "_turnNumber",
          "type": "uint8"
        }
      ],
      "name": "endTurn",
      "outputs": [],
      "stateMutability": "nonpayable",
      "type": "function"
    }
  ],
  "bytecode": "0x608060405234801561001057600080fd5b5061565380620000216000396000f3fe608060405234801561001057600080fd5b50600436106101a95760003560e01c8063acbc1a91116100f9578063d30895e411610097578063dc4a3e9511610071578063dc4a3e95146104d0578063df54a928146104ee578063e4ecc4541461051e578063ee5d8a711461053a576101a9565b8063d30895e41461048a578063d4f77b1c146104a8578063d7c81b55146104b2576101a9565b8063c6204ee2116100d3578063c6204ee2146103ee578063cf615f6c1461041e578063cfecc6de1461043c578063d1f9c24d1461046c576101a9565b8063acbc1a9114610382578063b0228246146103a0578063bd91fdb4146103d0576101a9565b80635700401e116101665780637174f2c0116101405780637174f2c0146102f85780637e15247d1461031657806381cb97ca146103345780638af9d56214610364576101a9565b80635700401e1461028857806359a5f12d146102a65780635c3beb32146102c4576101a9565b806327964666146101ae5780632c784f32146101ca5780633fb7388e14610200578063414a37ba1461023057806351df541c1461024e5780635595b5d51461026c575b600080fd5b6101c860048036038101906101c39190614566565b61056a565b005b6101e460048036038101906101df91906145de565b611ca6565b6040516101f7979695949392919061527f565b60405180910390f35b61021a600480360381019061021591906145a2565b611d49565b6040516102279190615264565b60405180910390f35b610238611d7f565b6040516102459190615249565b60405180910390f35b610256611da3565b6040516102639190614fd3565b60405180910390f35b610286600480360381019061028191906145de565b611f17565b005b6102906125ba565b60405161029d9190615264565b60405180910390f35b6102ae6125cd565b6040516102bb9190614ee9565b60405180910390f35b6102de60048036038101906102d991906145de565b6125f3565b6040516102ef9594939291906152ee565b60405180910390f35b61030061267d565b60405161030d9190615264565b60405180910390f35b61031e612690565b60405161032b9190614f48565b60405180910390f35b61034e60048036038101906103499190614607565b61283a565b60405161035b9190614fd3565b60405180910390f35b61036c612869565b6040516103799190614fd3565b60405180910390f35b61038a61287c565b6040516103979190615249565b60405180910390f35b6103ba60048036038101906103b591906145a2565b6128a0565b6040516103c79190615264565b60405180910390f35b6103d86128d6565b6040516103e59190615264565b60405180910390f35b6104086004803603810190610403919061453d565b6128e9565b6040516104159190615264565b60405180910390f35b610426612910565b6040516104339190614f6a565b60405180910390f35b6104566004803603810190610451919061453d565b612aef565b6040516104639190615264565b60405180910390f35b610474612b16565b6040516104819190614fee565b60405180910390f35b610492612b29565b60405161049f9190614ee9565b60405180910390f35b6104b0612b4f565b005b6104ba612fc3565b6040516104c79190615249565b60405180910390f35b6104d8612fc9565b6040516104e59190615249565b60405180910390f35b61050860048036038101906105039190614607565b612fce565b6040516105159190614fd3565b60405180910390f35b6105386004803603810190610533919061447b565b612ffd565b005b610554600480360381019061054f91906144bc565b613b7a565b6040516105619190614fd3565b60405180910390f35b8160338190555080604760006101000a81548160ff0219169083151502179055506000603460016101000a81548160ff021916908360038111156105aa57fe5b0217905550604051806101000160405280600160ff168152602001600260ff168152602001600360ff168152602001600460ff168152602001600560ff168152602001600660ff168152602001600760ff168152602001600860ff168152506043906008610619929190613e6c565b506040518060c00160405280600960ff168152602001600a60ff168152602001600b60ff168152602001600c60ff168152602001600d60ff168152602001600e60ff16815250604590600661066f929190613f06565b506040518060e00160405280600160ff1681526020016000600281111561069257fe5b8152602001600073ffffffffffffffffffffffffffffffffffffffff168152602001600060ff168152602001600160ff168152602001600115158152602001600081525060446000600160ff16815260200190815260200160002060008201518160000160006101000a81548160ff021916908360ff16021790555060208201518160000160016101000a81548160ff0219169083600281111561073257fe5b021790555060408201518160000160026101000a81548173ffffffffffffffffffffffffffffffffffffffff021916908373ffffffffffffffffffffffffffffffffffffffff16021790555060608201518160000160166101000a81548160ff021916908360ff16021790555060808201518160000160176101000a81548160ff021916908360ff16021790555060a08201518160000160186101000a81548160ff02191690831515021790555060c08201518160010155905050600160356000600781106107fd57fe5b0160016007811061080a57fe5b602091828204019190066101000a81548160ff021916908360ff1602179055506040518060e00160405280600260ff1681526020016001600281111561084c57fe5b8152602001600073ffffffffffffffffffffffffffffffffffffffff168152602001600060ff168152602001600360ff168152602001600115158152602001600081525060446000600260ff16815260200190815260200160002060008201518160000160006101000a81548160ff021916908360ff16021790555060208201518160000160016101000a81548160ff021916908360028111156108ec57fe5b021790555060408201518160000160026101000a81548173ffffffffffffffffffffffffffffffffffffffff021916908373ffffffffffffffffffffffffffffffffffffffff16021790555060608201518160000160166101000a81548160ff021916908360ff16021790555060808201518160000160176101000a81548160ff021916908360ff16021790555060a08201518160000160186101000a81548160ff02191690831515021790555060c08201518160010155905050600260356000600781106109b757fe5b016003600781106109c457fe5b602091828204019190066101000a81548160ff021916908360ff1602179055506040518060e00160405280600360ff16815260200160006002811115610a0657fe5b8152602001600073ffffffffffffffffffffffffffffffffffffffff168152602001600060ff168152602001600560ff168152602001600115158152602001600081525060446000600360ff16815260200190815260200160002060008201518160000160006101000a81548160ff021916908360ff16021790555060208201518160000160016101000a81548160ff02191690836002811115610aa657fe5b021790555060408201518160000160026101000a81548173ffffffffffffffffffffffffffffffffffffffff021916908373ffffffffffffffffffffffffffffffffffffffff16021790555060608201518160000160166101000a81548160ff021916908360ff16021790555060808201518160000160176101000a81548160ff021916908360ff16021790555060a08201518160000160186101000a81548160ff02191690831515021790555060c0820151816001015590505060036035600060078110610b7157fe5b01600560078110610b7e57fe5b602091828204019190066101000a81548160ff021916908360ff1602179055506040518060e00160405280600460ff168152602001600280811115610bbf57fe5b8152602001600073ffffffffffffffffffffffffffffffffffffffff168152602001600060ff168152602001600060ff1681526020016001151581526020017f104ddaefd01036b8465b22025720f944733190135fd4ed564186bc3cfcaec72281525060446000600460ff16815260200190815260200160002060008201518160000160006101000a81548160ff021916908360ff16021790555060208201518160000160016101000a81548160ff02191690836002811115610c7e57fe5b021790555060408201518160000160026101000a81548173ffffffffffffffffffffffffffffffffffffffff021916908373ffffffffffffffffffffffffffffffffffffffff16021790555060608201518160000160166101000a81548160ff021916908360ff16021790555060808201518160000160176101000a81548160ff021916908360ff16021790555060a08201518160000160186101000a81548160ff02191690831515021790555060c082015181600101559050506040518060e00160405280600560ff16815260200160006002811115610d5b57fe5b8152602001600073ffffffffffffffffffffffffffffffffffffffff168152602001600660ff168152602001600160ff168152602001600115158152602001600081525060446000600560ff16815260200190815260200160002060008201518160000160006101000a81548160ff021916908360ff16021790555060208201518160000160016101000a81548160ff02191690836002811115610dfb57fe5b021790555060408201518160000160026101000a81548173ffffffffffffffffffffffffffffffffffffffff021916908373ffffffffffffffffffffffffffffffffffffffff16021790555060608201518160000160166101000a81548160ff021916908360ff16021790555060808201518160000160176101000a81548160ff021916908360ff16021790555060a08201518160000160186101000a81548160ff02191690831515021790555060c0820151816001015590505060056035600660078110610ec657fe5b01600160078110610ed357fe5b602091828204019190066101000a81548160ff021916908360ff1602179055506040518060e00160405280600660ff16815260200160016002811115610f1557fe5b8152602001600073ffffffffffffffffffffffffffffffffffffffff168152602001600660ff168152602001600360ff168152602001600115158152602001600081525060446000600660ff16815260200190815260200160002060008201518160000160006101000a81548160ff021916908360ff16021790555060208201518160000160016101000a81548160ff02191690836002811115610fb557fe5b021790555060408201518160000160026101000a81548173ffffffffffffffffffffffffffffffffffffffff021916908373ffffffffffffffffffffffffffffffffffffffff16021790555060608201518160000160166101000a81548160ff021916908360ff16021790555060808201518160000160176101000a81548160ff021916908360ff16021790555060a08201518160000160186101000a81548160ff02191690831515021790555060c082015181600101559050506006603560066007811061108057fe5b0160036007811061108d57fe5b602091828204019190066101000a81548160ff021916908360ff1602179055506040518060e00160405280600760ff168152602001600060028111156110cf57fe5b8152602001600073ffffffffffffffffffffffffffffffffffffffff168152602001600660ff168152602001600560ff168152602001600115158152602001600081525060446000600760ff16815260200190815260200160002060008201518160000160006101000a81548160ff021916908360ff16021790555060208201518160000160016101000a81548160ff0219169083600281111561116f57fe5b021790555060408201518160000160026101000a81548173ffffffffffffffffffffffffffffffffffffffff021916908373ffffffffffffffffffffffffffffffffffffffff16021790555060608201518160000160166101000a81548160ff021916908360ff16021790555060808201518160000160176101000a81548160ff021916908360ff16021790555060a08201518160000160186101000a81548160ff02191690831515021790555060c082015181600101559050506007603560066007811061123a57fe5b0160056007811061124757fe5b602091828204019190066101000a81548160ff021916908360ff1602179055506040518060e00160405280600860ff16815260200160028081111561128857fe5b8152602001600073ffffffffffffffffffffffffffffffffffffffff168152602001600660ff168152602001600060ff1681526020016001151581526020017f104ddaefd01036b8465b22025720f944733190135fd4ed564186bc3cfcaec72281525060446000600860ff16815260200190815260200160002060008201518160000160006101000a81548160ff021916908360ff16021790555060208201518160000160016101000a81548160ff0219169083600281111561134757fe5b021790555060408201518160000160026101000a81548173ffffffffffffffffffffffffffffffffffffffff021916908373ffffffffffffffffffffffffffffffffffffffff16021790555060608201518160000160166101000a81548160ff021916908360ff16021790555060808201518160000160176101000a81548160ff021916908360ff16021790555060a08201518160000160186101000a81548160ff02191690831515021790555060c082015181600101559050506040518060a00160405280600960ff168152602001600560ff168152602001600360ff168152602001600060ff168152602001600073ffffffffffffffffffffffffffffffffffffffff1681525060466000600960ff16815260200190815260200160002060008201518160000160006101000a81548160ff021916908360ff16021790555060208201518160000160016101000a81548160ff021916908360ff16021790555060408201518160000160026101000a81548160ff021916908360ff16021790555060608201518160000160036101000a81548160ff021916908360ff16021790555060808201518160000160046101000a81548173ffffffffffffffffffffffffffffffffffffffff021916908373ffffffffffffffffffffffffffffffffffffffff1602179055509050506009603c60036007811061154557fe5b0160006007811061155257fe5b602091828204019190066101000a81548160ff021916908360ff1602179055506040518060a00160405280600a60ff168152602001600560ff168152602001600260ff168152602001600260ff168152602001600073ffffffffffffffffffffffffffffffffffffffff1681525060466000600a60ff16815260200190815260200160002060008201518160000160006101000a81548160ff021916908360ff16021790555060208201518160000160016101000a81548160ff021916908360ff16021790555060408201518160000160026101000a81548160ff021916908360ff16021790555060608201518160000160036101000a81548160ff021916908360ff16021790555060808201518160000160046101000a81548173ffffffffffffffffffffffffffffffffffffffff021916908373ffffffffffffffffffffffffffffffffffffffff160217905550905050600a603c6002600781106116b557fe5b016002600781106116c257fe5b602091828204019190066101000a81548160ff021916908360ff1602179055506040518060a00160405280600b60ff168152602001600a60ff168152602001600460ff168152602001600260ff168152602001600073ffffffffffffffffffffffffffffffffffffffff1681525060466000600b60ff16815260200190815260200160002060008201518160000160006101000a81548160ff021916908360ff16021790555060208201518160000160016101000a81548160ff021916908360ff16021790555060408201518160000160026101000a81548160ff021916908360ff16021790555060608201518160000160036101000a81548160ff021916908360ff16021790555060808201518160000160046101000a81548173ffffffffffffffffffffffffffffffffffffffff021916908373ffffffffffffffffffffffffffffffffffffffff160217905550905050600b603c60046007811061182557fe5b0160026007811061183257fe5b602091828204019190066101000a81548160ff021916908360ff1602179055506040518060a00160405280600c60ff168152602001600a60ff168152602001600260ff168152602001600460ff168152602001600073ffffffffffffffffffffffffffffffffffffffff1681525060466000600c60ff16815260200190815260200160002060008201518160000160006101000a81548160ff021916908360ff16021790555060208201518160000160016101000a81548160ff021916908360ff16021790555060408201518160000160026101000a81548160ff021916908360ff16021790555060608201518160000160036101000a81548160ff021916908360ff16021790555060808201518160000160046101000a81548173ffffffffffffffffffffffffffffffffffffffff021916908373ffffffffffffffffffffffffffffffffffffffff160217905550905050600c603c60026007811061199557fe5b016004600781106119a257fe5b602091828204019190066101000a81548160ff021916908360ff1602179055506040518060a00160405280600d60ff168152602001600560ff168152602001600460ff168152602001600460ff168152602001600073ffffffffffffffffffffffffffffffffffffffff1681525060466000600d60ff16815260200190815260200160002060008201518160000160006101000a81548160ff021916908360ff16021790555060208201518160000160016101000a81548160ff021916908360ff16021790555060408201518160000160026101000a81548160ff021916908360ff16021790555060608201518160000160036101000a81548160ff021916908360ff16021790555060808201518160000160046101000a81548173ffffffffffffffffffffffffffffffffffffffff021916908373ffffffffffffffffffffffffffffffffffffffff160217905550905050600d603c600460078110611b0557fe5b01600460078110611b1257fe5b602091828204019190066101000a81548160ff021916908360ff1602179055506040518060a00160405280600e60ff168152602001600560ff168152602001600360ff168152602001600660ff168152602001600073ffffffffffffffffffffffffffffffffffffffff1681525060466000600e60ff16815260200190815260200160002060008201518160000160006101000a81548160ff021916908360ff16021790555060208201518160000160016101000a81548160ff021916908360ff16021790555060408201518160000160026101000a81548160ff021916908360ff16021790555060608201518160000160036101000a81548160ff021916908360ff16021790555060808201518160000160046101000a81548173ffffffffffffffffffffffffffffffffffffffff021916908373ffffffffffffffffffffffffffffffffffffffff160217905550905050600e603c600360078110611c7557fe5b01600660078110611c8257fe5b602091828204019190066101000a81548160ff021916908360ff1602179055505050565b60446020528060005260406000206000915090508060000160009054906101000a900460ff16908060000160019054906101000a900460ff16908060000160029054906101000a900473ffffffffffffffffffffffffffffffffffffffff16908060000160169054906101000a900460ff16908060000160179054906101000a900460ff16908060000160189054906101000a900460ff16908060010154905087565b60358260078110611d5657fe5b018160078110611d6257fe5b60209182820401919006915091509054906101000a900460ff1681565b7f30644e72e131a029b85045b68181585d2833e84879b9709143e1f593f000000181565b6000806001905060008090505b60088160ff161015611e26576044600060438360ff1660088110611dd057fe5b602091828204019190069054906101000a900460ff1660ff1660ff16815260200190815260200160002060000160189054906101000a900460ff1615611e195760009150611e26565b8080600101915050611db0565b508015611e37576001915050611f14565b60006001905060008090505b60068160ff161015611efb57600073ffffffffffffffffffffffffffffffffffffffff166046600060458460ff1660068110611e7b57fe5b602091828204019190069054906101000a900460ff1660ff1660ff16815260200190815260200160002060000160049054906101000a900473ffffffffffffffffffffffffffffffffffffffff1673ffffffffffffffffffffffffffffffffffffffff161415611eee5760009150611efb565b8080600101915050611e43565b508015611f0d57600192505050611f14565b6000925050505b90565b603460009054906101000a900460ff1660ff168160ff1614611f6e576040517f08c379a0000000000000000000000000000000000000000000000000000000008152600401611f65906151e9565b60405180910390fd5b604760019054906101000a900473ffffffffffffffffffffffffffffffffffffffff1673ffffffffffffffffffffffffffffffffffffffff163373ffffffffffffffffffffffffffffffffffffffff16141561225c57600060466000604860179054906101000a900460ff1660ff1660ff168152602001908152602001600020905060008160000160019054906101000a900460ff1660ff161180156120645750600073ffffffffffffffffffffffffffffffffffffffff168160000160049054906101000a900473ffffffffffffffffffffffffffffffffffffffff1673ffffffffffffffffffffffffffffffffffffffff16145b156122165760006044600060358460000160029054906101000a900460ff1660ff166007811061209057fe5b018460000160039054906101000a900460ff1660ff16600781106120b057fe5b602091828204019190069054906101000a900460ff1660ff1660ff1681526020019081526020016000209050604860009054906101000a900473ffffffffffffffffffffffffffffffffffffffff1673ffffffffffffffffffffffffffffffffffffffff168160000160029054906101000a900473ffffffffffffffffffffffffffffffffffffffff1673ffffffffffffffffffffffffffffffffffffffff1614801561216b57508060000160189054906101000a900460ff165b1561221457604860009054906101000a900473ffffffffffffffffffffffffffffffffffffffff168260000160046101000a81548173ffffffffffffffffffffffffffffffffffffffff021916908373ffffffffffffffffffffffffffffffffffffffff1602179055508160000160019054906101000a900460ff16604860158282829054906101000a900460ff160192506101000a81548160ff021916908360ff1602179055505b505b6000604860176101000a81548160ff021916908360ff1602179055506002603460016101000a81548160ff0219169083600381111561225157fe5b021790555050612522565b600060466000604860169054906101000a900460ff1660ff1660ff168152602001908152602001600020905060008160000160019054906101000a900460ff1660ff161180156122fc5750600073ffffffffffffffffffffffffffffffffffffffff168160000160049054906101000a900473ffffffffffffffffffffffffffffffffffffffff1673ffffffffffffffffffffffffffffffffffffffff16145b156124ae5760006044600060358460000160029054906101000a900460ff1660ff166007811061232857fe5b018460000160039054906101000a900460ff1660ff166007811061234857fe5b602091828204019190069054906101000a900460ff1660ff1660ff1681526020019081526020016000209050604760019054906101000a900473ffffffffffffffffffffffffffffffffffffffff1673ffffffffffffffffffffffffffffffffffffffff168160000160029054906101000a900473ffffffffffffffffffffffffffffffffffffffff1673ffffffffffffffffffffffffffffffffffffffff1614801561240357508060000160189054906101000a900460ff165b156124ac57604760019054906101000a900473ffffffffffffffffffffffffffffffffffffffff168260000160046101000a81548173ffffffffffffffffffffffffffffffffffffffff021916908373ffffffffffffffffffffffffffffffffffffffff1602179055508160000160019054906101000a900460ff16604860148282829054906101000a900460ff160192506101000a81548160ff021916908360ff1602179055505b505b6000604860166101000a81548160ff021916908360ff1602179055506034600081819054906101000a900460ff168092919060010191906101000a81548160ff021916908360ff160217905550506001603460016101000a81548160ff0219169083600381111561251b57fe5b0217905550505b7f8eaa9f09cc5e3b56163bc8d93f99b4299c7172f83d51d1448e8d9a3dc6d1a101336040516125519190614f04565b60405180910390a1612561611da3565b156125b7576003603460016101000a81548160ff0219169083600381111561258557fe5b02179055507fb537cbcadc098cfedf5a04ef7e68a8554b55f7e45bfdaca1cbc51a686ef65f4860405160405180910390a15b50565b603460009054906101000a900460ff1681565b604860009054906101000a900473ffffffffffffffffffffffffffffffffffffffff1681565b60466020528060005260406000206000915090508060000160009054906101000a900460ff16908060000160019054906101000a900460ff16908060000160029054906101000a900460ff16908060000160039054906101000a900460ff16908060000160049054906101000a900473ffffffffffffffffffffffffffffffffffffffff16905085565b604860149054906101000a900460ff1681565b6060600667ffffffffffffffff811180156126aa57600080fd5b506040519080825280602002602001820160405280156126e457816020015b6126d1613fa0565b8152602001906001900390816126c95790505b50905060008090505b60068160ff161015612833576046600060458360ff166006811061270d57fe5b602091828204019190069054906101000a900460ff1660ff1660ff1681526020019081526020016000206040518060a00160405290816000820160009054906101000a900460ff1660ff1660ff1681526020016000820160019054906101000a900460ff1660ff1660ff1681526020016000820160029054906101000a900460ff1660ff1660ff1681526020016000820160039054906101000a900460ff1660ff1660ff1681526020016000820160049054906101000a900473ffffffffffffffffffffffffffffffffffffffff1673ffffffffffffffffffffffffffffffffffffffff1673ffffffffffffffffffffffffffffffffffffffff1681525050828260ff168151811061281b57fe5b602002602001018190525080806001019150506126ed565b5080905090565b604a6020528160005260406000206020528060005260406000206000915091509054906101000a900460ff1681565b604760009054906101000a900460ff1681565b7f104ddaefd01036b8465b22025720f944733190135fd4ed564186bc3cfcaec72281565b603c82600781106128ad57fe5b0181600781106128b957fe5b60209182820401919006915091509054906101000a900460ff1681565b604860159054906101000a900460ff1681565b604581600681106128f657fe5b60209182820401919006915054906101000a900460ff1681565b6060600867ffffffffffffffff8111801561292a57600080fd5b5060405190808252806020026020018201604052801561296457816020015b612951613ff1565b8152602001906001900390816129495790505b50905060008090505b60088160ff161015612ae8576044600060438360ff166008811061298d57fe5b602091828204019190069054906101000a900460ff1660ff1660ff1681526020019081526020016000206040518060e00160405290816000820160009054906101000a900460ff1660ff1660ff1681526020016000820160019054906101000a900460ff1660028111156129fd57fe5b6002811115612a0857fe5b81526020016000820160029054906101000a900473ffffffffffffffffffffffffffffffffffffffff1673ffffffffffffffffffffffffffffffffffffffff1673ffffffffffffffffffffffffffffffffffffffff1681526020016000820160169054906101000a900460ff1660ff1660ff1681526020016000820160179054906101000a900460ff1660ff1660ff1681526020016000820160189054906101000a900460ff16151515158152602001600182015481525050828260ff1681518110612ad057fe5b6020026020010181905250808060010191505061296d565b5080905090565b60438160088110612afc57fe5b60209182820401919006915054906101000a900460ff1681565b603460019054906101000a900460ff1681565b604760019054906101000a900473ffffffffffffffffffffffffffffffffffffffff1681565b60006003811115612b5c57fe5b603460019054906101000a900460ff166003811115612b7757fe5b14612bb7576040517f08c379a0000000000000000000000000000000000000000000000000000000008152600401612bae90615209565b60405180910390fd5b600073ffffffffffffffffffffffffffffffffffffffff16604760019054906101000a900473ffffffffffffffffffffffffffffffffffffffff1673ffffffffffffffffffffffffffffffffffffffff161415612c545733604760016101000a81548173ffffffffffffffffffffffffffffffffffffffff021916908373ffffffffffffffffffffffffffffffffffffffff160217905550612fc1565b604760019054906101000a900473ffffffffffffffffffffffffffffffffffffffff1673ffffffffffffffffffffffffffffffffffffffff163373ffffffffffffffffffffffffffffffffffffffff161415612ce5576040517f08c379a0000000000000000000000000000000000000000000000000000000008152600401612cdc90615069565b60405180910390fd5b600060024281612cf157fe5b061415612d3e5733604860006101000a81548173ffffffffffffffffffffffffffffffffffffffff021916908373ffffffffffffffffffffffffffffffffffffffff160217905550612de3565b604760019054906101000a900473ffffffffffffffffffffffffffffffffffffffff16604860006101000a81548173ffffffffffffffffffffffffffffffffffffffff021916908373ffffffffffffffffffffffffffffffffffffffff16021790555033604760016101000a81548173ffffffffffffffffffffffffffffffffffffffff021916908373ffffffffffffffffffffffffffffffffffffffff1602179055505b6000600190505b60058160ff161015612e8057604760019054906101000a900473ffffffffffffffffffffffffffffffffffffffff16604460008360ff1660ff16815260200190815260200160002060000160026101000a81548173ffffffffffffffffffffffffffffffffffffffff021916908373ffffffffffffffffffffffffffffffffffffffff1602179055508080600101915050612dea565b506000600590505b60098160ff161015612f1e57604860009054906101000a900473ffffffffffffffffffffffffffffffffffffffff16604460008360ff1660ff16815260200190815260200160002060000160026101000a81548173ffffffffffffffffffffffffffffffffffffffff021916908373ffffffffffffffffffffffffffffffffffffffff1602179055508080600101915050612e88565b506001603460016101000a81548160ff02191690836003811115612f3e57fe5b02179055507f8fd707874eb940598510258c64cad23fd35fe8c85c5c38e8782fac2cc887fb6e604760019054906101000a900473ffffffffffffffffffffffffffffffffffffffff16604860009054906101000a900473ffffffffffffffffffffffffffffffffffffffff16604051612fb8929190614f1f565b60405180910390a15b565b60335481565b600781565b60496020528160005260406000206020528060005260406000206000915091509054906101000a900460ff1681565b60038081111561300957fe5b603460019054906101000a900460ff16600381111561302457fe5b1415613065576040517f08c379a000000000000000000000000000000000000000000000000000000000815260040161305c90615149565b60405180910390fd5b604760019054906101000a900473ffffffffffffffffffffffffffffffffffffffff1673ffffffffffffffffffffffffffffffffffffffff163373ffffffffffffffffffffffffffffffffffffffff16141561312457600160038111156130c857fe5b603460019054906101000a900460ff1660038111156130e357fe5b14613123576040517f08c379a000000000000000000000000000000000000000000000000000000000815260040161311a90615229565b60405180910390fd5b5b604860009054906101000a900473ffffffffffffffffffffffffffffffffffffffff1673ffffffffffffffffffffffffffffffffffffffff163373ffffffffffffffffffffffffffffffffffffffff1614156131e3576002600381111561318757fe5b603460019054906101000a900460ff1660038111156131a257fe5b146131e2576040517f08c379a00000000000000000000000000000000000000000000000000000000081526004016131d990615169565b60405180910390fd5b5b603460009054906101000a900460ff1660ff16816000015160ff161461323e576040517f08c379a000000000000000000000000000000000000000000000000000000000815260040161323590615029565b60405180910390fd5b600060446000836020015160ff1660ff16815260200190815260200160002090503373ffffffffffffffffffffffffffffffffffffffff168160000160029054906101000a900473ffffffffffffffffffffffffffffffffffffffff1673ffffffffffffffffffffffffffffffffffffffff1614801561330f5750600073ffffffffffffffffffffffffffffffffffffffff168160000160029054906101000a900473ffffffffffffffffffffffffffffffffffffffff1673ffffffffffffffffffffffffffffffffffffffff1614155b61334e576040517f08c379a000000000000000000000000000000000000000000000000000000000815260040161334590615109565b60405180910390fd5b8060000160189054906101000a900460ff1661339f576040517f08c379a000000000000000000000000000000000000000000000000000000000815260040161339690615049565b60405180910390fd5b60496000836000015160ff1660ff16815260200190815260200160002060008260000160009054906101000a900460ff1660ff1660ff16815260200190815260200160002060009054906101000a900460ff1615613432576040517f08c379a000000000000000000000000000000000000000000000000000000000815260040161342990615129565b60405180910390fd5b604a6000836000015160ff1660ff16815260200190815260200160002060008260000160009054906101000a900460ff1660ff1660ff16815260200190815260200160002060009054906101000a900460ff16156134c5576040517f08c379a00000000000000000000000000000000000000000000000000000000081526004016134bc906150c9565b60405180910390fd5b6002808111156134d157fe5b8160000160019054906101000a900460ff1660028111156134ee57fe5b141561367b5781608001516060015160006002811061350957fe5b6020020151816001015414613553576040517f08c379a000000000000000000000000000000000000000000000000000000000815260040161354a906151a9565b60405180910390fd5b604760009054906101000a900460ff166136545773__Verifier______________________________63ab4753078360800151600001518460800151602001518560800151604001518660800151606001516040518563ffffffff1660e01b81526004016135c49493929190614f8c565b60206040518083038186803b1580156135dc57600080fd5b505af41580156135f0573d6000803e3d6000fd5b505050506040513d601f19601f820116820180604052508101906136149190614452565b613653576040517f08c379a000000000000000000000000000000000000000000000000000000000815260040161364a906150a9565b60405180910390fd5b5b81608001516060015160016002811061366957fe5b60200201518160010181905550613b18565b6060826040015190506060836060015190506137a2836040518060e00160405290816000820160009054906101000a900460ff1660ff1660ff1681526020016000820160019054906101000a900460ff1660028111156136d757fe5b60028111156136e257fe5b81526020016000820160029054906101000a900473ffffffffffffffffffffffffffffffffffffffff1673ffffffffffffffffffffffffffffffffffffffff1673ffffffffffffffffffffffffffffffffffffffff1681526020016000820160169054906101000a900460ff1660ff1660ff1681526020016000820160179054906101000a900460ff1660ff1660ff1681526020016000820160189054906101000a900460ff161515151581526020016001820154815250508383613b7a565b6137e1576040517f08c379a00000000000000000000000000000000000000000000000000000000081526004016137d8906150e9565b60405180910390fd5b6000826001845103815181106137f357fe5b6020026020010151905060008260018451038151811061380f57fe5b60200260200101519050600060358660000160169054906101000a900460ff1660ff166007811061383c57fe5b018660000160179054906101000a900460ff1660ff166007811061385c57fe5b602091828204019190066101000a81548160ff021916908360ff1602179055508460000160009054906101000a900460ff1660358360ff166007811061389e57fe5b018260ff16600781106138ad57fe5b602091828204019190066101000a81548160ff021916908360ff160217905550818560000160166101000a81548160ff021916908360ff160217905550808560000160176101000a81548160ff021916908360ff160217905550600060466000603c8560ff166007811061391d57fe5b018460ff166007811061392c57fe5b602091828204019190069054906101000a900460ff1660ff1660ff16815260200190815260200160002060000160019054906101000a900460ff1660ff16118015613a135750600073ffffffffffffffffffffffffffffffffffffffff1660466000603c8560ff166007811061399e57fe5b018460ff16600781106139ad57fe5b602091828204019190069054906101000a900460ff1660ff1660ff16815260200190815260200160002060000160049054906101000a900473ffffffffffffffffffffffffffffffffffffffff1673ffffffffffffffffffffffffffffffffffffffff16145b15613b1357604760019054906101000a900473ffffffffffffffffffffffffffffffffffffffff1673ffffffffffffffffffffffffffffffffffffffff163373ffffffffffffffffffffffffffffffffffffffff161415613ac257603c8260ff1660078110613a7e57fe5b018160ff1660078110613a8d57fe5b602091828204019190069054906101000a900460ff16604860166101000a81548160ff021916908360ff160217905550613b12565b603c8260ff1660078110613ad257fe5b018160ff1660078110613ae157fe5b602091828204019190069054906101000a900460ff16604860176101000a81548160ff021916908360ff1602179055505b5b505050505b600160496000846000015160ff1660ff16815260200190815260200160002060008360000160009054906101000a900460ff1660ff1660ff16815260200190815260200160002060006101000a81548160ff0219169083151502179055505050565b600080846060015190506000856080015190508351855114613bd1576040517f08c379a0000000000000000000000000000000000000000000000000000000008152600401613bc890615189565b60405180910390fd5b600080905060006002811115613be357fe5b87602001516002811115613bf357fe5b1415613c025760019050613c2b565b60016002811115613c0f57fe5b87602001516002811115613c1f57fe5b1415613c2a57600290505b5b8060ff1686511115613c72576040517f08c379a0000000000000000000000000000000000000000000000000000000008152600401613c69906151c9565b60405180910390fd5b60008090505b8651811015613e5d576000878281518110613c8f57fe5b602002602001015190506000878381518110613ca757fe5b6020026020010151905060078260ff161080613cc6575060078160ff16105b613d05576040517f08c379a0000000000000000000000000000000000000000000000000000000008152600401613cfc90615089565b60405180910390fd5b8560ff168260ff161480613d1e57508460ff168160ff16145b8015613d5f5750600186830360ff161480613d3e5750600182870360ff16145b80613d4e5750600185820360ff16145b80613d5e5750600181860360ff16145b5b613d9e576040517f08c379a0000000000000000000000000000000000000000000000000000000008152600401613d9590615189565b60405180910390fd5b600060358360ff1660078110613db057fe5b018260ff1660078110613dbf57fe5b602091828204019190069054906101000a900460ff1690506000604460008360ff1660ff16815260200190815260200160002090508060000160189054906101000a900460ff1615613e46576040517f08c379a0000000000000000000000000000000000000000000000000000000008152600401613e3d90615009565b60405180910390fd5b839750829650505050508080600101915050613c78565b50600193505050509392505050565b826008601f01602090048101928215613ef55791602002820160005b83821115613ec657835183826101000a81548160ff021916908360ff1602179055509260200192600101602081600001049283019260010302613e88565b8015613ef35782816101000a81549060ff0219169055600101602081600001049283019260010302613ec6565b505b509050613f02919061405a565b5090565b826006601f01602090048101928215613f8f5791602002820160005b83821115613f6057835183826101000a81548160ff021916908360ff1602179055509260200192600101602081600001049283019260010302613f22565b8015613f8d5782816101000a81549060ff0219169055600101602081600001049283019260010302613f60565b505b509050613f9c919061405a565b5090565b6040518060a00160405280600060ff168152602001600060ff168152602001600060ff168152602001600060ff168152602001600073ffffffffffffffffffffffffffffffffffffffff1681525090565b6040518060e00160405280600060ff1681526020016000600281111561401357fe5b8152602001600073ffffffffffffffffffffffffffffffffffffffff168152602001600060ff168152602001600060ff168152602001600015158152602001600081525090565b61408791905b8082111561408357600081816101000a81549060ff021916905550600101614060565b5090565b90565b600081359050614099816155b1565b92915050565b600082601f8301126140b057600080fd5b60026140c36140be8261536e565b615341565b915081838560408402820111156140d957600080fd5b60005b8381101561410957816140ef8882614113565b8452602084019350604083019250506001810190506140dc565b5050505092915050565b600082601f83011261412457600080fd5b600261413761413282615390565b615341565b9150818385602084028201111561414d57600080fd5b60005b8381101561417d57816141638882614428565b845260208401935060208301925050600181019050614150565b5050505092915050565b600082601f83011261419857600080fd5b81356141ab6141a6826153b2565b615341565b915081818352602084019350602081019050838560208402820111156141d057600080fd5b60005b8381101561420057816141e6888261443d565b8452602084019350602083019250506001810190506141d3565b5050505092915050565b600081359050614219816155c8565b92915050565b60008151905061422e816155c8565b92915050565b600081359050614243816155df565b92915050565b6000610140828403121561425c57600080fd5b6142666080615341565b9050600061427684828501614113565b600083015250604061428a8482850161409f565b60208301525060c061429e84828501614113565b6040830152506101006142b384828501614113565b60608301525092915050565b60006101c082840312156142d257600080fd5b6142dc60a0615341565b905060006142ec8482850161443d565b60008301525060206143008482850161443d565b602083015250604082013567ffffffffffffffff81111561432057600080fd5b61432c84828501614187565b604083015250606082013567ffffffffffffffff81111561434c57600080fd5b61435884828501614187565b606083015250608061436c84828501614249565b60808301525092915050565b600060e0828403121561438a57600080fd5b61439460e0615341565b905060006143a48482850161443d565b60008301525060206143b884828501614234565b60208301525060406143cc8482850161408a565b60408301525060606143e08482850161443d565b60608301525060806143f48482850161443d565b60808301525060a06144088482850161420a565b60a08301525060c061441c84828501614428565b60c08301525092915050565b600081359050614437816155ef565b92915050565b60008135905061444c81615606565b92915050565b60006020828403121561446457600080fd5b60006144728482850161421f565b91505092915050565b60006020828403121561448d57600080fd5b600082013567ffffffffffffffff8111156144a757600080fd5b6144b3848285016142bf565b91505092915050565b600080600061012084860312156144d257600080fd5b60006144e086828701614378565b93505060e084013567ffffffffffffffff8111156144fd57600080fd5b61450986828701614187565b92505061010084013567ffffffffffffffff81111561452757600080fd5b61453386828701614187565b9150509250925092565b60006020828403121561454f57600080fd5b600061455d84828501614428565b91505092915050565b6000806040838503121561457957600080fd5b600061458785828601614428565b92505060206145988582860161420a565b9150509250929050565b600080604083850312156145b557600080fd5b60006145c385828601614428565b92505060206145d485828601614428565b9150509250929050565b6000602082840312156145f057600080fd5b60006145fe8482850161443d565b91505092915050565b6000806040838503121561461a57600080fd5b60006146288582860161443d565b92505060206146398582860161443d565b9150509250929050565b600061464f838361483a565b60408301905092915050565b60006146678383614da8565b60a08301905092915050565b600061467f8383614e10565b60e08301905092915050565b60006146978383614ebc565b60208301905092915050565b6146ac8161553d565b82525050565b6146bb816154c2565b82525050565b6146ca816154c2565b82525050565b6146d98161540e565b6146e3818461546e565b92506146ee826153da565b8060005b8381101561471f5781516147068782614643565b96506147118361543a565b9250506001810190506146f2565b505050505050565b600061473282615419565b61473c8185615479565b9350614747836153e4565b8060005b8381101561477857815161475f888261465b565b975061476a83615447565b92505060018101905061474b565b5085935050505092915050565b600061479082615424565b61479a818561548a565b93506147a5836153f4565b8060005b838110156147d65781516147bd8882614673565b97506147c883615454565b9250506001810190506147a9565b5085935050505092915050565b6147ec8161542f565b6147f6818461549b565b925061480182615404565b8060005b83811015614832578151614819878261468b565b965061482483615461565b925050600181019050614805565b505050505050565b6148438161542f565b61484d81846154a6565b925061485882615404565b8060005b83811015614889578151614870878261468b565b965061487b83615461565b92505060018101905061485c565b505050505050565b61489a816154d4565b82525050565b6148a9816154d4565b82525050565b6148b88161554f565b82525050565b6148c781615561565b82525050565b6148d681615561565b82525050565b60006148e96027836154b1565b91507f747269656420746f206d6f7665207468726f75676820616e206578697374696e60008301527f67207069656365000000000000000000000000000000000000000000000000006020830152604082019050919050565b600061494f6011836154b1565b91507f57726f6e67207475726e206e756d6265720000000000000000000000000000006000830152602082019050919050565b600061498f600d836154b1565b91507f50696563652069732064656164000000000000000000000000000000000000006000830152602082019050919050565b60006149cf6015836154b1565b91507f63616e2774206a6f696e2067616d6520747769636500000000000000000000006000830152602082019050919050565b6000614a0f601b836154b1565b91507f747269656420746f206d6f7665206f7574206f6620626f756e647300000000006000830152602082019050919050565b6000614a4f6014836154b1565b91507f4661696c6564207a6b206d6f766520636865636b0000000000000000000000006000830152602082019050919050565b6000614a8f6013836154b1565b91507f706965636520616c7265616479206163746564000000000000000000000000006000830152602082019050919050565b6000614acf600c836154b1565b91507f496e76616c6964206d6f766500000000000000000000000000000000000000006000830152602082019050919050565b6000614b0f601b836154b1565b91507f63616e2774206d6f7665206f70706f6e656e74277320706965636500000000006000830152602082019050919050565b6000614b4f6013836154b1565b91507f706965636520616c7265616479206d6f766564000000000000000000000000006000830152602082019050919050565b6000614b8f600d836154b1565b91507f47616d6520697320656e646564000000000000000000000000000000000000006000830152602082019050919050565b6000614bcf600d836154b1565b91507f4e6f742070322773207475726e000000000000000000000000000000000000006000830152602082019050919050565b6000614c0f600c836154b1565b91507f696e76616c6964206d6f766500000000000000000000000000000000000000006000830152602082019050919050565b6000614c4f6010836154b1565b91507f5a4b2050726f6f6620696e76616c6964000000000000000000000000000000006000830152602082019050919050565b6000614c8f602d836154b1565b91507f747269656420746f206d6f76652070696563652066757274686572207468616e60008301527f2072616e676520616c6c6f7773000000000000000000000000000000000000006020830152604082019050919050565b6000614cf56011836154b1565b91507f77726f6e67207475726e206e756d6265720000000000000000000000000000006000830152602082019050919050565b6000614d356014836154b1565b91507f47616d6520616c726561647920737461727465640000000000000000000000006000830152602082019050919050565b6000614d75600d836154b1565b91507f4e6f742070312773207475726e000000000000000000000000000000000000006000830152602082019050919050565b60a082016000820151614dbe6000850182614ecb565b506020820151614dd16020850182614ecb565b506040820151614de46040850182614ecb565b506060820151614df76060850182614ecb565b506080820151614e0a60808501826146b2565b50505050565b60e082016000820151614e266000850182614ecb565b506020820151614e3960208501826148be565b506040820151614e4c60408501826146b2565b506060820151614e5f6060850182614ecb565b506080820151614e726080850182614ecb565b5060a0820151614e8560a0850182614891565b5060c0820151614e9860c0850182614e9e565b50505050565b614ea781615526565b82525050565b614eb681615526565b82525050565b614ec581615526565b82525050565b614ed481615530565b82525050565b614ee381615530565b82525050565b6000602082019050614efe60008301846146c1565b92915050565b6000602082019050614f1960008301846146a3565b92915050565b6000604082019050614f3460008301856146c1565b614f4160208301846146c1565b9392505050565b60006020820190508181036000830152614f628184614727565b905092915050565b60006020820190508181036000830152614f848184614785565b905092915050565b600061014082019050614fa260008301876147e3565b614faf60408301866146d0565b614fbc60c08301856147e3565b614fca6101008301846147e3565b95945050505050565b6000602082019050614fe860008301846148a0565b92915050565b600060208201905061500360008301846148af565b92915050565b60006020820190508181036000830152615022816148dc565b9050919050565b6000602082019050818103600083015261504281614942565b9050919050565b6000602082019050818103600083015261506281614982565b9050919050565b60006020820190508181036000830152615082816149c2565b9050919050565b600060208201905081810360008301526150a281614a02565b9050919050565b600060208201905081810360008301526150c281614a42565b9050919050565b600060208201905081810360008301526150e281614a82565b9050919050565b6000602082019050818103600083015261510281614ac2565b9050919050565b6000602082019050818103600083015261512281614b02565b9050919050565b6000602082019050818103600083015261514281614b42565b9050919050565b6000602082019050818103600083015261516281614b82565b9050919050565b6000602082019050818103600083015261518281614bc2565b9050919050565b600060208201905081810360008301526151a281614c02565b9050919050565b600060208201905081810360008301526151c281614c42565b9050919050565b600060208201905081810360008301526151e281614c82565b9050919050565b6000602082019050818103600083015261520281614ce8565b9050919050565b6000602082019050818103600083015261522281614d28565b9050919050565b6000602082019050818103600083015261524281614d68565b9050919050565b600060208201905061525e6000830184614ead565b92915050565b60006020820190506152796000830184614eda565b92915050565b600060e082019050615294600083018a614eda565b6152a160208301896148cd565b6152ae60408301886146c1565b6152bb6060830187614eda565b6152c86080830186614eda565b6152d560a08301856148a0565b6152e260c0830184614ead565b98975050505050505050565b600060a0820190506153036000830188614eda565b6153106020830187614eda565b61531d6040830186614eda565b61532a6060830185614eda565b61533760808301846146c1565b9695505050505050565b6000604051905081810181811067ffffffffffffffff8211171561536457600080fd5b8060405250919050565b600067ffffffffffffffff82111561538557600080fd5b602082029050919050565b600067ffffffffffffffff8211156153a757600080fd5b602082029050919050565b600067ffffffffffffffff8211156153c957600080fd5b602082029050602081019050919050565b6000819050919050565b6000819050602082019050919050565b6000819050602082019050919050565b6000819050919050565b600060029050919050565b600081519050919050565b600081519050919050565b600060029050919050565b6000602082019050919050565b6000602082019050919050565b6000602082019050919050565b6000602082019050919050565b600081905092915050565b600082825260208201905092915050565b600082825260208201905092915050565b600081905092915050565b600081905092915050565b600082825260208201905092915050565b60006154cd82615506565b9050919050565b60008115159050919050565b60008190506154ee82615597565b919050565b6000819050615501826155a4565b919050565b600073ffffffffffffffffffffffffffffffffffffffff82169050919050565b6000819050919050565b600060ff82169050919050565b600061554882615573565b9050919050565b600061555a826154e0565b9050919050565b600061556c826154f3565b9050919050565b600061557e82615585565b9050919050565b600061559082615506565b9050919050565b600481106155a157fe5b50565b600381106155ae57fe5b50565b6155ba816154c2565b81146155c557600080fd5b50565b6155d1816154d4565b81146155dc57600080fd5b50565b600381106155ec57600080fd5b50565b6155f881615526565b811461560357600080fd5b50565b61560f81615530565b811461561a57600080fd5b5056fea2646970667358221220fe67565fe7388cb2b2b13ebee17562588fc347d3c4323b772d389fb97a04569d64736f6c63430006070033",
  "immutableReferences": {},
  "source": "pragma solidity ^0.6.7;\npragma experimental ABIEncoderV2;\n\nimport \"@openzeppelin/contracts-ethereum-package/contracts/Initializable.sol\";\nimport \"./ZKChessTypes.sol\";\nimport \"./ZKChessUtils.sol\";\nimport \"./Verifier.sol\";\n\ncontract ZKChessGame is Initializable {\n    uint256\n        public constant FIELD_SIZE = 21888242871839275222246405745257275088548364400416034343698204186575808495617;\n    uint256\n        public constant GHOST_START_COMMITMENT = 7374563847362678215915084925243633004703986452179446109135597066279732561698;\n    uint256 public constant BOARD_SIZE = 7;\n\n    uint256 public gameId;\n\n    uint8 public turnNumber;\n    GameState public gameState;\n    uint8[BOARD_SIZE][BOARD_SIZE] public boardPieces; // board[row][col]\n    uint8[BOARD_SIZE][BOARD_SIZE] public boardObjectives;\n\n    uint8[8] public pieceIds;\n    mapping(uint8 => Piece) public pieces;\n    uint8[6] public objectiveIds;\n    mapping(uint8 => Objective) public objectives;\n\n    bool public DISABLE_ZK_CHECK;\n\n    address public player1;\n    address public player2;\n\n    uint8 public player1Score;\n    uint8 public player2Score;\n\n    uint8 p1CurrentlyCapturing;\n    uint8 p2CurrentlyCapturing;\n\n    // mapping from turn # -> piece # -> has acted\n    mapping(uint8 => mapping(uint8 => bool)) public hasMoved;\n    mapping(uint8 => mapping(uint8 => bool)) public hasAttacked;\n\n    uint256 pfsVerified;\n\n    function initialize(uint256 _gameId, bool _disableZKCheck) public {\n        gameId = _gameId;\n        DISABLE_ZK_CHECK = _disableZKCheck;\n        gameState = GameState.WAITING_FOR_PLAYERS;\n\n        pieceIds = [1, 2, 3, 4, 5, 6, 7, 8];\n        objectiveIds = [9, 10, 11, 12, 13, 14];\n\n        // initialize pieces\n        pieces[1] = Piece({\n            id: 1,\n            pieceType: PieceType.KING,\n            owner: address(0),\n            row: 0,\n            col: 1,\n            alive: true,\n            commitment: 0\n        });\n        boardPieces[0][1] = 1;\n        pieces[2] = Piece({\n            id: 2,\n            pieceType: PieceType.KNIGHT,\n            owner: address(0),\n            row: 0,\n            col: 3,\n            alive: true,\n            commitment: 0\n        });\n        boardPieces[0][3] = 2;\n        pieces[3] = Piece({\n            id: 3,\n            pieceType: PieceType.KING,\n            owner: address(0),\n            row: 0,\n            col: 5,\n            alive: true,\n            commitment: 0\n        });\n        boardPieces[0][5] = 3;\n        pieces[4] = Piece({\n            id: 4,\n            pieceType: PieceType.GHOST,\n            owner: address(0),\n            row: 0,\n            col: 0,\n            alive: true,\n            commitment: GHOST_START_COMMITMENT\n        });\n        pieces[5] = Piece({\n            id: 5,\n            pieceType: PieceType.KING,\n            owner: address(0),\n            row: 6,\n            col: 1,\n            alive: true,\n            commitment: 0\n        });\n        boardPieces[6][1] = 5;\n        pieces[6] = Piece({\n            id: 6,\n            pieceType: PieceType.KNIGHT,\n            owner: address(0),\n            row: 6,\n            col: 3,\n            alive: true,\n            commitment: 0\n        });\n        boardPieces[6][3] = 6;\n        pieces[7] = Piece({\n            id: 7,\n            pieceType: PieceType.KING,\n            owner: address(0),\n            row: 6,\n            col: 5,\n            alive: true,\n            commitment: 0\n        });\n        boardPieces[6][5] = 7;\n        pieces[8] = Piece({\n            id: 8,\n            pieceType: PieceType.GHOST,\n            owner: address(0),\n            row: 6,\n            col: 0,\n            alive: true,\n            commitment: GHOST_START_COMMITMENT\n        });\n\n        // initialize objectives\n        objectives[9] = Objective({\n            id: 9,\n            value: 5,\n            row: 3,\n            col: 0,\n            capturedBy: address(0)\n        });\n        boardObjectives[3][0] = 9;\n        objectives[10] = Objective({\n            id: 10,\n            value: 5,\n            row: 2,\n            col: 2,\n            capturedBy: address(0)\n        });\n        boardObjectives[2][2] = 10;\n        objectives[11] = Objective({\n            id: 11,\n            value: 10,\n            row: 4,\n            col: 2,\n            capturedBy: address(0)\n        });\n        boardObjectives[4][2] = 11;\n        objectives[12] = Objective({\n            id: 12,\n            value: 10,\n            row: 2,\n            col: 4,\n            capturedBy: address(0)\n        });\n        boardObjectives[2][4] = 12;\n        objectives[13] = Objective({\n            id: 13,\n            value: 5,\n            row: 4,\n            col: 4,\n            capturedBy: address(0)\n        });\n        boardObjectives[4][4] = 13;\n        objectives[14] = Objective({\n            id: 14,\n            value: 5,\n            row: 3,\n            col: 6,\n            capturedBy: address(0)\n        });\n        boardObjectives[3][6] = 14;\n    }\n\n    //////////////\n    /// EVENTS ///\n    //////////////\n\n    event ProofVerified(uint256 pfsAccepted);\n    event GameStart(address p1, address p2);\n    event MoveMade(address player);\n    event GameFinished();\n\n    ///////////////\n    /// GETTERS ///\n    ///////////////\n\n    function getPieces() public view returns (Piece[] memory ret) {\n        ret = new Piece[](pieceIds.length);\n        for (uint8 i = 0; i < pieceIds.length; i++) {\n            ret[i] = pieces[pieceIds[i]];\n        }\n        return ret;\n    }\n\n    function getObjectives() public view returns (Objective[] memory ret) {\n        ret = new Objective[](objectiveIds.length);\n        for (uint8 i = 0; i < objectiveIds.length; i++) {\n            ret[i] = objectives[objectiveIds[i]];\n        }\n        return ret;\n    }\n\n    //////////////\n    /// Helper ///\n    //////////////\n\n    function isValidMove(\n        Piece memory piece,\n        uint8[] memory toRow,\n        uint8[] memory toCol\n    ) public view returns (bool) {\n        uint8 currentRow = piece.row;\n        uint8 currentCol = piece.col;\n        require(toRow.length == toCol.length, \"invalid move\");\n        uint8 moveRange = 0;\n        if (piece.pieceType == PieceType.KING) {\n            moveRange = 1;\n        } else if (piece.pieceType == PieceType.KNIGHT) {\n            moveRange = 2;\n        }\n        require(\n            toRow.length <= moveRange,\n            \"tried to move piece further than range allows\"\n        );\n\n        for (uint256 i = 0; i < toRow.length; i++) {\n            uint8 nextRow = toRow[i];\n            uint8 nextCol = toCol[i];\n            // must be in range [0, SIZE - 1]\n            require(\n                nextRow < BOARD_SIZE || nextCol < BOARD_SIZE,\n                \"tried to move out of bounds\"\n            );\n            // (nextRow, nextCol) must be adjacent to (currentRow, currentCol)\n            require(\n                (nextRow == currentRow || nextCol == currentCol) &&\n                    (nextRow - currentRow == 1 ||\n                        currentRow - nextRow == 1 ||\n                        nextCol - currentCol == 1 ||\n                        currentCol - nextCol == 1),\n                \"invalid move\"\n            );\n            // can't move through or onto a square with a piece on it\n            uint8 pieceIdAtNextTile = boardPieces[nextRow][nextCol];\n            Piece storage pieceAtNextTile = pieces[pieceIdAtNextTile];\n            require(\n                !pieceAtNextTile.alive,\n                \"tried to move through an existing piece\"\n            );\n            currentRow = nextRow;\n            currentCol = nextCol;\n        }\n        return true;\n    }\n\n    function gameShouldBeCompleted() public view returns (bool) {\n        // check if game is over: no pieces left, OR no objectives left\n        bool noPiecesLeft = true;\n        for (uint8 i = 0; i < pieceIds.length; i++) {\n            if (pieces[pieceIds[i]].alive) {\n                noPiecesLeft = false;\n                break;\n            }\n        }\n        if (noPiecesLeft) {\n            return true;\n        }\n\n        bool noObjectivesLeft = true;\n        for (uint8 i = 0; i < objectiveIds.length; i++) {\n            if (objectives[objectiveIds[i]].capturedBy == address(0)) {\n                noObjectivesLeft = false;\n                break;\n            }\n        }\n        if (noObjectivesLeft) {\n            return true;\n        }\n        return false;\n    }\n\n    //////////////////////\n    /// Game Mechanics ///\n    //////////////////////\n\n    function joinGame() public {\n        require(\n            gameState == GameState.WAITING_FOR_PLAYERS,\n            \"Game already started\"\n        );\n        if (player1 == address(0)) {\n            // first player to join game\n            player1 = msg.sender;\n            return;\n        }\n        // another player has joined. game is ready to start\n\n        require(msg.sender != player1, \"can't join game twice\");\n        // randomize player order\n        if (block.timestamp % 2 == 0) {\n            player2 = msg.sender;\n        } else {\n            player2 = player1;\n            player1 = msg.sender;\n        }\n\n        // set pieces\n        for (uint8 i = 1; i < 5; i++) {\n            pieces[i].owner = player1;\n        }\n        for (uint8 i = 5; i < 9; i++) {\n            pieces[i].owner = player2;\n        }\n\n        gameState = GameState.P1_TO_MOVE;\n        emit GameStart(player1, player2);\n    }\n\n    function doMove(Move memory move) public {\n        require(gameState != GameState.COMPLETE, \"Game is ended\");\n        if (msg.sender == player1) {\n            require(gameState == GameState.P1_TO_MOVE, \"Not p1's turn\");\n        }\n        if (msg.sender == player2) {\n            require(gameState == GameState.P2_TO_MOVE, \"Not p2's turn\");\n        }\n        require(move.turnNumber == turnNumber, \"Wrong turn number\");\n        Piece storage piece = pieces[move.pieceId];\n        require(\n            piece.owner == msg.sender && piece.owner != address(0),\n            \"can't move opponent's piece\"\n        );\n        require(piece.alive, \"Piece is dead\");\n        require(!hasMoved[move.turnNumber][piece.id], \"piece already moved\");\n        require(!hasAttacked[move.turnNumber][piece.id], \"piece already acted\");\n\n        if (piece.pieceType == PieceType.GHOST) {\n            require(piece.commitment == move.zkp.input[0], \"ZK Proof invalid\");\n            if (!DISABLE_ZK_CHECK) {\n                require(\n                    Verifier.verifyMoveProof(\n                        move.zkp.a,\n                        move.zkp.b,\n                        move.zkp.c,\n                        move.zkp.input\n                    ),\n                    \"Failed zk move check\"\n                );\n            }\n            piece.commitment = move.zkp.input[1];\n        } else {\n            uint8[] memory moveToRow = move.moveToRow;\n            uint8[] memory moveToCol = move.moveToCol;\n            require(isValidMove(piece, moveToRow, moveToCol), \"Invalid move\");\n            uint8 toRow = moveToRow[moveToRow.length - 1];\n            uint8 toCol = moveToCol[moveToCol.length - 1];\n            boardPieces[piece.row][piece.col] = 0;\n            boardPieces[toRow][toCol] = piece.id;\n            piece.row = toRow;\n            piece.col = toCol;\n            if (\n                objectives[boardObjectives[toRow][toCol]].value > 0 &&\n                objectives[boardObjectives[toRow][toCol]].capturedBy ==\n                address(0)\n            ) {\n                if (msg.sender == player1) {\n                    p1CurrentlyCapturing = boardObjectives[toRow][toCol];\n                } else {\n                    p2CurrentlyCapturing = boardObjectives[toRow][toCol];\n                }\n            }\n        }\n        hasMoved[move.turnNumber][piece.id] = true;\n    }\n\n    function endTurn(uint8 _turnNumber) public {\n        require(_turnNumber == turnNumber, \"wrong turn number\");\n        if (msg.sender == player1) {\n            // check if opponent captures any objectives\n            Objective storage capturing = objectives[p2CurrentlyCapturing];\n            if (capturing.value > 0 && capturing.capturedBy == address(0)) {\n                // is an uncaptured objective\n                Piece storage onObjective = pieces[boardPieces[capturing\n                    .row][capturing.col]];\n                if (onObjective.owner == player2 && onObjective.alive) {\n                    // p2's live piece is stationed on top\n                    capturing.capturedBy = player2;\n                    player2Score += capturing.value;\n                }\n            }\n            // change to p2's turn\n            p2CurrentlyCapturing = 0;\n            gameState = GameState.P2_TO_MOVE;\n        } else {\n            // check if opponent captures any objectives\n            Objective storage capturing = objectives[p1CurrentlyCapturing];\n            if (capturing.value > 0 && capturing.capturedBy == address(0)) {\n                // is an uncaptured objective\n                Piece storage onObjective = pieces[boardPieces[capturing\n                    .row][capturing.col]];\n                if (onObjective.owner == player1 && onObjective.alive) {\n                    // p1's live piece is stationed on top\n                    capturing.capturedBy = player1;\n                    player1Score += capturing.value;\n                }\n            }\n            // change to p1's turn\n            p1CurrentlyCapturing = 0;\n            turnNumber++;\n            gameState = GameState.P1_TO_MOVE;\n        }\n        emit MoveMade(msg.sender);\n\n        if (gameShouldBeCompleted()) {\n            gameState = GameState.COMPLETE;\n            emit GameFinished();\n        }\n    }\n}\n",
  "sourcePath": "/Users/bgu/zk-chess/eth/contracts/ZKChessGame.sol",
  "compiler": {
    "name": "solc",
    "version": "0.6.7+commit.b8d736ae.Emscripten.clang"
  },
  "schemaVersion": "3.3.1",
  "updatedAt": "2020-11-09T18:16:17.633Z",
  "networkType": "ethereum",
  "devdoc": {
    "methods": {}
  },
  "userdoc": {
    "methods": {
      "getPieces()": {
        "notice": "//////////// GETTERS /// ////////////"
      },
      "isValidMove((uint8,uint8,address,uint8,uint8,bool,uint256),uint8[],uint8[])": {
        "notice": "/////////// Helper /// ///////////"
      },
      "joinGame()": {
        "notice": "/////////////////// Game Mechanics /// ///////////////////"
      }
    }
  }
}