{
  "contractName": "ZKChessGame",
  "abi": [
    {
      "anonymous": false,
      "inputs": [
        {
          "indexed": false,
          "internalType": "address",
          "name": "player",
          "type": "address"
        }
      ],
      "name": "ActionMade",
      "type": "event"
    },
    {
      "anonymous": false,
      "inputs": [],
      "name": "GameFinished",
      "type": "event"
    },
    {
      "anonymous": false,
      "inputs": [
        {
          "indexed": false,
          "internalType": "address",
          "name": "p1",
          "type": "address"
        },
        {
          "indexed": false,
          "internalType": "address",
          "name": "p2",
          "type": "address"
        }
      ],
      "name": "GameStart",
      "type": "event"
    },
    {
      "anonymous": false,
      "inputs": [
        {
          "indexed": false,
          "internalType": "uint256",
          "name": "pfsAccepted",
          "type": "uint256"
        }
      ],
      "name": "ProofVerified",
      "type": "event"
    },
    {
      "inputs": [],
      "name": "BOARD_SIZE",
      "outputs": [
        {
          "internalType": "uint256",
          "name": "",
          "type": "uint256"
        }
      ],
      "stateMutability": "view",
      "type": "function",
      "constant": true
    },
    {
      "inputs": [],
      "name": "DISABLE_ZK_CHECK",
      "outputs": [
        {
          "internalType": "bool",
          "name": "",
          "type": "bool"
        }
      ],
      "stateMutability": "view",
      "type": "function",
      "constant": true
    },
    {
      "inputs": [],
      "name": "FIELD_SIZE",
      "outputs": [
        {
          "internalType": "uint256",
          "name": "",
          "type": "uint256"
        }
      ],
      "stateMutability": "view",
      "type": "function",
      "constant": true
    },
    {
      "inputs": [],
      "name": "GHOST_START_COMMITMENT",
      "outputs": [
        {
          "internalType": "uint256",
          "name": "",
          "type": "uint256"
        }
      ],
      "stateMutability": "view",
      "type": "function",
      "constant": true
    },
    {
      "inputs": [
        {
          "internalType": "uint256",
          "name": "",
          "type": "uint256"
        },
        {
          "internalType": "uint256",
          "name": "",
          "type": "uint256"
        }
      ],
      "name": "boardPieces",
      "outputs": [
        {
          "internalType": "uint8",
          "name": "",
          "type": "uint8"
        }
      ],
      "stateMutability": "view",
      "type": "function",
      "constant": true
    },
    {
      "inputs": [],
      "name": "gameId",
      "outputs": [
        {
          "internalType": "uint256",
          "name": "",
          "type": "uint256"
        }
      ],
      "stateMutability": "view",
      "type": "function",
      "constant": true
    },
    {
      "inputs": [],
      "name": "gameState",
      "outputs": [
        {
          "internalType": "enum GameState",
          "name": "",
          "type": "uint8"
        }
      ],
      "stateMutability": "view",
      "type": "function",
      "constant": true
    },
    {
      "inputs": [
        {
          "internalType": "uint8",
          "name": "",
          "type": "uint8"
        },
        {
          "internalType": "uint8",
          "name": "",
          "type": "uint8"
        }
      ],
      "name": "hasAttacked",
      "outputs": [
        {
          "internalType": "bool",
          "name": "",
          "type": "bool"
        }
      ],
      "stateMutability": "view",
      "type": "function",
      "constant": true
    },
    {
      "inputs": [
        {
          "internalType": "uint8",
          "name": "",
          "type": "uint8"
        },
        {
          "internalType": "uint8",
          "name": "",
          "type": "uint8"
        }
      ],
      "name": "hasMoved",
      "outputs": [
        {
          "internalType": "bool",
          "name": "",
          "type": "bool"
        }
      ],
      "stateMutability": "view",
      "type": "function",
      "constant": true
    },
    {
      "inputs": [
        {
          "internalType": "uint256",
          "name": "",
          "type": "uint256"
        }
      ],
      "name": "pieceIds",
      "outputs": [
        {
          "internalType": "uint8",
          "name": "",
          "type": "uint8"
        }
      ],
      "stateMutability": "view",
      "type": "function",
      "constant": true
    },
    {
      "inputs": [
        {
          "internalType": "uint8",
          "name": "",
          "type": "uint8"
        }
      ],
      "name": "pieces",
      "outputs": [
        {
          "internalType": "uint8",
          "name": "id",
          "type": "uint8"
        },
        {
          "internalType": "enum PieceType",
          "name": "pieceType",
          "type": "uint8"
        },
        {
          "internalType": "address",
          "name": "owner",
          "type": "address"
        },
        {
          "internalType": "uint8",
          "name": "row",
          "type": "uint8"
        },
        {
          "internalType": "uint8",
          "name": "col",
          "type": "uint8"
        },
        {
          "internalType": "bool",
          "name": "alive",
          "type": "bool"
        },
        {
          "internalType": "uint256",
          "name": "commitment",
          "type": "uint256"
        },
        {
          "internalType": "bool",
          "name": "initialized",
          "type": "bool"
        }
      ],
      "stateMutability": "view",
      "type": "function",
      "constant": true
    },
    {
      "inputs": [],
      "name": "player1",
      "outputs": [
        {
          "internalType": "address",
          "name": "",
          "type": "address"
        }
      ],
      "stateMutability": "view",
      "type": "function",
      "constant": true
    },
    {
      "inputs": [],
      "name": "player2",
      "outputs": [
        {
          "internalType": "address",
          "name": "",
          "type": "address"
        }
      ],
      "stateMutability": "view",
      "type": "function",
      "constant": true
    },
    {
      "inputs": [],
      "name": "turnNumber",
      "outputs": [
        {
          "internalType": "uint8",
          "name": "",
          "type": "uint8"
        }
      ],
      "stateMutability": "view",
      "type": "function",
      "constant": true
    },
    {
      "inputs": [
        {
          "internalType": "uint256",
          "name": "_gameId",
          "type": "uint256"
        },
        {
          "internalType": "bool",
          "name": "_disableZKCheck",
          "type": "bool"
        }
      ],
      "name": "initialize",
      "outputs": [],
      "stateMutability": "nonpayable",
      "type": "function"
    },
    {
      "inputs": [],
      "name": "getPieces",
      "outputs": [
        {
          "components": [
            {
              "internalType": "uint8",
              "name": "id",
              "type": "uint8"
            },
            {
              "internalType": "enum PieceType",
              "name": "pieceType",
              "type": "uint8"
            },
            {
              "internalType": "address",
              "name": "owner",
              "type": "address"
            },
            {
              "internalType": "uint8",
              "name": "row",
              "type": "uint8"
            },
            {
              "internalType": "uint8",
              "name": "col",
              "type": "uint8"
            },
            {
              "internalType": "bool",
              "name": "alive",
              "type": "bool"
            },
            {
              "internalType": "uint256",
              "name": "commitment",
              "type": "uint256"
            },
            {
              "internalType": "bool",
              "name": "initialized",
              "type": "bool"
            }
          ],
          "internalType": "struct Piece[]",
          "name": "ret",
          "type": "tuple[]"
        }
      ],
      "stateMutability": "view",
      "type": "function",
      "constant": true
    },
    {
      "inputs": [
        {
          "components": [
            {
              "internalType": "uint8",
              "name": "id",
              "type": "uint8"
            },
            {
              "internalType": "enum PieceType",
              "name": "pieceType",
              "type": "uint8"
            },
            {
              "internalType": "address",
              "name": "owner",
              "type": "address"
            },
            {
              "internalType": "uint8",
              "name": "row",
              "type": "uint8"
            },
            {
              "internalType": "uint8",
              "name": "col",
              "type": "uint8"
            },
            {
              "internalType": "bool",
              "name": "alive",
              "type": "bool"
            },
            {
              "internalType": "uint256",
              "name": "commitment",
              "type": "uint256"
            },
            {
              "internalType": "bool",
              "name": "initialized",
              "type": "bool"
            }
          ],
          "internalType": "struct Piece",
          "name": "piece",
          "type": "tuple"
        },
        {
          "internalType": "uint8[]",
          "name": "toRow",
          "type": "uint8[]"
        },
        {
          "internalType": "uint8[]",
          "name": "toCol",
          "type": "uint8[]"
        }
      ],
      "name": "isValidMove",
      "outputs": [
        {
          "internalType": "bool",
          "name": "",
          "type": "bool"
        }
      ],
      "stateMutability": "view",
      "type": "function",
      "constant": true
    },
    {
      "inputs": [],
      "name": "gameShouldBeCompleted",
      "outputs": [
        {
          "internalType": "bool",
          "name": "",
          "type": "bool"
        }
      ],
      "stateMutability": "view",
      "type": "function",
      "constant": true
    },
    {
      "inputs": [],
      "name": "joinGame",
      "outputs": [],
      "stateMutability": "nonpayable",
      "type": "function"
    },
    {
      "inputs": [
        {
          "components": [
            {
              "internalType": "uint8",
              "name": "turnNumber",
              "type": "uint8"
            },
            {
              "internalType": "uint8",
              "name": "pieceId",
              "type": "uint8"
            },
            {
              "internalType": "enum PieceType",
              "name": "pieceType",
              "type": "uint8"
            },
            {
              "internalType": "uint8",
              "name": "row",
              "type": "uint8"
            },
            {
              "internalType": "uint8",
              "name": "col",
              "type": "uint8"
            },
            {
              "components": [
                {
                  "internalType": "uint256[2]",
                  "name": "a",
                  "type": "uint256[2]"
                },
                {
                  "internalType": "uint256[2][2]",
                  "name": "b",
                  "type": "uint256[2][2]"
                },
                {
                  "internalType": "uint256[2]",
                  "name": "c",
                  "type": "uint256[2]"
                },
                {
                  "internalType": "uint256[1]",
                  "name": "input",
                  "type": "uint256[1]"
                }
              ],
              "internalType": "struct SummonZKP",
              "name": "zkp",
              "type": "tuple"
            }
          ],
          "internalType": "struct Summon",
          "name": "summon",
          "type": "tuple"
        }
      ],
      "name": "doSummon",
      "outputs": [],
      "stateMutability": "nonpayable",
      "type": "function"
    },
    {
      "inputs": [
        {
          "components": [
            {
              "internalType": "uint8",
              "name": "turnNumber",
              "type": "uint8"
            },
            {
              "internalType": "uint8",
              "name": "pieceId",
              "type": "uint8"
            },
            {
              "internalType": "uint8[]",
              "name": "moveToRow",
              "type": "uint8[]"
            },
            {
              "internalType": "uint8[]",
              "name": "moveToCol",
              "type": "uint8[]"
            },
            {
              "components": [
                {
                  "internalType": "uint256[2]",
                  "name": "a",
                  "type": "uint256[2]"
                },
                {
                  "internalType": "uint256[2][2]",
                  "name": "b",
                  "type": "uint256[2][2]"
                },
                {
                  "internalType": "uint256[2]",
                  "name": "c",
                  "type": "uint256[2]"
                },
                {
                  "internalType": "uint256[2]",
                  "name": "input",
                  "type": "uint256[2]"
                }
              ],
              "internalType": "struct MoveZKP",
              "name": "zkp",
              "type": "tuple"
            }
          ],
          "internalType": "struct Move",
          "name": "move",
          "type": "tuple"
        }
      ],
      "name": "doMove",
      "outputs": [],
      "stateMutability": "nonpayable",
      "type": "function"
    },
    {
      "inputs": [
        {
          "internalType": "uint8",
          "name": "_turnNumber",
          "type": "uint8"
        }
      ],
      "name": "endTurn",
      "outputs": [],
      "stateMutability": "nonpayable",
      "type": "function"
    }
  ],
  "bytecode": "0x608060405234801561001057600080fd5b50614711806100206000396000f3fe608060405234801561001057600080fd5b50600436106101425760003560e01c80638af9d562116100b8578063d30895e41161007c578063d30895e414610382578063d4f77b1c146103a0578063d7c81b55146103aa578063dc4a3e95146103c8578063df54a928146103e6578063e4ecc4541461041657610142565b80638af9d562146102da578063acbc1a91146102f8578063cf615f6c14610316578063cfecc6de14610334578063d1f9c24d1461036457610142565b80635595b5d51161010a5780635595b5d5146102065780635700401e14610222578063571249d31461024057806359a5f12d146102705780636b86447b1461028e57806381cb97ca146102aa57610142565b806327964666146101475780632c784f32146101635780633fb7388e1461019a578063414a37ba146101ca57806351df541c146101e8575b600080fd5b610161600480360381019061015c919061376a565b610432565b005b61017d600480360381019061017891906137e2565b6113c8565b604051610191989796959493929190614398565b60405180910390f35b6101b460048036038101906101af91906137a6565b61147e565b6040516101c1919061437d565b60405180910390f35b6101d26114b4565b6040516101df9190614362565b60405180910390f35b6101f06114d8565b6040516101fd91906140ec565b60405180910390f35b610220600480360381019061021b91906137e2565b611690565b005b61022a611807565b604051610237919061437d565b60405180910390f35b61025a60048036038101906102559190613695565b61181a565b60405161026791906140ec565b60405180910390f35b610278611b0c565b6040516102859190614024565b60405180910390f35b6102a860048036038101906102a39190613717565b611b32565b005b6102c460048036038101906102bf919061380b565b611e59565b6040516102d191906140ec565b60405180910390f35b6102e2611e88565b6040516102ef91906140ec565b60405180910390f35b610300611e9b565b60405161030d9190614362565b60405180910390f35b61031e611ebf565b60405161032b9190614083565b60405180910390f35b61034e60048036038101906103499190613741565b6120ba565b60405161035b919061437d565b60405180910390f35b61036c6120e1565b6040516103799190614107565b60405180910390f35b61038a6120f4565b6040516103979190614024565b60405180910390f35b6103a861211a565b005b6103b261258e565b6040516103bf9190614362565b60405180910390f35b6103d0612594565b6040516103dd9190614362565b60405180910390f35b61040060048036038101906103fb919061380b565b612599565b60405161040d91906140ec565b60405180910390f35b610430600480360381019061042b9190613654565b6125c8565b005b8160338190555080603e60006101000a81548160ff0219169083151502179055506000603460016101000a81548160ff0219169083600381111561047257fe5b0217905550604051806101000160405280600160ff168152602001600260ff168152602001600360ff168152602001600460ff168152602001600560ff168152602001600660ff168152602001600760ff168152602001600860ff16815250603c9060086104e1929190612f89565b50604051806101000160405280600160ff1681526020016000600281111561050557fe5b8152602001600073ffffffffffffffffffffffffffffffffffffffff168152602001600060ff168152602001600160ff1681526020016001151581526020016000815260200160011515815250603d6000600160ff16815260200190815260200160002060008201518160000160006101000a81548160ff021916908360ff16021790555060208201518160000160016101000a81548160ff021916908360028111156105ae57fe5b021790555060408201518160000160026101000a81548173ffffffffffffffffffffffffffffffffffffffff021916908373ffffffffffffffffffffffffffffffffffffffff16021790555060608201518160000160166101000a81548160ff021916908360ff16021790555060808201518160000160176101000a81548160ff021916908360ff16021790555060a08201518160000160186101000a81548160ff02191690831515021790555060c0820151816001015560e08201518160020160006101000a81548160ff0219169083151502179055509050506001603560006007811061069957fe5b016001600781106106a657fe5b602091828204019190066101000a81548160ff021916908360ff160217905550604051806101000160405280600260ff168152602001600160028111156106e957fe5b8152602001600073ffffffffffffffffffffffffffffffffffffffff168152602001600060ff168152602001600360ff1681526020016001151581526020016000815260200160011515815250603d6000600260ff16815260200190815260200160002060008201518160000160006101000a81548160ff021916908360ff16021790555060208201518160000160016101000a81548160ff0219169083600281111561079257fe5b021790555060408201518160000160026101000a81548173ffffffffffffffffffffffffffffffffffffffff021916908373ffffffffffffffffffffffffffffffffffffffff16021790555060608201518160000160166101000a81548160ff021916908360ff16021790555060808201518160000160176101000a81548160ff021916908360ff16021790555060a08201518160000160186101000a81548160ff02191690831515021790555060c0820151816001015560e08201518160020160006101000a81548160ff0219169083151502179055509050506002603560006007811061087d57fe5b0160036007811061088a57fe5b602091828204019190066101000a81548160ff021916908360ff160217905550604051806101000160405280600360ff168152602001600060028111156108cd57fe5b8152602001600073ffffffffffffffffffffffffffffffffffffffff168152602001600060ff168152602001600560ff1681526020016001151581526020016000815260200160011515815250603d6000600360ff16815260200190815260200160002060008201518160000160006101000a81548160ff021916908360ff16021790555060208201518160000160016101000a81548160ff0219169083600281111561097657fe5b021790555060408201518160000160026101000a81548173ffffffffffffffffffffffffffffffffffffffff021916908373ffffffffffffffffffffffffffffffffffffffff16021790555060608201518160000160166101000a81548160ff021916908360ff16021790555060808201518160000160176101000a81548160ff021916908360ff16021790555060a08201518160000160186101000a81548160ff02191690831515021790555060c0820151816001015560e08201518160020160006101000a81548160ff02191690831515021790555090505060036035600060078110610a6157fe5b01600560078110610a6e57fe5b602091828204019190066101000a81548160ff021916908360ff160217905550604051806101000160405280600460ff168152602001600280811115610ab057fe5b8152602001600073ffffffffffffffffffffffffffffffffffffffff168152602001600060ff168152602001600060ff1681526020016001151581526020017f104ddaefd01036b8465b22025720f944733190135fd4ed564186bc3cfcaec722815260200160011515815250603d6000600460ff16815260200190815260200160002060008201518160000160006101000a81548160ff021916908360ff16021790555060208201518160000160016101000a81548160ff02191690836002811115610b7857fe5b021790555060408201518160000160026101000a81548173ffffffffffffffffffffffffffffffffffffffff021916908373ffffffffffffffffffffffffffffffffffffffff16021790555060608201518160000160166101000a81548160ff021916908360ff16021790555060808201518160000160176101000a81548160ff021916908360ff16021790555060a08201518160000160186101000a81548160ff02191690831515021790555060c0820151816001015560e08201518160020160006101000a81548160ff021916908315150217905550905050604051806101000160405280600560ff16815260200160006002811115610c7657fe5b8152602001600073ffffffffffffffffffffffffffffffffffffffff168152602001600660ff168152602001600160ff1681526020016001151581526020016000815260200160011515815250603d6000600560ff16815260200190815260200160002060008201518160000160006101000a81548160ff021916908360ff16021790555060208201518160000160016101000a81548160ff02191690836002811115610d1f57fe5b021790555060408201518160000160026101000a81548173ffffffffffffffffffffffffffffffffffffffff021916908373ffffffffffffffffffffffffffffffffffffffff16021790555060608201518160000160166101000a81548160ff021916908360ff16021790555060808201518160000160176101000a81548160ff021916908360ff16021790555060a08201518160000160186101000a81548160ff02191690831515021790555060c0820151816001015560e08201518160020160006101000a81548160ff02191690831515021790555090505060056035600660078110610e0a57fe5b01600160078110610e1757fe5b602091828204019190066101000a81548160ff021916908360ff160217905550604051806101000160405280600660ff16815260200160016002811115610e5a57fe5b8152602001600073ffffffffffffffffffffffffffffffffffffffff168152602001600660ff168152602001600360ff1681526020016001151581526020016000815260200160011515815250603d6000600660ff16815260200190815260200160002060008201518160000160006101000a81548160ff021916908360ff16021790555060208201518160000160016101000a81548160ff02191690836002811115610f0357fe5b021790555060408201518160000160026101000a81548173ffffffffffffffffffffffffffffffffffffffff021916908373ffffffffffffffffffffffffffffffffffffffff16021790555060608201518160000160166101000a81548160ff021916908360ff16021790555060808201518160000160176101000a81548160ff021916908360ff16021790555060a08201518160000160186101000a81548160ff02191690831515021790555060c0820151816001015560e08201518160020160006101000a81548160ff02191690831515021790555090505060066035600660078110610fee57fe5b01600360078110610ffb57fe5b602091828204019190066101000a81548160ff021916908360ff160217905550604051806101000160405280600760ff1681526020016000600281111561103e57fe5b8152602001600073ffffffffffffffffffffffffffffffffffffffff168152602001600660ff168152602001600560ff1681526020016001151581526020016000815260200160011515815250603d6000600760ff16815260200190815260200160002060008201518160000160006101000a81548160ff021916908360ff16021790555060208201518160000160016101000a81548160ff021916908360028111156110e757fe5b021790555060408201518160000160026101000a81548173ffffffffffffffffffffffffffffffffffffffff021916908373ffffffffffffffffffffffffffffffffffffffff16021790555060608201518160000160166101000a81548160ff021916908360ff16021790555060808201518160000160176101000a81548160ff021916908360ff16021790555060a08201518160000160186101000a81548160ff02191690831515021790555060c0820151816001015560e08201518160020160006101000a81548160ff021916908315150217905550905050600760356006600781106111d257fe5b016005600781106111df57fe5b602091828204019190066101000a81548160ff021916908360ff160217905550604051806101000160405280600860ff16815260200160028081111561122157fe5b8152602001600073ffffffffffffffffffffffffffffffffffffffff168152602001600660ff168152602001600060ff1681526020016001151581526020017f104ddaefd01036b8465b22025720f944733190135fd4ed564186bc3cfcaec722815260200160011515815250603d6000600860ff16815260200190815260200160002060008201518160000160006101000a81548160ff021916908360ff16021790555060208201518160000160016101000a81548160ff021916908360028111156112e957fe5b021790555060408201518160000160026101000a81548173ffffffffffffffffffffffffffffffffffffffff021916908373ffffffffffffffffffffffffffffffffffffffff16021790555060608201518160000160166101000a81548160ff021916908360ff16021790555060808201518160000160176101000a81548160ff021916908360ff16021790555060a08201518160000160186101000a81548160ff02191690831515021790555060c0820151816001015560e08201518160020160006101000a81548160ff0219169083151502179055509050505050565b603d6020528060005260406000206000915090508060000160009054906101000a900460ff16908060000160019054906101000a900460ff16908060000160029054906101000a900473ffffffffffffffffffffffffffffffffffffffff16908060000160169054906101000a900460ff16908060000160179054906101000a900460ff16908060000160189054906101000a900460ff16908060010154908060020160009054906101000a900460ff16905088565b6035826007811061148b57fe5b01816007811061149757fe5b60209182820401919006915091509054906101000a900460ff1681565b7f30644e72e131a029b85045b68181585d2833e84879b9709143e1f593f000000181565b60008060009050600080905060008090505b60088160ff16101561167d576000603d6000603c8460ff166008811061150c57fe5b602091828204019190069054906101000a900460ff1660ff1660ff1681526020019081526020016000209050603e60019054906101000a900473ffffffffffffffffffffffffffffffffffffffff1673ffffffffffffffffffffffffffffffffffffffff168160000160029054906101000a900473ffffffffffffffffffffffffffffffffffffffff1673ffffffffffffffffffffffffffffffffffffffff161480156115c757508060000160189054906101000a900460ff165b156115d5576001935061166f565b603f60009054906101000a900473ffffffffffffffffffffffffffffffffffffffff1673ffffffffffffffffffffffffffffffffffffffff168160000160029054906101000a900473ffffffffffffffffffffffffffffffffffffffff1673ffffffffffffffffffffffffffffffffffffffff1614801561166457508060000160189054906101000a900460ff165b1561166e57600192505b5b5080806001019150506114ea565b508180156116885750805b159250505090565b61169981612d58565b603e60019054906101000a900473ffffffffffffffffffffffffffffffffffffffff1673ffffffffffffffffffffffffffffffffffffffff163373ffffffffffffffffffffffffffffffffffffffff161415611718576002603460016101000a81548160ff0219169083600381111561170e57fe5b021790555061176f565b6034600081819054906101000a900460ff168092919060010191906101000a81548160ff021916908360ff160217905550506001603460016101000a81548160ff0219169083600381111561176957fe5b02179055505b7f95d8dea3d987d2163d15eb7c5db7cdff58efde46972835877952ee40cb7a16a03360405161179e919061403f565b60405180910390a16117ae6114d8565b15611804576003603460016101000a81548160ff021916908360038111156117d257fe5b02179055507fb537cbcadc098cfedf5a04ef7e68a8554b55f7e45bfdaca1cbc51a686ef65f4860405160405180910390a15b50565b603460009054906101000a900460ff1681565b600080846060015190506000856080015190508351855114611871576040517f08c379a0000000000000000000000000000000000000000000000000000000008152600401611868906142a2565b60405180910390fd5b60008090506000600281111561188357fe5b8760200151600281111561189357fe5b14156118a257600190506118cb565b600160028111156118af57fe5b876020015160028111156118bf57fe5b14156118ca57600290505b5b8060ff1686511115611912576040517f08c379a000000000000000000000000000000000000000000000000000000000815260040161190990614302565b60405180910390fd5b60008090505b8651811015611afd57600087828151811061192f57fe5b60200260200101519050600087838151811061194757fe5b6020026020010151905060078260ff161080611966575060078160ff16105b6119a5576040517f08c379a000000000000000000000000000000000000000000000000000000000815260040161199c906141a2565b60405180910390fd5b8560ff168260ff1614806119be57508460ff168160ff16145b80156119ff5750600186830360ff1614806119de5750600182870360ff16145b806119ee5750600185820360ff16145b806119fe5750600181860360ff16145b5b611a3e576040517f08c379a0000000000000000000000000000000000000000000000000000000008152600401611a35906142a2565b60405180910390fd5b600060358360ff1660078110611a5057fe5b018260ff1660078110611a5f57fe5b602091828204019190069054906101000a900460ff1690506000603d60008360ff1660ff16815260200190815260200160002090508060000160189054906101000a900460ff1615611ae6576040517f08c379a0000000000000000000000000000000000000000000000000000000008152600401611add90614122565b60405180910390fd5b839750829650505050508080600101915050611918565b50600193505050509392505050565b603f60009054906101000a900473ffffffffffffffffffffffffffffffffffffffff1681565b611b3f8160000151612d58565b603d6000826020015160ff1660ff16815260200190815260200160002060020160009054906101000a900460ff1615611bad576040517f08c379a0000000000000000000000000000000000000000000000000000000008152600401611ba4906142c2565b60405180910390fd5b604051806101000160405280826020015160ff16815260200182604001516002811115611bd657fe5b81526020013373ffffffffffffffffffffffffffffffffffffffff168152602001826060015160ff168152602001826080015160ff1681526020016001151581526020018260a0015160600151600060018110611c2f57fe5b6020020151815260200160011515815250603d6000836020015160ff1660ff16815260200190815260200160002060008201518160000160006101000a81548160ff021916908360ff16021790555060208201518160000160016101000a81548160ff02191690836002811115611ca257fe5b021790555060408201518160000160026101000a81548173ffffffffffffffffffffffffffffffffffffffff021916908373ffffffffffffffffffffffffffffffffffffffff16021790555060608201518160000160166101000a81548160ff021916908360ff16021790555060808201518160000160176101000a81548160ff021916908360ff16021790555060a08201518160000160186101000a81548160ff02191690831515021790555060c0820151816001015560e08201518160020160006101000a81548160ff021916908315150217905550905050600160406000836000015160ff1660ff1681526020019081526020016000206000836020015160ff1660ff16815260200190815260200160002060006101000a81548160ff021916908315150217905550600160416000836000015160ff1660ff1681526020019081526020016000206000836020015160ff1660ff16815260200190815260200160002060006101000a81548160ff0219169083151502179055507f95d8dea3d987d2163d15eb7c5db7cdff58efde46972835877952ee40cb7a16a033604051611e4e919061403f565b60405180910390a150565b60416020528160005260406000206020528060005260406000206000915091509054906101000a900460ff1681565b603e60009054906101000a900460ff1681565b7f104ddaefd01036b8465b22025720f944733190135fd4ed564186bc3cfcaec72281565b6060600867ffffffffffffffff81118015611ed957600080fd5b50604051908082528060200260200182016040528015611f1357816020015b611f00613023565b815260200190600190039081611ef85790505b50905060008090505b60088160ff1610156120b357603d6000603c8360ff1660088110611f3c57fe5b602091828204019190069054906101000a900460ff1660ff1660ff168152602001908152602001600020604051806101000160405290816000820160009054906101000a900460ff1660ff1660ff1681526020016000820160019054906101000a900460ff166002811115611fad57fe5b6002811115611fb857fe5b81526020016000820160029054906101000a900473ffffffffffffffffffffffffffffffffffffffff1673ffffffffffffffffffffffffffffffffffffffff1673ffffffffffffffffffffffffffffffffffffffff1681526020016000820160169054906101000a900460ff1660ff1660ff1681526020016000820160179054906101000a900460ff1660ff1660ff1681526020016000820160189054906101000a900460ff16151515158152602001600182015481526020016002820160009054906101000a900460ff161515151581525050828260ff168151811061209b57fe5b60200260200101819052508080600101915050611f1c565b5080905090565b603c81600881106120c757fe5b60209182820401919006915054906101000a900460ff1681565b603460019054906101000a900460ff1681565b603e60019054906101000a900473ffffffffffffffffffffffffffffffffffffffff1681565b6000600381111561212757fe5b603460019054906101000a900460ff16600381111561214257fe5b14612182576040517f08c379a000000000000000000000000000000000000000000000000000000000815260040161217990614322565b60405180910390fd5b600073ffffffffffffffffffffffffffffffffffffffff16603e60019054906101000a900473ffffffffffffffffffffffffffffffffffffffff1673ffffffffffffffffffffffffffffffffffffffff16141561221f5733603e60016101000a81548173ffffffffffffffffffffffffffffffffffffffff021916908373ffffffffffffffffffffffffffffffffffffffff16021790555061258c565b603e60019054906101000a900473ffffffffffffffffffffffffffffffffffffffff1673ffffffffffffffffffffffffffffffffffffffff163373ffffffffffffffffffffffffffffffffffffffff1614156122b0576040517f08c379a00000000000000000000000000000000000000000000000000000000081526004016122a790614182565b60405180910390fd5b6000600242816122bc57fe5b0614156123095733603f60006101000a81548173ffffffffffffffffffffffffffffffffffffffff021916908373ffffffffffffffffffffffffffffffffffffffff1602179055506123ae565b603e60019054906101000a900473ffffffffffffffffffffffffffffffffffffffff16603f60006101000a81548173ffffffffffffffffffffffffffffffffffffffff021916908373ffffffffffffffffffffffffffffffffffffffff16021790555033603e60016101000a81548173ffffffffffffffffffffffffffffffffffffffff021916908373ffffffffffffffffffffffffffffffffffffffff1602179055505b6000600190505b60058160ff16101561244b57603e60019054906101000a900473ffffffffffffffffffffffffffffffffffffffff16603d60008360ff1660ff16815260200190815260200160002060000160026101000a81548173ffffffffffffffffffffffffffffffffffffffff021916908373ffffffffffffffffffffffffffffffffffffffff16021790555080806001019150506123b5565b506000600590505b60098160ff1610156124e957603f60009054906101000a900473ffffffffffffffffffffffffffffffffffffffff16603d60008360ff1660ff16815260200190815260200160002060000160026101000a81548173ffffffffffffffffffffffffffffffffffffffff021916908373ffffffffffffffffffffffffffffffffffffffff1602179055508080600101915050612453565b506001603460016101000a81548160ff0219169083600381111561250957fe5b02179055507f8fd707874eb940598510258c64cad23fd35fe8c85c5c38e8782fac2cc887fb6e603e60019054906101000a900473ffffffffffffffffffffffffffffffffffffffff16603f60009054906101000a900473ffffffffffffffffffffffffffffffffffffffff1660405161258392919061405a565b60405180910390a15b565b60335481565b600781565b60406020528160005260406000206020528060005260406000206000915091509054906101000a900460ff1681565b6125d58160000151612d58565b6000603d6000836020015160ff1660ff16815260200190815260200160002090503373ffffffffffffffffffffffffffffffffffffffff168160000160029054906101000a900473ffffffffffffffffffffffffffffffffffffffff1673ffffffffffffffffffffffffffffffffffffffff161480156126a65750600073ffffffffffffffffffffffffffffffffffffffff168160000160029054906101000a900473ffffffffffffffffffffffffffffffffffffffff1673ffffffffffffffffffffffffffffffffffffffff1614155b6126e5576040517f08c379a00000000000000000000000000000000000000000000000000000000081526004016126dc90614222565b60405180910390fd5b8060000160189054906101000a900460ff16612736576040517f08c379a000000000000000000000000000000000000000000000000000000000815260040161272d90614162565b60405180910390fd5b60406000836000015160ff1660ff16815260200190815260200160002060008260000160009054906101000a900460ff1660ff1660ff16815260200190815260200160002060009054906101000a900460ff16156127c9576040517f08c379a00000000000000000000000000000000000000000000000000000000081526004016127c090614242565b60405180910390fd5b60416000836000015160ff1660ff16815260200190815260200160002060008260000160009054906101000a900460ff1660ff1660ff16815260200190815260200160002060009054906101000a900460ff161561285c576040517f08c379a0000000000000000000000000000000000000000000000000000000008152600401612853906141e2565b60405180910390fd5b60028081111561286857fe5b8160000160019054906101000a900460ff16600281111561288557fe5b1415612a12578160800151606001516000600281106128a057fe5b60200201518160010154146128ea576040517f08c379a00000000000000000000000000000000000000000000000000000000081526004016128e1906142e2565b60405180910390fd5b603e60009054906101000a900460ff166129eb5773__Verifier______________________________63ab4753078360800151600001518460800151602001518560800151604001518660800151606001516040518563ffffffff1660e01b815260040161295b94939291906140a5565b60206040518083038186803b15801561297357600080fd5b505af4158015612987573d6000803e3d6000fd5b505050506040513d601f19601f820116820180604052508101906129ab919061362b565b6129ea576040517f08c379a00000000000000000000000000000000000000000000000000000000081526004016129e1906141c2565b60405180910390fd5b5b816080015160600151600160028110612a0057fe5b60200201518160010181905550612cbf565b606082604001519050606083606001519050612b5583604051806101000160405290816000820160009054906101000a900460ff1660ff1660ff1681526020016000820160019054906101000a900460ff166002811115612a6f57fe5b6002811115612a7a57fe5b81526020016000820160029054906101000a900473ffffffffffffffffffffffffffffffffffffffff1673ffffffffffffffffffffffffffffffffffffffff1673ffffffffffffffffffffffffffffffffffffffff1681526020016000820160169054906101000a900460ff1660ff1660ff1681526020016000820160179054906101000a900460ff1660ff1660ff1681526020016000820160189054906101000a900460ff16151515158152602001600182015481526020016002820160009054906101000a900460ff161515151581525050838361181a565b612b94576040517f08c379a0000000000000000000000000000000000000000000000000000000008152600401612b8b90614202565b60405180910390fd5b600082600184510381518110612ba657fe5b60200260200101519050600082600184510381518110612bc257fe5b60200260200101519050600060358660000160169054906101000a900460ff1660ff1660078110612bef57fe5b018660000160179054906101000a900460ff1660ff1660078110612c0f57fe5b602091828204019190066101000a81548160ff021916908360ff1602179055508460000160009054906101000a900460ff1660358360ff1660078110612c5157fe5b018260ff1660078110612c6057fe5b602091828204019190066101000a81548160ff021916908360ff160217905550818560000160166101000a81548160ff021916908360ff160217905550808560000160176101000a81548160ff021916908360ff160217905550505050505b600160406000846000015160ff1660ff16815260200190815260200160002060008360000160009054906101000a900460ff1660ff1660ff16815260200190815260200160002060006101000a81548160ff0219169083151502179055507f95d8dea3d987d2163d15eb7c5db7cdff58efde46972835877952ee40cb7a16a033604051612d4c919061403f565b60405180910390a15050565b600380811115612d6457fe5b603460019054906101000a900460ff166003811115612d7f57fe5b1415612dc0576040517f08c379a0000000000000000000000000000000000000000000000000000000008152600401612db790614262565b60405180910390fd5b603e60019054906101000a900473ffffffffffffffffffffffffffffffffffffffff1673ffffffffffffffffffffffffffffffffffffffff163373ffffffffffffffffffffffffffffffffffffffff161415612e7f5760016003811115612e2357fe5b603460019054906101000a900460ff166003811115612e3e57fe5b14612e7e576040517f08c379a0000000000000000000000000000000000000000000000000000000008152600401612e7590614342565b60405180910390fd5b5b603f60009054906101000a900473ffffffffffffffffffffffffffffffffffffffff1673ffffffffffffffffffffffffffffffffffffffff163373ffffffffffffffffffffffffffffffffffffffff161415612f3e5760026003811115612ee257fe5b603460019054906101000a900460ff166003811115612efd57fe5b14612f3d576040517f08c379a0000000000000000000000000000000000000000000000000000000008152600401612f3490614282565b60405180910390fd5b5b8060ff168160ff1614612f86576040517f08c379a0000000000000000000000000000000000000000000000000000000008152600401612f7d90614142565b60405180910390fd5b50565b826008601f016020900481019282156130125791602002820160005b83821115612fe357835183826101000a81548160ff021916908360ff1602179055509260200192600101602081600001049283019260010302612fa5565b80156130105782816101000a81549060ff0219169055600101602081600001049283019260010302612fe3565b505b50905061301f9190613096565b5090565b604051806101000160405280600060ff1681526020016000600281111561304657fe5b8152602001600073ffffffffffffffffffffffffffffffffffffffff168152602001600060ff168152602001600060ff168152602001600015158152602001600081526020016000151581525090565b6130c391905b808211156130bf57600081816101000a81549060ff02191690555060010161309c565b5090565b90565b6000813590506130d58161466f565b92915050565b600082601f8301126130ec57600080fd5b60026130ff6130fa82614443565b614416565b9150818385604084028201111561311557600080fd5b60005b83811015613145578161312b88826131c3565b845260208401935060408301925050600181019050613118565b5050505092915050565b600082601f83011261316057600080fd5b600161317361316e82614465565b614416565b9150818385602084028201111561318957600080fd5b60005b838110156131b9578161319f8882613601565b84526020840193506020830192505060018101905061318c565b5050505092915050565b600082601f8301126131d457600080fd5b60026131e76131e282614487565b614416565b915081838560208402820111156131fd57600080fd5b60005b8381101561322d57816132138882613601565b845260208401935060208301925050600181019050613200565b5050505092915050565b600082601f83011261324857600080fd5b813561325b613256826144a9565b614416565b9150818183526020840193506020810190508385602084028201111561328057600080fd5b60005b838110156132b057816132968882613616565b845260208401935060208301925050600181019050613283565b5050505092915050565b6000813590506132c981614686565b92915050565b6000815190506132de81614686565b92915050565b6000813590506132f38161469d565b92915050565b6000610140828403121561330c57600080fd5b6133166080614416565b90506000613326848285016131c3565b600083015250604061333a848285016130db565b60208301525060c061334e848285016131c3565b604083015250610100613363848285016131c3565b60608301525092915050565b60006101c0828403121561338257600080fd5b61338c60a0614416565b9050600061339c84828501613616565b60008301525060206133b084828501613616565b602083015250604082013567ffffffffffffffff8111156133d057600080fd5b6133dc84828501613237565b604083015250606082013567ffffffffffffffff8111156133fc57600080fd5b61340884828501613237565b606083015250608061341c848285016132f9565b60808301525092915050565b6000610100828403121561343b57600080fd5b613446610100614416565b9050600061345684828501613616565b600083015250602061346a848285016132e4565b602083015250604061347e848285016130c6565b604083015250606061349284828501613616565b60608301525060806134a684828501613616565b60808301525060a06134ba848285016132ba565b60a08301525060c06134ce84828501613601565b60c08301525060e06134e2848285016132ba565b60e08301525092915050565b6000610120828403121561350157600080fd5b61350b6080614416565b9050600061351b848285016131c3565b600083015250604061352f848285016130db565b60208301525060c0613543848285016131c3565b6040830152506101006135588482850161314f565b60608301525092915050565b60006101c0828403121561357757600080fd5b61358160c0614416565b9050600061359184828501613616565b60008301525060206135a584828501613616565b60208301525060406135b9848285016132e4565b60408301525060606135cd84828501613616565b60608301525060806135e184828501613616565b60808301525060a06135f5848285016134ee565b60a08301525092915050565b600081359050613610816146ad565b92915050565b600081359050613625816146c4565b92915050565b60006020828403121561363d57600080fd5b600061364b848285016132cf565b91505092915050565b60006020828403121561366657600080fd5b600082013567ffffffffffffffff81111561368057600080fd5b61368c8482850161336f565b91505092915050565b600080600061014084860312156136ab57600080fd5b60006136b986828701613428565b93505061010084013567ffffffffffffffff8111156136d757600080fd5b6136e386828701613237565b92505061012084013567ffffffffffffffff81111561370157600080fd5b61370d86828701613237565b9150509250925092565b60006101c0828403121561372a57600080fd5b600061373884828501613564565b91505092915050565b60006020828403121561375357600080fd5b600061376184828501613601565b91505092915050565b6000806040838503121561377d57600080fd5b600061378b85828601613601565b925050602061379c858286016132ba565b9150509250929050565b600080604083850312156137b957600080fd5b60006137c785828601613601565b92505060206137d885828601613601565b9150509250929050565b6000602082840312156137f457600080fd5b600061380284828501613616565b91505092915050565b6000806040838503121561381e57600080fd5b600061382c85828601613616565b925050602061383d85828601613616565b9150509250929050565b600061385383836139c9565b60408301905092915050565b600061386b8383613f37565b6101008301905092915050565b60006138848383613ff7565b60208301905092915050565b613899816145fb565b82525050565b6138a881614580565b82525050565b6138b781614580565b82525050565b6138c6816144f5565b6138d0818461453d565b92506138db826144d1565b8060005b8381101561390c5781516138f38782613847565b96506138fe83614516565b9250506001810190506138df565b505050505050565b600061391f82614500565b6139298185614548565b9350613934836144db565b8060005b8381101561396557815161394c888261385f565b975061395783614523565b925050600181019050613938565b5085935050505092915050565b61397b8161450b565b6139858184614559565b9250613990826144eb565b8060005b838110156139c15781516139a88782613878565b96506139b383614530565b925050600181019050613994565b505050505050565b6139d28161450b565b6139dc8184614564565b92506139e7826144eb565b8060005b83811015613a185781516139ff8782613878565b9650613a0a83614530565b9250506001810190506139eb565b505050505050565b613a2981614592565b82525050565b613a3881614592565b82525050565b613a478161460d565b82525050565b613a568161461f565b82525050565b613a658161461f565b82525050565b6000613a7860278361456f565b91507f747269656420746f206d6f7665207468726f75676820616e206578697374696e60008301527f67207069656365000000000000000000000000000000000000000000000000006020830152604082019050919050565b6000613ade60118361456f565b91507f57726f6e67207475726e206e756d6265720000000000000000000000000000006000830152602082019050919050565b6000613b1e600d8361456f565b91507f50696563652069732064656164000000000000000000000000000000000000006000830152602082019050919050565b6000613b5e60158361456f565b91507f63616e2774206a6f696e2067616d6520747769636500000000000000000000006000830152602082019050919050565b6000613b9e601b8361456f565b91507f747269656420746f206d6f7665206f7574206f6620626f756e647300000000006000830152602082019050919050565b6000613bde60148361456f565b91507f4661696c6564207a6b206d6f766520636865636b0000000000000000000000006000830152602082019050919050565b6000613c1e60138361456f565b91507f706965636520616c7265616479206163746564000000000000000000000000006000830152602082019050919050565b6000613c5e600c8361456f565b91507f496e76616c6964206d6f766500000000000000000000000000000000000000006000830152602082019050919050565b6000613c9e601b8361456f565b91507f63616e2774206d6f7665206f70706f6e656e74277320706965636500000000006000830152602082019050919050565b6000613cde60138361456f565b91507f706965636520616c7265616479206d6f766564000000000000000000000000006000830152602082019050919050565b6000613d1e600d8361456f565b91507f47616d6520697320656e646564000000000000000000000000000000000000006000830152602082019050919050565b6000613d5e600d8361456f565b91507f4e6f742070322773207475726e000000000000000000000000000000000000006000830152602082019050919050565b6000613d9e600c8361456f565b91507f696e76616c6964206d6f766500000000000000000000000000000000000000006000830152602082019050919050565b6000613dde60178361456f565b91507f706965636520494420616c726561647920696e207573650000000000000000006000830152602082019050919050565b6000613e1e60108361456f565b91507f5a4b2050726f6f6620696e76616c6964000000000000000000000000000000006000830152602082019050919050565b6000613e5e602d8361456f565b91507f747269656420746f206d6f76652070696563652066757274686572207468616e60008301527f2072616e676520616c6c6f7773000000000000000000000000000000000000006020830152604082019050919050565b6000613ec460148361456f565b91507f47616d6520616c726561647920737461727465640000000000000000000000006000830152602082019050919050565b6000613f04600d8361456f565b91507f4e6f742070312773207475726e000000000000000000000000000000000000006000830152602082019050919050565b61010082016000820151613f4e6000850182614006565b506020820151613f616020850182613a4d565b506040820151613f74604085018261389f565b506060820151613f876060850182614006565b506080820151613f9a6080850182614006565b5060a0820151613fad60a0850182613a20565b5060c0820151613fc060c0850182613fd9565b5060e0820151613fd360e0850182613a20565b50505050565b613fe2816145e4565b82525050565b613ff1816145e4565b82525050565b614000816145e4565b82525050565b61400f816145ee565b82525050565b61401e816145ee565b82525050565b600060208201905061403960008301846138ae565b92915050565b60006020820190506140546000830184613890565b92915050565b600060408201905061406f60008301856138ae565b61407c60208301846138ae565b9392505050565b6000602082019050818103600083015261409d8184613914565b905092915050565b6000610140820190506140bb6000830187613972565b6140c860408301866138bd565b6140d560c0830185613972565b6140e3610100830184613972565b95945050505050565b60006020820190506141016000830184613a2f565b92915050565b600060208201905061411c6000830184613a3e565b92915050565b6000602082019050818103600083015261413b81613a6b565b9050919050565b6000602082019050818103600083015261415b81613ad1565b9050919050565b6000602082019050818103600083015261417b81613b11565b9050919050565b6000602082019050818103600083015261419b81613b51565b9050919050565b600060208201905081810360008301526141bb81613b91565b9050919050565b600060208201905081810360008301526141db81613bd1565b9050919050565b600060208201905081810360008301526141fb81613c11565b9050919050565b6000602082019050818103600083015261421b81613c51565b9050919050565b6000602082019050818103600083015261423b81613c91565b9050919050565b6000602082019050818103600083015261425b81613cd1565b9050919050565b6000602082019050818103600083015261427b81613d11565b9050919050565b6000602082019050818103600083015261429b81613d51565b9050919050565b600060208201905081810360008301526142bb81613d91565b9050919050565b600060208201905081810360008301526142db81613dd1565b9050919050565b600060208201905081810360008301526142fb81613e11565b9050919050565b6000602082019050818103600083015261431b81613e51565b9050919050565b6000602082019050818103600083015261433b81613eb7565b9050919050565b6000602082019050818103600083015261435b81613ef7565b9050919050565b60006020820190506143776000830184613fe8565b92915050565b60006020820190506143926000830184614015565b92915050565b6000610100820190506143ae600083018b614015565b6143bb602083018a613a5c565b6143c860408301896138ae565b6143d56060830188614015565b6143e26080830187614015565b6143ef60a0830186613a2f565b6143fc60c0830185613fe8565b61440960e0830184613a2f565b9998505050505050505050565b6000604051905081810181811067ffffffffffffffff8211171561443957600080fd5b8060405250919050565b600067ffffffffffffffff82111561445a57600080fd5b602082029050919050565b600067ffffffffffffffff82111561447c57600080fd5b602082029050919050565b600067ffffffffffffffff82111561449e57600080fd5b602082029050919050565b600067ffffffffffffffff8211156144c057600080fd5b602082029050602081019050919050565b6000819050919050565b6000819050602082019050919050565b6000819050919050565b600060029050919050565b600081519050919050565b600060029050919050565b6000602082019050919050565b6000602082019050919050565b6000602082019050919050565b600081905092915050565b600082825260208201905092915050565b600081905092915050565b600081905092915050565b600082825260208201905092915050565b600061458b826145c4565b9050919050565b60008115159050919050565b60008190506145ac82614655565b919050565b60008190506145bf82614662565b919050565b600073ffffffffffffffffffffffffffffffffffffffff82169050919050565b6000819050919050565b600060ff82169050919050565b600061460682614631565b9050919050565b60006146188261459e565b9050919050565b600061462a826145b1565b9050919050565b600061463c82614643565b9050919050565b600061464e826145c4565b9050919050565b6004811061465f57fe5b50565b6003811061466c57fe5b50565b61467881614580565b811461468357600080fd5b50565b61468f81614592565b811461469a57600080fd5b50565b600381106146aa57600080fd5b50565b6146b6816145e4565b81146146c157600080fd5b50565b6146cd816145ee565b81146146d857600080fd5b5056fea2646970667358221220fbfa4a761d3a50f598a818b05c6f40b484b1489081dbaac2d8d486934ca038df64736f6c63430006070033",
  "immutableReferences": {},
  "source": "pragma solidity ^0.6.7;\npragma experimental ABIEncoderV2;\n\nimport \"@openzeppelin/contracts-ethereum-package/contracts/Initializable.sol\";\nimport \"./ZKChessTypes.sol\";\nimport \"./ZKChessUtils.sol\";\nimport \"./Verifier.sol\";\n\ncontract ZKChessGame is Initializable {\n    uint256\n        public constant FIELD_SIZE = 21888242871839275222246405745257275088548364400416034343698204186575808495617;\n    uint256\n        public constant GHOST_START_COMMITMENT = 7374563847362678215915084925243633004703986452179446109135597066279732561698;\n    uint256 public constant BOARD_SIZE = 7;\n\n    uint256 public gameId;\n\n    uint8 public turnNumber;\n    GameState public gameState;\n    uint8[BOARD_SIZE][BOARD_SIZE] public boardPieces; // board[row][col]\n\n    uint8[8] public pieceIds;\n    mapping(uint8 => Piece) public pieces;\n\n    bool public DISABLE_ZK_CHECK;\n\n    address public player1;\n    address public player2;\n\n    // mapping from turn # -> piece # -> has acted\n    mapping(uint8 => mapping(uint8 => bool)) public hasMoved;\n    mapping(uint8 => mapping(uint8 => bool)) public hasAttacked;\n\n    uint256 pfsVerified;\n\n    function initialize(uint256 _gameId, bool _disableZKCheck) public {\n        gameId = _gameId;\n        DISABLE_ZK_CHECK = _disableZKCheck;\n        gameState = GameState.WAITING_FOR_PLAYERS;\n\n        pieceIds = [1, 2, 3, 4, 5, 6, 7, 8];\n\n        // initialize pieces\n        pieces[1] = Piece({\n            id: 1,\n            pieceType: PieceType.KING,\n            owner: address(0),\n            row: 0,\n            col: 1,\n            alive: true,\n            commitment: 0,\n            initialized: true\n        });\n        boardPieces[0][1] = 1;\n        pieces[2] = Piece({\n            id: 2,\n            pieceType: PieceType.KNIGHT,\n            owner: address(0),\n            row: 0,\n            col: 3,\n            alive: true,\n            commitment: 0,\n            initialized: true\n        });\n        boardPieces[0][3] = 2;\n        pieces[3] = Piece({\n            id: 3,\n            pieceType: PieceType.KING,\n            owner: address(0),\n            row: 0,\n            col: 5,\n            alive: true,\n            commitment: 0,\n            initialized: true\n        });\n        boardPieces[0][5] = 3;\n        pieces[4] = Piece({\n            id: 4,\n            pieceType: PieceType.GHOST,\n            owner: address(0),\n            row: 0,\n            col: 0,\n            alive: true,\n            commitment: GHOST_START_COMMITMENT,\n            initialized: true\n        });\n        pieces[5] = Piece({\n            id: 5,\n            pieceType: PieceType.KING,\n            owner: address(0),\n            row: 6,\n            col: 1,\n            alive: true,\n            commitment: 0,\n            initialized: true\n        });\n        boardPieces[6][1] = 5;\n        pieces[6] = Piece({\n            id: 6,\n            pieceType: PieceType.KNIGHT,\n            owner: address(0),\n            row: 6,\n            col: 3,\n            alive: true,\n            commitment: 0,\n            initialized: true\n        });\n        boardPieces[6][3] = 6;\n        pieces[7] = Piece({\n            id: 7,\n            pieceType: PieceType.KING,\n            owner: address(0),\n            row: 6,\n            col: 5,\n            alive: true,\n            commitment: 0,\n            initialized: true\n        });\n        boardPieces[6][5] = 7;\n        pieces[8] = Piece({\n            id: 8,\n            pieceType: PieceType.GHOST,\n            owner: address(0),\n            row: 6,\n            col: 0,\n            alive: true,\n            commitment: GHOST_START_COMMITMENT,\n            initialized: true\n        });\n    }\n\n    //////////////\n    /// EVENTS ///\n    //////////////\n\n    event ProofVerified(uint256 pfsAccepted);\n    event GameStart(address p1, address p2);\n    event ActionMade(address player);\n    event GameFinished();\n\n    ///////////////\n    /// GETTERS ///\n    ///////////////\n\n    function getPieces() public view returns (Piece[] memory ret) {\n        ret = new Piece[](pieceIds.length);\n        for (uint8 i = 0; i < pieceIds.length; i++) {\n            ret[i] = pieces[pieceIds[i]];\n        }\n        return ret;\n    }\n\n    //////////////\n    /// Helper ///\n    //////////////\n\n    function isValidMove(\n        Piece memory piece,\n        uint8[] memory toRow,\n        uint8[] memory toCol\n    ) public view returns (bool) {\n        uint8 currentRow = piece.row;\n        uint8 currentCol = piece.col;\n        require(toRow.length == toCol.length, \"invalid move\");\n        uint8 moveRange = 0;\n        if (piece.pieceType == PieceType.KING) {\n            moveRange = 1;\n        } else if (piece.pieceType == PieceType.KNIGHT) {\n            moveRange = 2;\n        }\n        require(\n            toRow.length <= moveRange,\n            \"tried to move piece further than range allows\"\n        );\n\n        for (uint256 i = 0; i < toRow.length; i++) {\n            uint8 nextRow = toRow[i];\n            uint8 nextCol = toCol[i];\n            // must be in range [0, SIZE - 1]\n            require(\n                nextRow < BOARD_SIZE || nextCol < BOARD_SIZE,\n                \"tried to move out of bounds\"\n            );\n            // (nextRow, nextCol) must be adjacent to (currentRow, currentCol)\n            require(\n                (nextRow == currentRow || nextCol == currentCol) &&\n                    (nextRow - currentRow == 1 ||\n                        currentRow - nextRow == 1 ||\n                        nextCol - currentCol == 1 ||\n                        currentCol - nextCol == 1),\n                \"invalid move\"\n            );\n            // can't move through or onto a square with a piece on it\n            uint8 pieceIdAtNextTile = boardPieces[nextRow][nextCol];\n            Piece storage pieceAtNextTile = pieces[pieceIdAtNextTile];\n            require(\n                !pieceAtNextTile.alive,\n                \"tried to move through an existing piece\"\n            );\n            currentRow = nextRow;\n            currentCol = nextCol;\n        }\n        return true;\n    }\n\n    function gameShouldBeCompleted() public view returns (bool) {\n        // check if game is over: at least one player has no pieces left\n        bool player1HasPiecesLeft = false;\n        bool player2HasPiecesLeft = false;\n        for (uint8 i = 0; i < pieceIds.length; i++) {\n            Piece storage piece = pieces[pieceIds[i]];\n            if (piece.owner == player1 && piece.alive) {\n                player1HasPiecesLeft = true;\n            } else if (piece.owner == player2 && piece.alive) {\n                player2HasPiecesLeft = true;\n            }\n        }\n        return !(player1HasPiecesLeft && player2HasPiecesLeft);\n    }\n\n    //////////////////////\n    /// Game Mechanics ///\n    //////////////////////\n\n    function checkAction(uint8 turnNumber) internal {\n        require(gameState != GameState.COMPLETE, \"Game is ended\");\n        if (msg.sender == player1) {\n            require(gameState == GameState.P1_TO_MOVE, \"Not p1's turn\");\n        }\n        if (msg.sender == player2) {\n            require(gameState == GameState.P2_TO_MOVE, \"Not p2's turn\");\n        }\n        require(turnNumber == turnNumber, \"Wrong turn number\");\n    }\n\n    function joinGame() public {\n        require(\n            gameState == GameState.WAITING_FOR_PLAYERS,\n            \"Game already started\"\n        );\n        if (player1 == address(0)) {\n            // first player to join game\n            player1 = msg.sender;\n            return;\n        }\n        // another player has joined. game is ready to start\n\n        require(msg.sender != player1, \"can't join game twice\");\n        // randomize player order\n        if (block.timestamp % 2 == 0) {\n            player2 = msg.sender;\n        } else {\n            player2 = player1;\n            player1 = msg.sender;\n        }\n\n        // set pieces\n        for (uint8 i = 1; i < 5; i++) {\n            pieces[i].owner = player1;\n        }\n        for (uint8 i = 5; i < 9; i++) {\n            pieces[i].owner = player2;\n        }\n\n        gameState = GameState.P1_TO_MOVE;\n        emit GameStart(player1, player2);\n    }\n\n    function doSummon(Summon memory summon) public {\n        checkAction(summon.turnNumber);\n        require(!pieces[summon.pieceId].initialized, \"piece ID already in use\");\n        /*\n        if (summon.pieceType == PieceType.GHOST) {\n            if (!DISABLE_ZK_CHECK) {\n                require(\n                    Verifier.verifySummonProof(\n                        summon.zkp.a,\n                        summon.zkp.b,\n                        summon.zkp.c,\n                        summon.zkp.input\n                    ),\n                    \"Failed ZK summon check\"\n                );\n            }\n        }\n            */\n        pieces[summon.pieceId] = Piece({\n            id: summon.pieceId,\n            pieceType: summon.pieceType,\n            owner: msg.sender,\n            row: summon.row,\n            col: summon.col,\n            alive: true,\n            commitment: summon.zkp.input[0],\n            initialized: true\n        });\n        // if piece has just been made, can't use it yet\n        // in the future this should be tracked in its own field\n        hasMoved[summon.turnNumber][summon.pieceId] = true;\n        hasAttacked[summon.turnNumber][summon.pieceId] = true;\n        emit ActionMade(msg.sender);\n    }\n\n    function doMove(Move memory move) public {\n        checkAction(move.turnNumber);\n        Piece storage piece = pieces[move.pieceId];\n        require(\n            piece.owner == msg.sender && piece.owner != address(0),\n            \"can't move opponent's piece\"\n        );\n        require(piece.alive, \"Piece is dead\");\n        require(!hasMoved[move.turnNumber][piece.id], \"piece already moved\");\n        require(!hasAttacked[move.turnNumber][piece.id], \"piece already acted\");\n\n        if (piece.pieceType == PieceType.GHOST) {\n            require(piece.commitment == move.zkp.input[0], \"ZK Proof invalid\");\n            if (!DISABLE_ZK_CHECK) {\n                require(\n                    Verifier.verifyMoveProof(\n                        move.zkp.a,\n                        move.zkp.b,\n                        move.zkp.c,\n                        move.zkp.input\n                    ),\n                    \"Failed zk move check\"\n                );\n            }\n            piece.commitment = move.zkp.input[1];\n        } else {\n            uint8[] memory moveToRow = move.moveToRow;\n            uint8[] memory moveToCol = move.moveToCol;\n            require(isValidMove(piece, moveToRow, moveToCol), \"Invalid move\");\n            uint8 toRow = moveToRow[moveToRow.length - 1];\n            uint8 toCol = moveToCol[moveToCol.length - 1];\n            boardPieces[piece.row][piece.col] = 0;\n            boardPieces[toRow][toCol] = piece.id;\n            piece.row = toRow;\n            piece.col = toCol;\n        }\n        hasMoved[move.turnNumber][piece.id] = true;\n        emit ActionMade(msg.sender);\n    }\n\n    function endTurn(uint8 _turnNumber) public {\n        checkAction(_turnNumber);\n        if (msg.sender == player1) {\n            // change to p2's turn\n            gameState = GameState.P2_TO_MOVE;\n        } else {\n            // change to p1's turn\n            turnNumber++;\n            gameState = GameState.P1_TO_MOVE;\n        }\n        emit ActionMade(msg.sender);\n\n        if (gameShouldBeCompleted()) {\n            gameState = GameState.COMPLETE;\n            emit GameFinished();\n        }\n    }\n}\n",
  "sourcePath": "/Users/bgu/zk-chess/eth/contracts/ZKChessGame.sol",
  "compiler": {
    "name": "solc",
    "version": "0.6.7+commit.b8d736ae.Emscripten.clang"
  },
  "schemaVersion": "3.3.1",
  "updatedAt": "2020-11-09T19:32:26.568Z",
  "networkType": "ethereum",
  "devdoc": {
    "methods": {}
  },
  "userdoc": {
    "methods": {
      "getPieces()": {
        "notice": "//////////// GETTERS /// ////////////"
      },
      "isValidMove((uint8,uint8,address,uint8,uint8,bool,uint256,bool),uint8[],uint8[])": {
        "notice": "/////////// Helper /// ///////////"
      }
    }
  }
}