{
  "contractName": "ZKChessGame",
  "abi": [
    {
      "anonymous": false,
      "inputs": [
        {
          "indexed": false,
          "internalType": "uint16",
          "name": "sequenceNumber",
          "type": "uint16"
        },
        {
          "indexed": false,
          "internalType": "uint8",
          "name": "attacker",
          "type": "uint8"
        },
        {
          "indexed": false,
          "internalType": "uint8",
          "name": "attacked",
          "type": "uint8"
        },
        {
          "indexed": false,
          "internalType": "uint8",
          "name": "attackerHp",
          "type": "uint8"
        },
        {
          "indexed": false,
          "internalType": "uint8",
          "name": "attackedHp",
          "type": "uint8"
        }
      ],
      "name": "DidAttack",
      "type": "event"
    },
    {
      "anonymous": false,
      "inputs": [
        {
          "indexed": false,
          "internalType": "address",
          "name": "player",
          "type": "address"
        },
        {
          "indexed": false,
          "internalType": "uint8",
          "name": "turnNumber",
          "type": "uint8"
        },
        {
          "indexed": false,
          "internalType": "uint16",
          "name": "sequenceNumber",
          "type": "uint16"
        }
      ],
      "name": "DidEndTurn",
      "type": "event"
    },
    {
      "anonymous": false,
      "inputs": [
        {
          "indexed": false,
          "internalType": "uint16",
          "name": "sequenceNumber",
          "type": "uint16"
        },
        {
          "indexed": false,
          "internalType": "uint8",
          "name": "pieceId",
          "type": "uint8"
        },
        {
          "indexed": false,
          "internalType": "uint8",
          "name": "fromRow",
          "type": "uint8"
        },
        {
          "indexed": false,
          "internalType": "uint8",
          "name": "fromCol",
          "type": "uint8"
        },
        {
          "indexed": false,
          "internalType": "uint8",
          "name": "toRow",
          "type": "uint8"
        },
        {
          "indexed": false,
          "internalType": "uint8",
          "name": "toCol",
          "type": "uint8"
        }
      ],
      "name": "DidMove",
      "type": "event"
    },
    {
      "anonymous": false,
      "inputs": [
        {
          "indexed": false,
          "internalType": "address",
          "name": "player",
          "type": "address"
        },
        {
          "indexed": false,
          "internalType": "uint8",
          "name": "pieceId",
          "type": "uint8"
        },
        {
          "indexed": false,
          "internalType": "uint16",
          "name": "sequenceNumber",
          "type": "uint16"
        },
        {
          "indexed": false,
          "internalType": "enum PieceType",
          "name": "pieceType",
          "type": "uint8"
        },
        {
          "indexed": false,
          "internalType": "uint8",
          "name": "atRow",
          "type": "uint8"
        },
        {
          "indexed": false,
          "internalType": "uint8",
          "name": "atCol",
          "type": "uint8"
        }
      ],
      "name": "DidSummon",
      "type": "event"
    },
    {
      "anonymous": false,
      "inputs": [],
      "name": "GameFinished",
      "type": "event"
    },
    {
      "anonymous": false,
      "inputs": [
        {
          "indexed": false,
          "internalType": "address",
          "name": "p1",
          "type": "address"
        },
        {
          "indexed": false,
          "internalType": "address",
          "name": "p2",
          "type": "address"
        }
      ],
      "name": "GameStart",
      "type": "event"
    },
    {
      "inputs": [],
      "name": "BOARD_SIZE",
      "outputs": [
        {
          "internalType": "uint256",
          "name": "",
          "type": "uint256"
        }
      ],
      "stateMutability": "view",
      "type": "function",
      "constant": true
    },
    {
      "inputs": [
        {
          "internalType": "uint256",
          "name": "",
          "type": "uint256"
        },
        {
          "internalType": "uint256",
          "name": "",
          "type": "uint256"
        }
      ],
      "name": "boardPieces",
      "outputs": [
        {
          "internalType": "uint8",
          "name": "",
          "type": "uint8"
        }
      ],
      "stateMutability": "view",
      "type": "function",
      "constant": true
    },
    {
      "inputs": [
        {
          "internalType": "enum PieceType",
          "name": "",
          "type": "uint8"
        }
      ],
      "name": "defaultStats",
      "outputs": [
        {
          "internalType": "enum PieceType",
          "name": "pieceType",
          "type": "uint8"
        },
        {
          "internalType": "uint8",
          "name": "mvRange",
          "type": "uint8"
        },
        {
          "internalType": "uint8",
          "name": "atkRange",
          "type": "uint8"
        },
        {
          "internalType": "uint8",
          "name": "hp",
          "type": "uint8"
        },
        {
          "internalType": "uint8",
          "name": "atk",
          "type": "uint8"
        },
        {
          "internalType": "uint8",
          "name": "cost",
          "type": "uint8"
        },
        {
          "internalType": "bool",
          "name": "isZk",
          "type": "bool"
        },
        {
          "internalType": "bool",
          "name": "kamikaze",
          "type": "bool"
        }
      ],
      "stateMutability": "view",
      "type": "function",
      "constant": true
    },
    {
      "inputs": [],
      "name": "gameId",
      "outputs": [
        {
          "internalType": "uint256",
          "name": "",
          "type": "uint256"
        }
      ],
      "stateMutability": "view",
      "type": "function",
      "constant": true
    },
    {
      "inputs": [],
      "name": "gameState",
      "outputs": [
        {
          "internalType": "enum GameState",
          "name": "",
          "type": "uint8"
        }
      ],
      "stateMutability": "view",
      "type": "function",
      "constant": true
    },
    {
      "inputs": [
        {
          "internalType": "uint8",
          "name": "",
          "type": "uint8"
        },
        {
          "internalType": "uint8",
          "name": "",
          "type": "uint8"
        }
      ],
      "name": "hasAttacked",
      "outputs": [
        {
          "internalType": "bool",
          "name": "",
          "type": "bool"
        }
      ],
      "stateMutability": "view",
      "type": "function",
      "constant": true
    },
    {
      "inputs": [
        {
          "internalType": "uint8",
          "name": "",
          "type": "uint8"
        },
        {
          "internalType": "uint8",
          "name": "",
          "type": "uint8"
        }
      ],
      "name": "hasMoved",
      "outputs": [
        {
          "internalType": "bool",
          "name": "",
          "type": "bool"
        }
      ],
      "stateMutability": "view",
      "type": "function",
      "constant": true
    },
    {
      "inputs": [
        {
          "internalType": "uint256",
          "name": "",
          "type": "uint256"
        }
      ],
      "name": "pieceIds",
      "outputs": [
        {
          "internalType": "uint8",
          "name": "",
          "type": "uint8"
        }
      ],
      "stateMutability": "view",
      "type": "function",
      "constant": true
    },
    {
      "inputs": [
        {
          "internalType": "uint8",
          "name": "",
          "type": "uint8"
        }
      ],
      "name": "pieces",
      "outputs": [
        {
          "internalType": "uint8",
          "name": "id",
          "type": "uint8"
        },
        {
          "internalType": "enum PieceType",
          "name": "pieceType",
          "type": "uint8"
        },
        {
          "internalType": "address",
          "name": "owner",
          "type": "address"
        },
        {
          "internalType": "uint8",
          "name": "row",
          "type": "uint8"
        },
        {
          "internalType": "uint8",
          "name": "col",
          "type": "uint8"
        },
        {
          "internalType": "bool",
          "name": "alive",
          "type": "bool"
        },
        {
          "internalType": "bool",
          "name": "initialized",
          "type": "bool"
        },
        {
          "internalType": "uint8",
          "name": "hp",
          "type": "uint8"
        },
        {
          "internalType": "uint8",
          "name": "initializedOnTurn",
          "type": "uint8"
        },
        {
          "internalType": "uint256",
          "name": "commitment",
          "type": "uint256"
        },
        {
          "internalType": "uint8",
          "name": "lastMove",
          "type": "uint8"
        },
        {
          "internalType": "uint8",
          "name": "lastAttack",
          "type": "uint8"
        }
      ],
      "stateMutability": "view",
      "type": "function",
      "constant": true
    },
    {
      "inputs": [],
      "name": "player1",
      "outputs": [
        {
          "internalType": "address",
          "name": "",
          "type": "address"
        }
      ],
      "stateMutability": "view",
      "type": "function",
      "constant": true
    },
    {
      "inputs": [],
      "name": "player1Mana",
      "outputs": [
        {
          "internalType": "uint8",
          "name": "",
          "type": "uint8"
        }
      ],
      "stateMutability": "view",
      "type": "function",
      "constant": true
    },
    {
      "inputs": [],
      "name": "player2",
      "outputs": [
        {
          "internalType": "address",
          "name": "",
          "type": "address"
        }
      ],
      "stateMutability": "view",
      "type": "function",
      "constant": true
    },
    {
      "inputs": [],
      "name": "player2Mana",
      "outputs": [
        {
          "internalType": "uint8",
          "name": "",
          "type": "uint8"
        }
      ],
      "stateMutability": "view",
      "type": "function",
      "constant": true
    },
    {
      "inputs": [],
      "name": "sequenceNumber",
      "outputs": [
        {
          "internalType": "uint16",
          "name": "",
          "type": "uint16"
        }
      ],
      "stateMutability": "view",
      "type": "function",
      "constant": true
    },
    {
      "inputs": [],
      "name": "turnNumber",
      "outputs": [
        {
          "internalType": "uint8",
          "name": "",
          "type": "uint8"
        }
      ],
      "stateMutability": "view",
      "type": "function",
      "constant": true
    },
    {
      "inputs": [
        {
          "internalType": "uint256",
          "name": "_gameId",
          "type": "uint256"
        }
      ],
      "name": "initialize",
      "outputs": [],
      "stateMutability": "nonpayable",
      "type": "function"
    },
    {
      "inputs": [],
      "name": "getPieces",
      "outputs": [
        {
          "components": [
            {
              "internalType": "uint8",
              "name": "id",
              "type": "uint8"
            },
            {
              "internalType": "enum PieceType",
              "name": "pieceType",
              "type": "uint8"
            },
            {
              "internalType": "address",
              "name": "owner",
              "type": "address"
            },
            {
              "internalType": "uint8",
              "name": "row",
              "type": "uint8"
            },
            {
              "internalType": "uint8",
              "name": "col",
              "type": "uint8"
            },
            {
              "internalType": "bool",
              "name": "alive",
              "type": "bool"
            },
            {
              "internalType": "bool",
              "name": "initialized",
              "type": "bool"
            },
            {
              "internalType": "uint8",
              "name": "hp",
              "type": "uint8"
            },
            {
              "internalType": "uint8",
              "name": "initializedOnTurn",
              "type": "uint8"
            },
            {
              "internalType": "uint256",
              "name": "commitment",
              "type": "uint256"
            },
            {
              "internalType": "uint8",
              "name": "lastMove",
              "type": "uint8"
            },
            {
              "internalType": "uint8",
              "name": "lastAttack",
              "type": "uint8"
            }
          ],
          "internalType": "struct Piece[]",
          "name": "ret",
          "type": "tuple[]"
        }
      ],
      "stateMutability": "view",
      "type": "function",
      "constant": true
    },
    {
      "inputs": [],
      "name": "getDefaults",
      "outputs": [
        {
          "components": [
            {
              "internalType": "enum PieceType",
              "name": "pieceType",
              "type": "uint8"
            },
            {
              "internalType": "uint8",
              "name": "mvRange",
              "type": "uint8"
            },
            {
              "internalType": "uint8",
              "name": "atkRange",
              "type": "uint8"
            },
            {
              "internalType": "uint8",
              "name": "hp",
              "type": "uint8"
            },
            {
              "internalType": "uint8",
              "name": "atk",
              "type": "uint8"
            },
            {
              "internalType": "uint8",
              "name": "cost",
              "type": "uint8"
            },
            {
              "internalType": "bool",
              "name": "isZk",
              "type": "bool"
            },
            {
              "internalType": "bool",
              "name": "kamikaze",
              "type": "bool"
            }
          ],
          "internalType": "struct PieceDefaultStats[]",
          "name": "ret",
          "type": "tuple[]"
        }
      ],
      "stateMutability": "view",
      "type": "function",
      "constant": true
    },
    {
      "inputs": [
        {
          "internalType": "uint8",
          "name": "_turnNumber",
          "type": "uint8"
        },
        {
          "internalType": "uint16",
          "name": "_sequenceNumber",
          "type": "uint16"
        }
      ],
      "name": "checkAction",
      "outputs": [
        {
          "internalType": "bool",
          "name": "",
          "type": "bool"
        }
      ],
      "stateMutability": "view",
      "type": "function",
      "constant": true
    },
    {
      "inputs": [],
      "name": "gameShouldBeCompleted",
      "outputs": [
        {
          "internalType": "bool",
          "name": "",
          "type": "bool"
        }
      ],
      "stateMutability": "view",
      "type": "function",
      "constant": true
    },
    {
      "inputs": [],
      "name": "joinGame",
      "outputs": [],
      "stateMutability": "nonpayable",
      "type": "function"
    },
    {
      "inputs": [
        {
          "components": [
            {
              "internalType": "uint8",
              "name": "turnNumber",
              "type": "uint8"
            },
            {
              "internalType": "uint16",
              "name": "sequenceNumber",
              "type": "uint16"
            },
            {
              "internalType": "uint8",
              "name": "pieceId",
              "type": "uint8"
            },
            {
              "internalType": "enum PieceType",
              "name": "pieceType",
              "type": "uint8"
            },
            {
              "internalType": "uint8",
              "name": "row",
              "type": "uint8"
            },
            {
              "internalType": "uint8",
              "name": "col",
              "type": "uint8"
            },
            {
              "components": [
                {
                  "internalType": "uint256[2]",
                  "name": "a",
                  "type": "uint256[2]"
                },
                {
                  "internalType": "uint256[2][2]",
                  "name": "b",
                  "type": "uint256[2][2]"
                },
                {
                  "internalType": "uint256[2]",
                  "name": "c",
                  "type": "uint256[2]"
                },
                {
                  "internalType": "uint256[5]",
                  "name": "input",
                  "type": "uint256[5]"
                }
              ],
              "internalType": "struct SummonZKP",
              "name": "zkp",
              "type": "tuple"
            }
          ],
          "internalType": "struct Summon",
          "name": "summon",
          "type": "tuple"
        }
      ],
      "name": "doSummon",
      "outputs": [],
      "stateMutability": "nonpayable",
      "type": "function"
    },
    {
      "inputs": [
        {
          "components": [
            {
              "internalType": "uint8",
              "name": "turnNumber",
              "type": "uint8"
            },
            {
              "internalType": "uint16",
              "name": "sequenceNumber",
              "type": "uint16"
            },
            {
              "internalType": "uint8",
              "name": "pieceId",
              "type": "uint8"
            },
            {
              "internalType": "uint8[]",
              "name": "moveToRow",
              "type": "uint8[]"
            },
            {
              "internalType": "uint8[]",
              "name": "moveToCol",
              "type": "uint8[]"
            },
            {
              "components": [
                {
                  "internalType": "uint256[2]",
                  "name": "a",
                  "type": "uint256[2]"
                },
                {
                  "internalType": "uint256[2][2]",
                  "name": "b",
                  "type": "uint256[2][2]"
                },
                {
                  "internalType": "uint256[2]",
                  "name": "c",
                  "type": "uint256[2]"
                },
                {
                  "internalType": "uint256[4]",
                  "name": "input",
                  "type": "uint256[4]"
                }
              ],
              "internalType": "struct MoveZKP",
              "name": "zkp",
              "type": "tuple"
            }
          ],
          "internalType": "struct Move",
          "name": "move",
          "type": "tuple"
        }
      ],
      "name": "doMove",
      "outputs": [],
      "stateMutability": "nonpayable",
      "type": "function"
    },
    {
      "inputs": [
        {
          "components": [
            {
              "internalType": "uint8",
              "name": "turnNumber",
              "type": "uint8"
            },
            {
              "internalType": "uint16",
              "name": "sequenceNumber",
              "type": "uint16"
            },
            {
              "internalType": "uint8",
              "name": "pieceId",
              "type": "uint8"
            },
            {
              "internalType": "uint8",
              "name": "attackedId",
              "type": "uint8"
            },
            {
              "components": [
                {
                  "internalType": "uint256[2]",
                  "name": "a",
                  "type": "uint256[2]"
                },
                {
                  "internalType": "uint256[2][2]",
                  "name": "b",
                  "type": "uint256[2][2]"
                },
                {
                  "internalType": "uint256[2]",
                  "name": "c",
                  "type": "uint256[2]"
                },
                {
                  "internalType": "uint256[5]",
                  "name": "input",
                  "type": "uint256[5]"
                }
              ],
              "internalType": "struct AttackZKP",
              "name": "zkp",
              "type": "tuple"
            }
          ],
          "internalType": "struct Attack",
          "name": "attack",
          "type": "tuple"
        }
      ],
      "name": "doAttack",
      "outputs": [],
      "stateMutability": "nonpayable",
      "type": "function"
    },
    {
      "inputs": [
        {
          "internalType": "uint8",
          "name": "_turnNumber",
          "type": "uint8"
        },
        {
          "internalType": "uint8",
          "name": "_sequenceNumber",
          "type": "uint8"
        }
      ],
      "name": "endTurn",
      "outputs": [],
      "stateMutability": "nonpayable",
      "type": "function"
    }
  ],
  "bytecode": "0x608060405234801561001057600080fd5b5061574380620000216000396000f3fe608060405234801561001057600080fd5b50600436106101735760003560e01c8063a8959229116100de578063d30895e411610097578063dc4a3e9511610071578063dc4a3e9514610452578063df54a92814610470578063ebd0d826146104a0578063fe4b84df146104bc57610173565b8063d30895e41461040c578063d4f77b1c1461042a578063d7c81b551461043457610173565b8063a895922914610336578063b172ed4d14610352578063c0c74a7614610370578063cf615f6c146103a0578063cfecc6de146103be578063d1f9c24d146103ee57610173565b806351df541c1161013057806351df541c146102705780635700401e1461028e57806359a5f12d146102ac57806364ca23ef146102ca5780637267a359146102e857806381cb97ca1461030657610173565b806311628abc1461017857806324cf877a146101965780632c784f32146101b257806339813cbd146101ed5780633fb7388e14610209578063430632ea14610239575b600080fd5b6101806104d8565b60405161018d919061519b565b60405180910390f35b6101b060048036038101906101ab9190613d2b565b6104eb565b005b6101cc60048036038101906101c79190613e25565b610723565b6040516101e49c9b9a999897969594939291906151b6565b60405180910390f35b61020760048036038101906102029190613eb3565b610825565b005b610223600480360381019061021e9190613de9565b610ad7565b604051610230919061519b565b60405180910390f35b610253600480360381019061024e9190613d02565b610b20565b604051610267989796959493929190614d35565b60405180910390f35b610278610bd0565b6040516102859190614cff565b60405180910390f35b610296610caa565b6040516102a3919061519b565b60405180910390f35b6102b4610cbd565b6040516102c19190614b0c565b60405180910390f35b6102d2610ce3565b6040516102df91906150b1565b60405180910390f35b6102f0610cf7565b6040516102fd919061519b565b60405180910390f35b610320600480360381019061031b9190613eb3565b610d0a565b60405161032d9190614cff565b60405180910390f35b610350600480360381019061034b9190613d55565b610d39565b005b61035a611732565b6040516103679190614be8565b60405180910390f35b61038a60048036038101906103859190613e77565b611900565b6040516103979190614cff565b60405180910390f35b6103a8611a0f565b6040516103b59190614c0a565b60405180910390f35b6103d860048036038101906103d39190613dc0565b611c90565b6040516103e5919061519b565b60405180910390f35b6103f6611cc1565b6040516104039190614d1a565b60405180910390f35b610414611cd4565b6040516104219190614b0c565b60405180910390f35b610432611cfa565b005b61043c612702565b6040516104499190615180565b60405180910390f35b61045a612708565b6040516104679190615180565b60405180910390f35b61048a60048036038101906104859190613eb3565b61270d565b6040516104979190614cff565b60405180910390f35b6104ba60048036038101906104b59190613d96565b61273c565b005b6104d660048036038101906104d19190613dc0565b6133ae565b005b603a60159054906101000a900460ff1681565b6104fd81600001518260200151611900565b5073__ZKChessUtils__________________________63364de3dc8260376038603c60076040518663ffffffff1660e01b8152600401610541959493929190614fd5565b60206040518083038186803b15801561055957600080fd5b505af415801561056d573d6000803e3d6000fd5b505050506040513d601f19601f820116820180604052508101906105919190613cd9565b6105d0576040517f08c379a00000000000000000000000000000000000000000000000000000000081526004016105c790614eae565b60405180910390fd5b73__ZKChessUtils__________________________63a3f00e5582603760356038603c60076040518763ffffffff1660e01b815260040161061696959493929190614f6e565b60006040518083038186803b15801561062e57600080fd5b505af4158015610642573d6000803e3d6000fd5b505050507f26b1bbbf4d915af107239a76abff01456db75ac5dd5aafafd4b3d1286060734681602001518260400151836060015160376000866040015160ff1660ff168152602001908152602001600020600001601a9054906101000a900460ff1660376000876060015160ff1660ff168152602001908152602001600020600001601a9054906101000a900460ff166040516106e39594939291906150cc565b60405180910390a16034600181819054906101000a900461ffff168092919060010191906101000a81548161ffff021916908361ffff1602179055505050565b60376020528060005260406000206000915090508060000160009054906101000a900460ff16908060000160019054906101000a900460ff16908060000160029054906101000a900473ffffffffffffffffffffffffffffffffffffffff16908060000160169054906101000a900460ff16908060000160179054906101000a900460ff16908060000160189054906101000a900460ff16908060000160199054906101000a900460ff169080600001601a9054906101000a900460ff169080600001601b9054906101000a900460ff16908060010154908060020160009054906101000a900460ff16908060020160019054906101000a900460ff1690508c565b610832828260ff16611900565b50603960009054906101000a900473ffffffffffffffffffffffffffffffffffffffff1673ffffffffffffffffffffffffffffffffffffffff163373ffffffffffffffffffffffffffffffffffffffff161415610930576000603a60146101000a81548160ff021916908360ff160217905550603460009054906101000a900460ff16603a60156101000a81548160ff021916908360ff1602179055506008603a60159054906101000a900460ff1660ff161115610907576008603a60156101000a81548160ff021916908360ff1602179055505b6002603460036101000a81548160ff0219169083600381111561092657fe5b0217905550610a05565b6034600081819054906101000a900460ff168092919060010191906101000a81548160ff021916908360ff160217905550506000603a60156101000a81548160ff021916908360ff160217905550603460009054906101000a900460ff16603a60146101000a81548160ff021916908360ff1602179055506008603a60149054906101000a900460ff1660ff1611156109e0576008603a60146101000a81548160ff021916908360ff1602179055505b6001603460036101000a81548160ff021916908360038111156109ff57fe5b02179055505b7f27e77cb9303b56e18ceb82b3e0df64b35731cea5df6f30547f9fec78b1081bbf338383604051610a3893929190614b88565b60405180910390a16034600181819054906101000a900461ffff168092919060010191906101000a81548161ffff021916908361ffff16021790555050610a7d610bd0565b15610ad3576003603460036101000a81548160ff02191690836003811115610aa157fe5b02179055507fb537cbcadc098cfedf5a04ef7e68a8554b55f7e45bfdaca1cbc51a686ef65f4860405160405180910390a15b5050565b60358281548110610ae457fe5b906000526020600020018181548110610af957fe5b9060005260206000209060209182820401919006915091509054906101000a900460ff1681565b60386020528060005260406000206000915090508060000160009054906101000a900460ff16908060000160019054906101000a900460ff16908060000160029054906101000a900460ff16908060000160039054906101000a900460ff16908060000160049054906101000a900460ff16908060000160059054906101000a900460ff16908060000160069054906101000a900460ff16908060000160079054906101000a900460ff16905088565b600073__ZKChessUtils__________________________63e382904460366037603960009054906101000a900473ffffffffffffffffffffffffffffffffffffffff16603a60009054906101000a900473ffffffffffffffffffffffffffffffffffffffff166040518563ffffffff1660e01b8152600401610c559493929190614cba565b60206040518083038186803b158015610c6d57600080fd5b505af4158015610c81573d6000803e3d6000fd5b505050506040513d601f19601f82011682018060405250810190610ca59190613cd9565b905090565b603460009054906101000a900460ff1681565b603a60009054906101000a900473ffffffffffffffffffffffffffffffffffffffff1681565b603460019054906101000a900461ffff1681565b603a60149054906101000a900460ff1681565b603c6020528160005260406000206020528060005260406000206000915091509054906101000a900460ff1681565b610d4b81600001518260200151611900565b50600060376000836040015160ff1660ff16815260200190815260200160002090503373ffffffffffffffffffffffffffffffffffffffff168160000160029054906101000a900473ffffffffffffffffffffffffffffffffffffffff1673ffffffffffffffffffffffffffffffffffffffff16148015610e1d5750600073ffffffffffffffffffffffffffffffffffffffff168160000160029054906101000a900473ffffffffffffffffffffffffffffffffffffffff1673ffffffffffffffffffffffffffffffffffffffff1614155b610e5c576040517f08c379a0000000000000000000000000000000000000000000000000000000008152600401610e5390614ece565b60405180910390fd5b8060000160189054906101000a900460ff16610ead576040517f08c379a0000000000000000000000000000000000000000000000000000000008152600401610ea490614eee565b60405180910390fd5b603b6000836000015160ff1660ff16815260200190815260200160002060008260000160009054906101000a900460ff1660ff1660ff16815260200190815260200160002060009054906101000a900460ff1615610f40576040517f08c379a0000000000000000000000000000000000000000000000000000000008152600401610f3790614f0e565b60405180910390fd5b603c6000836000015160ff1660ff16815260200190815260200160002060008260000160009054906101000a900460ff1660ff1660ff16815260200190815260200160002060009054906101000a900460ff1615610fd3576040517f08c379a0000000000000000000000000000000000000000000000000000000008152600401610fca90614e4e565b60405180910390fd5b60008160000160169054906101000a900460ff16905060008260000160179054906101000a900460ff169050603860008460000160019054906101000a900460ff16600381111561102057fe5b600381111561102b57fe5b815260200190815260200160002060000160069054906101000a900460ff16156112c6578360a001516060015160006004811061106457fe5b60200201518360010154146110ae576040517f08c379a00000000000000000000000000000000000000000000000000000000081526004016110a590614dee565b60405180910390fd5b60078460a00151606001516003600481106110c557fe5b60200201511461110a576040517f08c379a000000000000000000000000000000000000000000000000000000000815260040161110190614dee565b60405180910390fd5b603860008460000160019054906101000a900460ff16600381111561112b57fe5b600381111561113657fe5b815260200190815260200160002060000160019054906101000a900460ff1660ff168460a001516060015160026004811061116d57fe5b602002015111156111b3576040517f08c379a00000000000000000000000000000000000000000000000000000000081526004016111aa90614dee565b60405180910390fd5b73__Verifier______________________________636f2aea8d8560a00151600001518660a00151602001518760a00151604001518860a00151606001516040518563ffffffff1660e01b81526004016112109493929190614c2c565b60206040518083038186803b15801561122857600080fd5b505af415801561123c573d6000803e3d6000fd5b505050506040513d601f19601f820116820180604052508101906112609190613cd9565b61129f576040517f08c379a000000000000000000000000000000000000000000000000000000000815260040161129690614dee565b60405180910390fd5b8360a00151606001516001600481106112b457fe5b6020020151836001018190555061160d565b60608460600151905060608560800151905061147d85604051806101800160405290816000820160009054906101000a900460ff1660ff1660ff1681526020016000820160019054906101000a900460ff16600381111561132357fe5b600381111561132e57fe5b81526020016000820160029054906101000a900473ffffffffffffffffffffffffffffffffffffffff1673ffffffffffffffffffffffffffffffffffffffff1673ffffffffffffffffffffffffffffffffffffffff1681526020016000820160169054906101000a900460ff1660ff1660ff1681526020016000820160179054906101000a900460ff1660ff1660ff1681526020016000820160189054906101000a900460ff161515151581526020016000820160199054906101000a900460ff1615151515815260200160008201601a9054906101000a900460ff1660ff1660ff16815260200160008201601b9054906101000a900460ff1660ff1660ff168152602001600182015481526020016002820160009054906101000a900460ff1660ff1660ff1681526020016002820160019054906101000a900460ff1660ff1660ff168152505083836134ff565b6114bc576040517f08c379a00000000000000000000000000000000000000000000000000000000081526004016114b390614e2e565b60405180910390fd5b6000826001845103815181106114ce57fe5b602002602001015190506000826001845103815181106114ea57fe5b60200260200101519050600060358860000160169054906101000a900460ff1660ff168154811061151757fe5b906000526020600020018860000160179054906101000a900460ff1660ff168154811061154057fe5b90600052602060002090602091828204019190066101000a81548160ff021916908360ff1602179055508660000160009054906101000a900460ff1660358360ff168154811061158c57fe5b906000526020600020018260ff16815481106115a457fe5b90600052602060002090602091828204019190066101000a81548160ff021916908360ff160217905550818760000160166101000a81548160ff021916908360ff160217905550808760000160176101000a81548160ff021916908360ff160217905550505050505b6001603b6000866000015160ff1660ff16815260200190815260200160002060008560000160009054906101000a900460ff1660ff1660ff16815260200190815260200160002060006101000a81548160ff02191690831515021790555083600001518360020160006101000a81548160ff021916908360ff1602179055507f7e2f4aae474473f9e261f72d50b4f8aaabb3f5380276750de70e0121b377fac68460200151856040015184848760000160169054906101000a900460ff168860000160179054906101000a900460ff166040516116ef9695949392919061511f565b60405180910390a16034600181819054906101000a900461ffff168092919060010191906101000a81548161ffff021916908361ffff1602179055505050505050565b6060600467ffffffffffffffff8111801561174c57600080fd5b5060405190808252806020026020018201604052801561178657816020015b6117736135a1565b81526020019060019003908161176b5790505b50905060008090505b60048160ff1610156118f957603860008260ff1660038111156117ae57fe5b60038111156117b957fe5b60038111156117c457fe5b8152602001908152602001600020604051806101000160405290816000820160009054906101000a900460ff1660038111156117fc57fe5b600381111561180757fe5b81526020016000820160019054906101000a900460ff1660ff1660ff1681526020016000820160029054906101000a900460ff1660ff1660ff1681526020016000820160039054906101000a900460ff1660ff1660ff1681526020016000820160049054906101000a900460ff1660ff1660ff1681526020016000820160059054906101000a900460ff1660ff1660ff1681526020016000820160069054906101000a900460ff161515151581526020016000820160079054906101000a900460ff161515151581525050828260ff16815181106118e157fe5b6020026020010181905250808060010191505061178f565b5080905090565b600073__ZKChessUtils__________________________63bbca541f84603460009054906101000a900460ff1685603460019054906101000a900461ffff16603960009054906101000a900473ffffffffffffffffffffffffffffffffffffffff16603a60009054906101000a900473ffffffffffffffffffffffffffffffffffffffff16603460039054906101000a900460ff166040518863ffffffff1660e01b81526004016119b79796959493929190615270565b60206040518083038186803b1580156119cf57600080fd5b505af41580156119e3573d6000803e3d6000fd5b505050506040513d601f19601f82011682018060405250810190611a079190613cd9565b905092915050565b606060368054905067ffffffffffffffff81118015611a2d57600080fd5b50604051908082528060200260200182016040528015611a6757816020015b611a54613604565b815260200190600190039081611a4c5790505b50905060008090505b6036805490508160ff161015611c89576037600060368360ff1681548110611a9457fe5b90600052602060002090602091828204019190069054906101000a900460ff1660ff1660ff168152602001908152602001600020604051806101800160405290816000820160009054906101000a900460ff1660ff1660ff1681526020016000820160019054906101000a900460ff166003811115611b0f57fe5b6003811115611b1a57fe5b81526020016000820160029054906101000a900473ffffffffffffffffffffffffffffffffffffffff1673ffffffffffffffffffffffffffffffffffffffff1673ffffffffffffffffffffffffffffffffffffffff1681526020016000820160169054906101000a900460ff1660ff1660ff1681526020016000820160179054906101000a900460ff1660ff1660ff1681526020016000820160189054906101000a900460ff161515151581526020016000820160199054906101000a900460ff1615151515815260200160008201601a9054906101000a900460ff1660ff1660ff16815260200160008201601b9054906101000a900460ff1660ff1660ff168152602001600182015481526020016002820160009054906101000a900460ff1660ff1660ff1681526020016002820160019054906101000a900460ff1660ff1660ff1681525050828260ff1681518110611c7157fe5b60200260200101819052508080600101915050611a70565b5080905090565b60368181548110611c9d57fe5b9060005260206000209060209182820401919006915054906101000a900460ff1681565b603460039054906101000a900460ff1681565b603960009054906101000a900473ffffffffffffffffffffffffffffffffffffffff1681565b60006003811115611d0757fe5b603460039054906101000a900460ff166003811115611d2257fe5b14611d62576040517f08c379a0000000000000000000000000000000000000000000000000000000008152600401611d5990614f4e565b60405180910390fd5b600073ffffffffffffffffffffffffffffffffffffffff16603960009054906101000a900473ffffffffffffffffffffffffffffffffffffffff1673ffffffffffffffffffffffffffffffffffffffff161415611dff5733603960006101000a81548173ffffffffffffffffffffffffffffffffffffffff021916908373ffffffffffffffffffffffffffffffffffffffff160217905550612700565b603960009054906101000a900473ffffffffffffffffffffffffffffffffffffffff1673ffffffffffffffffffffffffffffffffffffffff163373ffffffffffffffffffffffffffffffffffffffff161415611e90576040517f08c379a0000000000000000000000000000000000000000000000000000000008152600401611e8790614e0e565b60405180910390fd5b600060024281611e9c57fe5b061415611ee95733603a60006101000a81548173ffffffffffffffffffffffffffffffffffffffff021916908373ffffffffffffffffffffffffffffffffffffffff160217905550611f8e565b603960009054906101000a900473ffffffffffffffffffffffffffffffffffffffff16603a60006101000a81548173ffffffffffffffffffffffffffffffffffffffff021916908373ffffffffffffffffffffffffffffffffffffffff16021790555033603960006101000a81548173ffffffffffffffffffffffffffffffffffffffff021916908373ffffffffffffffffffffffffffffffffffffffff1602179055505b604051806101800160405280600160ff168152602001600380811115611fb057fe5b8152602001603960009054906101000a900473ffffffffffffffffffffffffffffffffffffffff1673ffffffffffffffffffffffffffffffffffffffff168152602001600060ff168152602001600360ff1681526020016001151581526020016001151581526020016038600060038081111561202957fe5b600381111561203457fe5b815260200190815260200160002060000160039054906101000a900460ff1660ff168152602001600060ff16815260200160008152602001600060ff168152602001600060ff1681525060376000600160ff16815260200190815260200160002060008201518160000160006101000a81548160ff021916908360ff16021790555060208201518160000160016101000a81548160ff021916908360038111156120da57fe5b021790555060408201518160000160026101000a81548173ffffffffffffffffffffffffffffffffffffffff021916908373ffffffffffffffffffffffffffffffffffffffff16021790555060608201518160000160166101000a81548160ff021916908360ff16021790555060808201518160000160176101000a81548160ff021916908360ff16021790555060a08201518160000160186101000a81548160ff02191690831515021790555060c08201518160000160196101000a81548160ff02191690831515021790555060e082015181600001601a6101000a81548160ff021916908360ff16021790555061010082015181600001601b6101000a81548160ff021916908360ff16021790555061012082015181600101556101408201518160020160006101000a81548160ff021916908360ff1602179055506101608201518160020160016101000a81548160ff021916908360ff1602179055509050506036600190806001815401808255809150506001900390600052602060002090602091828204019190069091909190916101000a81548160ff021916908360ff1602179055506001603560008154811061229357fe5b906000526020600020016003815481106122a957fe5b90600052602060002090602091828204019190066101000a81548160ff021916908360ff160217905550604051806101800160405280600260ff1681526020016003808111156122f557fe5b8152602001603a60009054906101000a900473ffffffffffffffffffffffffffffffffffffffff1673ffffffffffffffffffffffffffffffffffffffff168152602001600660ff168152602001600360ff1681526020016001151581526020016001151581526020016038600060038081111561236e57fe5b600381111561237957fe5b815260200190815260200160002060000160039054906101000a900460ff1660ff168152602001600060ff16815260200160008152602001600060ff168152602001600060ff1681525060376000600260ff16815260200190815260200160002060008201518160000160006101000a81548160ff021916908360ff16021790555060208201518160000160016101000a81548160ff0219169083600381111561241f57fe5b021790555060408201518160000160026101000a81548173ffffffffffffffffffffffffffffffffffffffff021916908373ffffffffffffffffffffffffffffffffffffffff16021790555060608201518160000160166101000a81548160ff021916908360ff16021790555060808201518160000160176101000a81548160ff021916908360ff16021790555060a08201518160000160186101000a81548160ff02191690831515021790555060c08201518160000160196101000a81548160ff02191690831515021790555060e082015181600001601a6101000a81548160ff021916908360ff16021790555061010082015181600001601b6101000a81548160ff021916908360ff16021790555061012082015181600101556101408201518160020160006101000a81548160ff021916908360ff1602179055506101608201518160020160016101000a81548160ff021916908360ff1602179055509050506036600290806001815401808255809150506001900390600052602060002090602091828204019190069091909190916101000a81548160ff021916908360ff160217905550600260356006815481106125d857fe5b906000526020600020016003815481106125ee57fe5b90600052602060002090602091828204019190066101000a81548160ff021916908360ff1602179055506001603460036101000a81548160ff0219169083600381111561263757fe5b02179055506001603460006101000a81548160ff021916908360ff160217905550603460009054906101000a900460ff16603a60146101000a81548160ff021916908360ff1602179055507f8fd707874eb940598510258c64cad23fd35fe8c85c5c38e8782fac2cc887fb6e603960009054906101000a900473ffffffffffffffffffffffffffffffffffffffff16603a60009054906101000a900473ffffffffffffffffffffffffffffffffffffffff166040516126f7929190614bbf565b60405180910390a15b565b60335481565b600781565b603b6020528160005260406000206020528060005260406000206000915091509054906101000a900460ff1681565b61274e81600001518260200151611900565b5060376000826040015160ff1660ff16815260200190815260200160002060000160199054906101000a900460ff16156127bd576040517f08c379a00000000000000000000000000000000000000000000000000000000081526004016127b490614e6e565b60405180910390fd5b60008060039050603960009054906101000a900473ffffffffffffffffffffffffffffffffffffffff1673ffffffffffffffffffffffffffffffffffffffff163373ffffffffffffffffffffffffffffffffffffffff1614156128235760009150612828565b600691505b603960009054906101000a900473ffffffffffffffffffffffffffffffffffffffff1673ffffffffffffffffffffffffffffffffffffffff163373ffffffffffffffffffffffffffffffffffffffff16141561298257603860008460600151600381111561289257fe5b600381111561289d57fe5b815260200190815260200160002060000160059054906101000a900460ff1660ff16603a60149054906101000a900460ff1660ff161015612913576040517f08c379a000000000000000000000000000000000000000000000000000000000815260040161290a90614dce565b60405180910390fd5b603860008460600151600381111561292757fe5b600381111561293257fe5b815260200190815260200160002060000160059054906101000a900460ff16603a60148282829054906101000a900460ff160392506101000a81548160ff021916908360ff160217905550612a82565b603860008460600151600381111561299657fe5b60038111156129a157fe5b815260200190815260200160002060000160059054906101000a900460ff1660ff16603a60159054906101000a900460ff1660ff161015612a17576040517f08c379a0000000000000000000000000000000000000000000000000000000008152600401612a0e90614dce565b60405180910390fd5b6038600084606001516003811115612a2b57fe5b6003811115612a3657fe5b815260200190815260200160002060000160059054906101000a900460ff16603a60158282829054906101000a900460ff160392506101000a81548160ff021916908360ff1602179055505b6038600084606001516003811115612a9657fe5b6003811115612aa157fe5b815260200190815260200160002060000160069054906101000a900460ff16612cc5576007836080015160ff16108015612ae2575060078360a0015160ff16105b612b21576040517f08c379a0000000000000000000000000000000000000000000000000000000008152600401612b1890614e8e565b60405180910390fd5b60006035846080015160ff1681548110612b3757fe5b906000526020600020018460a0015160ff1681548110612b5357fe5b90600052602060002090602091828204019190069054906101000a900460ff1690506000603760008360ff1660ff16815260200190815260200160002090508060000160189054906101000a900460ff1615612be4576040517f08c379a0000000000000000000000000000000000000000000000000000000008152600401612bdb90614f2e565b60405180910390fd5b600173__ZKChessUtils__________________________632542841a87608001518860a0015188886040518563ffffffff1660e01b8152600401612c2b94939291906152df565b60206040518083038186803b158015612c4357600080fd5b505af4158015612c57573d6000803e3d6000fd5b505050506040513d601f19601f82011682018060405250810190612c7b9190613e4e565b60ff1614612cbe576040517f08c379a0000000000000000000000000000000000000000000000000000000008152600401612cb590614f2e565b60405180910390fd5b5050612eef565b8160ff168360c0015160600151600160058110612cde57fe5b6020020151148015612d0b57508060ff168360c0015160600151600260058110612d0457fe5b6020020151145b612d4a576040517f08c379a0000000000000000000000000000000000000000000000000000000008152600401612d4190614dee565b60405180910390fd5b60018360c0015160600151600360058110612d6157fe5b602002015114612da6576040517f08c379a0000000000000000000000000000000000000000000000000000000008152600401612d9d90614dee565b60405180910390fd5b60078360c0015160600151600460058110612dbd57fe5b602002015114612e02576040517f08c379a0000000000000000000000000000000000000000000000000000000008152600401612df990614dee565b60405180910390fd5b73__Verifier______________________________63afd115578460c00151600001518560c00151602001518660c00151604001518760c00151606001516040518563ffffffff1660e01b8152600401612e5f9493929190614c73565b60206040518083038186803b158015612e7757600080fd5b505af4158015612e8b573d6000803e3d6000fd5b505050506040513d601f19601f82011682018060405250810190612eaf9190613cd9565b612eee576040517f08c379a0000000000000000000000000000000000000000000000000000000008152600401612ee590614dee565b60405180910390fd5b5b604051806101800160405280846040015160ff16815260200184606001516003811115612f1857fe5b81526020013373ffffffffffffffffffffffffffffffffffffffff168152602001846080015160ff1681526020018460a0015160ff1681526020016001151581526020016001151581526020016038600086606001516003811115612f7957fe5b6003811115612f8457fe5b815260200190815260200160002060000160039054906101000a900460ff1660ff168152602001603460009054906101000a900460ff1660ff1681526020018460c0015160600151600060058110612fd857fe5b60200201518152602001603460009054906101000a900460ff1660ff168152602001603460009054906101000a900460ff1660ff1681525060376000856040015160ff1660ff16815260200190815260200160002060008201518160000160006101000a81548160ff021916908360ff16021790555060208201518160000160016101000a81548160ff0219169083600381111561307257fe5b021790555060408201518160000160026101000a81548173ffffffffffffffffffffffffffffffffffffffff021916908373ffffffffffffffffffffffffffffffffffffffff16021790555060608201518160000160166101000a81548160ff021916908360ff16021790555060808201518160000160176101000a81548160ff021916908360ff16021790555060a08201518160000160186101000a81548160ff02191690831515021790555060c08201518160000160196101000a81548160ff02191690831515021790555060e082015181600001601a6101000a81548160ff021916908360ff16021790555061010082015181600001601b6101000a81548160ff021916908360ff16021790555061012082015181600101556101408201518160020160006101000a81548160ff021916908360ff1602179055506101608201518160020160016101000a81548160ff021916908360ff1602179055509050506036836040015190806001815401808255809150506001900390600052602060002090602091828204019190069091909190916101000a81548160ff021916908360ff16021790555082604001516035846080015160ff168154811061323757fe5b906000526020600020018460a0015160ff168154811061325357fe5b90600052602060002090602091828204019190066101000a81548160ff021916908360ff1602179055506001603b6000856000015160ff1660ff1681526020019081526020016000206000856040015160ff1660ff16815260200190815260200160002060006101000a81548160ff0219169083151502179055506001603c6000856000015160ff1660ff1681526020019081526020016000206000856040015160ff1660ff16815260200190815260200160002060006101000a81548160ff0219169083151502179055507f0c028d8e3094b70fecb63c902612f5b21d26edfeea4f8ec3f69b411d1d50f20d3384604001518560200151866060015187608001518860a0015160405161336c96959493929190614b27565b60405180910390a16034600181819054906101000a900461ffff168092919060010191906101000a81548161ffff021916908361ffff16021790555050505050565b806033819055506000603460036101000a81548160ff021916908360038111156133d457fe5b021790555060008090505b60078160ff16101561349357603560018160018154018082558091505003906000526020600020505060008090505b60078160ff1610156134855760358260ff168154811061342a57fe5b90600052602060002001600090806001815401808255809150506001900390600052602060002090602091828204019190069091909190916101000a81548160ff021916908360ff160217905550808060010191505061340e565b5080806001019150506133df565b5073__ZKChessUtils__________________________63df9f019560386040518263ffffffff1660e01b81526004016134cc9190614db3565b60006040518083038186803b1580156134e457600080fd5b505af41580156134f8573d6000803e3d6000fd5b5050505050565b600073__ZKChessUtils__________________________63ab7773f485858560356037603860076040518863ffffffff1660e01b8152600401613548979695949392919061502d565b60206040518083038186803b15801561356057600080fd5b505af4158015613574573d6000803e3d6000fd5b505050506040513d601f19601f820116820180604052508101906135989190613cd9565b90509392505050565b604051806101000160405280600060038111156135ba57fe5b8152602001600060ff168152602001600060ff168152602001600060ff168152602001600060ff168152602001600060ff1681526020016000151581526020016000151581525090565b604051806101800160405280600060ff1681526020016000600381111561362757fe5b8152602001600073ffffffffffffffffffffffffffffffffffffffff168152602001600060ff168152602001600060ff168152602001600015158152602001600015158152602001600060ff168152602001600060ff16815260200160008152602001600060ff168152602001600060ff1681525090565b600082601f8301126136b057600080fd5b60026136c36136be82615351565b615324565b915081838560408402820111156136d957600080fd5b60005b8381101561370957816136ef8882613713565b8452602084019350604083019250506001810190506136dc565b5050505092915050565b600082601f83011261372457600080fd5b600261373761373282615373565b615324565b9150818385602084028201111561374d57600080fd5b60005b8381101561377d57816137638882613c9a565b845260208401935060208301925050600181019050613750565b5050505092915050565b600082601f83011261379857600080fd5b60046137ab6137a682615395565b615324565b915081838560208402820111156137c157600080fd5b60005b838110156137f157816137d78882613c9a565b8452602084019350602083019250506001810190506137c4565b5050505092915050565b600082601f83011261380c57600080fd5b600561381f61381a826153b7565b615324565b9150818385602084028201111561383557600080fd5b60005b83811015613865578161384b8882613c9a565b845260208401935060208301925050600181019050613838565b5050505092915050565b600082601f83011261388057600080fd5b813561389361388e826153d9565b615324565b915081818352602084019350602081019050838560208402820111156138b857600080fd5b60005b838110156138e857816138ce8882613caf565b8452602084019350602083019250506001810190506138bb565b5050505092915050565b600081519050613901816156a1565b92915050565b600081359050613916816156b8565b92915050565b60006101a0828403121561392f57600080fd5b6139396080615324565b9050600061394984828501613713565b600083015250604061395d8482850161369f565b60208301525060c061397184828501613713565b604083015250610100613986848285016137fb565b60608301525092915050565b600061022082840312156139a557600080fd5b6139af60a0615324565b905060006139bf84828501613caf565b60008301525060206139d384828501613c85565b60208301525060406139e784828501613caf565b60408301525060606139fb84828501613caf565b6060830152506080613a0f8482850161391c565b60808301525092915050565b60006101808284031215613a2e57600080fd5b613a386080615324565b90506000613a4884828501613713565b6000830152506040613a5c8482850161369f565b60208301525060c0613a7084828501613713565b604083015250610100613a8584828501613787565b60608301525092915050565b60006102208284031215613aa457600080fd5b613aae60c0615324565b90506000613abe84828501613caf565b6000830152506020613ad284828501613c85565b6020830152506040613ae684828501613caf565b604083015250606082013567ffffffffffffffff811115613b0657600080fd5b613b128482850161386f565b606083015250608082013567ffffffffffffffff811115613b3257600080fd5b613b3e8482850161386f565b60808301525060a0613b5284828501613a1b565b60a08301525092915050565b60006101a08284031215613b7157600080fd5b613b7b6080615324565b90506000613b8b84828501613713565b6000830152506040613b9f8482850161369f565b60208301525060c0613bb384828501613713565b604083015250610100613bc8848285016137fb565b60608301525092915050565b60006102608284031215613be757600080fd5b613bf160e0615324565b90506000613c0184828501613caf565b6000830152506020613c1584828501613c85565b6020830152506040613c2984828501613caf565b6040830152506060613c3d84828501613907565b6060830152506080613c5184828501613caf565b60808301525060a0613c6584828501613caf565b60a08301525060c0613c7984828501613b5e565b60c08301525092915050565b600081359050613c94816156c8565b92915050565b600081359050613ca9816156df565b92915050565b600081359050613cbe816156f6565b92915050565b600081519050613cd3816156f6565b92915050565b600060208284031215613ceb57600080fd5b6000613cf9848285016138f2565b91505092915050565b600060208284031215613d1457600080fd5b6000613d2284828501613907565b91505092915050565b60006102208284031215613d3e57600080fd5b6000613d4c84828501613992565b91505092915050565b600060208284031215613d6757600080fd5b600082013567ffffffffffffffff811115613d8157600080fd5b613d8d84828501613a91565b91505092915050565b60006102608284031215613da957600080fd5b6000613db784828501613bd4565b91505092915050565b600060208284031215613dd257600080fd5b6000613de084828501613c9a565b91505092915050565b60008060408385031215613dfc57600080fd5b6000613e0a85828601613c9a565b9250506020613e1b85828601613c9a565b9150509250929050565b600060208284031215613e3757600080fd5b6000613e4584828501613caf565b91505092915050565b600060208284031215613e6057600080fd5b6000613e6e84828501613cc4565b91505092915050565b60008060408385031215613e8a57600080fd5b6000613e9885828601613caf565b9250506020613ea985828601613c85565b9150509250929050565b60008060408385031215613ec657600080fd5b6000613ed485828601613caf565b9250506020613ee585828601613caf565b9150509250929050565b6000613efb838361417c565b60408301905092915050565b6000613f1383836147ca565b6101008301905092915050565b6000613f2c838361486c565b6101808301905092915050565b6000613f458383614ab2565b60208301905092915050565b6000613f5d8383614afd565b60208301905092915050565b613f728161561b565b82525050565b613f8181615592565b82525050565b613f9081615592565b82525050565b613f9f81615592565b82525050565b613fae81615592565b82525050565b613fbd81615459565b613fc78184615501565b9250613fd282615401565b8060005b83811015614003578151613fea8782613eef565b9650613ff5836154a6565b925050600181019050613fd6565b505050505050565b61401481615459565b61401e818461550c565b925061402982615401565b8060005b8381101561405a5781516140418782613eef565b965061404c836154a6565b92505060018101905061402d565b505050505050565b8082525050565b600061407482615464565b61407e8185615517565b93506140898361540b565b8060005b838110156140ba5781516140a18882613f07565b97506140ac836154b3565b92505060018101905061408d565b5085935050505092915050565b60006140d28261546f565b6140dc8185615528565b93506140e78361541b565b8060005b838110156141185781516140ff8882613f20565b975061410a836154c0565b9250506001810190506140eb565b5085935050505092915050565b61412e8161547a565b6141388184615539565b92506141438261542b565b8060005b8381101561417457815161415b8782613f39565b9650614166836154cd565b925050600181019050614147565b505050505050565b6141858161547a565b61418f8184615544565b925061419a8261542b565b8060005b838110156141cb5781516141b28782613f39565b96506141bd836154cd565b92505060018101905061419e565b505050505050565b6141dc81615485565b6141e6818461554f565b92506141f182615435565b8060005b838110156142225781516142098782613f39565b9650614214836154da565b9250506001810190506141f5565b505050505050565b61423381615490565b61423d818461555a565b92506142488261543f565b8060005b838110156142795781516142608782613f39565b965061426b836154e7565b92505060018101905061424c565b505050505050565b61428a81615490565b6142948184615565565b925061429f8261543f565b8060005b838110156142d05781516142b78782613f39565b96506142c2836154e7565b9250506001810190506142a3565b505050505050565b60006142e38261549b565b6142ed8185615570565b93506142f883615449565b8060005b838110156143295781516143108882613f51565b975061431b836154f4565b9250506001810190506142fc565b5085935050505092915050565b8082525050565b614346816155a4565b82525050565b614355816155a4565b82525050565b614364816155a4565b82525050565b6143738161562d565b82525050565b6143828161562d565b82525050565b6143918161563f565b82525050565b6143a08161563f565b82525050565b6143af8161563f565b82525050565b8082525050565b8082525050565b8082525050565b60006143d7600f83615581565b91507f6e6f7420656e6f756768206d616e6100000000000000000000000000000000006000830152602082019050919050565b6000614417600783615581565b91507f626164205a4b50000000000000000000000000000000000000000000000000006000830152602082019050919050565b6000614457601583615581565b91507f63616e2774206a6f696e2067616d6520747769636500000000000000000000006000830152602082019050919050565b6000614497600c83615581565b91507f496e76616c6964206d6f766500000000000000000000000000000000000000006000830152602082019050919050565b60006144d7600d83615581565b91507f616c7265616479206163746564000000000000000000000000000000000000006000830152602082019050919050565b6000614517601783615581565b91507f706965636520494420616c726561647920696e207573650000000000000000006000830152602082019050919050565b6000614557600d83615581565b91507f6e6f7420696e20626f756e6473000000000000000000000000000000000000006000830152602082019050919050565b6000614597600e83615581565b91507f696e76616c69642061747461636b0000000000000000000000000000000000006000830152602082019050919050565b60006145d7600f83615581565b91507f63616e2774206d6f7665207468617400000000000000000000000000000000006000830152602082019050919050565b6000614617600a83615581565b91507f70696563652064656164000000000000000000000000000000000000000000006000830152602082019050919050565b6000614657600d83615581565b91507f616c7265616479206d6f766564000000000000000000000000000000000000006000830152602082019050919050565b6000614697601283615581565b91507f63616e27742073756d6d6f6e20746865726500000000000000000000000000006000830152602082019050919050565b60006146d7601483615581565b91507f47616d6520616c726561647920737461727465640000000000000000000000006000830152602082019050919050565b6101a082016000820151614721600085018261417c565b506020820151614734604085018261400b565b50604082015161474760c085018261417c565b50606082015161475b610100850182614281565b50505050565b610220820160008201516147786000850182614afd565b50602082015161478b6020850182614a76565b50604082015161479e6040850182614afd565b5060608201516147b16060850182614afd565b5060808201516147c4608085018261470a565b50505050565b610100820160008201516147e16000850182614388565b5060208201516147f46020850182614ad0565b5060408201516148076040850182614ad0565b50606082015161481a6060850182614ad0565b50608082015161482d6080850182614ad0565b5060a082015161484060a0850182614ad0565b5060c082015161485360c085018261433d565b5060e082015161486660e085018261433d565b50505050565b610180820160008201516148836000850182614ad0565b5060208201516148966020850182614388565b5060408201516148a96040850182613f78565b5060608201516148bc6060850182614ad0565b5060808201516148cf6080850182614ad0565b5060a08201516148e260a085018261433d565b5060c08201516148f560c085018261433d565b5060e082015161490860e0850182614ad0565b5061010082015161491d610100850182614ad0565b50610120820151614932610120850182614a85565b50610140820151614947610140850182614ad0565b5061016082015161495c610160850182614ad0565b50505050565b610180820160008201516149796000850182614afd565b50602082015161498c60208501826143a6565b50604082015161499f6040850182613fa5565b5060608201516149b26060850182614afd565b5060808201516149c56080850182614afd565b5060a08201516149d860a085018261435b565b5060c08201516149eb60c085018261435b565b5060e08201516149fe60e0850182614afd565b50610100820151614a13610100850182614afd565b50610120820151614a28610120850182614ab2565b50610140820151614a3d610140850182614afd565b50610160820151614a52610160850182614afd565b50505050565b614a61816155d6565b82525050565b614a70816155d6565b82525050565b614a7f816155d6565b82525050565b614a8e81615604565b82525050565b614a9d81615604565b82525050565b614aac81615604565b82525050565b614abb81615604565b82525050565b614aca81615675565b82525050565b614ad98161560e565b82525050565b614ae88161560e565b82525050565b614af78161560e565b82525050565b614b068161560e565b82525050565b6000602082019050614b216000830184613f87565b92915050565b600060c082019050614b3c6000830189613f69565b614b496020830188614adf565b614b566040830187614a58565b614b636060830186614397565b614b706080830185614adf565b614b7d60a0830184614adf565b979650505050505050565b6000606082019050614b9d6000830186613f69565b614baa6020830185614adf565b614bb76040830184614ac1565b949350505050565b6000604082019050614bd46000830185613f87565b614be16020830184613f87565b9392505050565b60006020820190508181036000830152614c028184614069565b905092915050565b60006020820190508181036000830152614c2481846140c7565b905092915050565b600061018082019050614c426000830187614125565b614c4f6040830186613fb4565b614c5c60c0830185614125565b614c6a6101008301846141d3565b95945050505050565b60006101a082019050614c896000830187614125565b614c966040830186613fb4565b614ca360c0830185614125565b614cb161010083018461422a565b95945050505050565b6000608082019050614ccf6000830187614336565b614cdc60208301866143c3565b614ce96040830185613f96565b614cf66060830184613f96565b95945050505050565b6000602082019050614d14600083018461434c565b92915050565b6000602082019050614d2f600083018461436a565b92915050565b600061010082019050614d4b600083018b614397565b614d58602083018a614adf565b614d656040830189614adf565b614d726060830188614adf565b614d7f6080830187614adf565b614d8c60a0830186614adf565b614d9960c083018561434c565b614da660e083018461434c565b9998505050505050505050565b6000602082019050614dc860008301846143b5565b92915050565b60006020820190508181036000830152614de7816143ca565b9050919050565b60006020820190508181036000830152614e078161440a565b9050919050565b60006020820190508181036000830152614e278161444a565b9050919050565b60006020820190508181036000830152614e478161448a565b9050919050565b60006020820190508181036000830152614e67816144ca565b9050919050565b60006020820190508181036000830152614e878161450a565b9050919050565b60006020820190508181036000830152614ea78161454a565b9050919050565b60006020820190508181036000830152614ec78161458a565b9050919050565b60006020820190508181036000830152614ee7816145ca565b9050919050565b60006020820190508181036000830152614f078161460a565b9050919050565b60006020820190508181036000830152614f278161464a565b9050919050565b60006020820190508181036000830152614f478161468a565b9050919050565b60006020820190508181036000830152614f67816146ca565b9050919050565b60006102c082019050614f846000830189614761565b614f926102208301886143c3565b614fa0610240830187614062565b614fae6102608301866143b5565b614fbc6102808301856143bc565b614fca6102a0830184614aa3565b979650505050505050565b60006102a082019050614feb6000830188614761565b614ff96102208301876143c3565b6150076102408301866143b5565b6150156102608301856143bc565b615023610280830184614aa3565b9695505050505050565b600061024082019050615043600083018a614962565b81810361018083015261505681896142d8565b90508181036101a083015261506b81886142d8565b905061507b6101c0830187614062565b6150896101e08301866143c3565b6150976102008301856143b5565b6150a5610220830184614aa3565b98975050505050505050565b60006020820190506150c66000830184614a58565b92915050565b600060a0820190506150e16000830188614a58565b6150ee6020830187614adf565b6150fb6040830186614adf565b6151086060830185614adf565b6151156080830184614adf565b9695505050505050565b600060c0820190506151346000830189614a58565b6151416020830188614adf565b61514e6040830187614adf565b61515b6060830186614adf565b6151686080830185614adf565b61517560a0830184614adf565b979650505050505050565b60006020820190506151956000830184614a94565b92915050565b60006020820190506151b06000830184614adf565b92915050565b6000610180820190506151cc600083018f614adf565b6151d9602083018e614397565b6151e6604083018d613f87565b6151f3606083018c614adf565b615200608083018b614adf565b61520d60a083018a61434c565b61521a60c083018961434c565b61522760e0830188614adf565b615235610100830187614adf565b615243610120830186614a94565b615251610140830185614adf565b61525f610160830184614adf565b9d9c50505050505050505050505050565b600060e082019050615285600083018a614aee565b6152926020830189614aee565b61529f6040830188614a67565b6152ac6060830187614a67565b6152b96080830186613f96565b6152c660a0830185613f96565b6152d360c0830184614379565b98975050505050505050565b60006080820190506152f46000830187614aee565b6153016020830186614aee565b61530e6040830185614aee565b61531b6060830184614aee565b95945050505050565b6000604051905081810181811067ffffffffffffffff8211171561534757600080fd5b8060405250919050565b600067ffffffffffffffff82111561536857600080fd5b602082029050919050565b600067ffffffffffffffff82111561538a57600080fd5b602082029050919050565b600067ffffffffffffffff8211156153ac57600080fd5b602082029050919050565b600067ffffffffffffffff8211156153ce57600080fd5b602082029050919050565b600067ffffffffffffffff8211156153f057600080fd5b602082029050602081019050919050565b6000819050919050565b6000819050602082019050919050565b6000819050602082019050919050565b6000819050919050565b6000819050919050565b6000819050919050565b6000819050602082019050919050565b600060029050919050565b600081519050919050565b600081519050919050565b600060029050919050565b600060049050919050565b600060059050919050565b600081519050919050565b6000602082019050919050565b6000602082019050919050565b6000602082019050919050565b6000602082019050919050565b6000602082019050919050565b6000602082019050919050565b6000602082019050919050565b600081905092915050565b600081905092915050565b600082825260208201905092915050565b600082825260208201905092915050565b600081905092915050565b600081905092915050565b600081905092915050565b600081905092915050565b600081905092915050565b600082825260208201905092915050565b600082825260208201905092915050565b600061559d826155e4565b9050919050565b60008115159050919050565b60008190506155be82615687565b919050565b60008190506155d182615694565b919050565b600061ffff82169050919050565b600073ffffffffffffffffffffffffffffffffffffffff82169050919050565b6000819050919050565b600060ff82169050919050565b600061562682615651565b9050919050565b6000615638826155b0565b9050919050565b600061564a826155c3565b9050919050565b600061565c82615663565b9050919050565b600061566e826155e4565b9050919050565b60006156808261560e565b9050919050565b6004811061569157fe5b50565b6004811061569e57fe5b50565b6156aa816155a4565b81146156b557600080fd5b50565b600481106156c557600080fd5b50565b6156d1816155d6565b81146156dc57600080fd5b50565b6156e881615604565b81146156f357600080fd5b50565b6156ff8161560e565b811461570a57600080fd5b5056fea264697066735822122072add1f7a7f8962a015f4aa1ec4a5dba7795d1ad5987f356bb719a02ef29b4b164736f6c63430006070033",
  "immutableReferences": {},
  "source": "pragma solidity ^0.6.7;\npragma experimental ABIEncoderV2;\n\nimport \"@openzeppelin/contracts-ethereum-package/contracts/Initializable.sol\";\nimport \"./ZKChessTypes.sol\";\nimport \"./ZKChessUtils.sol\";\nimport \"./Verifier.sol\";\n\ncontract ZKChessGame is Initializable {\n    uint256 public constant BOARD_SIZE = 7;\n\n    uint256 public gameId;\n\n    uint8 public turnNumber;\n    uint16 public sequenceNumber;\n    GameState public gameState;\n    uint8[][] public boardPieces; // board[row][col]\n\n    uint8[] public pieceIds;\n    mapping(uint8 => Piece) public pieces;\n\n    mapping(PieceType => PieceDefaultStats) public defaultStats;\n\n    address public player1;\n    address public player2;\n\n    uint8 public player1Mana;\n    uint8 public player2Mana;\n\n    // mapping from turn # -> piece # -> has acted\n    mapping(uint8 => mapping(uint8 => bool)) public hasMoved;\n    mapping(uint8 => mapping(uint8 => bool)) public hasAttacked;\n\n    function initialize(uint256 _gameId) public {\n        gameId = _gameId;\n        gameState = GameState.WAITING_FOR_PLAYERS;\n\n        for (uint8 i = 0; i < BOARD_SIZE; i++) {\n            boardPieces.push();\n            for (uint8 j = 0; j < BOARD_SIZE; j++) {\n                boardPieces[i].push(0);\n            }\n        }\n\n        // initialize pieces\n        ZKChessUtils.initializeDefaults(defaultStats);\n    }\n\n    //////////////\n    /// EVENTS ///\n    //////////////\n\n    event GameStart(address p1, address p2);\n    event DidSummon(\n        address player,\n        uint8 pieceId,\n        uint16 sequenceNumber,\n        PieceType pieceType,\n        uint8 atRow,\n        uint8 atCol\n    );\n    event DidMove(\n        uint16 sequenceNumber,\n        uint8 pieceId,\n        uint8 fromRow,\n        uint8 fromCol,\n        uint8 toRow,\n        uint8 toCol\n    );\n    event DidAttack(\n        uint16 sequenceNumber,\n        uint8 attacker,\n        uint8 attacked,\n        uint8 attackerHp,\n        uint8 attackedHp\n    );\n    event DidEndTurn(address player, uint8 turnNumber, uint16 sequenceNumber);\n    event GameFinished();\n\n    ///////////////\n    /// GETTERS ///\n    ///////////////\n\n    function getPieces() public view returns (Piece[] memory ret) {\n        ret = new Piece[](pieceIds.length);\n        for (uint8 i = 0; i < pieceIds.length; i++) {\n            ret[i] = pieces[pieceIds[i]];\n        }\n        return ret;\n    }\n\n    function getDefaults()\n        public\n        view\n        returns (PieceDefaultStats[] memory ret)\n    {\n        ret = new PieceDefaultStats[](4);\n        // TODO hardcode bad >:(\n        for (uint8 i = 0; i < 4; i++) {\n            ret[i] = defaultStats[PieceType(i)];\n        }\n        return ret;\n    }\n\n    //////////////\n    /// Helper ///\n    //////////////\n\n    function checkAction(uint8 _turnNumber, uint16 _sequenceNumber)\n        public\n        view\n        returns (bool)\n    {\n        return\n            ZKChessUtils.checkAction(\n                _turnNumber,\n                turnNumber,\n                _sequenceNumber,\n                sequenceNumber,\n                player1,\n                player2,\n                gameState\n            );\n    }\n\n    function isValidMove(\n        Piece memory piece,\n        uint8[] memory toRow,\n        uint8[] memory toCol\n    ) private view returns (bool) {\n        return\n            ZKChessUtils.isValidMove(\n                piece,\n                toRow,\n                toCol,\n                boardPieces,\n                pieces,\n                defaultStats,\n                BOARD_SIZE\n            );\n    }\n\n    function gameShouldBeCompleted() public view returns (bool) {\n        return\n            ZKChessUtils.gameShouldBeCompleted(\n                pieceIds,\n                pieces,\n                player1,\n                player2\n            );\n    }\n\n    //////////////////////\n    /// Game Mechanics ///\n    //////////////////////\n\n    function joinGame() public {\n        require(\n            gameState == GameState.WAITING_FOR_PLAYERS,\n            \"Game already started\"\n        );\n        if (player1 == address(0)) {\n            // first player to join game\n            player1 = msg.sender;\n            return;\n        }\n        // another player has joined. game is ready to start\n\n        require(msg.sender != player1, \"can't join game twice\");\n        // randomize player order\n        if (block.timestamp % 2 == 0) {\n            player2 = msg.sender;\n        } else {\n            player2 = player1;\n            player1 = msg.sender;\n        }\n\n        // set pieces\n        pieces[1] = Piece({\n            id: 1,\n            pieceType: PieceType.PORT,\n            owner: player1,\n            row: 0,\n            col: 3,\n            alive: true,\n            commitment: 0,\n            initialized: true,\n            hp: defaultStats[PieceType.PORT].hp,\n            initializedOnTurn: 0,\n            lastMove: 0,\n            lastAttack: 0\n        });\n        pieceIds.push(1);\n        boardPieces[0][3] = 1;\n        pieces[2] = Piece({\n            id: 2,\n            pieceType: PieceType.PORT,\n            owner: player2,\n            row: 6,\n            col: 3,\n            alive: true,\n            commitment: 0,\n            initialized: true,\n            hp: defaultStats[PieceType.PORT].hp,\n            initializedOnTurn: 0,\n            lastMove: 0,\n            lastAttack: 0\n        });\n        pieceIds.push(2);\n        boardPieces[6][3] = 2;\n\n        gameState = GameState.P1_TO_MOVE;\n        turnNumber = 1;\n        player1Mana = turnNumber;\n        emit GameStart(player1, player2);\n    }\n\n    function doSummon(Summon memory summon) public {\n        checkAction(summon.turnNumber, summon.sequenceNumber);\n        require(!pieces[summon.pieceId].initialized, \"piece ID already in use\");\n\n        // PORT tile\n        uint8 homeRow;\n        uint8 homeCol = 3;\n        if (msg.sender == player1) {\n            homeRow = 0;\n        } else {\n            homeRow = 6;\n        }\n\n        // MANA checks\n        if (msg.sender == player1) {\n            require(\n                player1Mana >= defaultStats[summon.pieceType].cost,\n                \"not enough mana\"\n            );\n            player1Mana -= defaultStats[summon.pieceType].cost;\n        } else {\n            require(\n                player2Mana >= defaultStats[summon.pieceType].cost,\n                \"not enough mana\"\n            );\n            player2Mana -= defaultStats[summon.pieceType].cost;\n        }\n\n        // validity checks\n        if (!defaultStats[summon.pieceType].isZk) {\n            require(\n                summon.row < BOARD_SIZE && summon.col < BOARD_SIZE,\n                \"not in bounds\"\n            );\n            // if visible piece, can't summon on existing piece\n            uint8 pieceIdAtSummonTile = boardPieces[summon.row][summon.col];\n            Piece storage pieceAtSummonTile = pieces[pieceIdAtSummonTile];\n            require(!pieceAtSummonTile.alive, \"can't summon there\");\n            // must summon adjacent to the PORT tile\n            require(\n                ZKChessUtils.taxiDist(\n                    summon.row,\n                    summon.col,\n                    homeRow,\n                    homeCol\n                ) == 1,\n                \"can't summon there\"\n            );\n        } else {\n            require(\n                summon.zkp.input[1] == homeRow &&\n                    summon.zkp.input[2] == homeCol,\n                \"bad ZKP\"\n            );\n            require(summon.zkp.input[3] == 1, \"bad ZKP\");\n            require(summon.zkp.input[4] == BOARD_SIZE, \"bad ZKP\");\n            require(\n                Verifier.verifyDist1Proof(\n                    summon.zkp.a,\n                    summon.zkp.b,\n                    summon.zkp.c,\n                    summon.zkp.input\n                ),\n                \"bad ZKP\"\n            );\n        }\n\n        // create piece\n        pieces[summon.pieceId] = Piece({\n            id: summon.pieceId,\n            pieceType: summon.pieceType,\n            owner: msg.sender,\n            row: summon.row,\n            col: summon.col,\n            alive: true,\n            commitment: summon.zkp.input[0],\n            initialized: true,\n            hp: defaultStats[summon.pieceType].hp,\n            initializedOnTurn: turnNumber,\n            lastMove: turnNumber,\n            lastAttack: turnNumber\n        });\n        pieceIds.push(summon.pieceId);\n        boardPieces[summon.row][summon.col] = summon.pieceId;\n        // if piece has just been made, can't use it yet\n        // in the future this should be tracked in its own field\n        hasMoved[summon.turnNumber][summon.pieceId] = true;\n        hasAttacked[summon.turnNumber][summon.pieceId] = true;\n        emit DidSummon(\n            msg.sender,\n            summon.pieceId,\n            summon.sequenceNumber,\n            summon.pieceType,\n            summon.row,\n            summon.col\n        );\n        sequenceNumber++;\n    }\n\n    function doMove(Move memory move) public {\n        checkAction(move.turnNumber, move.sequenceNumber);\n        Piece storage piece = pieces[move.pieceId];\n        require(\n            piece.owner == msg.sender && piece.owner != address(0),\n            \"can't move that\"\n        );\n        require(piece.alive, \"piece dead\");\n        require(!hasMoved[move.turnNumber][piece.id], \"already moved\");\n        require(!hasAttacked[move.turnNumber][piece.id], \"already acted\");\n\n        uint8 originRow = piece.row;\n        uint8 originCol = piece.col;\n        if (defaultStats[piece.pieceType].isZk) {\n            require(piece.commitment == move.zkp.input[0], \"bad ZKP\");\n            require(move.zkp.input[3] == BOARD_SIZE, \"bad ZKP\");\n            require(\n                move.zkp.input[2] <= defaultStats[piece.pieceType].mvRange,\n                \"bad ZKP\"\n            );\n            require(\n                Verifier.verifyDist2Proof(\n                    move.zkp.a,\n                    move.zkp.b,\n                    move.zkp.c,\n                    move.zkp.input\n                ),\n                \"bad ZKP\"\n            );\n            piece.commitment = move.zkp.input[1];\n        } else {\n            uint8[] memory moveToRow = move.moveToRow;\n            uint8[] memory moveToCol = move.moveToCol;\n            require(isValidMove(piece, moveToRow, moveToCol), \"Invalid move\");\n            uint8 toRow = moveToRow[moveToRow.length - 1];\n            uint8 toCol = moveToCol[moveToCol.length - 1];\n            boardPieces[piece.row][piece.col] = 0;\n            boardPieces[toRow][toCol] = piece.id;\n            piece.row = toRow;\n            piece.col = toCol;\n        }\n        hasMoved[move.turnNumber][piece.id] = true;\n        piece.lastMove = move.turnNumber;\n        emit DidMove(\n            move.sequenceNumber,\n            move.pieceId,\n            originRow,\n            originCol,\n            piece.row,\n            piece.col\n        );\n        sequenceNumber++;\n    }\n\n    function doAttack(Attack memory attack) public {\n        checkAction(attack.turnNumber, attack.sequenceNumber);\n        require(\n            ZKChessUtils.checkAttack(\n                attack,\n                pieces,\n                defaultStats,\n                hasAttacked,\n                BOARD_SIZE\n            ),\n            \"invalid attack\"\n        );\n\n        ZKChessUtils.executeAttack(\n            attack,\n            pieces,\n            boardPieces,\n            defaultStats,\n            hasAttacked,\n            BOARD_SIZE\n        );\n        emit DidAttack(\n            attack.sequenceNumber,\n            attack.pieceId,\n            attack.attackedId,\n            pieces[attack.pieceId].hp,\n            pieces[attack.attackedId].hp\n        );\n        sequenceNumber++;\n    }\n\n    function endTurn(uint8 _turnNumber, uint8 _sequenceNumber) public {\n        checkAction(_turnNumber, _sequenceNumber);\n        if (msg.sender == player1) {\n            // change to p2's turn\n            player1Mana = 0;\n            player2Mana = turnNumber;\n            if (player2Mana > 8) {\n                player2Mana = 8;\n            }\n            gameState = GameState.P2_TO_MOVE;\n        } else {\n            // change to p1's turn\n            turnNumber++;\n            player2Mana = 0;\n            player1Mana = turnNumber;\n            if (player1Mana > 8) {\n                player1Mana = 8;\n            }\n            gameState = GameState.P1_TO_MOVE;\n        }\n        emit DidEndTurn(msg.sender, _turnNumber, _sequenceNumber);\n        sequenceNumber++;\n\n        if (gameShouldBeCompleted()) {\n            gameState = GameState.COMPLETE;\n            emit GameFinished();\n        }\n    }\n}\n",
  "sourcePath": "/Users/bgu/zk-chess/eth/contracts/ZKChessGame.sol",
  "compiler": {
    "name": "solc",
    "version": "0.6.7+commit.b8d736ae.Emscripten.clang"
  },
  "schemaVersion": "3.3.1",
  "updatedAt": "2020-11-13T06:03:58.753Z",
  "networkType": "ethereum",
  "devdoc": {
    "methods": {}
  },
  "userdoc": {
    "methods": {
      "checkAction(uint8,uint16)": {
        "notice": "/////////// Helper /// ///////////"
      },
      "getPieces()": {
        "notice": "//////////// GETTERS /// ////////////"
      },
      "joinGame()": {
        "notice": "/////////////////// Game Mechanics /// ///////////////////"
      }
    }
  }
}