{
  "contractName": "ZKChessGame",
  "abi": [
    {
      "anonymous": false,
      "inputs": [],
      "name": "GameFinished",
      "type": "event"
    },
    {
      "anonymous": false,
      "inputs": [
        {
          "indexed": false,
          "internalType": "address",
          "name": "p1",
          "type": "address"
        },
        {
          "indexed": false,
          "internalType": "address",
          "name": "p2",
          "type": "address"
        }
      ],
      "name": "GameStart",
      "type": "event"
    },
    {
      "anonymous": false,
      "inputs": [
        {
          "indexed": false,
          "internalType": "address",
          "name": "player",
          "type": "address"
        }
      ],
      "name": "MoveMade",
      "type": "event"
    },
    {
      "anonymous": false,
      "inputs": [
        {
          "indexed": false,
          "internalType": "uint256",
          "name": "pfsAccepted",
          "type": "uint256"
        }
      ],
      "name": "ProofVerified",
      "type": "event"
    },
    {
      "inputs": [],
      "name": "BOARD_SIZE",
      "outputs": [
        {
          "internalType": "uint256",
          "name": "",
          "type": "uint256"
        }
      ],
      "stateMutability": "view",
      "type": "function",
      "constant": true
    },
    {
      "inputs": [],
      "name": "DISABLE_ZK_CHECK",
      "outputs": [
        {
          "internalType": "bool",
          "name": "",
          "type": "bool"
        }
      ],
      "stateMutability": "view",
      "type": "function",
      "constant": true
    },
    {
      "inputs": [],
      "name": "FIELD_SIZE",
      "outputs": [
        {
          "internalType": "uint256",
          "name": "",
          "type": "uint256"
        }
      ],
      "stateMutability": "view",
      "type": "function",
      "constant": true
    },
    {
      "inputs": [],
      "name": "GHOST_START_COMMITMENT",
      "outputs": [
        {
          "internalType": "uint256",
          "name": "",
          "type": "uint256"
        }
      ],
      "stateMutability": "view",
      "type": "function",
      "constant": true
    },
    {
      "inputs": [
        {
          "internalType": "uint256",
          "name": "",
          "type": "uint256"
        },
        {
          "internalType": "uint256",
          "name": "",
          "type": "uint256"
        }
      ],
      "name": "boardObjectives",
      "outputs": [
        {
          "internalType": "uint8",
          "name": "",
          "type": "uint8"
        }
      ],
      "stateMutability": "view",
      "type": "function",
      "constant": true
    },
    {
      "inputs": [
        {
          "internalType": "uint256",
          "name": "",
          "type": "uint256"
        },
        {
          "internalType": "uint256",
          "name": "",
          "type": "uint256"
        }
      ],
      "name": "boardPieces",
      "outputs": [
        {
          "internalType": "uint8",
          "name": "",
          "type": "uint8"
        }
      ],
      "stateMutability": "view",
      "type": "function",
      "constant": true
    },
    {
      "inputs": [],
      "name": "gameId",
      "outputs": [
        {
          "internalType": "uint256",
          "name": "",
          "type": "uint256"
        }
      ],
      "stateMutability": "view",
      "type": "function",
      "constant": true
    },
    {
      "inputs": [],
      "name": "gameState",
      "outputs": [
        {
          "internalType": "enum GameState",
          "name": "",
          "type": "uint8"
        }
      ],
      "stateMutability": "view",
      "type": "function",
      "constant": true
    },
    {
      "inputs": [
        {
          "internalType": "uint256",
          "name": "",
          "type": "uint256"
        }
      ],
      "name": "objectiveIds",
      "outputs": [
        {
          "internalType": "uint8",
          "name": "",
          "type": "uint8"
        }
      ],
      "stateMutability": "view",
      "type": "function",
      "constant": true
    },
    {
      "inputs": [
        {
          "internalType": "uint8",
          "name": "",
          "type": "uint8"
        }
      ],
      "name": "objectives",
      "outputs": [
        {
          "internalType": "uint8",
          "name": "id",
          "type": "uint8"
        },
        {
          "internalType": "uint8",
          "name": "value",
          "type": "uint8"
        },
        {
          "internalType": "uint8",
          "name": "row",
          "type": "uint8"
        },
        {
          "internalType": "uint8",
          "name": "col",
          "type": "uint8"
        },
        {
          "internalType": "address",
          "name": "capturedBy",
          "type": "address"
        }
      ],
      "stateMutability": "view",
      "type": "function",
      "constant": true
    },
    {
      "inputs": [
        {
          "internalType": "uint256",
          "name": "",
          "type": "uint256"
        }
      ],
      "name": "pieceIds",
      "outputs": [
        {
          "internalType": "uint8",
          "name": "",
          "type": "uint8"
        }
      ],
      "stateMutability": "view",
      "type": "function",
      "constant": true
    },
    {
      "inputs": [
        {
          "internalType": "uint8",
          "name": "",
          "type": "uint8"
        }
      ],
      "name": "pieces",
      "outputs": [
        {
          "internalType": "uint8",
          "name": "id",
          "type": "uint8"
        },
        {
          "internalType": "enum PieceType",
          "name": "pieceType",
          "type": "uint8"
        },
        {
          "internalType": "address",
          "name": "owner",
          "type": "address"
        },
        {
          "internalType": "uint8",
          "name": "row",
          "type": "uint8"
        },
        {
          "internalType": "uint8",
          "name": "col",
          "type": "uint8"
        },
        {
          "internalType": "bool",
          "name": "alive",
          "type": "bool"
        },
        {
          "internalType": "uint256",
          "name": "commitment",
          "type": "uint256"
        }
      ],
      "stateMutability": "view",
      "type": "function",
      "constant": true
    },
    {
      "inputs": [],
      "name": "player1",
      "outputs": [
        {
          "internalType": "address",
          "name": "",
          "type": "address"
        }
      ],
      "stateMutability": "view",
      "type": "function",
      "constant": true
    },
    {
      "inputs": [],
      "name": "player1Score",
      "outputs": [
        {
          "internalType": "uint8",
          "name": "",
          "type": "uint8"
        }
      ],
      "stateMutability": "view",
      "type": "function",
      "constant": true
    },
    {
      "inputs": [],
      "name": "player2",
      "outputs": [
        {
          "internalType": "address",
          "name": "",
          "type": "address"
        }
      ],
      "stateMutability": "view",
      "type": "function",
      "constant": true
    },
    {
      "inputs": [],
      "name": "player2Score",
      "outputs": [
        {
          "internalType": "uint8",
          "name": "",
          "type": "uint8"
        }
      ],
      "stateMutability": "view",
      "type": "function",
      "constant": true
    },
    {
      "inputs": [],
      "name": "turnNumber",
      "outputs": [
        {
          "internalType": "uint8",
          "name": "",
          "type": "uint8"
        }
      ],
      "stateMutability": "view",
      "type": "function",
      "constant": true
    },
    {
      "inputs": [
        {
          "internalType": "uint256",
          "name": "_gameId",
          "type": "uint256"
        },
        {
          "internalType": "bool",
          "name": "_disableZKCheck",
          "type": "bool"
        }
      ],
      "name": "initialize",
      "outputs": [],
      "stateMutability": "nonpayable",
      "type": "function"
    },
    {
      "inputs": [],
      "name": "getPieces",
      "outputs": [
        {
          "components": [
            {
              "internalType": "uint8",
              "name": "id",
              "type": "uint8"
            },
            {
              "internalType": "enum PieceType",
              "name": "pieceType",
              "type": "uint8"
            },
            {
              "internalType": "address",
              "name": "owner",
              "type": "address"
            },
            {
              "internalType": "uint8",
              "name": "row",
              "type": "uint8"
            },
            {
              "internalType": "uint8",
              "name": "col",
              "type": "uint8"
            },
            {
              "internalType": "bool",
              "name": "alive",
              "type": "bool"
            },
            {
              "internalType": "uint256",
              "name": "commitment",
              "type": "uint256"
            }
          ],
          "internalType": "struct Piece[]",
          "name": "ret",
          "type": "tuple[]"
        }
      ],
      "stateMutability": "view",
      "type": "function",
      "constant": true
    },
    {
      "inputs": [],
      "name": "getObjectives",
      "outputs": [
        {
          "components": [
            {
              "internalType": "uint8",
              "name": "id",
              "type": "uint8"
            },
            {
              "internalType": "uint8",
              "name": "value",
              "type": "uint8"
            },
            {
              "internalType": "uint8",
              "name": "row",
              "type": "uint8"
            },
            {
              "internalType": "uint8",
              "name": "col",
              "type": "uint8"
            },
            {
              "internalType": "address",
              "name": "capturedBy",
              "type": "address"
            }
          ],
          "internalType": "struct Objective[]",
          "name": "ret",
          "type": "tuple[]"
        }
      ],
      "stateMutability": "view",
      "type": "function",
      "constant": true
    },
    {
      "inputs": [
        {
          "components": [
            {
              "internalType": "uint8",
              "name": "id",
              "type": "uint8"
            },
            {
              "internalType": "enum PieceType",
              "name": "pieceType",
              "type": "uint8"
            },
            {
              "internalType": "address",
              "name": "owner",
              "type": "address"
            },
            {
              "internalType": "uint8",
              "name": "row",
              "type": "uint8"
            },
            {
              "internalType": "uint8",
              "name": "col",
              "type": "uint8"
            },
            {
              "internalType": "bool",
              "name": "alive",
              "type": "bool"
            },
            {
              "internalType": "uint256",
              "name": "commitment",
              "type": "uint256"
            }
          ],
          "internalType": "struct Piece",
          "name": "piece",
          "type": "tuple"
        },
        {
          "internalType": "uint8[]",
          "name": "toRow",
          "type": "uint8[]"
        },
        {
          "internalType": "uint8[]",
          "name": "toCol",
          "type": "uint8[]"
        }
      ],
      "name": "isValidMove",
      "outputs": [
        {
          "internalType": "bool",
          "name": "",
          "type": "bool"
        }
      ],
      "stateMutability": "view",
      "type": "function",
      "constant": true
    },
    {
      "inputs": [],
      "name": "gameShouldBeCompleted",
      "outputs": [
        {
          "internalType": "bool",
          "name": "",
          "type": "bool"
        }
      ],
      "stateMutability": "view",
      "type": "function",
      "constant": true
    },
    {
      "inputs": [],
      "name": "joinGame",
      "outputs": [],
      "stateMutability": "nonpayable",
      "type": "function"
    },
    {
      "inputs": [
        {
          "components": [
            {
              "internalType": "uint8",
              "name": "pieceId",
              "type": "uint8"
            },
            {
              "internalType": "bool",
              "name": "doesMove",
              "type": "bool"
            },
            {
              "internalType": "uint8[]",
              "name": "moveToRow",
              "type": "uint8[]"
            },
            {
              "internalType": "uint8[]",
              "name": "moveToCol",
              "type": "uint8[]"
            },
            {
              "internalType": "bool",
              "name": "doesAttack",
              "type": "bool"
            },
            {
              "internalType": "uint8",
              "name": "attackRow",
              "type": "uint8"
            },
            {
              "internalType": "uint8",
              "name": "attackCol",
              "type": "uint8"
            },
            {
              "components": [
                {
                  "internalType": "uint256[2]",
                  "name": "a",
                  "type": "uint256[2]"
                },
                {
                  "internalType": "uint256[2][2]",
                  "name": "b",
                  "type": "uint256[2][2]"
                },
                {
                  "internalType": "uint256[2]",
                  "name": "c",
                  "type": "uint256[2]"
                },
                {
                  "internalType": "uint256[2]",
                  "name": "input",
                  "type": "uint256[2]"
                }
              ],
              "internalType": "struct MoveZKP",
              "name": "moveZkp",
              "type": "tuple"
            },
            {
              "components": [
                {
                  "internalType": "uint256[2]",
                  "name": "a",
                  "type": "uint256[2]"
                },
                {
                  "internalType": "uint256[2][2]",
                  "name": "b",
                  "type": "uint256[2][2]"
                },
                {
                  "internalType": "uint256[2]",
                  "name": "c",
                  "type": "uint256[2]"
                },
                {
                  "internalType": "uint256[4]",
                  "name": "input",
                  "type": "uint256[4]"
                }
              ],
              "internalType": "struct AttackZKP",
              "name": "attackZkp",
              "type": "tuple"
            }
          ],
          "internalType": "struct Action",
          "name": "action",
          "type": "tuple"
        }
      ],
      "name": "act",
      "outputs": [],
      "stateMutability": "nonpayable",
      "type": "function"
    }
  ],
  "bytecode": "0x608060405234801561001057600080fd5b506152bf806100206000396000f3fe608060405234801561001057600080fd5b50600436106101585760003560e01c8063b0228246116100c3578063d30895e41161007c578063d30895e4146103ed578063d4f77b1c1461040b578063d7c81b5514610415578063dc4a3e9514610433578063ed30016a14610451578063ee5d8a711461046d57610158565b8063b022824614610303578063bd91fdb414610333578063c6204ee214610351578063cf615f6c14610381578063cfecc6de1461039f578063d1f9c24d146103cf57610158565b806359a5f12d1161011557806359a5f12d146102395780635c3beb32146102575780637174f2c01461028b5780637e15247d146102a95780638af9d562146102c7578063acbc1a91146102e557610158565b8063279646661461015d5780632c784f32146101795780633fb7388e146101af578063414a37ba146101df57806351df541c146101fd5780635700401e1461021b575b600080fd5b6101776004803603810190610172919061436c565b61049d565b005b610193600480360381019061018e91906143e4565b611bd9565b6040516101a69796959493929190614ec9565b60405180910390f35b6101c960048036038101906101c491906143a8565b611c7c565b6040516101d69190614eae565b60405180910390f35b6101e7611cb2565b6040516101f49190614e93565b60405180910390f35b610205611cd6565b6040516102129190614c9d565b60405180910390f35b610223611e4a565b6040516102309190614eae565b60405180910390f35b610241611e5d565b60405161024e9190614bb3565b60405180910390f35b610271600480360381019061026c91906143e4565b611e83565b604051610282959493929190614f38565b60405180910390f35b610293611f0d565b6040516102a09190614eae565b60405180910390f35b6102b1611f20565b6040516102be9190614c12565b60405180910390f35b6102cf6120ca565b6040516102dc9190614c9d565b60405180910390f35b6102ed6120dd565b6040516102fa9190614e93565b60405180910390f35b61031d600480360381019061031891906143a8565b612101565b60405161032a9190614eae565b60405180910390f35b61033b612137565b6040516103489190614eae565b60405180910390f35b61036b60048036038101906103669190614343565b61214a565b6040516103789190614eae565b60405180910390f35b610389612171565b6040516103969190614c34565b60405180910390f35b6103b960048036038101906103b49190614343565b612350565b6040516103c69190614eae565b60405180910390f35b6103d7612377565b6040516103e49190614cb8565b60405180910390f35b6103f561238a565b6040516104029190614bb3565b60405180910390f35b6104136123b0565b005b61041d612824565b60405161042a9190614e93565b60405180910390f35b61043b61282a565b6040516104489190614e93565b60405180910390f35b61046b60048036038101906104669190614281565b61282f565b005b610487600480360381019061048291906142c2565b6131f8565b6040516104949190614c9d565b60405180910390f35b8160338190555080604760006101000a81548160ff0219169083151502179055506000603460016101000a81548160ff021916908360038111156104dd57fe5b0217905550604051806101000160405280600160ff168152602001600260ff168152602001600360ff168152602001600460ff168152602001600560ff168152602001600660ff168152602001600760ff168152602001600860ff16815250604390600861054c929190613b35565b506040518060c00160405280600960ff168152602001600a60ff168152602001600b60ff168152602001600c60ff168152602001600d60ff168152602001600e60ff1681525060459060066105a2929190613bcf565b506040518060e00160405280600160ff168152602001600060028111156105c557fe5b8152602001600073ffffffffffffffffffffffffffffffffffffffff168152602001600060ff168152602001600160ff168152602001600115158152602001600081525060446000600160ff16815260200190815260200160002060008201518160000160006101000a81548160ff021916908360ff16021790555060208201518160000160016101000a81548160ff0219169083600281111561066557fe5b021790555060408201518160000160026101000a81548173ffffffffffffffffffffffffffffffffffffffff021916908373ffffffffffffffffffffffffffffffffffffffff16021790555060608201518160000160166101000a81548160ff021916908360ff16021790555060808201518160000160176101000a81548160ff021916908360ff16021790555060a08201518160000160186101000a81548160ff02191690831515021790555060c082015181600101559050506001603560006007811061073057fe5b0160016007811061073d57fe5b602091828204019190066101000a81548160ff021916908360ff1602179055506040518060e00160405280600260ff1681526020016001600281111561077f57fe5b8152602001600073ffffffffffffffffffffffffffffffffffffffff168152602001600060ff168152602001600360ff168152602001600115158152602001600081525060446000600260ff16815260200190815260200160002060008201518160000160006101000a81548160ff021916908360ff16021790555060208201518160000160016101000a81548160ff0219169083600281111561081f57fe5b021790555060408201518160000160026101000a81548173ffffffffffffffffffffffffffffffffffffffff021916908373ffffffffffffffffffffffffffffffffffffffff16021790555060608201518160000160166101000a81548160ff021916908360ff16021790555060808201518160000160176101000a81548160ff021916908360ff16021790555060a08201518160000160186101000a81548160ff02191690831515021790555060c08201518160010155905050600260356000600781106108ea57fe5b016003600781106108f757fe5b602091828204019190066101000a81548160ff021916908360ff1602179055506040518060e00160405280600360ff1681526020016000600281111561093957fe5b8152602001600073ffffffffffffffffffffffffffffffffffffffff168152602001600060ff168152602001600560ff168152602001600115158152602001600081525060446000600360ff16815260200190815260200160002060008201518160000160006101000a81548160ff021916908360ff16021790555060208201518160000160016101000a81548160ff021916908360028111156109d957fe5b021790555060408201518160000160026101000a81548173ffffffffffffffffffffffffffffffffffffffff021916908373ffffffffffffffffffffffffffffffffffffffff16021790555060608201518160000160166101000a81548160ff021916908360ff16021790555060808201518160000160176101000a81548160ff021916908360ff16021790555060a08201518160000160186101000a81548160ff02191690831515021790555060c0820151816001015590505060036035600060078110610aa457fe5b01600560078110610ab157fe5b602091828204019190066101000a81548160ff021916908360ff1602179055506040518060e00160405280600460ff168152602001600280811115610af257fe5b8152602001600073ffffffffffffffffffffffffffffffffffffffff168152602001600060ff168152602001600060ff1681526020016001151581526020017f104ddaefd01036b8465b22025720f944733190135fd4ed564186bc3cfcaec72281525060446000600460ff16815260200190815260200160002060008201518160000160006101000a81548160ff021916908360ff16021790555060208201518160000160016101000a81548160ff02191690836002811115610bb157fe5b021790555060408201518160000160026101000a81548173ffffffffffffffffffffffffffffffffffffffff021916908373ffffffffffffffffffffffffffffffffffffffff16021790555060608201518160000160166101000a81548160ff021916908360ff16021790555060808201518160000160176101000a81548160ff021916908360ff16021790555060a08201518160000160186101000a81548160ff02191690831515021790555060c082015181600101559050506040518060e00160405280600560ff16815260200160006002811115610c8e57fe5b8152602001600073ffffffffffffffffffffffffffffffffffffffff168152602001600660ff168152602001600160ff168152602001600115158152602001600081525060446000600560ff16815260200190815260200160002060008201518160000160006101000a81548160ff021916908360ff16021790555060208201518160000160016101000a81548160ff02191690836002811115610d2e57fe5b021790555060408201518160000160026101000a81548173ffffffffffffffffffffffffffffffffffffffff021916908373ffffffffffffffffffffffffffffffffffffffff16021790555060608201518160000160166101000a81548160ff021916908360ff16021790555060808201518160000160176101000a81548160ff021916908360ff16021790555060a08201518160000160186101000a81548160ff02191690831515021790555060c0820151816001015590505060056035600660078110610df957fe5b01600160078110610e0657fe5b602091828204019190066101000a81548160ff021916908360ff1602179055506040518060e00160405280600660ff16815260200160016002811115610e4857fe5b8152602001600073ffffffffffffffffffffffffffffffffffffffff168152602001600660ff168152602001600360ff168152602001600115158152602001600081525060446000600660ff16815260200190815260200160002060008201518160000160006101000a81548160ff021916908360ff16021790555060208201518160000160016101000a81548160ff02191690836002811115610ee857fe5b021790555060408201518160000160026101000a81548173ffffffffffffffffffffffffffffffffffffffff021916908373ffffffffffffffffffffffffffffffffffffffff16021790555060608201518160000160166101000a81548160ff021916908360ff16021790555060808201518160000160176101000a81548160ff021916908360ff16021790555060a08201518160000160186101000a81548160ff02191690831515021790555060c0820151816001015590505060066035600660078110610fb357fe5b01600360078110610fc057fe5b602091828204019190066101000a81548160ff021916908360ff1602179055506040518060e00160405280600760ff1681526020016000600281111561100257fe5b8152602001600073ffffffffffffffffffffffffffffffffffffffff168152602001600660ff168152602001600560ff168152602001600115158152602001600081525060446000600760ff16815260200190815260200160002060008201518160000160006101000a81548160ff021916908360ff16021790555060208201518160000160016101000a81548160ff021916908360028111156110a257fe5b021790555060408201518160000160026101000a81548173ffffffffffffffffffffffffffffffffffffffff021916908373ffffffffffffffffffffffffffffffffffffffff16021790555060608201518160000160166101000a81548160ff021916908360ff16021790555060808201518160000160176101000a81548160ff021916908360ff16021790555060a08201518160000160186101000a81548160ff02191690831515021790555060c082015181600101559050506007603560066007811061116d57fe5b0160056007811061117a57fe5b602091828204019190066101000a81548160ff021916908360ff1602179055506040518060e00160405280600860ff1681526020016002808111156111bb57fe5b8152602001600073ffffffffffffffffffffffffffffffffffffffff168152602001600660ff168152602001600060ff1681526020016001151581526020017f104ddaefd01036b8465b22025720f944733190135fd4ed564186bc3cfcaec72281525060446000600860ff16815260200190815260200160002060008201518160000160006101000a81548160ff021916908360ff16021790555060208201518160000160016101000a81548160ff0219169083600281111561127a57fe5b021790555060408201518160000160026101000a81548173ffffffffffffffffffffffffffffffffffffffff021916908373ffffffffffffffffffffffffffffffffffffffff16021790555060608201518160000160166101000a81548160ff021916908360ff16021790555060808201518160000160176101000a81548160ff021916908360ff16021790555060a08201518160000160186101000a81548160ff02191690831515021790555060c082015181600101559050506040518060a00160405280600960ff168152602001600560ff168152602001600360ff168152602001600060ff168152602001600073ffffffffffffffffffffffffffffffffffffffff1681525060466000600960ff16815260200190815260200160002060008201518160000160006101000a81548160ff021916908360ff16021790555060208201518160000160016101000a81548160ff021916908360ff16021790555060408201518160000160026101000a81548160ff021916908360ff16021790555060608201518160000160036101000a81548160ff021916908360ff16021790555060808201518160000160046101000a81548173ffffffffffffffffffffffffffffffffffffffff021916908373ffffffffffffffffffffffffffffffffffffffff1602179055509050506009603c60036007811061147857fe5b0160006007811061148557fe5b602091828204019190066101000a81548160ff021916908360ff1602179055506040518060a00160405280600a60ff168152602001600560ff168152602001600260ff168152602001600260ff168152602001600073ffffffffffffffffffffffffffffffffffffffff1681525060466000600a60ff16815260200190815260200160002060008201518160000160006101000a81548160ff021916908360ff16021790555060208201518160000160016101000a81548160ff021916908360ff16021790555060408201518160000160026101000a81548160ff021916908360ff16021790555060608201518160000160036101000a81548160ff021916908360ff16021790555060808201518160000160046101000a81548173ffffffffffffffffffffffffffffffffffffffff021916908373ffffffffffffffffffffffffffffffffffffffff160217905550905050600a603c6002600781106115e857fe5b016002600781106115f557fe5b602091828204019190066101000a81548160ff021916908360ff1602179055506040518060a00160405280600b60ff168152602001600a60ff168152602001600460ff168152602001600260ff168152602001600073ffffffffffffffffffffffffffffffffffffffff1681525060466000600b60ff16815260200190815260200160002060008201518160000160006101000a81548160ff021916908360ff16021790555060208201518160000160016101000a81548160ff021916908360ff16021790555060408201518160000160026101000a81548160ff021916908360ff16021790555060608201518160000160036101000a81548160ff021916908360ff16021790555060808201518160000160046101000a81548173ffffffffffffffffffffffffffffffffffffffff021916908373ffffffffffffffffffffffffffffffffffffffff160217905550905050600b603c60046007811061175857fe5b0160026007811061176557fe5b602091828204019190066101000a81548160ff021916908360ff1602179055506040518060a00160405280600c60ff168152602001600a60ff168152602001600260ff168152602001600460ff168152602001600073ffffffffffffffffffffffffffffffffffffffff1681525060466000600c60ff16815260200190815260200160002060008201518160000160006101000a81548160ff021916908360ff16021790555060208201518160000160016101000a81548160ff021916908360ff16021790555060408201518160000160026101000a81548160ff021916908360ff16021790555060608201518160000160036101000a81548160ff021916908360ff16021790555060808201518160000160046101000a81548173ffffffffffffffffffffffffffffffffffffffff021916908373ffffffffffffffffffffffffffffffffffffffff160217905550905050600c603c6002600781106118c857fe5b016004600781106118d557fe5b602091828204019190066101000a81548160ff021916908360ff1602179055506040518060a00160405280600d60ff168152602001600560ff168152602001600460ff168152602001600460ff168152602001600073ffffffffffffffffffffffffffffffffffffffff1681525060466000600d60ff16815260200190815260200160002060008201518160000160006101000a81548160ff021916908360ff16021790555060208201518160000160016101000a81548160ff021916908360ff16021790555060408201518160000160026101000a81548160ff021916908360ff16021790555060608201518160000160036101000a81548160ff021916908360ff16021790555060808201518160000160046101000a81548173ffffffffffffffffffffffffffffffffffffffff021916908373ffffffffffffffffffffffffffffffffffffffff160217905550905050600d603c600460078110611a3857fe5b01600460078110611a4557fe5b602091828204019190066101000a81548160ff021916908360ff1602179055506040518060a00160405280600e60ff168152602001600560ff168152602001600360ff168152602001600660ff168152602001600073ffffffffffffffffffffffffffffffffffffffff1681525060466000600e60ff16815260200190815260200160002060008201518160000160006101000a81548160ff021916908360ff16021790555060208201518160000160016101000a81548160ff021916908360ff16021790555060408201518160000160026101000a81548160ff021916908360ff16021790555060608201518160000160036101000a81548160ff021916908360ff16021790555060808201518160000160046101000a81548173ffffffffffffffffffffffffffffffffffffffff021916908373ffffffffffffffffffffffffffffffffffffffff160217905550905050600e603c600360078110611ba857fe5b01600660078110611bb557fe5b602091828204019190066101000a81548160ff021916908360ff1602179055505050565b60446020528060005260406000206000915090508060000160009054906101000a900460ff16908060000160019054906101000a900460ff16908060000160029054906101000a900473ffffffffffffffffffffffffffffffffffffffff16908060000160169054906101000a900460ff16908060000160179054906101000a900460ff16908060000160189054906101000a900460ff16908060010154905087565b60358260078110611c8957fe5b018160078110611c9557fe5b60209182820401919006915091509054906101000a900460ff1681565b7f30644e72e131a029b85045b68181585d2833e84879b9709143e1f593f000000181565b6000806001905060008090505b60088160ff161015611d59576044600060438360ff1660088110611d0357fe5b602091828204019190069054906101000a900460ff1660ff1660ff16815260200190815260200160002060000160189054906101000a900460ff1615611d4c5760009150611d59565b8080600101915050611ce3565b508015611d6a576001915050611e47565b60006001905060008090505b60068160ff161015611e2e57600073ffffffffffffffffffffffffffffffffffffffff166046600060458460ff1660068110611dae57fe5b602091828204019190069054906101000a900460ff1660ff1660ff16815260200190815260200160002060000160049054906101000a900473ffffffffffffffffffffffffffffffffffffffff1673ffffffffffffffffffffffffffffffffffffffff161415611e215760009150611e2e565b8080600101915050611d76565b508015611e4057600192505050611e47565b6000925050505b90565b603460009054906101000a900460ff1681565b604860009054906101000a900473ffffffffffffffffffffffffffffffffffffffff1681565b60466020528060005260406000206000915090508060000160009054906101000a900460ff16908060000160019054906101000a900460ff16908060000160029054906101000a900460ff16908060000160039054906101000a900460ff16908060000160049054906101000a900473ffffffffffffffffffffffffffffffffffffffff16905085565b604860149054906101000a900460ff1681565b6060600667ffffffffffffffff81118015611f3a57600080fd5b50604051908082528060200260200182016040528015611f7457816020015b611f61613c69565b815260200190600190039081611f595790505b50905060008090505b60068160ff1610156120c3576046600060458360ff1660068110611f9d57fe5b602091828204019190069054906101000a900460ff1660ff1660ff1681526020019081526020016000206040518060a00160405290816000820160009054906101000a900460ff1660ff1660ff1681526020016000820160019054906101000a900460ff1660ff1660ff1681526020016000820160029054906101000a900460ff1660ff1660ff1681526020016000820160039054906101000a900460ff1660ff1660ff1681526020016000820160049054906101000a900473ffffffffffffffffffffffffffffffffffffffff1673ffffffffffffffffffffffffffffffffffffffff1673ffffffffffffffffffffffffffffffffffffffff1681525050828260ff16815181106120ab57fe5b60200260200101819052508080600101915050611f7d565b5080905090565b604760009054906101000a900460ff1681565b7f104ddaefd01036b8465b22025720f944733190135fd4ed564186bc3cfcaec72281565b603c826007811061210e57fe5b01816007811061211a57fe5b60209182820401919006915091509054906101000a900460ff1681565b604860159054906101000a900460ff1681565b6045816006811061215757fe5b60209182820401919006915054906101000a900460ff1681565b6060600867ffffffffffffffff8111801561218b57600080fd5b506040519080825280602002602001820160405280156121c557816020015b6121b2613cba565b8152602001906001900390816121aa5790505b50905060008090505b60088160ff161015612349576044600060438360ff16600881106121ee57fe5b602091828204019190069054906101000a900460ff1660ff1660ff1681526020019081526020016000206040518060e00160405290816000820160009054906101000a900460ff1660ff1660ff1681526020016000820160019054906101000a900460ff16600281111561225e57fe5b600281111561226957fe5b81526020016000820160029054906101000a900473ffffffffffffffffffffffffffffffffffffffff1673ffffffffffffffffffffffffffffffffffffffff1673ffffffffffffffffffffffffffffffffffffffff1681526020016000820160169054906101000a900460ff1660ff1660ff1681526020016000820160179054906101000a900460ff1660ff1660ff1681526020016000820160189054906101000a900460ff16151515158152602001600182015481525050828260ff168151811061233157fe5b602002602001018190525080806001019150506121ce565b5080905090565b6043816008811061235d57fe5b60209182820401919006915054906101000a900460ff1681565b603460019054906101000a900460ff1681565b604760019054906101000a900473ffffffffffffffffffffffffffffffffffffffff1681565b600060038111156123bd57fe5b603460019054906101000a900460ff1660038111156123d857fe5b14612418576040517f08c379a000000000000000000000000000000000000000000000000000000000815260040161240f90614e53565b60405180910390fd5b600073ffffffffffffffffffffffffffffffffffffffff16604760019054906101000a900473ffffffffffffffffffffffffffffffffffffffff1673ffffffffffffffffffffffffffffffffffffffff1614156124b55733604760016101000a81548173ffffffffffffffffffffffffffffffffffffffff021916908373ffffffffffffffffffffffffffffffffffffffff160217905550612822565b604760019054906101000a900473ffffffffffffffffffffffffffffffffffffffff1673ffffffffffffffffffffffffffffffffffffffff163373ffffffffffffffffffffffffffffffffffffffff161415612546576040517f08c379a000000000000000000000000000000000000000000000000000000000815260040161253d90614d13565b60405180910390fd5b60006002428161255257fe5b06141561259f5733604860006101000a81548173ffffffffffffffffffffffffffffffffffffffff021916908373ffffffffffffffffffffffffffffffffffffffff160217905550612644565b604760019054906101000a900473ffffffffffffffffffffffffffffffffffffffff16604860006101000a81548173ffffffffffffffffffffffffffffffffffffffff021916908373ffffffffffffffffffffffffffffffffffffffff16021790555033604760016101000a81548173ffffffffffffffffffffffffffffffffffffffff021916908373ffffffffffffffffffffffffffffffffffffffff1602179055505b6000600190505b60058160ff1610156126e157604760019054906101000a900473ffffffffffffffffffffffffffffffffffffffff16604460008360ff1660ff16815260200190815260200160002060000160026101000a81548173ffffffffffffffffffffffffffffffffffffffff021916908373ffffffffffffffffffffffffffffffffffffffff160217905550808060010191505061264b565b506000600590505b60098160ff16101561277f57604860009054906101000a900473ffffffffffffffffffffffffffffffffffffffff16604460008360ff1660ff16815260200190815260200160002060000160026101000a81548173ffffffffffffffffffffffffffffffffffffffff021916908373ffffffffffffffffffffffffffffffffffffffff16021790555080806001019150506126e9565b506001603460016101000a81548160ff0219169083600381111561279f57fe5b02179055507f8fd707874eb940598510258c64cad23fd35fe8c85c5c38e8782fac2cc887fb6e604760019054906101000a900473ffffffffffffffffffffffffffffffffffffffff16604860009054906101000a900473ffffffffffffffffffffffffffffffffffffffff16604051612819929190614be9565b60405180910390a15b565b60335481565b600781565b60038081111561283b57fe5b603460019054906101000a900460ff16600381111561285657fe5b1415612897576040517f08c379a000000000000000000000000000000000000000000000000000000000815260040161288e90614db3565b60405180910390fd5b604760019054906101000a900473ffffffffffffffffffffffffffffffffffffffff1673ffffffffffffffffffffffffffffffffffffffff163373ffffffffffffffffffffffffffffffffffffffff16141561295657600160038111156128fa57fe5b603460019054906101000a900460ff16600381111561291557fe5b14612955576040517f08c379a000000000000000000000000000000000000000000000000000000000815260040161294c90614e73565b60405180910390fd5b5b604860009054906101000a900473ffffffffffffffffffffffffffffffffffffffff1673ffffffffffffffffffffffffffffffffffffffff163373ffffffffffffffffffffffffffffffffffffffff161415612a1557600260038111156129b957fe5b603460019054906101000a900460ff1660038111156129d457fe5b14612a14576040517f08c379a0000000000000000000000000000000000000000000000000000000008152600401612a0b90614dd3565b60405180910390fd5b5b600060446000836000015160ff1660ff16815260200190815260200160002090503373ffffffffffffffffffffffffffffffffffffffff168160000160029054906101000a900473ffffffffffffffffffffffffffffffffffffffff1673ffffffffffffffffffffffffffffffffffffffff1614158015612ae75750600073ffffffffffffffffffffffffffffffffffffffff168160000160029054906101000a900473ffffffffffffffffffffffffffffffffffffffff1673ffffffffffffffffffffffffffffffffffffffff1614155b612b26576040517f08c379a0000000000000000000000000000000000000000000000000000000008152600401612b1d90614d93565b60405180910390fd5b6000826000015160ff161415612b3c57506131f5565b8060000160189054906101000a900460ff16612b8d576040517f08c379a0000000000000000000000000000000000000000000000000000000008152600401612b8490614cf3565b60405180910390fd5b600280811115612b9957fe5b8160000160019054906101000a900460ff166002811115612bb657fe5b1415612d43578160e0015160600151600060028110612bd157fe5b6020020151816001015414612c1b576040517f08c379a0000000000000000000000000000000000000000000000000000000008152600401612c1290614e13565b60405180910390fd5b604760009054906101000a900460ff16612d1c5773__Verifier______________________________63ab4753078360e00151600001518460e00151602001518560e00151604001518660e00151606001516040518563ffffffff1660e01b8152600401612c8c9493929190614c56565b60206040518083038186803b158015612ca457600080fd5b505af4158015612cb8573d6000803e3d6000fd5b505050506040513d601f19601f82011682018060405250810190612cdc9190614258565b612d1b576040517f08c379a0000000000000000000000000000000000000000000000000000000008152600401612d1290614d53565b60405180910390fd5b5b8160e0015160600151600160028110612d3157fe5b602002015181600101819055506131eb565b8160200151156131ea57606082604001519050606083606001519050612e74836040518060e00160405290816000820160009054906101000a900460ff1660ff1660ff1681526020016000820160019054906101000a900460ff166002811115612da957fe5b6002811115612db457fe5b81526020016000820160029054906101000a900473ffffffffffffffffffffffffffffffffffffffff1673ffffffffffffffffffffffffffffffffffffffff1673ffffffffffffffffffffffffffffffffffffffff1681526020016000820160169054906101000a900460ff1660ff1660ff1681526020016000820160179054906101000a900460ff1660ff1660ff1681526020016000820160189054906101000a900460ff1615151515815260200160018201548152505083836131f8565b612eb3576040517f08c379a0000000000000000000000000000000000000000000000000000000008152600401612eaa90614d73565b60405180910390fd5b600082600184510381518110612ec557fe5b60200260200101519050600082600184510381518110612ee157fe5b60200260200101519050600060358660000160169054906101000a900460ff1660ff1660078110612f0e57fe5b018660000160179054906101000a900460ff1660ff1660078110612f2e57fe5b602091828204019190066101000a81548160ff021916908360ff1602179055508460000160009054906101000a900460ff1660358360ff1660078110612f7057fe5b018260ff1660078110612f7f57fe5b602091828204019190066101000a81548160ff021916908360ff160217905550818560000160166101000a81548160ff021916908360ff160217905550808560000160176101000a81548160ff021916908360ff160217905550600060466000603c8560ff1660078110612fef57fe5b018460ff1660078110612ffe57fe5b602091828204019190069054906101000a900460ff1660ff1660ff16815260200190815260200160002060000160019054906101000a900460ff1660ff161180156130e55750600073ffffffffffffffffffffffffffffffffffffffff1660466000603c8560ff166007811061307057fe5b018460ff166007811061307f57fe5b602091828204019190069054906101000a900460ff1660ff1660ff16815260200190815260200160002060000160049054906101000a900473ffffffffffffffffffffffffffffffffffffffff1673ffffffffffffffffffffffffffffffffffffffff16145b156131e557604760019054906101000a900473ffffffffffffffffffffffffffffffffffffffff1673ffffffffffffffffffffffffffffffffffffffff163373ffffffffffffffffffffffffffffffffffffffff16141561319457603c8260ff166007811061315057fe5b018160ff166007811061315f57fe5b602091828204019190069054906101000a900460ff16604860166101000a81548160ff021916908360ff1602179055506131e4565b603c8260ff16600781106131a457fe5b018160ff16600781106131b357fe5b602091828204019190069054906101000a900460ff16604860176101000a81548160ff021916908360ff1602179055505b5b505050505b5b6131f36134ea565b505b50565b60008084606001519050600085608001519050835185511461324f576040517f08c379a000000000000000000000000000000000000000000000000000000000815260040161324690614df3565b60405180910390fd5b60008090506000600281111561326157fe5b8760200151600281111561327157fe5b141561328057600190506132a9565b6001600281111561328d57fe5b8760200151600281111561329d57fe5b14156132a857600290505b5b8060ff16865111156132f0576040517f08c379a00000000000000000000000000000000000000000000000000000000081526004016132e790614e33565b60405180910390fd5b60008090505b86518110156134db57600087828151811061330d57fe5b60200260200101519050600087838151811061332557fe5b6020026020010151905060078260ff161080613344575060078160ff16105b613383576040517f08c379a000000000000000000000000000000000000000000000000000000000815260040161337a90614d33565b60405180910390fd5b8560ff168260ff16148061339c57508460ff168160ff16145b80156133dd5750600186830360ff1614806133bc5750600182870360ff16145b806133cc5750600185820360ff16145b806133dc5750600181860360ff16145b5b61341c576040517f08c379a000000000000000000000000000000000000000000000000000000000815260040161341390614df3565b60405180910390fd5b600060358360ff166007811061342e57fe5b018260ff166007811061343d57fe5b602091828204019190069054906101000a900460ff1690506000604460008360ff1660ff16815260200190815260200160002090508060000160189054906101000a900460ff16156134c4576040517f08c379a00000000000000000000000000000000000000000000000000000000081526004016134bb90614cd3565b60405180910390fd5b8397508296505050505080806001019150506132f6565b50600193505050509392505050565b604760019054906101000a900473ffffffffffffffffffffffffffffffffffffffff1673ffffffffffffffffffffffffffffffffffffffff163373ffffffffffffffffffffffffffffffffffffffff1614156137d857600060466000604860179054906101000a900460ff1660ff1660ff168152602001908152602001600020905060008160000160019054906101000a900460ff1660ff161180156135e05750600073ffffffffffffffffffffffffffffffffffffffff168160000160049054906101000a900473ffffffffffffffffffffffffffffffffffffffff1673ffffffffffffffffffffffffffffffffffffffff16145b156137925760006044600060358460000160029054906101000a900460ff1660ff166007811061360c57fe5b018460000160039054906101000a900460ff1660ff166007811061362c57fe5b602091828204019190069054906101000a900460ff1660ff1660ff1681526020019081526020016000209050604860009054906101000a900473ffffffffffffffffffffffffffffffffffffffff1673ffffffffffffffffffffffffffffffffffffffff168160000160029054906101000a900473ffffffffffffffffffffffffffffffffffffffff1673ffffffffffffffffffffffffffffffffffffffff161480156136e757508060000160189054906101000a900460ff165b1561379057604860009054906101000a900473ffffffffffffffffffffffffffffffffffffffff168260000160046101000a81548173ffffffffffffffffffffffffffffffffffffffff021916908373ffffffffffffffffffffffffffffffffffffffff1602179055508160000160019054906101000a900460ff16604860158282829054906101000a900460ff160192506101000a81548160ff021916908360ff1602179055505b505b6000604860176101000a81548160ff021916908360ff1602179055506002603460016101000a81548160ff021916908360038111156137cd57fe5b021790555050613a9e565b600060466000604860169054906101000a900460ff1660ff1660ff168152602001908152602001600020905060008160000160019054906101000a900460ff1660ff161180156138785750600073ffffffffffffffffffffffffffffffffffffffff168160000160049054906101000a900473ffffffffffffffffffffffffffffffffffffffff1673ffffffffffffffffffffffffffffffffffffffff16145b15613a2a5760006044600060358460000160029054906101000a900460ff1660ff16600781106138a457fe5b018460000160039054906101000a900460ff1660ff16600781106138c457fe5b602091828204019190069054906101000a900460ff1660ff1660ff1681526020019081526020016000209050604760019054906101000a900473ffffffffffffffffffffffffffffffffffffffff1673ffffffffffffffffffffffffffffffffffffffff168160000160029054906101000a900473ffffffffffffffffffffffffffffffffffffffff1673ffffffffffffffffffffffffffffffffffffffff1614801561397f57508060000160189054906101000a900460ff165b15613a2857604760019054906101000a900473ffffffffffffffffffffffffffffffffffffffff168260000160046101000a81548173ffffffffffffffffffffffffffffffffffffffff021916908373ffffffffffffffffffffffffffffffffffffffff1602179055508160000160019054906101000a900460ff16604860148282829054906101000a900460ff160192506101000a81548160ff021916908360ff1602179055505b505b6000604860166101000a81548160ff021916908360ff1602179055506034600081819054906101000a900460ff168092919060010191906101000a81548160ff021916908360ff160217905550506001603460016101000a81548160ff02191690836003811115613a9757fe5b0217905550505b7f8eaa9f09cc5e3b56163bc8d93f99b4299c7172f83d51d1448e8d9a3dc6d1a10133604051613acd9190614bce565b60405180910390a1613add611cd6565b15613b33576003603460016101000a81548160ff02191690836003811115613b0157fe5b02179055507fb537cbcadc098cfedf5a04ef7e68a8554b55f7e45bfdaca1cbc51a686ef65f4860405160405180910390a15b565b826008601f01602090048101928215613bbe5791602002820160005b83821115613b8f57835183826101000a81548160ff021916908360ff1602179055509260200192600101602081600001049283019260010302613b51565b8015613bbc5782816101000a81549060ff0219169055600101602081600001049283019260010302613b8f565b505b509050613bcb9190613d23565b5090565b826006601f01602090048101928215613c585791602002820160005b83821115613c2957835183826101000a81548160ff021916908360ff1602179055509260200192600101602081600001049283019260010302613beb565b8015613c565782816101000a81549060ff0219169055600101602081600001049283019260010302613c29565b505b509050613c659190613d23565b5090565b6040518060a00160405280600060ff168152602001600060ff168152602001600060ff168152602001600060ff168152602001600073ffffffffffffffffffffffffffffffffffffffff1681525090565b6040518060e00160405280600060ff16815260200160006002811115613cdc57fe5b8152602001600073ffffffffffffffffffffffffffffffffffffffff168152602001600060ff168152602001600060ff168152602001600015158152602001600081525090565b613d5091905b80821115613d4c57600081816101000a81549060ff021916905550600101613d29565b5090565b90565b600081359050613d628161521d565b92915050565b600082601f830112613d7957600080fd5b6002613d8c613d8782614fb8565b614f8b565b91508183856040840282011115613da257600080fd5b60005b83811015613dd25781613db88882613ddc565b845260208401935060408301925050600181019050613da5565b5050505092915050565b600082601f830112613ded57600080fd5b6002613e00613dfb82614fda565b614f8b565b91508183856020840282011115613e1657600080fd5b60005b83811015613e465781613e2c888261422e565b845260208401935060208301925050600181019050613e19565b5050505092915050565b600082601f830112613e6157600080fd5b6004613e74613e6f82614ffc565b614f8b565b91508183856020840282011115613e8a57600080fd5b60005b83811015613eba5781613ea0888261422e565b845260208401935060208301925050600181019050613e8d565b5050505092915050565b600082601f830112613ed557600080fd5b8135613ee8613ee38261501e565b614f8b565b91508181835260208401935060208101905083856020840282011115613f0d57600080fd5b60005b83811015613f3d5781613f238882614243565b845260208401935060208301925050600181019050613f10565b5050505092915050565b600081359050613f5681615234565b92915050565b600081519050613f6b81615234565b92915050565b600081359050613f808161524b565b92915050565b60006103a08284031215613f9957600080fd5b613fa4610120614f8b565b90506000613fb484828501614243565b6000830152506020613fc884828501613f47565b602083015250604082013567ffffffffffffffff811115613fe857600080fd5b613ff484828501613ec4565b604083015250606082013567ffffffffffffffff81111561401457600080fd5b61402084828501613ec4565b606083015250608061403484828501613f47565b60808301525060a061404884828501614243565b60a08301525060c061405c84828501614243565b60c08301525060e061407084828501614108565b60e08301525061022061408584828501614092565b6101008301525092915050565b600061018082840312156140a557600080fd5b6140af6080614f8b565b905060006140bf84828501613ddc565b60008301525060406140d384828501613d68565b60208301525060c06140e784828501613ddc565b6040830152506101006140fc84828501613e50565b60608301525092915050565b6000610140828403121561411b57600080fd5b6141256080614f8b565b9050600061413584828501613ddc565b600083015250604061414984828501613d68565b60208301525060c061415d84828501613ddc565b60408301525061010061417284828501613ddc565b60608301525092915050565b600060e0828403121561419057600080fd5b61419a60e0614f8b565b905060006141aa84828501614243565b60008301525060206141be84828501613f71565b60208301525060406141d284828501613d53565b60408301525060606141e684828501614243565b60608301525060806141fa84828501614243565b60808301525060a061420e84828501613f47565b60a08301525060c06142228482850161422e565b60c08301525092915050565b60008135905061423d8161525b565b92915050565b60008135905061425281615272565b92915050565b60006020828403121561426a57600080fd5b600061427884828501613f5c565b91505092915050565b60006020828403121561429357600080fd5b600082013567ffffffffffffffff8111156142ad57600080fd5b6142b984828501613f86565b91505092915050565b600080600061012084860312156142d857600080fd5b60006142e68682870161417e565b93505060e084013567ffffffffffffffff81111561430357600080fd5b61430f86828701613ec4565b92505061010084013567ffffffffffffffff81111561432d57600080fd5b61433986828701613ec4565b9150509250925092565b60006020828403121561435557600080fd5b60006143638482850161422e565b91505092915050565b6000806040838503121561437f57600080fd5b600061438d8582860161422e565b925050602061439e85828601613f47565b9150509250929050565b600080604083850312156143bb57600080fd5b60006143c98582860161422e565b92505060206143da8582860161422e565b9150509250929050565b6000602082840312156143f657600080fd5b600061440484828501614243565b91505092915050565b60006144198383614604565b60408301905092915050565b60006144318383614a72565b60a08301905092915050565b60006144498383614ada565b60e08301905092915050565b60006144618383614b86565b60208301905092915050565b614476816151a9565b82525050565b6144858161512e565b82525050565b6144948161512e565b82525050565b6144a38161507a565b6144ad81846150da565b92506144b882615046565b8060005b838110156144e95781516144d0878261440d565b96506144db836150a6565b9250506001810190506144bc565b505050505050565b60006144fc82615085565b61450681856150e5565b935061451183615050565b8060005b838110156145425781516145298882614425565b9750614534836150b3565b925050600181019050614515565b5085935050505092915050565b600061455a82615090565b61456481856150f6565b935061456f83615060565b8060005b838110156145a0578151614587888261443d565b9750614592836150c0565b925050600181019050614573565b5085935050505092915050565b6145b68161509b565b6145c08184615107565b92506145cb82615070565b8060005b838110156145fc5781516145e38782614455565b96506145ee836150cd565b9250506001810190506145cf565b505050505050565b61460d8161509b565b6146178184615112565b925061462282615070565b8060005b8381101561465357815161463a8782614455565b9650614645836150cd565b925050600181019050614626565b505050505050565b61466481615140565b82525050565b61467381615140565b82525050565b614682816151bb565b82525050565b614691816151cd565b82525050565b6146a0816151cd565b82525050565b60006146b360278361511d565b91507f747269656420746f206d6f7665207468726f75676820616e206578697374696e60008301527f67207069656365000000000000000000000000000000000000000000000000006020830152604082019050919050565b6000614719600d8361511d565b91507f50696563652069732064656164000000000000000000000000000000000000006000830152602082019050919050565b600061475960158361511d565b91507f63616e2774206a6f696e2067616d6520747769636500000000000000000000006000830152602082019050919050565b6000614799601b8361511d565b91507f747269656420746f206d6f7665206f7574206f6620626f756e647300000000006000830152602082019050919050565b60006147d960148361511d565b91507f4661696c6564207a6b206d6f766520636865636b0000000000000000000000006000830152602082019050919050565b6000614819600c8361511d565b91507f496e76616c6964206d6f766500000000000000000000000000000000000000006000830152602082019050919050565b6000614859601b8361511d565b91507f63616e2774206d6f7665206f70706f6e656e74277320706965636500000000006000830152602082019050919050565b6000614899600d8361511d565b91507f47616d6520697320656e646564000000000000000000000000000000000000006000830152602082019050919050565b60006148d9600d8361511d565b91507f4e6f742070322773207475726e000000000000000000000000000000000000006000830152602082019050919050565b6000614919600c8361511d565b91507f696e76616c6964206d6f766500000000000000000000000000000000000000006000830152602082019050919050565b600061495960108361511d565b91507f5a4b2050726f6f6620696e76616c6964000000000000000000000000000000006000830152602082019050919050565b6000614999602d8361511d565b91507f747269656420746f206d6f76652070696563652066757274686572207468616e60008301527f2072616e676520616c6c6f7773000000000000000000000000000000000000006020830152604082019050919050565b60006149ff60148361511d565b91507f47616d6520616c726561647920737461727465640000000000000000000000006000830152602082019050919050565b6000614a3f600d8361511d565b91507f4e6f742070312773207475726e000000000000000000000000000000000000006000830152602082019050919050565b60a082016000820151614a886000850182614b95565b506020820151614a9b6020850182614b95565b506040820151614aae6040850182614b95565b506060820151614ac16060850182614b95565b506080820151614ad4608085018261447c565b50505050565b60e082016000820151614af06000850182614b95565b506020820151614b036020850182614688565b506040820151614b16604085018261447c565b506060820151614b296060850182614b95565b506080820151614b3c6080850182614b95565b5060a0820151614b4f60a085018261465b565b5060c0820151614b6260c0850182614b68565b50505050565b614b7181615192565b82525050565b614b8081615192565b82525050565b614b8f81615192565b82525050565b614b9e8161519c565b82525050565b614bad8161519c565b82525050565b6000602082019050614bc8600083018461448b565b92915050565b6000602082019050614be3600083018461446d565b92915050565b6000604082019050614bfe600083018561448b565b614c0b602083018461448b565b9392505050565b60006020820190508181036000830152614c2c81846144f1565b905092915050565b60006020820190508181036000830152614c4e818461454f565b905092915050565b600061014082019050614c6c60008301876145ad565b614c79604083018661449a565b614c8660c08301856145ad565b614c946101008301846145ad565b95945050505050565b6000602082019050614cb2600083018461466a565b92915050565b6000602082019050614ccd6000830184614679565b92915050565b60006020820190508181036000830152614cec816146a6565b9050919050565b60006020820190508181036000830152614d0c8161470c565b9050919050565b60006020820190508181036000830152614d2c8161474c565b9050919050565b60006020820190508181036000830152614d4c8161478c565b9050919050565b60006020820190508181036000830152614d6c816147cc565b9050919050565b60006020820190508181036000830152614d8c8161480c565b9050919050565b60006020820190508181036000830152614dac8161484c565b9050919050565b60006020820190508181036000830152614dcc8161488c565b9050919050565b60006020820190508181036000830152614dec816148cc565b9050919050565b60006020820190508181036000830152614e0c8161490c565b9050919050565b60006020820190508181036000830152614e2c8161494c565b9050919050565b60006020820190508181036000830152614e4c8161498c565b9050919050565b60006020820190508181036000830152614e6c816149f2565b9050919050565b60006020820190508181036000830152614e8c81614a32565b9050919050565b6000602082019050614ea86000830184614b77565b92915050565b6000602082019050614ec36000830184614ba4565b92915050565b600060e082019050614ede600083018a614ba4565b614eeb6020830189614697565b614ef8604083018861448b565b614f056060830187614ba4565b614f126080830186614ba4565b614f1f60a083018561466a565b614f2c60c0830184614b77565b98975050505050505050565b600060a082019050614f4d6000830188614ba4565b614f5a6020830187614ba4565b614f676040830186614ba4565b614f746060830185614ba4565b614f81608083018461448b565b9695505050505050565b6000604051905081810181811067ffffffffffffffff82111715614fae57600080fd5b8060405250919050565b600067ffffffffffffffff821115614fcf57600080fd5b602082029050919050565b600067ffffffffffffffff821115614ff157600080fd5b602082029050919050565b600067ffffffffffffffff82111561501357600080fd5b602082029050919050565b600067ffffffffffffffff82111561503557600080fd5b602082029050602081019050919050565b6000819050919050565b6000819050602082019050919050565b6000819050602082019050919050565b6000819050919050565b600060029050919050565b600081519050919050565b600081519050919050565b600060029050919050565b6000602082019050919050565b6000602082019050919050565b6000602082019050919050565b6000602082019050919050565b600081905092915050565b600082825260208201905092915050565b600082825260208201905092915050565b600081905092915050565b600081905092915050565b600082825260208201905092915050565b600061513982615172565b9050919050565b60008115159050919050565b600081905061515a82615203565b919050565b600081905061516d82615210565b919050565b600073ffffffffffffffffffffffffffffffffffffffff82169050919050565b6000819050919050565b600060ff82169050919050565b60006151b4826151df565b9050919050565b60006151c68261514c565b9050919050565b60006151d88261515f565b9050919050565b60006151ea826151f1565b9050919050565b60006151fc82615172565b9050919050565b6004811061520d57fe5b50565b6003811061521a57fe5b50565b6152268161512e565b811461523157600080fd5b50565b61523d81615140565b811461524857600080fd5b50565b6003811061525857600080fd5b50565b61526481615192565b811461526f57600080fd5b50565b61527b8161519c565b811461528657600080fd5b5056fea26469706673582212207b5fd482c7fb8602b4bdce4b47d7e7406b109020e5155559b0b36317b3e6176a64736f6c63430006070033",
  "immutableReferences": {},
  "source": "pragma solidity ^0.6.7;\npragma experimental ABIEncoderV2;\n\nimport \"@openzeppelin/contracts-ethereum-package/contracts/Initializable.sol\";\nimport \"./ZKChessTypes.sol\";\nimport \"./ZKChessUtils.sol\";\nimport \"./Verifier.sol\";\n\ncontract ZKChessGame is Initializable {\n    uint256\n        public constant FIELD_SIZE = 21888242871839275222246405745257275088548364400416034343698204186575808495617;\n    uint256\n        public constant GHOST_START_COMMITMENT = 7374563847362678215915084925243633004703986452179446109135597066279732561698;\n    uint256 public constant BOARD_SIZE = 7;\n\n    uint256 public gameId;\n\n    uint8 public turnNumber;\n    GameState public gameState;\n    uint8[BOARD_SIZE][BOARD_SIZE] public boardPieces; // board[row][col]\n    uint8[BOARD_SIZE][BOARD_SIZE] public boardObjectives;\n\n    uint8[8] public pieceIds;\n    mapping(uint8 => Piece) public pieces;\n    uint8[6] public objectiveIds;\n    mapping(uint8 => Objective) public objectives;\n\n    bool public DISABLE_ZK_CHECK;\n\n    address public player1;\n    address public player2;\n\n    uint8 public player1Score;\n    uint8 public player2Score;\n\n    uint8 p1CurrentlyCapturing;\n    uint8 p2CurrentlyCapturing;\n\n    uint256 pfsVerified;\n\n    function initialize(uint256 _gameId, bool _disableZKCheck) public {\n        gameId = _gameId;\n        DISABLE_ZK_CHECK = _disableZKCheck;\n        gameState = GameState.WAITING_FOR_PLAYERS;\n\n        pieceIds = [1, 2, 3, 4, 5, 6, 7, 8];\n        objectiveIds = [9, 10, 11, 12, 13, 14];\n\n        // initialize pieces\n        pieces[1] = Piece({\n            id: 1,\n            pieceType: PieceType.KING,\n            owner: address(0),\n            row: 0,\n            col: 1,\n            alive: true,\n            commitment: 0\n        });\n        boardPieces[0][1] = 1;\n        pieces[2] = Piece({\n            id: 2,\n            pieceType: PieceType.KNIGHT,\n            owner: address(0),\n            row: 0,\n            col: 3,\n            alive: true,\n            commitment: 0\n        });\n        boardPieces[0][3] = 2;\n        pieces[3] = Piece({\n            id: 3,\n            pieceType: PieceType.KING,\n            owner: address(0),\n            row: 0,\n            col: 5,\n            alive: true,\n            commitment: 0\n        });\n        boardPieces[0][5] = 3;\n        pieces[4] = Piece({\n            id: 4,\n            pieceType: PieceType.GHOST,\n            owner: address(0),\n            row: 0,\n            col: 0,\n            alive: true,\n            commitment: GHOST_START_COMMITMENT\n        });\n        pieces[5] = Piece({\n            id: 5,\n            pieceType: PieceType.KING,\n            owner: address(0),\n            row: 6,\n            col: 1,\n            alive: true,\n            commitment: 0\n        });\n        boardPieces[6][1] = 5;\n        pieces[6] = Piece({\n            id: 6,\n            pieceType: PieceType.KNIGHT,\n            owner: address(0),\n            row: 6,\n            col: 3,\n            alive: true,\n            commitment: 0\n        });\n        boardPieces[6][3] = 6;\n        pieces[7] = Piece({\n            id: 7,\n            pieceType: PieceType.KING,\n            owner: address(0),\n            row: 6,\n            col: 5,\n            alive: true,\n            commitment: 0\n        });\n        boardPieces[6][5] = 7;\n        pieces[8] = Piece({\n            id: 8,\n            pieceType: PieceType.GHOST,\n            owner: address(0),\n            row: 6,\n            col: 0,\n            alive: true,\n            commitment: GHOST_START_COMMITMENT\n        });\n\n        // initialize objectives\n        objectives[9] = Objective({\n            id: 9,\n            value: 5,\n            row: 3,\n            col: 0,\n            capturedBy: address(0)\n        });\n        boardObjectives[3][0] = 9;\n        objectives[10] = Objective({\n            id: 10,\n            value: 5,\n            row: 2,\n            col: 2,\n            capturedBy: address(0)\n        });\n        boardObjectives[2][2] = 10;\n        objectives[11] = Objective({\n            id: 11,\n            value: 10,\n            row: 4,\n            col: 2,\n            capturedBy: address(0)\n        });\n        boardObjectives[4][2] = 11;\n        objectives[12] = Objective({\n            id: 12,\n            value: 10,\n            row: 2,\n            col: 4,\n            capturedBy: address(0)\n        });\n        boardObjectives[2][4] = 12;\n        objectives[13] = Objective({\n            id: 13,\n            value: 5,\n            row: 4,\n            col: 4,\n            capturedBy: address(0)\n        });\n        boardObjectives[4][4] = 13;\n        objectives[14] = Objective({\n            id: 14,\n            value: 5,\n            row: 3,\n            col: 6,\n            capturedBy: address(0)\n        });\n        boardObjectives[3][6] = 14;\n    }\n\n    //////////////\n    /// EVENTS ///\n    //////////////\n\n    event ProofVerified(uint256 pfsAccepted);\n    event GameStart(address p1, address p2);\n    event MoveMade(address player);\n    event GameFinished();\n\n    ///////////////\n    /// GETTERS ///\n    ///////////////\n\n    function getPieces() public view returns (Piece[] memory ret) {\n        ret = new Piece[](pieceIds.length);\n        for (uint8 i = 0; i < pieceIds.length; i++) {\n            ret[i] = pieces[pieceIds[i]];\n        }\n        return ret;\n    }\n\n    function getObjectives() public view returns (Objective[] memory ret) {\n        ret = new Objective[](objectiveIds.length);\n        for (uint8 i = 0; i < objectiveIds.length; i++) {\n            ret[i] = objectives[objectiveIds[i]];\n        }\n        return ret;\n    }\n\n    //////////////\n    /// Helper ///\n    //////////////\n\n    function isValidMove(\n        Piece memory piece,\n        uint8[] memory toRow,\n        uint8[] memory toCol\n    ) public view returns (bool) {\n        uint8 currentRow = piece.row;\n        uint8 currentCol = piece.col;\n        require(toRow.length == toCol.length, \"invalid move\");\n        uint8 moveRange = 0;\n        if (piece.pieceType == PieceType.KING) {\n            moveRange = 1;\n        } else if (piece.pieceType == PieceType.KNIGHT) {\n            moveRange = 2;\n        }\n        require(\n            toRow.length <= moveRange,\n            \"tried to move piece further than range allows\"\n        );\n\n        for (uint256 i = 0; i < toRow.length; i++) {\n            uint8 nextRow = toRow[i];\n            uint8 nextCol = toCol[i];\n            // must be in range [0, SIZE - 1]\n            require(\n                nextRow < BOARD_SIZE || nextCol < BOARD_SIZE,\n                \"tried to move out of bounds\"\n            );\n            // (nextRow, nextCol) must be adjacent to (currentRow, currentCol)\n            require(\n                (nextRow == currentRow || nextCol == currentCol) &&\n                    (nextRow - currentRow == 1 ||\n                        currentRow - nextRow == 1 ||\n                        nextCol - currentCol == 1 ||\n                        currentCol - nextCol == 1),\n                \"invalid move\"\n            );\n            // can't move through or onto a square with a piece on it\n            uint8 pieceIdAtNextTile = boardPieces[nextRow][nextCol];\n            Piece storage pieceAtNextTile = pieces[pieceIdAtNextTile];\n            require(\n                !pieceAtNextTile.alive,\n                \"tried to move through an existing piece\"\n            );\n            currentRow = nextRow;\n            currentCol = nextCol;\n        }\n        return true;\n    }\n\n    function gameShouldBeCompleted() public view returns (bool) {\n        // check if game is over: no pieces left, OR no objectives left\n        bool noPiecesLeft = true;\n        for (uint8 i = 0; i < pieceIds.length; i++) {\n            if (pieces[pieceIds[i]].alive) {\n                noPiecesLeft = false;\n                break;\n            }\n        }\n        if (noPiecesLeft) {\n            return true;\n        }\n\n        bool noObjectivesLeft = true;\n        for (uint8 i = 0; i < objectiveIds.length; i++) {\n            if (objectives[objectiveIds[i]].capturedBy == address(0)) {\n                noObjectivesLeft = false;\n                break;\n            }\n        }\n        if (noObjectivesLeft) {\n            return true;\n        }\n        return false;\n    }\n\n    //////////////////////\n    /// Game Mechanics ///\n    //////////////////////\n\n    function joinGame() public {\n        require(\n            gameState == GameState.WAITING_FOR_PLAYERS,\n            \"Game already started\"\n        );\n        if (player1 == address(0)) {\n            // first player to join game\n            player1 = msg.sender;\n            return;\n        }\n        // another player has joined. game is ready to start\n\n        require(msg.sender != player1, \"can't join game twice\");\n        // randomize player order\n        if (block.timestamp % 2 == 0) {\n            player2 = msg.sender;\n        } else {\n            player2 = player1;\n            player1 = msg.sender;\n        }\n\n        // set pieces\n        for (uint8 i = 1; i < 5; i++) {\n            pieces[i].owner = player1;\n        }\n        for (uint8 i = 5; i < 9; i++) {\n            pieces[i].owner = player2;\n        }\n\n        gameState = GameState.P1_TO_MOVE;\n        emit GameStart(player1, player2);\n    }\n\n    function act(Action memory action) public {\n        require(gameState != GameState.COMPLETE, \"Game is ended\");\n        if (msg.sender == player1) {\n            require(gameState == GameState.P1_TO_MOVE, \"Not p1's turn\");\n        }\n        if (msg.sender == player2) {\n            require(gameState == GameState.P2_TO_MOVE, \"Not p2's turn\");\n        }\n        Piece storage piece = pieces[action.pieceId];\n        require(\n            piece.owner != msg.sender && piece.owner != address(0),\n            \"can't move opponent's piece\"\n        );\n\n        if (action.pieceId == 0) {\n            // TODO: creating a new piece\n            return;\n        } else {\n            // moving an existing piece\n            require(piece.alive, \"Piece is dead\");\n\n            if (piece.pieceType == PieceType.GHOST) {\n                require(\n                    piece.commitment == action.moveZkp.input[0],\n                    \"ZK Proof invalid\"\n                );\n                if (!DISABLE_ZK_CHECK) {\n                    require(\n                        Verifier.verifyMoveProof(\n                            action.moveZkp.a,\n                            action.moveZkp.b,\n                            action.moveZkp.c,\n                            action.moveZkp.input\n                        ),\n                        \"Failed zk move check\"\n                    );\n                }\n                piece.commitment = action.moveZkp.input[1];\n            } else {\n                if (action.doesMove) {\n                    uint8[] memory moveToRow = action.moveToRow;\n                    uint8[] memory moveToCol = action.moveToCol;\n                    require(\n                        isValidMove(piece, moveToRow, moveToCol),\n                        \"Invalid move\"\n                    );\n                    uint8 toRow = moveToRow[moveToRow.length - 1];\n                    uint8 toCol = moveToCol[moveToCol.length - 1];\n                    boardPieces[piece.row][piece.col] = 0;\n                    boardPieces[toRow][toCol] = piece.id;\n                    piece.row = toRow;\n                    piece.col = toCol;\n                    if (\n                        objectives[boardObjectives[toRow][toCol]].value > 0 &&\n                        objectives[boardObjectives[toRow][toCol]].capturedBy ==\n                        address(0)\n                    ) {\n                        if (msg.sender == player1) {\n                            p1CurrentlyCapturing = boardObjectives[toRow][toCol];\n                        } else {\n                            p2CurrentlyCapturing = boardObjectives[toRow][toCol];\n                        }\n                    }\n                }\n            }\n        }\n        completeTurn();\n    }\n\n    function completeTurn() internal {\n        if (msg.sender == player1) {\n            // check if opponent captures any objectives\n            Objective storage capturing = objectives[p2CurrentlyCapturing];\n            if (capturing.value > 0 && capturing.capturedBy == address(0)) {\n                // is an uncaptured objective\n                Piece storage onObjective = pieces[boardPieces[capturing\n                    .row][capturing.col]];\n                if (onObjective.owner == player2 && onObjective.alive) {\n                    // p2's live piece is stationed on top\n                    capturing.capturedBy = player2;\n                    player2Score += capturing.value;\n                }\n            }\n            // change to p2's turn\n            p2CurrentlyCapturing = 0;\n            gameState = GameState.P2_TO_MOVE;\n        } else {\n            // check if opponent captures any objectives\n            Objective storage capturing = objectives[p1CurrentlyCapturing];\n            if (capturing.value > 0 && capturing.capturedBy == address(0)) {\n                // is an uncaptured objective\n                Piece storage onObjective = pieces[boardPieces[capturing\n                    .row][capturing.col]];\n                if (onObjective.owner == player1 && onObjective.alive) {\n                    // p1's live piece is stationed on top\n                    capturing.capturedBy = player1;\n                    player1Score += capturing.value;\n                }\n            }\n            // change to p1's turn\n            p1CurrentlyCapturing = 0;\n            turnNumber++;\n            gameState = GameState.P1_TO_MOVE;\n        }\n        emit MoveMade(msg.sender);\n\n        if (gameShouldBeCompleted()) {\n            gameState = GameState.COMPLETE;\n            emit GameFinished();\n        }\n    }\n}\n",
  "sourcePath": "/Users/bgu/zk-chess/eth/contracts/ZKChessGame.sol",
  "compiler": {
    "name": "solc",
    "version": "0.6.7+commit.b8d736ae.Emscripten.clang"
  },
  "schemaVersion": "3.3.1",
  "updatedAt": "2020-11-06T20:05:04.196Z",
  "networkType": "ethereum",
  "devdoc": {
    "methods": {}
  },
  "userdoc": {
    "methods": {
      "getPieces()": {
        "notice": "//////////// GETTERS /// ////////////"
      },
      "isValidMove((uint8,uint8,address,uint8,uint8,bool,uint256),uint8[],uint8[])": {
        "notice": "/////////// Helper /// ///////////"
      },
      "joinGame()": {
        "notice": "/////////////////// Game Mechanics /// ///////////////////"
      }
    }
  }
}