{
  "contractName": "ZKChessGame",
  "abi": [
    {
      "anonymous": false,
      "inputs": [
        {
          "indexed": false,
          "internalType": "address",
          "name": "player",
          "type": "address"
        }
      ],
      "name": "ActionMade",
      "type": "event"
    },
    {
      "anonymous": false,
      "inputs": [],
      "name": "GameFinished",
      "type": "event"
    },
    {
      "anonymous": false,
      "inputs": [
        {
          "indexed": false,
          "internalType": "address",
          "name": "p1",
          "type": "address"
        },
        {
          "indexed": false,
          "internalType": "address",
          "name": "p2",
          "type": "address"
        }
      ],
      "name": "GameStart",
      "type": "event"
    },
    {
      "anonymous": false,
      "inputs": [
        {
          "indexed": false,
          "internalType": "uint256",
          "name": "pfsAccepted",
          "type": "uint256"
        }
      ],
      "name": "ProofVerified",
      "type": "event"
    },
    {
      "inputs": [],
      "name": "BOARD_SIZE",
      "outputs": [
        {
          "internalType": "uint256",
          "name": "",
          "type": "uint256"
        }
      ],
      "stateMutability": "view",
      "type": "function",
      "constant": true
    },
    {
      "inputs": [],
      "name": "DISABLE_ZK_CHECK",
      "outputs": [
        {
          "internalType": "bool",
          "name": "",
          "type": "bool"
        }
      ],
      "stateMutability": "view",
      "type": "function",
      "constant": true
    },
    {
      "inputs": [],
      "name": "FIELD_SIZE",
      "outputs": [
        {
          "internalType": "uint256",
          "name": "",
          "type": "uint256"
        }
      ],
      "stateMutability": "view",
      "type": "function",
      "constant": true
    },
    {
      "inputs": [],
      "name": "GHOST_START_COMMITMENT",
      "outputs": [
        {
          "internalType": "uint256",
          "name": "",
          "type": "uint256"
        }
      ],
      "stateMutability": "view",
      "type": "function",
      "constant": true
    },
    {
      "inputs": [
        {
          "internalType": "uint256",
          "name": "",
          "type": "uint256"
        },
        {
          "internalType": "uint256",
          "name": "",
          "type": "uint256"
        }
      ],
      "name": "boardPieces",
      "outputs": [
        {
          "internalType": "uint8",
          "name": "",
          "type": "uint8"
        }
      ],
      "stateMutability": "view",
      "type": "function",
      "constant": true
    },
    {
      "inputs": [
        {
          "internalType": "enum PieceType",
          "name": "",
          "type": "uint8"
        }
      ],
      "name": "defaultStats",
      "outputs": [
        {
          "internalType": "enum PieceType",
          "name": "pieceType",
          "type": "uint8"
        },
        {
          "internalType": "uint8",
          "name": "mvRange",
          "type": "uint8"
        },
        {
          "internalType": "uint8",
          "name": "atkRange",
          "type": "uint8"
        },
        {
          "internalType": "uint8",
          "name": "hp",
          "type": "uint8"
        },
        {
          "internalType": "uint8",
          "name": "atk",
          "type": "uint8"
        },
        {
          "internalType": "uint8",
          "name": "cost",
          "type": "uint8"
        },
        {
          "internalType": "bool",
          "name": "isZk",
          "type": "bool"
        }
      ],
      "stateMutability": "view",
      "type": "function",
      "constant": true
    },
    {
      "inputs": [],
      "name": "gameId",
      "outputs": [
        {
          "internalType": "uint256",
          "name": "",
          "type": "uint256"
        }
      ],
      "stateMutability": "view",
      "type": "function",
      "constant": true
    },
    {
      "inputs": [],
      "name": "gameState",
      "outputs": [
        {
          "internalType": "enum GameState",
          "name": "",
          "type": "uint8"
        }
      ],
      "stateMutability": "view",
      "type": "function",
      "constant": true
    },
    {
      "inputs": [
        {
          "internalType": "uint8",
          "name": "",
          "type": "uint8"
        },
        {
          "internalType": "uint8",
          "name": "",
          "type": "uint8"
        }
      ],
      "name": "hasAttacked",
      "outputs": [
        {
          "internalType": "bool",
          "name": "",
          "type": "bool"
        }
      ],
      "stateMutability": "view",
      "type": "function",
      "constant": true
    },
    {
      "inputs": [
        {
          "internalType": "uint8",
          "name": "",
          "type": "uint8"
        },
        {
          "internalType": "uint8",
          "name": "",
          "type": "uint8"
        }
      ],
      "name": "hasMoved",
      "outputs": [
        {
          "internalType": "bool",
          "name": "",
          "type": "bool"
        }
      ],
      "stateMutability": "view",
      "type": "function",
      "constant": true
    },
    {
      "inputs": [
        {
          "internalType": "uint256",
          "name": "",
          "type": "uint256"
        }
      ],
      "name": "pieceIds",
      "outputs": [
        {
          "internalType": "uint8",
          "name": "",
          "type": "uint8"
        }
      ],
      "stateMutability": "view",
      "type": "function",
      "constant": true
    },
    {
      "inputs": [
        {
          "internalType": "uint8",
          "name": "",
          "type": "uint8"
        }
      ],
      "name": "pieces",
      "outputs": [
        {
          "internalType": "uint8",
          "name": "id",
          "type": "uint8"
        },
        {
          "internalType": "enum PieceType",
          "name": "pieceType",
          "type": "uint8"
        },
        {
          "internalType": "address",
          "name": "owner",
          "type": "address"
        },
        {
          "internalType": "uint8",
          "name": "row",
          "type": "uint8"
        },
        {
          "internalType": "uint8",
          "name": "col",
          "type": "uint8"
        },
        {
          "internalType": "bool",
          "name": "alive",
          "type": "bool"
        },
        {
          "internalType": "bool",
          "name": "initialized",
          "type": "bool"
        },
        {
          "internalType": "uint8",
          "name": "hp",
          "type": "uint8"
        },
        {
          "internalType": "uint8",
          "name": "initializedOnTurn",
          "type": "uint8"
        },
        {
          "internalType": "uint256",
          "name": "commitment",
          "type": "uint256"
        }
      ],
      "stateMutability": "view",
      "type": "function",
      "constant": true
    },
    {
      "inputs": [],
      "name": "player1",
      "outputs": [
        {
          "internalType": "address",
          "name": "",
          "type": "address"
        }
      ],
      "stateMutability": "view",
      "type": "function",
      "constant": true
    },
    {
      "inputs": [],
      "name": "player1Mana",
      "outputs": [
        {
          "internalType": "uint8",
          "name": "",
          "type": "uint8"
        }
      ],
      "stateMutability": "view",
      "type": "function",
      "constant": true
    },
    {
      "inputs": [],
      "name": "player2",
      "outputs": [
        {
          "internalType": "address",
          "name": "",
          "type": "address"
        }
      ],
      "stateMutability": "view",
      "type": "function",
      "constant": true
    },
    {
      "inputs": [],
      "name": "player2Mana",
      "outputs": [
        {
          "internalType": "uint8",
          "name": "",
          "type": "uint8"
        }
      ],
      "stateMutability": "view",
      "type": "function",
      "constant": true
    },
    {
      "inputs": [],
      "name": "turnNumber",
      "outputs": [
        {
          "internalType": "uint8",
          "name": "",
          "type": "uint8"
        }
      ],
      "stateMutability": "view",
      "type": "function",
      "constant": true
    },
    {
      "inputs": [
        {
          "internalType": "uint256",
          "name": "_gameId",
          "type": "uint256"
        },
        {
          "internalType": "bool",
          "name": "_disableZKCheck",
          "type": "bool"
        }
      ],
      "name": "initialize",
      "outputs": [],
      "stateMutability": "nonpayable",
      "type": "function"
    },
    {
      "inputs": [],
      "name": "getPieces",
      "outputs": [
        {
          "components": [
            {
              "internalType": "uint8",
              "name": "id",
              "type": "uint8"
            },
            {
              "internalType": "enum PieceType",
              "name": "pieceType",
              "type": "uint8"
            },
            {
              "internalType": "address",
              "name": "owner",
              "type": "address"
            },
            {
              "internalType": "uint8",
              "name": "row",
              "type": "uint8"
            },
            {
              "internalType": "uint8",
              "name": "col",
              "type": "uint8"
            },
            {
              "internalType": "bool",
              "name": "alive",
              "type": "bool"
            },
            {
              "internalType": "bool",
              "name": "initialized",
              "type": "bool"
            },
            {
              "internalType": "uint8",
              "name": "hp",
              "type": "uint8"
            },
            {
              "internalType": "uint8",
              "name": "initializedOnTurn",
              "type": "uint8"
            },
            {
              "internalType": "uint256",
              "name": "commitment",
              "type": "uint256"
            }
          ],
          "internalType": "struct Piece[]",
          "name": "ret",
          "type": "tuple[]"
        }
      ],
      "stateMutability": "view",
      "type": "function",
      "constant": true
    },
    {
      "inputs": [],
      "name": "getDefaults",
      "outputs": [
        {
          "components": [
            {
              "internalType": "enum PieceType",
              "name": "pieceType",
              "type": "uint8"
            },
            {
              "internalType": "uint8",
              "name": "mvRange",
              "type": "uint8"
            },
            {
              "internalType": "uint8",
              "name": "atkRange",
              "type": "uint8"
            },
            {
              "internalType": "uint8",
              "name": "hp",
              "type": "uint8"
            },
            {
              "internalType": "uint8",
              "name": "atk",
              "type": "uint8"
            },
            {
              "internalType": "uint8",
              "name": "cost",
              "type": "uint8"
            },
            {
              "internalType": "bool",
              "name": "isZk",
              "type": "bool"
            }
          ],
          "internalType": "struct PieceDefaultStats[]",
          "name": "ret",
          "type": "tuple[]"
        }
      ],
      "stateMutability": "view",
      "type": "function",
      "constant": true
    },
    {
      "inputs": [],
      "name": "gameShouldBeCompleted",
      "outputs": [
        {
          "internalType": "bool",
          "name": "",
          "type": "bool"
        }
      ],
      "stateMutability": "view",
      "type": "function",
      "constant": true
    },
    {
      "inputs": [],
      "name": "joinGame",
      "outputs": [],
      "stateMutability": "nonpayable",
      "type": "function"
    },
    {
      "inputs": [
        {
          "components": [
            {
              "internalType": "uint8",
              "name": "turnNumber",
              "type": "uint8"
            },
            {
              "internalType": "uint8",
              "name": "pieceId",
              "type": "uint8"
            },
            {
              "internalType": "enum PieceType",
              "name": "pieceType",
              "type": "uint8"
            },
            {
              "internalType": "uint8",
              "name": "row",
              "type": "uint8"
            },
            {
              "internalType": "uint8",
              "name": "col",
              "type": "uint8"
            },
            {
              "components": [
                {
                  "internalType": "uint256[2]",
                  "name": "a",
                  "type": "uint256[2]"
                },
                {
                  "internalType": "uint256[2][2]",
                  "name": "b",
                  "type": "uint256[2][2]"
                },
                {
                  "internalType": "uint256[2]",
                  "name": "c",
                  "type": "uint256[2]"
                },
                {
                  "internalType": "uint256[5]",
                  "name": "input",
                  "type": "uint256[5]"
                }
              ],
              "internalType": "struct SummonZKP",
              "name": "zkp",
              "type": "tuple"
            }
          ],
          "internalType": "struct Summon",
          "name": "summon",
          "type": "tuple"
        }
      ],
      "name": "doSummon",
      "outputs": [],
      "stateMutability": "nonpayable",
      "type": "function"
    },
    {
      "inputs": [
        {
          "components": [
            {
              "internalType": "uint8",
              "name": "turnNumber",
              "type": "uint8"
            },
            {
              "internalType": "uint8",
              "name": "pieceId",
              "type": "uint8"
            },
            {
              "internalType": "uint8[]",
              "name": "moveToRow",
              "type": "uint8[]"
            },
            {
              "internalType": "uint8[]",
              "name": "moveToCol",
              "type": "uint8[]"
            },
            {
              "components": [
                {
                  "internalType": "uint256[2]",
                  "name": "a",
                  "type": "uint256[2]"
                },
                {
                  "internalType": "uint256[2][2]",
                  "name": "b",
                  "type": "uint256[2][2]"
                },
                {
                  "internalType": "uint256[2]",
                  "name": "c",
                  "type": "uint256[2]"
                },
                {
                  "internalType": "uint256[4]",
                  "name": "input",
                  "type": "uint256[4]"
                }
              ],
              "internalType": "struct MoveZKP",
              "name": "zkp",
              "type": "tuple"
            }
          ],
          "internalType": "struct Move",
          "name": "move",
          "type": "tuple"
        }
      ],
      "name": "doMove",
      "outputs": [],
      "stateMutability": "nonpayable",
      "type": "function"
    },
    {
      "inputs": [
        {
          "internalType": "uint8",
          "name": "_turnNumber",
          "type": "uint8"
        }
      ],
      "name": "endTurn",
      "outputs": [],
      "stateMutability": "nonpayable",
      "type": "function"
    }
  ],
  "bytecode": "0x608060405234801561001057600080fd5b506157a080620000216000396000f3fe608060405234801561001057600080fd5b50600436106101735760003560e01c80637267a359116100de578063cfecc6de11610097578063d4f77b1c11610071578063d4f77b1c1461044f578063d7c81b5514610459578063dc4a3e9514610477578063df54a9281461049557610173565b8063cfecc6de146103e3578063d1f9c24d14610413578063d30895e41461043157610173565b80637267a3591461031d57806381cb97ca1461033b5780638af9d5621461036b578063acbc1a9114610389578063b172ed4d146103a7578063cf615f6c146103c557610173565b8063430632ea11610130578063430632ea1461025557806351df541c1461028b57806352fa0917146102a95780635595b5d5146102c55780635700401e146102e157806359a5f12d146102ff57610173565b806311628abc1461017857806327964666146101965780632c1025cd146101b25780632c784f32146101ce5780633fb7388e14610207578063414a37ba14610237575b600080fd5b6101806104c5565b60405161018d9190615350565b60405180910390f35b6101b060048036038101906101ab9190614057565b6104d8565b005b6101cc60048036038101906101c79190613fc3565b610ae2565b005b6101e860048036038101906101e391906140cf565b61139c565b6040516101fe9a9998979695949392919061536b565b60405180910390f35b610221600480360381019061021c9190614093565b611478565b60405161022e9190615350565b60405180910390f35b61023f6114ae565b60405161024c9190615335565b60405180910390f35b61026f600480360381019061026a9190613f9a565b6114d2565b6040516102829796959493929190614f46565b60405180910390f35b61029361156f565b6040516102a09190614f10565b60405180910390f35b6102c360048036038101906102be9190614004565b611735565b005b6102df60048036038101906102da91906140cf565b61224c565b005b6102e96124bf565b6040516102f69190615350565b60405180910390f35b6103076124d2565b6040516103149190614ddf565b60405180910390f35b6103256124f8565b6040516103329190615350565b60405180910390f35b610355600480360381019061035091906140f8565b61250b565b6040516103629190614f10565b60405180910390f35b61037361253a565b6040516103809190614f10565b60405180910390f35b61039161254d565b60405161039e9190615335565b60405180910390f35b6103af612571565b6040516103bc9190614e3e565b60405180910390f35b6103cd612723565b6040516103da9190614e60565b60405180910390f35b6103fd60048036038101906103f8919061402e565b61296a565b60405161040a9190615350565b60405180910390f35b61041b61299b565b6040516104289190614f2b565b60405180910390f35b6104396129ae565b6040516104469190614ddf565b60405180910390f35b6104576129d4565b005b610461613306565b60405161046e9190615335565b60405180910390f35b61047f61330c565b60405161048c9190615335565b60405180910390f35b6104af60048036038101906104aa91906140f8565b613311565b6040516104bc9190614f10565b60405180910390f35b604060159054906101000a900460ff1681565b8160338190555080603f60006101000a81548160ff0219169083151502179055506000603460016101000a81548160ff0219169083600381111561051857fe5b02179055506040518060e001604052806000600381111561053557fe5b8152602001600260ff168152602001600160ff168152602001600360ff168152602001600260ff168152602001600160ff16815260200160001515815250603e600080600381111561058357fe5b600381111561058e57fe5b815260200190815260200160002060008201518160000160006101000a81548160ff021916908360038111156105c057fe5b021790555060208201518160000160016101000a81548160ff021916908360ff16021790555060408201518160000160026101000a81548160ff021916908360ff16021790555060608201518160000160036101000a81548160ff021916908360ff16021790555060808201518160000160046101000a81548160ff021916908360ff16021790555060a08201518160000160056101000a81548160ff021916908360ff16021790555060c08201518160000160066101000a81548160ff0219169083151502179055509050506040518060e00160405280600160038111156106a557fe5b8152602001600260ff168152602001600260ff168152602001600360ff168152602001600260ff168152602001600260ff16815260200160001515815250603e6000600160038111156106f457fe5b60038111156106ff57fe5b815260200190815260200160002060008201518160000160006101000a81548160ff0219169083600381111561073157fe5b021790555060208201518160000160016101000a81548160ff021916908360ff16021790555060408201518160000160026101000a81548160ff021916908360ff16021790555060608201518160000160036101000a81548160ff021916908360ff16021790555060808201518160000160046101000a81548160ff021916908360ff16021790555060a08201518160000160056101000a81548160ff021916908360ff16021790555060c08201518160000160066101000a81548160ff0219169083151502179055509050506040518060e001604052806002600381111561081657fe5b8152602001600160ff168152602001600160ff168152602001600360ff168152602001600160ff168152602001600360ff16815260200160011515815250603e60006002600381111561086557fe5b600381111561087057fe5b815260200190815260200160002060008201518160000160006101000a81548160ff021916908360038111156108a257fe5b021790555060208201518160000160016101000a81548160ff021916908360ff16021790555060408201518160000160026101000a81548160ff021916908360ff16021790555060608201518160000160036101000a81548160ff021916908360ff16021790555060808201518160000160046101000a81548160ff021916908360ff16021790555060a08201518160000160056101000a81548160ff021916908360ff16021790555060c08201518160000160066101000a81548160ff0219169083151502179055509050506040518060e0016040528060038081111561098657fe5b8152602001600060ff168152602001600260ff168152602001600a60ff168152602001600260ff168152602001606460ff16815260200160001515815250603e60006003808111156109d457fe5b60038111156109df57fe5b815260200190815260200160002060008201518160000160006101000a81548160ff02191690836003811115610a1157fe5b021790555060208201518160000160016101000a81548160ff021916908360ff16021790555060408201518160000160026101000a81548160ff021916908360ff16021790555060608201518160000160036101000a81548160ff021916908360ff16021790555060808201518160000160046101000a81548160ff021916908360ff16021790555060a08201518160000160056101000a81548160ff021916908360ff16021790555060c08201518160000160066101000a81548160ff0219169083151502179055509050505050565b610aef8160000151613340565b6000603d6000836020015160ff1660ff16815260200190815260200160002090503373ffffffffffffffffffffffffffffffffffffffff168160000160029054906101000a900473ffffffffffffffffffffffffffffffffffffffff1673ffffffffffffffffffffffffffffffffffffffff16148015610bc05750600073ffffffffffffffffffffffffffffffffffffffff168160000160029054906101000a900473ffffffffffffffffffffffffffffffffffffffff1673ffffffffffffffffffffffffffffffffffffffff1614155b610bff576040517f08c379a0000000000000000000000000000000000000000000000000000000008152600401610bf690615135565b60405180910390fd5b8060000160189054906101000a900460ff16610c50576040517f08c379a0000000000000000000000000000000000000000000000000000000008152600401610c4790615055565b60405180910390fd5b60416000836000015160ff1660ff16815260200190815260200160002060008260000160009054906101000a900460ff1660ff1660ff16815260200190815260200160002060009054906101000a900460ff1615610ce3576040517f08c379a0000000000000000000000000000000000000000000000000000000008152600401610cda90615155565b60405180910390fd5b60426000836000015160ff1660ff16815260200190815260200160002060008260000160009054906101000a900460ff1660ff1660ff16815260200190815260200160002060009054906101000a900460ff1615610d76576040517f08c379a0000000000000000000000000000000000000000000000000000000008152600401610d6d906150f5565b60405180910390fd5b603e60008260000160019054906101000a900460ff166003811115610d9757fe5b6003811115610da257fe5b815260200190815260200160002060000160069054906101000a900460ff161561101c57816080015160600151600060048110610ddb57fe5b6020020151816001015414610e25576040517f08c379a0000000000000000000000000000000000000000000000000000000008152600401610e1c90615255565b60405180910390fd5b6007826080015160600151600360048110610e3c57fe5b602002015114610e4b57600080fd5b603e60008260000160019054906101000a900460ff166003811115610e6c57fe5b6003811115610e7757fe5b815260200190815260200160002060000160019054906101000a900460ff1660ff16826080015160600151600260048110610eae57fe5b60200201511115610ef4576040517f08c379a0000000000000000000000000000000000000000000000000000000008152600401610eeb90615235565b60405180910390fd5b603f60009054906101000a900460ff16610ff55773__Verifier______________________________636f2aea8d8360800151600001518460800151602001518560800151604001518660800151606001516040518563ffffffff1660e01b8152600401610f659493929190614e82565b60206040518083038186803b158015610f7d57600080fd5b505af4158015610f91573d6000803e3d6000fd5b505050506040513d601f19601f82011682018060405250810190610fb59190613f71565b610ff4576040517f08c379a0000000000000000000000000000000000000000000000000000000008152600401610feb906150d5565b60405180910390fd5b5b81608001516060015160016004811061100a57fe5b60200201518160010181905550611303565b60608260400151905060608360600151905061119983604051806101400160405290816000820160009054906101000a900460ff1660ff1660ff1681526020016000820160019054906101000a900460ff16600381111561107957fe5b600381111561108457fe5b81526020016000820160029054906101000a900473ffffffffffffffffffffffffffffffffffffffff1673ffffffffffffffffffffffffffffffffffffffff1673ffffffffffffffffffffffffffffffffffffffff1681526020016000820160169054906101000a900460ff1660ff1660ff1681526020016000820160179054906101000a900460ff1660ff1660ff1681526020016000820160189054906101000a900460ff161515151581526020016000820160199054906101000a900460ff1615151515815260200160008201601a9054906101000a900460ff1660ff1660ff16815260200160008201601b9054906101000a900460ff1660ff1660ff1681526020016001820154815250508383613668565b6111d8576040517f08c379a00000000000000000000000000000000000000000000000000000000081526004016111cf90615115565b60405180910390fd5b6000826001845103815181106111ea57fe5b6020026020010151905060008260018451038151811061120657fe5b60200260200101519050600060358660000160169054906101000a900460ff1660ff166007811061123357fe5b018660000160179054906101000a900460ff1660ff166007811061125357fe5b602091828204019190066101000a81548160ff021916908360ff1602179055508460000160009054906101000a900460ff1660358360ff166007811061129557fe5b018260ff16600781106112a457fe5b602091828204019190066101000a81548160ff021916908360ff160217905550818560000160166101000a81548160ff021916908360ff160217905550808560000160176101000a81548160ff021916908360ff160217905550505050505b600160416000846000015160ff1660ff16815260200190815260200160002060008360000160009054906101000a900460ff1660ff1660ff16815260200190815260200160002060006101000a81548160ff0219169083151502179055507f95d8dea3d987d2163d15eb7c5db7cdff58efde46972835877952ee40cb7a16a0336040516113909190614dfa565b60405180910390a15050565b603d6020528060005260406000206000915090508060000160009054906101000a900460ff16908060000160019054906101000a900460ff16908060000160029054906101000a900473ffffffffffffffffffffffffffffffffffffffff16908060000160169054906101000a900460ff16908060000160179054906101000a900460ff16908060000160189054906101000a900460ff16908060000160199054906101000a900460ff169080600001601a9054906101000a900460ff169080600001601b9054906101000a900460ff1690806001015490508a565b6035826007811061148557fe5b01816007811061149157fe5b60209182820401919006915091509054906101000a900460ff1681565b7f30644e72e131a029b85045b68181585d2833e84879b9709143e1f593f000000181565b603e6020528060005260406000206000915090508060000160009054906101000a900460ff16908060000160019054906101000a900460ff16908060000160029054906101000a900460ff16908060000160039054906101000a900460ff16908060000160049054906101000a900460ff16908060000160059054906101000a900460ff16908060000160069054906101000a900460ff16905087565b60008060009050600080905060008090505b603c805490508160ff161015611722576000603d6000603c8460ff16815481106115a757fe5b90600052602060002090602091828204019190069054906101000a900460ff1660ff1660ff1681526020019081526020016000209050603f60019054906101000a900473ffffffffffffffffffffffffffffffffffffffff1673ffffffffffffffffffffffffffffffffffffffff168160000160029054906101000a900473ffffffffffffffffffffffffffffffffffffffff1673ffffffffffffffffffffffffffffffffffffffff1614801561166c57508060000160189054906101000a900460ff165b1561167a5760019350611714565b604060009054906101000a900473ffffffffffffffffffffffffffffffffffffffff1673ffffffffffffffffffffffffffffffffffffffff168160000160029054906101000a900473ffffffffffffffffffffffffffffffffffffffff1673ffffffffffffffffffffffffffffffffffffffff1614801561170957508060000160189054906101000a900460ff165b1561171357600192505b5b508080600101915050611581565b5081801561172d5750805b159250505090565b6117428160000151613340565b603d6000826020015160ff1660ff16815260200190815260200160002060000160199054906101000a900460ff16156117b0576040517f08c379a00000000000000000000000000000000000000000000000000000000081526004016117a7906151d5565b60405180910390fd5b600080603f60019054906101000a900473ffffffffffffffffffffffffffffffffffffffff1673ffffffffffffffffffffffffffffffffffffffff163373ffffffffffffffffffffffffffffffffffffffff16141561181657600091506003905061181f565b60069150600390505b603f60019054906101000a900473ffffffffffffffffffffffffffffffffffffffff1673ffffffffffffffffffffffffffffffffffffffff163373ffffffffffffffffffffffffffffffffffffffff16141561197957603e60008460400151600381111561188957fe5b600381111561189457fe5b815260200190815260200160002060000160059054906101000a900460ff1660ff16604060149054906101000a900460ff1660ff16101561190a576040517f08c379a000000000000000000000000000000000000000000000000000000000815260040161190190614fb5565b60405180910390fd5b603e60008460400151600381111561191e57fe5b600381111561192957fe5b815260200190815260200160002060000160059054906101000a900460ff16604060148282829054906101000a900460ff160392506101000a81548160ff021916908360ff160217905550611a79565b603e60008460400151600381111561198d57fe5b600381111561199857fe5b815260200190815260200160002060000160059054906101000a900460ff1660ff16604060159054906101000a900460ff1660ff161015611a0e576040517f08c379a0000000000000000000000000000000000000000000000000000000008152600401611a0590614fb5565b60405180910390fd5b603e600084604001516003811115611a2257fe5b6003811115611a2d57fe5b815260200190815260200160002060000160059054906101000a900460ff16604060158282829054906101000a900460ff160392506101000a81548160ff021916908360ff1602179055505b603e600084604001516003811115611a8d57fe5b6003811115611a9857fe5b815260200190815260200160002060000160069054906101000a900460ff16611c28576007836060015160ff16108015611ad957506007836080015160ff16105b611b18576040517f08c379a0000000000000000000000000000000000000000000000000000000008152600401611b0f90615215565b60405180910390fd5b60006035846060015160ff1660078110611b2e57fe5b01846080015160ff1660078110611b4157fe5b602091828204019190069054906101000a900460ff1690506000603d60008360ff1660ff16815260200190815260200160002090508060000160189054906101000a900460ff1615611bc8576040517f08c379a0000000000000000000000000000000000000000000000000000000008152600401611bbf906150b5565b60405180910390fd5b6001611bde86606001518760800151878761393c565b60ff1614611c21576040517f08c379a0000000000000000000000000000000000000000000000000000000008152600401611c18906152d5565b60405180910390fd5b5050611e67565b603f60009054906101000a900460ff16611e66578160ff168360a0015160600151600160058110611c5557fe5b6020020151148015611c8257508060ff168360a0015160600151600260058110611c7b57fe5b6020020151145b611cc1576040517f08c379a0000000000000000000000000000000000000000000000000000000008152600401611cb8906152b5565b60405180910390fd5b60018360a0015160600151600360058110611cd857fe5b602002015114611d1d576040517f08c379a0000000000000000000000000000000000000000000000000000000008152600401611d14906151f5565b60405180910390fd5b60078360a0015160600151600460058110611d3457fe5b602002015114611d79576040517f08c379a0000000000000000000000000000000000000000000000000000000008152600401611d7090615015565b60405180910390fd5b73__Verifier______________________________63afd115578460a00151600001518560a00151602001518660a00151604001518760a00151606001516040518563ffffffff1660e01b8152600401611dd69493929190614ec9565b60206040518083038186803b158015611dee57600080fd5b505af4158015611e02573d6000803e3d6000fd5b505050506040513d601f19601f82011682018060405250810190611e269190613f71565b611e65576040517f08c379a0000000000000000000000000000000000000000000000000000000008152600401611e5c90615035565b60405180910390fd5b5b5b604051806101400160405280846020015160ff16815260200184604001516003811115611e9057fe5b81526020013373ffffffffffffffffffffffffffffffffffffffff168152602001846060015160ff168152602001846080015160ff168152602001600115158152602001600115158152602001603e600086604001516003811115611ef157fe5b6003811115611efc57fe5b815260200190815260200160002060000160039054906101000a900460ff1660ff168152602001603460009054906101000a900460ff1660ff1681526020018460a0015160600151600060058110611f5057fe5b6020020151815250603d6000856020015160ff1660ff16815260200190815260200160002060008201518160000160006101000a81548160ff021916908360ff16021790555060208201518160000160016101000a81548160ff02191690836003811115611fba57fe5b021790555060408201518160000160026101000a81548173ffffffffffffffffffffffffffffffffffffffff021916908373ffffffffffffffffffffffffffffffffffffffff16021790555060608201518160000160166101000a81548160ff021916908360ff16021790555060808201518160000160176101000a81548160ff021916908360ff16021790555060a08201518160000160186101000a81548160ff02191690831515021790555060c08201518160000160196101000a81548160ff02191690831515021790555060e082015181600001601a6101000a81548160ff021916908360ff16021790555061010082015181600001601b6101000a81548160ff021916908360ff1602179055506101208201518160010155905050603c836020015190806001815401808255809150506001900390600052602060002090602091828204019190069091909190916101000a81548160ff021916908360ff16021790555082602001516035846060015160ff166007811061213b57fe5b01846080015160ff166007811061214e57fe5b602091828204019190066101000a81548160ff021916908360ff160217905550600160416000856000015160ff1660ff1681526020019081526020016000206000856020015160ff1660ff16815260200190815260200160002060006101000a81548160ff021916908315150217905550600160426000856000015160ff1660ff1681526020019081526020016000206000856020015160ff1660ff16815260200190815260200160002060006101000a81548160ff0219169083151502179055507f95d8dea3d987d2163d15eb7c5db7cdff58efde46972835877952ee40cb7a16a03360405161223f9190614dfa565b60405180910390a1505050565b61225581613340565b603f60019054906101000a900473ffffffffffffffffffffffffffffffffffffffff1673ffffffffffffffffffffffffffffffffffffffff163373ffffffffffffffffffffffffffffffffffffffff161415612352576000604060146101000a81548160ff021916908360ff160217905550603460009054906101000a900460ff16604060156101000a81548160ff021916908360ff1602179055506008604060159054906101000a900460ff1660ff161115612329576008604060156101000a81548160ff021916908360ff1602179055505b6002603460016101000a81548160ff0219169083600381111561234857fe5b0217905550612427565b6034600081819054906101000a900460ff168092919060010191906101000a81548160ff021916908360ff160217905550506000604060156101000a81548160ff021916908360ff160217905550603460009054906101000a900460ff16604060146101000a81548160ff021916908360ff1602179055506008604060149054906101000a900460ff1660ff161115612402576008604060146101000a81548160ff021916908360ff1602179055505b6001603460016101000a81548160ff0219169083600381111561242157fe5b02179055505b7f95d8dea3d987d2163d15eb7c5db7cdff58efde46972835877952ee40cb7a16a0336040516124569190614dfa565b60405180910390a161246661156f565b156124bc576003603460016101000a81548160ff0219169083600381111561248a57fe5b02179055507fb537cbcadc098cfedf5a04ef7e68a8554b55f7e45bfdaca1cbc51a686ef65f4860405160405180910390a15b50565b603460009054906101000a900460ff1681565b604060009054906101000a900473ffffffffffffffffffffffffffffffffffffffff1681565b604060149054906101000a900460ff1681565b60426020528160005260406000206020528060005260406000206000915091509054906101000a900460ff1681565b603f60009054906101000a900460ff1681565b7f104ddaefd01036b8465b22025720f944733190135fd4ed564186bc3cfcaec72281565b6060600467ffffffffffffffff8111801561258b57600080fd5b506040519080825280602002602001820160405280156125c557816020015b6125b2613993565b8152602001906001900390816125aa5790505b50905060008090505b60048160ff16101561271c57603e60008260ff1660038111156125ed57fe5b60038111156125f857fe5b600381111561260357fe5b81526020019081526020016000206040518060e00160405290816000820160009054906101000a900460ff16600381111561263a57fe5b600381111561264557fe5b81526020016000820160019054906101000a900460ff1660ff1660ff1681526020016000820160029054906101000a900460ff1660ff1660ff1681526020016000820160039054906101000a900460ff1660ff1660ff1681526020016000820160049054906101000a900460ff1660ff1660ff1681526020016000820160059054906101000a900460ff1660ff1660ff1681526020016000820160069054906101000a900460ff161515151581525050828260ff168151811061270457fe5b602002602001018190525080806001019150506125ce565b5080905090565b6060603c8054905067ffffffffffffffff8111801561274157600080fd5b5060405190808252806020026020018201604052801561277b57816020015b6127686139ec565b8152602001906001900390816127605790505b50905060008090505b603c805490508160ff16101561296357603d6000603c8360ff16815481106127a857fe5b90600052602060002090602091828204019190069054906101000a900460ff1660ff1660ff168152602001908152602001600020604051806101400160405290816000820160009054906101000a900460ff1660ff1660ff1681526020016000820160019054906101000a900460ff16600381111561282357fe5b600381111561282e57fe5b81526020016000820160029054906101000a900473ffffffffffffffffffffffffffffffffffffffff1673ffffffffffffffffffffffffffffffffffffffff1673ffffffffffffffffffffffffffffffffffffffff1681526020016000820160169054906101000a900460ff1660ff1660ff1681526020016000820160179054906101000a900460ff1660ff1660ff1681526020016000820160189054906101000a900460ff161515151581526020016000820160199054906101000a900460ff1615151515815260200160008201601a9054906101000a900460ff1660ff1660ff16815260200160008201601b9054906101000a900460ff1660ff1660ff168152602001600182015481525050828260ff168151811061294b57fe5b60200260200101819052508080600101915050612784565b5080905090565b603c818154811061297757fe5b9060005260206000209060209182820401919006915054906101000a900460ff1681565b603460019054906101000a900460ff1681565b603f60019054906101000a900473ffffffffffffffffffffffffffffffffffffffff1681565b600060038111156129e157fe5b603460019054906101000a900460ff1660038111156129fc57fe5b14612a3c576040517f08c379a0000000000000000000000000000000000000000000000000000000008152600401612a33906152f5565b60405180910390fd5b600073ffffffffffffffffffffffffffffffffffffffff16603f60019054906101000a900473ffffffffffffffffffffffffffffffffffffffff1673ffffffffffffffffffffffffffffffffffffffff161415612ad95733603f60016101000a81548173ffffffffffffffffffffffffffffffffffffffff021916908373ffffffffffffffffffffffffffffffffffffffff160217905550613304565b603f60019054906101000a900473ffffffffffffffffffffffffffffffffffffffff1673ffffffffffffffffffffffffffffffffffffffff163373ffffffffffffffffffffffffffffffffffffffff161415612b6a576040517f08c379a0000000000000000000000000000000000000000000000000000000008152600401612b6190615075565b60405180910390fd5b600060024281612b7657fe5b061415612bc35733604060006101000a81548173ffffffffffffffffffffffffffffffffffffffff021916908373ffffffffffffffffffffffffffffffffffffffff160217905550612c68565b603f60019054906101000a900473ffffffffffffffffffffffffffffffffffffffff16604060006101000a81548173ffffffffffffffffffffffffffffffffffffffff021916908373ffffffffffffffffffffffffffffffffffffffff16021790555033603f60016101000a81548173ffffffffffffffffffffffffffffffffffffffff021916908373ffffffffffffffffffffffffffffffffffffffff1602179055505b604051806101400160405280600160ff168152602001600380811115612c8a57fe5b8152602001603f60019054906101000a900473ffffffffffffffffffffffffffffffffffffffff1673ffffffffffffffffffffffffffffffffffffffff168152602001600060ff168152602001600360ff168152602001600115158152602001600115158152602001603e6000600380811115612d0357fe5b6003811115612d0e57fe5b815260200190815260200160002060000160039054906101000a900460ff1660ff168152602001600060ff1681526020016000815250603d6000600160ff16815260200190815260200160002060008201518160000160006101000a81548160ff021916908360ff16021790555060208201518160000160016101000a81548160ff02191690836003811115612da057fe5b021790555060408201518160000160026101000a81548173ffffffffffffffffffffffffffffffffffffffff021916908373ffffffffffffffffffffffffffffffffffffffff16021790555060608201518160000160166101000a81548160ff021916908360ff16021790555060808201518160000160176101000a81548160ff021916908360ff16021790555060a08201518160000160186101000a81548160ff02191690831515021790555060c08201518160000160196101000a81548160ff02191690831515021790555060e082015181600001601a6101000a81548160ff021916908360ff16021790555061010082015181600001601b6101000a81548160ff021916908360ff1602179055506101208201518160010155905050603c600190806001815401808255809150506001900390600052602060002090602091828204019190069091909190916101000a81548160ff021916908360ff16021790555060016035600060078110612f1557fe5b01600360078110612f2257fe5b602091828204019190066101000a81548160ff021916908360ff160217905550604051806101400160405280600260ff168152602001600380811115612f6457fe5b8152602001604060009054906101000a900473ffffffffffffffffffffffffffffffffffffffff1673ffffffffffffffffffffffffffffffffffffffff168152602001600660ff168152602001600360ff168152602001600115158152602001600115158152602001603e6000600380811115612fdd57fe5b6003811115612fe857fe5b815260200190815260200160002060000160039054906101000a900460ff1660ff168152602001600060ff1681526020016000815250603d6000600260ff16815260200190815260200160002060008201518160000160006101000a81548160ff021916908360ff16021790555060208201518160000160016101000a81548160ff0219169083600381111561307a57fe5b021790555060408201518160000160026101000a81548173ffffffffffffffffffffffffffffffffffffffff021916908373ffffffffffffffffffffffffffffffffffffffff16021790555060608201518160000160166101000a81548160ff021916908360ff16021790555060808201518160000160176101000a81548160ff021916908360ff16021790555060a08201518160000160186101000a81548160ff02191690831515021790555060c08201518160000160196101000a81548160ff02191690831515021790555060e082015181600001601a6101000a81548160ff021916908360ff16021790555061010082015181600001601b6101000a81548160ff021916908360ff1602179055506101208201518160010155905050603c600290806001815401808255809150506001900390600052602060002090602091828204019190069091909190916101000a81548160ff021916908360ff160217905550600260356006600781106131ef57fe5b016003600781106131fc57fe5b602091828204019190066101000a81548160ff021916908360ff1602179055506001603460016101000a81548160ff0219169083600381111561323b57fe5b02179055506001603460006101000a81548160ff021916908360ff160217905550603460009054906101000a900460ff16604060146101000a81548160ff021916908360ff1602179055507f8fd707874eb940598510258c64cad23fd35fe8c85c5c38e8782fac2cc887fb6e603f60019054906101000a900473ffffffffffffffffffffffffffffffffffffffff16604060009054906101000a900473ffffffffffffffffffffffffffffffffffffffff166040516132fb929190614e15565b60405180910390a15b565b60335481565b600781565b60416020528160005260406000206020528060005260406000206000915091509054906101000a900460ff1681565b603f60019054906101000a900473ffffffffffffffffffffffffffffffffffffffff1673ffffffffffffffffffffffffffffffffffffffff163373ffffffffffffffffffffffffffffffffffffffff1614806133e95750604060009054906101000a900473ffffffffffffffffffffffffffffffffffffffff1673ffffffffffffffffffffffffffffffffffffffff163373ffffffffffffffffffffffffffffffffffffffff16145b613428576040517f08c379a000000000000000000000000000000000000000000000000000000000815260040161341f90615275565b60405180910390fd5b60038081111561343457fe5b603460019054906101000a900460ff16600381111561344f57fe5b1415613490576040517f08c379a000000000000000000000000000000000000000000000000000000000815260040161348790615175565b60405180910390fd5b603f60019054906101000a900473ffffffffffffffffffffffffffffffffffffffff1673ffffffffffffffffffffffffffffffffffffffff163373ffffffffffffffffffffffffffffffffffffffff16141561354f57600160038111156134f357fe5b603460019054906101000a900460ff16600381111561350e57fe5b1461354e576040517f08c379a000000000000000000000000000000000000000000000000000000000815260040161354590615315565b60405180910390fd5b5b604060009054906101000a900473ffffffffffffffffffffffffffffffffffffffff1673ffffffffffffffffffffffffffffffffffffffff163373ffffffffffffffffffffffffffffffffffffffff16141561360e57600260038111156135b257fe5b603460019054906101000a900460ff1660038111156135cd57fe5b1461360d576040517f08c379a000000000000000000000000000000000000000000000000000000000815260040161360490615195565b60405180910390fd5b5b603460009054906101000a900460ff1660ff168160ff1614613665576040517f08c379a000000000000000000000000000000000000000000000000000000000815260040161365c90614ff5565b60405180910390fd5b50565b6000808460600151905060008560800151905083518551146136bf576040517f08c379a00000000000000000000000000000000000000000000000000000000081526004016136b6906151b5565b60405180910390fd5b603e6000876020015160038111156136d357fe5b60038111156136de57fe5b815260200190815260200160002060000160019054906101000a900460ff1660ff1685511115613743576040517f08c379a000000000000000000000000000000000000000000000000000000000815260040161373a90615295565b60405180910390fd5b60008090505b855181101561392e57600086828151811061376057fe5b60200260200101519050600086838151811061377857fe5b6020026020010151905060078260ff161080613797575060078160ff16105b6137d6576040517f08c379a00000000000000000000000000000000000000000000000000000000081526004016137cd90615095565b60405180910390fd5b8460ff168260ff1614806137ef57508360ff168160ff16145b80156138305750600185830360ff16148061380f5750600182860360ff16145b8061381f5750600184820360ff16145b8061382f5750600181850360ff16145b5b61386f576040517f08c379a0000000000000000000000000000000000000000000000000000000008152600401613866906151b5565b60405180910390fd5b600060358360ff166007811061388157fe5b018260ff166007811061389057fe5b602091828204019190069054906101000a900460ff1690506000603d60008360ff1660ff16815260200190815260200160002090508060000160189054906101000a900460ff1615613917576040517f08c379a000000000000000000000000000000000000000000000000000000000815260040161390e90614fd5565b60405180910390fd5b839650829550505050508080600101915050613749565b506001925050509392505050565b600080600090508360ff168660ff16111561395d5783860381019050613965565b858403810190505b8260ff168560ff16111561397f5782850381019050613987565b848303810190505b80915050949350505050565b6040518060e00160405280600060038111156139ab57fe5b8152602001600060ff168152602001600060ff168152602001600060ff168152602001600060ff168152602001600060ff1681526020016000151581525090565b604051806101400160405280600060ff16815260200160006003811115613a0f57fe5b8152602001600073ffffffffffffffffffffffffffffffffffffffff168152602001600060ff168152602001600060ff168152602001600015158152602001600015158152602001600060ff168152602001600060ff168152602001600081525090565b600082601f830112613a8457600080fd5b6002613a97613a9282615434565b615407565b91508183856040840282011115613aad57600080fd5b60005b83811015613add5781613ac38882613ae7565b845260208401935060408301925050600181019050613ab0565b5050505092915050565b600082601f830112613af857600080fd5b6002613b0b613b0682615456565b615407565b91508183856020840282011115613b2157600080fd5b60005b83811015613b515781613b378882613f47565b845260208401935060208301925050600181019050613b24565b5050505092915050565b600082601f830112613b6c57600080fd5b6004613b7f613b7a82615478565b615407565b91508183856020840282011115613b9557600080fd5b60005b83811015613bc55781613bab8882613f47565b845260208401935060208301925050600181019050613b98565b5050505092915050565b600082601f830112613be057600080fd5b6005613bf3613bee8261549a565b615407565b91508183856020840282011115613c0957600080fd5b60005b83811015613c395781613c1f8882613f47565b845260208401935060208301925050600181019050613c0c565b5050505092915050565b600082601f830112613c5457600080fd5b8135613c67613c62826154bc565b615407565b91508181835260208401935060208101905083856020840282011115613c8c57600080fd5b60005b83811015613cbc5781613ca28882613f5c565b845260208401935060208301925050600181019050613c8f565b5050505092915050565b600081359050613cd581615715565b92915050565b600081519050613cea81615715565b92915050565b600081359050613cff8161572c565b92915050565b60006101808284031215613d1857600080fd5b613d226080615407565b90506000613d3284828501613ae7565b6000830152506040613d4684828501613a73565b60208301525060c0613d5a84828501613ae7565b604083015250610100613d6f84828501613b5b565b60608301525092915050565b60006102008284031215613d8e57600080fd5b613d9860a0615407565b90506000613da884828501613f5c565b6000830152506020613dbc84828501613f5c565b602083015250604082013567ffffffffffffffff811115613ddc57600080fd5b613de884828501613c43565b604083015250606082013567ffffffffffffffff811115613e0857600080fd5b613e1484828501613c43565b6060830152506080613e2884828501613d05565b60808301525092915050565b60006101a08284031215613e4757600080fd5b613e516080615407565b90506000613e6184828501613ae7565b6000830152506040613e7584828501613a73565b60208301525060c0613e8984828501613ae7565b604083015250610100613e9e84828501613bcf565b60608301525092915050565b60006102408284031215613ebd57600080fd5b613ec760c0615407565b90506000613ed784828501613f5c565b6000830152506020613eeb84828501613f5c565b6020830152506040613eff84828501613cf0565b6040830152506060613f1384828501613f5c565b6060830152506080613f2784828501613f5c565b60808301525060a0613f3b84828501613e34565b60a08301525092915050565b600081359050613f568161573c565b92915050565b600081359050613f6b81615753565b92915050565b600060208284031215613f8357600080fd5b6000613f9184828501613cdb565b91505092915050565b600060208284031215613fac57600080fd5b6000613fba84828501613cf0565b91505092915050565b600060208284031215613fd557600080fd5b600082013567ffffffffffffffff811115613fef57600080fd5b613ffb84828501613d7b565b91505092915050565b6000610240828403121561401757600080fd5b600061402584828501613eaa565b91505092915050565b60006020828403121561404057600080fd5b600061404e84828501613f47565b91505092915050565b6000806040838503121561406a57600080fd5b600061407885828601613f47565b925050602061408985828601613cc6565b9150509250929050565b600080604083850312156140a657600080fd5b60006140b485828601613f47565b92505060206140c585828601613f47565b9150509250929050565b6000602082840312156140e157600080fd5b60006140ef84828501613f5c565b91505092915050565b6000806040838503121561410b57600080fd5b600061411985828601613f5c565b925050602061412a85828601613f5c565b9150509250929050565b6000614140838361432c565b60408301905092915050565b60006141588383614c3a565b60e08301905092915050565b60006141708383614cc8565b6101408301905092915050565b60006141898383614db2565b60208301905092915050565b61419e816156a1565b82525050565b6141ad81615626565b82525050565b6141bc81615626565b82525050565b6141cb8161552c565b6141d581846155bc565b92506141e0826154e4565b8060005b838110156142115781516141f88782614134565b96506142038361556e565b9250506001810190506141e4565b505050505050565b600061422482615537565b61422e81856155c7565b9350614239836154ee565b8060005b8381101561426a578151614251888261414c565b975061425c8361557b565b92505060018101905061423d565b5085935050505092915050565b600061428282615542565b61428c81856155d8565b9350614297836154fe565b8060005b838110156142c85781516142af8882614164565b97506142ba83615588565b92505060018101905061429b565b5085935050505092915050565b6142de8161554d565b6142e881846155e9565b92506142f38261550e565b8060005b8381101561432457815161430b878261417d565b965061431683615595565b9250506001810190506142f7565b505050505050565b6143358161554d565b61433f81846155f4565b925061434a8261550e565b8060005b8381101561437b578151614362878261417d565b965061436d83615595565b92505060018101905061434e565b505050505050565b61438c81615558565b61439681846155ff565b92506143a182615518565b8060005b838110156143d25781516143b9878261417d565b96506143c4836155a2565b9250506001810190506143a5565b505050505050565b6143e381615563565b6143ed818461560a565b92506143f882615522565b8060005b83811015614429578151614410878261417d565b965061441b836155af565b9250506001810190506143fc565b505050505050565b61443a81615638565b82525050565b61444981615638565b82525050565b614458816156b3565b82525050565b614467816156c5565b82525050565b614476816156c5565b82525050565b6000614489600f83615615565b91507f6e6f7420656e6f756768206d616e6100000000000000000000000000000000006000830152602082019050919050565b60006144c9602783615615565b91507f747269656420746f206d6f7665207468726f75676820616e206578697374696e60008301527f67207069656365000000000000000000000000000000000000000000000000006020830152604082019050919050565b600061452f601183615615565b91507f57726f6e67207475726e206e756d6265720000000000000000000000000000006000830152602082019050919050565b600061456f602483615615565b91507f696e76616c6964205a4b2070726f6f663a20696e76616c696420626f6172642060008301527f73697a65000000000000000000000000000000000000000000000000000000006020830152604082019050919050565b60006145d5601683615615565b91507f4661696c6564205a4b2073756d6d6f6e20636865636b000000000000000000006000830152602082019050919050565b6000614615600d83615615565b91507f50696563652069732064656164000000000000000000000000000000000000006000830152602082019050919050565b6000614655601583615615565b91507f63616e2774206a6f696e2067616d6520747769636500000000000000000000006000830152602082019050919050565b6000614695601b83615615565b91507f747269656420746f206d6f7665206f7574206f6620626f756e647300000000006000830152602082019050919050565b60006146d5602683615615565b91507f747269656420746f2073756d6d6f6e206f6e746f20616e206578697374696e6760008301527f20706965636500000000000000000000000000000000000000000000000000006020830152604082019050919050565b600061473b601483615615565b91507f4661696c6564207a6b206d6f766520636865636b0000000000000000000000006000830152602082019050919050565b600061477b601383615615565b91507f706965636520616c7265616479206163746564000000000000000000000000006000830152602082019050919050565b60006147bb600c83615615565b91507f496e76616c6964206d6f766500000000000000000000000000000000000000006000830152602082019050919050565b60006147fb601b83615615565b91507f63616e2774206d6f7665206f70706f6e656e74277320706965636500000000006000830152602082019050919050565b600061483b601383615615565b91507f706965636520616c7265616479206d6f766564000000000000000000000000006000830152602082019050919050565b600061487b600d83615615565b91507f47616d6520697320656e646564000000000000000000000000000000000000006000830152602082019050919050565b60006148bb600d83615615565b91507f4e6f742070322773207475726e000000000000000000000000000000000000006000830152602082019050919050565b60006148fb600c83615615565b91507f696e76616c6964206d6f766500000000000000000000000000000000000000006000830152602082019050919050565b600061493b601783615615565b91507f706965636520494420616c726561647920696e207573650000000000000000006000830152602082019050919050565b600061497b602e83615615565b91507f696e76616c6964205a4b2070726f6f663a2063616e206f6e6c792073756d6d6f60008301527f6e206e65787420746f20706f72740000000000000000000000000000000000006020830152604082019050919050565b60006149e1600d83615615565b91507f6e6f7420696e20626f756e6473000000000000000000000000000000000000006000830152602082019050919050565b6000614a21601583615615565b91507f547269656420746f206d6f766520746f6f2066617200000000000000000000006000830152602082019050919050565b6000614a61601083615615565b91507f5a4b2050726f6f6620696e76616c6964000000000000000000000000000000006000830152602082019050919050565b6000614aa1601c83615615565b91507f4e6f74207265676973746572656420666f7220746869732067616d65000000006000830152602082019050919050565b6000614ae1602d83615615565b91507f747269656420746f206d6f76652070696563652066757274686572207468616e60008301527f2072616e676520616c6c6f7773000000000000000000000000000000000000006020830152604082019050919050565b6000614b47601e83615615565b91507f696e76616c6964205a4b2070726f6f663a20696e76616c696420706f727400006000830152602082019050919050565b6000614b87601283615615565b91507f63616e27742073756d6d6f6e20746865726500000000000000000000000000006000830152602082019050919050565b6000614bc7601483615615565b91507f47616d6520616c726561647920737461727465640000000000000000000000006000830152602082019050919050565b6000614c07600d83615615565b91507f4e6f742070312773207475726e000000000000000000000000000000000000006000830152602082019050919050565b60e082016000820151614c50600085018261445e565b506020820151614c636020850182614dc1565b506040820151614c766040850182614dc1565b506060820151614c896060850182614dc1565b506080820151614c9c6080850182614dc1565b5060a0820151614caf60a0850182614dc1565b5060c0820151614cc260c0850182614431565b50505050565b61014082016000820151614cdf6000850182614dc1565b506020820151614cf2602085018261445e565b506040820151614d0560408501826141a4565b506060820151614d186060850182614dc1565b506080820151614d2b6080850182614dc1565b5060a0820151614d3e60a0850182614431565b5060c0820151614d5160c0850182614431565b5060e0820151614d6460e0850182614dc1565b50610100820151614d79610100850182614dc1565b50610120820151614d8e610120850182614d94565b50505050565b614d9d8161568a565b82525050565b614dac8161568a565b82525050565b614dbb8161568a565b82525050565b614dca81615694565b82525050565b614dd981615694565b82525050565b6000602082019050614df460008301846141b3565b92915050565b6000602082019050614e0f6000830184614195565b92915050565b6000604082019050614e2a60008301856141b3565b614e3760208301846141b3565b9392505050565b60006020820190508181036000830152614e588184614219565b905092915050565b60006020820190508181036000830152614e7a8184614277565b905092915050565b600061018082019050614e9860008301876142d5565b614ea560408301866141c2565b614eb260c08301856142d5565b614ec0610100830184614383565b95945050505050565b60006101a082019050614edf60008301876142d5565b614eec60408301866141c2565b614ef960c08301856142d5565b614f076101008301846143da565b95945050505050565b6000602082019050614f256000830184614440565b92915050565b6000602082019050614f40600083018461444f565b92915050565b600060e082019050614f5b600083018a61446d565b614f686020830189614dd0565b614f756040830188614dd0565b614f826060830187614dd0565b614f8f6080830186614dd0565b614f9c60a0830185614dd0565b614fa960c0830184614440565b98975050505050505050565b60006020820190508181036000830152614fce8161447c565b9050919050565b60006020820190508181036000830152614fee816144bc565b9050919050565b6000602082019050818103600083015261500e81614522565b9050919050565b6000602082019050818103600083015261502e81614562565b9050919050565b6000602082019050818103600083015261504e816145c8565b9050919050565b6000602082019050818103600083015261506e81614608565b9050919050565b6000602082019050818103600083015261508e81614648565b9050919050565b600060208201905081810360008301526150ae81614688565b9050919050565b600060208201905081810360008301526150ce816146c8565b9050919050565b600060208201905081810360008301526150ee8161472e565b9050919050565b6000602082019050818103600083015261510e8161476e565b9050919050565b6000602082019050818103600083015261512e816147ae565b9050919050565b6000602082019050818103600083015261514e816147ee565b9050919050565b6000602082019050818103600083015261516e8161482e565b9050919050565b6000602082019050818103600083015261518e8161486e565b9050919050565b600060208201905081810360008301526151ae816148ae565b9050919050565b600060208201905081810360008301526151ce816148ee565b9050919050565b600060208201905081810360008301526151ee8161492e565b9050919050565b6000602082019050818103600083015261520e8161496e565b9050919050565b6000602082019050818103600083015261522e816149d4565b9050919050565b6000602082019050818103600083015261524e81614a14565b9050919050565b6000602082019050818103600083015261526e81614a54565b9050919050565b6000602082019050818103600083015261528e81614a94565b9050919050565b600060208201905081810360008301526152ae81614ad4565b9050919050565b600060208201905081810360008301526152ce81614b3a565b9050919050565b600060208201905081810360008301526152ee81614b7a565b9050919050565b6000602082019050818103600083015261530e81614bba565b9050919050565b6000602082019050818103600083015261532e81614bfa565b9050919050565b600060208201905061534a6000830184614da3565b92915050565b60006020820190506153656000830184614dd0565b92915050565b600061014082019050615381600083018d614dd0565b61538e602083018c61446d565b61539b604083018b6141b3565b6153a8606083018a614dd0565b6153b56080830189614dd0565b6153c260a0830188614440565b6153cf60c0830187614440565b6153dc60e0830186614dd0565b6153ea610100830185614dd0565b6153f8610120830184614da3565b9b9a5050505050505050505050565b6000604051905081810181811067ffffffffffffffff8211171561542a57600080fd5b8060405250919050565b600067ffffffffffffffff82111561544b57600080fd5b602082029050919050565b600067ffffffffffffffff82111561546d57600080fd5b602082029050919050565b600067ffffffffffffffff82111561548f57600080fd5b602082029050919050565b600067ffffffffffffffff8211156154b157600080fd5b602082029050919050565b600067ffffffffffffffff8211156154d357600080fd5b602082029050602081019050919050565b6000819050919050565b6000819050602082019050919050565b6000819050602082019050919050565b6000819050919050565b6000819050919050565b6000819050919050565b600060029050919050565b600081519050919050565b600081519050919050565b600060029050919050565b600060049050919050565b600060059050919050565b6000602082019050919050565b6000602082019050919050565b6000602082019050919050565b6000602082019050919050565b6000602082019050919050565b6000602082019050919050565b600081905092915050565b600082825260208201905092915050565b600082825260208201905092915050565b600081905092915050565b600081905092915050565b600081905092915050565b600081905092915050565b600082825260208201905092915050565b60006156318261566a565b9050919050565b60008115159050919050565b6000819050615652826156fb565b919050565b600081905061566582615708565b919050565b600073ffffffffffffffffffffffffffffffffffffffff82169050919050565b6000819050919050565b600060ff82169050919050565b60006156ac826156d7565b9050919050565b60006156be82615644565b9050919050565b60006156d082615657565b9050919050565b60006156e2826156e9565b9050919050565b60006156f48261566a565b9050919050565b6004811061570557fe5b50565b6004811061571257fe5b50565b61571e81615638565b811461572957600080fd5b50565b6004811061573957600080fd5b50565b6157458161568a565b811461575057600080fd5b50565b61575c81615694565b811461576757600080fd5b5056fea2646970667358221220ad57f867cd58715bb906bacc149bbd8063126701ea7fe6c4d47d1e04ecc7fc3164736f6c63430006070033",
  "immutableReferences": {},
  "source": "pragma solidity ^0.6.7;\npragma experimental ABIEncoderV2;\n\nimport \"@openzeppelin/contracts-ethereum-package/contracts/Initializable.sol\";\nimport \"./ZKChessTypes.sol\";\nimport \"./ZKChessUtils.sol\";\nimport \"./Verifier.sol\";\n\ncontract ZKChessGame is Initializable {\n    uint256\n        public constant FIELD_SIZE = 21888242871839275222246405745257275088548364400416034343698204186575808495617;\n    uint256\n        public constant GHOST_START_COMMITMENT = 7374563847362678215915084925243633004703986452179446109135597066279732561698;\n    uint256 public constant BOARD_SIZE = 7;\n\n    uint256 public gameId;\n\n    uint8 public turnNumber;\n    GameState public gameState;\n    uint8[BOARD_SIZE][BOARD_SIZE] public boardPieces; // board[row][col]\n\n    uint8[] public pieceIds;\n    mapping(uint8 => Piece) public pieces;\n\n    mapping(PieceType => PieceDefaultStats) public defaultStats;\n\n    bool public DISABLE_ZK_CHECK;\n\n    address public player1;\n    address public player2;\n\n    uint8 public player1Mana;\n    uint8 public player2Mana;\n\n    // mapping from turn # -> piece # -> has acted\n    mapping(uint8 => mapping(uint8 => bool)) public hasMoved;\n    mapping(uint8 => mapping(uint8 => bool)) public hasAttacked;\n\n    uint256 pfsVerified;\n\n    function initialize(uint256 _gameId, bool _disableZKCheck) public {\n        gameId = _gameId;\n        DISABLE_ZK_CHECK = _disableZKCheck;\n        gameState = GameState.WAITING_FOR_PLAYERS;\n\n        // initialize pieces\n        defaultStats[PieceType.KING] = PieceDefaultStats({\n            pieceType: PieceType.KING,\n            mvRange: 2,\n            atkRange: 1,\n            hp: 3,\n            atk: 2,\n            isZk: false,\n            cost: 1\n        });\n        defaultStats[PieceType.KNIGHT] = PieceDefaultStats({\n            pieceType: PieceType.KNIGHT,\n            mvRange: 2,\n            atkRange: 2,\n            hp: 3,\n            atk: 2,\n            isZk: false,\n            cost: 2\n        });\n        defaultStats[PieceType.GHOST] = PieceDefaultStats({\n            pieceType: PieceType.GHOST,\n            mvRange: 1,\n            atkRange: 1,\n            hp: 3,\n            atk: 1,\n            isZk: true,\n            cost: 3\n        });\n        defaultStats[PieceType.PORT] = PieceDefaultStats({\n            pieceType: PieceType.PORT,\n            mvRange: 0,\n            atkRange: 2,\n            hp: 10,\n            atk: 2,\n            isZk: false,\n            cost: 100\n        });\n    }\n\n    //////////////\n    /// EVENTS ///\n    //////////////\n\n    event ProofVerified(uint256 pfsAccepted);\n    event GameStart(address p1, address p2);\n    event ActionMade(address player);\n    event GameFinished();\n\n    ///////////////\n    /// GETTERS ///\n    ///////////////\n\n    function getPieces() public view returns (Piece[] memory ret) {\n        ret = new Piece[](pieceIds.length);\n        for (uint8 i = 0; i < pieceIds.length; i++) {\n            ret[i] = pieces[pieceIds[i]];\n        }\n        return ret;\n    }\n\n    function getDefaults()\n        public\n        view\n        returns (PieceDefaultStats[] memory ret)\n    {\n        ret = new PieceDefaultStats[](4);\n        // TODO hardcode bad >:(\n        for (uint8 i = 0; i < 4; i++) {\n            ret[i] = defaultStats[PieceType(i)];\n        }\n        return ret;\n    }\n\n    //////////////\n    /// Helper ///\n    //////////////\n\n    function taxiDist(\n        uint8 row1,\n        uint8 col1,\n        uint8 row2,\n        uint8 col2\n    ) private pure returns (uint8) {\n        uint8 ret = 0;\n        if (row1 > row2) {\n            ret += row1 - row2;\n        } else {\n            ret += row2 - row1;\n        }\n        if (col1 > col2) {\n            ret += col1 - col2;\n        } else {\n            ret += col2 - col1;\n        }\n        return ret;\n    }\n\n    function isValidMove(\n        Piece memory piece,\n        uint8[] memory toRow,\n        uint8[] memory toCol\n    ) private view returns (bool) {\n        uint8 currentRow = piece.row;\n        uint8 currentCol = piece.col;\n        require(toRow.length == toCol.length, \"invalid move\");\n        require(\n            toRow.length <= defaultStats[piece.pieceType].mvRange,\n            \"tried to move piece further than range allows\"\n        );\n\n        for (uint256 i = 0; i < toRow.length; i++) {\n            uint8 nextRow = toRow[i];\n            uint8 nextCol = toCol[i];\n            // must be in range [0, SIZE - 1]\n            require(\n                nextRow < BOARD_SIZE || nextCol < BOARD_SIZE,\n                \"tried to move out of bounds\"\n            );\n            // (nextRow, nextCol) must be adjacent to (currentRow, currentCol)\n            require(\n                (nextRow == currentRow || nextCol == currentCol) &&\n                    (nextRow - currentRow == 1 ||\n                        currentRow - nextRow == 1 ||\n                        nextCol - currentCol == 1 ||\n                        currentCol - nextCol == 1),\n                \"invalid move\"\n            );\n            // can't move through or onto a square with a piece on it\n            uint8 pieceIdAtNextTile = boardPieces[nextRow][nextCol];\n            Piece storage pieceAtNextTile = pieces[pieceIdAtNextTile];\n            require(\n                !pieceAtNextTile.alive,\n                \"tried to move through an existing piece\"\n            );\n            currentRow = nextRow;\n            currentCol = nextCol;\n        }\n        return true;\n    }\n\n    function gameShouldBeCompleted() public view returns (bool) {\n        // check if game is over: at least one player has no pieces left\n        bool player1HasPiecesLeft = false;\n        bool player2HasPiecesLeft = false;\n        for (uint8 i = 0; i < pieceIds.length; i++) {\n            Piece storage piece = pieces[pieceIds[i]];\n            if (piece.owner == player1 && piece.alive) {\n                player1HasPiecesLeft = true;\n            } else if (piece.owner == player2 && piece.alive) {\n                player2HasPiecesLeft = true;\n            }\n        }\n        return !(player1HasPiecesLeft && player2HasPiecesLeft);\n    }\n\n    //////////////////////\n    /// Game Mechanics ///\n    //////////////////////\n\n    function checkAction(uint8 _turnNumber) internal {\n        require(\n            msg.sender == player1 || msg.sender == player2,\n            \"Not registered for this game\"\n        );\n        require(gameState != GameState.COMPLETE, \"Game is ended\");\n        if (msg.sender == player1) {\n            require(gameState == GameState.P1_TO_MOVE, \"Not p1's turn\");\n        }\n        if (msg.sender == player2) {\n            require(gameState == GameState.P2_TO_MOVE, \"Not p2's turn\");\n        }\n        require(_turnNumber == turnNumber, \"Wrong turn number\");\n    }\n\n    function joinGame() public {\n        require(\n            gameState == GameState.WAITING_FOR_PLAYERS,\n            \"Game already started\"\n        );\n        if (player1 == address(0)) {\n            // first player to join game\n            player1 = msg.sender;\n            return;\n        }\n        // another player has joined. game is ready to start\n\n        require(msg.sender != player1, \"can't join game twice\");\n        // randomize player order\n        if (block.timestamp % 2 == 0) {\n            player2 = msg.sender;\n        } else {\n            player2 = player1;\n            player1 = msg.sender;\n        }\n\n        // set pieces\n        pieces[1] = Piece({\n            id: 1,\n            pieceType: PieceType.PORT,\n            owner: player1,\n            row: 0,\n            col: 3,\n            alive: true,\n            commitment: 0,\n            initialized: true,\n            hp: defaultStats[PieceType.PORT].hp,\n            initializedOnTurn: 0\n        });\n        pieceIds.push(1);\n        boardPieces[0][3] = 1;\n        pieces[2] = Piece({\n            id: 2,\n            pieceType: PieceType.PORT,\n            owner: player2,\n            row: 6,\n            col: 3,\n            alive: true,\n            commitment: 0,\n            initialized: true,\n            hp: defaultStats[PieceType.PORT].hp,\n            initializedOnTurn: 0\n        });\n        pieceIds.push(2);\n        boardPieces[6][3] = 2;\n\n        gameState = GameState.P1_TO_MOVE;\n        turnNumber = 1;\n        player1Mana = turnNumber;\n        emit GameStart(player1, player2);\n    }\n\n    function doSummon(Summon memory summon) public {\n        checkAction(summon.turnNumber);\n        require(!pieces[summon.pieceId].initialized, \"piece ID already in use\");\n\n        // PORT tile\n        uint8 homeRow;\n        uint8 homeCol;\n        if (msg.sender == player1) {\n            homeRow = 0;\n            homeCol = 3;\n        } else {\n            homeRow = 6;\n            homeCol = 3;\n        }\n\n        // MANA checks\n        if (msg.sender == player1) {\n            require(\n                player1Mana >= defaultStats[summon.pieceType].cost,\n                \"not enough mana\"\n            );\n            player1Mana -= defaultStats[summon.pieceType].cost;\n        } else {\n            require(\n                player2Mana >= defaultStats[summon.pieceType].cost,\n                \"not enough mana\"\n            );\n            player2Mana -= defaultStats[summon.pieceType].cost;\n        }\n\n        // validity checks\n        if (!defaultStats[summon.pieceType].isZk) {\n            require(\n                summon.row < BOARD_SIZE && summon.col < BOARD_SIZE,\n                \"not in bounds\"\n            );\n            // if visible piece, can't summon on existing piece\n            uint8 pieceIdAtSummonTile = boardPieces[summon.row][summon.col];\n            Piece storage pieceAtSummonTile = pieces[pieceIdAtSummonTile];\n            require(\n                !pieceAtSummonTile.alive,\n                \"tried to summon onto an existing piece\"\n            );\n            // must summon adjacent to the PORT tile\n            require(\n                taxiDist(summon.row, summon.col, homeRow, homeCol) == 1,\n                \"can't summon there\"\n            );\n        } else {\n            if (!DISABLE_ZK_CHECK) {\n                require(\n                    summon.zkp.input[1] == homeRow &&\n                        summon.zkp.input[2] == homeCol,\n                    \"invalid ZK proof: invalid port\"\n                );\n                require(\n                    summon.zkp.input[3] == 1,\n                    \"invalid ZK proof: can only summon next to port\"\n                );\n                require(\n                    summon.zkp.input[4] == BOARD_SIZE,\n                    \"invalid ZK proof: invalid board size\"\n                );\n                require(\n                    Verifier.verifyDist1Proof(\n                        summon.zkp.a,\n                        summon.zkp.b,\n                        summon.zkp.c,\n                        summon.zkp.input\n                    ),\n                    \"Failed ZK summon check\"\n                );\n            }\n        }\n\n        // create piece\n        pieces[summon.pieceId] = Piece({\n            id: summon.pieceId,\n            pieceType: summon.pieceType,\n            owner: msg.sender,\n            row: summon.row,\n            col: summon.col,\n            alive: true,\n            commitment: summon.zkp.input[0],\n            initialized: true,\n            hp: defaultStats[summon.pieceType].hp,\n            initializedOnTurn: turnNumber\n        });\n        pieceIds.push(summon.pieceId);\n        boardPieces[summon.row][summon.col] = summon.pieceId;\n        // if piece has just been made, can't use it yet\n        // in the future this should be tracked in its own field\n        hasMoved[summon.turnNumber][summon.pieceId] = true;\n        hasAttacked[summon.turnNumber][summon.pieceId] = true;\n        emit ActionMade(msg.sender);\n    }\n\n    function doMove(Move memory move) public {\n        checkAction(move.turnNumber);\n        Piece storage piece = pieces[move.pieceId];\n        require(\n            piece.owner == msg.sender && piece.owner != address(0),\n            \"can't move opponent's piece\"\n        );\n        require(piece.alive, \"Piece is dead\");\n        require(!hasMoved[move.turnNumber][piece.id], \"piece already moved\");\n        require(!hasAttacked[move.turnNumber][piece.id], \"piece already acted\");\n\n        if (defaultStats[piece.pieceType].isZk) {\n            require(piece.commitment == move.zkp.input[0], \"ZK Proof invalid\");\n            require(move.zkp.input[3] == BOARD_SIZE);\n            // TODO: check that move is within pieceType's move range\n            require(\n                move.zkp.input[2] <= defaultStats[piece.pieceType].mvRange,\n                \"Tried to move too far\"\n            );\n            if (!DISABLE_ZK_CHECK) {\n                require(\n                    Verifier.verifyDist2Proof(\n                        move.zkp.a,\n                        move.zkp.b,\n                        move.zkp.c,\n                        move.zkp.input\n                    ),\n                    \"Failed zk move check\"\n                );\n            }\n            piece.commitment = move.zkp.input[1];\n        } else {\n            uint8[] memory moveToRow = move.moveToRow;\n            uint8[] memory moveToCol = move.moveToCol;\n            require(isValidMove(piece, moveToRow, moveToCol), \"Invalid move\");\n            uint8 toRow = moveToRow[moveToRow.length - 1];\n            uint8 toCol = moveToCol[moveToCol.length - 1];\n            boardPieces[piece.row][piece.col] = 0;\n            boardPieces[toRow][toCol] = piece.id;\n            piece.row = toRow;\n            piece.col = toCol;\n        }\n        hasMoved[move.turnNumber][piece.id] = true;\n        emit ActionMade(msg.sender);\n    }\n\n    function endTurn(uint8 _turnNumber) public {\n        checkAction(_turnNumber);\n        if (msg.sender == player1) {\n            // change to p2's turn\n            player1Mana = 0;\n            player2Mana = turnNumber;\n            if (player2Mana > 8) {\n                player2Mana = 8;\n            }\n            gameState = GameState.P2_TO_MOVE;\n        } else {\n            // change to p1's turn\n            turnNumber++;\n            player2Mana = 0;\n            player1Mana = turnNumber;\n            if (player1Mana > 8) {\n                player1Mana = 8;\n            }\n            gameState = GameState.P1_TO_MOVE;\n        }\n        emit ActionMade(msg.sender);\n\n        if (gameShouldBeCompleted()) {\n            gameState = GameState.COMPLETE;\n            emit GameFinished();\n        }\n    }\n}\n",
  "sourcePath": "/Users/bgu/zk-chess/eth/contracts/ZKChessGame.sol",
  "compiler": {
    "name": "solc",
    "version": "0.6.7+commit.b8d736ae.Emscripten.clang"
  },
  "schemaVersion": "3.3.1",
  "updatedAt": "2020-11-10T22:09:55.539Z",
  "networkType": "ethereum",
  "devdoc": {
    "methods": {}
  },
  "userdoc": {
    "methods": {
      "getPieces()": {
        "notice": "//////////// GETTERS /// ////////////"
      }
    }
  }
}