{
  "contractName": "ZKChessCore",
  "abi": [
    {
      "inputs": [
        {
          "internalType": "bool",
          "name": "_disableZKCheck",
          "type": "bool"
        }
      ],
      "stateMutability": "nonpayable",
      "type": "constructor"
    },
    {
      "anonymous": false,
      "inputs": [],
      "name": "GameFinished",
      "type": "event"
    },
    {
      "anonymous": false,
      "inputs": [
        {
          "indexed": false,
          "internalType": "address",
          "name": "p1",
          "type": "address"
        },
        {
          "indexed": false,
          "internalType": "address",
          "name": "p2",
          "type": "address"
        }
      ],
      "name": "GameStart",
      "type": "event"
    },
    {
      "anonymous": false,
      "inputs": [
        {
          "indexed": false,
          "internalType": "address",
          "name": "player",
          "type": "address"
        }
      ],
      "name": "MoveMade",
      "type": "event"
    },
    {
      "anonymous": false,
      "inputs": [
        {
          "indexed": false,
          "internalType": "uint256",
          "name": "pfsAccepted",
          "type": "uint256"
        }
      ],
      "name": "ProofVerified",
      "type": "event"
    },
    {
      "inputs": [],
      "name": "BOARD_SIZE",
      "outputs": [
        {
          "internalType": "uint256",
          "name": "",
          "type": "uint256"
        }
      ],
      "stateMutability": "view",
      "type": "function"
    },
    {
      "inputs": [],
      "name": "DISABLE_ZK_CHECK",
      "outputs": [
        {
          "internalType": "bool",
          "name": "",
          "type": "bool"
        }
      ],
      "stateMutability": "view",
      "type": "function"
    },
    {
      "inputs": [],
      "name": "FIELD_SIZE",
      "outputs": [
        {
          "internalType": "uint256",
          "name": "",
          "type": "uint256"
        }
      ],
      "stateMutability": "view",
      "type": "function"
    },
    {
      "inputs": [],
      "name": "GHOST_START_COMMITMENT",
      "outputs": [
        {
          "internalType": "uint256",
          "name": "",
          "type": "uint256"
        }
      ],
      "stateMutability": "view",
      "type": "function"
    },
    {
      "inputs": [
        {
          "internalType": "uint256",
          "name": "",
          "type": "uint256"
        },
        {
          "internalType": "uint256",
          "name": "",
          "type": "uint256"
        }
      ],
      "name": "boardObjectives",
      "outputs": [
        {
          "internalType": "uint8",
          "name": "",
          "type": "uint8"
        }
      ],
      "stateMutability": "view",
      "type": "function"
    },
    {
      "inputs": [
        {
          "internalType": "uint256",
          "name": "",
          "type": "uint256"
        },
        {
          "internalType": "uint256",
          "name": "",
          "type": "uint256"
        }
      ],
      "name": "boardPieces",
      "outputs": [
        {
          "internalType": "uint8",
          "name": "",
          "type": "uint8"
        }
      ],
      "stateMutability": "view",
      "type": "function"
    },
    {
      "inputs": [],
      "name": "gameState",
      "outputs": [
        {
          "internalType": "enum GameState",
          "name": "",
          "type": "uint8"
        }
      ],
      "stateMutability": "view",
      "type": "function"
    },
    {
      "inputs": [
        {
          "internalType": "uint256",
          "name": "",
          "type": "uint256"
        }
      ],
      "name": "objectiveIds",
      "outputs": [
        {
          "internalType": "uint8",
          "name": "",
          "type": "uint8"
        }
      ],
      "stateMutability": "view",
      "type": "function"
    },
    {
      "inputs": [
        {
          "internalType": "uint8",
          "name": "",
          "type": "uint8"
        }
      ],
      "name": "objectives",
      "outputs": [
        {
          "internalType": "uint8",
          "name": "id",
          "type": "uint8"
        },
        {
          "internalType": "uint8",
          "name": "value",
          "type": "uint8"
        },
        {
          "internalType": "uint8",
          "name": "row",
          "type": "uint8"
        },
        {
          "internalType": "uint8",
          "name": "col",
          "type": "uint8"
        },
        {
          "internalType": "address",
          "name": "capturedBy",
          "type": "address"
        }
      ],
      "stateMutability": "view",
      "type": "function"
    },
    {
      "inputs": [
        {
          "internalType": "uint256",
          "name": "",
          "type": "uint256"
        }
      ],
      "name": "pieceIds",
      "outputs": [
        {
          "internalType": "uint8",
          "name": "",
          "type": "uint8"
        }
      ],
      "stateMutability": "view",
      "type": "function"
    },
    {
      "inputs": [
        {
          "internalType": "uint8",
          "name": "",
          "type": "uint8"
        }
      ],
      "name": "pieces",
      "outputs": [
        {
          "internalType": "uint8",
          "name": "id",
          "type": "uint8"
        },
        {
          "internalType": "enum PieceType",
          "name": "pieceType",
          "type": "uint8"
        },
        {
          "internalType": "address",
          "name": "owner",
          "type": "address"
        },
        {
          "internalType": "uint8",
          "name": "row",
          "type": "uint8"
        },
        {
          "internalType": "uint8",
          "name": "col",
          "type": "uint8"
        },
        {
          "internalType": "bool",
          "name": "dead",
          "type": "bool"
        },
        {
          "internalType": "uint256",
          "name": "commitment",
          "type": "uint256"
        }
      ],
      "stateMutability": "view",
      "type": "function"
    },
    {
      "inputs": [],
      "name": "player1",
      "outputs": [
        {
          "internalType": "address",
          "name": "",
          "type": "address"
        }
      ],
      "stateMutability": "view",
      "type": "function"
    },
    {
      "inputs": [],
      "name": "player1Score",
      "outputs": [
        {
          "internalType": "uint8",
          "name": "",
          "type": "uint8"
        }
      ],
      "stateMutability": "view",
      "type": "function"
    },
    {
      "inputs": [],
      "name": "player2",
      "outputs": [
        {
          "internalType": "address",
          "name": "",
          "type": "address"
        }
      ],
      "stateMutability": "view",
      "type": "function"
    },
    {
      "inputs": [],
      "name": "player2Score",
      "outputs": [
        {
          "internalType": "uint8",
          "name": "",
          "type": "uint8"
        }
      ],
      "stateMutability": "view",
      "type": "function"
    },
    {
      "inputs": [],
      "name": "turnNumber",
      "outputs": [
        {
          "internalType": "uint8",
          "name": "",
          "type": "uint8"
        }
      ],
      "stateMutability": "view",
      "type": "function"
    },
    {
      "inputs": [],
      "name": "getPieces",
      "outputs": [
        {
          "components": [
            {
              "internalType": "uint8",
              "name": "id",
              "type": "uint8"
            },
            {
              "internalType": "enum PieceType",
              "name": "pieceType",
              "type": "uint8"
            },
            {
              "internalType": "address",
              "name": "owner",
              "type": "address"
            },
            {
              "internalType": "uint8",
              "name": "row",
              "type": "uint8"
            },
            {
              "internalType": "uint8",
              "name": "col",
              "type": "uint8"
            },
            {
              "internalType": "bool",
              "name": "dead",
              "type": "bool"
            },
            {
              "internalType": "uint256",
              "name": "commitment",
              "type": "uint256"
            }
          ],
          "internalType": "struct Piece[]",
          "name": "ret",
          "type": "tuple[]"
        }
      ],
      "stateMutability": "view",
      "type": "function"
    },
    {
      "inputs": [],
      "name": "getObjectives",
      "outputs": [
        {
          "components": [
            {
              "internalType": "uint8",
              "name": "id",
              "type": "uint8"
            },
            {
              "internalType": "uint8",
              "name": "value",
              "type": "uint8"
            },
            {
              "internalType": "uint8",
              "name": "row",
              "type": "uint8"
            },
            {
              "internalType": "uint8",
              "name": "col",
              "type": "uint8"
            },
            {
              "internalType": "address",
              "name": "capturedBy",
              "type": "address"
            }
          ],
          "internalType": "struct Objective[]",
          "name": "ret",
          "type": "tuple[]"
        }
      ],
      "stateMutability": "view",
      "type": "function"
    },
    {
      "inputs": [
        {
          "internalType": "uint256",
          "name": "val1",
          "type": "uint256"
        },
        {
          "internalType": "uint256",
          "name": "val2",
          "type": "uint256"
        },
        {
          "internalType": "uint256",
          "name": "val3",
          "type": "uint256"
        }
      ],
      "name": "hashTriple",
      "outputs": [
        {
          "internalType": "uint256",
          "name": "",
          "type": "uint256"
        }
      ],
      "stateMutability": "pure",
      "type": "function"
    },
    {
      "inputs": [
        {
          "components": [
            {
              "internalType": "uint8",
              "name": "id",
              "type": "uint8"
            },
            {
              "internalType": "enum PieceType",
              "name": "pieceType",
              "type": "uint8"
            },
            {
              "internalType": "address",
              "name": "owner",
              "type": "address"
            },
            {
              "internalType": "uint8",
              "name": "row",
              "type": "uint8"
            },
            {
              "internalType": "uint8",
              "name": "col",
              "type": "uint8"
            },
            {
              "internalType": "bool",
              "name": "dead",
              "type": "bool"
            },
            {
              "internalType": "uint256",
              "name": "commitment",
              "type": "uint256"
            }
          ],
          "internalType": "struct Piece",
          "name": "piece",
          "type": "tuple"
        },
        {
          "internalType": "uint8",
          "name": "toRow",
          "type": "uint8"
        },
        {
          "internalType": "uint8",
          "name": "toCol",
          "type": "uint8"
        }
      ],
      "name": "isValidMove",
      "outputs": [
        {
          "internalType": "bool",
          "name": "",
          "type": "bool"
        }
      ],
      "stateMutability": "view",
      "type": "function"
    },
    {
      "inputs": [],
      "name": "gameShouldBeCompleted",
      "outputs": [
        {
          "internalType": "bool",
          "name": "",
          "type": "bool"
        }
      ],
      "stateMutability": "view",
      "type": "function"
    },
    {
      "inputs": [],
      "name": "joinGame",
      "outputs": [],
      "stateMutability": "nonpayable",
      "type": "function"
    },
    {
      "inputs": [
        {
          "internalType": "uint256[2]",
          "name": "_a",
          "type": "uint256[2]"
        },
        {
          "internalType": "uint256[2][2]",
          "name": "_b",
          "type": "uint256[2][2]"
        },
        {
          "internalType": "uint256[2]",
          "name": "_c",
          "type": "uint256[2]"
        },
        {
          "internalType": "uint256[2]",
          "name": "_input",
          "type": "uint256[2]"
        }
      ],
      "name": "checkProof",
      "outputs": [
        {
          "internalType": "bool",
          "name": "",
          "type": "bool"
        }
      ],
      "stateMutability": "nonpayable",
      "type": "function"
    },
    {
      "inputs": [
        {
          "internalType": "uint8",
          "name": "pieceId",
          "type": "uint8"
        },
        {
          "internalType": "uint8",
          "name": "toRow",
          "type": "uint8"
        },
        {
          "internalType": "uint8",
          "name": "toCol",
          "type": "uint8"
        }
      ],
      "name": "movePiece",
      "outputs": [],
      "stateMutability": "nonpayable",
      "type": "function"
    },
    {
      "inputs": [
        {
          "internalType": "uint256[2]",
          "name": "_a",
          "type": "uint256[2]"
        },
        {
          "internalType": "uint256[2][2]",
          "name": "_b",
          "type": "uint256[2][2]"
        },
        {
          "internalType": "uint256[2]",
          "name": "_c",
          "type": "uint256[2]"
        },
        {
          "internalType": "uint256[2]",
          "name": "_input",
          "type": "uint256[2]"
        },
        {
          "internalType": "uint8",
          "name": "pieceId",
          "type": "uint8"
        }
      ],
      "name": "moveGhost",
      "outputs": [],
      "stateMutability": "nonpayable",
      "type": "function"
    },
    {
      "inputs": [
        {
          "internalType": "uint8",
          "name": "pieceId",
          "type": "uint8"
        },
        {
          "internalType": "uint256",
          "name": "row",
          "type": "uint256"
        },
        {
          "internalType": "uint256",
          "name": "col",
          "type": "uint256"
        },
        {
          "internalType": "uint256",
          "name": "salt",
          "type": "uint256"
        }
      ],
      "name": "revealGhost",
      "outputs": [],
      "stateMutability": "nonpayable",
      "type": "function"
    }
  ],
  "bytecode": "0x60806040523480156200001157600080fd5b5060405162005d3038038062005d30833981810160405281019062000037919062001926565b80601360006101000a81548160ff02191690831515021790555060008060016101000a81548160ff021916908360038111156200007057fe5b0217905550604051806101000160405280600160ff168152602001600260ff168152602001600360ff168152602001600460ff168152602001600560ff168152602001600660ff168152602001600760ff168152602001600860ff16815250600f906008620000e19291906200179a565b506040518060c00160405280600960ff168152602001600a60ff168152602001600b60ff168152602001600c60ff168152602001600d60ff168152602001600e60ff168152506011906006620001399291906200183b565b506040518060e00160405280600160ff168152602001600060028111156200015d57fe5b8152602001600073ffffffffffffffffffffffffffffffffffffffff168152602001600060ff168152602001600160ff168152602001600015158152602001600081525060106000600160ff16815260200190815260200160002060008201518160000160006101000a81548160ff021916908360ff16021790555060208201518160000160016101000a81548160ff02191690836002811115620001fe57fe5b021790555060408201518160000160026101000a81548173ffffffffffffffffffffffffffffffffffffffff021916908373ffffffffffffffffffffffffffffffffffffffff16021790555060608201518160000160166101000a81548160ff021916908360ff16021790555060808201518160000160176101000a81548160ff021916908360ff16021790555060a08201518160000160186101000a81548160ff02191690831515021790555060c08201518160010155905050600180600060078110620002c957fe5b01600160078110620002d757fe5b602091828204019190066101000a81548160ff021916908360ff1602179055506040518060e00160405280600260ff168152602001600160028111156200031a57fe5b8152602001600073ffffffffffffffffffffffffffffffffffffffff168152602001600060ff168152602001600360ff168152602001600015158152602001600081525060106000600260ff16815260200190815260200160002060008201518160000160006101000a81548160ff021916908360ff16021790555060208201518160000160016101000a81548160ff02191690836002811115620003bb57fe5b021790555060408201518160000160026101000a81548173ffffffffffffffffffffffffffffffffffffffff021916908373ffffffffffffffffffffffffffffffffffffffff16021790555060608201518160000160166101000a81548160ff021916908360ff16021790555060808201518160000160176101000a81548160ff021916908360ff16021790555060a08201518160000160186101000a81548160ff02191690831515021790555060c08201518160010155905050600260016000600781106200048757fe5b016003600781106200049557fe5b602091828204019190066101000a81548160ff021916908360ff1602179055506040518060e00160405280600360ff16815260200160006002811115620004d857fe5b8152602001600073ffffffffffffffffffffffffffffffffffffffff168152602001600060ff168152602001600560ff168152602001600015158152602001600081525060106000600360ff16815260200190815260200160002060008201518160000160006101000a81548160ff021916908360ff16021790555060208201518160000160016101000a81548160ff021916908360028111156200057957fe5b021790555060408201518160000160026101000a81548173ffffffffffffffffffffffffffffffffffffffff021916908373ffffffffffffffffffffffffffffffffffffffff16021790555060608201518160000160166101000a81548160ff021916908360ff16021790555060808201518160000160176101000a81548160ff021916908360ff16021790555060a08201518160000160186101000a81548160ff02191690831515021790555060c08201518160010155905050600360016000600781106200064557fe5b016005600781106200065357fe5b602091828204019190066101000a81548160ff021916908360ff1602179055506040518060e00160405280600460ff1681526020016002808111156200069557fe5b8152602001600073ffffffffffffffffffffffffffffffffffffffff168152602001600060ff168152602001600060ff1681526020016000151581526020017f0ff36786ffd15ba1a9d2753de6368f3f39ff69833d08a28656f0832ad2aa664781525060106000600460ff16815260200190815260200160002060008201518160000160006101000a81548160ff021916908360ff16021790555060208201518160000160016101000a81548160ff021916908360028111156200075557fe5b021790555060408201518160000160026101000a81548173ffffffffffffffffffffffffffffffffffffffff021916908373ffffffffffffffffffffffffffffffffffffffff16021790555060608201518160000160166101000a81548160ff021916908360ff16021790555060808201518160000160176101000a81548160ff021916908360ff16021790555060a08201518160000160186101000a81548160ff02191690831515021790555060c082015181600101559050506040518060e00160405280600560ff168152602001600060028111156200083357fe5b8152602001600073ffffffffffffffffffffffffffffffffffffffff168152602001600660ff168152602001600160ff168152602001600015158152602001600081525060106000600560ff16815260200190815260200160002060008201518160000160006101000a81548160ff021916908360ff16021790555060208201518160000160016101000a81548160ff02191690836002811115620008d457fe5b021790555060408201518160000160026101000a81548173ffffffffffffffffffffffffffffffffffffffff021916908373ffffffffffffffffffffffffffffffffffffffff16021790555060608201518160000160166101000a81548160ff021916908360ff16021790555060808201518160000160176101000a81548160ff021916908360ff16021790555060a08201518160000160186101000a81548160ff02191690831515021790555060c0820151816001015590505060056001600660078110620009a057fe5b01600160078110620009ae57fe5b602091828204019190066101000a81548160ff021916908360ff1602179055506040518060e00160405280600660ff16815260200160016002811115620009f157fe5b8152602001600073ffffffffffffffffffffffffffffffffffffffff168152602001600660ff168152602001600360ff168152602001600015158152602001600081525060106000600660ff16815260200190815260200160002060008201518160000160006101000a81548160ff021916908360ff16021790555060208201518160000160016101000a81548160ff0219169083600281111562000a9257fe5b021790555060408201518160000160026101000a81548173ffffffffffffffffffffffffffffffffffffffff021916908373ffffffffffffffffffffffffffffffffffffffff16021790555060608201518160000160166101000a81548160ff021916908360ff16021790555060808201518160000160176101000a81548160ff021916908360ff16021790555060a08201518160000160186101000a81548160ff02191690831515021790555060c082015181600101559050506006600160066007811062000b5e57fe5b0160036007811062000b6c57fe5b602091828204019190066101000a81548160ff021916908360ff1602179055506040518060e00160405280600760ff1681526020016000600281111562000baf57fe5b8152602001600073ffffffffffffffffffffffffffffffffffffffff168152602001600660ff168152602001600560ff168152602001600015158152602001600081525060106000600760ff16815260200190815260200160002060008201518160000160006101000a81548160ff021916908360ff16021790555060208201518160000160016101000a81548160ff0219169083600281111562000c5057fe5b021790555060408201518160000160026101000a81548173ffffffffffffffffffffffffffffffffffffffff021916908373ffffffffffffffffffffffffffffffffffffffff16021790555060608201518160000160166101000a81548160ff021916908360ff16021790555060808201518160000160176101000a81548160ff021916908360ff16021790555060a08201518160000160186101000a81548160ff02191690831515021790555060c082015181600101559050506007600160066007811062000d1c57fe5b0160056007811062000d2a57fe5b602091828204019190066101000a81548160ff021916908360ff1602179055506040518060e00160405280600860ff16815260200160028081111562000d6c57fe5b8152602001600073ffffffffffffffffffffffffffffffffffffffff168152602001600660ff168152602001600060ff1681526020016000151581526020017f0ff36786ffd15ba1a9d2753de6368f3f39ff69833d08a28656f0832ad2aa664781525060106000600860ff16815260200190815260200160002060008201518160000160006101000a81548160ff021916908360ff16021790555060208201518160000160016101000a81548160ff0219169083600281111562000e2c57fe5b021790555060408201518160000160026101000a81548173ffffffffffffffffffffffffffffffffffffffff021916908373ffffffffffffffffffffffffffffffffffffffff16021790555060608201518160000160166101000a81548160ff021916908360ff16021790555060808201518160000160176101000a81548160ff021916908360ff16021790555060a08201518160000160186101000a81548160ff02191690831515021790555060c082015181600101559050506040518060a00160405280600960ff168152602001600560ff168152602001600360ff168152602001600060ff168152602001600073ffffffffffffffffffffffffffffffffffffffff1681525060126000600960ff16815260200190815260200160002060008201518160000160006101000a81548160ff021916908360ff16021790555060208201518160000160016101000a81548160ff021916908360ff16021790555060408201518160000160026101000a81548160ff021916908360ff16021790555060608201518160000160036101000a81548160ff021916908360ff16021790555060808201518160000160046101000a81548173ffffffffffffffffffffffffffffffffffffffff021916908373ffffffffffffffffffffffffffffffffffffffff160217905550905050600960086003600781106200102b57fe5b016000600781106200103957fe5b602091828204019190066101000a81548160ff021916908360ff1602179055506040518060a00160405280600a60ff168152602001600560ff168152602001600260ff168152602001600260ff168152602001600073ffffffffffffffffffffffffffffffffffffffff1681525060126000600a60ff16815260200190815260200160002060008201518160000160006101000a81548160ff021916908360ff16021790555060208201518160000160016101000a81548160ff021916908360ff16021790555060408201518160000160026101000a81548160ff021916908360ff16021790555060608201518160000160036101000a81548160ff021916908360ff16021790555060808201518160000160046101000a81548173ffffffffffffffffffffffffffffffffffffffff021916908373ffffffffffffffffffffffffffffffffffffffff160217905550905050600a60086002600781106200119d57fe5b01600260078110620011ab57fe5b602091828204019190066101000a81548160ff021916908360ff1602179055506040518060a00160405280600b60ff168152602001600a60ff168152602001600460ff168152602001600260ff168152602001600073ffffffffffffffffffffffffffffffffffffffff1681525060126000600b60ff16815260200190815260200160002060008201518160000160006101000a81548160ff021916908360ff16021790555060208201518160000160016101000a81548160ff021916908360ff16021790555060408201518160000160026101000a81548160ff021916908360ff16021790555060608201518160000160036101000a81548160ff021916908360ff16021790555060808201518160000160046101000a81548173ffffffffffffffffffffffffffffffffffffffff021916908373ffffffffffffffffffffffffffffffffffffffff160217905550905050600b60086004600781106200130f57fe5b016002600781106200131d57fe5b602091828204019190066101000a81548160ff021916908360ff1602179055506040518060a00160405280600c60ff168152602001600a60ff168152602001600260ff168152602001600460ff168152602001600073ffffffffffffffffffffffffffffffffffffffff1681525060126000600c60ff16815260200190815260200160002060008201518160000160006101000a81548160ff021916908360ff16021790555060208201518160000160016101000a81548160ff021916908360ff16021790555060408201518160000160026101000a81548160ff021916908360ff16021790555060608201518160000160036101000a81548160ff021916908360ff16021790555060808201518160000160046101000a81548173ffffffffffffffffffffffffffffffffffffffff021916908373ffffffffffffffffffffffffffffffffffffffff160217905550905050600c60086002600781106200148157fe5b016004600781106200148f57fe5b602091828204019190066101000a81548160ff021916908360ff1602179055506040518060a00160405280600d60ff168152602001600560ff168152602001600460ff168152602001600460ff168152602001600073ffffffffffffffffffffffffffffffffffffffff1681525060126000600d60ff16815260200190815260200160002060008201518160000160006101000a81548160ff021916908360ff16021790555060208201518160000160016101000a81548160ff021916908360ff16021790555060408201518160000160026101000a81548160ff021916908360ff16021790555060608201518160000160036101000a81548160ff021916908360ff16021790555060808201518160000160046101000a81548173ffffffffffffffffffffffffffffffffffffffff021916908373ffffffffffffffffffffffffffffffffffffffff160217905550905050600d6008600460078110620015f357fe5b016004600781106200160157fe5b602091828204019190066101000a81548160ff021916908360ff1602179055506040518060a00160405280600e60ff168152602001600560ff168152602001600360ff168152602001600660ff168152602001600073ffffffffffffffffffffffffffffffffffffffff1681525060126000600e60ff16815260200190815260200160002060008201518160000160006101000a81548160ff021916908360ff16021790555060208201518160000160016101000a81548160ff021916908360ff16021790555060408201518160000160026101000a81548160ff021916908360ff16021790555060608201518160000160036101000a81548160ff021916908360ff16021790555060808201518160000160046101000a81548173ffffffffffffffffffffffffffffffffffffffff021916908373ffffffffffffffffffffffffffffffffffffffff160217905550905050600e60086003600781106200176557fe5b016006600781106200177357fe5b602091828204019190066101000a81548160ff021916908360ff1602179055505062001978565b826008601f01602090048101928215620018285791602002820160005b83821115620017f757835183826101000a81548160ff021916908360ff1602179055509260200192600101602081600001049283019260010302620017b7565b8015620018265782816101000a81549060ff0219169055600101602081600001049283019260010302620017f7565b505b509050620018379190620018dc565b5090565b826006601f01602090048101928215620018c95791602002820160005b838211156200189857835183826101000a81548160ff021916908360ff160217905550926020019260010160208160000104928301926001030262001858565b8015620018c75782816101000a81549060ff021916905560010160208160000104928301926001030262001898565b505b509050620018d89190620018dc565b5090565b6200190c91905b808211156200190857600081816101000a81549060ff021916905550600101620018e3565b5090565b90565b60008151905062001920816200195e565b92915050565b6000602082840312156200193957600080fd5b600062001949848285016200190f565b91505092915050565b60008115159050919050565b620019698162001952565b81146200197557600080fd5b50565b6143a880620019886000396000f3fe608060405234801561001057600080fd5b506004361061018d5760003560e01c80638af9d562116100de578063cfecc6de11610097578063d4f77b1c11610071578063d4f77b1c146104bc578063dc4a3e95146104c6578063e645206a146104e4578063fb2fac76146105005761018d565b8063cfecc6de14610450578063d1f9c24d14610480578063d30895e41461049e5761018d565b80638af9d56214610378578063acbc1a9114610396578063b0228246146103b4578063bd91fdb4146103e4578063c6204ee214610402578063cf615f6c146104325761018d565b806351df541c1161014b57806359a5f12d1161012557806359a5f12d146102ea5780635c3beb32146103085780637174f2c01461033c5780637e15247d1461035a5761018d565b806351df541c14610292578063562fb427146102b05780635700401e146102cc5761018d565b80621c7f2214610192578063210851b5146101c25780632c784f32146101f25780633fb7388e14610228578063414a37ba1461025857806342ceecf514610276575b600080fd5b6101ac60048036038101906101a791906133fb565b610530565b6040516101b99190613f7d565b60405180910390f35b6101dc60048036038101906101d79190613309565b610788565b6040516101e99190613d87565b60405180910390f35b61020c6004803603810190610207919061344a565b610a91565b60405161021f9796959493929190613fea565b60405180910390f35b610242600480360381019061023d9190613383565b610b34565b60405161024f9190613fcf565b60405180910390f35b610260610b6a565b60405161026d9190613f7d565b60405180910390f35b610290600480360381019061028b9190613473565b610b8e565b005b61029a6110a5565b6040516102a79190613d87565b60405180910390f35b6102ca60048036038101906102c59190613266565b611218565b005b6102d4611678565b6040516102e19190613fcf565b60405180910390f35b6102f261168a565b6040516102ff9190613c9d565b60405180910390f35b610322600480360381019061031d919061344a565b6116b0565b604051610333959493929190614059565b60405180910390f35b61034461173a565b6040516103519190613fcf565b60405180910390f35b61036261174c565b60405161036f9190613cfc565b60405180910390f35b6103806118f6565b60405161038d9190613d87565b60405180910390f35b61039e611909565b6040516103ab9190613f7d565b60405180910390f35b6103ce60048036038101906103c99190613383565b61192d565b6040516103db9190613fcf565b60405180910390f35b6103ec611963565b6040516103f99190613fcf565b60405180910390f35b61041c6004803603810190610417919061335a565b611976565b6040516104299190613fcf565b60405180910390f35b61043a61199d565b6040516104479190613d1e565b60405180910390f35b61046a6004803603810190610465919061335a565b611b7c565b6040516104779190613fcf565b60405180910390f35b610488611ba3565b6040516104959190613da2565b60405180910390f35b6104a6611bb6565b6040516104b39190613c9d565b60405180910390f35b6104c4611bdc565b005b6104ce612050565b6040516104db9190613f7d565b60405180910390f35b6104fe60048036038101906104f991906134d6565b612055565b005b61051a60048036038101906105159190613201565b612798565b6040516105279190613d87565b60405180910390f35b6000806000905060008090507f30644e72e131a029b85045b68181585d2833e84879b9709143e1f593f00000018061056457fe5b868308915073__Hasher________________________________633f1a1187838360006040518463ffffffff1660e01b81526004016105a593929190613f98565b604080518083038186803b1580156105bc57600080fd5b505af41580156105d0573d6000803e3d6000fd5b505050506040513d601f19601f820116820180604052508101906105f491906133bf565b80925081935050507f30644e72e131a029b85045b68181585d2833e84879b9709143e1f593f00000018061062457fe5b858308915073__Hasher________________________________633f1a1187838360006040518463ffffffff1660e01b815260040161066593929190613f98565b604080518083038186803b15801561067c57600080fd5b505af4158015610690573d6000803e3d6000fd5b505050506040513d601f19601f820116820180604052508101906106b491906133bf565b80925081935050507f30644e72e131a029b85045b68181585d2833e84879b9709143e1f593f0000001806106e457fe5b848308915073__Hasher________________________________633f1a1187838360006040518463ffffffff1660e01b815260040161072593929190613f98565b604080518083038186803b15801561073c57600080fd5b505af4158015610750573d6000803e3d6000fd5b505050506040513d601f19601f8201168201806040525081019061077491906133bf565b809250819350505081925050509392505050565b600060078360ff161015806107a1575060078260ff1610155b156107af5760009050610a8a565b600060018460ff16600781106107c157fe5b018360ff16600781106107d057fe5b602091828204019190069054906101000a900460ff1660ff1611156107f85760009050610a8a565b60028081111561080457fe5b8460200151600281111561081457fe5b14156108235760009050610a8a565b6000600281111561083057fe5b8460200151600281111561084057fe5b1415610926578260ff16846060015160ff1614801561086857508160ff16846080015160ff16145b156108765760009050610a8a565b60008360ff16856060015160ff1603905060018160010b13806108bb57507fffffffffffffffffffffffffffffffffffffffffffffffffffffffffffffffff8160010b125b156108ca576000915050610a8a565b60008360ff16866080015160ff1603905060018160010b138061090f57507fffffffffffffffffffffffffffffffffffffffffffffffffffffffffffffffff8160010b125b1561091f57600092505050610a8a565b5050610a85565b6001600281111561093357fe5b8460200151600281111561094357fe5b1415610a845760008360ff16856060015160ff1603905060008360ff16866080015160ff1603905060028260010b148061099f57507ffffffffffffffffffffffffffffffffffffffffffffffffffffffffffffffffe8260010b145b156109f05760018160010b141580156109db57507fffffffffffffffffffffffffffffffffffffffffffffffffffffffffffffffff8160010b14155b156109eb57600092505050610a8a565b610a81565b60018260010b1480610a2457507fffffffffffffffffffffffffffffffffffffffffffffffffffffffffffffffff8260010b145b15610a755760028160010b14158015610a6057507ffffffffffffffffffffffffffffffffffffffffffffffffffffffffffffffffe8160010b14155b15610a7057600092505050610a8a565b610a80565b600092505050610a8a565b5b50505b5b600190505b9392505050565b60106020528060005260406000206000915090508060000160009054906101000a900460ff16908060000160019054906101000a900460ff16908060000160029054906101000a900473ffffffffffffffffffffffffffffffffffffffff16908060000160169054906101000a900460ff16908060000160179054906101000a900460ff16908060000160189054906101000a900460ff16908060010154905087565b60018260078110610b4157fe5b018160078110610b4d57fe5b60209182820401919006915091509054906101000a900460ff1681565b7f30644e72e131a029b85045b68181585d2833e84879b9709143e1f593f000000181565b600380811115610b9a57fe5b600060019054906101000a900460ff166003811115610bb557fe5b1415610bf6576040517f08c379a0000000000000000000000000000000000000000000000000000000008152600401610bed90613e7d565b60405180910390fd5b601360019054906101000a900473ffffffffffffffffffffffffffffffffffffffff1673ffffffffffffffffffffffffffffffffffffffff163373ffffffffffffffffffffffffffffffffffffffff161415610cb55760016003811115610c5957fe5b600060019054906101000a900460ff166003811115610c7457fe5b14610cb4576040517f08c379a0000000000000000000000000000000000000000000000000000000008152600401610cab90613f5d565b60405180910390fd5b5b601460009054906101000a900473ffffffffffffffffffffffffffffffffffffffff1673ffffffffffffffffffffffffffffffffffffffff163373ffffffffffffffffffffffffffffffffffffffff161415610d745760026003811115610d1857fe5b600060019054906101000a900460ff166003811115610d3357fe5b14610d73576040517f08c379a0000000000000000000000000000000000000000000000000000000008152600401610d6a90613e9d565b60405180910390fd5b5b60008060009054906101000a900460ff1660ff1611610dc8576040517f08c379a0000000000000000000000000000000000000000000000000000000008152600401610dbf90613efd565b60405180910390fd5b6000601060008660ff1660ff1681526020019081526020016000209050600280811115610df157fe5b8160000160019054906101000a900460ff166002811115610e0e57fe5b14610e4e576040517f08c379a0000000000000000000000000000000000000000000000000000000008152600401610e4590613e5d565b60405180910390fd5b3373ffffffffffffffffffffffffffffffffffffffff168160000160029054906101000a900473ffffffffffffffffffffffffffffffffffffffff1673ffffffffffffffffffffffffffffffffffffffff1614610ee0576040517f08c379a0000000000000000000000000000000000000000000000000000000008152600401610ed790613f3d565b60405180910390fd5b8060010154610ef0858585610530565b14610f30576040517f08c379a0000000000000000000000000000000000000000000000000000000008152600401610f2790613ebd565b60405180910390fd5b60006010600060018760078110610f4357fe5b018660078110610f4f57fe5b602091828204019190069054906101000a900460ff1660ff1660ff16815260200190815260200160002090506000601360019054906101000a900473ffffffffffffffffffffffffffffffffffffffff169050601360019054906101000a900473ffffffffffffffffffffffffffffffffffffffff1673ffffffffffffffffffffffffffffffffffffffff163373ffffffffffffffffffffffffffffffffffffffff16141561101e57601460009054906101000a900473ffffffffffffffffffffffffffffffffffffffff1690505b8073ffffffffffffffffffffffffffffffffffffffff168260000160029054906101000a900473ffffffffffffffffffffffffffffffffffffffff1673ffffffffffffffffffffffffffffffffffffffff1614156110945760018260000160186101000a81548160ff0219169083151502179055505b61109c6128d1565b50505050505050565b6000806001905060008090505b60088160ff1610156111275760106000600f8360ff16600881106110d257fe5b602091828204019190069054906101000a900460ff1660ff1660ff16815260200190815260200160002060000160189054906101000a900460ff1661111a5760009150611127565b80806001019150506110b2565b508015611138576001915050611215565b60006001905060008090505b60068160ff1610156111fc57600073ffffffffffffffffffffffffffffffffffffffff166012600060118460ff166006811061117c57fe5b602091828204019190069054906101000a900460ff1660ff1660ff16815260200190815260200160002060000160049054906101000a900473ffffffffffffffffffffffffffffffffffffffff1673ffffffffffffffffffffffffffffffffffffffff1614156111ef57600091506111fc565b8080600101915050611144565b50801561120e57600192505050611215565b6000925050505b90565b60038081111561122457fe5b600060019054906101000a900460ff16600381111561123f57fe5b1415611280576040517f08c379a000000000000000000000000000000000000000000000000000000000815260040161127790613e7d565b60405180910390fd5b601360019054906101000a900473ffffffffffffffffffffffffffffffffffffffff1673ffffffffffffffffffffffffffffffffffffffff163373ffffffffffffffffffffffffffffffffffffffff16141561133f57600160038111156112e357fe5b600060019054906101000a900460ff1660038111156112fe57fe5b1461133e576040517f08c379a000000000000000000000000000000000000000000000000000000000815260040161133590613f5d565b60405180910390fd5b5b601460009054906101000a900473ffffffffffffffffffffffffffffffffffffffff1673ffffffffffffffffffffffffffffffffffffffff163373ffffffffffffffffffffffffffffffffffffffff1614156113fe57600260038111156113a257fe5b600060019054906101000a900460ff1660038111156113bd57fe5b146113fd576040517f08c379a00000000000000000000000000000000000000000000000000000000081526004016113f490613e9d565b60405180910390fd5b5b6000601060008360ff1660ff168152602001908152602001600020905060028081111561142757fe5b8160000160019054906101000a900460ff16600281111561144457fe5b14611484576040517f08c379a000000000000000000000000000000000000000000000000000000000815260040161147b90613e5d565b60405180910390fd5b3373ffffffffffffffffffffffffffffffffffffffff168160000160029054906101000a900473ffffffffffffffffffffffffffffffffffffffff1673ffffffffffffffffffffffffffffffffffffffff1614611516576040517f08c379a000000000000000000000000000000000000000000000000000000000815260040161150d90613f3d565b60405180910390fd5b8260006002811061152357fe5b602002015181600101541461156d576040517f08c379a000000000000000000000000000000000000000000000000000000000815260040161156490613edd565b60405180910390fd5b601360009054906101000a900460ff1661164e5773__Verifier______________________________63ab475307878787876040518563ffffffff1660e01b81526004016115be9493929190613d40565b60206040518083038186803b1580156115d657600080fd5b505af41580156115ea573d6000803e3d6000fd5b505050506040513d601f19601f8201168201806040525081019061160e91906132e0565b61164d576040517f08c379a000000000000000000000000000000000000000000000000000000000815260040161164490613e1d565b60405180910390fd5b5b8260016002811061165b57fe5b602002015181600101819055506116706128d1565b505050505050565b6000809054906101000a900460ff1681565b601460009054906101000a900473ffffffffffffffffffffffffffffffffffffffff1681565b60126020528060005260406000206000915090508060000160009054906101000a900460ff16908060000160019054906101000a900460ff16908060000160029054906101000a900460ff16908060000160039054906101000a900460ff16908060000160049054906101000a900473ffffffffffffffffffffffffffffffffffffffff16905085565b6014809054906101000a900460ff1681565b6060600667ffffffffffffffff8111801561176657600080fd5b506040519080825280602002602001820160405280156117a057816020015b61178d612f1c565b8152602001906001900390816117855790505b50905060008090505b60068160ff1610156118ef576012600060118360ff16600681106117c957fe5b602091828204019190069054906101000a900460ff1660ff1660ff1681526020019081526020016000206040518060a00160405290816000820160009054906101000a900460ff1660ff1660ff1681526020016000820160019054906101000a900460ff1660ff1660ff1681526020016000820160029054906101000a900460ff1660ff1660ff1681526020016000820160039054906101000a900460ff1660ff1660ff1681526020016000820160049054906101000a900473ffffffffffffffffffffffffffffffffffffffff1673ffffffffffffffffffffffffffffffffffffffff1673ffffffffffffffffffffffffffffffffffffffff1681525050828260ff16815181106118d757fe5b602002602001018190525080806001019150506117a9565b5080905090565b601360009054906101000a900460ff1681565b7f0ff36786ffd15ba1a9d2753de6368f3f39ff69833d08a28656f0832ad2aa664781565b6008826007811061193a57fe5b01816007811061194657fe5b60209182820401919006915091509054906101000a900460ff1681565b601460159054906101000a900460ff1681565b6011816006811061198357fe5b60209182820401919006915054906101000a900460ff1681565b6060600867ffffffffffffffff811180156119b757600080fd5b506040519080825280602002602001820160405280156119f157816020015b6119de612f6d565b8152602001906001900390816119d65790505b50905060008090505b60088160ff161015611b755760106000600f8360ff1660088110611a1a57fe5b602091828204019190069054906101000a900460ff1660ff1660ff1681526020019081526020016000206040518060e00160405290816000820160009054906101000a900460ff1660ff1660ff1681526020016000820160019054906101000a900460ff166002811115611a8a57fe5b6002811115611a9557fe5b81526020016000820160029054906101000a900473ffffffffffffffffffffffffffffffffffffffff1673ffffffffffffffffffffffffffffffffffffffff1673ffffffffffffffffffffffffffffffffffffffff1681526020016000820160169054906101000a900460ff1660ff1660ff1681526020016000820160179054906101000a900460ff1660ff1660ff1681526020016000820160189054906101000a900460ff16151515158152602001600182015481525050828260ff1681518110611b5d57fe5b602002602001018190525080806001019150506119fa565b5080905090565b600f8160088110611b8957fe5b60209182820401919006915054906101000a900460ff1681565b600060019054906101000a900460ff1681565b601360019054906101000a900473ffffffffffffffffffffffffffffffffffffffff1681565b60006003811115611be957fe5b600060019054906101000a900460ff166003811115611c0457fe5b14611c44576040517f08c379a0000000000000000000000000000000000000000000000000000000008152600401611c3b90613f1d565b60405180910390fd5b600073ffffffffffffffffffffffffffffffffffffffff16601360019054906101000a900473ffffffffffffffffffffffffffffffffffffffff1673ffffffffffffffffffffffffffffffffffffffff161415611ce15733601360016101000a81548173ffffffffffffffffffffffffffffffffffffffff021916908373ffffffffffffffffffffffffffffffffffffffff16021790555061204e565b601360019054906101000a900473ffffffffffffffffffffffffffffffffffffffff1673ffffffffffffffffffffffffffffffffffffffff163373ffffffffffffffffffffffffffffffffffffffff161415611d72576040517f08c379a0000000000000000000000000000000000000000000000000000000008152600401611d6990613ddd565b60405180910390fd5b600060024281611d7e57fe5b061415611dcb5733601460006101000a81548173ffffffffffffffffffffffffffffffffffffffff021916908373ffffffffffffffffffffffffffffffffffffffff160217905550611e70565b601360019054906101000a900473ffffffffffffffffffffffffffffffffffffffff16601460006101000a81548173ffffffffffffffffffffffffffffffffffffffff021916908373ffffffffffffffffffffffffffffffffffffffff16021790555033601360016101000a81548173ffffffffffffffffffffffffffffffffffffffff021916908373ffffffffffffffffffffffffffffffffffffffff1602179055505b6000600190505b60058160ff161015611f0d57601360019054906101000a900473ffffffffffffffffffffffffffffffffffffffff16601060008360ff1660ff16815260200190815260200160002060000160026101000a81548173ffffffffffffffffffffffffffffffffffffffff021916908373ffffffffffffffffffffffffffffffffffffffff1602179055508080600101915050611e77565b506000600590505b60098160ff161015611fab57601460009054906101000a900473ffffffffffffffffffffffffffffffffffffffff16601060008360ff1660ff16815260200190815260200160002060000160026101000a81548173ffffffffffffffffffffffffffffffffffffffff021916908373ffffffffffffffffffffffffffffffffffffffff1602179055508080600101915050611f15565b506001600060016101000a81548160ff02191690836003811115611fcb57fe5b02179055507f8fd707874eb940598510258c64cad23fd35fe8c85c5c38e8782fac2cc887fb6e601360019054906101000a900473ffffffffffffffffffffffffffffffffffffffff16601460009054906101000a900473ffffffffffffffffffffffffffffffffffffffff16604051612045929190613cd3565b60405180910390a15b565b600781565b60038081111561206157fe5b600060019054906101000a900460ff16600381111561207c57fe5b14156120bd576040517f08c379a00000000000000000000000000000000000000000000000000000000081526004016120b490613e7d565b60405180910390fd5b601360019054906101000a900473ffffffffffffffffffffffffffffffffffffffff1673ffffffffffffffffffffffffffffffffffffffff163373ffffffffffffffffffffffffffffffffffffffff16141561217c576001600381111561212057fe5b600060019054906101000a900460ff16600381111561213b57fe5b1461217b576040517f08c379a000000000000000000000000000000000000000000000000000000000815260040161217290613f5d565b60405180910390fd5b5b601460009054906101000a900473ffffffffffffffffffffffffffffffffffffffff1673ffffffffffffffffffffffffffffffffffffffff163373ffffffffffffffffffffffffffffffffffffffff16141561223b57600260038111156121df57fe5b600060019054906101000a900460ff1660038111156121fa57fe5b1461223a576040517f08c379a000000000000000000000000000000000000000000000000000000000815260040161223190613e9d565b60405180910390fd5b5b6000601060008560ff1660ff16815260200190815260200160002090503373ffffffffffffffffffffffffffffffffffffffff168160000160029054906101000a900473ffffffffffffffffffffffffffffffffffffffff1673ffffffffffffffffffffffffffffffffffffffff16146122ea576040517f08c379a00000000000000000000000000000000000000000000000000000000081526004016122e190613f3d565b60405180910390fd5b8060000160189054906101000a900460ff161561233c576040517f08c379a000000000000000000000000000000000000000000000000000000000815260040161233390613dbd565b60405180910390fd5b612451816040518060e00160405290816000820160009054906101000a900460ff1660ff1660ff1681526020016000820160019054906101000a900460ff16600281111561238657fe5b600281111561239157fe5b81526020016000820160029054906101000a900473ffffffffffffffffffffffffffffffffffffffff1673ffffffffffffffffffffffffffffffffffffffff1673ffffffffffffffffffffffffffffffffffffffff1681526020016000820160169054906101000a900460ff1660ff1660ff1681526020016000820160179054906101000a900460ff1660ff1660ff1681526020016000820160189054906101000a900460ff161515151581526020016001820154815250508484610788565b612490576040517f08c379a000000000000000000000000000000000000000000000000000000000815260040161248790613e3d565b60405180910390fd5b600060018260000160169054906101000a900460ff1660ff16600781106124b357fe5b018260000160179054906101000a900460ff1660ff16600781106124d357fe5b602091828204019190066101000a81548160ff021916908360ff1602179055508060000160009054906101000a900460ff1660018460ff166007811061251557fe5b018360ff166007811061252457fe5b602091828204019190066101000a81548160ff021916908360ff160217905550828160000160166101000a81548160ff021916908360ff160217905550818160000160176101000a81548160ff021916908360ff16021790555060006012600060088660ff166007811061259457fe5b018560ff16600781106125a357fe5b602091828204019190069054906101000a900460ff1660ff1660ff16815260200190815260200160002060000160019054906101000a900460ff1660ff1611801561268a5750600073ffffffffffffffffffffffffffffffffffffffff166012600060088660ff166007811061261557fe5b018560ff166007811061262457fe5b602091828204019190069054906101000a900460ff1660ff1660ff16815260200190815260200160002060000160049054906101000a900473ffffffffffffffffffffffffffffffffffffffff1673ffffffffffffffffffffffffffffffffffffffff16145b1561278a57601360019054906101000a900473ffffffffffffffffffffffffffffffffffffffff1673ffffffffffffffffffffffffffffffffffffffff163373ffffffffffffffffffffffffffffffffffffffff1614156127395760088360ff16600781106126f557fe5b018260ff166007811061270457fe5b602091828204019190069054906101000a900460ff16601460166101000a81548160ff021916908360ff160217905550612789565b60088360ff166007811061274957fe5b018260ff166007811061275857fe5b602091828204019190069054906101000a900460ff16601460176101000a81548160ff021916908360ff1602179055505b5b6127926128d1565b50505050565b6000601360009054906101000a900460ff1661287b5773__Verifier______________________________63ab475307868686866040518563ffffffff1660e01b81526004016127eb9493929190613d40565b60206040518083038186803b15801561280357600080fd5b505af4158015612817573d6000803e3d6000fd5b505050506040513d601f19601f8201168201806040525081019061283b91906132e0565b61287a576040517f08c379a000000000000000000000000000000000000000000000000000000000815260040161287190613dfd565b60405180910390fd5b5b60016015600082825401925050819055507f4eb5ee08f6bd1352ed7b0dac0ee5e5b7cb984b0477d694d9db613b705f47f2ab6015546040516128bd9190613f7d565b60405180910390a160019050949350505050565b601360019054906101000a900473ffffffffffffffffffffffffffffffffffffffff1673ffffffffffffffffffffffffffffffffffffffff163373ffffffffffffffffffffffffffffffffffffffff161415612bc057600060126000601460179054906101000a900460ff1660ff1660ff168152602001908152602001600020905060008160000160019054906101000a900460ff1660ff161180156129c75750600073ffffffffffffffffffffffffffffffffffffffff168160000160049054906101000a900473ffffffffffffffffffffffffffffffffffffffff1673ffffffffffffffffffffffffffffffffffffffff16145b15612b7a5760006010600060018460000160029054906101000a900460ff1660ff16600781106129f357fe5b018460000160039054906101000a900460ff1660ff1660078110612a1357fe5b602091828204019190069054906101000a900460ff1660ff1660ff1681526020019081526020016000209050601460009054906101000a900473ffffffffffffffffffffffffffffffffffffffff1673ffffffffffffffffffffffffffffffffffffffff168160000160029054906101000a900473ffffffffffffffffffffffffffffffffffffffff1673ffffffffffffffffffffffffffffffffffffffff16148015612acf57508060000160189054906101000a900460ff16155b15612b7857601460009054906101000a900473ffffffffffffffffffffffffffffffffffffffff168260000160046101000a81548173ffffffffffffffffffffffffffffffffffffffff021916908373ffffffffffffffffffffffffffffffffffffffff1602179055508160000160019054906101000a900460ff16601460158282829054906101000a900460ff160192506101000a81548160ff021916908360ff1602179055505b505b6000601460176101000a81548160ff021916908360ff1602179055506002600060016101000a81548160ff02191690836003811115612bb557fe5b021790555050612e85565b600060126000601460169054906101000a900460ff1660ff1660ff168152602001908152602001600020905060008160000160019054906101000a900460ff1660ff16118015612c605750600073ffffffffffffffffffffffffffffffffffffffff168160000160049054906101000a900473ffffffffffffffffffffffffffffffffffffffff1673ffffffffffffffffffffffffffffffffffffffff16145b15612e125760006010600060018460000160029054906101000a900460ff1660ff1660078110612c8c57fe5b018460000160039054906101000a900460ff1660ff1660078110612cac57fe5b602091828204019190069054906101000a900460ff1660ff1660ff1681526020019081526020016000209050601360019054906101000a900473ffffffffffffffffffffffffffffffffffffffff1673ffffffffffffffffffffffffffffffffffffffff168160000160029054906101000a900473ffffffffffffffffffffffffffffffffffffffff1673ffffffffffffffffffffffffffffffffffffffff16148015612d6857508060000160189054906101000a900460ff16155b15612e1057601360019054906101000a900473ffffffffffffffffffffffffffffffffffffffff168260000160046101000a81548173ffffffffffffffffffffffffffffffffffffffff021916908373ffffffffffffffffffffffffffffffffffffffff1602179055508160000160019054906101000a900460ff166014808282829054906101000a900460ff160192506101000a81548160ff021916908360ff1602179055505b505b6000601460166101000a81548160ff021916908360ff16021790555060008081819054906101000a900460ff168092919060010191906101000a81548160ff021916908360ff160217905550506001600060016101000a81548160ff02191690836003811115612e7e57fe5b0217905550505b7f8eaa9f09cc5e3b56163bc8d93f99b4299c7172f83d51d1448e8d9a3dc6d1a10133604051612eb49190613cb8565b60405180910390a1612ec46110a5565b15612f1a576003600060016101000a81548160ff02191690836003811115612ee857fe5b02179055507fb537cbcadc098cfedf5a04ef7e68a8554b55f7e45bfdaca1cbc51a686ef65f4860405160405180910390a15b565b6040518060a00160405280600060ff168152602001600060ff168152602001600060ff168152602001600060ff168152602001600073ffffffffffffffffffffffffffffffffffffffff1681525090565b6040518060e00160405280600060ff16815260200160006002811115612f8f57fe5b8152602001600073ffffffffffffffffffffffffffffffffffffffff168152602001600060ff168152602001600060ff168152602001600015158152602001600081525090565b600081359050612fe581614306565b92915050565b600082601f830112612ffc57600080fd5b600261300f61300a826140d9565b6140ac565b9150818385604084028201111561302557600080fd5b60005b83811015613055578161303b888261305f565b845260208401935060408301925050600181019050613028565b5050505092915050565b600082601f83011261307057600080fd5b600261308361307e826140fb565b6140ac565b9150818385602084028201111561309957600080fd5b60005b838110156130c957816130af88826131c2565b84526020840193506020830192505060018101905061309c565b5050505092915050565b6000813590506130e28161431d565b92915050565b6000815190506130f78161431d565b92915050565b60008135905061310c81614334565b92915050565b600060e0828403121561312457600080fd5b61312e60e06140ac565b9050600061313e848285016131ec565b6000830152506020613152848285016130fd565b602083015250604061316684828501612fd6565b604083015250606061317a848285016131ec565b606083015250608061318e848285016131ec565b60808301525060a06131a2848285016130d3565b60a08301525060c06131b6848285016131c2565b60c08301525092915050565b6000813590506131d181614344565b92915050565b6000815190506131e681614344565b92915050565b6000813590506131fb8161435b565b92915050565b600080600080610140858703121561321857600080fd5b60006132268782880161305f565b945050604061323787828801612feb565b93505060c06132488782880161305f565b92505061010061325a8782880161305f565b91505092959194509250565b6000806000806000610160868803121561327f57600080fd5b600061328d8882890161305f565b955050604061329e88828901612feb565b94505060c06132af8882890161305f565b9350506101006132c18882890161305f565b9250506101406132d3888289016131ec565b9150509295509295909350565b6000602082840312156132f257600080fd5b6000613300848285016130e8565b91505092915050565b6000806000610120848603121561331f57600080fd5b600061332d86828701613112565b93505060e061333e868287016131ec565b925050610100613350868287016131ec565b9150509250925092565b60006020828403121561336c57600080fd5b600061337a848285016131c2565b91505092915050565b6000806040838503121561339657600080fd5b60006133a4858286016131c2565b92505060206133b5858286016131c2565b9150509250929050565b600080604083850312156133d257600080fd5b60006133e0858286016131d7565b92505060206133f1858286016131d7565b9150509250929050565b60008060006060848603121561341057600080fd5b600061341e868287016131c2565b935050602061342f868287016131c2565b9250506040613440868287016131c2565b9150509250925092565b60006020828403121561345c57600080fd5b600061346a848285016131ec565b91505092915050565b6000806000806080858703121561348957600080fd5b6000613497878288016131ec565b94505060206134a8878288016131c2565b93505060406134b9878288016131c2565b92505060606134ca878288016131c2565b91505092959194509250565b6000806000606084860312156134eb57600080fd5b60006134f9868287016131ec565b935050602061350a868287016131ec565b925050604061351b868287016131ec565b9150509250925092565b6000613531838361371c565b60408301905092915050565b60006135498383613b4d565b60a08301905092915050565b60006135618383613bb5565b60e08301905092915050565b60006135798383613c70565b60208301905092915050565b61358e81614280565b82525050565b61359d81614205565b82525050565b6135ac81614205565b82525050565b6135bb81614151565b6135c581846141b1565b92506135d08261411d565b8060005b838110156136015781516135e88782613525565b96506135f38361417d565b9250506001810190506135d4565b505050505050565b60006136148261415c565b61361e81856141bc565b935061362983614127565b8060005b8381101561365a578151613641888261353d565b975061364c8361418a565b92505060018101905061362d565b5085935050505092915050565b600061367282614167565b61367c81856141cd565b935061368783614137565b8060005b838110156136b857815161369f8882613555565b97506136aa83614197565b92505060018101905061368b565b5085935050505092915050565b6136ce81614172565b6136d881846141de565b92506136e382614147565b8060005b838110156137145781516136fb878261356d565b9650613706836141a4565b9250506001810190506136e7565b505050505050565b61372581614172565b61372f81846141e9565b925061373a82614147565b8060005b8381101561376b578151613752878261356d565b965061375d836141a4565b92505060018101905061373e565b505050505050565b61377c81614217565b82525050565b61378b81614217565b82525050565b61379a81614292565b82525050565b6137a9816142a4565b82525050565b6137b8816142a4565b82525050565b6137c7816142b6565b82525050565b60006137da600d836141f4565b91507f50696563652069732064656164000000000000000000000000000000000000006000830152602082019050919050565b600061381a6015836141f4565b91507f63616e2774206a6f696e2067616d6520747769636500000000000000000000006000830152602082019050919050565b600061385a6017836141f4565b91507f4661696c656420696e69742070726f6f6620636865636b0000000000000000006000830152602082019050919050565b600061389a6014836141f4565b91507f4661696c6564207a6b206d6f766520636865636b0000000000000000000000006000830152602082019050919050565b60006138da600c836141f4565b91507f496e76616c6964206d6f766500000000000000000000000000000000000000006000830152602082019050919050565b600061391a6015836141f4565b91507f5069656365206d75737420626520612067686f737400000000000000000000006000830152602082019050919050565b600061395a600d836141f4565b91507f47616d6520697320656e646564000000000000000000000000000000000000006000830152602082019050919050565b600061399a600d836141f4565b91507f4e6f742070322773207475726e000000000000000000000000000000000000006000830152602082019050919050565b60006139da600e836141f4565b91507f496e76616c69642072657665616c0000000000000000000000000000000000006000830152602082019050919050565b6000613a1a6010836141f4565b91507f5a4b2050726f6f6620696e76616c6964000000000000000000000000000000006000830152602082019050919050565b6000613a5a601d836141f4565b91507f4d757374206d6f76652067686f7374206f6e206669727374207475726e0000006000830152602082019050919050565b6000613a9a6014836141f4565b91507f47616d6520616c726561647920737461727465640000000000000000000000006000830152602082019050919050565b6000613ada6018836141f4565b91507f596f7520646f6e2774206f776e207468617420706965636500000000000000006000830152602082019050919050565b6000613b1a600d836141f4565b91507f4e6f742070312773207475726e000000000000000000000000000000000000006000830152602082019050919050565b60a082016000820151613b636000850182613c7f565b506020820151613b766020850182613c7f565b506040820151613b896040850182613c7f565b506060820151613b9c6060850182613c7f565b506080820151613baf6080850182613594565b50505050565b60e082016000820151613bcb6000850182613c7f565b506020820151613bde60208501826137a0565b506040820151613bf16040850182613594565b506060820151613c046060850182613c7f565b506080820151613c176080850182613c7f565b5060a0820151613c2a60a0850182613773565b5060c0820151613c3d60c0850182613c43565b50505050565b613c4c81614269565b82525050565b613c5b81614269565b82525050565b613c6a81614269565b82525050565b613c7981614269565b82525050565b613c8881614273565b82525050565b613c9781614273565b82525050565b6000602082019050613cb260008301846135a3565b92915050565b6000602082019050613ccd6000830184613585565b92915050565b6000604082019050613ce860008301856135a3565b613cf560208301846135a3565b9392505050565b60006020820190508181036000830152613d168184613609565b905092915050565b60006020820190508181036000830152613d388184613667565b905092915050565b600061014082019050613d5660008301876136c5565b613d6360408301866135b2565b613d7060c08301856136c5565b613d7e6101008301846136c5565b95945050505050565b6000602082019050613d9c6000830184613782565b92915050565b6000602082019050613db76000830184613791565b92915050565b60006020820190508181036000830152613dd6816137cd565b9050919050565b60006020820190508181036000830152613df68161380d565b9050919050565b60006020820190508181036000830152613e168161384d565b9050919050565b60006020820190508181036000830152613e368161388d565b9050919050565b60006020820190508181036000830152613e56816138cd565b9050919050565b60006020820190508181036000830152613e768161390d565b9050919050565b60006020820190508181036000830152613e968161394d565b9050919050565b60006020820190508181036000830152613eb68161398d565b9050919050565b60006020820190508181036000830152613ed6816139cd565b9050919050565b60006020820190508181036000830152613ef681613a0d565b9050919050565b60006020820190508181036000830152613f1681613a4d565b9050919050565b60006020820190508181036000830152613f3681613a8d565b9050919050565b60006020820190508181036000830152613f5681613acd565b9050919050565b60006020820190508181036000830152613f7681613b0d565b9050919050565b6000602082019050613f926000830184613c52565b92915050565b6000606082019050613fad6000830186613c61565b613fba6020830185613c61565b613fc760408301846137be565b949350505050565b6000602082019050613fe46000830184613c8e565b92915050565b600060e082019050613fff600083018a613c8e565b61400c60208301896137af565b61401960408301886135a3565b6140266060830187613c8e565b6140336080830186613c8e565b61404060a0830185613782565b61404d60c0830184613c52565b98975050505050505050565b600060a08201905061406e6000830188613c8e565b61407b6020830187613c8e565b6140886040830186613c8e565b6140956060830185613c8e565b6140a260808301846135a3565b9695505050505050565b6000604051905081810181811067ffffffffffffffff821117156140cf57600080fd5b8060405250919050565b600067ffffffffffffffff8211156140f057600080fd5b602082029050919050565b600067ffffffffffffffff82111561411257600080fd5b602082029050919050565b6000819050919050565b6000819050602082019050919050565b6000819050602082019050919050565b6000819050919050565b600060029050919050565b600081519050919050565b600081519050919050565b600060029050919050565b6000602082019050919050565b6000602082019050919050565b6000602082019050919050565b6000602082019050919050565b600081905092915050565b600082825260208201905092915050565b600082825260208201905092915050565b600081905092915050565b600081905092915050565b600082825260208201905092915050565b600061421082614249565b9050919050565b60008115159050919050565b6000819050614231826142ec565b919050565b6000819050614244826142f9565b919050565b600073ffffffffffffffffffffffffffffffffffffffff82169050919050565b6000819050919050565b600060ff82169050919050565b600061428b826142c8565b9050919050565b600061429d82614223565b9050919050565b60006142af82614236565b9050919050565b60006142c182614269565b9050919050565b60006142d3826142da565b9050919050565b60006142e582614249565b9050919050565b600481106142f657fe5b50565b6003811061430357fe5b50565b61430f81614205565b811461431a57600080fd5b50565b61432681614217565b811461433157600080fd5b50565b6003811061434157600080fd5b50565b61434d81614269565b811461435857600080fd5b50565b61436481614273565b811461436f57600080fd5b5056fea2646970667358221220ee4b20af47c884d43dcf62502cdb44e2e60927ddab222d026f5842ea65b2851a64736f6c63430006070033",
  "immutableReferences": {},
  "source": "pragma solidity ^0.6.7;\npragma experimental ABIEncoderV2;\n\nimport \"./ZKChessTypes.sol\";\nimport \"./Verifier.sol\";\nimport \"./Hasher.sol\";\n\ncontract ZKChessCore {\n    uint256\n        public constant FIELD_SIZE = 21888242871839275222246405745257275088548364400416034343698204186575808495617;\n    uint256\n        public constant GHOST_START_COMMITMENT = 7214751084937475278685990361647698062370992456785139288868246743057894630983;\n    uint256 public constant BOARD_SIZE = 7;\n\n    uint8 public turnNumber;\n    GameState public gameState;\n    uint8[BOARD_SIZE][BOARD_SIZE] public boardPieces; // board[row][col]\n    uint8[BOARD_SIZE][BOARD_SIZE] public boardObjectives;\n\n    uint8[8] public pieceIds;\n    mapping(uint8 => Piece) public pieces;\n    uint8[6] public objectiveIds;\n    mapping(uint8 => Objective) public objectives;\n\n    bool public DISABLE_ZK_CHECK;\n\n    address public player1;\n    address public player2;\n\n    uint8 public player1Score;\n    uint8 public player2Score;\n\n    uint8 p1CurrentlyCapturing;\n    uint8 p2CurrentlyCapturing;\n\n    uint256 pfsVerified;\n\n    constructor(bool _disableZKCheck) public {\n        DISABLE_ZK_CHECK = _disableZKCheck;\n        gameState = GameState.WAITING_FOR_PLAYERS;\n\n        pieceIds = [1, 2, 3, 4, 5, 6, 7, 8];\n        objectiveIds = [9, 10, 11, 12, 13, 14];\n\n        // initialize pieces\n        pieces[1] = Piece({\n            id: 1,\n            pieceType: PieceType.KING,\n            owner: address(0),\n            row: 0,\n            col: 1,\n            dead: false,\n            commitment: 0\n        });\n        boardPieces[0][1] = 1;\n        pieces[2] = Piece({\n            id: 2,\n            pieceType: PieceType.KNIGHT,\n            owner: address(0),\n            row: 0,\n            col: 3,\n            dead: false,\n            commitment: 0\n        });\n        boardPieces[0][3] = 2;\n        pieces[3] = Piece({\n            id: 3,\n            pieceType: PieceType.KING,\n            owner: address(0),\n            row: 0,\n            col: 5,\n            dead: false,\n            commitment: 0\n        });\n        boardPieces[0][5] = 3;\n        pieces[4] = Piece({\n            id: 4,\n            pieceType: PieceType.GHOST,\n            owner: address(0),\n            row: 0,\n            col: 0,\n            dead: false,\n            commitment: GHOST_START_COMMITMENT\n        });\n        pieces[5] = Piece({\n            id: 5,\n            pieceType: PieceType.KING,\n            owner: address(0),\n            row: 6,\n            col: 1,\n            dead: false,\n            commitment: 0\n        });\n        boardPieces[6][1] = 5;\n        pieces[6] = Piece({\n            id: 6,\n            pieceType: PieceType.KNIGHT,\n            owner: address(0),\n            row: 6,\n            col: 3,\n            dead: false,\n            commitment: 0\n        });\n        boardPieces[6][3] = 6;\n        pieces[7] = Piece({\n            id: 7,\n            pieceType: PieceType.KING,\n            owner: address(0),\n            row: 6,\n            col: 5,\n            dead: false,\n            commitment: 0\n        });\n        boardPieces[6][5] = 7;\n        pieces[8] = Piece({\n            id: 8,\n            pieceType: PieceType.GHOST,\n            owner: address(0),\n            row: 6,\n            col: 0,\n            dead: false,\n            commitment: GHOST_START_COMMITMENT\n        });\n\n        // initialize objectives\n        objectives[9] = Objective({\n            id: 9,\n            value: 5,\n            row: 3,\n            col: 0,\n            capturedBy: address(0)\n        });\n        boardObjectives[3][0] = 9;\n        objectives[10] = Objective({\n            id: 10,\n            value: 5,\n            row: 2,\n            col: 2,\n            capturedBy: address(0)\n        });\n        boardObjectives[2][2] = 10;\n        objectives[11] = Objective({\n            id: 11,\n            value: 10,\n            row: 4,\n            col: 2,\n            capturedBy: address(0)\n        });\n        boardObjectives[4][2] = 11;\n        objectives[12] = Objective({\n            id: 12,\n            value: 10,\n            row: 2,\n            col: 4,\n            capturedBy: address(0)\n        });\n        boardObjectives[2][4] = 12;\n        objectives[13] = Objective({\n            id: 13,\n            value: 5,\n            row: 4,\n            col: 4,\n            capturedBy: address(0)\n        });\n        boardObjectives[4][4] = 13;\n        objectives[14] = Objective({\n            id: 14,\n            value: 5,\n            row: 3,\n            col: 6,\n            capturedBy: address(0)\n        });\n        boardObjectives[3][6] = 14;\n    }\n\n    //////////////\n    /// EVENTS ///\n    //////////////\n\n    event ProofVerified(uint256 pfsAccepted);\n    event GameStart(address p1, address p2);\n    event MoveMade(address player);\n    event GameFinished();\n\n    ///////////////\n    /// GETTERS ///\n    ///////////////\n\n    function getPieces() public view returns (Piece[] memory ret) {\n        ret = new Piece[](pieceIds.length);\n        for (uint8 i = 0; i < pieceIds.length; i++) {\n            ret[i] = pieces[pieceIds[i]];\n        }\n        return ret;\n    }\n\n    function getObjectives() public view returns (Objective[] memory ret) {\n        ret = new Objective[](objectiveIds.length);\n        for (uint8 i = 0; i < objectiveIds.length; i++) {\n            ret[i] = objectives[objectiveIds[i]];\n        }\n        return ret;\n    }\n\n    //////////////\n    /// Helper ///\n    //////////////\n\n    function hashTriple(\n        uint256 val1,\n        uint256 val2,\n        uint256 val3\n    ) public pure returns (uint256) {\n        uint256 R = 0;\n        uint256 C = 0;\n\n        R = addmod(R, val1, FIELD_SIZE);\n        (R, C) = Hasher.MiMCSponge(R, C, 0);\n        R = addmod(R, val2, FIELD_SIZE);\n        (R, C) = Hasher.MiMCSponge(R, C, 0);\n        R = addmod(R, val3, FIELD_SIZE);\n        (R, C) = Hasher.MiMCSponge(R, C, 0);\n\n        return R;\n    }\n\n    function isValidMove(\n        Piece memory piece,\n        uint8 toRow,\n        uint8 toCol\n    ) public view returns (bool) {\n        if (toRow >= BOARD_SIZE || toCol >= BOARD_SIZE) {\n            // must be in the range [0, SIZE - 1]\n            return false;\n        }\n        if (boardPieces[toRow][toCol] > 0) {\n            // a piece already exists there\n            return false;\n        }\n        if (piece.pieceType == PieceType.GHOST) {\n            return false;\n        } else if (piece.pieceType == PieceType.KING) {\n            if (piece.row == toRow && piece.col == toCol) {\n                return false;\n            }\n            int16 rowDiff = int16(piece.row) - int16(toRow);\n            if (rowDiff > 1 || rowDiff < -1) {\n                return false;\n            }\n            int16 colDiff = int16(piece.col) - int16(toCol);\n            if (colDiff > 1 || colDiff < -1) {\n                return false;\n            }\n        } else if (piece.pieceType == PieceType.KNIGHT) {\n            int16 rowDiff = int16(piece.row) - int16(toRow);\n            int16 colDiff = int16(piece.col) - int16(toCol);\n            if (rowDiff == 2 || rowDiff == -2) {\n                if (colDiff != 1 && colDiff != -1) {\n                    return false;\n                }\n            } else if (rowDiff == 1 || rowDiff == -1) {\n                if (colDiff != 2 && colDiff != -2) {\n                    return false;\n                }\n            } else {\n                return false;\n            }\n        }\n        return true;\n    }\n\n    function gameShouldBeCompleted() public view returns (bool) {\n        // check if game is over: no pieces left, OR no objectives left\n        bool noPiecesLeft = true;\n        for (uint8 i = 0; i < pieceIds.length; i++) {\n            if (!pieces[pieceIds[i]].dead) {\n                noPiecesLeft = false;\n                break;\n            }\n        }\n        if (noPiecesLeft) {\n            return true;\n        }\n\n        bool noObjectivesLeft = true;\n        for (uint8 i = 0; i < objectiveIds.length; i++) {\n            if (objectives[objectiveIds[i]].capturedBy == address(0)) {\n                noObjectivesLeft = false;\n                break;\n            }\n        }\n        if (noObjectivesLeft) {\n            return true;\n        }\n        return false;\n    }\n\n    //////////////////////\n    /// Game Mechanics ///\n    //////////////////////\n\n    function joinGame() public {\n        require(\n            gameState == GameState.WAITING_FOR_PLAYERS,\n            \"Game already started\"\n        );\n        if (player1 == address(0)) {\n            // first player to join game\n            player1 = msg.sender;\n            return;\n        }\n        // another player has joined. game is ready to start\n\n        require(msg.sender != player1, \"can't join game twice\");\n        // randomize player order\n        if (block.timestamp % 2 == 0) {\n            player2 = msg.sender;\n        } else {\n            player2 = player1;\n            player1 = msg.sender;\n        }\n\n        // set pieces\n        for (uint8 i = 1; i < 5; i++) {\n            pieces[i].owner = player1;\n        }\n        for (uint8 i = 5; i < 9; i++) {\n            pieces[i].owner = player2;\n        }\n\n        gameState = GameState.P1_TO_MOVE;\n        emit GameStart(player1, player2);\n    }\n\n    function checkProof(\n        uint256[2] memory _a,\n        uint256[2][2] memory _b,\n        uint256[2] memory _c,\n        uint256[2] memory _input\n    ) public returns (bool) {\n        if (!DISABLE_ZK_CHECK) {\n            require(\n                Verifier.verifyMoveProof(_a, _b, _c, _input),\n                \"Failed init proof check\"\n            );\n        }\n        pfsVerified += 1;\n        emit ProofVerified(pfsVerified);\n        return true;\n    }\n\n    function movePiece(\n        uint8 pieceId,\n        uint8 toRow,\n        uint8 toCol\n    ) public {\n        require(gameState != GameState.COMPLETE, \"Game is ended\");\n        if (msg.sender == player1) {\n            require(gameState == GameState.P1_TO_MOVE, \"Not p1's turn\");\n        }\n        if (msg.sender == player2) {\n            require(gameState == GameState.P2_TO_MOVE, \"Not p2's turn\");\n        }\n        // require(turnNumber > 0, \"Must move ghost on first turn\");\n        Piece storage piece = pieces[pieceId];\n        require(piece.owner == msg.sender, \"You don't own that piece\");\n        require(!piece.dead, \"Piece is dead\");\n        require(isValidMove(piece, toRow, toCol), \"Invalid move\");\n\n        boardPieces[piece.row][piece.col] = 0;\n        boardPieces[toRow][toCol] = piece.id;\n        piece.row = toRow;\n        piece.col = toCol;\n        if (\n            objectives[boardObjectives[toRow][toCol]].value > 0 &&\n            objectives[boardObjectives[toRow][toCol]].capturedBy == address(0)\n        ) {\n            if (msg.sender == player1) {\n                p1CurrentlyCapturing = boardObjectives[toRow][toCol];\n            } else {\n                p2CurrentlyCapturing = boardObjectives[toRow][toCol];\n            }\n        }\n        completeTurn();\n    }\n\n    function moveGhost(\n        uint256[2] memory _a,\n        uint256[2][2] memory _b,\n        uint256[2] memory _c,\n        uint256[2] memory _input,\n        uint8 pieceId\n    ) public {\n        require(gameState != GameState.COMPLETE, \"Game is ended\");\n        if (msg.sender == player1) {\n            require(gameState == GameState.P1_TO_MOVE, \"Not p1's turn\");\n        }\n        if (msg.sender == player2) {\n            require(gameState == GameState.P2_TO_MOVE, \"Not p2's turn\");\n        }\n        Piece storage piece = pieces[pieceId];\n        require(piece.pieceType == PieceType.GHOST, \"Piece must be a ghost\");\n        require(piece.owner == msg.sender, \"You don't own that piece\");\n        require(piece.commitment == _input[0], \"ZK Proof invalid\");\n        if (!DISABLE_ZK_CHECK) {\n            require(\n                Verifier.verifyMoveProof(_a, _b, _c, _input),\n                \"Failed zk move check\"\n            );\n        }\n        piece.commitment = _input[1];\n        completeTurn();\n    }\n\n    function revealGhost(\n        uint8 pieceId,\n        uint256 row,\n        uint256 col,\n        uint256 salt\n    ) public {\n        require(gameState != GameState.COMPLETE, \"Game is ended\");\n        if (msg.sender == player1) {\n            require(gameState == GameState.P1_TO_MOVE, \"Not p1's turn\");\n        }\n        if (msg.sender == player2) {\n            require(gameState == GameState.P2_TO_MOVE, \"Not p2's turn\");\n        }\n        require(turnNumber > 0, \"Must move ghost on first turn\");\n        Piece storage piece = pieces[pieceId];\n        require(piece.pieceType == PieceType.GHOST, \"Piece must be a ghost\");\n        require(piece.owner == msg.sender, \"You don't own that piece\");\n        require(\n            hashTriple(row, col, salt) == piece.commitment,\n            \"Invalid reveal\"\n        );\n        Piece storage theirPiece = pieces[boardPieces[row][col]];\n        address opponent = player1;\n        if (msg.sender == player1) {\n            opponent = player2;\n        }\n        if (theirPiece.owner == opponent) {\n            theirPiece.dead = true;\n        }\n        completeTurn();\n    }\n\n    function completeTurn() internal {\n        if (msg.sender == player1) {\n            // check if opponent captures any objectives\n            Objective storage capturing = objectives[p2CurrentlyCapturing];\n            if (capturing.value > 0 && capturing.capturedBy == address(0)) {\n                // is an uncaptured objective\n                Piece storage onObjective = pieces[boardPieces[capturing\n                    .row][capturing.col]];\n                if (onObjective.owner == player2 && !onObjective.dead) {\n                    // p2's live piece is stationed on top\n                    capturing.capturedBy = player2;\n                    player2Score += capturing.value;\n                }\n            }\n            // change to p2's turn\n            p2CurrentlyCapturing = 0;\n            gameState = GameState.P2_TO_MOVE;\n        } else {\n            // check if opponent captures any objectives\n            Objective storage capturing = objectives[p1CurrentlyCapturing];\n            if (capturing.value > 0 && capturing.capturedBy == address(0)) {\n                // is an uncaptured objective\n                Piece storage onObjective = pieces[boardPieces[capturing\n                    .row][capturing.col]];\n                if (onObjective.owner == player1 && !onObjective.dead) {\n                    // p1's live piece is stationed on top\n                    capturing.capturedBy = player1;\n                    player1Score += capturing.value;\n                }\n            }\n            // change to p1's turn\n            p1CurrentlyCapturing = 0;\n            turnNumber++;\n            gameState = GameState.P1_TO_MOVE;\n        }\n        emit MoveMade(msg.sender);\n\n        if (gameShouldBeCompleted()) {\n            gameState = GameState.COMPLETE;\n            emit GameFinished();\n        }\n    }\n}\n",
  "sourcePath": "/Users/bgu/zk-chess/eth/contracts/ZKChessCore.sol",
  "compiler": {
    "name": "solc",
    "version": "0.6.7+commit.b8d736ae.Emscripten.clang"
  },
  "schemaVersion": "3.3.1",
  "updatedAt": "2020-10-29T03:17:35.200Z",
  "devdoc": {
    "methods": {}
  },
  "userdoc": {
    "methods": {
      "getPieces()": {
        "notice": "//////////// GETTERS /// ////////////"
      },
      "hashTriple(uint256,uint256,uint256)": {
        "notice": "/////////// Helper /// ///////////"
      },
      "joinGame()": {
        "notice": "/////////////////// Game Mechanics /// ///////////////////"
      }
    }
  }
}