{
  "contractName": "ZKChessGame",
  "abi": [
    {
      "anonymous": false,
      "inputs": [],
      "name": "GameFinished",
      "type": "event"
    },
    {
      "anonymous": false,
      "inputs": [
        {
          "indexed": false,
          "internalType": "address",
          "name": "p1",
          "type": "address"
        },
        {
          "indexed": false,
          "internalType": "address",
          "name": "p2",
          "type": "address"
        }
      ],
      "name": "GameStart",
      "type": "event"
    },
    {
      "anonymous": false,
      "inputs": [
        {
          "indexed": false,
          "internalType": "address",
          "name": "player",
          "type": "address"
        }
      ],
      "name": "MoveMade",
      "type": "event"
    },
    {
      "anonymous": false,
      "inputs": [
        {
          "indexed": false,
          "internalType": "uint256",
          "name": "pfsAccepted",
          "type": "uint256"
        }
      ],
      "name": "ProofVerified",
      "type": "event"
    },
    {
      "inputs": [],
      "name": "BOARD_SIZE",
      "outputs": [
        {
          "internalType": "uint256",
          "name": "",
          "type": "uint256"
        }
      ],
      "stateMutability": "view",
      "type": "function",
      "constant": true
    },
    {
      "inputs": [],
      "name": "DISABLE_ZK_CHECK",
      "outputs": [
        {
          "internalType": "bool",
          "name": "",
          "type": "bool"
        }
      ],
      "stateMutability": "view",
      "type": "function",
      "constant": true
    },
    {
      "inputs": [],
      "name": "FIELD_SIZE",
      "outputs": [
        {
          "internalType": "uint256",
          "name": "",
          "type": "uint256"
        }
      ],
      "stateMutability": "view",
      "type": "function",
      "constant": true
    },
    {
      "inputs": [],
      "name": "GHOST_START_COMMITMENT",
      "outputs": [
        {
          "internalType": "uint256",
          "name": "",
          "type": "uint256"
        }
      ],
      "stateMutability": "view",
      "type": "function",
      "constant": true
    },
    {
      "inputs": [
        {
          "internalType": "uint256",
          "name": "",
          "type": "uint256"
        },
        {
          "internalType": "uint256",
          "name": "",
          "type": "uint256"
        }
      ],
      "name": "boardObjectives",
      "outputs": [
        {
          "internalType": "uint8",
          "name": "",
          "type": "uint8"
        }
      ],
      "stateMutability": "view",
      "type": "function",
      "constant": true
    },
    {
      "inputs": [
        {
          "internalType": "uint256",
          "name": "",
          "type": "uint256"
        },
        {
          "internalType": "uint256",
          "name": "",
          "type": "uint256"
        }
      ],
      "name": "boardPieces",
      "outputs": [
        {
          "internalType": "uint8",
          "name": "",
          "type": "uint8"
        }
      ],
      "stateMutability": "view",
      "type": "function",
      "constant": true
    },
    {
      "inputs": [],
      "name": "gameId",
      "outputs": [
        {
          "internalType": "uint256",
          "name": "",
          "type": "uint256"
        }
      ],
      "stateMutability": "view",
      "type": "function",
      "constant": true
    },
    {
      "inputs": [],
      "name": "gameState",
      "outputs": [
        {
          "internalType": "enum GameState",
          "name": "",
          "type": "uint8"
        }
      ],
      "stateMutability": "view",
      "type": "function",
      "constant": true
    },
    {
      "inputs": [
        {
          "internalType": "uint256",
          "name": "",
          "type": "uint256"
        }
      ],
      "name": "objectiveIds",
      "outputs": [
        {
          "internalType": "uint8",
          "name": "",
          "type": "uint8"
        }
      ],
      "stateMutability": "view",
      "type": "function",
      "constant": true
    },
    {
      "inputs": [
        {
          "internalType": "uint8",
          "name": "",
          "type": "uint8"
        }
      ],
      "name": "objectives",
      "outputs": [
        {
          "internalType": "uint8",
          "name": "id",
          "type": "uint8"
        },
        {
          "internalType": "uint8",
          "name": "value",
          "type": "uint8"
        },
        {
          "internalType": "uint8",
          "name": "row",
          "type": "uint8"
        },
        {
          "internalType": "uint8",
          "name": "col",
          "type": "uint8"
        },
        {
          "internalType": "address",
          "name": "capturedBy",
          "type": "address"
        }
      ],
      "stateMutability": "view",
      "type": "function",
      "constant": true
    },
    {
      "inputs": [
        {
          "internalType": "uint256",
          "name": "",
          "type": "uint256"
        }
      ],
      "name": "pieceIds",
      "outputs": [
        {
          "internalType": "uint8",
          "name": "",
          "type": "uint8"
        }
      ],
      "stateMutability": "view",
      "type": "function",
      "constant": true
    },
    {
      "inputs": [
        {
          "internalType": "uint8",
          "name": "",
          "type": "uint8"
        }
      ],
      "name": "pieces",
      "outputs": [
        {
          "internalType": "uint8",
          "name": "id",
          "type": "uint8"
        },
        {
          "internalType": "enum PieceType",
          "name": "pieceType",
          "type": "uint8"
        },
        {
          "internalType": "address",
          "name": "owner",
          "type": "address"
        },
        {
          "internalType": "uint8",
          "name": "row",
          "type": "uint8"
        },
        {
          "internalType": "uint8",
          "name": "col",
          "type": "uint8"
        },
        {
          "internalType": "bool",
          "name": "dead",
          "type": "bool"
        },
        {
          "internalType": "uint256",
          "name": "commitment",
          "type": "uint256"
        }
      ],
      "stateMutability": "view",
      "type": "function",
      "constant": true
    },
    {
      "inputs": [],
      "name": "player1",
      "outputs": [
        {
          "internalType": "address",
          "name": "",
          "type": "address"
        }
      ],
      "stateMutability": "view",
      "type": "function",
      "constant": true
    },
    {
      "inputs": [],
      "name": "player1Score",
      "outputs": [
        {
          "internalType": "uint8",
          "name": "",
          "type": "uint8"
        }
      ],
      "stateMutability": "view",
      "type": "function",
      "constant": true
    },
    {
      "inputs": [],
      "name": "player2",
      "outputs": [
        {
          "internalType": "address",
          "name": "",
          "type": "address"
        }
      ],
      "stateMutability": "view",
      "type": "function",
      "constant": true
    },
    {
      "inputs": [],
      "name": "player2Score",
      "outputs": [
        {
          "internalType": "uint8",
          "name": "",
          "type": "uint8"
        }
      ],
      "stateMutability": "view",
      "type": "function",
      "constant": true
    },
    {
      "inputs": [],
      "name": "turnNumber",
      "outputs": [
        {
          "internalType": "uint8",
          "name": "",
          "type": "uint8"
        }
      ],
      "stateMutability": "view",
      "type": "function",
      "constant": true
    },
    {
      "inputs": [
        {
          "internalType": "uint256",
          "name": "_gameId",
          "type": "uint256"
        },
        {
          "internalType": "bool",
          "name": "_disableZKCheck",
          "type": "bool"
        }
      ],
      "name": "initialize",
      "outputs": [],
      "stateMutability": "nonpayable",
      "type": "function"
    },
    {
      "inputs": [],
      "name": "getPieces",
      "outputs": [
        {
          "components": [
            {
              "internalType": "uint8",
              "name": "id",
              "type": "uint8"
            },
            {
              "internalType": "enum PieceType",
              "name": "pieceType",
              "type": "uint8"
            },
            {
              "internalType": "address",
              "name": "owner",
              "type": "address"
            },
            {
              "internalType": "uint8",
              "name": "row",
              "type": "uint8"
            },
            {
              "internalType": "uint8",
              "name": "col",
              "type": "uint8"
            },
            {
              "internalType": "bool",
              "name": "dead",
              "type": "bool"
            },
            {
              "internalType": "uint256",
              "name": "commitment",
              "type": "uint256"
            }
          ],
          "internalType": "struct Piece[]",
          "name": "ret",
          "type": "tuple[]"
        }
      ],
      "stateMutability": "view",
      "type": "function",
      "constant": true
    },
    {
      "inputs": [],
      "name": "getObjectives",
      "outputs": [
        {
          "components": [
            {
              "internalType": "uint8",
              "name": "id",
              "type": "uint8"
            },
            {
              "internalType": "uint8",
              "name": "value",
              "type": "uint8"
            },
            {
              "internalType": "uint8",
              "name": "row",
              "type": "uint8"
            },
            {
              "internalType": "uint8",
              "name": "col",
              "type": "uint8"
            },
            {
              "internalType": "address",
              "name": "capturedBy",
              "type": "address"
            }
          ],
          "internalType": "struct Objective[]",
          "name": "ret",
          "type": "tuple[]"
        }
      ],
      "stateMutability": "view",
      "type": "function",
      "constant": true
    },
    {
      "inputs": [
        {
          "components": [
            {
              "internalType": "uint8",
              "name": "id",
              "type": "uint8"
            },
            {
              "internalType": "enum PieceType",
              "name": "pieceType",
              "type": "uint8"
            },
            {
              "internalType": "address",
              "name": "owner",
              "type": "address"
            },
            {
              "internalType": "uint8",
              "name": "row",
              "type": "uint8"
            },
            {
              "internalType": "uint8",
              "name": "col",
              "type": "uint8"
            },
            {
              "internalType": "bool",
              "name": "dead",
              "type": "bool"
            },
            {
              "internalType": "uint256",
              "name": "commitment",
              "type": "uint256"
            }
          ],
          "internalType": "struct Piece",
          "name": "piece",
          "type": "tuple"
        },
        {
          "internalType": "uint8",
          "name": "toRow",
          "type": "uint8"
        },
        {
          "internalType": "uint8",
          "name": "toCol",
          "type": "uint8"
        }
      ],
      "name": "isValidMove",
      "outputs": [
        {
          "internalType": "bool",
          "name": "",
          "type": "bool"
        }
      ],
      "stateMutability": "view",
      "type": "function",
      "constant": true
    },
    {
      "inputs": [],
      "name": "gameShouldBeCompleted",
      "outputs": [
        {
          "internalType": "bool",
          "name": "",
          "type": "bool"
        }
      ],
      "stateMutability": "view",
      "type": "function",
      "constant": true
    },
    {
      "inputs": [],
      "name": "joinGame",
      "outputs": [],
      "stateMutability": "nonpayable",
      "type": "function"
    },
    {
      "inputs": [
        {
          "internalType": "uint8",
          "name": "pieceId",
          "type": "uint8"
        },
        {
          "internalType": "uint8",
          "name": "toRow",
          "type": "uint8"
        },
        {
          "internalType": "uint8",
          "name": "toCol",
          "type": "uint8"
        }
      ],
      "name": "movePiece",
      "outputs": [],
      "stateMutability": "nonpayable",
      "type": "function"
    },
    {
      "inputs": [
        {
          "internalType": "uint256[2]",
          "name": "_a",
          "type": "uint256[2]"
        },
        {
          "internalType": "uint256[2][2]",
          "name": "_b",
          "type": "uint256[2][2]"
        },
        {
          "internalType": "uint256[2]",
          "name": "_c",
          "type": "uint256[2]"
        },
        {
          "internalType": "uint256[2]",
          "name": "_input",
          "type": "uint256[2]"
        },
        {
          "internalType": "uint8",
          "name": "pieceId",
          "type": "uint8"
        }
      ],
      "name": "moveGhost",
      "outputs": [],
      "stateMutability": "nonpayable",
      "type": "function"
    },
    {
      "inputs": [
        {
          "internalType": "uint8",
          "name": "pieceId",
          "type": "uint8"
        },
        {
          "internalType": "uint256",
          "name": "row",
          "type": "uint256"
        },
        {
          "internalType": "uint256",
          "name": "col",
          "type": "uint256"
        },
        {
          "internalType": "uint256",
          "name": "salt",
          "type": "uint256"
        }
      ],
      "name": "ghostAttack",
      "outputs": [],
      "stateMutability": "nonpayable",
      "type": "function"
    }
  ],
  "bytecode": "0x608060405234801561001057600080fd5b5061595580620000216000396000f3fe608060405234801561001057600080fd5b506004361061018e5760003560e01c806396d57948116100de578063cfecc6de11610097578063d4f77b1c11610071578063d4f77b1c146104a9578063d7c81b55146104b3578063dc4a3e95146104d1578063e645206a146104ef5761018e565b8063cfecc6de1461043d578063d1f9c24d1461046d578063d30895e41461048b5761018e565b806396d5794814610367578063acbc1a9114610383578063b0228246146103a1578063bd91fdb4146103d1578063c6204ee2146103ef578063cf615f6c1461041f5761018e565b8063562fb4271161014b5780635c3beb32116101255780635c3beb32146102d95780637174f2c01461030d5780637e15247d1461032b5780638af9d562146103495761018e565b8063562fb427146102815780635700401e1461029d57806359a5f12d146102bb5761018e565b8063210851b51461019357806327964666146101c35780632c784f32146101df5780633fb7388e14610215578063414a37ba1461024557806351df541c14610263575b600080fd5b6101ad60048036038101906101a891906148c9565b61050b565b6040516101ba9190615338565b60405180910390f35b6101dd60048036038101906101d8919061496c565b610814565b005b6101f960048036038101906101f491906149e4565b611f50565b60405161020c97969594939291906155a9565b60405180910390f35b61022f600480360381019061022a91906149a8565b611ff3565b60405161023c919061558e565b60405180910390f35b61024d612029565b60405161025a919061552e565b60405180910390f35b61026b61204d565b6040516102789190615338565b60405180910390f35b61029b60048036038101906102969190614826565b6121c0565b005b6102a5612620565b6040516102b2919061558e565b60405180910390f35b6102c3612633565b6040516102d0919061524e565b60405180910390f35b6102f360048036038101906102ee91906149e4565b612659565b604051610304959493929190615618565b60405180910390f35b6103156126e3565b604051610322919061558e565b60405180910390f35b6103336126f6565b60405161034091906152ad565b60405180910390f35b6103516128a0565b60405161035e9190615338565b60405180910390f35b610381600480360381019061037c9190614a0d565b6128b3565b005b61038b612ea6565b604051610398919061552e565b60405180910390f35b6103bb60048036038101906103b691906149a8565b612eca565b6040516103c8919061558e565b60405180910390f35b6103d9612f00565b6040516103e6919061558e565b60405180910390f35b6104096004803603810190610404919061491a565b612f13565b604051610416919061558e565b60405180910390f35b610427612f3a565b60405161043491906152cf565b60405180910390f35b6104576004803603810190610452919061491a565b613119565b604051610464919061558e565b60405180910390f35b610475613140565b6040516104829190615353565b60405180910390f35b610493613153565b6040516104a0919061524e565b60405180910390f35b6104b1613179565b005b6104bb6135ed565b6040516104c8919061552e565b60405180910390f35b6104d96135f3565b6040516104e6919061552e565b60405180910390f35b61050960048036038101906105049190614a70565b6135f8565b005b600060078360ff16101580610524575060078260ff1610155b15610532576000905061080d565b600060358460ff166007811061054457fe5b018360ff166007811061055357fe5b602091828204019190069054906101000a900460ff1660ff16111561057b576000905061080d565b60028081111561058757fe5b8460200151600281111561059757fe5b14156105a6576000905061080d565b600060028111156105b357fe5b846020015160028111156105c357fe5b14156106a9578260ff16846060015160ff161480156105eb57508160ff16846080015160ff16145b156105f9576000905061080d565b60008360ff16856060015160ff1603905060018160010b138061063e57507fffffffffffffffffffffffffffffffffffffffffffffffffffffffffffffffff8160010b125b1561064d57600091505061080d565b60008360ff16866080015160ff1603905060018160010b138061069257507fffffffffffffffffffffffffffffffffffffffffffffffffffffffffffffffff8160010b125b156106a25760009250505061080d565b5050610808565b600160028111156106b657fe5b846020015160028111156106c657fe5b14156108075760008360ff16856060015160ff1603905060008360ff16866080015160ff1603905060028260010b148061072257507ffffffffffffffffffffffffffffffffffffffffffffffffffffffffffffffffe8260010b145b156107735760018160010b1415801561075e57507fffffffffffffffffffffffffffffffffffffffffffffffffffffffffffffffff8160010b14155b1561076e5760009250505061080d565b610804565b60018260010b14806107a757507fffffffffffffffffffffffffffffffffffffffffffffffffffffffffffffffff8260010b145b156107f85760028160010b141580156107e357507ffffffffffffffffffffffffffffffffffffffffffffffffffffffffffffffffe8160010b14155b156107f35760009250505061080d565b610803565b60009250505061080d565b5b50505b5b600190505b9392505050565b8160338190555080604760006101000a81548160ff0219169083151502179055506000603460016101000a81548160ff0219169083600381111561085457fe5b0217905550604051806101000160405280600160ff168152602001600260ff168152602001600360ff168152602001600460ff168152602001600560ff168152602001600660ff168152602001600760ff168152602001600860ff1681525060439060086108c39291906143dd565b506040518060c00160405280600960ff168152602001600a60ff168152602001600b60ff168152602001600c60ff168152602001600d60ff168152602001600e60ff168152506045906006610919929190614477565b506040518060e00160405280600160ff1681526020016000600281111561093c57fe5b8152602001600073ffffffffffffffffffffffffffffffffffffffff168152602001600060ff168152602001600160ff168152602001600015158152602001600081525060446000600160ff16815260200190815260200160002060008201518160000160006101000a81548160ff021916908360ff16021790555060208201518160000160016101000a81548160ff021916908360028111156109dc57fe5b021790555060408201518160000160026101000a81548173ffffffffffffffffffffffffffffffffffffffff021916908373ffffffffffffffffffffffffffffffffffffffff16021790555060608201518160000160166101000a81548160ff021916908360ff16021790555060808201518160000160176101000a81548160ff021916908360ff16021790555060a08201518160000160186101000a81548160ff02191690831515021790555060c0820151816001015590505060016035600060078110610aa757fe5b01600160078110610ab457fe5b602091828204019190066101000a81548160ff021916908360ff1602179055506040518060e00160405280600260ff16815260200160016002811115610af657fe5b8152602001600073ffffffffffffffffffffffffffffffffffffffff168152602001600060ff168152602001600360ff168152602001600015158152602001600081525060446000600260ff16815260200190815260200160002060008201518160000160006101000a81548160ff021916908360ff16021790555060208201518160000160016101000a81548160ff02191690836002811115610b9657fe5b021790555060408201518160000160026101000a81548173ffffffffffffffffffffffffffffffffffffffff021916908373ffffffffffffffffffffffffffffffffffffffff16021790555060608201518160000160166101000a81548160ff021916908360ff16021790555060808201518160000160176101000a81548160ff021916908360ff16021790555060a08201518160000160186101000a81548160ff02191690831515021790555060c0820151816001015590505060026035600060078110610c6157fe5b01600360078110610c6e57fe5b602091828204019190066101000a81548160ff021916908360ff1602179055506040518060e00160405280600360ff16815260200160006002811115610cb057fe5b8152602001600073ffffffffffffffffffffffffffffffffffffffff168152602001600060ff168152602001600560ff168152602001600015158152602001600081525060446000600360ff16815260200190815260200160002060008201518160000160006101000a81548160ff021916908360ff16021790555060208201518160000160016101000a81548160ff02191690836002811115610d5057fe5b021790555060408201518160000160026101000a81548173ffffffffffffffffffffffffffffffffffffffff021916908373ffffffffffffffffffffffffffffffffffffffff16021790555060608201518160000160166101000a81548160ff021916908360ff16021790555060808201518160000160176101000a81548160ff021916908360ff16021790555060a08201518160000160186101000a81548160ff02191690831515021790555060c0820151816001015590505060036035600060078110610e1b57fe5b01600560078110610e2857fe5b602091828204019190066101000a81548160ff021916908360ff1602179055506040518060e00160405280600460ff168152602001600280811115610e6957fe5b8152602001600073ffffffffffffffffffffffffffffffffffffffff168152602001600060ff168152602001600060ff1681526020016000151581526020017f104ddaefd01036b8465b22025720f944733190135fd4ed564186bc3cfcaec72281525060446000600460ff16815260200190815260200160002060008201518160000160006101000a81548160ff021916908360ff16021790555060208201518160000160016101000a81548160ff02191690836002811115610f2857fe5b021790555060408201518160000160026101000a81548173ffffffffffffffffffffffffffffffffffffffff021916908373ffffffffffffffffffffffffffffffffffffffff16021790555060608201518160000160166101000a81548160ff021916908360ff16021790555060808201518160000160176101000a81548160ff021916908360ff16021790555060a08201518160000160186101000a81548160ff02191690831515021790555060c082015181600101559050506040518060e00160405280600560ff1681526020016000600281111561100557fe5b8152602001600073ffffffffffffffffffffffffffffffffffffffff168152602001600660ff168152602001600160ff168152602001600015158152602001600081525060446000600560ff16815260200190815260200160002060008201518160000160006101000a81548160ff021916908360ff16021790555060208201518160000160016101000a81548160ff021916908360028111156110a557fe5b021790555060408201518160000160026101000a81548173ffffffffffffffffffffffffffffffffffffffff021916908373ffffffffffffffffffffffffffffffffffffffff16021790555060608201518160000160166101000a81548160ff021916908360ff16021790555060808201518160000160176101000a81548160ff021916908360ff16021790555060a08201518160000160186101000a81548160ff02191690831515021790555060c082015181600101559050506005603560066007811061117057fe5b0160016007811061117d57fe5b602091828204019190066101000a81548160ff021916908360ff1602179055506040518060e00160405280600660ff168152602001600160028111156111bf57fe5b8152602001600073ffffffffffffffffffffffffffffffffffffffff168152602001600660ff168152602001600360ff168152602001600015158152602001600081525060446000600660ff16815260200190815260200160002060008201518160000160006101000a81548160ff021916908360ff16021790555060208201518160000160016101000a81548160ff0219169083600281111561125f57fe5b021790555060408201518160000160026101000a81548173ffffffffffffffffffffffffffffffffffffffff021916908373ffffffffffffffffffffffffffffffffffffffff16021790555060608201518160000160166101000a81548160ff021916908360ff16021790555060808201518160000160176101000a81548160ff021916908360ff16021790555060a08201518160000160186101000a81548160ff02191690831515021790555060c082015181600101559050506006603560066007811061132a57fe5b0160036007811061133757fe5b602091828204019190066101000a81548160ff021916908360ff1602179055506040518060e00160405280600760ff1681526020016000600281111561137957fe5b8152602001600073ffffffffffffffffffffffffffffffffffffffff168152602001600660ff168152602001600560ff168152602001600015158152602001600081525060446000600760ff16815260200190815260200160002060008201518160000160006101000a81548160ff021916908360ff16021790555060208201518160000160016101000a81548160ff0219169083600281111561141957fe5b021790555060408201518160000160026101000a81548173ffffffffffffffffffffffffffffffffffffffff021916908373ffffffffffffffffffffffffffffffffffffffff16021790555060608201518160000160166101000a81548160ff021916908360ff16021790555060808201518160000160176101000a81548160ff021916908360ff16021790555060a08201518160000160186101000a81548160ff02191690831515021790555060c08201518160010155905050600760356006600781106114e457fe5b016005600781106114f157fe5b602091828204019190066101000a81548160ff021916908360ff1602179055506040518060e00160405280600860ff16815260200160028081111561153257fe5b8152602001600073ffffffffffffffffffffffffffffffffffffffff168152602001600660ff168152602001600060ff1681526020016000151581526020017f104ddaefd01036b8465b22025720f944733190135fd4ed564186bc3cfcaec72281525060446000600860ff16815260200190815260200160002060008201518160000160006101000a81548160ff021916908360ff16021790555060208201518160000160016101000a81548160ff021916908360028111156115f157fe5b021790555060408201518160000160026101000a81548173ffffffffffffffffffffffffffffffffffffffff021916908373ffffffffffffffffffffffffffffffffffffffff16021790555060608201518160000160166101000a81548160ff021916908360ff16021790555060808201518160000160176101000a81548160ff021916908360ff16021790555060a08201518160000160186101000a81548160ff02191690831515021790555060c082015181600101559050506040518060a00160405280600960ff168152602001600560ff168152602001600360ff168152602001600060ff168152602001600073ffffffffffffffffffffffffffffffffffffffff1681525060466000600960ff16815260200190815260200160002060008201518160000160006101000a81548160ff021916908360ff16021790555060208201518160000160016101000a81548160ff021916908360ff16021790555060408201518160000160026101000a81548160ff021916908360ff16021790555060608201518160000160036101000a81548160ff021916908360ff16021790555060808201518160000160046101000a81548173ffffffffffffffffffffffffffffffffffffffff021916908373ffffffffffffffffffffffffffffffffffffffff1602179055509050506009603c6003600781106117ef57fe5b016000600781106117fc57fe5b602091828204019190066101000a81548160ff021916908360ff1602179055506040518060a00160405280600a60ff168152602001600560ff168152602001600260ff168152602001600260ff168152602001600073ffffffffffffffffffffffffffffffffffffffff1681525060466000600a60ff16815260200190815260200160002060008201518160000160006101000a81548160ff021916908360ff16021790555060208201518160000160016101000a81548160ff021916908360ff16021790555060408201518160000160026101000a81548160ff021916908360ff16021790555060608201518160000160036101000a81548160ff021916908360ff16021790555060808201518160000160046101000a81548173ffffffffffffffffffffffffffffffffffffffff021916908373ffffffffffffffffffffffffffffffffffffffff160217905550905050600a603c60026007811061195f57fe5b0160026007811061196c57fe5b602091828204019190066101000a81548160ff021916908360ff1602179055506040518060a00160405280600b60ff168152602001600a60ff168152602001600460ff168152602001600260ff168152602001600073ffffffffffffffffffffffffffffffffffffffff1681525060466000600b60ff16815260200190815260200160002060008201518160000160006101000a81548160ff021916908360ff16021790555060208201518160000160016101000a81548160ff021916908360ff16021790555060408201518160000160026101000a81548160ff021916908360ff16021790555060608201518160000160036101000a81548160ff021916908360ff16021790555060808201518160000160046101000a81548173ffffffffffffffffffffffffffffffffffffffff021916908373ffffffffffffffffffffffffffffffffffffffff160217905550905050600b603c600460078110611acf57fe5b01600260078110611adc57fe5b602091828204019190066101000a81548160ff021916908360ff1602179055506040518060a00160405280600c60ff168152602001600a60ff168152602001600260ff168152602001600460ff168152602001600073ffffffffffffffffffffffffffffffffffffffff1681525060466000600c60ff16815260200190815260200160002060008201518160000160006101000a81548160ff021916908360ff16021790555060208201518160000160016101000a81548160ff021916908360ff16021790555060408201518160000160026101000a81548160ff021916908360ff16021790555060608201518160000160036101000a81548160ff021916908360ff16021790555060808201518160000160046101000a81548173ffffffffffffffffffffffffffffffffffffffff021916908373ffffffffffffffffffffffffffffffffffffffff160217905550905050600c603c600260078110611c3f57fe5b01600460078110611c4c57fe5b602091828204019190066101000a81548160ff021916908360ff1602179055506040518060a00160405280600d60ff168152602001600560ff168152602001600460ff168152602001600460ff168152602001600073ffffffffffffffffffffffffffffffffffffffff1681525060466000600d60ff16815260200190815260200160002060008201518160000160006101000a81548160ff021916908360ff16021790555060208201518160000160016101000a81548160ff021916908360ff16021790555060408201518160000160026101000a81548160ff021916908360ff16021790555060608201518160000160036101000a81548160ff021916908360ff16021790555060808201518160000160046101000a81548173ffffffffffffffffffffffffffffffffffffffff021916908373ffffffffffffffffffffffffffffffffffffffff160217905550905050600d603c600460078110611daf57fe5b01600460078110611dbc57fe5b602091828204019190066101000a81548160ff021916908360ff1602179055506040518060a00160405280600e60ff168152602001600560ff168152602001600360ff168152602001600660ff168152602001600073ffffffffffffffffffffffffffffffffffffffff1681525060466000600e60ff16815260200190815260200160002060008201518160000160006101000a81548160ff021916908360ff16021790555060208201518160000160016101000a81548160ff021916908360ff16021790555060408201518160000160026101000a81548160ff021916908360ff16021790555060608201518160000160036101000a81548160ff021916908360ff16021790555060808201518160000160046101000a81548173ffffffffffffffffffffffffffffffffffffffff021916908373ffffffffffffffffffffffffffffffffffffffff160217905550905050600e603c600360078110611f1f57fe5b01600660078110611f2c57fe5b602091828204019190066101000a81548160ff021916908360ff1602179055505050565b60446020528060005260406000206000915090508060000160009054906101000a900460ff16908060000160019054906101000a900460ff16908060000160029054906101000a900473ffffffffffffffffffffffffffffffffffffffff16908060000160169054906101000a900460ff16908060000160179054906101000a900460ff16908060000160189054906101000a900460ff16908060010154905087565b6035826007811061200057fe5b01816007811061200c57fe5b60209182820401919006915091509054906101000a900460ff1681565b7f30644e72e131a029b85045b68181585d2833e84879b9709143e1f593f000000181565b6000806001905060008090505b60088160ff1610156120cf576044600060438360ff166008811061207a57fe5b602091828204019190069054906101000a900460ff1660ff1660ff16815260200190815260200160002060000160189054906101000a900460ff166120c257600091506120cf565b808060010191505061205a565b5080156120e05760019150506121bd565b60006001905060008090505b60068160ff1610156121a457600073ffffffffffffffffffffffffffffffffffffffff166046600060458460ff166006811061212457fe5b602091828204019190069054906101000a900460ff1660ff1660ff16815260200190815260200160002060000160049054906101000a900473ffffffffffffffffffffffffffffffffffffffff1673ffffffffffffffffffffffffffffffffffffffff16141561219757600091506121a4565b80806001019150506120ec565b5080156121b6576001925050506121bd565b6000925050505b90565b6003808111156121cc57fe5b603460019054906101000a900460ff1660038111156121e757fe5b1415612228576040517f08c379a000000000000000000000000000000000000000000000000000000000815260040161221f9061542e565b60405180910390fd5b604760019054906101000a900473ffffffffffffffffffffffffffffffffffffffff1673ffffffffffffffffffffffffffffffffffffffff163373ffffffffffffffffffffffffffffffffffffffff1614156122e7576001600381111561228b57fe5b603460019054906101000a900460ff1660038111156122a657fe5b146122e6576040517f08c379a00000000000000000000000000000000000000000000000000000000081526004016122dd9061550e565b60405180910390fd5b5b604860009054906101000a900473ffffffffffffffffffffffffffffffffffffffff1673ffffffffffffffffffffffffffffffffffffffff163373ffffffffffffffffffffffffffffffffffffffff1614156123a6576002600381111561234a57fe5b603460019054906101000a900460ff16600381111561236557fe5b146123a5576040517f08c379a000000000000000000000000000000000000000000000000000000000815260040161239c9061544e565b60405180910390fd5b5b6000604460008360ff1660ff16815260200190815260200160002090506002808111156123cf57fe5b8160000160019054906101000a900460ff1660028111156123ec57fe5b1461242c576040517f08c379a00000000000000000000000000000000000000000000000000000000081526004016124239061540e565b60405180910390fd5b3373ffffffffffffffffffffffffffffffffffffffff168160000160029054906101000a900473ffffffffffffffffffffffffffffffffffffffff1673ffffffffffffffffffffffffffffffffffffffff16146124be576040517f08c379a00000000000000000000000000000000000000000000000000000000081526004016124b5906154ee565b60405180910390fd5b826000600281106124cb57fe5b6020020151816001015414612515576040517f08c379a000000000000000000000000000000000000000000000000000000000815260040161250c9061548e565b60405180910390fd5b604760009054906101000a900460ff166125f65773__Verifier______________________________63ab475307878787876040518563ffffffff1660e01b815260040161256694939291906152f1565b60206040518083038186803b15801561257e57600080fd5b505af4158015612592573d6000803e3d6000fd5b505050506040513d601f19601f820116820180604052508101906125b691906148a0565b6125f5576040517f08c379a00000000000000000000000000000000000000000000000000000000081526004016125ec906153ae565b60405180910390fd5b5b8260016002811061260357fe5b60200201518160010181905550612618613d90565b505050505050565b603460009054906101000a900460ff1681565b604860009054906101000a900473ffffffffffffffffffffffffffffffffffffffff1681565b60466020528060005260406000206000915090508060000160009054906101000a900460ff16908060000160019054906101000a900460ff16908060000160029054906101000a900460ff16908060000160039054906101000a900460ff16908060000160049054906101000a900473ffffffffffffffffffffffffffffffffffffffff16905085565b604860149054906101000a900460ff1681565b6060600667ffffffffffffffff8111801561271057600080fd5b5060405190808252806020026020018201604052801561274a57816020015b612737614511565b81526020019060019003908161272f5790505b50905060008090505b60068160ff161015612899576046600060458360ff166006811061277357fe5b602091828204019190069054906101000a900460ff1660ff1660ff1681526020019081526020016000206040518060a00160405290816000820160009054906101000a900460ff1660ff1660ff1681526020016000820160019054906101000a900460ff1660ff1660ff1681526020016000820160029054906101000a900460ff1660ff1660ff1681526020016000820160039054906101000a900460ff1660ff1660ff1681526020016000820160049054906101000a900473ffffffffffffffffffffffffffffffffffffffff1673ffffffffffffffffffffffffffffffffffffffff1673ffffffffffffffffffffffffffffffffffffffff1681525050828260ff168151811061288157fe5b60200260200101819052508080600101915050612753565b5080905090565b604760009054906101000a900460ff1681565b6003808111156128bf57fe5b603460019054906101000a900460ff1660038111156128da57fe5b141561291b576040517f08c379a00000000000000000000000000000000000000000000000000000000081526004016129129061542e565b60405180910390fd5b604760019054906101000a900473ffffffffffffffffffffffffffffffffffffffff1673ffffffffffffffffffffffffffffffffffffffff163373ffffffffffffffffffffffffffffffffffffffff1614156129da576001600381111561297e57fe5b603460019054906101000a900460ff16600381111561299957fe5b146129d9576040517f08c379a00000000000000000000000000000000000000000000000000000000081526004016129d09061550e565b60405180910390fd5b5b604860009054906101000a900473ffffffffffffffffffffffffffffffffffffffff1673ffffffffffffffffffffffffffffffffffffffff163373ffffffffffffffffffffffffffffffffffffffff161415612a995760026003811115612a3d57fe5b603460019054906101000a900460ff166003811115612a5857fe5b14612a98576040517f08c379a0000000000000000000000000000000000000000000000000000000008152600401612a8f9061544e565b60405180910390fd5b5b6000603460009054906101000a900460ff1660ff1611612aee576040517f08c379a0000000000000000000000000000000000000000000000000000000008152600401612ae5906154ae565b60405180910390fd5b6000604460008660ff1660ff1681526020019081526020016000209050600280811115612b1757fe5b8160000160019054906101000a900460ff166002811115612b3457fe5b14612b74576040517f08c379a0000000000000000000000000000000000000000000000000000000008152600401612b6b9061540e565b60405180910390fd5b3373ffffffffffffffffffffffffffffffffffffffff168160000160029054906101000a900473ffffffffffffffffffffffffffffffffffffffff1673ffffffffffffffffffffffffffffffffffffffff1614612c06576040517f08c379a0000000000000000000000000000000000000000000000000000000008152600401612bfd906154ee565b60405180910390fd5b806001015473__ZKChessUtils__________________________639c93c9858686867f30644e72e131a029b85045b68181585d2833e84879b9709143e1f593f00000016040518563ffffffff1660e01b8152600401612c689493929190615549565b60206040518083038186803b158015612c8057600080fd5b505af4158015612c94573d6000803e3d6000fd5b505050506040513d601f19601f82011682018060405250810190612cb89190614943565b14612cf8576040517f08c379a0000000000000000000000000000000000000000000000000000000008152600401612cef9061546e565b60405180910390fd5b60006044600060358760078110612d0b57fe5b018660078110612d1757fe5b602091828204019190069054906101000a900460ff1660ff1660ff16815260200190815260200160002090506000604760019054906101000a900473ffffffffffffffffffffffffffffffffffffffff169050604760019054906101000a900473ffffffffffffffffffffffffffffffffffffffff1673ffffffffffffffffffffffffffffffffffffffff163373ffffffffffffffffffffffffffffffffffffffff161415612de657604860009054906101000a900473ffffffffffffffffffffffffffffffffffffffff1690505b8073ffffffffffffffffffffffffffffffffffffffff168260000160029054906101000a900473ffffffffffffffffffffffffffffffffffffffff1673ffffffffffffffffffffffffffffffffffffffff1614612e78576040517f08c379a0000000000000000000000000000000000000000000000000000000008152600401612e6f906153ee565b60405180910390fd5b60018260000160186101000a81548160ff021916908315150217905550612e9d613d90565b50505050505050565b7f104ddaefd01036b8465b22025720f944733190135fd4ed564186bc3cfcaec72281565b603c8260078110612ed757fe5b018160078110612ee357fe5b60209182820401919006915091509054906101000a900460ff1681565b604860159054906101000a900460ff1681565b60458160068110612f2057fe5b60209182820401919006915054906101000a900460ff1681565b6060600867ffffffffffffffff81118015612f5457600080fd5b50604051908082528060200260200182016040528015612f8e57816020015b612f7b614562565b815260200190600190039081612f735790505b50905060008090505b60088160ff161015613112576044600060438360ff1660088110612fb757fe5b602091828204019190069054906101000a900460ff1660ff1660ff1681526020019081526020016000206040518060e00160405290816000820160009054906101000a900460ff1660ff1660ff1681526020016000820160019054906101000a900460ff16600281111561302757fe5b600281111561303257fe5b81526020016000820160029054906101000a900473ffffffffffffffffffffffffffffffffffffffff1673ffffffffffffffffffffffffffffffffffffffff1673ffffffffffffffffffffffffffffffffffffffff1681526020016000820160169054906101000a900460ff1660ff1660ff1681526020016000820160179054906101000a900460ff1660ff1660ff1681526020016000820160189054906101000a900460ff16151515158152602001600182015481525050828260ff16815181106130fa57fe5b60200260200101819052508080600101915050612f97565b5080905090565b6043816008811061312657fe5b60209182820401919006915054906101000a900460ff1681565b603460019054906101000a900460ff1681565b604760019054906101000a900473ffffffffffffffffffffffffffffffffffffffff1681565b6000600381111561318657fe5b603460019054906101000a900460ff1660038111156131a157fe5b146131e1576040517f08c379a00000000000000000000000000000000000000000000000000000000081526004016131d8906154ce565b60405180910390fd5b600073ffffffffffffffffffffffffffffffffffffffff16604760019054906101000a900473ffffffffffffffffffffffffffffffffffffffff1673ffffffffffffffffffffffffffffffffffffffff16141561327e5733604760016101000a81548173ffffffffffffffffffffffffffffffffffffffff021916908373ffffffffffffffffffffffffffffffffffffffff1602179055506135eb565b604760019054906101000a900473ffffffffffffffffffffffffffffffffffffffff1673ffffffffffffffffffffffffffffffffffffffff163373ffffffffffffffffffffffffffffffffffffffff16141561330f576040517f08c379a00000000000000000000000000000000000000000000000000000000081526004016133069061538e565b60405180910390fd5b60006002428161331b57fe5b0614156133685733604860006101000a81548173ffffffffffffffffffffffffffffffffffffffff021916908373ffffffffffffffffffffffffffffffffffffffff16021790555061340d565b604760019054906101000a900473ffffffffffffffffffffffffffffffffffffffff16604860006101000a81548173ffffffffffffffffffffffffffffffffffffffff021916908373ffffffffffffffffffffffffffffffffffffffff16021790555033604760016101000a81548173ffffffffffffffffffffffffffffffffffffffff021916908373ffffffffffffffffffffffffffffffffffffffff1602179055505b6000600190505b60058160ff1610156134aa57604760019054906101000a900473ffffffffffffffffffffffffffffffffffffffff16604460008360ff1660ff16815260200190815260200160002060000160026101000a81548173ffffffffffffffffffffffffffffffffffffffff021916908373ffffffffffffffffffffffffffffffffffffffff1602179055508080600101915050613414565b506000600590505b60098160ff16101561354857604860009054906101000a900473ffffffffffffffffffffffffffffffffffffffff16604460008360ff1660ff16815260200190815260200160002060000160026101000a81548173ffffffffffffffffffffffffffffffffffffffff021916908373ffffffffffffffffffffffffffffffffffffffff16021790555080806001019150506134b2565b506001603460016101000a81548160ff0219169083600381111561356857fe5b02179055507f8fd707874eb940598510258c64cad23fd35fe8c85c5c38e8782fac2cc887fb6e604760019054906101000a900473ffffffffffffffffffffffffffffffffffffffff16604860009054906101000a900473ffffffffffffffffffffffffffffffffffffffff166040516135e2929190615284565b60405180910390a15b565b60335481565b600781565b60038081111561360457fe5b603460019054906101000a900460ff16600381111561361f57fe5b1415613660576040517f08c379a00000000000000000000000000000000000000000000000000000000081526004016136579061542e565b60405180910390fd5b604760019054906101000a900473ffffffffffffffffffffffffffffffffffffffff1673ffffffffffffffffffffffffffffffffffffffff163373ffffffffffffffffffffffffffffffffffffffff16141561371f57600160038111156136c357fe5b603460019054906101000a900460ff1660038111156136de57fe5b1461371e576040517f08c379a00000000000000000000000000000000000000000000000000000000081526004016137159061550e565b60405180910390fd5b5b604860009054906101000a900473ffffffffffffffffffffffffffffffffffffffff1673ffffffffffffffffffffffffffffffffffffffff163373ffffffffffffffffffffffffffffffffffffffff1614156137de576002600381111561378257fe5b603460019054906101000a900460ff16600381111561379d57fe5b146137dd576040517f08c379a00000000000000000000000000000000000000000000000000000000081526004016137d49061544e565b60405180910390fd5b5b6000603460009054906101000a900460ff1660ff1611613833576040517f08c379a000000000000000000000000000000000000000000000000000000000815260040161382a906154ae565b60405180910390fd5b6000604460008560ff1660ff16815260200190815260200160002090503373ffffffffffffffffffffffffffffffffffffffff168160000160029054906101000a900473ffffffffffffffffffffffffffffffffffffffff1673ffffffffffffffffffffffffffffffffffffffff16146138e2576040517f08c379a00000000000000000000000000000000000000000000000000000000081526004016138d9906154ee565b60405180910390fd5b8060000160189054906101000a900460ff1615613934576040517f08c379a000000000000000000000000000000000000000000000000000000000815260040161392b9061536e565b60405180910390fd5b613a49816040518060e00160405290816000820160009054906101000a900460ff1660ff1660ff1681526020016000820160019054906101000a900460ff16600281111561397e57fe5b600281111561398957fe5b81526020016000820160029054906101000a900473ffffffffffffffffffffffffffffffffffffffff1673ffffffffffffffffffffffffffffffffffffffff1673ffffffffffffffffffffffffffffffffffffffff1681526020016000820160169054906101000a900460ff1660ff1660ff1681526020016000820160179054906101000a900460ff1660ff1660ff1681526020016000820160189054906101000a900460ff16151515158152602001600182015481525050848461050b565b613a88576040517f08c379a0000000000000000000000000000000000000000000000000000000008152600401613a7f906153ce565b60405180910390fd5b600060358260000160169054906101000a900460ff1660ff1660078110613aab57fe5b018260000160179054906101000a900460ff1660ff1660078110613acb57fe5b602091828204019190066101000a81548160ff021916908360ff1602179055508060000160009054906101000a900460ff1660358460ff1660078110613b0d57fe5b018360ff1660078110613b1c57fe5b602091828204019190066101000a81548160ff021916908360ff160217905550828160000160166101000a81548160ff021916908360ff160217905550818160000160176101000a81548160ff021916908360ff160217905550600060466000603c8660ff1660078110613b8c57fe5b018560ff1660078110613b9b57fe5b602091828204019190069054906101000a900460ff1660ff1660ff16815260200190815260200160002060000160019054906101000a900460ff1660ff16118015613c825750600073ffffffffffffffffffffffffffffffffffffffff1660466000603c8660ff1660078110613c0d57fe5b018560ff1660078110613c1c57fe5b602091828204019190069054906101000a900460ff1660ff1660ff16815260200190815260200160002060000160049054906101000a900473ffffffffffffffffffffffffffffffffffffffff1673ffffffffffffffffffffffffffffffffffffffff16145b15613d8257604760019054906101000a900473ffffffffffffffffffffffffffffffffffffffff1673ffffffffffffffffffffffffffffffffffffffff163373ffffffffffffffffffffffffffffffffffffffff161415613d3157603c8360ff1660078110613ced57fe5b018260ff1660078110613cfc57fe5b602091828204019190069054906101000a900460ff16604860166101000a81548160ff021916908360ff160217905550613d81565b603c8360ff1660078110613d4157fe5b018260ff1660078110613d5057fe5b602091828204019190069054906101000a900460ff16604860176101000a81548160ff021916908360ff1602179055505b5b613d8a613d90565b50505050565b604760019054906101000a900473ffffffffffffffffffffffffffffffffffffffff1673ffffffffffffffffffffffffffffffffffffffff163373ffffffffffffffffffffffffffffffffffffffff16141561407f57600060466000604860179054906101000a900460ff1660ff1660ff168152602001908152602001600020905060008160000160019054906101000a900460ff1660ff16118015613e865750600073ffffffffffffffffffffffffffffffffffffffff168160000160049054906101000a900473ffffffffffffffffffffffffffffffffffffffff1673ffffffffffffffffffffffffffffffffffffffff16145b156140395760006044600060358460000160029054906101000a900460ff1660ff1660078110613eb257fe5b018460000160039054906101000a900460ff1660ff1660078110613ed257fe5b602091828204019190069054906101000a900460ff1660ff1660ff1681526020019081526020016000209050604860009054906101000a900473ffffffffffffffffffffffffffffffffffffffff1673ffffffffffffffffffffffffffffffffffffffff168160000160029054906101000a900473ffffffffffffffffffffffffffffffffffffffff1673ffffffffffffffffffffffffffffffffffffffff16148015613f8e57508060000160189054906101000a900460ff16155b1561403757604860009054906101000a900473ffffffffffffffffffffffffffffffffffffffff168260000160046101000a81548173ffffffffffffffffffffffffffffffffffffffff021916908373ffffffffffffffffffffffffffffffffffffffff1602179055508160000160019054906101000a900460ff16604860158282829054906101000a900460ff160192506101000a81548160ff021916908360ff1602179055505b505b6000604860176101000a81548160ff021916908360ff1602179055506002603460016101000a81548160ff0219169083600381111561407457fe5b021790555050614346565b600060466000604860169054906101000a900460ff1660ff1660ff168152602001908152602001600020905060008160000160019054906101000a900460ff1660ff1611801561411f5750600073ffffffffffffffffffffffffffffffffffffffff168160000160049054906101000a900473ffffffffffffffffffffffffffffffffffffffff1673ffffffffffffffffffffffffffffffffffffffff16145b156142d25760006044600060358460000160029054906101000a900460ff1660ff166007811061414b57fe5b018460000160039054906101000a900460ff1660ff166007811061416b57fe5b602091828204019190069054906101000a900460ff1660ff1660ff1681526020019081526020016000209050604760019054906101000a900473ffffffffffffffffffffffffffffffffffffffff1673ffffffffffffffffffffffffffffffffffffffff168160000160029054906101000a900473ffffffffffffffffffffffffffffffffffffffff1673ffffffffffffffffffffffffffffffffffffffff1614801561422757508060000160189054906101000a900460ff16155b156142d057604760019054906101000a900473ffffffffffffffffffffffffffffffffffffffff168260000160046101000a81548173ffffffffffffffffffffffffffffffffffffffff021916908373ffffffffffffffffffffffffffffffffffffffff1602179055508160000160019054906101000a900460ff16604860148282829054906101000a900460ff160192506101000a81548160ff021916908360ff1602179055505b505b6000604860166101000a81548160ff021916908360ff1602179055506034600081819054906101000a900460ff168092919060010191906101000a81548160ff021916908360ff160217905550506001603460016101000a81548160ff0219169083600381111561433f57fe5b0217905550505b7f8eaa9f09cc5e3b56163bc8d93f99b4299c7172f83d51d1448e8d9a3dc6d1a101336040516143759190615269565b60405180910390a161438561204d565b156143db576003603460016101000a81548160ff021916908360038111156143a957fe5b02179055507fb537cbcadc098cfedf5a04ef7e68a8554b55f7e45bfdaca1cbc51a686ef65f4860405160405180910390a15b565b826008601f016020900481019282156144665791602002820160005b8382111561443757835183826101000a81548160ff021916908360ff16021790555092602001926001016020816000010492830192600103026143f9565b80156144645782816101000a81549060ff0219169055600101602081600001049283019260010302614437565b505b50905061447391906145cb565b5090565b826006601f016020900481019282156145005791602002820160005b838211156144d157835183826101000a81548160ff021916908360ff1602179055509260200192600101602081600001049283019260010302614493565b80156144fe5782816101000a81549060ff02191690556001016020816000010492830192600103026144d1565b505b50905061450d91906145cb565b5090565b6040518060a00160405280600060ff168152602001600060ff168152602001600060ff168152602001600060ff168152602001600073ffffffffffffffffffffffffffffffffffffffff1681525090565b6040518060e00160405280600060ff1681526020016000600281111561458457fe5b8152602001600073ffffffffffffffffffffffffffffffffffffffff168152602001600060ff168152602001600060ff168152602001600015158152602001600081525090565b6145f891905b808211156145f457600081816101000a81549060ff0219169055506001016145d1565b5090565b90565b60008135905061460a816158b3565b92915050565b600082601f83011261462157600080fd5b600261463461462f82615698565b61566b565b9150818385604084028201111561464a57600080fd5b60005b8381101561467a57816146608882614684565b84526020840193506040830192505060018101905061464d565b5050505092915050565b600082601f83011261469557600080fd5b60026146a86146a3826156ba565b61566b565b915081838560208402820111156146be57600080fd5b60005b838110156146ee57816146d488826147e7565b8452602084019350602083019250506001810190506146c1565b5050505092915050565b600081359050614707816158ca565b92915050565b60008151905061471c816158ca565b92915050565b600081359050614731816158e1565b92915050565b600060e0828403121561474957600080fd5b61475360e061566b565b9050600061476384828501614811565b600083015250602061477784828501614722565b602083015250604061478b848285016145fb565b604083015250606061479f84828501614811565b60608301525060806147b384828501614811565b60808301525060a06147c7848285016146f8565b60a08301525060c06147db848285016147e7565b60c08301525092915050565b6000813590506147f6816158f1565b92915050565b60008151905061480b816158f1565b92915050565b60008135905061482081615908565b92915050565b6000806000806000610160868803121561483f57600080fd5b600061484d88828901614684565b955050604061485e88828901614610565b94505060c061486f88828901614684565b93505061010061488188828901614684565b92505061014061489388828901614811565b9150509295509295909350565b6000602082840312156148b257600080fd5b60006148c08482850161470d565b91505092915050565b600080600061012084860312156148df57600080fd5b60006148ed86828701614737565b93505060e06148fe86828701614811565b92505061010061491086828701614811565b9150509250925092565b60006020828403121561492c57600080fd5b600061493a848285016147e7565b91505092915050565b60006020828403121561495557600080fd5b6000614963848285016147fc565b91505092915050565b6000806040838503121561497f57600080fd5b600061498d858286016147e7565b925050602061499e858286016146f8565b9150509250929050565b600080604083850312156149bb57600080fd5b60006149c9858286016147e7565b92505060206149da858286016147e7565b9150509250929050565b6000602082840312156149f657600080fd5b6000614a0484828501614811565b91505092915050565b60008060008060808587031215614a2357600080fd5b6000614a3187828801614811565b9450506020614a42878288016147e7565b9350506040614a53878288016147e7565b9250506060614a64878288016147e7565b91505092959194509250565b600080600060608486031215614a8557600080fd5b6000614a9386828701614811565b9350506020614aa486828701614811565b9250506040614ab586828701614811565b9150509250925092565b6000614acb8383614cb6565b60408301905092915050565b6000614ae383836150fe565b60a08301905092915050565b6000614afb8383615166565b60e08301905092915050565b6000614b138383615221565b60208301905092915050565b614b288161583f565b82525050565b614b37816157c4565b82525050565b614b46816157c4565b82525050565b614b5581615710565b614b5f8184615770565b9250614b6a826156dc565b8060005b83811015614b9b578151614b828782614abf565b9650614b8d8361573c565b925050600181019050614b6e565b505050505050565b6000614bae8261571b565b614bb8818561577b565b9350614bc3836156e6565b8060005b83811015614bf4578151614bdb8882614ad7565b9750614be683615749565b925050600181019050614bc7565b5085935050505092915050565b6000614c0c82615726565b614c16818561578c565b9350614c21836156f6565b8060005b83811015614c52578151614c398882614aef565b9750614c4483615756565b925050600181019050614c25565b5085935050505092915050565b614c6881615731565b614c72818461579d565b9250614c7d82615706565b8060005b83811015614cae578151614c958782614b07565b9650614ca083615763565b925050600181019050614c81565b505050505050565b614cbf81615731565b614cc981846157a8565b9250614cd482615706565b8060005b83811015614d05578151614cec8782614b07565b9650614cf783615763565b925050600181019050614cd8565b505050505050565b614d16816157d6565b82525050565b614d25816157d6565b82525050565b614d3481615851565b82525050565b614d4381615863565b82525050565b614d5281615863565b82525050565b6000614d65600d836157b3565b91507f50696563652069732064656164000000000000000000000000000000000000006000830152602082019050919050565b6000614da56015836157b3565b91507f63616e2774206a6f696e2067616d6520747769636500000000000000000000006000830152602082019050919050565b6000614de56014836157b3565b91507f4661696c6564207a6b206d6f766520636865636b0000000000000000000000006000830152602082019050919050565b6000614e25600c836157b3565b91507f496e76616c6964206d6f766500000000000000000000000000000000000000006000830152602082019050919050565b6000614e656029836157b3565b91507f63616e206f6e6c792072657665616c20746f2063617074757265206f70706f7360008301527f696e6720706965636500000000000000000000000000000000000000000000006020830152604082019050919050565b6000614ecb6015836157b3565b91507f5069656365206d75737420626520612067686f737400000000000000000000006000830152602082019050919050565b6000614f0b600d836157b3565b91507f47616d6520697320656e646564000000000000000000000000000000000000006000830152602082019050919050565b6000614f4b600d836157b3565b91507f4e6f742070322773207475726e000000000000000000000000000000000000006000830152602082019050919050565b6000614f8b600e836157b3565b91507f496e76616c69642072657665616c0000000000000000000000000000000000006000830152602082019050919050565b6000614fcb6010836157b3565b91507f5a4b2050726f6f6620696e76616c6964000000000000000000000000000000006000830152602082019050919050565b600061500b601d836157b3565b91507f4d757374206d6f76652067686f7374206f6e206669727374207475726e0000006000830152602082019050919050565b600061504b6014836157b3565b91507f47616d6520616c726561647920737461727465640000000000000000000000006000830152602082019050919050565b600061508b6018836157b3565b91507f596f7520646f6e2774206f776e207468617420706965636500000000000000006000830152602082019050919050565b60006150cb600d836157b3565b91507f4e6f742070312773207475726e000000000000000000000000000000000000006000830152602082019050919050565b60a0820160008201516151146000850182615230565b5060208201516151276020850182615230565b50604082015161513a6040850182615230565b50606082015161514d6060850182615230565b5060808201516151606080850182614b2e565b50505050565b60e08201600082015161517c6000850182615230565b50602082015161518f6020850182614d3a565b5060408201516151a26040850182614b2e565b5060608201516151b56060850182615230565b5060808201516151c86080850182615230565b5060a08201516151db60a0850182614d0d565b5060c08201516151ee60c08501826151f4565b50505050565b6151fd81615828565b82525050565b61520c81615828565b82525050565b61521b81615828565b82525050565b61522a81615828565b82525050565b61523981615832565b82525050565b61524881615832565b82525050565b60006020820190506152636000830184614b3d565b92915050565b600060208201905061527e6000830184614b1f565b92915050565b60006040820190506152996000830185614b3d565b6152a66020830184614b3d565b9392505050565b600060208201905081810360008301526152c78184614ba3565b905092915050565b600060208201905081810360008301526152e98184614c01565b905092915050565b6000610140820190506153076000830187614c5f565b6153146040830186614b4c565b61532160c0830185614c5f565b61532f610100830184614c5f565b95945050505050565b600060208201905061534d6000830184614d1c565b92915050565b60006020820190506153686000830184614d2b565b92915050565b6000602082019050818103600083015261538781614d58565b9050919050565b600060208201905081810360008301526153a781614d98565b9050919050565b600060208201905081810360008301526153c781614dd8565b9050919050565b600060208201905081810360008301526153e781614e18565b9050919050565b6000602082019050818103600083015261540781614e58565b9050919050565b6000602082019050818103600083015261542781614ebe565b9050919050565b6000602082019050818103600083015261544781614efe565b9050919050565b6000602082019050818103600083015261546781614f3e565b9050919050565b6000602082019050818103600083015261548781614f7e565b9050919050565b600060208201905081810360008301526154a781614fbe565b9050919050565b600060208201905081810360008301526154c781614ffe565b9050919050565b600060208201905081810360008301526154e78161503e565b9050919050565b600060208201905081810360008301526155078161507e565b9050919050565b60006020820190508181036000830152615527816150be565b9050919050565b60006020820190506155436000830184615203565b92915050565b600060808201905061555e6000830187615212565b61556b6020830186615212565b6155786040830185615212565b6155856060830184615212565b95945050505050565b60006020820190506155a3600083018461523f565b92915050565b600060e0820190506155be600083018a61523f565b6155cb6020830189614d49565b6155d86040830188614b3d565b6155e5606083018761523f565b6155f2608083018661523f565b6155ff60a0830185614d1c565b61560c60c0830184615203565b98975050505050505050565b600060a08201905061562d600083018861523f565b61563a602083018761523f565b615647604083018661523f565b615654606083018561523f565b6156616080830184614b3d565b9695505050505050565b6000604051905081810181811067ffffffffffffffff8211171561568e57600080fd5b8060405250919050565b600067ffffffffffffffff8211156156af57600080fd5b602082029050919050565b600067ffffffffffffffff8211156156d157600080fd5b602082029050919050565b6000819050919050565b6000819050602082019050919050565b6000819050602082019050919050565b6000819050919050565b600060029050919050565b600081519050919050565b600081519050919050565b600060029050919050565b6000602082019050919050565b6000602082019050919050565b6000602082019050919050565b6000602082019050919050565b600081905092915050565b600082825260208201905092915050565b600082825260208201905092915050565b600081905092915050565b600081905092915050565b600082825260208201905092915050565b60006157cf82615808565b9050919050565b60008115159050919050565b60008190506157f082615899565b919050565b6000819050615803826158a6565b919050565b600073ffffffffffffffffffffffffffffffffffffffff82169050919050565b6000819050919050565b600060ff82169050919050565b600061584a82615875565b9050919050565b600061585c826157e2565b9050919050565b600061586e826157f5565b9050919050565b600061588082615887565b9050919050565b600061589282615808565b9050919050565b600481106158a357fe5b50565b600381106158b057fe5b50565b6158bc816157c4565b81146158c757600080fd5b50565b6158d3816157d6565b81146158de57600080fd5b50565b600381106158ee57600080fd5b50565b6158fa81615828565b811461590557600080fd5b50565b61591181615832565b811461591c57600080fd5b5056fea2646970667358221220b421ba1de79151d40861f9862fcfc8fea04749b38335aa55a98a9b3361ec1b9964736f6c63430006070033",
  "immutableReferences": {},
  "source": "pragma solidity ^0.6.7;\npragma experimental ABIEncoderV2;\n\nimport \"@openzeppelin/contracts-ethereum-package/contracts/Initializable.sol\";\nimport \"./ZKChessTypes.sol\";\nimport \"./ZKChessUtils.sol\";\nimport \"./Verifier.sol\";\n\ncontract ZKChessGame is Initializable {\n    uint256\n        public constant FIELD_SIZE = 21888242871839275222246405745257275088548364400416034343698204186575808495617;\n    uint256\n        public constant GHOST_START_COMMITMENT = 7374563847362678215915084925243633004703986452179446109135597066279732561698;\n    uint256 public constant BOARD_SIZE = 7;\n\n    uint256 public gameId;\n\n    uint8 public turnNumber;\n    GameState public gameState;\n    uint8[BOARD_SIZE][BOARD_SIZE] public boardPieces; // board[row][col]\n    uint8[BOARD_SIZE][BOARD_SIZE] public boardObjectives;\n\n    uint8[8] public pieceIds;\n    mapping(uint8 => Piece) public pieces;\n    uint8[6] public objectiveIds;\n    mapping(uint8 => Objective) public objectives;\n\n    bool public DISABLE_ZK_CHECK;\n\n    address public player1;\n    address public player2;\n\n    uint8 public player1Score;\n    uint8 public player2Score;\n\n    uint8 p1CurrentlyCapturing;\n    uint8 p2CurrentlyCapturing;\n\n    uint256 pfsVerified;\n\n    function initialize(uint256 _gameId, bool _disableZKCheck) public {\n        gameId = _gameId;\n        DISABLE_ZK_CHECK = _disableZKCheck;\n        gameState = GameState.WAITING_FOR_PLAYERS;\n\n        pieceIds = [1, 2, 3, 4, 5, 6, 7, 8];\n        objectiveIds = [9, 10, 11, 12, 13, 14];\n\n        // initialize pieces\n        pieces[1] = Piece({\n            id: 1,\n            pieceType: PieceType.KING,\n            owner: address(0),\n            row: 0,\n            col: 1,\n            dead: false,\n            commitment: 0\n        });\n        boardPieces[0][1] = 1;\n        pieces[2] = Piece({\n            id: 2,\n            pieceType: PieceType.KNIGHT,\n            owner: address(0),\n            row: 0,\n            col: 3,\n            dead: false,\n            commitment: 0\n        });\n        boardPieces[0][3] = 2;\n        pieces[3] = Piece({\n            id: 3,\n            pieceType: PieceType.KING,\n            owner: address(0),\n            row: 0,\n            col: 5,\n            dead: false,\n            commitment: 0\n        });\n        boardPieces[0][5] = 3;\n        pieces[4] = Piece({\n            id: 4,\n            pieceType: PieceType.GHOST,\n            owner: address(0),\n            row: 0,\n            col: 0,\n            dead: false,\n            commitment: GHOST_START_COMMITMENT\n        });\n        pieces[5] = Piece({\n            id: 5,\n            pieceType: PieceType.KING,\n            owner: address(0),\n            row: 6,\n            col: 1,\n            dead: false,\n            commitment: 0\n        });\n        boardPieces[6][1] = 5;\n        pieces[6] = Piece({\n            id: 6,\n            pieceType: PieceType.KNIGHT,\n            owner: address(0),\n            row: 6,\n            col: 3,\n            dead: false,\n            commitment: 0\n        });\n        boardPieces[6][3] = 6;\n        pieces[7] = Piece({\n            id: 7,\n            pieceType: PieceType.KING,\n            owner: address(0),\n            row: 6,\n            col: 5,\n            dead: false,\n            commitment: 0\n        });\n        boardPieces[6][5] = 7;\n        pieces[8] = Piece({\n            id: 8,\n            pieceType: PieceType.GHOST,\n            owner: address(0),\n            row: 6,\n            col: 0,\n            dead: false,\n            commitment: GHOST_START_COMMITMENT\n        });\n\n        // initialize objectives\n        objectives[9] = Objective({\n            id: 9,\n            value: 5,\n            row: 3,\n            col: 0,\n            capturedBy: address(0)\n        });\n        boardObjectives[3][0] = 9;\n        objectives[10] = Objective({\n            id: 10,\n            value: 5,\n            row: 2,\n            col: 2,\n            capturedBy: address(0)\n        });\n        boardObjectives[2][2] = 10;\n        objectives[11] = Objective({\n            id: 11,\n            value: 10,\n            row: 4,\n            col: 2,\n            capturedBy: address(0)\n        });\n        boardObjectives[4][2] = 11;\n        objectives[12] = Objective({\n            id: 12,\n            value: 10,\n            row: 2,\n            col: 4,\n            capturedBy: address(0)\n        });\n        boardObjectives[2][4] = 12;\n        objectives[13] = Objective({\n            id: 13,\n            value: 5,\n            row: 4,\n            col: 4,\n            capturedBy: address(0)\n        });\n        boardObjectives[4][4] = 13;\n        objectives[14] = Objective({\n            id: 14,\n            value: 5,\n            row: 3,\n            col: 6,\n            capturedBy: address(0)\n        });\n        boardObjectives[3][6] = 14;\n    }\n\n    //////////////\n    /// EVENTS ///\n    //////////////\n\n    event ProofVerified(uint256 pfsAccepted);\n    event GameStart(address p1, address p2);\n    event MoveMade(address player);\n    event GameFinished();\n\n    ///////////////\n    /// GETTERS ///\n    ///////////////\n\n    function getPieces() public view returns (Piece[] memory ret) {\n        ret = new Piece[](pieceIds.length);\n        for (uint8 i = 0; i < pieceIds.length; i++) {\n            ret[i] = pieces[pieceIds[i]];\n        }\n        return ret;\n    }\n\n    function getObjectives() public view returns (Objective[] memory ret) {\n        ret = new Objective[](objectiveIds.length);\n        for (uint8 i = 0; i < objectiveIds.length; i++) {\n            ret[i] = objectives[objectiveIds[i]];\n        }\n        return ret;\n    }\n\n    //////////////\n    /// Helper ///\n    //////////////\n\n    function isValidMove(\n        Piece memory piece,\n        uint8 toRow,\n        uint8 toCol\n    ) public view returns (bool) {\n        if (toRow >= BOARD_SIZE || toCol >= BOARD_SIZE) {\n            // must be in the range [0, SIZE - 1]\n            return false;\n        }\n        if (boardPieces[toRow][toCol] > 0) {\n            // a piece already exists there\n            return false;\n        }\n        if (piece.pieceType == PieceType.GHOST) {\n            return false;\n        } else if (piece.pieceType == PieceType.KING) {\n            if (piece.row == toRow && piece.col == toCol) {\n                return false;\n            }\n            int16 rowDiff = int16(piece.row) - int16(toRow);\n            if (rowDiff > 1 || rowDiff < -1) {\n                return false;\n            }\n            int16 colDiff = int16(piece.col) - int16(toCol);\n            if (colDiff > 1 || colDiff < -1) {\n                return false;\n            }\n        } else if (piece.pieceType == PieceType.KNIGHT) {\n            int16 rowDiff = int16(piece.row) - int16(toRow);\n            int16 colDiff = int16(piece.col) - int16(toCol);\n            if (rowDiff == 2 || rowDiff == -2) {\n                if (colDiff != 1 && colDiff != -1) {\n                    return false;\n                }\n            } else if (rowDiff == 1 || rowDiff == -1) {\n                if (colDiff != 2 && colDiff != -2) {\n                    return false;\n                }\n            } else {\n                return false;\n            }\n        }\n        return true;\n    }\n\n    function gameShouldBeCompleted() public view returns (bool) {\n        // check if game is over: no pieces left, OR no objectives left\n        bool noPiecesLeft = true;\n        for (uint8 i = 0; i < pieceIds.length; i++) {\n            if (!pieces[pieceIds[i]].dead) {\n                noPiecesLeft = false;\n                break;\n            }\n        }\n        if (noPiecesLeft) {\n            return true;\n        }\n\n        bool noObjectivesLeft = true;\n        for (uint8 i = 0; i < objectiveIds.length; i++) {\n            if (objectives[objectiveIds[i]].capturedBy == address(0)) {\n                noObjectivesLeft = false;\n                break;\n            }\n        }\n        if (noObjectivesLeft) {\n            return true;\n        }\n        return false;\n    }\n\n    //////////////////////\n    /// Game Mechanics ///\n    //////////////////////\n\n    function joinGame() public {\n        require(\n            gameState == GameState.WAITING_FOR_PLAYERS,\n            \"Game already started\"\n        );\n        if (player1 == address(0)) {\n            // first player to join game\n            player1 = msg.sender;\n            return;\n        }\n        // another player has joined. game is ready to start\n\n        require(msg.sender != player1, \"can't join game twice\");\n        // randomize player order\n        if (block.timestamp % 2 == 0) {\n            player2 = msg.sender;\n        } else {\n            player2 = player1;\n            player1 = msg.sender;\n        }\n\n        // set pieces\n        for (uint8 i = 1; i < 5; i++) {\n            pieces[i].owner = player1;\n        }\n        for (uint8 i = 5; i < 9; i++) {\n            pieces[i].owner = player2;\n        }\n\n        gameState = GameState.P1_TO_MOVE;\n        emit GameStart(player1, player2);\n    }\n\n    function movePiece(\n        uint8 pieceId,\n        uint8 toRow,\n        uint8 toCol\n    ) public {\n        require(gameState != GameState.COMPLETE, \"Game is ended\");\n        if (msg.sender == player1) {\n            require(gameState == GameState.P1_TO_MOVE, \"Not p1's turn\");\n        }\n        if (msg.sender == player2) {\n            require(gameState == GameState.P2_TO_MOVE, \"Not p2's turn\");\n        }\n        require(turnNumber > 0, \"Must move ghost on first turn\");\n        Piece storage piece = pieces[pieceId];\n        require(piece.owner == msg.sender, \"You don't own that piece\");\n        require(!piece.dead, \"Piece is dead\");\n        require(isValidMove(piece, toRow, toCol), \"Invalid move\");\n\n        boardPieces[piece.row][piece.col] = 0;\n        boardPieces[toRow][toCol] = piece.id;\n        piece.row = toRow;\n        piece.col = toCol;\n        if (\n            objectives[boardObjectives[toRow][toCol]].value > 0 &&\n            objectives[boardObjectives[toRow][toCol]].capturedBy == address(0)\n        ) {\n            if (msg.sender == player1) {\n                p1CurrentlyCapturing = boardObjectives[toRow][toCol];\n            } else {\n                p2CurrentlyCapturing = boardObjectives[toRow][toCol];\n            }\n        }\n        completeTurn();\n    }\n\n    function moveGhost(\n        uint256[2] memory _a,\n        uint256[2][2] memory _b,\n        uint256[2] memory _c,\n        uint256[2] memory _input,\n        uint8 pieceId\n    ) public {\n        require(gameState != GameState.COMPLETE, \"Game is ended\");\n        if (msg.sender == player1) {\n            require(gameState == GameState.P1_TO_MOVE, \"Not p1's turn\");\n        }\n        if (msg.sender == player2) {\n            require(gameState == GameState.P2_TO_MOVE, \"Not p2's turn\");\n        }\n        Piece storage piece = pieces[pieceId];\n        require(piece.pieceType == PieceType.GHOST, \"Piece must be a ghost\");\n        require(piece.owner == msg.sender, \"You don't own that piece\");\n        require(piece.commitment == _input[0], \"ZK Proof invalid\");\n        if (!DISABLE_ZK_CHECK) {\n            require(\n                Verifier.verifyMoveProof(_a, _b, _c, _input),\n                \"Failed zk move check\"\n            );\n        }\n        piece.commitment = _input[1];\n        completeTurn();\n    }\n\n    function ghostAttack(\n        uint8 pieceId,\n        uint256 row,\n        uint256 col,\n        uint256 salt\n    ) public {\n        require(gameState != GameState.COMPLETE, \"Game is ended\");\n        if (msg.sender == player1) {\n            require(gameState == GameState.P1_TO_MOVE, \"Not p1's turn\");\n        }\n        if (msg.sender == player2) {\n            require(gameState == GameState.P2_TO_MOVE, \"Not p2's turn\");\n        }\n        require(turnNumber > 0, \"Must move ghost on first turn\");\n        Piece storage piece = pieces[pieceId];\n        require(piece.pieceType == PieceType.GHOST, \"Piece must be a ghost\");\n        require(piece.owner == msg.sender, \"You don't own that piece\");\n        require(\n            ZKChessUtils.hashTriple(row, col, salt, FIELD_SIZE) ==\n                piece.commitment,\n            \"Invalid reveal\"\n        );\n        Piece storage theirPiece = pieces[boardPieces[row][col]];\n        address opponent = player1;\n        if (msg.sender == player1) {\n            opponent = player2;\n        }\n        require(\n            theirPiece.owner == opponent,\n            \"can only reveal to capture opposing piece\"\n        );\n        theirPiece.dead = true;\n        completeTurn();\n    }\n\n    function completeTurn() internal {\n        if (msg.sender == player1) {\n            // check if opponent captures any objectives\n            Objective storage capturing = objectives[p2CurrentlyCapturing];\n            if (capturing.value > 0 && capturing.capturedBy == address(0)) {\n                // is an uncaptured objective\n                Piece storage onObjective = pieces[boardPieces[capturing\n                    .row][capturing.col]];\n                if (onObjective.owner == player2 && !onObjective.dead) {\n                    // p2's live piece is stationed on top\n                    capturing.capturedBy = player2;\n                    player2Score += capturing.value;\n                }\n            }\n            // change to p2's turn\n            p2CurrentlyCapturing = 0;\n            gameState = GameState.P2_TO_MOVE;\n        } else {\n            // check if opponent captures any objectives\n            Objective storage capturing = objectives[p1CurrentlyCapturing];\n            if (capturing.value > 0 && capturing.capturedBy == address(0)) {\n                // is an uncaptured objective\n                Piece storage onObjective = pieces[boardPieces[capturing\n                    .row][capturing.col]];\n                if (onObjective.owner == player1 && !onObjective.dead) {\n                    // p1's live piece is stationed on top\n                    capturing.capturedBy = player1;\n                    player1Score += capturing.value;\n                }\n            }\n            // change to p1's turn\n            p1CurrentlyCapturing = 0;\n            turnNumber++;\n            gameState = GameState.P1_TO_MOVE;\n        }\n        emit MoveMade(msg.sender);\n\n        if (gameShouldBeCompleted()) {\n            gameState = GameState.COMPLETE;\n            emit GameFinished();\n        }\n    }\n}\n",
  "sourcePath": "/Users/bgu/zk-chess/eth/contracts/ZKChessGame.sol",
  "compiler": {
    "name": "solc",
    "version": "0.6.7+commit.b8d736ae.Emscripten.clang"
  },
  "schemaVersion": "3.3.1",
  "updatedAt": "2020-11-03T19:09:44.174Z",
  "networkType": "ethereum",
  "devdoc": {
    "methods": {}
  },
  "userdoc": {
    "methods": {
      "getPieces()": {
        "notice": "//////////// GETTERS /// ////////////"
      },
      "isValidMove((uint8,uint8,address,uint8,uint8,bool,uint256),uint8,uint8)": {
        "notice": "/////////// Helper /// ///////////"
      },
      "joinGame()": {
        "notice": "/////////////////// Game Mechanics /// ///////////////////"
      }
    }
  }
}