{
  "contractName": "ZKChessGame",
  "abi": [
    {
      "anonymous": false,
      "inputs": [
        {
          "indexed": false,
          "internalType": "address",
          "name": "player",
          "type": "address"
        }
      ],
      "name": "ActionMade",
      "type": "event"
    },
    {
      "anonymous": false,
      "inputs": [],
      "name": "GameFinished",
      "type": "event"
    },
    {
      "anonymous": false,
      "inputs": [
        {
          "indexed": false,
          "internalType": "address",
          "name": "p1",
          "type": "address"
        },
        {
          "indexed": false,
          "internalType": "address",
          "name": "p2",
          "type": "address"
        }
      ],
      "name": "GameStart",
      "type": "event"
    },
    {
      "anonymous": false,
      "inputs": [
        {
          "indexed": false,
          "internalType": "uint256",
          "name": "pfsAccepted",
          "type": "uint256"
        }
      ],
      "name": "ProofVerified",
      "type": "event"
    },
    {
      "inputs": [],
      "name": "BOARD_SIZE",
      "outputs": [
        {
          "internalType": "uint256",
          "name": "",
          "type": "uint256"
        }
      ],
      "stateMutability": "view",
      "type": "function",
      "constant": true
    },
    {
      "inputs": [],
      "name": "DISABLE_ZK_CHECK",
      "outputs": [
        {
          "internalType": "bool",
          "name": "",
          "type": "bool"
        }
      ],
      "stateMutability": "view",
      "type": "function",
      "constant": true
    },
    {
      "inputs": [
        {
          "internalType": "uint256",
          "name": "",
          "type": "uint256"
        },
        {
          "internalType": "uint256",
          "name": "",
          "type": "uint256"
        }
      ],
      "name": "boardPieces",
      "outputs": [
        {
          "internalType": "uint8",
          "name": "",
          "type": "uint8"
        }
      ],
      "stateMutability": "view",
      "type": "function",
      "constant": true
    },
    {
      "inputs": [
        {
          "internalType": "enum PieceType",
          "name": "",
          "type": "uint8"
        }
      ],
      "name": "defaultStats",
      "outputs": [
        {
          "internalType": "enum PieceType",
          "name": "pieceType",
          "type": "uint8"
        },
        {
          "internalType": "uint8",
          "name": "mvRange",
          "type": "uint8"
        },
        {
          "internalType": "uint8",
          "name": "atkRange",
          "type": "uint8"
        },
        {
          "internalType": "uint8",
          "name": "hp",
          "type": "uint8"
        },
        {
          "internalType": "uint8",
          "name": "atk",
          "type": "uint8"
        },
        {
          "internalType": "uint8",
          "name": "cost",
          "type": "uint8"
        },
        {
          "internalType": "bool",
          "name": "isZk",
          "type": "bool"
        },
        {
          "internalType": "bool",
          "name": "kamikaze",
          "type": "bool"
        }
      ],
      "stateMutability": "view",
      "type": "function",
      "constant": true
    },
    {
      "inputs": [],
      "name": "gameId",
      "outputs": [
        {
          "internalType": "uint256",
          "name": "",
          "type": "uint256"
        }
      ],
      "stateMutability": "view",
      "type": "function",
      "constant": true
    },
    {
      "inputs": [],
      "name": "gameState",
      "outputs": [
        {
          "internalType": "enum GameState",
          "name": "",
          "type": "uint8"
        }
      ],
      "stateMutability": "view",
      "type": "function",
      "constant": true
    },
    {
      "inputs": [
        {
          "internalType": "uint8",
          "name": "",
          "type": "uint8"
        },
        {
          "internalType": "uint8",
          "name": "",
          "type": "uint8"
        }
      ],
      "name": "hasAttacked",
      "outputs": [
        {
          "internalType": "bool",
          "name": "",
          "type": "bool"
        }
      ],
      "stateMutability": "view",
      "type": "function",
      "constant": true
    },
    {
      "inputs": [
        {
          "internalType": "uint8",
          "name": "",
          "type": "uint8"
        },
        {
          "internalType": "uint8",
          "name": "",
          "type": "uint8"
        }
      ],
      "name": "hasMoved",
      "outputs": [
        {
          "internalType": "bool",
          "name": "",
          "type": "bool"
        }
      ],
      "stateMutability": "view",
      "type": "function",
      "constant": true
    },
    {
      "inputs": [
        {
          "internalType": "uint256",
          "name": "",
          "type": "uint256"
        }
      ],
      "name": "pieceIds",
      "outputs": [
        {
          "internalType": "uint8",
          "name": "",
          "type": "uint8"
        }
      ],
      "stateMutability": "view",
      "type": "function",
      "constant": true
    },
    {
      "inputs": [
        {
          "internalType": "uint8",
          "name": "",
          "type": "uint8"
        }
      ],
      "name": "pieces",
      "outputs": [
        {
          "internalType": "uint8",
          "name": "id",
          "type": "uint8"
        },
        {
          "internalType": "enum PieceType",
          "name": "pieceType",
          "type": "uint8"
        },
        {
          "internalType": "address",
          "name": "owner",
          "type": "address"
        },
        {
          "internalType": "uint8",
          "name": "row",
          "type": "uint8"
        },
        {
          "internalType": "uint8",
          "name": "col",
          "type": "uint8"
        },
        {
          "internalType": "bool",
          "name": "alive",
          "type": "bool"
        },
        {
          "internalType": "bool",
          "name": "initialized",
          "type": "bool"
        },
        {
          "internalType": "uint8",
          "name": "hp",
          "type": "uint8"
        },
        {
          "internalType": "uint8",
          "name": "initializedOnTurn",
          "type": "uint8"
        },
        {
          "internalType": "uint256",
          "name": "commitment",
          "type": "uint256"
        }
      ],
      "stateMutability": "view",
      "type": "function",
      "constant": true
    },
    {
      "inputs": [],
      "name": "player1",
      "outputs": [
        {
          "internalType": "address",
          "name": "",
          "type": "address"
        }
      ],
      "stateMutability": "view",
      "type": "function",
      "constant": true
    },
    {
      "inputs": [],
      "name": "player1Mana",
      "outputs": [
        {
          "internalType": "uint8",
          "name": "",
          "type": "uint8"
        }
      ],
      "stateMutability": "view",
      "type": "function",
      "constant": true
    },
    {
      "inputs": [],
      "name": "player2",
      "outputs": [
        {
          "internalType": "address",
          "name": "",
          "type": "address"
        }
      ],
      "stateMutability": "view",
      "type": "function",
      "constant": true
    },
    {
      "inputs": [],
      "name": "player2Mana",
      "outputs": [
        {
          "internalType": "uint8",
          "name": "",
          "type": "uint8"
        }
      ],
      "stateMutability": "view",
      "type": "function",
      "constant": true
    },
    {
      "inputs": [],
      "name": "turnNumber",
      "outputs": [
        {
          "internalType": "uint8",
          "name": "",
          "type": "uint8"
        }
      ],
      "stateMutability": "view",
      "type": "function",
      "constant": true
    },
    {
      "inputs": [
        {
          "internalType": "uint256",
          "name": "_gameId",
          "type": "uint256"
        },
        {
          "internalType": "bool",
          "name": "_disableZKCheck",
          "type": "bool"
        }
      ],
      "name": "initialize",
      "outputs": [],
      "stateMutability": "nonpayable",
      "type": "function"
    },
    {
      "inputs": [],
      "name": "getPieces",
      "outputs": [
        {
          "components": [
            {
              "internalType": "uint8",
              "name": "id",
              "type": "uint8"
            },
            {
              "internalType": "enum PieceType",
              "name": "pieceType",
              "type": "uint8"
            },
            {
              "internalType": "address",
              "name": "owner",
              "type": "address"
            },
            {
              "internalType": "uint8",
              "name": "row",
              "type": "uint8"
            },
            {
              "internalType": "uint8",
              "name": "col",
              "type": "uint8"
            },
            {
              "internalType": "bool",
              "name": "alive",
              "type": "bool"
            },
            {
              "internalType": "bool",
              "name": "initialized",
              "type": "bool"
            },
            {
              "internalType": "uint8",
              "name": "hp",
              "type": "uint8"
            },
            {
              "internalType": "uint8",
              "name": "initializedOnTurn",
              "type": "uint8"
            },
            {
              "internalType": "uint256",
              "name": "commitment",
              "type": "uint256"
            }
          ],
          "internalType": "struct Piece[]",
          "name": "ret",
          "type": "tuple[]"
        }
      ],
      "stateMutability": "view",
      "type": "function",
      "constant": true
    },
    {
      "inputs": [],
      "name": "getDefaults",
      "outputs": [
        {
          "components": [
            {
              "internalType": "enum PieceType",
              "name": "pieceType",
              "type": "uint8"
            },
            {
              "internalType": "uint8",
              "name": "mvRange",
              "type": "uint8"
            },
            {
              "internalType": "uint8",
              "name": "atkRange",
              "type": "uint8"
            },
            {
              "internalType": "uint8",
              "name": "hp",
              "type": "uint8"
            },
            {
              "internalType": "uint8",
              "name": "atk",
              "type": "uint8"
            },
            {
              "internalType": "uint8",
              "name": "cost",
              "type": "uint8"
            },
            {
              "internalType": "bool",
              "name": "isZk",
              "type": "bool"
            },
            {
              "internalType": "bool",
              "name": "kamikaze",
              "type": "bool"
            }
          ],
          "internalType": "struct PieceDefaultStats[]",
          "name": "ret",
          "type": "tuple[]"
        }
      ],
      "stateMutability": "view",
      "type": "function",
      "constant": true
    },
    {
      "inputs": [
        {
          "internalType": "uint8",
          "name": "_turnNumber",
          "type": "uint8"
        }
      ],
      "name": "checkAction",
      "outputs": [
        {
          "internalType": "bool",
          "name": "",
          "type": "bool"
        }
      ],
      "stateMutability": "view",
      "type": "function",
      "constant": true
    },
    {
      "inputs": [],
      "name": "gameShouldBeCompleted",
      "outputs": [
        {
          "internalType": "bool",
          "name": "",
          "type": "bool"
        }
      ],
      "stateMutability": "view",
      "type": "function",
      "constant": true
    },
    {
      "inputs": [],
      "name": "joinGame",
      "outputs": [],
      "stateMutability": "nonpayable",
      "type": "function"
    },
    {
      "inputs": [
        {
          "components": [
            {
              "internalType": "uint8",
              "name": "turnNumber",
              "type": "uint8"
            },
            {
              "internalType": "uint8",
              "name": "pieceId",
              "type": "uint8"
            },
            {
              "internalType": "enum PieceType",
              "name": "pieceType",
              "type": "uint8"
            },
            {
              "internalType": "uint8",
              "name": "row",
              "type": "uint8"
            },
            {
              "internalType": "uint8",
              "name": "col",
              "type": "uint8"
            },
            {
              "components": [
                {
                  "internalType": "uint256[2]",
                  "name": "a",
                  "type": "uint256[2]"
                },
                {
                  "internalType": "uint256[2][2]",
                  "name": "b",
                  "type": "uint256[2][2]"
                },
                {
                  "internalType": "uint256[2]",
                  "name": "c",
                  "type": "uint256[2]"
                },
                {
                  "internalType": "uint256[5]",
                  "name": "input",
                  "type": "uint256[5]"
                }
              ],
              "internalType": "struct SummonZKP",
              "name": "zkp",
              "type": "tuple"
            }
          ],
          "internalType": "struct Summon",
          "name": "summon",
          "type": "tuple"
        }
      ],
      "name": "doSummon",
      "outputs": [],
      "stateMutability": "nonpayable",
      "type": "function"
    },
    {
      "inputs": [
        {
          "components": [
            {
              "internalType": "uint8",
              "name": "turnNumber",
              "type": "uint8"
            },
            {
              "internalType": "uint8",
              "name": "pieceId",
              "type": "uint8"
            },
            {
              "internalType": "uint8[]",
              "name": "moveToRow",
              "type": "uint8[]"
            },
            {
              "internalType": "uint8[]",
              "name": "moveToCol",
              "type": "uint8[]"
            },
            {
              "components": [
                {
                  "internalType": "uint256[2]",
                  "name": "a",
                  "type": "uint256[2]"
                },
                {
                  "internalType": "uint256[2][2]",
                  "name": "b",
                  "type": "uint256[2][2]"
                },
                {
                  "internalType": "uint256[2]",
                  "name": "c",
                  "type": "uint256[2]"
                },
                {
                  "internalType": "uint256[4]",
                  "name": "input",
                  "type": "uint256[4]"
                }
              ],
              "internalType": "struct MoveZKP",
              "name": "zkp",
              "type": "tuple"
            }
          ],
          "internalType": "struct Move",
          "name": "move",
          "type": "tuple"
        }
      ],
      "name": "doMove",
      "outputs": [],
      "stateMutability": "nonpayable",
      "type": "function"
    },
    {
      "inputs": [
        {
          "components": [
            {
              "internalType": "uint8",
              "name": "turnNumber",
              "type": "uint8"
            },
            {
              "internalType": "uint8",
              "name": "pieceId",
              "type": "uint8"
            },
            {
              "internalType": "uint8",
              "name": "attackedId",
              "type": "uint8"
            },
            {
              "components": [
                {
                  "internalType": "uint256[2]",
                  "name": "a",
                  "type": "uint256[2]"
                },
                {
                  "internalType": "uint256[2][2]",
                  "name": "b",
                  "type": "uint256[2][2]"
                },
                {
                  "internalType": "uint256[2]",
                  "name": "c",
                  "type": "uint256[2]"
                },
                {
                  "internalType": "uint256[5]",
                  "name": "input",
                  "type": "uint256[5]"
                }
              ],
              "internalType": "struct AttackZKP",
              "name": "zkp",
              "type": "tuple"
            }
          ],
          "internalType": "struct Attack",
          "name": "attack",
          "type": "tuple"
        }
      ],
      "name": "doAttack",
      "outputs": [],
      "stateMutability": "nonpayable",
      "type": "function"
    },
    {
      "inputs": [
        {
          "internalType": "uint8",
          "name": "_turnNumber",
          "type": "uint8"
        }
      ],
      "name": "endTurn",
      "outputs": [],
      "stateMutability": "nonpayable",
      "type": "function"
    }
  ],
  "bytecode": "0x608060405234801561001057600080fd5b5061573580620000216000396000f3fe608060405234801561001057600080fd5b50600436106101735760003560e01c80637267a359116100de578063d1f9c24d11610097578063d7c81b5511610071578063d7c81b551461044e578063dc4a3e951461046c578063df54a9281461048a578063f51b5068146104ba57610173565b8063d1f9c24d14610408578063d30895e414610426578063d4f77b1c1461044457610173565b80637267a3591461033057806381cb97ca1461034e5780638af9d5621461037e578063b172ed4d1461039c578063cf615f6c146103ba578063cfecc6de146103d857610173565b8063430632ea11610130578063430632ea1461026757806351df541c1461029e57806352fa0917146102bc5780635595b5d5146102d85780635700401e146102f457806359a5f12d1461031257610173565b806311628abc1461017857806327964666146101965780632c1025cd146101b25780632c784f32146101ce5780633c230657146102075780633fb7388e14610237575b600080fd5b6101806104d6565b60405161018d91906151fe565b60405180910390f35b6101b060048036038101906101ab9190614056565b6104e9565b005b6101cc60048036038101906101c79190613fc2565b610c56565b005b6101e860048036038101906101e391906140ce565b61156d565b6040516101fe9a99989796959493929190615219565b60405180910390f35b610221600480360381019061021c91906140ce565b611649565b60405161022e9190614e4c565b60405180910390f35b610251600480360381019061024c9190614092565b611743565b60405161025e91906151fe565b60405180910390f35b610281600480360381019061027c9190613f6f565b61178c565b604051610295989796959493929190614e82565b60405180910390f35b6102a661183c565b6040516102b39190614e4c565b60405180910390f35b6102d660048036038101906102d19190614003565b611916565b005b6102f260048036038101906102ed91906140ce565b6124d5565b005b6102fc612749565b60405161030991906151fe565b60405180910390f35b61031a61275c565b6040516103279190614cd6565b60405180910390f35b610338612782565b60405161034591906151fe565b60405180910390f35b61036860048036038101906103639190614120565b612795565b6040516103759190614e4c565b60405180910390f35b6103866127c4565b6040516103939190614e4c565b60405180910390f35b6103a46127d7565b6040516103b19190614d35565b60405180910390f35b6103c26129a5565b6040516103cf9190614d57565b60405180910390f35b6103f260048036038101906103ed919061402d565b612bec565b6040516103ff91906151fe565b60405180910390f35b610410612c1d565b60405161041d9190614e67565b60405180910390f35b61042e612c30565b60405161043b9190614cd6565b60405180910390f35b61044c612c56565b005b6104566135ae565b60405161046391906151e3565b60405180910390f35b6104746135b4565b60405161048191906151e3565b60405180910390f35b6104a4600480360381019061049f9190614120565b6135b9565b6040516104b19190614e4c565b60405180910390f35b6104d460048036038101906104cf9190613f98565b6135e8565b005b603a60159054906101000a900460ff1681565b8160338190555080603960006101000a81548160ff0219169083151502179055506000603460016101000a81548160ff0219169083600381111561052957fe5b021790555060008090505b60078160ff1610156105e857603560018160018154018082558091505003906000526020600020505060008090505b60078160ff1610156105da5760358260ff168154811061057f57fe5b90600052602060002001600090806001815401808255809150506001900390600052602060002090602091828204019190069091909190916101000a81548160ff021916908360ff1602179055508080600101915050610563565b508080600101915050610534565b506040518061010001604052806000600381111561060257fe5b8152602001600260ff168152602001600160ff168152602001600360ff168152602001600260ff168152602001600160ff168152602001600015158152602001600015158152506038600080600381111561065957fe5b600381111561066457fe5b815260200190815260200160002060008201518160000160006101000a81548160ff0219169083600381111561069657fe5b021790555060208201518160000160016101000a81548160ff021916908360ff16021790555060408201518160000160026101000a81548160ff021916908360ff16021790555060608201518160000160036101000a81548160ff021916908360ff16021790555060808201518160000160046101000a81548160ff021916908360ff16021790555060a08201518160000160056101000a81548160ff021916908360ff16021790555060c08201518160000160066101000a81548160ff02191690831515021790555060e08201518160000160076101000a81548160ff0219169083151502179055509050506040518061010001604052806001600381111561079c57fe5b8152602001600260ff168152602001600260ff168152602001600360ff168152602001600260ff168152602001600260ff1681526020016000151581526020016000151581525060386000600160038111156107f457fe5b60038111156107ff57fe5b815260200190815260200160002060008201518160000160006101000a81548160ff0219169083600381111561083157fe5b021790555060208201518160000160016101000a81548160ff021916908360ff16021790555060408201518160000160026101000a81548160ff021916908360ff16021790555060608201518160000160036101000a81548160ff021916908360ff16021790555060808201518160000160046101000a81548160ff021916908360ff16021790555060a08201518160000160056101000a81548160ff021916908360ff16021790555060c08201518160000160066101000a81548160ff02191690831515021790555060e08201518160000160076101000a81548160ff0219169083151502179055509050506040518061010001604052806002600381111561093757fe5b8152602001600160ff168152602001600160ff168152602001600360ff168152602001600160ff168152602001600360ff16815260200160011515815260200160011515815250603860006002600381111561098f57fe5b600381111561099a57fe5b815260200190815260200160002060008201518160000160006101000a81548160ff021916908360038111156109cc57fe5b021790555060208201518160000160016101000a81548160ff021916908360ff16021790555060408201518160000160026101000a81548160ff021916908360ff16021790555060608201518160000160036101000a81548160ff021916908360ff16021790555060808201518160000160046101000a81548160ff021916908360ff16021790555060a08201518160000160056101000a81548160ff021916908360ff16021790555060c08201518160000160066101000a81548160ff02191690831515021790555060e08201518160000160076101000a81548160ff021916908315150217905550905050604051806101000160405280600380811115610ad157fe5b8152602001600060ff168152602001600260ff168152602001600a60ff168152602001600260ff168152602001606460ff1681526020016000151581526020016000151581525060386000600380811115610b2857fe5b6003811115610b3357fe5b815260200190815260200160002060008201518160000160006101000a81548160ff02191690836003811115610b6557fe5b021790555060208201518160000160016101000a81548160ff021916908360ff16021790555060408201518160000160026101000a81548160ff021916908360ff16021790555060608201518160000160036101000a81548160ff021916908360ff16021790555060808201518160000160046101000a81548160ff021916908360ff16021790555060a08201518160000160056101000a81548160ff021916908360ff16021790555060c08201518160000160066101000a81548160ff02191690831515021790555060e08201518160000160076101000a81548160ff0219169083151502179055509050505050565b610c638160000151611649565b50600060376000836020015160ff1660ff16815260200190815260200160002090503373ffffffffffffffffffffffffffffffffffffffff168160000160029054906101000a900473ffffffffffffffffffffffffffffffffffffffff1673ffffffffffffffffffffffffffffffffffffffff16148015610d355750600073ffffffffffffffffffffffffffffffffffffffff168160000160029054906101000a900473ffffffffffffffffffffffffffffffffffffffff1673ffffffffffffffffffffffffffffffffffffffff1614155b610d74576040517f08c379a0000000000000000000000000000000000000000000000000000000008152600401610d6b90615000565b60405180910390fd5b8060000160189054906101000a900460ff16610dc5576040517f08c379a0000000000000000000000000000000000000000000000000000000008152600401610dbc90615020565b60405180910390fd5b603b6000836000015160ff1660ff16815260200190815260200160002060008260000160009054906101000a900460ff1660ff1660ff16815260200190815260200160002060009054906101000a900460ff1615610e58576040517f08c379a0000000000000000000000000000000000000000000000000000000008152600401610e4f90615040565b60405180910390fd5b603c6000836000015160ff1660ff16815260200190815260200160002060008260000160009054906101000a900460ff1660ff1660ff16815260200190815260200160002060009054906101000a900460ff1615610eeb576040517f08c379a0000000000000000000000000000000000000000000000000000000008152600401610ee290614f80565b60405180910390fd5b603860008260000160019054906101000a900460ff166003811115610f0c57fe5b6003811115610f1757fe5b815260200190815260200160002060000160069054906101000a900460ff16156111c757816080015160600151600060048110610f5057fe5b6020020151816001015414610f9a576040517f08c379a0000000000000000000000000000000000000000000000000000000008152600401610f9190614f20565b60405180910390fd5b6007826080015160600151600360048110610fb157fe5b602002015114610ff6576040517f08c379a0000000000000000000000000000000000000000000000000000000008152600401610fed90614f20565b60405180910390fd5b603860008260000160019054906101000a900460ff16600381111561101757fe5b600381111561102257fe5b815260200190815260200160002060000160019054906101000a900460ff1660ff1682608001516060015160026004811061105957fe5b6020020151111561109f576040517f08c379a000000000000000000000000000000000000000000000000000000000815260040161109690614f20565b60405180910390fd5b603960009054906101000a900460ff166111a05773__Verifier______________________________636f2aea8d8360800151600001518460800151602001518560800151604001518660800151606001516040518563ffffffff1660e01b81526004016111109493929190614d79565b60206040518083038186803b15801561112857600080fd5b505af415801561113c573d6000803e3d6000fd5b505050506040513d601f19601f820116820180604052508101906111609190613f46565b61119f576040517f08c379a000000000000000000000000000000000000000000000000000000000815260040161119690614f20565b60405180910390fd5b5b8160800151606001516001600481106111b557fe5b602002015181600101819055506114d4565b60608260400151905060608360600151905061134483604051806101400160405290816000820160009054906101000a900460ff1660ff1660ff1681526020016000820160019054906101000a900460ff16600381111561122457fe5b600381111561122f57fe5b81526020016000820160029054906101000a900473ffffffffffffffffffffffffffffffffffffffff1673ffffffffffffffffffffffffffffffffffffffff1673ffffffffffffffffffffffffffffffffffffffff1681526020016000820160169054906101000a900460ff1660ff1660ff1681526020016000820160179054906101000a900460ff1660ff1660ff1681526020016000820160189054906101000a900460ff161515151581526020016000820160199054906101000a900460ff1615151515815260200160008201601a9054906101000a900460ff1660ff1660ff16815260200160008201601b9054906101000a900460ff1660ff1660ff16815260200160018201548152505083836137bc565b611383576040517f08c379a000000000000000000000000000000000000000000000000000000000815260040161137a90614f60565b60405180910390fd5b60008260018451038151811061139557fe5b602002602001015190506000826001845103815181106113b157fe5b60200260200101519050600060358660000160169054906101000a900460ff1660ff16815481106113de57fe5b906000526020600020018660000160179054906101000a900460ff1660ff168154811061140757fe5b90600052602060002090602091828204019190066101000a81548160ff021916908360ff1602179055508460000160009054906101000a900460ff1660358360ff168154811061145357fe5b906000526020600020018260ff168154811061146b57fe5b90600052602060002090602091828204019190066101000a81548160ff021916908360ff160217905550818560000160166101000a81548160ff021916908360ff160217905550808560000160176101000a81548160ff021916908360ff160217905550505050505b6001603b6000846000015160ff1660ff16815260200190815260200160002060008360000160009054906101000a900460ff1660ff1660ff16815260200190815260200160002060006101000a81548160ff0219169083151502179055507f95d8dea3d987d2163d15eb7c5db7cdff58efde46972835877952ee40cb7a16a0336040516115619190614cf1565b60405180910390a15050565b60376020528060005260406000206000915090508060000160009054906101000a900460ff16908060000160019054906101000a900460ff16908060000160029054906101000a900473ffffffffffffffffffffffffffffffffffffffff16908060000160169054906101000a900460ff16908060000160179054906101000a900460ff16908060000160189054906101000a900460ff16908060000160199054906101000a900460ff169080600001601a9054906101000a900460ff169080600001601b9054906101000a900460ff1690806001015490508a565b600073__ZKChessUtils__________________________6382743c3783603460009054906101000a900460ff16603960019054906101000a900473ffffffffffffffffffffffffffffffffffffffff16603a60009054906101000a900473ffffffffffffffffffffffffffffffffffffffff16603460019054906101000a900460ff166040518663ffffffff1660e01b81526004016116ec9594939291906152b5565b60206040518083038186803b15801561170457600080fd5b505af4158015611718573d6000803e3d6000fd5b505050506040513d601f19601f8201168201806040525081019061173c9190613f46565b9050919050565b6035828154811061175057fe5b90600052602060002001818154811061176557fe5b9060005260206000209060209182820401919006915091509054906101000a900460ff1681565b60386020528060005260406000206000915090508060000160009054906101000a900460ff16908060000160019054906101000a900460ff16908060000160029054906101000a900460ff16908060000160039054906101000a900460ff16908060000160049054906101000a900460ff16908060000160059054906101000a900460ff16908060000160069054906101000a900460ff16908060000160079054906101000a900460ff16905088565b600073__ZKChessUtils__________________________63e382904460366037603960019054906101000a900473ffffffffffffffffffffffffffffffffffffffff16603a60009054906101000a900473ffffffffffffffffffffffffffffffffffffffff166040518563ffffffff1660e01b81526004016118c19493929190614e07565b60206040518083038186803b1580156118d957600080fd5b505af41580156118ed573d6000803e3d6000fd5b505050506040513d601f19601f820116820180604052508101906119119190613f46565b905090565b6119238160000151611649565b5060376000826020015160ff1660ff16815260200190815260200160002060000160199054906101000a900460ff1615611992576040517f08c379a000000000000000000000000000000000000000000000000000000000815260040161198990614fa0565b60405180910390fd5b600080603960019054906101000a900473ffffffffffffffffffffffffffffffffffffffff1673ffffffffffffffffffffffffffffffffffffffff163373ffffffffffffffffffffffffffffffffffffffff1614156119f8576000915060039050611a01565b60069150600390505b603960019054906101000a900473ffffffffffffffffffffffffffffffffffffffff1673ffffffffffffffffffffffffffffffffffffffff163373ffffffffffffffffffffffffffffffffffffffff161415611b5b576038600084604001516003811115611a6b57fe5b6003811115611a7657fe5b815260200190815260200160002060000160059054906101000a900460ff1660ff16603a60149054906101000a900460ff1660ff161015611aec576040517f08c379a0000000000000000000000000000000000000000000000000000000008152600401611ae390614f00565b60405180910390fd5b6038600084604001516003811115611b0057fe5b6003811115611b0b57fe5b815260200190815260200160002060000160059054906101000a900460ff16603a60148282829054906101000a900460ff160392506101000a81548160ff021916908360ff160217905550611c5b565b6038600084604001516003811115611b6f57fe5b6003811115611b7a57fe5b815260200190815260200160002060000160059054906101000a900460ff1660ff16603a60159054906101000a900460ff1660ff161015611bf0576040517f08c379a0000000000000000000000000000000000000000000000000000000008152600401611be790614f00565b60405180910390fd5b6038600084604001516003811115611c0457fe5b6003811115611c0f57fe5b815260200190815260200160002060000160059054906101000a900460ff16603a60158282829054906101000a900460ff160392506101000a81548160ff021916908360ff1602179055505b6038600084604001516003811115611c6f57fe5b6003811115611c7a57fe5b815260200190815260200160002060000160069054906101000a900460ff16611e9e576007836060015160ff16108015611cbb57506007836080015160ff16105b611cfa576040517f08c379a0000000000000000000000000000000000000000000000000000000008152600401611cf190614fc0565b60405180910390fd5b60006035846060015160ff1681548110611d1057fe5b90600052602060002001846080015160ff1681548110611d2c57fe5b90600052602060002090602091828204019190069054906101000a900460ff1690506000603760008360ff1660ff16815260200190815260200160002090508060000160189054906101000a900460ff1615611dbd576040517f08c379a0000000000000000000000000000000000000000000000000000000008152600401611db490615060565b60405180910390fd5b600173__ZKChessUtils__________________________632542841a8760600151886080015188886040518563ffffffff1660e01b8152600401611e049493929190615308565b60206040518083038186803b158015611e1c57600080fd5b505af4158015611e30573d6000803e3d6000fd5b505050506040513d601f19601f82011682018060405250810190611e5491906140f7565b60ff1614611e97576040517f08c379a0000000000000000000000000000000000000000000000000000000008152600401611e8e90615060565b60405180910390fd5b50506120dd565b603960009054906101000a900460ff166120dc578160ff168360a0015160600151600160058110611ecb57fe5b6020020151148015611ef857508060ff168360a0015160600151600260058110611ef157fe5b6020020151145b611f37576040517f08c379a0000000000000000000000000000000000000000000000000000000008152600401611f2e90614f20565b60405180910390fd5b60018360a0015160600151600360058110611f4e57fe5b602002015114611f93576040517f08c379a0000000000000000000000000000000000000000000000000000000008152600401611f8a90614f20565b60405180910390fd5b60078360a0015160600151600460058110611faa57fe5b602002015114611fef576040517f08c379a0000000000000000000000000000000000000000000000000000000008152600401611fe690614f20565b60405180910390fd5b73__Verifier______________________________63afd115578460a00151600001518560a00151602001518660a00151604001518760a00151606001516040518563ffffffff1660e01b815260040161204c9493929190614dc0565b60206040518083038186803b15801561206457600080fd5b505af4158015612078573d6000803e3d6000fd5b505050506040513d601f19601f8201168201806040525081019061209c9190613f46565b6120db576040517f08c379a00000000000000000000000000000000000000000000000000000000081526004016120d290614f20565b60405180910390fd5b5b5b604051806101400160405280846020015160ff1681526020018460400151600381111561210657fe5b81526020013373ffffffffffffffffffffffffffffffffffffffff168152602001846060015160ff168152602001846080015160ff168152602001600115158152602001600115158152602001603860008660400151600381111561216757fe5b600381111561217257fe5b815260200190815260200160002060000160039054906101000a900460ff1660ff168152602001603460009054906101000a900460ff1660ff1681526020018460a00151606001516000600581106121c657fe5b602002015181525060376000856020015160ff1660ff16815260200190815260200160002060008201518160000160006101000a81548160ff021916908360ff16021790555060208201518160000160016101000a81548160ff0219169083600381111561223057fe5b021790555060408201518160000160026101000a81548173ffffffffffffffffffffffffffffffffffffffff021916908373ffffffffffffffffffffffffffffffffffffffff16021790555060608201518160000160166101000a81548160ff021916908360ff16021790555060808201518160000160176101000a81548160ff021916908360ff16021790555060a08201518160000160186101000a81548160ff02191690831515021790555060c08201518160000160196101000a81548160ff02191690831515021790555060e082015181600001601a6101000a81548160ff021916908360ff16021790555061010082015181600001601b6101000a81548160ff021916908360ff16021790555061012082015181600101559050506036836020015190806001815401808255809150506001900390600052602060002090602091828204019190069091909190916101000a81548160ff021916908360ff16021790555082602001516035846060015160ff16815481106123b157fe5b90600052602060002001846080015160ff16815481106123cd57fe5b90600052602060002090602091828204019190066101000a81548160ff021916908360ff1602179055506001603b6000856000015160ff1660ff1681526020019081526020016000206000856020015160ff1660ff16815260200190815260200160002060006101000a81548160ff0219169083151502179055506001603c6000856000015160ff1660ff1681526020019081526020016000206000856020015160ff1660ff16815260200190815260200160002060006101000a81548160ff0219169083151502179055507f95d8dea3d987d2163d15eb7c5db7cdff58efde46972835877952ee40cb7a16a0336040516124c89190614cf1565b60405180910390a1505050565b6124de81611649565b50603960019054906101000a900473ffffffffffffffffffffffffffffffffffffffff1673ffffffffffffffffffffffffffffffffffffffff163373ffffffffffffffffffffffffffffffffffffffff1614156125dc576000603a60146101000a81548160ff021916908360ff160217905550603460009054906101000a900460ff16603a60156101000a81548160ff021916908360ff1602179055506008603a60159054906101000a900460ff1660ff1611156125b3576008603a60156101000a81548160ff021916908360ff1602179055505b6002603460016101000a81548160ff021916908360038111156125d257fe5b02179055506126b1565b6034600081819054906101000a900460ff168092919060010191906101000a81548160ff021916908360ff160217905550506000603a60156101000a81548160ff021916908360ff160217905550603460009054906101000a900460ff16603a60146101000a81548160ff021916908360ff1602179055506008603a60149054906101000a900460ff1660ff16111561268c576008603a60146101000a81548160ff021916908360ff1602179055505b6001603460016101000a81548160ff021916908360038111156126ab57fe5b02179055505b7f95d8dea3d987d2163d15eb7c5db7cdff58efde46972835877952ee40cb7a16a0336040516126e09190614cf1565b60405180910390a16126f061183c565b15612746576003603460016101000a81548160ff0219169083600381111561271457fe5b02179055507fb537cbcadc098cfedf5a04ef7e68a8554b55f7e45bfdaca1cbc51a686ef65f4860405160405180910390a15b50565b603460009054906101000a900460ff1681565b603a60009054906101000a900473ffffffffffffffffffffffffffffffffffffffff1681565b603a60149054906101000a900460ff1681565b603c6020528160005260406000206020528060005260406000206000915091509054906101000a900460ff1681565b603960009054906101000a900460ff1681565b6060600467ffffffffffffffff811180156127f157600080fd5b5060405190808252806020026020018201604052801561282b57816020015b61281861385e565b8152602001906001900390816128105790505b50905060008090505b60048160ff16101561299e57603860008260ff16600381111561285357fe5b600381111561285e57fe5b600381111561286957fe5b8152602001908152602001600020604051806101000160405290816000820160009054906101000a900460ff1660038111156128a157fe5b60038111156128ac57fe5b81526020016000820160019054906101000a900460ff1660ff1660ff1681526020016000820160029054906101000a900460ff1660ff1660ff1681526020016000820160039054906101000a900460ff1660ff1660ff1681526020016000820160049054906101000a900460ff1660ff1660ff1681526020016000820160059054906101000a900460ff1660ff1660ff1681526020016000820160069054906101000a900460ff161515151581526020016000820160079054906101000a900460ff161515151581525050828260ff168151811061298657fe5b60200260200101819052508080600101915050612834565b5080905090565b606060368054905067ffffffffffffffff811180156129c357600080fd5b506040519080825280602002602001820160405280156129fd57816020015b6129ea6138c1565b8152602001906001900390816129e25790505b50905060008090505b6036805490508160ff161015612be5576037600060368360ff1681548110612a2a57fe5b90600052602060002090602091828204019190069054906101000a900460ff1660ff1660ff168152602001908152602001600020604051806101400160405290816000820160009054906101000a900460ff1660ff1660ff1681526020016000820160019054906101000a900460ff166003811115612aa557fe5b6003811115612ab057fe5b81526020016000820160029054906101000a900473ffffffffffffffffffffffffffffffffffffffff1673ffffffffffffffffffffffffffffffffffffffff1673ffffffffffffffffffffffffffffffffffffffff1681526020016000820160169054906101000a900460ff1660ff1660ff1681526020016000820160179054906101000a900460ff1660ff1660ff1681526020016000820160189054906101000a900460ff161515151581526020016000820160199054906101000a900460ff1615151515815260200160008201601a9054906101000a900460ff1660ff1660ff16815260200160008201601b9054906101000a900460ff1660ff1660ff168152602001600182015481525050828260ff1681518110612bcd57fe5b60200260200101819052508080600101915050612a06565b5080905090565b60368181548110612bf957fe5b9060005260206000209060209182820401919006915054906101000a900460ff1681565b603460019054906101000a900460ff1681565b603960019054906101000a900473ffffffffffffffffffffffffffffffffffffffff1681565b60006003811115612c6357fe5b603460019054906101000a900460ff166003811115612c7e57fe5b14612cbe576040517f08c379a0000000000000000000000000000000000000000000000000000000008152600401612cb590615080565b60405180910390fd5b600073ffffffffffffffffffffffffffffffffffffffff16603960019054906101000a900473ffffffffffffffffffffffffffffffffffffffff1673ffffffffffffffffffffffffffffffffffffffff161415612d5b5733603960016101000a81548173ffffffffffffffffffffffffffffffffffffffff021916908373ffffffffffffffffffffffffffffffffffffffff1602179055506135ac565b603960019054906101000a900473ffffffffffffffffffffffffffffffffffffffff1673ffffffffffffffffffffffffffffffffffffffff163373ffffffffffffffffffffffffffffffffffffffff161415612dec576040517f08c379a0000000000000000000000000000000000000000000000000000000008152600401612de390614f40565b60405180910390fd5b600060024281612df857fe5b061415612e455733603a60006101000a81548173ffffffffffffffffffffffffffffffffffffffff021916908373ffffffffffffffffffffffffffffffffffffffff160217905550612eea565b603960019054906101000a900473ffffffffffffffffffffffffffffffffffffffff16603a60006101000a81548173ffffffffffffffffffffffffffffffffffffffff021916908373ffffffffffffffffffffffffffffffffffffffff16021790555033603960016101000a81548173ffffffffffffffffffffffffffffffffffffffff021916908373ffffffffffffffffffffffffffffffffffffffff1602179055505b604051806101400160405280600160ff168152602001600380811115612f0c57fe5b8152602001603960019054906101000a900473ffffffffffffffffffffffffffffffffffffffff1673ffffffffffffffffffffffffffffffffffffffff168152602001600060ff168152602001600360ff16815260200160011515815260200160011515815260200160386000600380811115612f8557fe5b6003811115612f9057fe5b815260200190815260200160002060000160039054906101000a900460ff1660ff168152602001600060ff168152602001600081525060376000600160ff16815260200190815260200160002060008201518160000160006101000a81548160ff021916908360ff16021790555060208201518160000160016101000a81548160ff0219169083600381111561302257fe5b021790555060408201518160000160026101000a81548173ffffffffffffffffffffffffffffffffffffffff021916908373ffffffffffffffffffffffffffffffffffffffff16021790555060608201518160000160166101000a81548160ff021916908360ff16021790555060808201518160000160176101000a81548160ff021916908360ff16021790555060a08201518160000160186101000a81548160ff02191690831515021790555060c08201518160000160196101000a81548160ff02191690831515021790555060e082015181600001601a6101000a81548160ff021916908360ff16021790555061010082015181600001601b6101000a81548160ff021916908360ff16021790555061012082015181600101559050506036600190806001815401808255809150506001900390600052602060002090602091828204019190069091909190916101000a81548160ff021916908360ff1602179055506001603560008154811061319757fe5b906000526020600020016003815481106131ad57fe5b90600052602060002090602091828204019190066101000a81548160ff021916908360ff160217905550604051806101400160405280600260ff1681526020016003808111156131f957fe5b8152602001603a60009054906101000a900473ffffffffffffffffffffffffffffffffffffffff1673ffffffffffffffffffffffffffffffffffffffff168152602001600660ff168152602001600360ff1681526020016001151581526020016001151581526020016038600060038081111561327257fe5b600381111561327d57fe5b815260200190815260200160002060000160039054906101000a900460ff1660ff168152602001600060ff168152602001600081525060376000600260ff16815260200190815260200160002060008201518160000160006101000a81548160ff021916908360ff16021790555060208201518160000160016101000a81548160ff0219169083600381111561330f57fe5b021790555060408201518160000160026101000a81548173ffffffffffffffffffffffffffffffffffffffff021916908373ffffffffffffffffffffffffffffffffffffffff16021790555060608201518160000160166101000a81548160ff021916908360ff16021790555060808201518160000160176101000a81548160ff021916908360ff16021790555060a08201518160000160186101000a81548160ff02191690831515021790555060c08201518160000160196101000a81548160ff02191690831515021790555060e082015181600001601a6101000a81548160ff021916908360ff16021790555061010082015181600001601b6101000a81548160ff021916908360ff16021790555061012082015181600101559050506036600290806001815401808255809150506001900390600052602060002090602091828204019190069091909190916101000a81548160ff021916908360ff1602179055506002603560068154811061348457fe5b9060005260206000200160038154811061349a57fe5b90600052602060002090602091828204019190066101000a81548160ff021916908360ff1602179055506001603460016101000a81548160ff021916908360038111156134e357fe5b02179055506001603460006101000a81548160ff021916908360ff160217905550603460009054906101000a900460ff16603a60146101000a81548160ff021916908360ff1602179055507f8fd707874eb940598510258c64cad23fd35fe8c85c5c38e8782fac2cc887fb6e603960019054906101000a900473ffffffffffffffffffffffffffffffffffffffff16603a60009054906101000a900473ffffffffffffffffffffffffffffffffffffffff166040516135a3929190614d0c565b60405180910390a15b565b60335481565b600781565b603b6020528160005260406000206020528060005260406000206000915091509054906101000a900460ff1681565b6135f58160000151611649565b50600060376000836020015160ff1660ff1681526020019081526020016000209050600060376000846040015160ff1660ff168152602001908152602001600020905073__ZKChessUtils__________________________63364de3dc8460376038603c60076040518663ffffffff1660e01b815260040161367b959493929190615107565b60206040518083038186803b15801561369357600080fd5b505af41580156136a7573d6000803e3d6000fd5b505050506040513d601f19601f820116820180604052508101906136cb9190613f46565b61370a576040517f08c379a000000000000000000000000000000000000000000000000000000000815260040161370190614fe0565b60405180910390fd5b73__ZKChessUtils__________________________63a3f00e5584603760356038603c60076040518763ffffffff1660e01b8152600401613750969594939291906150a0565b60006040518083038186803b15801561376857600080fd5b505af415801561377c573d6000803e3d6000fd5b505050507f95d8dea3d987d2163d15eb7c5db7cdff58efde46972835877952ee40cb7a16a0336040516137af9190614cf1565b60405180910390a1505050565b600073__ZKChessUtils__________________________63ab7773f485858560356037603860076040518863ffffffff1660e01b8152600401613805979695949392919061515f565b60206040518083038186803b15801561381d57600080fd5b505af4158015613831573d6000803e3d6000fd5b505050506040513d601f19601f820116820180604052508101906138559190613f46565b90509392505050565b6040518061010001604052806000600381111561387757fe5b8152602001600060ff168152602001600060ff168152602001600060ff168152602001600060ff168152602001600060ff1681526020016000151581526020016000151581525090565b604051806101400160405280600060ff168152602001600060038111156138e457fe5b8152602001600073ffffffffffffffffffffffffffffffffffffffff168152602001600060ff168152602001600060ff168152602001600015158152602001600015158152602001600060ff168152602001600060ff168152602001600081525090565b600082601f83011261395957600080fd5b600261396c6139678261537a565b61534d565b9150818385604084028201111561398257600080fd5b60005b838110156139b2578161399888826139bc565b845260208401935060408301925050600181019050613985565b5050505092915050565b600082601f8301126139cd57600080fd5b60026139e06139db8261539c565b61534d565b915081838560208402820111156139f657600080fd5b60005b83811015613a265781613a0c8882613f07565b8452602084019350602083019250506001810190506139f9565b5050505092915050565b600082601f830112613a4157600080fd5b6004613a54613a4f826153be565b61534d565b91508183856020840282011115613a6a57600080fd5b60005b83811015613a9a5781613a808882613f07565b845260208401935060208301925050600181019050613a6d565b5050505092915050565b600082601f830112613ab557600080fd5b6005613ac8613ac3826153e0565b61534d565b91508183856020840282011115613ade57600080fd5b60005b83811015613b0e5781613af48882613f07565b845260208401935060208301925050600181019050613ae1565b5050505092915050565b600082601f830112613b2957600080fd5b8135613b3c613b3782615402565b61534d565b91508181835260208401935060208101905083856020840282011115613b6157600080fd5b60005b83811015613b915781613b778882613f1c565b845260208401935060208301925050600181019050613b64565b5050505092915050565b600081359050613baa816156aa565b92915050565b600081519050613bbf816156aa565b92915050565b600081359050613bd4816156c1565b92915050565b60006101a08284031215613bed57600080fd5b613bf7608061534d565b90506000613c07848285016139bc565b6000830152506040613c1b84828501613948565b60208301525060c0613c2f848285016139bc565b604083015250610100613c4484828501613aa4565b60608301525092915050565b60006102008284031215613c6357600080fd5b613c6d608061534d565b90506000613c7d84828501613f1c565b6000830152506020613c9184828501613f1c565b6020830152506040613ca584828501613f1c565b6040830152506060613cb984828501613bda565b60608301525092915050565b60006101808284031215613cd857600080fd5b613ce2608061534d565b90506000613cf2848285016139bc565b6000830152506040613d0684828501613948565b60208301525060c0613d1a848285016139bc565b604083015250610100613d2f84828501613a30565b60608301525092915050565b60006102008284031215613d4e57600080fd5b613d5860a061534d565b90506000613d6884828501613f1c565b6000830152506020613d7c84828501613f1c565b602083015250604082013567ffffffffffffffff811115613d9c57600080fd5b613da884828501613b18565b604083015250606082013567ffffffffffffffff811115613dc857600080fd5b613dd484828501613b18565b6060830152506080613de884828501613cc5565b60808301525092915050565b60006101a08284031215613e0757600080fd5b613e11608061534d565b90506000613e21848285016139bc565b6000830152506040613e3584828501613948565b60208301525060c0613e49848285016139bc565b604083015250610100613e5e84828501613aa4565b60608301525092915050565b60006102408284031215613e7d57600080fd5b613e8760c061534d565b90506000613e9784828501613f1c565b6000830152506020613eab84828501613f1c565b6020830152506040613ebf84828501613bc5565b6040830152506060613ed384828501613f1c565b6060830152506080613ee784828501613f1c565b60808301525060a0613efb84828501613df4565b60a08301525092915050565b600081359050613f16816156d1565b92915050565b600081359050613f2b816156e8565b92915050565b600081519050613f40816156e8565b92915050565b600060208284031215613f5857600080fd5b6000613f6684828501613bb0565b91505092915050565b600060208284031215613f8157600080fd5b6000613f8f84828501613bc5565b91505092915050565b60006102008284031215613fab57600080fd5b6000613fb984828501613c50565b91505092915050565b600060208284031215613fd457600080fd5b600082013567ffffffffffffffff811115613fee57600080fd5b613ffa84828501613d3b565b91505092915050565b6000610240828403121561401657600080fd5b600061402484828501613e6a565b91505092915050565b60006020828403121561403f57600080fd5b600061404d84828501613f07565b91505092915050565b6000806040838503121561406957600080fd5b600061407785828601613f07565b925050602061408885828601613b9b565b9150509250929050565b600080604083850312156140a557600080fd5b60006140b385828601613f07565b92505060206140c485828601613f07565b9150509250929050565b6000602082840312156140e057600080fd5b60006140ee84828501613f1c565b91505092915050565b60006020828403121561410957600080fd5b600061411784828501613f31565b91505092915050565b6000806040838503121561413357600080fd5b600061414185828601613f1c565b925050602061415285828601613f1c565b9150509250929050565b600061416883836143e9565b60408301905092915050565b60006141808383614a24565b6101008301905092915050565b60006141998383614ac6565b6101408301905092915050565b60006141b28383614c8b565b60208301905092915050565b60006141ca8383614cc7565b60208301905092915050565b6141df81615636565b82525050565b6141ee816155bb565b82525050565b6141fd816155bb565b82525050565b61420c816155bb565b82525050565b61421b816155bb565b82525050565b61422a81615482565b614234818461552a565b925061423f8261542a565b8060005b83811015614270578151614257878261415c565b9650614262836154cf565b925050600181019050614243565b505050505050565b61428181615482565b61428b8184615535565b92506142968261542a565b8060005b838110156142c75781516142ae878261415c565b96506142b9836154cf565b92505060018101905061429a565b505050505050565b8082525050565b60006142e18261548d565b6142eb8185615540565b93506142f683615434565b8060005b8381101561432757815161430e8882614174565b9750614319836154dc565b9250506001810190506142fa565b5085935050505092915050565b600061433f82615498565b6143498185615551565b935061435483615444565b8060005b8381101561438557815161436c888261418d565b9750614377836154e9565b925050600181019050614358565b5085935050505092915050565b61439b816154a3565b6143a58184615562565b92506143b082615454565b8060005b838110156143e15781516143c887826141a6565b96506143d3836154f6565b9250506001810190506143b4565b505050505050565b6143f2816154a3565b6143fc818461556d565b925061440782615454565b8060005b8381101561443857815161441f87826141a6565b965061442a836154f6565b92505060018101905061440b565b505050505050565b614449816154ae565b6144538184615578565b925061445e8261545e565b8060005b8381101561448f57815161447687826141a6565b965061448183615503565b925050600181019050614462565b505050505050565b6144a0816154b9565b6144aa8184615583565b92506144b582615468565b8060005b838110156144e65781516144cd87826141a6565b96506144d883615510565b9250506001810190506144b9565b505050505050565b6144f7816154b9565b614501818461558e565b925061450c82615468565b8060005b8381101561453d57815161452487826141a6565b965061452f83615510565b925050600181019050614510565b505050505050565b6000614550826154c4565b61455a8185615599565b935061456583615472565b8060005b8381101561459657815161457d88826141be565b97506145888361551d565b925050600181019050614569565b5085935050505092915050565b8082525050565b6145b3816155cd565b82525050565b6145c2816155cd565b82525050565b6145d1816155cd565b82525050565b6145e081615648565b82525050565b6145ef81615648565b82525050565b6145fe8161565a565b82525050565b61460d8161565a565b82525050565b61461c8161565a565b82525050565b8082525050565b8082525050565b8082525050565b6000614644600f836155aa565b91507f6e6f7420656e6f756768206d616e6100000000000000000000000000000000006000830152602082019050919050565b60006146846007836155aa565b91507f626164205a4b50000000000000000000000000000000000000000000000000006000830152602082019050919050565b60006146c46015836155aa565b91507f63616e2774206a6f696e2067616d6520747769636500000000000000000000006000830152602082019050919050565b6000614704600c836155aa565b91507f496e76616c6964206d6f766500000000000000000000000000000000000000006000830152602082019050919050565b6000614744600d836155aa565b91507f616c7265616479206163746564000000000000000000000000000000000000006000830152602082019050919050565b60006147846017836155aa565b91507f706965636520494420616c726561647920696e207573650000000000000000006000830152602082019050919050565b60006147c4600d836155aa565b91507f6e6f7420696e20626f756e6473000000000000000000000000000000000000006000830152602082019050919050565b6000614804600e836155aa565b91507f696e76616c69642061747461636b0000000000000000000000000000000000006000830152602082019050919050565b6000614844600f836155aa565b91507f63616e2774206d6f7665207468617400000000000000000000000000000000006000830152602082019050919050565b6000614884600a836155aa565b91507f70696563652064656164000000000000000000000000000000000000000000006000830152602082019050919050565b60006148c4600d836155aa565b91507f616c7265616479206d6f766564000000000000000000000000000000000000006000830152602082019050919050565b60006149046012836155aa565b91507f63616e27742073756d6d6f6e20746865726500000000000000000000000000006000830152602082019050919050565b60006149446014836155aa565b91507f47616d6520616c726561647920737461727465640000000000000000000000006000830152602082019050919050565b6101a08201600082015161498e60008501826143e9565b5060208201516149a16040850182614278565b5060408201516149b460c08501826143e9565b5060608201516149c86101008501826144ee565b50505050565b610200820160008201516149e56000850182614cc7565b5060208201516149f86020850182614cc7565b506040820151614a0b6040850182614cc7565b506060820151614a1e6060850182614977565b50505050565b61010082016000820151614a3b60008501826145f5565b506020820151614a4e6020850182614c9a565b506040820151614a616040850182614c9a565b506060820151614a746060850182614c9a565b506080820151614a876080850182614c9a565b5060a0820151614a9a60a0850182614c9a565b5060c0820151614aad60c08501826145aa565b5060e0820151614ac060e08501826145aa565b50505050565b61014082016000820151614add6000850182614c9a565b506020820151614af060208501826145f5565b506040820151614b0360408501826141e5565b506060820151614b166060850182614c9a565b506080820151614b296080850182614c9a565b5060a0820151614b3c60a08501826145aa565b5060c0820151614b4f60c08501826145aa565b5060e0820151614b6260e0850182614c9a565b50610100820151614b77610100850182614c9a565b50610120820151614b8c610120850182614c5e565b50505050565b61014082016000820151614ba96000850182614cc7565b506020820151614bbc6020850182614613565b506040820151614bcf6040850182614212565b506060820151614be26060850182614cc7565b506080820151614bf56080850182614cc7565b5060a0820151614c0860a08501826145c8565b5060c0820151614c1b60c08501826145c8565b5060e0820151614c2e60e0850182614cc7565b50610100820151614c43610100850182614cc7565b50610120820151614c58610120850182614c8b565b50505050565b614c678161561f565b82525050565b614c768161561f565b82525050565b614c858161561f565b82525050565b614c948161561f565b82525050565b614ca381615629565b82525050565b614cb281615629565b82525050565b614cc181615629565b82525050565b614cd081615629565b82525050565b6000602082019050614ceb60008301846141f4565b92915050565b6000602082019050614d0660008301846141d6565b92915050565b6000604082019050614d2160008301856141f4565b614d2e60208301846141f4565b9392505050565b60006020820190508181036000830152614d4f81846142d6565b905092915050565b60006020820190508181036000830152614d718184614334565b905092915050565b600061018082019050614d8f6000830187614392565b614d9c6040830186614221565b614da960c0830185614392565b614db7610100830184614440565b95945050505050565b60006101a082019050614dd66000830187614392565b614de36040830186614221565b614df060c0830185614392565b614dfe610100830184614497565b95945050505050565b6000608082019050614e1c60008301876145a3565b614e296020830186614630565b614e366040830185614203565b614e436060830184614203565b95945050505050565b6000602082019050614e6160008301846145b9565b92915050565b6000602082019050614e7c60008301846145d7565b92915050565b600061010082019050614e98600083018b614604565b614ea5602083018a614ca9565b614eb26040830189614ca9565b614ebf6060830188614ca9565b614ecc6080830187614ca9565b614ed960a0830186614ca9565b614ee660c08301856145b9565b614ef360e08301846145b9565b9998505050505050505050565b60006020820190508181036000830152614f1981614637565b9050919050565b60006020820190508181036000830152614f3981614677565b9050919050565b60006020820190508181036000830152614f59816146b7565b9050919050565b60006020820190508181036000830152614f79816146f7565b9050919050565b60006020820190508181036000830152614f9981614737565b9050919050565b60006020820190508181036000830152614fb981614777565b9050919050565b60006020820190508181036000830152614fd9816147b7565b9050919050565b60006020820190508181036000830152614ff9816147f7565b9050919050565b6000602082019050818103600083015261501981614837565b9050919050565b6000602082019050818103600083015261503981614877565b9050919050565b60006020820190508181036000830152615059816148b7565b9050919050565b60006020820190508181036000830152615079816148f7565b9050919050565b6000602082019050818103600083015261509981614937565b9050919050565b60006102a0820190506150b660008301896149ce565b6150c4610200830188614630565b6150d26102208301876142cf565b6150e0610240830186614622565b6150ee610260830185614629565b6150fc610280830184614c7c565b979650505050505050565b60006102808201905061511d60008301886149ce565b61512b610200830187614630565b615139610220830186614622565b615147610240830185614629565b615155610260830184614c7c565b9695505050505050565b600061020082019050615175600083018a614b92565b8181036101408301526151888189614545565b905081810361016083015261519d8188614545565b90506151ad6101808301876142cf565b6151bb6101a0830186614630565b6151c96101c0830185614622565b6151d76101e0830184614c7c565b98975050505050505050565b60006020820190506151f86000830184614c6d565b92915050565b60006020820190506152136000830184614ca9565b92915050565b60006101408201905061522f600083018d614ca9565b61523c602083018c614604565b615249604083018b6141f4565b615256606083018a614ca9565b6152636080830189614ca9565b61527060a08301886145b9565b61527d60c08301876145b9565b61528a60e0830186614ca9565b615298610100830185614ca9565b6152a6610120830184614c6d565b9b9a5050505050505050505050565b600060a0820190506152ca6000830188614cb8565b6152d76020830187614cb8565b6152e46040830186614203565b6152f16060830185614203565b6152fe60808301846145e6565b9695505050505050565b600060808201905061531d6000830187614cb8565b61532a6020830186614cb8565b6153376040830185614cb8565b6153446060830184614cb8565b95945050505050565b6000604051905081810181811067ffffffffffffffff8211171561537057600080fd5b8060405250919050565b600067ffffffffffffffff82111561539157600080fd5b602082029050919050565b600067ffffffffffffffff8211156153b357600080fd5b602082029050919050565b600067ffffffffffffffff8211156153d557600080fd5b602082029050919050565b600067ffffffffffffffff8211156153f757600080fd5b602082029050919050565b600067ffffffffffffffff82111561541957600080fd5b602082029050602081019050919050565b6000819050919050565b6000819050602082019050919050565b6000819050602082019050919050565b6000819050919050565b6000819050919050565b6000819050919050565b6000819050602082019050919050565b600060029050919050565b600081519050919050565b600081519050919050565b600060029050919050565b600060049050919050565b600060059050919050565b600081519050919050565b6000602082019050919050565b6000602082019050919050565b6000602082019050919050565b6000602082019050919050565b6000602082019050919050565b6000602082019050919050565b6000602082019050919050565b600081905092915050565b600081905092915050565b600082825260208201905092915050565b600082825260208201905092915050565b600081905092915050565b600081905092915050565b600081905092915050565b600081905092915050565b600081905092915050565b600082825260208201905092915050565b600082825260208201905092915050565b60006155c6826155ff565b9050919050565b60008115159050919050565b60008190506155e782615690565b919050565b60008190506155fa8261569d565b919050565b600073ffffffffffffffffffffffffffffffffffffffff82169050919050565b6000819050919050565b600060ff82169050919050565b60006156418261566c565b9050919050565b6000615653826155d9565b9050919050565b6000615665826155ec565b9050919050565b60006156778261567e565b9050919050565b6000615689826155ff565b9050919050565b6004811061569a57fe5b50565b600481106156a757fe5b50565b6156b3816155cd565b81146156be57600080fd5b50565b600481106156ce57600080fd5b50565b6156da8161561f565b81146156e557600080fd5b50565b6156f181615629565b81146156fc57600080fd5b5056fea2646970667358221220c4e2c7313d711532eacacbaa74019d5703ae1f1e6e167552c43bee2803fdce2d64736f6c63430006070033",
  "immutableReferences": {},
  "source": "pragma solidity ^0.6.7;\npragma experimental ABIEncoderV2;\n\nimport \"@openzeppelin/contracts-ethereum-package/contracts/Initializable.sol\";\nimport \"./ZKChessTypes.sol\";\nimport \"./ZKChessUtils.sol\";\nimport \"./Verifier.sol\";\n\ncontract ZKChessGame is Initializable {\n    uint256 public constant BOARD_SIZE = 7;\n\n    uint256 public gameId;\n\n    uint8 public turnNumber;\n    GameState public gameState;\n    uint8[][] public boardPieces; // board[row][col]\n\n    uint8[] public pieceIds;\n    mapping(uint8 => Piece) public pieces;\n\n    mapping(PieceType => PieceDefaultStats) public defaultStats;\n\n    bool public DISABLE_ZK_CHECK;\n\n    address public player1;\n    address public player2;\n\n    uint8 public player1Mana;\n    uint8 public player2Mana;\n\n    // mapping from turn # -> piece # -> has acted\n    mapping(uint8 => mapping(uint8 => bool)) public hasMoved;\n    mapping(uint8 => mapping(uint8 => bool)) public hasAttacked;\n\n    function initialize(uint256 _gameId, bool _disableZKCheck) public {\n        gameId = _gameId;\n        DISABLE_ZK_CHECK = _disableZKCheck;\n        gameState = GameState.WAITING_FOR_PLAYERS;\n\n        for (uint8 i = 0; i < BOARD_SIZE; i++) {\n            boardPieces.push();\n            for (uint8 j = 0; j < BOARD_SIZE; j++) {\n                boardPieces[i].push(0);\n            }\n        }\n\n        // initialize pieces\n        defaultStats[PieceType.KING] = PieceDefaultStats({\n            pieceType: PieceType.KING,\n            mvRange: 2,\n            atkRange: 1,\n            hp: 3,\n            atk: 2,\n            isZk: false,\n            cost: 1,\n            kamikaze: false\n        });\n        defaultStats[PieceType.KNIGHT] = PieceDefaultStats({\n            pieceType: PieceType.KNIGHT,\n            mvRange: 2,\n            atkRange: 2,\n            hp: 3,\n            atk: 2,\n            isZk: false,\n            cost: 2,\n            kamikaze: false\n        });\n        defaultStats[PieceType.GHOST] = PieceDefaultStats({\n            pieceType: PieceType.GHOST,\n            mvRange: 1,\n            atkRange: 1,\n            hp: 3,\n            atk: 1,\n            isZk: true,\n            cost: 3,\n            kamikaze: true\n        });\n        defaultStats[PieceType.PORT] = PieceDefaultStats({\n            pieceType: PieceType.PORT,\n            mvRange: 0,\n            atkRange: 2,\n            hp: 10,\n            atk: 2,\n            isZk: false,\n            cost: 100,\n            kamikaze: false\n        });\n    }\n\n    //////////////\n    /// EVENTS ///\n    //////////////\n\n    event ProofVerified(uint256 pfsAccepted);\n    event GameStart(address p1, address p2);\n    event ActionMade(address player);\n    event GameFinished();\n\n    ///////////////\n    /// GETTERS ///\n    ///////////////\n\n    function getPieces() public view returns (Piece[] memory ret) {\n        ret = new Piece[](pieceIds.length);\n        for (uint8 i = 0; i < pieceIds.length; i++) {\n            ret[i] = pieces[pieceIds[i]];\n        }\n        return ret;\n    }\n\n    function getDefaults()\n        public\n        view\n        returns (PieceDefaultStats[] memory ret)\n    {\n        ret = new PieceDefaultStats[](4);\n        // TODO hardcode bad >:(\n        for (uint8 i = 0; i < 4; i++) {\n            ret[i] = defaultStats[PieceType(i)];\n        }\n        return ret;\n    }\n\n    //////////////\n    /// Helper ///\n    //////////////\n\n    function checkAction(uint8 _turnNumber) public view returns (bool) {\n        return\n            ZKChessUtils.checkAction(\n                _turnNumber,\n                turnNumber,\n                player1,\n                player2,\n                gameState\n            );\n    }\n\n    function isValidMove(\n        Piece memory piece,\n        uint8[] memory toRow,\n        uint8[] memory toCol\n    ) private view returns (bool) {\n        return\n            ZKChessUtils.isValidMove(\n                piece,\n                toRow,\n                toCol,\n                boardPieces,\n                pieces,\n                defaultStats,\n                BOARD_SIZE\n            );\n    }\n\n    function gameShouldBeCompleted() public view returns (bool) {\n        return\n            ZKChessUtils.gameShouldBeCompleted(\n                pieceIds,\n                pieces,\n                player1,\n                player2\n            );\n    }\n\n    //////////////////////\n    /// Game Mechanics ///\n    //////////////////////\n\n    function joinGame() public {\n        require(\n            gameState == GameState.WAITING_FOR_PLAYERS,\n            \"Game already started\"\n        );\n        if (player1 == address(0)) {\n            // first player to join game\n            player1 = msg.sender;\n            return;\n        }\n        // another player has joined. game is ready to start\n\n        require(msg.sender != player1, \"can't join game twice\");\n        // randomize player order\n        if (block.timestamp % 2 == 0) {\n            player2 = msg.sender;\n        } else {\n            player2 = player1;\n            player1 = msg.sender;\n        }\n\n        // set pieces\n        pieces[1] = Piece({\n            id: 1,\n            pieceType: PieceType.PORT,\n            owner: player1,\n            row: 0,\n            col: 3,\n            alive: true,\n            commitment: 0,\n            initialized: true,\n            hp: defaultStats[PieceType.PORT].hp,\n            initializedOnTurn: 0\n        });\n        pieceIds.push(1);\n        boardPieces[0][3] = 1;\n        pieces[2] = Piece({\n            id: 2,\n            pieceType: PieceType.PORT,\n            owner: player2,\n            row: 6,\n            col: 3,\n            alive: true,\n            commitment: 0,\n            initialized: true,\n            hp: defaultStats[PieceType.PORT].hp,\n            initializedOnTurn: 0\n        });\n        pieceIds.push(2);\n        boardPieces[6][3] = 2;\n\n        gameState = GameState.P1_TO_MOVE;\n        turnNumber = 1;\n        player1Mana = turnNumber;\n        emit GameStart(player1, player2);\n    }\n\n    function doSummon(Summon memory summon) public {\n        checkAction(summon.turnNumber);\n        require(!pieces[summon.pieceId].initialized, \"piece ID already in use\");\n\n        // PORT tile\n        uint8 homeRow;\n        uint8 homeCol;\n        if (msg.sender == player1) {\n            homeRow = 0;\n            homeCol = 3;\n        } else {\n            homeRow = 6;\n            homeCol = 3;\n        }\n\n        // MANA checks\n        if (msg.sender == player1) {\n            require(\n                player1Mana >= defaultStats[summon.pieceType].cost,\n                \"not enough mana\"\n            );\n            player1Mana -= defaultStats[summon.pieceType].cost;\n        } else {\n            require(\n                player2Mana >= defaultStats[summon.pieceType].cost,\n                \"not enough mana\"\n            );\n            player2Mana -= defaultStats[summon.pieceType].cost;\n        }\n\n        // validity checks\n        if (!defaultStats[summon.pieceType].isZk) {\n            require(\n                summon.row < BOARD_SIZE && summon.col < BOARD_SIZE,\n                \"not in bounds\"\n            );\n            // if visible piece, can't summon on existing piece\n            uint8 pieceIdAtSummonTile = boardPieces[summon.row][summon.col];\n            Piece storage pieceAtSummonTile = pieces[pieceIdAtSummonTile];\n            require(!pieceAtSummonTile.alive, \"can't summon there\");\n            // must summon adjacent to the PORT tile\n            require(\n                ZKChessUtils.taxiDist(\n                    summon.row,\n                    summon.col,\n                    homeRow,\n                    homeCol\n                ) == 1,\n                \"can't summon there\"\n            );\n        } else {\n            if (!DISABLE_ZK_CHECK) {\n                require(\n                    summon.zkp.input[1] == homeRow &&\n                        summon.zkp.input[2] == homeCol,\n                    \"bad ZKP\"\n                );\n                require(summon.zkp.input[3] == 1, \"bad ZKP\");\n                require(summon.zkp.input[4] == BOARD_SIZE, \"bad ZKP\");\n                require(\n                    Verifier.verifyDist1Proof(\n                        summon.zkp.a,\n                        summon.zkp.b,\n                        summon.zkp.c,\n                        summon.zkp.input\n                    ),\n                    \"bad ZKP\"\n                );\n            }\n        }\n\n        // create piece\n        pieces[summon.pieceId] = Piece({\n            id: summon.pieceId,\n            pieceType: summon.pieceType,\n            owner: msg.sender,\n            row: summon.row,\n            col: summon.col,\n            alive: true,\n            commitment: summon.zkp.input[0],\n            initialized: true,\n            hp: defaultStats[summon.pieceType].hp,\n            initializedOnTurn: turnNumber\n        });\n        pieceIds.push(summon.pieceId);\n        boardPieces[summon.row][summon.col] = summon.pieceId;\n        // if piece has just been made, can't use it yet\n        // in the future this should be tracked in its own field\n        hasMoved[summon.turnNumber][summon.pieceId] = true;\n        hasAttacked[summon.turnNumber][summon.pieceId] = true;\n        emit ActionMade(msg.sender);\n    }\n\n    function doMove(Move memory move) public {\n        checkAction(move.turnNumber);\n        Piece storage piece = pieces[move.pieceId];\n        require(\n            piece.owner == msg.sender && piece.owner != address(0),\n            \"can't move that\"\n        );\n        require(piece.alive, \"piece dead\");\n        require(!hasMoved[move.turnNumber][piece.id], \"already moved\");\n        require(!hasAttacked[move.turnNumber][piece.id], \"already acted\");\n\n        if (defaultStats[piece.pieceType].isZk) {\n            require(piece.commitment == move.zkp.input[0], \"bad ZKP\");\n            require(move.zkp.input[3] == BOARD_SIZE, \"bad ZKP\");\n            require(\n                move.zkp.input[2] <= defaultStats[piece.pieceType].mvRange,\n                \"bad ZKP\"\n            );\n            if (!DISABLE_ZK_CHECK) {\n                require(\n                    Verifier.verifyDist2Proof(\n                        move.zkp.a,\n                        move.zkp.b,\n                        move.zkp.c,\n                        move.zkp.input\n                    ),\n                    \"bad ZKP\"\n                );\n            }\n            piece.commitment = move.zkp.input[1];\n        } else {\n            uint8[] memory moveToRow = move.moveToRow;\n            uint8[] memory moveToCol = move.moveToCol;\n            require(isValidMove(piece, moveToRow, moveToCol), \"Invalid move\");\n            uint8 toRow = moveToRow[moveToRow.length - 1];\n            uint8 toCol = moveToCol[moveToCol.length - 1];\n            boardPieces[piece.row][piece.col] = 0;\n            boardPieces[toRow][toCol] = piece.id;\n            piece.row = toRow;\n            piece.col = toCol;\n        }\n        hasMoved[move.turnNumber][piece.id] = true;\n        emit ActionMade(msg.sender);\n    }\n\n    function doAttack(Attack memory attack) public {\n        checkAction(attack.turnNumber);\n        Piece storage piece = pieces[attack.pieceId];\n        Piece storage attacked = pieces[attack.attackedId];\n        require(\n            ZKChessUtils.checkAttack(\n                attack,\n                pieces,\n                defaultStats,\n                hasAttacked,\n                BOARD_SIZE\n            ),\n            \"invalid attack\"\n        );\n\n        ZKChessUtils.executeAttack(\n            attack,\n            pieces,\n            boardPieces,\n            defaultStats,\n            hasAttacked,\n            BOARD_SIZE\n        );\n        emit ActionMade(msg.sender);\n    }\n\n    function endTurn(uint8 _turnNumber) public {\n        checkAction(_turnNumber);\n        if (msg.sender == player1) {\n            // change to p2's turn\n            player1Mana = 0;\n            player2Mana = turnNumber;\n            if (player2Mana > 8) {\n                player2Mana = 8;\n            }\n            gameState = GameState.P2_TO_MOVE;\n        } else {\n            // change to p1's turn\n            turnNumber++;\n            player2Mana = 0;\n            player1Mana = turnNumber;\n            if (player1Mana > 8) {\n                player1Mana = 8;\n            }\n            gameState = GameState.P1_TO_MOVE;\n        }\n        emit ActionMade(msg.sender);\n\n        if (gameShouldBeCompleted()) {\n            gameState = GameState.COMPLETE;\n            emit GameFinished();\n        }\n    }\n}\n",
  "sourcePath": "/Users/alan/Sites/zk-chess/eth/contracts/ZKChessGame.sol",
  "compiler": {
    "name": "solc",
    "version": "0.6.7+commit.b8d736ae.Emscripten.clang"
  },
  "schemaVersion": "3.2.0",
  "updatedAt": "2020-11-12T18:35:51.217Z",
  "networkType": "ethereum",
  "devdoc": {
    "methods": {}
  },
  "userdoc": {
    "methods": {
      "checkAction(uint8)": {
        "notice": "/////////// Helper /// ///////////"
      },
      "getPieces()": {
        "notice": "//////////// GETTERS /// ////////////"
      },
      "joinGame()": {
        "notice": "/////////////////// Game Mechanics /// ///////////////////"
      }
    }
  }
}