{
  "contractName": "ZKChessCore",
  "abi": [
    {
      "inputs": [
        {
          "internalType": "address",
          "name": "_adminAddress",
          "type": "address"
        },
        {
          "internalType": "bool",
          "name": "_disableZKCheck",
          "type": "bool"
        }
      ],
      "stateMutability": "nonpayable",
      "type": "constructor"
    },
    {
      "anonymous": false,
      "inputs": [
        {
          "indexed": false,
          "internalType": "uint256",
          "name": "pfsAccepted",
          "type": "uint256"
        }
      ],
      "name": "ProofVerified",
      "type": "event"
    },
    {
      "inputs": [],
      "name": "DISABLE_ZK_CHECK",
      "outputs": [
        {
          "internalType": "bool",
          "name": "",
          "type": "bool"
        }
      ],
      "stateMutability": "view",
      "type": "function"
    },
    {
      "inputs": [],
      "name": "FIELD_SIZE",
      "outputs": [
        {
          "internalType": "uint256",
          "name": "",
          "type": "uint256"
        }
      ],
      "stateMutability": "view",
      "type": "function"
    },
    {
      "inputs": [],
      "name": "adminAddress",
      "outputs": [
        {
          "internalType": "address",
          "name": "",
          "type": "address"
        }
      ],
      "stateMutability": "view",
      "type": "function"
    },
    {
      "inputs": [],
      "name": "paused",
      "outputs": [
        {
          "internalType": "bool",
          "name": "",
          "type": "bool"
        }
      ],
      "stateMutability": "view",
      "type": "function"
    },
    {
      "inputs": [],
      "name": "pause",
      "outputs": [],
      "stateMutability": "nonpayable",
      "type": "function"
    },
    {
      "inputs": [],
      "name": "unpause",
      "outputs": [],
      "stateMutability": "nonpayable",
      "type": "function"
    },
    {
      "inputs": [
        {
          "internalType": "uint256",
          "name": "val1",
          "type": "uint256"
        },
        {
          "internalType": "uint256",
          "name": "val2",
          "type": "uint256"
        },
        {
          "internalType": "uint256",
          "name": "val3",
          "type": "uint256"
        }
      ],
      "name": "hashTriple",
      "outputs": [
        {
          "internalType": "uint256",
          "name": "",
          "type": "uint256"
        }
      ],
      "stateMutability": "pure",
      "type": "function"
    },
    {
      "inputs": [
        {
          "internalType": "uint256[2]",
          "name": "_a",
          "type": "uint256[2]"
        },
        {
          "internalType": "uint256[2][2]",
          "name": "_b",
          "type": "uint256[2][2]"
        },
        {
          "internalType": "uint256[2]",
          "name": "_c",
          "type": "uint256[2]"
        },
        {
          "internalType": "uint256[1]",
          "name": "_input",
          "type": "uint256[1]"
        }
      ],
      "name": "checkProof",
      "outputs": [
        {
          "internalType": "bool",
          "name": "",
          "type": "bool"
        }
      ],
      "stateMutability": "nonpayable",
      "type": "function"
    }
  ],
  "bytecode": "0x60806040523480156200001157600080fd5b506040516200125f3803806200125f8339818101604052810190620000379190620000a1565b60008060146101000a81548160ff02191690831515021790555080600060156101000a81548160ff021916908315150217905550505062000156565b600081519050620000848162000122565b92915050565b6000815190506200009b816200013c565b92915050565b60008060408385031215620000b557600080fd5b6000620000c58582860162000073565b9250506020620000d8858286016200008a565b9150509250929050565b6000620000ef8262000102565b9050919050565b60008115159050919050565b600073ffffffffffffffffffffffffffffffffffffffff82169050919050565b6200012d81620000e2565b81146200013957600080fd5b50565b6200014781620000f6565b81146200015357600080fd5b50565b6110f980620001666000396000f3fe608060405234801561001057600080fd5b50600436106100875760003560e01c806373d643da1161005b57806373d643da146101025780638456cb59146101325780638af9d5621461013c578063fc6f94681461015a57610087565b80621c7f221461008c5780633f4ba83a146100bc578063414a37ba146100c65780635c975abb146100e4575b600080fd5b6100a660048036038101906100a19190610a21565b610178565b6040516100b39190610eb3565b60405180910390f35b6100c46103d0565b005b6100ce6104ca565b6040516100db9190610eb3565b60405180910390f35b6100ec6104ee565b6040516100f99190610df8565b60405180910390f35b61011c60048036038101906101179190610957565b610501565b6040516101299190610df8565b60405180910390f35b61013a610688565b005b610144610784565b6040516101519190610df8565b60405180910390f35b610162610797565b60405161016f9190610d96565b60405180910390f35b6000806000905060008090507f30644e72e131a029b85045b68181585d2833e84879b9709143e1f593f0000001806101ac57fe5b868308915073__Hasher________________________________633f1a1187838360006040518463ffffffff1660e01b81526004016101ed93929190610ece565b604080518083038186803b15801561020457600080fd5b505af4158015610218573d6000803e3d6000fd5b505050506040513d601f19601f8201168201806040525081019061023c91906109e5565b80925081935050507f30644e72e131a029b85045b68181585d2833e84879b9709143e1f593f00000018061026c57fe5b858308915073__Hasher________________________________633f1a1187838360006040518463ffffffff1660e01b81526004016102ad93929190610ece565b604080518083038186803b1580156102c457600080fd5b505af41580156102d8573d6000803e3d6000fd5b505050506040513d601f19601f820116820180604052508101906102fc91906109e5565b80925081935050507f30644e72e131a029b85045b68181585d2833e84879b9709143e1f593f00000018061032c57fe5b848308915073__Hasher________________________________633f1a1187838360006040518463ffffffff1660e01b815260040161036d93929190610ece565b604080518083038186803b15801561038457600080fd5b505af4158015610398573d6000803e3d6000fd5b505050506040513d601f19601f820116820180604052508101906103bc91906109e5565b809250819350505081925050509392505050565b6000809054906101000a900473ffffffffffffffffffffffffffffffffffffffff1673ffffffffffffffffffffffffffffffffffffffff163373ffffffffffffffffffffffffffffffffffffffff161461045f576040517f08c379a000000000000000000000000000000000000000000000000000000000815260040161045690610e13565b60405180910390fd5b600060149054906101000a900460ff166104ae576040517f08c379a00000000000000000000000000000000000000000000000000000000081526004016104a590610e73565b60405180910390fd5b60008060146101000a81548160ff021916908315150217905550565b7f30644e72e131a029b85045b68181585d2833e84879b9709143e1f593f000000181565b600060149054906101000a900460ff1681565b60008060149054906101000a900460ff1615610552576040517f08c379a000000000000000000000000000000000000000000000000000000000815260040161054990610e53565b60405180910390fd5b600060159054906101000a900460ff166106335773__Verifier______________________________6356387ffe868686866040518563ffffffff1660e01b81526004016105a39493929190610db1565b60206040518083038186803b1580156105bb57600080fd5b505af41580156105cf573d6000803e3d6000fd5b505050506040513d601f19601f820116820180604052508101906105f391906109bc565b610632576040517f08c379a000000000000000000000000000000000000000000000000000000000815260040161062990610e33565b60405180910390fd5b5b600180600082825401925050819055507f4eb5ee08f6bd1352ed7b0dac0ee5e5b7cb984b0477d694d9db613b705f47f2ab6001546040516106749190610eb3565b60405180910390a160019050949350505050565b6000809054906101000a900473ffffffffffffffffffffffffffffffffffffffff1673ffffffffffffffffffffffffffffffffffffffff163373ffffffffffffffffffffffffffffffffffffffff1614610717576040517f08c379a000000000000000000000000000000000000000000000000000000000815260040161070e90610e13565b60405180910390fd5b600060149054906101000a900460ff1615610767576040517f08c379a000000000000000000000000000000000000000000000000000000000815260040161075e90610e93565b60405180910390fd5b6001600060146101000a81548160ff021916908315150217905550565b600060159054906101000a900460ff1681565b6000809054906101000a900473ffffffffffffffffffffffffffffffffffffffff1681565b600082601f8301126107cd57600080fd5b60026107e06107db82610f32565b610f05565b915081838560408402820111156107f657600080fd5b60005b83811015610826578161080c88826108a4565b8452602084019350604083019250506001810190506107f9565b5050505092915050565b600082601f83011261084157600080fd5b600161085461084f82610f54565b610f05565b9150818385602084028201111561086a57600080fd5b60005b8381101561089a5781610880888261092d565b84526020840193506020830192505060018101905061086d565b5050505092915050565b600082601f8301126108b557600080fd5b60026108c86108c382610f76565b610f05565b915081838560208402820111156108de57600080fd5b60005b8381101561090e57816108f4888261092d565b8452602084019350602083019250506001810190506108e1565b5050505092915050565b60008151905061092781611095565b92915050565b60008135905061093c816110ac565b92915050565b600081519050610951816110ac565b92915050565b600080600080610120858703121561096e57600080fd5b600061097c878288016108a4565b945050604061098d878288016107bc565b93505060c061099e878288016108a4565b9250506101006109b087828801610830565b91505092959194509250565b6000602082840312156109ce57600080fd5b60006109dc84828501610918565b91505092915050565b600080604083850312156109f857600080fd5b6000610a0685828601610942565b9250506020610a1785828601610942565b9150509250929050565b600080600060608486031215610a3657600080fd5b6000610a448682870161092d565b9350506020610a558682870161092d565b9250506040610a668682870161092d565b9150509250925092565b6000610a7c8383610bb4565b60408301905092915050565b6000610a948383610d87565b60208301905092915050565b610aa98161103b565b82525050565b610ab881610fb6565b610ac28184610ffe565b9250610acd82610f98565b8060005b83811015610afe578151610ae58782610a70565b9650610af083610fd7565b925050600181019050610ad1565b505050505050565b610b0f81610fc1565b610b198184611009565b9250610b2482610fa2565b8060005b83811015610b55578151610b3c8782610a88565b9650610b4783610fe4565b925050600181019050610b28565b505050505050565b610b6681610fcc565b610b708184611014565b9250610b7b82610fac565b8060005b83811015610bac578151610b938782610a88565b9650610b9e83610ff1565b925050600181019050610b7f565b505050505050565b610bbd81610fcc565b610bc7818461101f565b9250610bd282610fac565b8060005b83811015610c03578151610bea8782610a88565b9650610bf583610ff1565b925050600181019050610bd6565b505050505050565b610c148161104d565b82525050565b610c2381611083565b82525050565b6000610c36601b8361102a565b91507f53656e646572206973206e6f7420612067616d65206d617374657200000000006000830152602082019050919050565b6000610c7660178361102a565b91507f4661696c656420696e69742070726f6f6620636865636b0000000000000000006000830152602082019050919050565b6000610cb6600e8361102a565b91507f47616d65206973207061757365640000000000000000000000000000000000006000830152602082019050919050565b6000610cf660188361102a565b91507f47616d6520697320616c726561647920756e70617573656400000000000000006000830152602082019050919050565b6000610d3660168361102a565b91507f47616d6520697320616c726561647920706175736564000000000000000000006000830152602082019050919050565b610d7281611079565b82525050565b610d8181611079565b82525050565b610d9081611079565b82525050565b6000602082019050610dab6000830184610aa0565b92915050565b600061012082019050610dc76000830187610b5d565b610dd46040830186610aaf565b610de160c0830185610b5d565b610def610100830184610b06565b95945050505050565b6000602082019050610e0d6000830184610c0b565b92915050565b60006020820190508181036000830152610e2c81610c29565b9050919050565b60006020820190508181036000830152610e4c81610c69565b9050919050565b60006020820190508181036000830152610e6c81610ca9565b9050919050565b60006020820190508181036000830152610e8c81610ce9565b9050919050565b60006020820190508181036000830152610eac81610d29565b9050919050565b6000602082019050610ec86000830184610d69565b92915050565b6000606082019050610ee36000830186610d78565b610ef06020830185610d78565b610efd6040830184610c1a565b949350505050565b6000604051905081810181811067ffffffffffffffff82111715610f2857600080fd5b8060405250919050565b600067ffffffffffffffff821115610f4957600080fd5b602082029050919050565b600067ffffffffffffffff821115610f6b57600080fd5b602082029050919050565b600067ffffffffffffffff821115610f8d57600080fd5b602082029050919050565b6000819050919050565b6000819050919050565b6000819050919050565b600060029050919050565b600060019050919050565b600060029050919050565b6000602082019050919050565b6000602082019050919050565b6000602082019050919050565b600081905092915050565b600081905092915050565b600081905092915050565b600081905092915050565b600082825260208201905092915050565b600061104682611059565b9050919050565b60008115159050919050565b600073ffffffffffffffffffffffffffffffffffffffff82169050919050565b6000819050919050565b600061108e82611079565b9050919050565b61109e8161104d565b81146110a957600080fd5b50565b6110b581611079565b81146110c057600080fd5b5056fea2646970667358221220f1d9fbf724a225626e41f30eb8b10ecc37862ac7a8daf99acbb2afdb16b11c3664736f6c63430006070033",
  "immutableReferences": {},
  "source": "pragma solidity ^0.6.7;\npragma experimental ABIEncoderV2;\n\nimport \"./Verifier.sol\";\nimport \"./Hasher.sol\";\n\ncontract ZKChessCore {\n    uint256\n        public constant FIELD_SIZE = 21888242871839275222246405745257275088548364400416034343698204186575808495617;\n\n    address public adminAddress;\n    bool public paused;\n    bool public DISABLE_ZK_CHECK;\n\n    uint256 pfsVerified;\n\n    constructor(address _adminAddress, bool _disableZKCheck) public {\n        paused = false;\n        DISABLE_ZK_CHECK = _disableZKCheck;\n    }\n\n    //////////////\n    /// EVENTS ///\n    //////////////\n\n    event ProofVerified(uint256 pfsAccepted);\n\n    //////////////////////\n    /// ACCESS CONTROL ///\n    //////////////////////\n\n    modifier onlyAdmin() {\n        require(msg.sender == adminAddress, \"Sender is not a game master\");\n        _;\n    }\n\n    modifier notPaused() {\n        require(!paused, \"Game is paused\");\n        _;\n    }\n\n    /////////////\n    /// Admin ///\n    /////////////\n\n    function pause() public onlyAdmin {\n        require(!paused, \"Game is already paused\");\n        paused = true;\n    }\n\n    function unpause() public onlyAdmin {\n        require(paused, \"Game is already unpaused\");\n        paused = false;\n    }\n\n    //////////////\n    /// Helper ///\n    //////////////\n\n    function hashTriple(\n        uint256 val1,\n        uint256 val2,\n        uint256 val3\n    ) public pure returns (uint256) {\n        uint256 R = 0;\n        uint256 C = 0;\n\n        R = addmod(R, val1, FIELD_SIZE);\n        (R, C) = Hasher.MiMCSponge(R, C, 0);\n        R = addmod(R, val2, FIELD_SIZE);\n        (R, C) = Hasher.MiMCSponge(R, C, 0);\n        R = addmod(R, val3, FIELD_SIZE);\n        (R, C) = Hasher.MiMCSponge(R, C, 0);\n\n        return R;\n    }\n\n    //////////////////////\n    /// Game Mechanics ///\n    //////////////////////\n\n    function checkProof(\n        uint256[2] memory _a,\n        uint256[2][2] memory _b,\n        uint256[2] memory _c,\n        uint256[1] memory _input\n    ) public notPaused returns (bool) {\n        if (!DISABLE_ZK_CHECK) {\n            require(\n                Verifier.verifyMoveProof(_a, _b, _c, _input),\n                \"Failed init proof check\"\n            );\n        }\n        pfsVerified += 1;\n        emit ProofVerified(pfsVerified);\n        return true;\n    }\n}\n",
  "sourcePath": "/Users/bgu/zk-chess/eth/contracts/ZKChessCore.sol",
  "compiler": {
    "name": "solc",
    "version": "0.6.7+commit.b8d736ae.Emscripten.clang"
  },
  "schemaVersion": "3.3.1",
  "updatedAt": "2020-10-27T19:38:00.189Z",
  "devdoc": {
    "methods": {}
  },
  "userdoc": {
    "methods": {
      "checkProof(uint256[2],uint256[2][2],uint256[2],uint256[1])": {
        "notice": "/////////////////// Game Mechanics /// ///////////////////"
      },
      "hashTriple(uint256,uint256,uint256)": {
        "notice": "/////////// Helper /// ///////////"
      },
      "pause()": {
        "notice": "////////// Admin /// //////////"
      }
    }
  }
}