{
  "fileName": "ZKChessCore.sol",
  "contractName": "ZKChessCore",
  "source": "pragma solidity ^0.6.12;\npragma experimental ABIEncoderV2;\n\nimport \"@openzeppelin/contracts-ethereum-package/contracts/Initializable.sol\";\nimport \"./Verifier.sol\";\nimport \"./ZKChessStorage.sol\";\n\n// .______       _______     ___       _______  .___  ___.  _______\n// |   _  \\     |   ____|   /   \\     |       \\ |   \\/   | |   ____|\n// |  |_)  |    |  |__     /  ^  \\    |  .--.  ||  \\  /  | |  |__\n// |      /     |   __|   /  /_\\  \\   |  |  |  ||  |\\/|  | |   __|\n// |  |\\  \\----.|  |____ /  _____  \\  |  '--'  ||  |  |  | |  |____\n// | _| `._____||_______/__/     \\__\\ |_______/ |__|  |__| |_______|\n//\n// READ THIS FIRST BEFORE EDITING ANYTHING IN THIS FILE:\n// https://docs.openzeppelin.com/learn/upgrading-smart-contracts#limitations-of-contract-upgrades\n//\n// DO NOT ADD ANY STORAGE VARIABLES IN THIS FILE\n// IT SHOULD BELONG AT STORAGE CONTRACTS\n// ADDING STORAGE VARIABLES HERE WI LL BLOCK ANY STORAGE CONTRACTS FROM EVER\n// ADDING THEIR OWN VARIABLES EVER AGAIN.\n\ncontract ZKChessCore is Initializable, ZKChessStorage {\n    function initialize(address _adminAddress, bool _disableZKCheck)\n        public\n        initializer\n    {\n        paused = false;\n        DISABLE_ZK_CHECK = _disableZKCheck;\n    }\n\n    //////////////\n    /// EVENTS ///\n    //////////////\n\n    event ProofVerified(uint256 pfsAccepted);\n\n    //////////////////////\n    /// ACCESS CONTROL ///\n    //////////////////////\n\n    modifier onlyAdmin() {\n        require(msg.sender == adminAddress, \"Sender is not a game master\");\n        _;\n    }\n\n    modifier notPaused() {\n        require(!paused, \"Game is paused\");\n        _;\n    }\n\n    /////////////\n    /// Admin ///\n    /////////////\n\n    function pause() public onlyAdmin {\n        require(!paused, \"Game is already paused\");\n        paused = true;\n    }\n\n    function unpause() public onlyAdmin {\n        require(paused, \"Game is already unpaused\");\n        paused = false;\n    }\n\n    //////////////\n    /// Helper ///\n    //////////////\n\n    //////////////////////\n    /// Game Mechanics ///\n    //////////////////////\n\n    function checkProof(\n        uint256[2] memory _a,\n        uint256[2][2] memory _b,\n        uint256[2] memory _c,\n        uint256[1] memory _input\n    ) public notPaused returns (bool) {\n        if (!DISABLE_ZK_CHECK) {\n            require(\n                Verifier.verifyMoveProof(_a, _b, _c, _input),\n                \"Failed init proof check\"\n            );\n        }\n        pfsVerified += 1;\n        emit ProofVerified(pfsVerified);\n        return true;\n    }\n}\n",
  "sourcePath": "contracts/ZKChessCore.sol",
  "abi": [
    {
      "anonymous": false,
      "inputs": [
        {
          "indexed": false,
          "internalType": "uint256",
          "name": "pfsAccepted",
          "type": "uint256"
        }
      ],
      "name": "ProofVerified",
      "type": "event"
    },
    {
      "inputs": [],
      "name": "DISABLE_ZK_CHECK",
      "outputs": [
        {
          "internalType": "bool",
          "name": "",
          "type": "bool"
        }
      ],
      "stateMutability": "view",
      "type": "function"
    },
    {
      "inputs": [],
      "name": "adminAddress",
      "outputs": [
        {
          "internalType": "address",
          "name": "",
          "type": "address"
        }
      ],
      "stateMutability": "view",
      "type": "function"
    },
    {
      "inputs": [
        {
          "internalType": "uint256[2]",
          "name": "_a",
          "type": "uint256[2]"
        },
        {
          "internalType": "uint256[2][2]",
          "name": "_b",
          "type": "uint256[2][2]"
        },
        {
          "internalType": "uint256[2]",
          "name": "_c",
          "type": "uint256[2]"
        },
        {
          "internalType": "uint256[1]",
          "name": "_input",
          "type": "uint256[1]"
        }
      ],
      "name": "checkProof",
      "outputs": [
        {
          "internalType": "bool",
          "name": "",
          "type": "bool"
        }
      ],
      "stateMutability": "nonpayable",
      "type": "function"
    },
    {
      "inputs": [
        {
          "internalType": "address",
          "name": "_adminAddress",
          "type": "address"
        },
        {
          "internalType": "bool",
          "name": "_disableZKCheck",
          "type": "bool"
        }
      ],
      "name": "initialize",
      "outputs": [],
      "stateMutability": "nonpayable",
      "type": "function"
    },
    {
      "inputs": [],
      "name": "pause",
      "outputs": [],
      "stateMutability": "nonpayable",
      "type": "function"
    },
    {
      "inputs": [],
      "name": "paused",
      "outputs": [
        {
          "internalType": "bool",
          "name": "",
          "type": "bool"
        }
      ],
      "stateMutability": "view",
      "type": "function"
    },
    {
      "inputs": [],
      "name": "unpause",
      "outputs": [],
      "stateMutability": "nonpayable",
      "type": "function"
    }
  ],
  "bytecode": "0x608060405234801561001057600080fd5b50610850806100206000396000f3fe608060405234801561001057600080fd5b506004361061007d5760003560e01c806373d643da1161005b57806373d643da146100bd5780638456cb59146100d05780638af9d562146100d8578063fc6f9468146100e05761007d565b80633f4ba83a14610082578063400ada751461008c5780635c975abb1461009f575b600080fd5b61008a6100f5565b005b61008a61009a36600461047f565b610160565b6100a76101fd565b6040516100b49190610666565b60405180910390f35b6100a76100cb3660046104c2565b61020d565b61008a610340565b6100a76103a9565b6100e86103b9565b6040516100b491906105d2565b6033546001600160a01b031633146101285760405162461bcd60e51b815260040161011f90610671565b60405180910390fd5b603354600160a01b900460ff166101515760405162461bcd60e51b815260040161011f90610755565b6033805460ff60a01b19169055565b600054610100900460ff168061017957506101796103c8565b80610187575060005460ff16155b6101a35760405162461bcd60e51b815260040161011f906106df565b600054610100900460ff161580156101ce576000805460ff1961ff0019909116610100171660011790555b6033805461ffff60a01b1916600160a81b8415150217905580156101f8576000805461ff00191690555b505050565b603354600160a01b900460ff1681565b603354600090600160a01b900460ff161561023a5760405162461bcd60e51b815260040161011f9061072d565b603354600160a81b900460ff166102f457604051632b1c3fff60e11b815273__Verifier______________________________906356387ffe906102889088908890889088906004016105e6565b60206040518083038186803b1580156102a057600080fd5b505af41580156102b4573d6000803e3d6000fd5b505050506040513d601f19601f820116820180604052508101906102d89190610572565b6102f45760405162461bcd60e51b815260040161011f906106a8565b60348054600101908190556040517f4eb5ee08f6bd1352ed7b0dac0ee5e5b7cb984b0477d694d9db613b705f47f2ab9161032d916107bc565b60405180910390a1506001949350505050565b6033546001600160a01b0316331461036a5760405162461bcd60e51b815260040161011f90610671565b603354600160a01b900460ff16156103945760405162461bcd60e51b815260040161011f9061078c565b6033805460ff60a01b1916600160a01b179055565b603354600160a81b900460ff1681565b6033546001600160a01b031681565b303b1590565b600082601f8301126103de578081fd5b60206103e9816107c5565b915081838583860111156103fc57600080fd5b60005b600181101561041c578135835291830191908301906001016103ff565b5050505092915050565b600082601f830112610436578081fd5b61044060406107c5565b905080828460408501111561045457600080fd5b60005b6002811015610476578135835260209283019290910190600101610457565b50505092915050565b60008060408385031215610491578182fd5b82356001600160a01b03811681146104a7578283fd5b915060208301356104b781610809565b809150509250929050565b60008060008061012085870312156104d8578182fd5b6104e28686610426565b9350604086605f8701126104f4578283fd5b6002610507610502826107ec565b6107c5565b8083890160c08a018b81111561051b578788fd5b875b858110156105435761052f8d84610426565b85526020909401939186019160010161051d565b508298506105518c82610426565b97505050505050506105678661010087016103ce565b905092959194509250565b600060208284031215610583578081fd5b815161058e81610809565b9392505050565b60006105a183836105a9565b505060400190565b8060005b60028110156105cc5781518452602093840193909101906001016105ad565b50505050565b6001600160a01b0391909116815260200190565b61012081016105f582876105a9565b604082018560005b600281101561062257610611838351610595565b9250602091909101906001016105fd565b50505061063260c08301856105a9565b61010082018360005b600181101561065a57815183526020928301929091019060010161063b565b50505095945050505050565b901515815260200190565b6020808252601b908201527f53656e646572206973206e6f7420612067616d65206d61737465720000000000604082015260600190565b60208082526017908201527f4661696c656420696e69742070726f6f6620636865636b000000000000000000604082015260600190565b6020808252602e908201527f436f6e747261637420696e7374616e63652068617320616c726561647920626560408201526d195b881a5b9a5d1a585b1a5e995960921b606082015260800190565b6020808252600e908201526d11d85b59481a5cc81c185d5cd95960921b604082015260600190565b60208082526018908201527f47616d6520697320616c726561647920756e7061757365640000000000000000604082015260600190565b60208082526016908201527511d85b59481a5cc8185b1c9958591e481c185d5cd95960521b604082015260600190565b90815260200190565b60405181810167ffffffffffffffff811182821017156107e457600080fd5b604052919050565b600067ffffffffffffffff821115610802578081fd5b5060200290565b801515811461081757600080fd5b5056fea2646970667358221220c270a6b9cc54271054bdb53bb7ef834b0635ad1d4a84b40a03e6537250d0675464736f6c634300060c0033",
  "compiler": {
    "name": "solc",
    "version": "0.6.12+commit.27d51765.Emscripten.clang",
    "optimizer": {
      "enabled": true,
      "runs": 200
    },
    "evmVersion": "petersburg"
  }
}