{
  "contractName": "ZKChessGame",
  "abi": [
    {
      "anonymous": false,
      "inputs": [
        {
          "indexed": false,
          "internalType": "uint16",
          "name": "sequenceNumber",
          "type": "uint16"
        },
        {
          "indexed": false,
          "internalType": "uint8",
          "name": "attacker",
          "type": "uint8"
        },
        {
          "indexed": false,
          "internalType": "uint8",
          "name": "attacked",
          "type": "uint8"
        },
        {
          "indexed": false,
          "internalType": "uint8",
          "name": "attackerHp",
          "type": "uint8"
        },
        {
          "indexed": false,
          "internalType": "uint8",
          "name": "attackedHp",
          "type": "uint8"
        }
      ],
      "name": "DidAttack",
      "type": "event"
    },
    {
      "anonymous": false,
      "inputs": [
        {
          "indexed": false,
          "internalType": "address",
          "name": "player",
          "type": "address"
        },
        {
          "indexed": false,
          "internalType": "uint8",
          "name": "turnNumber",
          "type": "uint8"
        },
        {
          "indexed": false,
          "internalType": "uint16",
          "name": "sequenceNumber",
          "type": "uint16"
        }
      ],
      "name": "DidEndTurn",
      "type": "event"
    },
    {
      "anonymous": false,
      "inputs": [
        {
          "indexed": false,
          "internalType": "uint16",
          "name": "sequenceNumber",
          "type": "uint16"
        },
        {
          "indexed": false,
          "internalType": "uint8",
          "name": "pieceId",
          "type": "uint8"
        },
        {
          "indexed": false,
          "internalType": "uint8",
          "name": "fromRow",
          "type": "uint8"
        },
        {
          "indexed": false,
          "internalType": "uint8",
          "name": "fromCol",
          "type": "uint8"
        },
        {
          "indexed": false,
          "internalType": "uint8",
          "name": "toRow",
          "type": "uint8"
        },
        {
          "indexed": false,
          "internalType": "uint8",
          "name": "toCol",
          "type": "uint8"
        }
      ],
      "name": "DidMove",
      "type": "event"
    },
    {
      "anonymous": false,
      "inputs": [
        {
          "indexed": false,
          "internalType": "address",
          "name": "player",
          "type": "address"
        },
        {
          "indexed": false,
          "internalType": "uint8",
          "name": "pieceId",
          "type": "uint8"
        },
        {
          "indexed": false,
          "internalType": "uint16",
          "name": "sequenceNumber",
          "type": "uint16"
        },
        {
          "indexed": false,
          "internalType": "enum PieceType",
          "name": "pieceType",
          "type": "uint8"
        },
        {
          "indexed": false,
          "internalType": "uint8",
          "name": "atRow",
          "type": "uint8"
        },
        {
          "indexed": false,
          "internalType": "uint8",
          "name": "atCol",
          "type": "uint8"
        }
      ],
      "name": "DidSummon",
      "type": "event"
    },
    {
      "anonymous": false,
      "inputs": [],
      "name": "GameFinished",
      "type": "event"
    },
    {
      "anonymous": false,
      "inputs": [
        {
          "indexed": false,
          "internalType": "address",
          "name": "p1",
          "type": "address"
        },
        {
          "indexed": false,
          "internalType": "address",
          "name": "p2",
          "type": "address"
        }
      ],
      "name": "GameStart",
      "type": "event"
    },
    {
      "inputs": [],
      "name": "NCOLS",
      "outputs": [
        {
          "internalType": "uint8",
          "name": "",
          "type": "uint8"
        }
      ],
      "stateMutability": "view",
      "type": "function",
      "constant": true
    },
    {
      "inputs": [],
      "name": "NROWS",
      "outputs": [
        {
          "internalType": "uint8",
          "name": "",
          "type": "uint8"
        }
      ],
      "stateMutability": "view",
      "type": "function",
      "constant": true
    },
    {
      "inputs": [
        {
          "internalType": "uint256",
          "name": "",
          "type": "uint256"
        },
        {
          "internalType": "uint256",
          "name": "",
          "type": "uint256"
        }
      ],
      "name": "boardPieces",
      "outputs": [
        {
          "internalType": "uint8",
          "name": "",
          "type": "uint8"
        }
      ],
      "stateMutability": "view",
      "type": "function",
      "constant": true
    },
    {
      "inputs": [
        {
          "internalType": "enum PieceType",
          "name": "",
          "type": "uint8"
        }
      ],
      "name": "defaultStats",
      "outputs": [
        {
          "internalType": "enum PieceType",
          "name": "pieceType",
          "type": "uint8"
        },
        {
          "internalType": "uint8",
          "name": "mvRange",
          "type": "uint8"
        },
        {
          "internalType": "uint8",
          "name": "atkRange",
          "type": "uint8"
        },
        {
          "internalType": "uint8",
          "name": "hp",
          "type": "uint8"
        },
        {
          "internalType": "uint8",
          "name": "atk",
          "type": "uint8"
        },
        {
          "internalType": "uint8",
          "name": "cost",
          "type": "uint8"
        },
        {
          "internalType": "bool",
          "name": "isZk",
          "type": "bool"
        },
        {
          "internalType": "bool",
          "name": "kamikaze",
          "type": "bool"
        }
      ],
      "stateMutability": "view",
      "type": "function",
      "constant": true
    },
    {
      "inputs": [],
      "name": "gameId",
      "outputs": [
        {
          "internalType": "uint256",
          "name": "",
          "type": "uint256"
        }
      ],
      "stateMutability": "view",
      "type": "function",
      "constant": true
    },
    {
      "inputs": [],
      "name": "gameState",
      "outputs": [
        {
          "internalType": "enum GameState",
          "name": "",
          "type": "uint8"
        }
      ],
      "stateMutability": "view",
      "type": "function",
      "constant": true
    },
    {
      "inputs": [
        {
          "internalType": "uint8",
          "name": "",
          "type": "uint8"
        },
        {
          "internalType": "uint8",
          "name": "",
          "type": "uint8"
        }
      ],
      "name": "hasAttacked",
      "outputs": [
        {
          "internalType": "bool",
          "name": "",
          "type": "bool"
        }
      ],
      "stateMutability": "view",
      "type": "function",
      "constant": true
    },
    {
      "inputs": [
        {
          "internalType": "uint8",
          "name": "",
          "type": "uint8"
        },
        {
          "internalType": "uint8",
          "name": "",
          "type": "uint8"
        }
      ],
      "name": "hasMoved",
      "outputs": [
        {
          "internalType": "bool",
          "name": "",
          "type": "bool"
        }
      ],
      "stateMutability": "view",
      "type": "function",
      "constant": true
    },
    {
      "inputs": [
        {
          "internalType": "uint256",
          "name": "",
          "type": "uint256"
        }
      ],
      "name": "pieceIds",
      "outputs": [
        {
          "internalType": "uint8",
          "name": "",
          "type": "uint8"
        }
      ],
      "stateMutability": "view",
      "type": "function",
      "constant": true
    },
    {
      "inputs": [
        {
          "internalType": "uint8",
          "name": "",
          "type": "uint8"
        }
      ],
      "name": "pieces",
      "outputs": [
        {
          "internalType": "uint8",
          "name": "id",
          "type": "uint8"
        },
        {
          "internalType": "enum PieceType",
          "name": "pieceType",
          "type": "uint8"
        },
        {
          "internalType": "address",
          "name": "owner",
          "type": "address"
        },
        {
          "internalType": "uint8",
          "name": "row",
          "type": "uint8"
        },
        {
          "internalType": "uint8",
          "name": "col",
          "type": "uint8"
        },
        {
          "internalType": "bool",
          "name": "alive",
          "type": "bool"
        },
        {
          "internalType": "bool",
          "name": "initialized",
          "type": "bool"
        },
        {
          "internalType": "uint8",
          "name": "hp",
          "type": "uint8"
        },
        {
          "internalType": "uint8",
          "name": "initializedOnTurn",
          "type": "uint8"
        },
        {
          "internalType": "uint256",
          "name": "commitment",
          "type": "uint256"
        },
        {
          "internalType": "uint8",
          "name": "lastMove",
          "type": "uint8"
        },
        {
          "internalType": "uint8",
          "name": "lastAttack",
          "type": "uint8"
        }
      ],
      "stateMutability": "view",
      "type": "function",
      "constant": true
    },
    {
      "inputs": [],
      "name": "player1",
      "outputs": [
        {
          "internalType": "address",
          "name": "",
          "type": "address"
        }
      ],
      "stateMutability": "view",
      "type": "function",
      "constant": true
    },
    {
      "inputs": [],
      "name": "player1Mana",
      "outputs": [
        {
          "internalType": "uint8",
          "name": "",
          "type": "uint8"
        }
      ],
      "stateMutability": "view",
      "type": "function",
      "constant": true
    },
    {
      "inputs": [],
      "name": "player2",
      "outputs": [
        {
          "internalType": "address",
          "name": "",
          "type": "address"
        }
      ],
      "stateMutability": "view",
      "type": "function",
      "constant": true
    },
    {
      "inputs": [],
      "name": "player2Mana",
      "outputs": [
        {
          "internalType": "uint8",
          "name": "",
          "type": "uint8"
        }
      ],
      "stateMutability": "view",
      "type": "function",
      "constant": true
    },
    {
      "inputs": [],
      "name": "sequenceNumber",
      "outputs": [
        {
          "internalType": "uint16",
          "name": "",
          "type": "uint16"
        }
      ],
      "stateMutability": "view",
      "type": "function",
      "constant": true
    },
    {
      "inputs": [],
      "name": "turnNumber",
      "outputs": [
        {
          "internalType": "uint8",
          "name": "",
          "type": "uint8"
        }
      ],
      "stateMutability": "view",
      "type": "function",
      "constant": true
    },
    {
      "inputs": [
        {
          "internalType": "uint256",
          "name": "_gameId",
          "type": "uint256"
        }
      ],
      "name": "initialize",
      "outputs": [],
      "stateMutability": "nonpayable",
      "type": "function"
    },
    {
      "inputs": [],
      "name": "getPieces",
      "outputs": [
        {
          "components": [
            {
              "internalType": "uint8",
              "name": "id",
              "type": "uint8"
            },
            {
              "internalType": "enum PieceType",
              "name": "pieceType",
              "type": "uint8"
            },
            {
              "internalType": "address",
              "name": "owner",
              "type": "address"
            },
            {
              "internalType": "uint8",
              "name": "row",
              "type": "uint8"
            },
            {
              "internalType": "uint8",
              "name": "col",
              "type": "uint8"
            },
            {
              "internalType": "bool",
              "name": "alive",
              "type": "bool"
            },
            {
              "internalType": "bool",
              "name": "initialized",
              "type": "bool"
            },
            {
              "internalType": "uint8",
              "name": "hp",
              "type": "uint8"
            },
            {
              "internalType": "uint8",
              "name": "initializedOnTurn",
              "type": "uint8"
            },
            {
              "internalType": "uint256",
              "name": "commitment",
              "type": "uint256"
            },
            {
              "internalType": "uint8",
              "name": "lastMove",
              "type": "uint8"
            },
            {
              "internalType": "uint8",
              "name": "lastAttack",
              "type": "uint8"
            }
          ],
          "internalType": "struct Piece[]",
          "name": "ret",
          "type": "tuple[]"
        }
      ],
      "stateMutability": "view",
      "type": "function",
      "constant": true
    },
    {
      "inputs": [],
      "name": "getDefaults",
      "outputs": [
        {
          "components": [
            {
              "internalType": "enum PieceType",
              "name": "pieceType",
              "type": "uint8"
            },
            {
              "internalType": "uint8",
              "name": "mvRange",
              "type": "uint8"
            },
            {
              "internalType": "uint8",
              "name": "atkRange",
              "type": "uint8"
            },
            {
              "internalType": "uint8",
              "name": "hp",
              "type": "uint8"
            },
            {
              "internalType": "uint8",
              "name": "atk",
              "type": "uint8"
            },
            {
              "internalType": "uint8",
              "name": "cost",
              "type": "uint8"
            },
            {
              "internalType": "bool",
              "name": "isZk",
              "type": "bool"
            },
            {
              "internalType": "bool",
              "name": "kamikaze",
              "type": "bool"
            }
          ],
          "internalType": "struct PieceDefaultStats[]",
          "name": "ret",
          "type": "tuple[]"
        }
      ],
      "stateMutability": "view",
      "type": "function",
      "constant": true
    },
    {
      "inputs": [
        {
          "internalType": "uint8",
          "name": "_turnNumber",
          "type": "uint8"
        },
        {
          "internalType": "uint16",
          "name": "_sequenceNumber",
          "type": "uint16"
        }
      ],
      "name": "checkAction",
      "outputs": [
        {
          "internalType": "bool",
          "name": "",
          "type": "bool"
        }
      ],
      "stateMutability": "view",
      "type": "function",
      "constant": true
    },
    {
      "inputs": [],
      "name": "gameShouldBeCompleted",
      "outputs": [
        {
          "internalType": "bool",
          "name": "",
          "type": "bool"
        }
      ],
      "stateMutability": "view",
      "type": "function",
      "constant": true
    },
    {
      "inputs": [],
      "name": "joinGame",
      "outputs": [],
      "stateMutability": "nonpayable",
      "type": "function"
    },
    {
      "inputs": [
        {
          "components": [
            {
              "internalType": "uint8",
              "name": "turnNumber",
              "type": "uint8"
            },
            {
              "internalType": "uint16",
              "name": "sequenceNumber",
              "type": "uint16"
            },
            {
              "internalType": "uint8",
              "name": "pieceId",
              "type": "uint8"
            },
            {
              "internalType": "enum PieceType",
              "name": "pieceType",
              "type": "uint8"
            },
            {
              "internalType": "uint8",
              "name": "row",
              "type": "uint8"
            },
            {
              "internalType": "uint8",
              "name": "col",
              "type": "uint8"
            },
            {
              "components": [
                {
                  "internalType": "uint256[2]",
                  "name": "a",
                  "type": "uint256[2]"
                },
                {
                  "internalType": "uint256[2][2]",
                  "name": "b",
                  "type": "uint256[2][2]"
                },
                {
                  "internalType": "uint256[2]",
                  "name": "c",
                  "type": "uint256[2]"
                },
                {
                  "internalType": "uint256[6]",
                  "name": "input",
                  "type": "uint256[6]"
                }
              ],
              "internalType": "struct SummonZKP",
              "name": "zkp",
              "type": "tuple"
            }
          ],
          "internalType": "struct Summon",
          "name": "summon",
          "type": "tuple"
        }
      ],
      "name": "doSummon",
      "outputs": [],
      "stateMutability": "nonpayable",
      "type": "function"
    },
    {
      "inputs": [
        {
          "components": [
            {
              "internalType": "uint8",
              "name": "turnNumber",
              "type": "uint8"
            },
            {
              "internalType": "uint16",
              "name": "sequenceNumber",
              "type": "uint16"
            },
            {
              "internalType": "uint8",
              "name": "pieceId",
              "type": "uint8"
            },
            {
              "internalType": "uint8[]",
              "name": "moveToRow",
              "type": "uint8[]"
            },
            {
              "internalType": "uint8[]",
              "name": "moveToCol",
              "type": "uint8[]"
            },
            {
              "components": [
                {
                  "internalType": "uint256[2]",
                  "name": "a",
                  "type": "uint256[2]"
                },
                {
                  "internalType": "uint256[2][2]",
                  "name": "b",
                  "type": "uint256[2][2]"
                },
                {
                  "internalType": "uint256[2]",
                  "name": "c",
                  "type": "uint256[2]"
                },
                {
                  "internalType": "uint256[5]",
                  "name": "input",
                  "type": "uint256[5]"
                }
              ],
              "internalType": "struct MoveZKP",
              "name": "zkp",
              "type": "tuple"
            }
          ],
          "internalType": "struct Move",
          "name": "move",
          "type": "tuple"
        }
      ],
      "name": "doMove",
      "outputs": [],
      "stateMutability": "nonpayable",
      "type": "function"
    },
    {
      "inputs": [
        {
          "components": [
            {
              "internalType": "uint8",
              "name": "turnNumber",
              "type": "uint8"
            },
            {
              "internalType": "uint16",
              "name": "sequenceNumber",
              "type": "uint16"
            },
            {
              "internalType": "uint8",
              "name": "pieceId",
              "type": "uint8"
            },
            {
              "internalType": "uint8",
              "name": "attackedId",
              "type": "uint8"
            },
            {
              "components": [
                {
                  "internalType": "uint256[2]",
                  "name": "a",
                  "type": "uint256[2]"
                },
                {
                  "internalType": "uint256[2][2]",
                  "name": "b",
                  "type": "uint256[2][2]"
                },
                {
                  "internalType": "uint256[2]",
                  "name": "c",
                  "type": "uint256[2]"
                },
                {
                  "internalType": "uint256[6]",
                  "name": "input",
                  "type": "uint256[6]"
                }
              ],
              "internalType": "struct AttackZKP",
              "name": "zkp",
              "type": "tuple"
            }
          ],
          "internalType": "struct Attack",
          "name": "attack",
          "type": "tuple"
        }
      ],
      "name": "doAttack",
      "outputs": [],
      "stateMutability": "nonpayable",
      "type": "function"
    },
    {
      "inputs": [
        {
          "internalType": "uint8",
          "name": "_turnNumber",
          "type": "uint8"
        },
        {
          "internalType": "uint8",
          "name": "_sequenceNumber",
          "type": "uint8"
        }
      ],
      "name": "endTurn",
      "outputs": [],
      "stateMutability": "nonpayable",
      "type": "function"
    }
  ],
  "bytecode": "0x608060405234801561001057600080fd5b506158f280620000216000396000f3fe608060405234801561001057600080fd5b506004361061018e5760003560e01c806381cb97ca116100de578063d1f9c24d11610097578063d7c81b5511610071578063d7c81b551461048b578063df54a928146104a9578063e8f5294d146104d9578063fe4b84df146104f55761018e565b8063d1f9c24d14610445578063d30895e414610463578063d4f77b1c146104815761018e565b806381cb97ca1461035d57806385c55ab91461038d578063b172ed4d146103a9578063c0c74a76146103c7578063cf615f6c146103f7578063cfecc6de146104155761018e565b806351df541c1161014b57806359a5f12d1161012557806359a5f12d146102e557806362d9fd871461030357806364ca23ef146103215780637267a3591461033f5761018e565b806351df541c1461028d5780635700401e146102ab57806358f98091146102c95761018e565b806311628abc146101935780632a5102fb146101b15780632c784f32146101cf57806339813cbd1461020a5780633fb7388e14610226578063430632ea14610256575b600080fd5b61019b610511565b6040516101a8919061534a565b60405180910390f35b6101b9610524565b6040516101c6919061534a565b60405180910390f35b6101e960048036038101906101e49190613fd4565b610529565b6040516102019c9b9a99989796959493929190615365565b60405180910390f35b610224600480360381019061021f9190614062565b61062b565b005b610240600480360381019061023b9190613f98565b6108dd565b60405161024d919061534a565b60405180910390f35b610270600480360381019061026b9190613eb1565b610926565b604051610284989796959493929190614ed5565b60405180910390f35b6102956109d6565b6040516102a29190614e9f565b60405180910390f35b6102b3610ab0565b6040516102c0919061534a565b60405180910390f35b6102e360048036038101906102de9190613eda565b610ac3565b005b6102ed610cfb565b6040516102fa9190614cac565b60405180910390f35b61030b610d21565b604051610318919061534a565b60405180910390f35b610329610d26565b6040516103369190615260565b60405180910390f35b610347610d3a565b604051610354919061534a565b60405180910390f35b61037760048036038101906103729190614062565b610d4d565b6040516103849190614e9f565b60405180910390f35b6103a760048036038101906103a29190613f04565b610d7c565b005b6103b16117d7565b6040516103be9190614d88565b60405180910390f35b6103e160048036038101906103dc9190614026565b6119a5565b6040516103ee9190614e9f565b60405180910390f35b6103ff611ab4565b60405161040c9190614daa565b60405180910390f35b61042f600480360381019061042a9190613f6f565b611d35565b60405161043c919061534a565b60405180910390f35b61044d611d66565b60405161045a9190614eba565b60405180910390f35b61046b611d79565b6040516104789190614cac565b60405180910390f35b610489611d9f565b005b6104936127a9565b6040516104a0919061532f565b60405180910390f35b6104c360048036038101906104be9190614062565b6127af565b6040516104d09190614e9f565b60405180910390f35b6104f360048036038101906104ee9190613f45565b6127de565b005b61050f600480360381019061050a9190613f6f565b613554565b005b603a60159054906101000a900460ff1681565b600581565b60376020528060005260406000206000915090508060000160009054906101000a900460ff16908060000160019054906101000a900460ff16908060000160029054906101000a900473ffffffffffffffffffffffffffffffffffffffff16908060000160169054906101000a900460ff16908060000160179054906101000a900460ff16908060000160189054906101000a900460ff16908060000160199054906101000a900460ff169080600001601a9054906101000a900460ff169080600001601b9054906101000a900460ff16908060010154908060020160009054906101000a900460ff16908060020160019054906101000a900460ff1690508c565b610638828260ff166119a5565b50603960009054906101000a900473ffffffffffffffffffffffffffffffffffffffff1673ffffffffffffffffffffffffffffffffffffffff163373ffffffffffffffffffffffffffffffffffffffff161415610736576000603a60146101000a81548160ff021916908360ff160217905550603460009054906101000a900460ff16603a60156101000a81548160ff021916908360ff1602179055506008603a60159054906101000a900460ff1660ff16111561070d576008603a60156101000a81548160ff021916908360ff1602179055505b6002603460036101000a81548160ff0219169083600381111561072c57fe5b021790555061080b565b6034600081819054906101000a900460ff168092919060010191906101000a81548160ff021916908360ff160217905550506000603a60156101000a81548160ff021916908360ff160217905550603460009054906101000a900460ff16603a60146101000a81548160ff021916908360ff1602179055506008603a60149054906101000a900460ff1660ff1611156107e6576008603a60146101000a81548160ff021916908360ff1602179055505b6001603460036101000a81548160ff0219169083600381111561080557fe5b02179055505b7f27e77cb9303b56e18ceb82b3e0df64b35731cea5df6f30547f9fec78b1081bbf33838360405161083e93929190614d28565b60405180910390a16034600181819054906101000a900461ffff168092919060010191906101000a81548161ffff021916908361ffff160217905550506108836109d6565b156108d9576003603460036101000a81548160ff021916908360038111156108a757fe5b02179055507fb537cbcadc098cfedf5a04ef7e68a8554b55f7e45bfdaca1cbc51a686ef65f4860405160405180910390a15b5050565b603582815481106108ea57fe5b9060005260206000200181815481106108ff57fe5b9060005260206000209060209182820401919006915091509054906101000a900460ff1681565b60386020528060005260406000206000915090508060000160009054906101000a900460ff16908060000160019054906101000a900460ff16908060000160029054906101000a900460ff16908060000160039054906101000a900460ff16908060000160049054906101000a900460ff16908060000160059054906101000a900460ff16908060000160069054906101000a900460ff16908060000160079054906101000a900460ff16905088565b600073__ZKChessUtils__________________________63e382904460366037603960009054906101000a900473ffffffffffffffffffffffffffffffffffffffff16603a60009054906101000a900473ffffffffffffffffffffffffffffffffffffffff166040518563ffffffff1660e01b8152600401610a5b9493929190614e5a565b60206040518083038186803b158015610a7357600080fd5b505af4158015610a87573d6000803e3d6000fd5b505050506040513d601f19601f82011682018060405250810190610aab9190613e88565b905090565b603460009054906101000a900460ff1681565b610ad5816000015182602001516119a5565b5073__ZKChessUtils__________________________6369fe0a208260376038603c600560076040518763ffffffff1660e01b8152600401610b1c96959493929190615166565b60206040518083038186803b158015610b3457600080fd5b505af4158015610b48573d6000803e3d6000fd5b505050506040513d601f19601f82011682018060405250810190610b6c9190613e88565b610bab576040517f08c379a0000000000000000000000000000000000000000000000000000000008152600401610ba29061504e565b60405180910390fd5b73__ZKChessUtils__________________________6317a5da6382603760356038603c6040518663ffffffff1660e01b8152600401610bee95949392919061510e565b60006040518083038186803b158015610c0657600080fd5b505af4158015610c1a573d6000803e3d6000fd5b505050507f26b1bbbf4d915af107239a76abff01456db75ac5dd5aafafd4b3d1286060734681602001518260400151836060015160376000866040015160ff1660ff168152602001908152602001600020600001601a9054906101000a900460ff1660376000876060015160ff1660ff168152602001908152602001600020600001601a9054906101000a900460ff16604051610cbb95949392919061527b565b60405180910390a16034600181819054906101000a900461ffff168092919060010191906101000a81548161ffff021916908361ffff1602179055505050565b603a60009054906101000a900473ffffffffffffffffffffffffffffffffffffffff1681565b600781565b603460019054906101000a900461ffff1681565b603a60149054906101000a900460ff1681565b603c6020528160005260406000206020528060005260406000206000915091509054906101000a900460ff1681565b610d8e816000015182602001516119a5565b50600060376000836040015160ff1660ff16815260200190815260200160002090503373ffffffffffffffffffffffffffffffffffffffff168160000160029054906101000a900473ffffffffffffffffffffffffffffffffffffffff1673ffffffffffffffffffffffffffffffffffffffff16148015610e605750600073ffffffffffffffffffffffffffffffffffffffff168160000160029054906101000a900473ffffffffffffffffffffffffffffffffffffffff1673ffffffffffffffffffffffffffffffffffffffff1614155b610e9f576040517f08c379a0000000000000000000000000000000000000000000000000000000008152600401610e969061506e565b60405180910390fd5b8060000160189054906101000a900460ff16610ef0576040517f08c379a0000000000000000000000000000000000000000000000000000000008152600401610ee79061508e565b60405180910390fd5b603b6000836000015160ff1660ff16815260200190815260200160002060008260000160009054906101000a900460ff1660ff1660ff16815260200190815260200160002060009054906101000a900460ff1615610f83576040517f08c379a0000000000000000000000000000000000000000000000000000000008152600401610f7a906150ae565b60405180910390fd5b603c6000836000015160ff1660ff16815260200190815260200160002060008260000160009054906101000a900460ff1660ff1660ff16815260200190815260200160002060009054906101000a900460ff1615611016576040517f08c379a000000000000000000000000000000000000000000000000000000000815260040161100d90614fee565b60405180910390fd5b60008160000160169054906101000a900460ff16905060008260000160179054906101000a900460ff169050603860008460000160019054906101000a900460ff16600581111561106357fe5b600581111561106e57fe5b815260200190815260200160002060000160069054906101000a900460ff161561136b578360a00151606001516000600581106110a757fe5b60200201518360010154146110f1576040517f08c379a00000000000000000000000000000000000000000000000000000000081526004016110e890614f8e565b60405180910390fd5b600560ff168460a001516060015160036005811061110b57fe5b602002015114611150576040517f08c379a000000000000000000000000000000000000000000000000000000000815260040161114790614f8e565b60405180910390fd5b600760ff168460a001516060015160046005811061116a57fe5b6020020151146111af576040517f08c379a00000000000000000000000000000000000000000000000000000000081526004016111a690614f8e565b60405180910390fd5b603860008460000160019054906101000a900460ff1660058111156111d057fe5b60058111156111db57fe5b815260200190815260200160002060000160019054906101000a900460ff1660ff168460a001516060015160026005811061121257fe5b60200201511115611258576040517f08c379a000000000000000000000000000000000000000000000000000000000815260040161124f90614f8e565b60405180910390fd5b73__Verifier______________________________632a2e4e448560a00151600001518660a00151602001518760a00151604001518860a00151606001516040518563ffffffff1660e01b81526004016112b59493929190614dcc565b60206040518083038186803b1580156112cd57600080fd5b505af41580156112e1573d6000803e3d6000fd5b505050506040513d601f19601f820116820180604052508101906113059190613e88565b611344576040517f08c379a000000000000000000000000000000000000000000000000000000000815260040161133b90614f8e565b60405180910390fd5b8360a001516060015160016005811061135957fe5b602002015183600101819055506116b2565b60608460600151905060608560800151905061152285604051806101800160405290816000820160009054906101000a900460ff1660ff1660ff1681526020016000820160019054906101000a900460ff1660058111156113c857fe5b60058111156113d357fe5b81526020016000820160029054906101000a900473ffffffffffffffffffffffffffffffffffffffff1673ffffffffffffffffffffffffffffffffffffffff1673ffffffffffffffffffffffffffffffffffffffff1681526020016000820160169054906101000a900460ff1660ff1660ff1681526020016000820160179054906101000a900460ff1660ff1660ff1681526020016000820160189054906101000a900460ff161515151581526020016000820160199054906101000a900460ff1615151515815260200160008201601a9054906101000a900460ff1660ff1660ff16815260200160008201601b9054906101000a900460ff1660ff1660ff168152602001600182015481526020016002820160009054906101000a900460ff1660ff1660ff1681526020016002820160019054906101000a900460ff1660ff1660ff168152505083836136ab565b611561576040517f08c379a000000000000000000000000000000000000000000000000000000000815260040161155890614fce565b60405180910390fd5b60008260018451038151811061157357fe5b6020026020010151905060008260018451038151811061158f57fe5b60200260200101519050600060358860000160169054906101000a900460ff1660ff16815481106115bc57fe5b906000526020600020018860000160179054906101000a900460ff1660ff16815481106115e557fe5b90600052602060002090602091828204019190066101000a81548160ff021916908360ff1602179055508660000160009054906101000a900460ff1660358360ff168154811061163157fe5b906000526020600020018260ff168154811061164957fe5b90600052602060002090602091828204019190066101000a81548160ff021916908360ff160217905550818760000160166101000a81548160ff021916908360ff160217905550808760000160176101000a81548160ff021916908360ff160217905550505050505b6001603b6000866000015160ff1660ff16815260200190815260200160002060008560000160009054906101000a900460ff1660ff1660ff16815260200190815260200160002060006101000a81548160ff02191690831515021790555083600001518360020160006101000a81548160ff021916908360ff1602179055507f7e2f4aae474473f9e261f72d50b4f8aaabb3f5380276750de70e0121b377fac68460200151856040015184848760000160169054906101000a900460ff168860000160179054906101000a900460ff16604051611794969594939291906152ce565b60405180910390a16034600181819054906101000a900461ffff168092919060010191906101000a81548161ffff021916908361ffff1602179055505050505050565b6060600667ffffffffffffffff811180156117f157600080fd5b5060405190808252806020026020018201604052801561182b57816020015b611818613750565b8152602001906001900390816118105790505b50905060008090505b60068160ff16101561199e57603860008260ff16600581111561185357fe5b600581111561185e57fe5b600581111561186957fe5b8152602001908152602001600020604051806101000160405290816000820160009054906101000a900460ff1660058111156118a157fe5b60058111156118ac57fe5b81526020016000820160019054906101000a900460ff1660ff1660ff1681526020016000820160029054906101000a900460ff1660ff1660ff1681526020016000820160039054906101000a900460ff1660ff1660ff1681526020016000820160049054906101000a900460ff1660ff1660ff1681526020016000820160059054906101000a900460ff1660ff1660ff1681526020016000820160069054906101000a900460ff161515151581526020016000820160079054906101000a900460ff161515151581525050828260ff168151811061198657fe5b60200260200101819052508080600101915050611834565b5080905090565b600073__ZKChessUtils__________________________63bbca541f84603460009054906101000a900460ff1685603460019054906101000a900461ffff16603960009054906101000a900473ffffffffffffffffffffffffffffffffffffffff16603a60009054906101000a900473ffffffffffffffffffffffffffffffffffffffff16603460039054906101000a900460ff166040518863ffffffff1660e01b8152600401611a5c979695949392919061541f565b60206040518083038186803b158015611a7457600080fd5b505af4158015611a88573d6000803e3d6000fd5b505050506040513d601f19601f82011682018060405250810190611aac9190613e88565b905092915050565b606060368054905067ffffffffffffffff81118015611ad257600080fd5b50604051908082528060200260200182016040528015611b0c57816020015b611af96137b3565b815260200190600190039081611af15790505b50905060008090505b6036805490508160ff161015611d2e576037600060368360ff1681548110611b3957fe5b90600052602060002090602091828204019190069054906101000a900460ff1660ff1660ff168152602001908152602001600020604051806101800160405290816000820160009054906101000a900460ff1660ff1660ff1681526020016000820160019054906101000a900460ff166005811115611bb457fe5b6005811115611bbf57fe5b81526020016000820160029054906101000a900473ffffffffffffffffffffffffffffffffffffffff1673ffffffffffffffffffffffffffffffffffffffff1673ffffffffffffffffffffffffffffffffffffffff1681526020016000820160169054906101000a900460ff1660ff1660ff1681526020016000820160179054906101000a900460ff1660ff1660ff1681526020016000820160189054906101000a900460ff161515151581526020016000820160199054906101000a900460ff1615151515815260200160008201601a9054906101000a900460ff1660ff1660ff16815260200160008201601b9054906101000a900460ff1660ff1660ff168152602001600182015481526020016002820160009054906101000a900460ff1660ff1660ff1681526020016002820160019054906101000a900460ff1660ff1660ff1681525050828260ff1681518110611d1657fe5b60200260200101819052508080600101915050611b15565b5080905090565b60368181548110611d4257fe5b9060005260206000209060209182820401919006915054906101000a900460ff1681565b603460039054906101000a900460ff1681565b603960009054906101000a900473ffffffffffffffffffffffffffffffffffffffff1681565b60006003811115611dac57fe5b603460039054906101000a900460ff166003811115611dc757fe5b14611e07576040517f08c379a0000000000000000000000000000000000000000000000000000000008152600401611dfe906150ee565b60405180910390fd5b600073ffffffffffffffffffffffffffffffffffffffff16603960009054906101000a900473ffffffffffffffffffffffffffffffffffffffff1673ffffffffffffffffffffffffffffffffffffffff161415611ea45733603960006101000a81548173ffffffffffffffffffffffffffffffffffffffff021916908373ffffffffffffffffffffffffffffffffffffffff1602179055506127a7565b603960009054906101000a900473ffffffffffffffffffffffffffffffffffffffff1673ffffffffffffffffffffffffffffffffffffffff163373ffffffffffffffffffffffffffffffffffffffff161415611f35576040517f08c379a0000000000000000000000000000000000000000000000000000000008152600401611f2c90614fae565b60405180910390fd5b600060024281611f4157fe5b061415611f8e5733603a60006101000a81548173ffffffffffffffffffffffffffffffffffffffff021916908373ffffffffffffffffffffffffffffffffffffffff160217905550612033565b603960009054906101000a900473ffffffffffffffffffffffffffffffffffffffff16603a60006101000a81548173ffffffffffffffffffffffffffffffffffffffff021916908373ffffffffffffffffffffffffffffffffffffffff16021790555033603960006101000a81548173ffffffffffffffffffffffffffffffffffffffff021916908373ffffffffffffffffffffffffffffffffffffffff1602179055505b604051806101800160405280600160ff1681526020016000600581111561205657fe5b8152602001603960009054906101000a900473ffffffffffffffffffffffffffffffffffffffff1673ffffffffffffffffffffffffffffffffffffffff168152602001600260ff168152602001600060ff168152602001600115158152602001600115158152602001603860008060058111156120cf57fe5b60058111156120da57fe5b815260200190815260200160002060000160039054906101000a900460ff1660ff168152602001600060ff16815260200160008152602001600060ff168152602001600060ff1681525060376000600160ff16815260200190815260200160002060008201518160000160006101000a81548160ff021916908360ff16021790555060208201518160000160016101000a81548160ff0219169083600581111561218057fe5b021790555060408201518160000160026101000a81548173ffffffffffffffffffffffffffffffffffffffff021916908373ffffffffffffffffffffffffffffffffffffffff16021790555060608201518160000160166101000a81548160ff021916908360ff16021790555060808201518160000160176101000a81548160ff021916908360ff16021790555060a08201518160000160186101000a81548160ff02191690831515021790555060c08201518160000160196101000a81548160ff02191690831515021790555060e082015181600001601a6101000a81548160ff021916908360ff16021790555061010082015181600001601b6101000a81548160ff021916908360ff16021790555061012082015181600101556101408201518160020160006101000a81548160ff021916908360ff1602179055506101608201518160020160016101000a81548160ff021916908360ff1602179055509050506036600190806001815401808255809150506001900390600052602060002090602091828204019190069091909190916101000a81548160ff021916908360ff1602179055506001603560028154811061233957fe5b9060005260206000200160008154811061234f57fe5b90600052602060002090602091828204019190066101000a81548160ff021916908360ff160217905550604051806101800160405280600260ff1681526020016000600581111561239c57fe5b8152602001603a60009054906101000a900473ffffffffffffffffffffffffffffffffffffffff1673ffffffffffffffffffffffffffffffffffffffff168152602001600260ff168152602001600660ff1681526020016001151581526020016001151581526020016038600080600581111561241557fe5b600581111561242057fe5b815260200190815260200160002060000160039054906101000a900460ff1660ff168152602001600060ff16815260200160008152602001600060ff168152602001600060ff1681525060376000600260ff16815260200190815260200160002060008201518160000160006101000a81548160ff021916908360ff16021790555060208201518160000160016101000a81548160ff021916908360058111156124c657fe5b021790555060408201518160000160026101000a81548173ffffffffffffffffffffffffffffffffffffffff021916908373ffffffffffffffffffffffffffffffffffffffff16021790555060608201518160000160166101000a81548160ff021916908360ff16021790555060808201518160000160176101000a81548160ff021916908360ff16021790555060a08201518160000160186101000a81548160ff02191690831515021790555060c08201518160000160196101000a81548160ff02191690831515021790555060e082015181600001601a6101000a81548160ff021916908360ff16021790555061010082015181600001601b6101000a81548160ff021916908360ff16021790555061012082015181600101556101408201518160020160006101000a81548160ff021916908360ff1602179055506101608201518160020160016101000a81548160ff021916908360ff1602179055509050506036600290806001815401808255809150506001900390600052602060002090602091828204019190069091909190916101000a81548160ff021916908360ff1602179055506002603560028154811061267f57fe5b9060005260206000200160068154811061269557fe5b90600052602060002090602091828204019190066101000a81548160ff021916908360ff1602179055506001603460036101000a81548160ff021916908360038111156126de57fe5b02179055506001603460006101000a81548160ff021916908360ff160217905550603460009054906101000a900460ff16603a60146101000a81548160ff021916908360ff1602179055507f8fd707874eb940598510258c64cad23fd35fe8c85c5c38e8782fac2cc887fb6e603960009054906101000a900473ffffffffffffffffffffffffffffffffffffffff16603a60009054906101000a900473ffffffffffffffffffffffffffffffffffffffff1660405161279e929190614d5f565b60405180910390a15b565b60335481565b603b6020528160005260406000206020528060005260406000206000915091509054906101000a900460ff1681565b6127f0816000015182602001516119a5565b5060376000826040015160ff1660ff16815260200190815260200160002060000160199054906101000a900460ff161561285f576040517f08c379a00000000000000000000000000000000000000000000000000000000081526004016128569061500e565b60405180910390fd5b600080603960009054906101000a900473ffffffffffffffffffffffffffffffffffffffff1673ffffffffffffffffffffffffffffffffffffffff163373ffffffffffffffffffffffffffffffffffffffff1614156129115760376000600160ff16815260200190815260200160002060000160169054906101000a900460ff16915060376000600160ff16815260200190815260200160002060000160179054906101000a900460ff169050612966565b60376000600260ff16815260200190815260200160002060000160169054906101000a900460ff16915060376000600260ff16815260200190815260200160002060000160179054906101000a900460ff1690505b603960009054906101000a900473ffffffffffffffffffffffffffffffffffffffff1673ffffffffffffffffffffffffffffffffffffffff163373ffffffffffffffffffffffffffffffffffffffff161415612ac05760386000846060015160058111156129d057fe5b60058111156129db57fe5b815260200190815260200160002060000160059054906101000a900460ff1660ff16603a60149054906101000a900460ff1660ff161015612a51576040517f08c379a0000000000000000000000000000000000000000000000000000000008152600401612a4890614f6e565b60405180910390fd5b6038600084606001516005811115612a6557fe5b6005811115612a7057fe5b815260200190815260200160002060000160059054906101000a900460ff16603a60148282829054906101000a900460ff160392506101000a81548160ff021916908360ff160217905550612bc0565b6038600084606001516005811115612ad457fe5b6005811115612adf57fe5b815260200190815260200160002060000160059054906101000a900460ff1660ff16603a60159054906101000a900460ff1660ff161015612b55576040517f08c379a0000000000000000000000000000000000000000000000000000000008152600401612b4c90614f6e565b60405180910390fd5b6038600084606001516005811115612b6957fe5b6005811115612b7457fe5b815260200190815260200160002060000160059054906101000a900460ff16603a60158282829054906101000a900460ff160392506101000a81548160ff021916908360ff1602179055505b6038600084606001516005811115612bd457fe5b6005811115612bdf57fe5b815260200190815260200160002060000160069054906101000a900460ff16612e0957600560ff16836080015160ff16108015612c265750600760ff168360a0015160ff16105b612c65576040517f08c379a0000000000000000000000000000000000000000000000000000000008152600401612c5c9061502e565b60405180910390fd5b60006035846080015160ff1681548110612c7b57fe5b906000526020600020018460a0015160ff1681548110612c9757fe5b90600052602060002090602091828204019190069054906101000a900460ff1690506000603760008360ff1660ff16815260200190815260200160002090508060000160189054906101000a900460ff1615612d28576040517f08c379a0000000000000000000000000000000000000000000000000000000008152600401612d1f906150ce565b60405180910390fd5b600173__ZKChessUtils__________________________632542841a87608001518860a0015188886040518563ffffffff1660e01b8152600401612d6f949392919061548e565b60206040518083038186803b158015612d8757600080fd5b505af4158015612d9b573d6000803e3d6000fd5b505050506040513d601f19601f82011682018060405250810190612dbf9190613ffd565b60ff1614612e02576040517f08c379a0000000000000000000000000000000000000000000000000000000008152600401612df9906150ce565b60405180910390fd5b5050613095565b8160ff168360c0015160600151600160068110612e2257fe5b6020020151148015612e4f57508060ff168360c0015160600151600260068110612e4857fe5b6020020151145b612e8e576040517f08c379a0000000000000000000000000000000000000000000000000000000008152600401612e8590614f8e565b60405180910390fd5b60018360c0015160600151600360068110612ea557fe5b602002015114612eea576040517f08c379a0000000000000000000000000000000000000000000000000000000008152600401612ee190614f8e565b60405180910390fd5b600560ff168360c0015160600151600460068110612f0457fe5b602002015114612f49576040517f08c379a0000000000000000000000000000000000000000000000000000000008152600401612f4090614f8e565b60405180910390fd5b600760ff168360c0015160600151600560068110612f6357fe5b602002015114612fa8576040517f08c379a0000000000000000000000000000000000000000000000000000000008152600401612f9f90614f8e565b60405180910390fd5b73__Verifier______________________________6395eb76fc8460c00151600001518560c00151602001518660c00151604001518760c00151606001516040518563ffffffff1660e01b81526004016130059493929190614e13565b60206040518083038186803b15801561301d57600080fd5b505af4158015613031573d6000803e3d6000fd5b505050506040513d601f19601f820116820180604052508101906130559190613e88565b613094576040517f08c379a000000000000000000000000000000000000000000000000000000000815260040161308b90614f8e565b60405180910390fd5b5b604051806101800160405280846040015160ff168152602001846060015160058111156130be57fe5b81526020013373ffffffffffffffffffffffffffffffffffffffff168152602001846080015160ff1681526020018460a0015160ff168152602001600115158152602001600115158152602001603860008660600151600581111561311f57fe5b600581111561312a57fe5b815260200190815260200160002060000160039054906101000a900460ff1660ff168152602001603460009054906101000a900460ff1660ff1681526020018460c001516060015160006006811061317e57fe5b60200201518152602001603460009054906101000a900460ff1660ff168152602001603460009054906101000a900460ff1660ff1681525060376000856040015160ff1660ff16815260200190815260200160002060008201518160000160006101000a81548160ff021916908360ff16021790555060208201518160000160016101000a81548160ff0219169083600581111561321857fe5b021790555060408201518160000160026101000a81548173ffffffffffffffffffffffffffffffffffffffff021916908373ffffffffffffffffffffffffffffffffffffffff16021790555060608201518160000160166101000a81548160ff021916908360ff16021790555060808201518160000160176101000a81548160ff021916908360ff16021790555060a08201518160000160186101000a81548160ff02191690831515021790555060c08201518160000160196101000a81548160ff02191690831515021790555060e082015181600001601a6101000a81548160ff021916908360ff16021790555061010082015181600001601b6101000a81548160ff021916908360ff16021790555061012082015181600101556101408201518160020160006101000a81548160ff021916908360ff1602179055506101608201518160020160016101000a81548160ff021916908360ff1602179055509050506036836040015190806001815401808255809150506001900390600052602060002090602091828204019190069091909190916101000a81548160ff021916908360ff16021790555082604001516035846080015160ff16815481106133dd57fe5b906000526020600020018460a0015160ff16815481106133f957fe5b90600052602060002090602091828204019190066101000a81548160ff021916908360ff1602179055506001603b6000856000015160ff1660ff1681526020019081526020016000206000856040015160ff1660ff16815260200190815260200160002060006101000a81548160ff0219169083151502179055506001603c6000856000015160ff1660ff1681526020019081526020016000206000856040015160ff1660ff16815260200190815260200160002060006101000a81548160ff0219169083151502179055507f0c028d8e3094b70fecb63c902612f5b21d26edfeea4f8ec3f69b411d1d50f20d3384604001518560200151866060015187608001518860a0015160405161351296959493929190614cc7565b60405180910390a16034600181819054906101000a900461ffff168092919060010191906101000a81548161ffff021916908361ffff16021790555050505050565b806033819055506000603460036101000a81548160ff0219169083600381111561357a57fe5b021790555060008090505b600560ff168160ff16101561363f57603560018160018154018082558091505003906000526020600020505060008090505b600760ff168160ff1610156136315760358260ff16815481106135d657fe5b90600052602060002001600090806001815401808255809150506001900390600052602060002090602091828204019190069091909190916101000a81548160ff021916908360ff16021790555080806001019150506135b7565b508080600101915050613585565b5073__ZKChessUtils__________________________63df9f019560386040518263ffffffff1660e01b81526004016136789190614f53565b60006040518083038186803b15801561369057600080fd5b505af41580156136a4573d6000803e3d6000fd5b5050505050565b600073__ZKChessUtils__________________________6351f4a33f858585603560376038600560076040518963ffffffff1660e01b81526004016136f79897969594939291906151cd565b60206040518083038186803b15801561370f57600080fd5b505af4158015613723573d6000803e3d6000fd5b505050506040513d601f19601f820116820180604052508101906137479190613e88565b90509392505050565b6040518061010001604052806000600581111561376957fe5b8152602001600060ff168152602001600060ff168152602001600060ff168152602001600060ff168152602001600060ff1681526020016000151581526020016000151581525090565b604051806101800160405280600060ff168152602001600060058111156137d657fe5b8152602001600073ffffffffffffffffffffffffffffffffffffffff168152602001600060ff168152602001600060ff168152602001600015158152602001600015158152602001600060ff168152602001600060ff16815260200160008152602001600060ff168152602001600060ff1681525090565b600082601f83011261385f57600080fd5b600261387261386d82615500565b6154d3565b9150818385604084028201111561388857600080fd5b60005b838110156138b8578161389e88826138c2565b84526020840193506040830192505060018101905061388b565b5050505092915050565b600082601f8301126138d357600080fd5b60026138e66138e182615522565b6154d3565b915081838560208402820111156138fc57600080fd5b60005b8381101561392c57816139128882613e49565b8452602084019350602083019250506001810190506138ff565b5050505092915050565b600082601f83011261394757600080fd5b600561395a61395582615544565b6154d3565b9150818385602084028201111561397057600080fd5b60005b838110156139a057816139868882613e49565b845260208401935060208301925050600181019050613973565b5050505092915050565b600082601f8301126139bb57600080fd5b60066139ce6139c982615566565b6154d3565b915081838560208402820111156139e457600080fd5b60005b83811015613a1457816139fa8882613e49565b8452602084019350602083019250506001810190506139e7565b5050505092915050565b600082601f830112613a2f57600080fd5b8135613a42613a3d82615588565b6154d3565b91508181835260208401935060208101905083856020840282011115613a6757600080fd5b60005b83811015613a975781613a7d8882613e5e565b845260208401935060208301925050600181019050613a6a565b5050505092915050565b600081519050613ab081615850565b92915050565b600081359050613ac581615867565b92915050565b60006101c08284031215613ade57600080fd5b613ae860806154d3565b90506000613af8848285016138c2565b6000830152506040613b0c8482850161384e565b60208301525060c0613b20848285016138c2565b604083015250610100613b35848285016139aa565b60608301525092915050565b60006102408284031215613b5457600080fd5b613b5e60a06154d3565b90506000613b6e84828501613e5e565b6000830152506020613b8284828501613e34565b6020830152506040613b9684828501613e5e565b6040830152506060613baa84828501613e5e565b6060830152506080613bbe84828501613acb565b60808301525092915050565b60006101a08284031215613bdd57600080fd5b613be760806154d3565b90506000613bf7848285016138c2565b6000830152506040613c0b8482850161384e565b60208301525060c0613c1f848285016138c2565b604083015250610100613c3484828501613936565b60608301525092915050565b60006102408284031215613c5357600080fd5b613c5d60c06154d3565b90506000613c6d84828501613e5e565b6000830152506020613c8184828501613e34565b6020830152506040613c9584828501613e5e565b604083015250606082013567ffffffffffffffff811115613cb557600080fd5b613cc184828501613a1e565b606083015250608082013567ffffffffffffffff811115613ce157600080fd5b613ced84828501613a1e565b60808301525060a0613d0184828501613bca565b60a08301525092915050565b60006101c08284031215613d2057600080fd5b613d2a60806154d3565b90506000613d3a848285016138c2565b6000830152506040613d4e8482850161384e565b60208301525060c0613d62848285016138c2565b604083015250610100613d77848285016139aa565b60608301525092915050565b60006102808284031215613d9657600080fd5b613da060e06154d3565b90506000613db084828501613e5e565b6000830152506020613dc484828501613e34565b6020830152506040613dd884828501613e5e565b6040830152506060613dec84828501613ab6565b6060830152506080613e0084828501613e5e565b60808301525060a0613e1484828501613e5e565b60a08301525060c0613e2884828501613d0d565b60c08301525092915050565b600081359050613e4381615877565b92915050565b600081359050613e588161588e565b92915050565b600081359050613e6d816158a5565b92915050565b600081519050613e82816158a5565b92915050565b600060208284031215613e9a57600080fd5b6000613ea884828501613aa1565b91505092915050565b600060208284031215613ec357600080fd5b6000613ed184828501613ab6565b91505092915050565b60006102408284031215613eed57600080fd5b6000613efb84828501613b41565b91505092915050565b600060208284031215613f1657600080fd5b600082013567ffffffffffffffff811115613f3057600080fd5b613f3c84828501613c40565b91505092915050565b60006102808284031215613f5857600080fd5b6000613f6684828501613d83565b91505092915050565b600060208284031215613f8157600080fd5b6000613f8f84828501613e49565b91505092915050565b60008060408385031215613fab57600080fd5b6000613fb985828601613e49565b9250506020613fca85828601613e49565b9150509250929050565b600060208284031215613fe657600080fd5b6000613ff484828501613e5e565b91505092915050565b60006020828403121561400f57600080fd5b600061401d84828501613e73565b91505092915050565b6000806040838503121561403957600080fd5b600061404785828601613e5e565b925050602061405885828601613e34565b9150509250929050565b6000806040838503121561407557600080fd5b600061408385828601613e5e565b925050602061409485828601613e5e565b9150509250929050565b60006140aa838361432b565b60408301905092915050565b60006140c28383614979565b6101008301905092915050565b60006140db8383614a1b565b6101808301905092915050565b60006140f48383614c52565b60208301905092915050565b600061410c8383614c9d565b60208301905092915050565b614121816157ca565b82525050565b61413081615741565b82525050565b61413f81615741565b82525050565b61414e81615741565b82525050565b61415d81615741565b82525050565b61416c81615608565b61417681846156b0565b9250614181826155b0565b8060005b838110156141b2578151614199878261409e565b96506141a483615655565b925050600181019050614185565b505050505050565b6141c381615608565b6141cd81846156bb565b92506141d8826155b0565b8060005b838110156142095781516141f0878261409e565b96506141fb83615655565b9250506001810190506141dc565b505050505050565b8082525050565b600061422382615613565b61422d81856156c6565b9350614238836155ba565b8060005b8381101561426957815161425088826140b6565b975061425b83615662565b92505060018101905061423c565b5085935050505092915050565b60006142818261561e565b61428b81856156d7565b9350614296836155ca565b8060005b838110156142c75781516142ae88826140cf565b97506142b98361566f565b92505060018101905061429a565b5085935050505092915050565b6142dd81615629565b6142e781846156e8565b92506142f2826155da565b8060005b8381101561432357815161430a87826140e8565b96506143158361567c565b9250506001810190506142f6565b505050505050565b61433481615629565b61433e81846156f3565b9250614349826155da565b8060005b8381101561437a57815161436187826140e8565b965061436c8361567c565b92505060018101905061434d565b505050505050565b61438b81615634565b61439581846156fe565b92506143a0826155e4565b8060005b838110156143d15781516143b887826140e8565b96506143c383615689565b9250506001810190506143a4565b505050505050565b6143e28161563f565b6143ec8184615709565b92506143f7826155ee565b8060005b8381101561442857815161440f87826140e8565b965061441a83615696565b9250506001810190506143fb565b505050505050565b6144398161563f565b6144438184615714565b925061444e826155ee565b8060005b8381101561447f57815161446687826140e8565b965061447183615696565b925050600181019050614452565b505050505050565b60006144928261564a565b61449c818561571f565b93506144a7836155f8565b8060005b838110156144d85781516144bf8882614100565b97506144ca836156a3565b9250506001810190506144ab565b5085935050505092915050565b8082525050565b6144f581615753565b82525050565b61450481615753565b82525050565b61451381615753565b82525050565b614522816157dc565b82525050565b614531816157dc565b82525050565b614540816157ee565b82525050565b61454f816157ee565b82525050565b61455e816157ee565b82525050565b8082525050565b8082525050565b8082525050565b6000614586600f83615730565b91507f6e6f7420656e6f756768206d616e6100000000000000000000000000000000006000830152602082019050919050565b60006145c6600783615730565b91507f626164205a4b50000000000000000000000000000000000000000000000000006000830152602082019050919050565b6000614606601583615730565b91507f63616e2774206a6f696e2067616d6520747769636500000000000000000000006000830152602082019050919050565b6000614646600c83615730565b91507f496e76616c6964206d6f766500000000000000000000000000000000000000006000830152602082019050919050565b6000614686600d83615730565b91507f616c7265616479206163746564000000000000000000000000000000000000006000830152602082019050919050565b60006146c6601783615730565b91507f706965636520494420616c726561647920696e207573650000000000000000006000830152602082019050919050565b6000614706600d83615730565b91507f6e6f7420696e20626f756e6473000000000000000000000000000000000000006000830152602082019050919050565b6000614746600e83615730565b91507f696e76616c69642061747461636b0000000000000000000000000000000000006000830152602082019050919050565b6000614786600f83615730565b91507f63616e2774206d6f7665207468617400000000000000000000000000000000006000830152602082019050919050565b60006147c6600a83615730565b91507f70696563652064656164000000000000000000000000000000000000000000006000830152602082019050919050565b6000614806600d83615730565b91507f616c7265616479206d6f766564000000000000000000000000000000000000006000830152602082019050919050565b6000614846601283615730565b91507f63616e27742073756d6d6f6e20746865726500000000000000000000000000006000830152602082019050919050565b6000614886601483615730565b91507f47616d6520616c726561647920737461727465640000000000000000000000006000830152602082019050919050565b6101c0820160008201516148d0600085018261432b565b5060208201516148e360408501826141ba565b5060408201516148f660c085018261432b565b50606082015161490a610100850182614430565b50505050565b610240820160008201516149276000850182614c9d565b50602082015161493a6020850182614c25565b50604082015161494d6040850182614c9d565b5060608201516149606060850182614c9d565b50608082015161497360808501826148b9565b50505050565b610100820160008201516149906000850182614537565b5060208201516149a36020850182614c70565b5060408201516149b66040850182614c70565b5060608201516149c96060850182614c70565b5060808201516149dc6080850182614c70565b5060a08201516149ef60a0850182614c70565b5060c0820151614a0260c08501826144ec565b5060e0820151614a1560e08501826144ec565b50505050565b61018082016000820151614a326000850182614c70565b506020820151614a456020850182614537565b506040820151614a586040850182614127565b506060820151614a6b6060850182614c70565b506080820151614a7e6080850182614c70565b5060a0820151614a9160a08501826144ec565b5060c0820151614aa460c08501826144ec565b5060e0820151614ab760e0850182614c70565b50610100820151614acc610100850182614c70565b50610120820151614ae1610120850182614c34565b50610140820151614af6610140850182614c70565b50610160820151614b0b610160850182614c70565b50505050565b61018082016000820151614b286000850182614c9d565b506020820151614b3b6020850182614555565b506040820151614b4e6040850182614154565b506060820151614b616060850182614c9d565b506080820151614b746080850182614c9d565b5060a0820151614b8760a085018261450a565b5060c0820151614b9a60c085018261450a565b5060e0820151614bad60e0850182614c9d565b50610100820151614bc2610100850182614c9d565b50610120820151614bd7610120850182614c52565b50610140820151614bec610140850182614c9d565b50610160820151614c01610160850182614c9d565b50505050565b614c1081615785565b82525050565b614c1f81615785565b82525050565b614c2e81615785565b82525050565b614c3d816157b3565b82525050565b614c4c816157b3565b82525050565b614c5b816157b3565b82525050565b614c6a81615824565b82525050565b614c79816157bd565b82525050565b614c88816157bd565b82525050565b614c97816157bd565b82525050565b614ca6816157bd565b82525050565b6000602082019050614cc16000830184614136565b92915050565b600060c082019050614cdc6000830189614118565b614ce96020830188614c7f565b614cf66040830187614c07565b614d036060830186614546565b614d106080830185614c7f565b614d1d60a0830184614c7f565b979650505050505050565b6000606082019050614d3d6000830186614118565b614d4a6020830185614c7f565b614d576040830184614c61565b949350505050565b6000604082019050614d746000830185614136565b614d816020830184614136565b9392505050565b60006020820190508181036000830152614da28184614218565b905092915050565b60006020820190508181036000830152614dc48184614276565b905092915050565b60006101a082019050614de260008301876142d4565b614def6040830186614163565b614dfc60c08301856142d4565b614e0a610100830184614382565b95945050505050565b60006101c082019050614e2960008301876142d4565b614e366040830186614163565b614e4360c08301856142d4565b614e516101008301846143d9565b95945050505050565b6000608082019050614e6f60008301876144e5565b614e7c6020830186614572565b614e896040830185614145565b614e966060830184614145565b95945050505050565b6000602082019050614eb460008301846144fb565b92915050565b6000602082019050614ecf6000830184614519565b92915050565b600061010082019050614eeb600083018b614546565b614ef8602083018a614c7f565b614f056040830189614c7f565b614f126060830188614c7f565b614f1f6080830187614c7f565b614f2c60a0830186614c7f565b614f3960c08301856144fb565b614f4660e08301846144fb565b9998505050505050505050565b6000602082019050614f686000830184614564565b92915050565b60006020820190508181036000830152614f8781614579565b9050919050565b60006020820190508181036000830152614fa7816145b9565b9050919050565b60006020820190508181036000830152614fc7816145f9565b9050919050565b60006020820190508181036000830152614fe781614639565b9050919050565b6000602082019050818103600083015261500781614679565b9050919050565b60006020820190508181036000830152615027816146b9565b9050919050565b60006020820190508181036000830152615047816146f9565b9050919050565b6000602082019050818103600083015261506781614739565b9050919050565b6000602082019050818103600083015261508781614779565b9050919050565b600060208201905081810360008301526150a7816147b9565b9050919050565b600060208201905081810360008301526150c7816147f9565b9050919050565b600060208201905081810360008301526150e781614839565b9050919050565b6000602082019050818103600083015261510781614879565b9050919050565b60006102c0820190506151246000830188614910565b615132610240830187614572565b615140610260830186614211565b61514e610280830185614564565b61515c6102a083018461456b565b9695505050505050565b60006102e08201905061517c6000830189614910565b61518a610240830188614572565b615198610260830187614564565b6151a661028083018661456b565b6151b46102a0830185614c8e565b6151c26102c0830184614c8e565b979650505050505050565b6000610260820190506151e3600083018b614b11565b8181036101808301526151f6818a614487565b90508181036101a083015261520b8189614487565b905061521b6101c0830188614211565b6152296101e0830187614572565b615237610200830186614564565b615245610220830185614c8e565b615253610240830184614c8e565b9998505050505050505050565b60006020820190506152756000830184614c07565b92915050565b600060a0820190506152906000830188614c07565b61529d6020830187614c7f565b6152aa6040830186614c7f565b6152b76060830185614c7f565b6152c46080830184614c7f565b9695505050505050565b600060c0820190506152e36000830189614c07565b6152f06020830188614c7f565b6152fd6040830187614c7f565b61530a6060830186614c7f565b6153176080830185614c7f565b61532460a0830184614c7f565b979650505050505050565b60006020820190506153446000830184614c43565b92915050565b600060208201905061535f6000830184614c7f565b92915050565b60006101808201905061537b600083018f614c7f565b615388602083018e614546565b615395604083018d614136565b6153a2606083018c614c7f565b6153af608083018b614c7f565b6153bc60a083018a6144fb565b6153c960c08301896144fb565b6153d660e0830188614c7f565b6153e4610100830187614c7f565b6153f2610120830186614c43565b615400610140830185614c7f565b61540e610160830184614c7f565b9d9c50505050505050505050505050565b600060e082019050615434600083018a614c8e565b6154416020830189614c8e565b61544e6040830188614c16565b61545b6060830187614c16565b6154686080830186614145565b61547560a0830185614145565b61548260c0830184614528565b98975050505050505050565b60006080820190506154a36000830187614c8e565b6154b06020830186614c8e565b6154bd6040830185614c8e565b6154ca6060830184614c8e565b95945050505050565b6000604051905081810181811067ffffffffffffffff821117156154f657600080fd5b8060405250919050565b600067ffffffffffffffff82111561551757600080fd5b602082029050919050565b600067ffffffffffffffff82111561553957600080fd5b602082029050919050565b600067ffffffffffffffff82111561555b57600080fd5b602082029050919050565b600067ffffffffffffffff82111561557d57600080fd5b602082029050919050565b600067ffffffffffffffff82111561559f57600080fd5b602082029050602081019050919050565b6000819050919050565b6000819050602082019050919050565b6000819050602082019050919050565b6000819050919050565b6000819050919050565b6000819050919050565b6000819050602082019050919050565b600060029050919050565b600081519050919050565b600081519050919050565b600060029050919050565b600060059050919050565b600060069050919050565b600081519050919050565b6000602082019050919050565b6000602082019050919050565b6000602082019050919050565b6000602082019050919050565b6000602082019050919050565b6000602082019050919050565b6000602082019050919050565b600081905092915050565b600081905092915050565b600082825260208201905092915050565b600082825260208201905092915050565b600081905092915050565b600081905092915050565b600081905092915050565b600081905092915050565b600081905092915050565b600082825260208201905092915050565b600082825260208201905092915050565b600061574c82615793565b9050919050565b60008115159050919050565b600081905061576d82615836565b919050565b600081905061578082615843565b919050565b600061ffff82169050919050565b600073ffffffffffffffffffffffffffffffffffffffff82169050919050565b6000819050919050565b600060ff82169050919050565b60006157d582615800565b9050919050565b60006157e78261575f565b9050919050565b60006157f982615772565b9050919050565b600061580b82615812565b9050919050565b600061581d82615793565b9050919050565b600061582f826157bd565b9050919050565b6004811061584057fe5b50565b6006811061584d57fe5b50565b61585981615753565b811461586457600080fd5b50565b6006811061587457600080fd5b50565b61588081615785565b811461588b57600080fd5b50565b615897816157b3565b81146158a257600080fd5b50565b6158ae816157bd565b81146158b957600080fd5b5056fea264697066735822122035d7aaa22b7d78bbe4a274fd66f8f97c1971912f2b93df9ac46450820c15491c64736f6c63430006070033",
  "immutableReferences": {},
  "source": "pragma solidity ^0.6.7;\npragma experimental ABIEncoderV2;\n\nimport \"@openzeppelin/contracts-ethereum-package/contracts/Initializable.sol\";\nimport \"./ZKChessTypes.sol\";\nimport \"./ZKChessUtils.sol\";\nimport \"./Verifier.sol\";\n\ncontract ZKChessGame is Initializable {\n    uint8 public constant NROWS = 5;\n    uint8 public constant NCOLS = 7;\n\n    uint256 public gameId;\n\n    uint8 public turnNumber;\n    uint16 public sequenceNumber;\n    GameState public gameState;\n    uint8[][] public boardPieces; // board[row][col]\n\n    uint8[] public pieceIds;\n    mapping(uint8 => Piece) public pieces;\n\n    mapping(PieceType => PieceDefaultStats) public defaultStats;\n\n    address public player1;\n    address public player2;\n\n    uint8 public player1Mana;\n    uint8 public player2Mana;\n\n    // mapping from turn # -> piece # -> has acted\n    mapping(uint8 => mapping(uint8 => bool)) public hasMoved;\n    mapping(uint8 => mapping(uint8 => bool)) public hasAttacked;\n\n    function initialize(uint256 _gameId) public {\n        gameId = _gameId;\n        gameState = GameState.WAITING_FOR_PLAYERS;\n\n        for (uint8 i = 0; i < NROWS; i++) {\n            boardPieces.push();\n            for (uint8 j = 0; j < NCOLS; j++) {\n                boardPieces[i].push(0);\n            }\n        }\n\n        // initialize pieces\n        ZKChessUtils.initializeDefaults(defaultStats);\n    }\n\n    //////////////\n    /// EVENTS ///\n    //////////////\n\n    event GameStart(address p1, address p2);\n    event DidSummon(\n        address player,\n        uint8 pieceId,\n        uint16 sequenceNumber,\n        PieceType pieceType,\n        uint8 atRow,\n        uint8 atCol\n    );\n    event DidMove(\n        uint16 sequenceNumber,\n        uint8 pieceId,\n        uint8 fromRow,\n        uint8 fromCol,\n        uint8 toRow,\n        uint8 toCol\n    );\n    event DidAttack(\n        uint16 sequenceNumber,\n        uint8 attacker,\n        uint8 attacked,\n        uint8 attackerHp,\n        uint8 attackedHp\n    );\n    event DidEndTurn(address player, uint8 turnNumber, uint16 sequenceNumber);\n    event GameFinished();\n\n    ///////////////\n    /// GETTERS ///\n    ///////////////\n\n    function getPieces() public view returns (Piece[] memory ret) {\n        ret = new Piece[](pieceIds.length);\n        for (uint8 i = 0; i < pieceIds.length; i++) {\n            ret[i] = pieces[pieceIds[i]];\n        }\n        return ret;\n    }\n\n    function getDefaults()\n        public\n        view\n        returns (PieceDefaultStats[] memory ret)\n    {\n        ret = new PieceDefaultStats[](6);\n        // TODO hardcode bad >:(\n        for (uint8 i = 0; i < 6; i++) {\n            ret[i] = defaultStats[PieceType(i)];\n        }\n        return ret;\n    }\n\n    //////////////\n    /// Helper ///\n    //////////////\n\n    function checkAction(uint8 _turnNumber, uint16 _sequenceNumber)\n        public\n        view\n        returns (bool)\n    {\n        return\n            ZKChessUtils.checkAction(\n                _turnNumber,\n                turnNumber,\n                _sequenceNumber,\n                sequenceNumber,\n                player1,\n                player2,\n                gameState\n            );\n    }\n\n    function isValidMove(\n        Piece memory piece,\n        uint8[] memory toRow,\n        uint8[] memory toCol\n    ) private view returns (bool) {\n        return\n            ZKChessUtils.isValidMove(\n                piece,\n                toRow,\n                toCol,\n                boardPieces,\n                pieces,\n                defaultStats,\n                NROWS,\n                NCOLS\n            );\n    }\n\n    function gameShouldBeCompleted() public view returns (bool) {\n        return\n            ZKChessUtils.gameShouldBeCompleted(\n                pieceIds,\n                pieces,\n                player1,\n                player2\n            );\n    }\n\n    //////////////////////\n    /// Game Mechanics ///\n    //////////////////////\n\n    function joinGame() public {\n        require(\n            gameState == GameState.WAITING_FOR_PLAYERS,\n            \"Game already started\"\n        );\n        if (player1 == address(0)) {\n            // first player to join game\n            player1 = msg.sender;\n            return;\n        }\n        // another player has joined. game is ready to start\n\n        require(msg.sender != player1, \"can't join game twice\");\n        // randomize player order\n        if (block.timestamp % 2 == 0) {\n            player2 = msg.sender;\n        } else {\n            player2 = player1;\n            player1 = msg.sender;\n        }\n\n        // set pieces\n        pieces[1] = Piece({\n            id: 1,\n            pieceType: PieceType.MOTHERSHIP_00,\n            owner: player1,\n            row: 2,\n            col: 0,\n            alive: true,\n            commitment: 0,\n            initialized: true,\n            hp: defaultStats[PieceType.MOTHERSHIP_00].hp,\n            initializedOnTurn: 0,\n            lastMove: 0,\n            lastAttack: 0\n        });\n        pieceIds.push(1);\n        boardPieces[2][0] = 1;\n        pieces[2] = Piece({\n            id: 2,\n            pieceType: PieceType.MOTHERSHIP_00,\n            owner: player2,\n            row: 2,\n            col: 6,\n            alive: true,\n            commitment: 0,\n            initialized: true,\n            hp: defaultStats[PieceType.MOTHERSHIP_00].hp,\n            initializedOnTurn: 0,\n            lastMove: 0,\n            lastAttack: 0\n        });\n        pieceIds.push(2);\n        boardPieces[2][6] = 2;\n\n        gameState = GameState.P1_TO_MOVE;\n        turnNumber = 1;\n        player1Mana = turnNumber;\n        emit GameStart(player1, player2);\n    }\n\n    function doSummon(Summon memory summon) public {\n        checkAction(summon.turnNumber, summon.sequenceNumber);\n        require(!pieces[summon.pieceId].initialized, \"piece ID already in use\");\n\n        // PORT tile\n        uint8 homeRow;\n        uint8 homeCol;\n        if (msg.sender == player1) {\n            homeRow = pieces[1].row;\n            homeCol = pieces[1].col;\n        } else {\n            homeRow = pieces[2].row;\n            homeCol = pieces[2].col;\n        }\n\n        // MANA checks\n        if (msg.sender == player1) {\n            require(\n                player1Mana >= defaultStats[summon.pieceType].cost,\n                \"not enough mana\"\n            );\n            player1Mana -= defaultStats[summon.pieceType].cost;\n        } else {\n            require(\n                player2Mana >= defaultStats[summon.pieceType].cost,\n                \"not enough mana\"\n            );\n            player2Mana -= defaultStats[summon.pieceType].cost;\n        }\n\n        // validity checks\n        if (!defaultStats[summon.pieceType].isZk) {\n            require(summon.row < NROWS && summon.col < NCOLS, \"not in bounds\");\n            // if visible piece, can't summon on existing piece\n            uint8 pieceIdAtSummonTile = boardPieces[summon.row][summon.col];\n            Piece storage pieceAtSummonTile = pieces[pieceIdAtSummonTile];\n            require(!pieceAtSummonTile.alive, \"can't summon there\");\n            // must summon adjacent to the PORT tile\n            require(\n                ZKChessUtils.taxiDist(\n                    summon.row,\n                    summon.col,\n                    homeRow,\n                    homeCol\n                ) == 1,\n                \"can't summon there\"\n            );\n        } else {\n            require(\n                summon.zkp.input[1] == homeRow &&\n                    summon.zkp.input[2] == homeCol,\n                \"bad ZKP\"\n            );\n            require(summon.zkp.input[3] == 1, \"bad ZKP\");\n            require(summon.zkp.input[4] == NROWS, \"bad ZKP\");\n            require(summon.zkp.input[5] == NCOLS, \"bad ZKP\");\n            require(\n                Verifier.verifyDist1Proof(\n                    summon.zkp.a,\n                    summon.zkp.b,\n                    summon.zkp.c,\n                    summon.zkp.input\n                ),\n                \"bad ZKP\"\n            );\n        }\n\n        // create piece\n        pieces[summon.pieceId] = Piece({\n            id: summon.pieceId,\n            pieceType: summon.pieceType,\n            owner: msg.sender,\n            row: summon.row,\n            col: summon.col,\n            alive: true,\n            commitment: summon.zkp.input[0],\n            initialized: true,\n            hp: defaultStats[summon.pieceType].hp,\n            initializedOnTurn: turnNumber,\n            lastMove: turnNumber,\n            lastAttack: turnNumber\n        });\n        pieceIds.push(summon.pieceId);\n        boardPieces[summon.row][summon.col] = summon.pieceId;\n        // if piece has just been made, can't use it yet\n        // in the future this should be tracked in its own field\n        hasMoved[summon.turnNumber][summon.pieceId] = true;\n        hasAttacked[summon.turnNumber][summon.pieceId] = true;\n        emit DidSummon(\n            msg.sender,\n            summon.pieceId,\n            summon.sequenceNumber,\n            summon.pieceType,\n            summon.row,\n            summon.col\n        );\n        sequenceNumber++;\n    }\n\n    function doMove(Move memory move) public {\n        checkAction(move.turnNumber, move.sequenceNumber);\n        Piece storage piece = pieces[move.pieceId];\n        require(\n            piece.owner == msg.sender && piece.owner != address(0),\n            \"can't move that\"\n        );\n        require(piece.alive, \"piece dead\");\n        require(!hasMoved[move.turnNumber][piece.id], \"already moved\");\n        require(!hasAttacked[move.turnNumber][piece.id], \"already acted\");\n\n        uint8 originRow = piece.row;\n        uint8 originCol = piece.col;\n        if (defaultStats[piece.pieceType].isZk) {\n            require(piece.commitment == move.zkp.input[0], \"bad ZKP\");\n            require(move.zkp.input[3] == NROWS, \"bad ZKP\");\n            require(move.zkp.input[4] == NCOLS, \"bad ZKP\");\n            require(\n                move.zkp.input[2] <= defaultStats[piece.pieceType].mvRange,\n                \"bad ZKP\"\n            );\n            require(\n                Verifier.verifyDist2Proof(\n                    move.zkp.a,\n                    move.zkp.b,\n                    move.zkp.c,\n                    move.zkp.input\n                ),\n                \"bad ZKP\"\n            );\n            piece.commitment = move.zkp.input[1];\n        } else {\n            uint8[] memory moveToRow = move.moveToRow;\n            uint8[] memory moveToCol = move.moveToCol;\n            require(isValidMove(piece, moveToRow, moveToCol), \"Invalid move\");\n            uint8 toRow = moveToRow[moveToRow.length - 1];\n            uint8 toCol = moveToCol[moveToCol.length - 1];\n            boardPieces[piece.row][piece.col] = 0;\n            boardPieces[toRow][toCol] = piece.id;\n            piece.row = toRow;\n            piece.col = toCol;\n        }\n        hasMoved[move.turnNumber][piece.id] = true;\n        piece.lastMove = move.turnNumber;\n        emit DidMove(\n            move.sequenceNumber,\n            move.pieceId,\n            originRow,\n            originCol,\n            piece.row,\n            piece.col\n        );\n        sequenceNumber++;\n    }\n\n    function doAttack(Attack memory attack) public {\n        checkAction(attack.turnNumber, attack.sequenceNumber);\n        require(\n            ZKChessUtils.checkAttack(\n                attack,\n                pieces,\n                defaultStats,\n                hasAttacked,\n                NROWS,\n                NCOLS\n            ),\n            \"invalid attack\"\n        );\n\n        ZKChessUtils.executeAttack(\n            attack,\n            pieces,\n            boardPieces,\n            defaultStats,\n            hasAttacked\n        );\n        emit DidAttack(\n            attack.sequenceNumber,\n            attack.pieceId,\n            attack.attackedId,\n            pieces[attack.pieceId].hp,\n            pieces[attack.attackedId].hp\n        );\n        sequenceNumber++;\n    }\n\n    function endTurn(uint8 _turnNumber, uint8 _sequenceNumber) public {\n        checkAction(_turnNumber, _sequenceNumber);\n        if (msg.sender == player1) {\n            // change to p2's turn\n            player1Mana = 0;\n            player2Mana = turnNumber;\n            if (player2Mana > 8) {\n                player2Mana = 8;\n            }\n            gameState = GameState.P2_TO_MOVE;\n        } else {\n            // change to p1's turn\n            turnNumber++;\n            player2Mana = 0;\n            player1Mana = turnNumber;\n            if (player1Mana > 8) {\n                player1Mana = 8;\n            }\n            gameState = GameState.P1_TO_MOVE;\n        }\n        emit DidEndTurn(msg.sender, _turnNumber, _sequenceNumber);\n        sequenceNumber++;\n\n        if (gameShouldBeCompleted()) {\n            gameState = GameState.COMPLETE;\n            emit GameFinished();\n        }\n    }\n}\n",
  "sourcePath": "/Users/alan/Sites/zk-chess/eth/contracts/ZKChessGame.sol",
  "compiler": {
    "name": "solc",
    "version": "0.6.7+commit.b8d736ae.Emscripten.clang"
  },
  "schemaVersion": "3.2.0",
  "updatedAt": "2020-11-13T23:17:05.861Z",
  "networkType": "ethereum",
  "devdoc": {
    "methods": {}
  },
  "userdoc": {
    "methods": {
      "checkAction(uint8,uint16)": {
        "notice": "/////////// Helper /// ///////////"
      },
      "getPieces()": {
        "notice": "//////////// GETTERS /// ////////////"
      },
      "joinGame()": {
        "notice": "/////////////////// Game Mechanics /// ///////////////////"
      }
    }
  }
}