{
  "contractName": "ZKChessGame",
  "abi": [
    {
      "anonymous": false,
      "inputs": [
        {
          "indexed": false,
          "internalType": "uint16",
          "name": "sequenceNumber",
          "type": "uint16"
        },
        {
          "indexed": false,
          "internalType": "uint8",
          "name": "attacker",
          "type": "uint8"
        },
        {
          "indexed": false,
          "internalType": "uint8",
          "name": "attacked",
          "type": "uint8"
        },
        {
          "indexed": false,
          "internalType": "uint8",
          "name": "attackerHp",
          "type": "uint8"
        },
        {
          "indexed": false,
          "internalType": "uint8",
          "name": "attackedHp",
          "type": "uint8"
        }
      ],
      "name": "DidAttack",
      "type": "event"
    },
    {
      "anonymous": false,
      "inputs": [
        {
          "indexed": false,
          "internalType": "address",
          "name": "player",
          "type": "address"
        },
        {
          "indexed": false,
          "internalType": "uint8",
          "name": "turnNumber",
          "type": "uint8"
        },
        {
          "indexed": false,
          "internalType": "uint16",
          "name": "sequenceNumber",
          "type": "uint16"
        }
      ],
      "name": "DidEndTurn",
      "type": "event"
    },
    {
      "anonymous": false,
      "inputs": [
        {
          "indexed": false,
          "internalType": "uint16",
          "name": "sequenceNumber",
          "type": "uint16"
        },
        {
          "indexed": false,
          "internalType": "uint8",
          "name": "pieceId",
          "type": "uint8"
        },
        {
          "indexed": false,
          "internalType": "uint8",
          "name": "fromRow",
          "type": "uint8"
        },
        {
          "indexed": false,
          "internalType": "uint8",
          "name": "fromCol",
          "type": "uint8"
        },
        {
          "indexed": false,
          "internalType": "uint8",
          "name": "toRow",
          "type": "uint8"
        },
        {
          "indexed": false,
          "internalType": "uint8",
          "name": "toCol",
          "type": "uint8"
        }
      ],
      "name": "DidMove",
      "type": "event"
    },
    {
      "anonymous": false,
      "inputs": [
        {
          "indexed": false,
          "internalType": "address",
          "name": "player",
          "type": "address"
        },
        {
          "indexed": false,
          "internalType": "uint16",
          "name": "sequenceNumber",
          "type": "uint16"
        },
        {
          "indexed": false,
          "internalType": "enum PieceType",
          "name": "pieceType",
          "type": "uint8"
        },
        {
          "indexed": false,
          "internalType": "uint8",
          "name": "atRow",
          "type": "uint8"
        },
        {
          "indexed": false,
          "internalType": "uint8",
          "name": "atCol",
          "type": "uint8"
        }
      ],
      "name": "DidSummon",
      "type": "event"
    },
    {
      "anonymous": false,
      "inputs": [],
      "name": "GameFinished",
      "type": "event"
    },
    {
      "anonymous": false,
      "inputs": [
        {
          "indexed": false,
          "internalType": "address",
          "name": "p1",
          "type": "address"
        },
        {
          "indexed": false,
          "internalType": "address",
          "name": "p2",
          "type": "address"
        }
      ],
      "name": "GameStart",
      "type": "event"
    },
    {
      "inputs": [],
      "name": "BOARD_SIZE",
      "outputs": [
        {
          "internalType": "uint256",
          "name": "",
          "type": "uint256"
        }
      ],
      "stateMutability": "view",
      "type": "function",
      "constant": true
    },
    {
      "inputs": [
        {
          "internalType": "uint256",
          "name": "",
          "type": "uint256"
        },
        {
          "internalType": "uint256",
          "name": "",
          "type": "uint256"
        }
      ],
      "name": "boardPieces",
      "outputs": [
        {
          "internalType": "uint8",
          "name": "",
          "type": "uint8"
        }
      ],
      "stateMutability": "view",
      "type": "function",
      "constant": true
    },
    {
      "inputs": [
        {
          "internalType": "enum PieceType",
          "name": "",
          "type": "uint8"
        }
      ],
      "name": "defaultStats",
      "outputs": [
        {
          "internalType": "enum PieceType",
          "name": "pieceType",
          "type": "uint8"
        },
        {
          "internalType": "uint8",
          "name": "mvRange",
          "type": "uint8"
        },
        {
          "internalType": "uint8",
          "name": "atkRange",
          "type": "uint8"
        },
        {
          "internalType": "uint8",
          "name": "hp",
          "type": "uint8"
        },
        {
          "internalType": "uint8",
          "name": "atk",
          "type": "uint8"
        },
        {
          "internalType": "uint8",
          "name": "cost",
          "type": "uint8"
        },
        {
          "internalType": "bool",
          "name": "isZk",
          "type": "bool"
        },
        {
          "internalType": "bool",
          "name": "kamikaze",
          "type": "bool"
        }
      ],
      "stateMutability": "view",
      "type": "function",
      "constant": true
    },
    {
      "inputs": [],
      "name": "gameId",
      "outputs": [
        {
          "internalType": "uint256",
          "name": "",
          "type": "uint256"
        }
      ],
      "stateMutability": "view",
      "type": "function",
      "constant": true
    },
    {
      "inputs": [],
      "name": "gameState",
      "outputs": [
        {
          "internalType": "enum GameState",
          "name": "",
          "type": "uint8"
        }
      ],
      "stateMutability": "view",
      "type": "function",
      "constant": true
    },
    {
      "inputs": [
        {
          "internalType": "uint8",
          "name": "",
          "type": "uint8"
        },
        {
          "internalType": "uint8",
          "name": "",
          "type": "uint8"
        }
      ],
      "name": "hasAttacked",
      "outputs": [
        {
          "internalType": "bool",
          "name": "",
          "type": "bool"
        }
      ],
      "stateMutability": "view",
      "type": "function",
      "constant": true
    },
    {
      "inputs": [
        {
          "internalType": "uint8",
          "name": "",
          "type": "uint8"
        },
        {
          "internalType": "uint8",
          "name": "",
          "type": "uint8"
        }
      ],
      "name": "hasMoved",
      "outputs": [
        {
          "internalType": "bool",
          "name": "",
          "type": "bool"
        }
      ],
      "stateMutability": "view",
      "type": "function",
      "constant": true
    },
    {
      "inputs": [
        {
          "internalType": "uint256",
          "name": "",
          "type": "uint256"
        }
      ],
      "name": "pieceIds",
      "outputs": [
        {
          "internalType": "uint8",
          "name": "",
          "type": "uint8"
        }
      ],
      "stateMutability": "view",
      "type": "function",
      "constant": true
    },
    {
      "inputs": [
        {
          "internalType": "uint8",
          "name": "",
          "type": "uint8"
        }
      ],
      "name": "pieces",
      "outputs": [
        {
          "internalType": "uint8",
          "name": "id",
          "type": "uint8"
        },
        {
          "internalType": "enum PieceType",
          "name": "pieceType",
          "type": "uint8"
        },
        {
          "internalType": "address",
          "name": "owner",
          "type": "address"
        },
        {
          "internalType": "uint8",
          "name": "row",
          "type": "uint8"
        },
        {
          "internalType": "uint8",
          "name": "col",
          "type": "uint8"
        },
        {
          "internalType": "bool",
          "name": "alive",
          "type": "bool"
        },
        {
          "internalType": "bool",
          "name": "initialized",
          "type": "bool"
        },
        {
          "internalType": "uint8",
          "name": "hp",
          "type": "uint8"
        },
        {
          "internalType": "uint8",
          "name": "initializedOnTurn",
          "type": "uint8"
        },
        {
          "internalType": "uint256",
          "name": "commitment",
          "type": "uint256"
        }
      ],
      "stateMutability": "view",
      "type": "function",
      "constant": true
    },
    {
      "inputs": [],
      "name": "player1",
      "outputs": [
        {
          "internalType": "address",
          "name": "",
          "type": "address"
        }
      ],
      "stateMutability": "view",
      "type": "function",
      "constant": true
    },
    {
      "inputs": [],
      "name": "player1Mana",
      "outputs": [
        {
          "internalType": "uint8",
          "name": "",
          "type": "uint8"
        }
      ],
      "stateMutability": "view",
      "type": "function",
      "constant": true
    },
    {
      "inputs": [],
      "name": "player2",
      "outputs": [
        {
          "internalType": "address",
          "name": "",
          "type": "address"
        }
      ],
      "stateMutability": "view",
      "type": "function",
      "constant": true
    },
    {
      "inputs": [],
      "name": "player2Mana",
      "outputs": [
        {
          "internalType": "uint8",
          "name": "",
          "type": "uint8"
        }
      ],
      "stateMutability": "view",
      "type": "function",
      "constant": true
    },
    {
      "inputs": [],
      "name": "sequenceNumber",
      "outputs": [
        {
          "internalType": "uint16",
          "name": "",
          "type": "uint16"
        }
      ],
      "stateMutability": "view",
      "type": "function",
      "constant": true
    },
    {
      "inputs": [],
      "name": "turnNumber",
      "outputs": [
        {
          "internalType": "uint8",
          "name": "",
          "type": "uint8"
        }
      ],
      "stateMutability": "view",
      "type": "function",
      "constant": true
    },
    {
      "inputs": [
        {
          "internalType": "uint256",
          "name": "_gameId",
          "type": "uint256"
        }
      ],
      "name": "initialize",
      "outputs": [],
      "stateMutability": "nonpayable",
      "type": "function"
    },
    {
      "inputs": [],
      "name": "getPieces",
      "outputs": [
        {
          "components": [
            {
              "internalType": "uint8",
              "name": "id",
              "type": "uint8"
            },
            {
              "internalType": "enum PieceType",
              "name": "pieceType",
              "type": "uint8"
            },
            {
              "internalType": "address",
              "name": "owner",
              "type": "address"
            },
            {
              "internalType": "uint8",
              "name": "row",
              "type": "uint8"
            },
            {
              "internalType": "uint8",
              "name": "col",
              "type": "uint8"
            },
            {
              "internalType": "bool",
              "name": "alive",
              "type": "bool"
            },
            {
              "internalType": "bool",
              "name": "initialized",
              "type": "bool"
            },
            {
              "internalType": "uint8",
              "name": "hp",
              "type": "uint8"
            },
            {
              "internalType": "uint8",
              "name": "initializedOnTurn",
              "type": "uint8"
            },
            {
              "internalType": "uint256",
              "name": "commitment",
              "type": "uint256"
            }
          ],
          "internalType": "struct Piece[]",
          "name": "ret",
          "type": "tuple[]"
        }
      ],
      "stateMutability": "view",
      "type": "function",
      "constant": true
    },
    {
      "inputs": [],
      "name": "getDefaults",
      "outputs": [
        {
          "components": [
            {
              "internalType": "enum PieceType",
              "name": "pieceType",
              "type": "uint8"
            },
            {
              "internalType": "uint8",
              "name": "mvRange",
              "type": "uint8"
            },
            {
              "internalType": "uint8",
              "name": "atkRange",
              "type": "uint8"
            },
            {
              "internalType": "uint8",
              "name": "hp",
              "type": "uint8"
            },
            {
              "internalType": "uint8",
              "name": "atk",
              "type": "uint8"
            },
            {
              "internalType": "uint8",
              "name": "cost",
              "type": "uint8"
            },
            {
              "internalType": "bool",
              "name": "isZk",
              "type": "bool"
            },
            {
              "internalType": "bool",
              "name": "kamikaze",
              "type": "bool"
            }
          ],
          "internalType": "struct PieceDefaultStats[]",
          "name": "ret",
          "type": "tuple[]"
        }
      ],
      "stateMutability": "view",
      "type": "function",
      "constant": true
    },
    {
      "inputs": [
        {
          "internalType": "uint8",
          "name": "_turnNumber",
          "type": "uint8"
        },
        {
          "internalType": "uint16",
          "name": "_sequenceNumber",
          "type": "uint16"
        }
      ],
      "name": "checkAction",
      "outputs": [
        {
          "internalType": "bool",
          "name": "",
          "type": "bool"
        }
      ],
      "stateMutability": "view",
      "type": "function",
      "constant": true
    },
    {
      "inputs": [],
      "name": "gameShouldBeCompleted",
      "outputs": [
        {
          "internalType": "bool",
          "name": "",
          "type": "bool"
        }
      ],
      "stateMutability": "view",
      "type": "function",
      "constant": true
    },
    {
      "inputs": [],
      "name": "joinGame",
      "outputs": [],
      "stateMutability": "nonpayable",
      "type": "function"
    },
    {
      "inputs": [
        {
          "components": [
            {
              "internalType": "uint8",
              "name": "turnNumber",
              "type": "uint8"
            },
            {
              "internalType": "uint16",
              "name": "sequenceNumber",
              "type": "uint16"
            },
            {
              "internalType": "uint8",
              "name": "pieceId",
              "type": "uint8"
            },
            {
              "internalType": "enum PieceType",
              "name": "pieceType",
              "type": "uint8"
            },
            {
              "internalType": "uint8",
              "name": "row",
              "type": "uint8"
            },
            {
              "internalType": "uint8",
              "name": "col",
              "type": "uint8"
            },
            {
              "components": [
                {
                  "internalType": "uint256[2]",
                  "name": "a",
                  "type": "uint256[2]"
                },
                {
                  "internalType": "uint256[2][2]",
                  "name": "b",
                  "type": "uint256[2][2]"
                },
                {
                  "internalType": "uint256[2]",
                  "name": "c",
                  "type": "uint256[2]"
                },
                {
                  "internalType": "uint256[5]",
                  "name": "input",
                  "type": "uint256[5]"
                }
              ],
              "internalType": "struct SummonZKP",
              "name": "zkp",
              "type": "tuple"
            }
          ],
          "internalType": "struct Summon",
          "name": "summon",
          "type": "tuple"
        }
      ],
      "name": "doSummon",
      "outputs": [],
      "stateMutability": "nonpayable",
      "type": "function"
    },
    {
      "inputs": [
        {
          "components": [
            {
              "internalType": "uint8",
              "name": "turnNumber",
              "type": "uint8"
            },
            {
              "internalType": "uint16",
              "name": "sequenceNumber",
              "type": "uint16"
            },
            {
              "internalType": "uint8",
              "name": "pieceId",
              "type": "uint8"
            },
            {
              "internalType": "uint8[]",
              "name": "moveToRow",
              "type": "uint8[]"
            },
            {
              "internalType": "uint8[]",
              "name": "moveToCol",
              "type": "uint8[]"
            },
            {
              "components": [
                {
                  "internalType": "uint256[2]",
                  "name": "a",
                  "type": "uint256[2]"
                },
                {
                  "internalType": "uint256[2][2]",
                  "name": "b",
                  "type": "uint256[2][2]"
                },
                {
                  "internalType": "uint256[2]",
                  "name": "c",
                  "type": "uint256[2]"
                },
                {
                  "internalType": "uint256[4]",
                  "name": "input",
                  "type": "uint256[4]"
                }
              ],
              "internalType": "struct MoveZKP",
              "name": "zkp",
              "type": "tuple"
            }
          ],
          "internalType": "struct Move",
          "name": "move",
          "type": "tuple"
        }
      ],
      "name": "doMove",
      "outputs": [],
      "stateMutability": "nonpayable",
      "type": "function"
    },
    {
      "inputs": [
        {
          "components": [
            {
              "internalType": "uint8",
              "name": "turnNumber",
              "type": "uint8"
            },
            {
              "internalType": "uint16",
              "name": "sequenceNumber",
              "type": "uint16"
            },
            {
              "internalType": "uint8",
              "name": "pieceId",
              "type": "uint8"
            },
            {
              "internalType": "uint8",
              "name": "attackedId",
              "type": "uint8"
            },
            {
              "components": [
                {
                  "internalType": "uint256[2]",
                  "name": "a",
                  "type": "uint256[2]"
                },
                {
                  "internalType": "uint256[2][2]",
                  "name": "b",
                  "type": "uint256[2][2]"
                },
                {
                  "internalType": "uint256[2]",
                  "name": "c",
                  "type": "uint256[2]"
                },
                {
                  "internalType": "uint256[5]",
                  "name": "input",
                  "type": "uint256[5]"
                }
              ],
              "internalType": "struct AttackZKP",
              "name": "zkp",
              "type": "tuple"
            }
          ],
          "internalType": "struct Attack",
          "name": "attack",
          "type": "tuple"
        }
      ],
      "name": "doAttack",
      "outputs": [],
      "stateMutability": "nonpayable",
      "type": "function"
    },
    {
      "inputs": [
        {
          "internalType": "uint8",
          "name": "_turnNumber",
          "type": "uint8"
        },
        {
          "internalType": "uint8",
          "name": "_sequenceNumber",
          "type": "uint8"
        }
      ],
      "name": "endTurn",
      "outputs": [],
      "stateMutability": "nonpayable",
      "type": "function"
    }
  ],
  "bytecode": "0x608060405234801561001057600080fd5b5061552f806100206000396000f3fe608060405234801561001057600080fd5b50600436106101735760003560e01c8063a8959229116100de578063d30895e411610097578063dc4a3e9511610071578063dc4a3e9514610450578063df54a9281461046e578063ebd0d8261461049e578063fe4b84df146104ba57610173565b8063d30895e41461040a578063d4f77b1c14610428578063d7c81b551461043257610173565b8063a895922914610334578063b172ed4d14610350578063c0c74a761461036e578063cf615f6c1461039e578063cfecc6de146103bc578063d1f9c24d146103ec57610173565b806351df541c1161013057806351df541c1461026e5780635700401e1461028c57806359a5f12d146102aa57806364ca23ef146102c85780637267a359146102e657806381cb97ca1461030457610173565b806311628abc1461017857806324cf877a146101965780632c784f32146101b257806339813cbd146101eb5780633fb7388e14610207578063430632ea14610237575b600080fd5b6101806104d6565b60405161018d9190614fb7565b60405180910390f35b6101b060048036038101906101ab9190613bb8565b6104e9565b005b6101cc60048036038101906101c79190613cb2565b61072d565b6040516101e29a99989796959493929190614fd2565b60405180910390f35b61020560048036038101906102009190613d40565b610809565b005b610221600480360381019061021c9190613c76565b610ada565b60405161022e9190614fb7565b60405180910390f35b610251600480360381019061024c9190613b8f565b610b23565b604051610265989796959493929190614b51565b60405180910390f35b610276610bd3565b6040516102839190614b1b565b60405180910390f35b610294610cad565b6040516102a19190614fb7565b60405180910390f35b6102b2610cc0565b6040516102bf9190614936565b60405180910390f35b6102d0610ce6565b6040516102dd9190614ecd565b60405180910390f35b6102ee610cfa565b6040516102fb9190614fb7565b60405180910390f35b61031e60048036038101906103199190613d40565b610d0d565b60405161032b9190614b1b565b60405180910390f35b61034e60048036038101906103499190613be2565b610d3c565b005b61035861172b565b6040516103659190614a04565b60405180910390f35b61038860048036038101906103839190613d04565b6118f9565b6040516103959190614b1b565b60405180910390f35b6103a6611a08565b6040516103b39190614a26565b60405180910390f35b6103d660048036038101906103d19190613c4d565b611c4f565b6040516103e39190614fb7565b60405180910390f35b6103f4611c80565b6040516104019190614b36565b60405180910390f35b610412611c93565b60405161041f9190614936565b60405180910390f35b610430611cb9565b005b61043a612611565b6040516104479190614f9c565b60405180910390f35b610458612617565b6040516104659190614f9c565b60405180910390f35b61048860048036038101906104839190613d40565b61261c565b6040516104959190614b1b565b60405180910390f35b6104b860048036038101906104b39190613c23565b61264b565b005b6104d460048036038101906104cf9190613c4d565b61324f565b005b603a60159054906101000a900460ff1681565b6104fb816000015182602001516118f9565b5073__ZKChessUtils__________________________63364de3dc8260376038603c60076040518663ffffffff1660e01b815260040161053f959493929190614df1565b60206040518083038186803b15801561055757600080fd5b505af415801561056b573d6000803e3d6000fd5b505050506040513d601f19601f8201168201806040525081019061058f9190613b66565b6105ce576040517f08c379a00000000000000000000000000000000000000000000000000000000081526004016105c590614cca565b60405180910390fd5b73__ZKChessUtils__________________________63a3f00e5582603760356038603c60076040518763ffffffff1660e01b815260040161061496959493929190614d8a565b60006040518083038186803b15801561062c57600080fd5b505af4158015610640573d6000803e3d6000fd5b505050507f26b1bbbf4d915af107239a76abff01456db75ac5dd5aafafd4b3d12860607346603460019054906101000a900461ffff168260400151836060015160376000866040015160ff1660ff168152602001908152602001600020600001601a9054906101000a900460ff1660376000876060015160ff1660ff168152602001908152602001600020600001601a9054906101000a900460ff166040516106ed959493929190614ee8565b60405180910390a16034600181819054906101000a900461ffff168092919060010191906101000a81548161ffff021916908361ffff1602179055505050565b60376020528060005260406000206000915090508060000160009054906101000a900460ff16908060000160019054906101000a900460ff16908060000160029054906101000a900473ffffffffffffffffffffffffffffffffffffffff16908060000160169054906101000a900460ff16908060000160179054906101000a900460ff16908060000160189054906101000a900460ff16908060000160199054906101000a900460ff169080600001601a9054906101000a900460ff169080600001601b9054906101000a900460ff1690806001015490508a565b610816828260ff166118f9565b50603960009054906101000a900473ffffffffffffffffffffffffffffffffffffffff1673ffffffffffffffffffffffffffffffffffffffff163373ffffffffffffffffffffffffffffffffffffffff161415610914576000603a60146101000a81548160ff021916908360ff160217905550603460009054906101000a900460ff16603a60156101000a81548160ff021916908360ff1602179055506008603a60159054906101000a900460ff1660ff1611156108eb576008603a60156101000a81548160ff021916908360ff1602179055505b6002603460036101000a81548160ff0219169083600381111561090a57fe5b02179055506109e9565b6034600081819054906101000a900460ff168092919060010191906101000a81548160ff021916908360ff160217905550506000603a60156101000a81548160ff021916908360ff160217905550603460009054906101000a900460ff16603a60146101000a81548160ff021916908360ff1602179055506008603a60149054906101000a900460ff1660ff1611156109c4576008603a60146101000a81548160ff021916908360ff1602179055505b6001603460036101000a81548160ff021916908360038111156109e357fe5b02179055505b7f27e77cb9303b56e18ceb82b3e0df64b35731cea5df6f30547f9fec78b1081bbf33603460009054906101000a900460ff16603460019054906101000a900461ffff16604051610a3b939291906149a4565b60405180910390a16034600181819054906101000a900461ffff168092919060010191906101000a81548161ffff021916908361ffff16021790555050610a80610bd3565b15610ad6576003603460036101000a81548160ff02191690836003811115610aa457fe5b02179055507fb537cbcadc098cfedf5a04ef7e68a8554b55f7e45bfdaca1cbc51a686ef65f4860405160405180910390a15b5050565b60358281548110610ae757fe5b906000526020600020018181548110610afc57fe5b9060005260206000209060209182820401919006915091509054906101000a900460ff1681565b60386020528060005260406000206000915090508060000160009054906101000a900460ff16908060000160019054906101000a900460ff16908060000160029054906101000a900460ff16908060000160039054906101000a900460ff16908060000160049054906101000a900460ff16908060000160059054906101000a900460ff16908060000160069054906101000a900460ff16908060000160079054906101000a900460ff16905088565b600073__ZKChessUtils__________________________63e382904460366037603960009054906101000a900473ffffffffffffffffffffffffffffffffffffffff16603a60009054906101000a900473ffffffffffffffffffffffffffffffffffffffff166040518563ffffffff1660e01b8152600401610c589493929190614ad6565b60206040518083038186803b158015610c7057600080fd5b505af4158015610c84573d6000803e3d6000fd5b505050506040513d601f19601f82011682018060405250810190610ca89190613b66565b905090565b603460009054906101000a900460ff1681565b603a60009054906101000a900473ffffffffffffffffffffffffffffffffffffffff1681565b603460019054906101000a900461ffff1681565b603a60149054906101000a900460ff1681565b603c6020528160005260406000206020528060005260406000206000915091509054906101000a900460ff1681565b610d4e816000015182602001516118f9565b50600060376000836040015160ff1660ff16815260200190815260200160002090503373ffffffffffffffffffffffffffffffffffffffff168160000160029054906101000a900473ffffffffffffffffffffffffffffffffffffffff1673ffffffffffffffffffffffffffffffffffffffff16148015610e205750600073ffffffffffffffffffffffffffffffffffffffff168160000160029054906101000a900473ffffffffffffffffffffffffffffffffffffffff1673ffffffffffffffffffffffffffffffffffffffff1614155b610e5f576040517f08c379a0000000000000000000000000000000000000000000000000000000008152600401610e5690614cea565b60405180910390fd5b8060000160189054906101000a900460ff16610eb0576040517f08c379a0000000000000000000000000000000000000000000000000000000008152600401610ea790614d0a565b60405180910390fd5b603b6000836000015160ff1660ff16815260200190815260200160002060008260000160009054906101000a900460ff1660ff1660ff16815260200190815260200160002060009054906101000a900460ff1615610f43576040517f08c379a0000000000000000000000000000000000000000000000000000000008152600401610f3a90614d2a565b60405180910390fd5b603c6000836000015160ff1660ff16815260200190815260200160002060008260000160009054906101000a900460ff1660ff1660ff16815260200190815260200160002060009054906101000a900460ff1615610fd6576040517f08c379a0000000000000000000000000000000000000000000000000000000008152600401610fcd90614c6a565b60405180910390fd5b60008160000160169054906101000a900460ff16905060008260000160179054906101000a900460ff169050603860008460000160019054906101000a900460ff16600381111561102357fe5b600381111561102e57fe5b815260200190815260200160002060000160069054906101000a900460ff16156112c9578360a001516060015160006004811061106757fe5b60200201518360010154146110b1576040517f08c379a00000000000000000000000000000000000000000000000000000000081526004016110a890614c0a565b60405180910390fd5b60078460a00151606001516003600481106110c857fe5b60200201511461110d576040517f08c379a000000000000000000000000000000000000000000000000000000000815260040161110490614c0a565b60405180910390fd5b603860008460000160019054906101000a900460ff16600381111561112e57fe5b600381111561113957fe5b815260200190815260200160002060000160019054906101000a900460ff1660ff168460a001516060015160026004811061117057fe5b602002015111156111b6576040517f08c379a00000000000000000000000000000000000000000000000000000000081526004016111ad90614c0a565b60405180910390fd5b73__Verifier______________________________636f2aea8d8560a00151600001518660a00151602001518760a00151604001518860a00151606001516040518563ffffffff1660e01b81526004016112139493929190614a48565b60206040518083038186803b15801561122b57600080fd5b505af415801561123f573d6000803e3d6000fd5b505050506040513d601f19601f820116820180604052508101906112639190613b66565b6112a2576040517f08c379a000000000000000000000000000000000000000000000000000000000815260040161129990614c0a565b60405180910390fd5b8360a00151606001516001600481106112b757fe5b602002015183600101819055506115d6565b60608460600151905060608560800151905061144685604051806101400160405290816000820160009054906101000a900460ff1660ff1660ff1681526020016000820160019054906101000a900460ff16600381111561132657fe5b600381111561133157fe5b81526020016000820160029054906101000a900473ffffffffffffffffffffffffffffffffffffffff1673ffffffffffffffffffffffffffffffffffffffff1673ffffffffffffffffffffffffffffffffffffffff1681526020016000820160169054906101000a900460ff1660ff1660ff1681526020016000820160179054906101000a900460ff1660ff1660ff1681526020016000820160189054906101000a900460ff161515151581526020016000820160199054906101000a900460ff1615151515815260200160008201601a9054906101000a900460ff1660ff1660ff16815260200160008201601b9054906101000a900460ff1660ff1660ff16815260200160018201548152505083836133a0565b611485576040517f08c379a000000000000000000000000000000000000000000000000000000000815260040161147c90614c4a565b60405180910390fd5b60008260018451038151811061149757fe5b602002602001015190506000826001845103815181106114b357fe5b60200260200101519050600060358860000160169054906101000a900460ff1660ff16815481106114e057fe5b906000526020600020018860000160179054906101000a900460ff1660ff168154811061150957fe5b90600052602060002090602091828204019190066101000a81548160ff021916908360ff1602179055508660000160009054906101000a900460ff1660358360ff168154811061155557fe5b906000526020600020018260ff168154811061156d57fe5b90600052602060002090602091828204019190066101000a81548160ff021916908360ff160217905550818760000160166101000a81548160ff021916908360ff160217905550808760000160176101000a81548160ff021916908360ff160217905550505050505b6001603b6000866000015160ff1660ff16815260200190815260200160002060008560000160009054906101000a900460ff1660ff1660ff16815260200190815260200160002060006101000a81548160ff021916908315150217905550600080600086606001515111156116685785606001516001876060015151038151811061165d57fe5b602002602001015191505b600086608001515111156116995785608001516001876080015151038151811061168e57fe5b602002602001015190505b7f7e2f4aae474473f9e261f72d50b4f8aaabb3f5380276750de70e0121b377fac6603460019054906101000a900461ffff168760400151868686866040516116e696959493929190614f3b565b60405180910390a16034600181819054906101000a900461ffff168092919060010191906101000a81548161ffff021916908361ffff16021790555050505050505050565b6060600467ffffffffffffffff8111801561174557600080fd5b5060405190808252806020026020018201604052801561177f57816020015b61176c613442565b8152602001906001900390816117645790505b50905060008090505b60048160ff1610156118f257603860008260ff1660038111156117a757fe5b60038111156117b257fe5b60038111156117bd57fe5b8152602001908152602001600020604051806101000160405290816000820160009054906101000a900460ff1660038111156117f557fe5b600381111561180057fe5b81526020016000820160019054906101000a900460ff1660ff1660ff1681526020016000820160029054906101000a900460ff1660ff1660ff1681526020016000820160039054906101000a900460ff1660ff1660ff1681526020016000820160049054906101000a900460ff1660ff1660ff1681526020016000820160059054906101000a900460ff1660ff1660ff1681526020016000820160069054906101000a900460ff161515151581526020016000820160079054906101000a900460ff161515151581525050828260ff16815181106118da57fe5b60200260200101819052508080600101915050611788565b5080905090565b600073__ZKChessUtils__________________________63bbca541f84603460009054906101000a900460ff1685603460019054906101000a900461ffff16603960009054906101000a900473ffffffffffffffffffffffffffffffffffffffff16603a60009054906101000a900473ffffffffffffffffffffffffffffffffffffffff16603460039054906101000a900460ff166040518863ffffffff1660e01b81526004016119b0979695949392919061506e565b60206040518083038186803b1580156119c857600080fd5b505af41580156119dc573d6000803e3d6000fd5b505050506040513d601f19601f82011682018060405250810190611a009190613b66565b905092915050565b606060368054905067ffffffffffffffff81118015611a2657600080fd5b50604051908082528060200260200182016040528015611a6057816020015b611a4d6134a5565b815260200190600190039081611a455790505b50905060008090505b6036805490508160ff161015611c48576037600060368360ff1681548110611a8d57fe5b90600052602060002090602091828204019190069054906101000a900460ff1660ff1660ff168152602001908152602001600020604051806101400160405290816000820160009054906101000a900460ff1660ff1660ff1681526020016000820160019054906101000a900460ff166003811115611b0857fe5b6003811115611b1357fe5b81526020016000820160029054906101000a900473ffffffffffffffffffffffffffffffffffffffff1673ffffffffffffffffffffffffffffffffffffffff1673ffffffffffffffffffffffffffffffffffffffff1681526020016000820160169054906101000a900460ff1660ff1660ff1681526020016000820160179054906101000a900460ff1660ff1660ff1681526020016000820160189054906101000a900460ff161515151581526020016000820160199054906101000a900460ff1615151515815260200160008201601a9054906101000a900460ff1660ff1660ff16815260200160008201601b9054906101000a900460ff1660ff1660ff168152602001600182015481525050828260ff1681518110611c3057fe5b60200260200101819052508080600101915050611a69565b5080905090565b60368181548110611c5c57fe5b9060005260206000209060209182820401919006915054906101000a900460ff1681565b603460039054906101000a900460ff1681565b603960009054906101000a900473ffffffffffffffffffffffffffffffffffffffff1681565b60006003811115611cc657fe5b603460039054906101000a900460ff166003811115611ce157fe5b14611d21576040517f08c379a0000000000000000000000000000000000000000000000000000000008152600401611d1890614d6a565b60405180910390fd5b600073ffffffffffffffffffffffffffffffffffffffff16603960009054906101000a900473ffffffffffffffffffffffffffffffffffffffff1673ffffffffffffffffffffffffffffffffffffffff161415611dbe5733603960006101000a81548173ffffffffffffffffffffffffffffffffffffffff021916908373ffffffffffffffffffffffffffffffffffffffff16021790555061260f565b603960009054906101000a900473ffffffffffffffffffffffffffffffffffffffff1673ffffffffffffffffffffffffffffffffffffffff163373ffffffffffffffffffffffffffffffffffffffff161415611e4f576040517f08c379a0000000000000000000000000000000000000000000000000000000008152600401611e4690614c2a565b60405180910390fd5b600060024281611e5b57fe5b061415611ea85733603a60006101000a81548173ffffffffffffffffffffffffffffffffffffffff021916908373ffffffffffffffffffffffffffffffffffffffff160217905550611f4d565b603960009054906101000a900473ffffffffffffffffffffffffffffffffffffffff16603a60006101000a81548173ffffffffffffffffffffffffffffffffffffffff021916908373ffffffffffffffffffffffffffffffffffffffff16021790555033603960006101000a81548173ffffffffffffffffffffffffffffffffffffffff021916908373ffffffffffffffffffffffffffffffffffffffff1602179055505b604051806101400160405280600160ff168152602001600380811115611f6f57fe5b8152602001603960009054906101000a900473ffffffffffffffffffffffffffffffffffffffff1673ffffffffffffffffffffffffffffffffffffffff168152602001600060ff168152602001600360ff16815260200160011515815260200160011515815260200160386000600380811115611fe857fe5b6003811115611ff357fe5b815260200190815260200160002060000160039054906101000a900460ff1660ff168152602001600060ff168152602001600081525060376000600160ff16815260200190815260200160002060008201518160000160006101000a81548160ff021916908360ff16021790555060208201518160000160016101000a81548160ff0219169083600381111561208557fe5b021790555060408201518160000160026101000a81548173ffffffffffffffffffffffffffffffffffffffff021916908373ffffffffffffffffffffffffffffffffffffffff16021790555060608201518160000160166101000a81548160ff021916908360ff16021790555060808201518160000160176101000a81548160ff021916908360ff16021790555060a08201518160000160186101000a81548160ff02191690831515021790555060c08201518160000160196101000a81548160ff02191690831515021790555060e082015181600001601a6101000a81548160ff021916908360ff16021790555061010082015181600001601b6101000a81548160ff021916908360ff16021790555061012082015181600101559050506036600190806001815401808255809150506001900390600052602060002090602091828204019190069091909190916101000a81548160ff021916908360ff160217905550600160356000815481106121fa57fe5b9060005260206000200160038154811061221057fe5b90600052602060002090602091828204019190066101000a81548160ff021916908360ff160217905550604051806101400160405280600260ff16815260200160038081111561225c57fe5b8152602001603a60009054906101000a900473ffffffffffffffffffffffffffffffffffffffff1673ffffffffffffffffffffffffffffffffffffffff168152602001600660ff168152602001600360ff168152602001600115158152602001600115158152602001603860006003808111156122d557fe5b60038111156122e057fe5b815260200190815260200160002060000160039054906101000a900460ff1660ff168152602001600060ff168152602001600081525060376000600260ff16815260200190815260200160002060008201518160000160006101000a81548160ff021916908360ff16021790555060208201518160000160016101000a81548160ff0219169083600381111561237257fe5b021790555060408201518160000160026101000a81548173ffffffffffffffffffffffffffffffffffffffff021916908373ffffffffffffffffffffffffffffffffffffffff16021790555060608201518160000160166101000a81548160ff021916908360ff16021790555060808201518160000160176101000a81548160ff021916908360ff16021790555060a08201518160000160186101000a81548160ff02191690831515021790555060c08201518160000160196101000a81548160ff02191690831515021790555060e082015181600001601a6101000a81548160ff021916908360ff16021790555061010082015181600001601b6101000a81548160ff021916908360ff16021790555061012082015181600101559050506036600290806001815401808255809150506001900390600052602060002090602091828204019190069091909190916101000a81548160ff021916908360ff160217905550600260356006815481106124e757fe5b906000526020600020016003815481106124fd57fe5b90600052602060002090602091828204019190066101000a81548160ff021916908360ff1602179055506001603460036101000a81548160ff0219169083600381111561254657fe5b02179055506001603460006101000a81548160ff021916908360ff160217905550603460009054906101000a900460ff16603a60146101000a81548160ff021916908360ff1602179055507f8fd707874eb940598510258c64cad23fd35fe8c85c5c38e8782fac2cc887fb6e603960009054906101000a900473ffffffffffffffffffffffffffffffffffffffff16603a60009054906101000a900473ffffffffffffffffffffffffffffffffffffffff166040516126069291906149db565b60405180910390a15b565b60335481565b600781565b603b6020528160005260406000206020528060005260406000206000915091509054906101000a900460ff1681565b61265d816000015182602001516118f9565b5060376000826040015160ff1660ff16815260200190815260200160002060000160199054906101000a900460ff16156126cc576040517f08c379a00000000000000000000000000000000000000000000000000000000081526004016126c390614c8a565b60405180910390fd5b60008060039050603960009054906101000a900473ffffffffffffffffffffffffffffffffffffffff1673ffffffffffffffffffffffffffffffffffffffff163373ffffffffffffffffffffffffffffffffffffffff1614156127325760009150612737565b600691505b603960009054906101000a900473ffffffffffffffffffffffffffffffffffffffff1673ffffffffffffffffffffffffffffffffffffffff163373ffffffffffffffffffffffffffffffffffffffff1614156128915760386000846060015160038111156127a157fe5b60038111156127ac57fe5b815260200190815260200160002060000160059054906101000a900460ff1660ff16603a60149054906101000a900460ff1660ff161015612822576040517f08c379a000000000000000000000000000000000000000000000000000000000815260040161281990614bea565b60405180910390fd5b603860008460600151600381111561283657fe5b600381111561284157fe5b815260200190815260200160002060000160059054906101000a900460ff16603a60148282829054906101000a900460ff160392506101000a81548160ff021916908360ff160217905550612991565b60386000846060015160038111156128a557fe5b60038111156128b057fe5b815260200190815260200160002060000160059054906101000a900460ff1660ff16603a60159054906101000a900460ff1660ff161015612926576040517f08c379a000000000000000000000000000000000000000000000000000000000815260040161291d90614bea565b60405180910390fd5b603860008460600151600381111561293a57fe5b600381111561294557fe5b815260200190815260200160002060000160059054906101000a900460ff16603a60158282829054906101000a900460ff160392506101000a81548160ff021916908360ff1602179055505b60386000846060015160038111156129a557fe5b60038111156129b057fe5b815260200190815260200160002060000160069054906101000a900460ff16612bd4576007836080015160ff161080156129f1575060078360a0015160ff16105b612a30576040517f08c379a0000000000000000000000000000000000000000000000000000000008152600401612a2790614caa565b60405180910390fd5b60006035846080015160ff1681548110612a4657fe5b906000526020600020018460a0015160ff1681548110612a6257fe5b90600052602060002090602091828204019190069054906101000a900460ff1690506000603760008360ff1660ff16815260200190815260200160002090508060000160189054906101000a900460ff1615612af3576040517f08c379a0000000000000000000000000000000000000000000000000000000008152600401612aea90614d4a565b60405180910390fd5b600173__ZKChessUtils__________________________632542841a87608001518860a0015188886040518563ffffffff1660e01b8152600401612b3a94939291906150dd565b60206040518083038186803b158015612b5257600080fd5b505af4158015612b66573d6000803e3d6000fd5b505050506040513d601f19601f82011682018060405250810190612b8a9190613cdb565b60ff1614612bcd576040517f08c379a0000000000000000000000000000000000000000000000000000000008152600401612bc490614d4a565b60405180910390fd5b5050612dfe565b8160ff168360c0015160600151600160058110612bed57fe5b6020020151148015612c1a57508060ff168360c0015160600151600260058110612c1357fe5b6020020151145b612c59576040517f08c379a0000000000000000000000000000000000000000000000000000000008152600401612c5090614c0a565b60405180910390fd5b60018360c0015160600151600360058110612c7057fe5b602002015114612cb5576040517f08c379a0000000000000000000000000000000000000000000000000000000008152600401612cac90614c0a565b60405180910390fd5b60078360c0015160600151600460058110612ccc57fe5b602002015114612d11576040517f08c379a0000000000000000000000000000000000000000000000000000000008152600401612d0890614c0a565b60405180910390fd5b73__Verifier______________________________63afd115578460c00151600001518560c00151602001518660c00151604001518760c00151606001516040518563ffffffff1660e01b8152600401612d6e9493929190614a8f565b60206040518083038186803b158015612d8657600080fd5b505af4158015612d9a573d6000803e3d6000fd5b505050506040513d601f19601f82011682018060405250810190612dbe9190613b66565b612dfd576040517f08c379a0000000000000000000000000000000000000000000000000000000008152600401612df490614c0a565b60405180910390fd5b5b604051806101400160405280846040015160ff16815260200184606001516003811115612e2757fe5b81526020013373ffffffffffffffffffffffffffffffffffffffff168152602001846080015160ff1681526020018460a0015160ff1681526020016001151581526020016001151581526020016038600086606001516003811115612e8857fe5b6003811115612e9357fe5b815260200190815260200160002060000160039054906101000a900460ff1660ff168152602001603460009054906101000a900460ff1660ff1681526020018460c0015160600151600060058110612ee757fe5b602002015181525060376000856040015160ff1660ff16815260200190815260200160002060008201518160000160006101000a81548160ff021916908360ff16021790555060208201518160000160016101000a81548160ff02191690836003811115612f5157fe5b021790555060408201518160000160026101000a81548173ffffffffffffffffffffffffffffffffffffffff021916908373ffffffffffffffffffffffffffffffffffffffff16021790555060608201518160000160166101000a81548160ff021916908360ff16021790555060808201518160000160176101000a81548160ff021916908360ff16021790555060a08201518160000160186101000a81548160ff02191690831515021790555060c08201518160000160196101000a81548160ff02191690831515021790555060e082015181600001601a6101000a81548160ff021916908360ff16021790555061010082015181600001601b6101000a81548160ff021916908360ff16021790555061012082015181600101559050506036836040015190806001815401808255809150506001900390600052602060002090602091828204019190069091909190916101000a81548160ff021916908360ff16021790555082604001516035846080015160ff16815481106130d257fe5b906000526020600020018460a0015160ff16815481106130ee57fe5b90600052602060002090602091828204019190066101000a81548160ff021916908360ff1602179055506001603b6000856000015160ff1660ff1681526020019081526020016000206000856040015160ff1660ff16815260200190815260200160002060006101000a81548160ff0219169083151502179055506001603c6000856000015160ff1660ff1681526020019081526020016000206000856040015160ff1660ff16815260200190815260200160002060006101000a81548160ff0219169083151502179055507faf1b5129dbd913f0ebc8de579798cf4cf8370ce61934cf6c498a77ca4e4fd8e433603460019054906101000a900461ffff16856060015186608001518760a0015160405161320d959493929190614951565b60405180910390a16034600181819054906101000a900461ffff168092919060010191906101000a81548161ffff021916908361ffff16021790555050505050565b806033819055506000603460036101000a81548160ff0219169083600381111561327557fe5b021790555060008090505b60078160ff16101561333457603560018160018154018082558091505003906000526020600020505060008090505b60078160ff1610156133265760358260ff16815481106132cb57fe5b90600052602060002001600090806001815401808255809150506001900390600052602060002090602091828204019190069091909190916101000a81548160ff021916908360ff16021790555080806001019150506132af565b508080600101915050613280565b5073__ZKChessUtils__________________________63df9f019560386040518263ffffffff1660e01b815260040161336d9190614bcf565b60006040518083038186803b15801561338557600080fd5b505af4158015613399573d6000803e3d6000fd5b5050505050565b600073__ZKChessUtils__________________________63ab7773f485858560356037603860076040518863ffffffff1660e01b81526004016133e99796959493929190614e49565b60206040518083038186803b15801561340157600080fd5b505af4158015613415573d6000803e3d6000fd5b505050506040513d601f19601f820116820180604052508101906134399190613b66565b90509392505050565b6040518061010001604052806000600381111561345b57fe5b8152602001600060ff168152602001600060ff168152602001600060ff168152602001600060ff168152602001600060ff1681526020016000151581526020016000151581525090565b604051806101400160405280600060ff168152602001600060038111156134c857fe5b8152602001600073ffffffffffffffffffffffffffffffffffffffff168152602001600060ff168152602001600060ff168152602001600015158152602001600015158152602001600060ff168152602001600060ff168152602001600081525090565b600082601f83011261353d57600080fd5b600261355061354b8261514f565b615122565b9150818385604084028201111561356657600080fd5b60005b83811015613596578161357c88826135a0565b845260208401935060408301925050600181019050613569565b5050505092915050565b600082601f8301126135b157600080fd5b60026135c46135bf82615171565b615122565b915081838560208402820111156135da57600080fd5b60005b8381101561360a57816135f08882613b27565b8452602084019350602083019250506001810190506135dd565b5050505092915050565b600082601f83011261362557600080fd5b600461363861363382615193565b615122565b9150818385602084028201111561364e57600080fd5b60005b8381101561367e57816136648882613b27565b845260208401935060208301925050600181019050613651565b5050505092915050565b600082601f83011261369957600080fd5b60056136ac6136a7826151b5565b615122565b915081838560208402820111156136c257600080fd5b60005b838110156136f257816136d88882613b27565b8452602084019350602083019250506001810190506136c5565b5050505092915050565b600082601f83011261370d57600080fd5b813561372061371b826151d7565b615122565b9150818183526020840193506020810190508385602084028201111561374557600080fd5b60005b83811015613775578161375b8882613b3c565b845260208401935060208301925050600181019050613748565b5050505092915050565b60008151905061378e8161548d565b92915050565b6000813590506137a3816154a4565b92915050565b60006101a082840312156137bc57600080fd5b6137c66080615122565b905060006137d6848285016135a0565b60008301525060406137ea8482850161352c565b60208301525060c06137fe848285016135a0565b60408301525061010061381384828501613688565b60608301525092915050565b6000610220828403121561383257600080fd5b61383c60a0615122565b9050600061384c84828501613b3c565b600083015250602061386084828501613b12565b602083015250604061387484828501613b3c565b604083015250606061388884828501613b3c565b606083015250608061389c848285016137a9565b60808301525092915050565b600061018082840312156138bb57600080fd5b6138c56080615122565b905060006138d5848285016135a0565b60008301525060406138e98482850161352c565b60208301525060c06138fd848285016135a0565b60408301525061010061391284828501613614565b60608301525092915050565b6000610220828403121561393157600080fd5b61393b60c0615122565b9050600061394b84828501613b3c565b600083015250602061395f84828501613b12565b602083015250604061397384828501613b3c565b604083015250606082013567ffffffffffffffff81111561399357600080fd5b61399f848285016136fc565b606083015250608082013567ffffffffffffffff8111156139bf57600080fd5b6139cb848285016136fc565b60808301525060a06139df848285016138a8565b60a08301525092915050565b60006101a082840312156139fe57600080fd5b613a086080615122565b90506000613a18848285016135a0565b6000830152506040613a2c8482850161352c565b60208301525060c0613a40848285016135a0565b604083015250610100613a5584828501613688565b60608301525092915050565b60006102608284031215613a7457600080fd5b613a7e60e0615122565b90506000613a8e84828501613b3c565b6000830152506020613aa284828501613b12565b6020830152506040613ab684828501613b3c565b6040830152506060613aca84828501613794565b6060830152506080613ade84828501613b3c565b60808301525060a0613af284828501613b3c565b60a08301525060c0613b06848285016139eb565b60c08301525092915050565b600081359050613b21816154b4565b92915050565b600081359050613b36816154cb565b92915050565b600081359050613b4b816154e2565b92915050565b600081519050613b60816154e2565b92915050565b600060208284031215613b7857600080fd5b6000613b868482850161377f565b91505092915050565b600060208284031215613ba157600080fd5b6000613baf84828501613794565b91505092915050565b60006102208284031215613bcb57600080fd5b6000613bd98482850161381f565b91505092915050565b600060208284031215613bf457600080fd5b600082013567ffffffffffffffff811115613c0e57600080fd5b613c1a8482850161391e565b91505092915050565b60006102608284031215613c3657600080fd5b6000613c4484828501613a61565b91505092915050565b600060208284031215613c5f57600080fd5b6000613c6d84828501613b27565b91505092915050565b60008060408385031215613c8957600080fd5b6000613c9785828601613b27565b9250506020613ca885828601613b27565b9150509250929050565b600060208284031215613cc457600080fd5b6000613cd284828501613b3c565b91505092915050565b600060208284031215613ced57600080fd5b6000613cfb84828501613b51565b91505092915050565b60008060408385031215613d1757600080fd5b6000613d2585828601613b3c565b9250506020613d3685828601613b12565b9150509250929050565b60008060408385031215613d5357600080fd5b6000613d6185828601613b3c565b9250506020613d7285828601613b3c565b9150509250929050565b6000613d888383614009565b60408301905092915050565b6000613da08383614657565b6101008301905092915050565b6000613db983836146f9565b6101408301905092915050565b6000613dd283836148eb565b60208301905092915050565b6000613dea8383614927565b60208301905092915050565b613dff81615419565b82525050565b613e0e81615390565b82525050565b613e1d81615390565b82525050565b613e2c81615390565b82525050565b613e3b81615390565b82525050565b613e4a81615257565b613e5481846152ff565b9250613e5f826151ff565b8060005b83811015613e90578151613e778782613d7c565b9650613e82836152a4565b925050600181019050613e63565b505050505050565b613ea181615257565b613eab818461530a565b9250613eb6826151ff565b8060005b83811015613ee7578151613ece8782613d7c565b9650613ed9836152a4565b925050600181019050613eba565b505050505050565b8082525050565b6000613f0182615262565b613f0b8185615315565b9350613f1683615209565b8060005b83811015613f47578151613f2e8882613d94565b9750613f39836152b1565b925050600181019050613f1a565b5085935050505092915050565b6000613f5f8261526d565b613f698185615326565b9350613f7483615219565b8060005b83811015613fa5578151613f8c8882613dad565b9750613f97836152be565b925050600181019050613f78565b5085935050505092915050565b613fbb81615278565b613fc58184615337565b9250613fd082615229565b8060005b83811015614001578151613fe88782613dc6565b9650613ff3836152cb565b925050600181019050613fd4565b505050505050565b61401281615278565b61401c8184615342565b925061402782615229565b8060005b8381101561405857815161403f8782613dc6565b965061404a836152cb565b92505060018101905061402b565b505050505050565b61406981615283565b614073818461534d565b925061407e82615233565b8060005b838110156140af5781516140968782613dc6565b96506140a1836152d8565b925050600181019050614082565b505050505050565b6140c08161528e565b6140ca8184615358565b92506140d58261523d565b8060005b838110156141065781516140ed8782613dc6565b96506140f8836152e5565b9250506001810190506140d9565b505050505050565b6141178161528e565b6141218184615363565b925061412c8261523d565b8060005b8381101561415d5781516141448782613dc6565b965061414f836152e5565b925050600181019050614130565b505050505050565b600061417082615299565b61417a818561536e565b935061418583615247565b8060005b838110156141b657815161419d8882613dde565b97506141a8836152f2565b925050600181019050614189565b5085935050505092915050565b8082525050565b6141d3816153a2565b82525050565b6141e2816153a2565b82525050565b6141f1816153a2565b82525050565b6142008161542b565b82525050565b61420f8161542b565b82525050565b61421e8161543d565b82525050565b61422d8161543d565b82525050565b61423c8161543d565b82525050565b8082525050565b8082525050565b8082525050565b6000614264600f8361537f565b91507f6e6f7420656e6f756768206d616e6100000000000000000000000000000000006000830152602082019050919050565b60006142a460078361537f565b91507f626164205a4b50000000000000000000000000000000000000000000000000006000830152602082019050919050565b60006142e460158361537f565b91507f63616e2774206a6f696e2067616d6520747769636500000000000000000000006000830152602082019050919050565b6000614324600c8361537f565b91507f496e76616c6964206d6f766500000000000000000000000000000000000000006000830152602082019050919050565b6000614364600d8361537f565b91507f616c7265616479206163746564000000000000000000000000000000000000006000830152602082019050919050565b60006143a460178361537f565b91507f706965636520494420616c726561647920696e207573650000000000000000006000830152602082019050919050565b60006143e4600d8361537f565b91507f6e6f7420696e20626f756e6473000000000000000000000000000000000000006000830152602082019050919050565b6000614424600e8361537f565b91507f696e76616c69642061747461636b0000000000000000000000000000000000006000830152602082019050919050565b6000614464600f8361537f565b91507f63616e2774206d6f7665207468617400000000000000000000000000000000006000830152602082019050919050565b60006144a4600a8361537f565b91507f70696563652064656164000000000000000000000000000000000000000000006000830152602082019050919050565b60006144e4600d8361537f565b91507f616c7265616479206d6f766564000000000000000000000000000000000000006000830152602082019050919050565b600061452460128361537f565b91507f63616e27742073756d6d6f6e20746865726500000000000000000000000000006000830152602082019050919050565b600061456460148361537f565b91507f47616d6520616c726561647920737461727465640000000000000000000000006000830152602082019050919050565b6101a0820160008201516145ae6000850182614009565b5060208201516145c16040850182613e98565b5060408201516145d460c0850182614009565b5060608201516145e861010085018261410e565b50505050565b610220820160008201516146056000850182614927565b50602082015161461860208501826148af565b50604082015161462b6040850182614927565b50606082015161463e6060850182614927565b5060808201516146516080850182614597565b50505050565b6101008201600082015161466e6000850182614215565b50602082015161468160208501826148fa565b50604082015161469460408501826148fa565b5060608201516146a760608501826148fa565b5060808201516146ba60808501826148fa565b5060a08201516146cd60a08501826148fa565b5060c08201516146e060c08501826141ca565b5060e08201516146f360e08501826141ca565b50505050565b6101408201600082015161471060008501826148fa565b5060208201516147236020850182614215565b5060408201516147366040850182613e05565b50606082015161474960608501826148fa565b50608082015161475c60808501826148fa565b5060a082015161476f60a08501826141ca565b5060c082015161478260c08501826141ca565b5060e082015161479560e08501826148fa565b506101008201516147aa6101008501826148fa565b506101208201516147bf6101208501826148be565b50505050565b610140820160008201516147dc6000850182614927565b5060208201516147ef6020850182614233565b5060408201516148026040850182613e32565b5060608201516148156060850182614927565b5060808201516148286080850182614927565b5060a082015161483b60a08501826141e8565b5060c082015161484e60c08501826141e8565b5060e082015161486160e0850182614927565b50610100820151614876610100850182614927565b5061012082015161488b6101208501826148eb565b50505050565b61489a816153d4565b82525050565b6148a9816153d4565b82525050565b6148b8816153d4565b82525050565b6148c781615402565b82525050565b6148d681615402565b82525050565b6148e581615402565b82525050565b6148f481615402565b82525050565b6149038161540c565b82525050565b6149128161540c565b82525050565b6149218161540c565b82525050565b6149308161540c565b82525050565b600060208201905061494b6000830184613e14565b92915050565b600060a0820190506149666000830188613df6565b6149736020830187614891565b6149806040830186614224565b61498d6060830185614909565b61499a6080830184614909565b9695505050505050565b60006060820190506149b96000830186613df6565b6149c66020830185614909565b6149d36040830184614891565b949350505050565b60006040820190506149f06000830185613e14565b6149fd6020830184613e14565b9392505050565b60006020820190508181036000830152614a1e8184613ef6565b905092915050565b60006020820190508181036000830152614a408184613f54565b905092915050565b600061018082019050614a5e6000830187613fb2565b614a6b6040830186613e41565b614a7860c0830185613fb2565b614a86610100830184614060565b95945050505050565b60006101a082019050614aa56000830187613fb2565b614ab26040830186613e41565b614abf60c0830185613fb2565b614acd6101008301846140b7565b95945050505050565b6000608082019050614aeb60008301876141c3565b614af86020830186614250565b614b056040830185613e23565b614b126060830184613e23565b95945050505050565b6000602082019050614b3060008301846141d9565b92915050565b6000602082019050614b4b60008301846141f7565b92915050565b600061010082019050614b67600083018b614224565b614b74602083018a614909565b614b816040830189614909565b614b8e6060830188614909565b614b9b6080830187614909565b614ba860a0830186614909565b614bb560c08301856141d9565b614bc260e08301846141d9565b9998505050505050505050565b6000602082019050614be46000830184614242565b92915050565b60006020820190508181036000830152614c0381614257565b9050919050565b60006020820190508181036000830152614c2381614297565b9050919050565b60006020820190508181036000830152614c43816142d7565b9050919050565b60006020820190508181036000830152614c6381614317565b9050919050565b60006020820190508181036000830152614c8381614357565b9050919050565b60006020820190508181036000830152614ca381614397565b9050919050565b60006020820190508181036000830152614cc3816143d7565b9050919050565b60006020820190508181036000830152614ce381614417565b9050919050565b60006020820190508181036000830152614d0381614457565b9050919050565b60006020820190508181036000830152614d2381614497565b9050919050565b60006020820190508181036000830152614d43816144d7565b9050919050565b60006020820190508181036000830152614d6381614517565b9050919050565b60006020820190508181036000830152614d8381614557565b9050919050565b60006102c082019050614da060008301896145ee565b614dae610220830188614250565b614dbc610240830187613eef565b614dca610260830186614242565b614dd8610280830185614249565b614de66102a08301846148dc565b979650505050505050565b60006102a082019050614e0760008301886145ee565b614e15610220830187614250565b614e23610240830186614242565b614e31610260830185614249565b614e3f6102808301846148dc565b9695505050505050565b600061020082019050614e5f600083018a6147c5565b818103610140830152614e728189614165565b9050818103610160830152614e878188614165565b9050614e97610180830187613eef565b614ea56101a0830186614250565b614eb36101c0830185614242565b614ec16101e08301846148dc565b98975050505050505050565b6000602082019050614ee26000830184614891565b92915050565b600060a082019050614efd6000830188614891565b614f0a6020830187614909565b614f176040830186614909565b614f246060830185614909565b614f316080830184614909565b9695505050505050565b600060c082019050614f506000830189614891565b614f5d6020830188614909565b614f6a6040830187614909565b614f776060830186614909565b614f846080830185614909565b614f9160a0830184614909565b979650505050505050565b6000602082019050614fb160008301846148cd565b92915050565b6000602082019050614fcc6000830184614909565b92915050565b600061014082019050614fe8600083018d614909565b614ff5602083018c614224565b615002604083018b613e14565b61500f606083018a614909565b61501c6080830189614909565b61502960a08301886141d9565b61503660c08301876141d9565b61504360e0830186614909565b615051610100830185614909565b61505f6101208301846148cd565b9b9a5050505050505050505050565b600060e082019050615083600083018a614918565b6150906020830189614918565b61509d60408301886148a0565b6150aa60608301876148a0565b6150b76080830186613e23565b6150c460a0830185613e23565b6150d160c0830184614206565b98975050505050505050565b60006080820190506150f26000830187614918565b6150ff6020830186614918565b61510c6040830185614918565b6151196060830184614918565b95945050505050565b6000604051905081810181811067ffffffffffffffff8211171561514557600080fd5b8060405250919050565b600067ffffffffffffffff82111561516657600080fd5b602082029050919050565b600067ffffffffffffffff82111561518857600080fd5b602082029050919050565b600067ffffffffffffffff8211156151aa57600080fd5b602082029050919050565b600067ffffffffffffffff8211156151cc57600080fd5b602082029050919050565b600067ffffffffffffffff8211156151ee57600080fd5b602082029050602081019050919050565b6000819050919050565b6000819050602082019050919050565b6000819050602082019050919050565b6000819050919050565b6000819050919050565b6000819050919050565b6000819050602082019050919050565b600060029050919050565b600081519050919050565b600081519050919050565b600060029050919050565b600060049050919050565b600060059050919050565b600081519050919050565b6000602082019050919050565b6000602082019050919050565b6000602082019050919050565b6000602082019050919050565b6000602082019050919050565b6000602082019050919050565b6000602082019050919050565b600081905092915050565b600081905092915050565b600082825260208201905092915050565b600082825260208201905092915050565b600081905092915050565b600081905092915050565b600081905092915050565b600081905092915050565b600081905092915050565b600082825260208201905092915050565b600082825260208201905092915050565b600061539b826153e2565b9050919050565b60008115159050919050565b60008190506153bc82615473565b919050565b60008190506153cf82615480565b919050565b600061ffff82169050919050565b600073ffffffffffffffffffffffffffffffffffffffff82169050919050565b6000819050919050565b600060ff82169050919050565b60006154248261544f565b9050919050565b6000615436826153ae565b9050919050565b6000615448826153c1565b9050919050565b600061545a82615461565b9050919050565b600061546c826153e2565b9050919050565b6004811061547d57fe5b50565b6004811061548a57fe5b50565b615496816153a2565b81146154a157600080fd5b50565b600481106154b157600080fd5b50565b6154bd816153d4565b81146154c857600080fd5b50565b6154d481615402565b81146154df57600080fd5b50565b6154eb8161540c565b81146154f657600080fd5b5056fea26469706673582212209129ea64089bf636bf59daafeeeb7c81eb763b3cec40de075c541a4a413539bb64736f6c63430006070033",
  "immutableReferences": {},
  "source": "pragma solidity ^0.6.7;\npragma experimental ABIEncoderV2;\n\nimport \"@openzeppelin/contracts-ethereum-package/contracts/Initializable.sol\";\nimport \"./ZKChessTypes.sol\";\nimport \"./ZKChessUtils.sol\";\nimport \"./Verifier.sol\";\n\ncontract ZKChessGame is Initializable {\n    uint256 public constant BOARD_SIZE = 7;\n\n    uint256 public gameId;\n\n    uint8 public turnNumber;\n    uint16 public sequenceNumber;\n    GameState public gameState;\n    uint8[][] public boardPieces; // board[row][col]\n\n    uint8[] public pieceIds;\n    mapping(uint8 => Piece) public pieces;\n\n    mapping(PieceType => PieceDefaultStats) public defaultStats;\n\n    address public player1;\n    address public player2;\n\n    uint8 public player1Mana;\n    uint8 public player2Mana;\n\n    // mapping from turn # -> piece # -> has acted\n    mapping(uint8 => mapping(uint8 => bool)) public hasMoved;\n    mapping(uint8 => mapping(uint8 => bool)) public hasAttacked;\n\n    function initialize(uint256 _gameId) public {\n        gameId = _gameId;\n        gameState = GameState.WAITING_FOR_PLAYERS;\n\n        for (uint8 i = 0; i < BOARD_SIZE; i++) {\n            boardPieces.push();\n            for (uint8 j = 0; j < BOARD_SIZE; j++) {\n                boardPieces[i].push(0);\n            }\n        }\n\n        // initialize pieces\n        ZKChessUtils.initializeDefaults(defaultStats);\n    }\n\n    //////////////\n    /// EVENTS ///\n    //////////////\n\n    event GameStart(address p1, address p2);\n    event DidSummon(\n        address player,\n        uint16 sequenceNumber,\n        PieceType pieceType,\n        uint8 atRow,\n        uint8 atCol\n    );\n    event DidMove(\n        uint16 sequenceNumber,\n        uint8 pieceId,\n        uint8 fromRow,\n        uint8 fromCol,\n        uint8 toRow,\n        uint8 toCol\n    );\n    event DidAttack(\n        uint16 sequenceNumber,\n        uint8 attacker,\n        uint8 attacked,\n        uint8 attackerHp,\n        uint8 attackedHp\n    );\n    event DidEndTurn(address player, uint8 turnNumber, uint16 sequenceNumber);\n    event GameFinished();\n\n    ///////////////\n    /// GETTERS ///\n    ///////////////\n\n    function getPieces() public view returns (Piece[] memory ret) {\n        ret = new Piece[](pieceIds.length);\n        for (uint8 i = 0; i < pieceIds.length; i++) {\n            ret[i] = pieces[pieceIds[i]];\n        }\n        return ret;\n    }\n\n    function getDefaults()\n        public\n        view\n        returns (PieceDefaultStats[] memory ret)\n    {\n        ret = new PieceDefaultStats[](4);\n        // TODO hardcode bad >:(\n        for (uint8 i = 0; i < 4; i++) {\n            ret[i] = defaultStats[PieceType(i)];\n        }\n        return ret;\n    }\n\n    //////////////\n    /// Helper ///\n    //////////////\n\n    function checkAction(uint8 _turnNumber, uint16 _sequenceNumber)\n        public\n        view\n        returns (bool)\n    {\n        return\n            ZKChessUtils.checkAction(\n                _turnNumber,\n                turnNumber,\n                _sequenceNumber,\n                sequenceNumber,\n                player1,\n                player2,\n                gameState\n            );\n    }\n\n    function isValidMove(\n        Piece memory piece,\n        uint8[] memory toRow,\n        uint8[] memory toCol\n    ) private view returns (bool) {\n        return\n            ZKChessUtils.isValidMove(\n                piece,\n                toRow,\n                toCol,\n                boardPieces,\n                pieces,\n                defaultStats,\n                BOARD_SIZE\n            );\n    }\n\n    function gameShouldBeCompleted() public view returns (bool) {\n        return\n            ZKChessUtils.gameShouldBeCompleted(\n                pieceIds,\n                pieces,\n                player1,\n                player2\n            );\n    }\n\n    //////////////////////\n    /// Game Mechanics ///\n    //////////////////////\n\n    function joinGame() public {\n        require(\n            gameState == GameState.WAITING_FOR_PLAYERS,\n            \"Game already started\"\n        );\n        if (player1 == address(0)) {\n            // first player to join game\n            player1 = msg.sender;\n            return;\n        }\n        // another player has joined. game is ready to start\n\n        require(msg.sender != player1, \"can't join game twice\");\n        // randomize player order\n        if (block.timestamp % 2 == 0) {\n            player2 = msg.sender;\n        } else {\n            player2 = player1;\n            player1 = msg.sender;\n        }\n\n        // set pieces\n        pieces[1] = Piece({\n            id: 1,\n            pieceType: PieceType.PORT,\n            owner: player1,\n            row: 0,\n            col: 3,\n            alive: true,\n            commitment: 0,\n            initialized: true,\n            hp: defaultStats[PieceType.PORT].hp,\n            initializedOnTurn: 0\n        });\n        pieceIds.push(1);\n        boardPieces[0][3] = 1;\n        pieces[2] = Piece({\n            id: 2,\n            pieceType: PieceType.PORT,\n            owner: player2,\n            row: 6,\n            col: 3,\n            alive: true,\n            commitment: 0,\n            initialized: true,\n            hp: defaultStats[PieceType.PORT].hp,\n            initializedOnTurn: 0\n        });\n        pieceIds.push(2);\n        boardPieces[6][3] = 2;\n\n        gameState = GameState.P1_TO_MOVE;\n        turnNumber = 1;\n        player1Mana = turnNumber;\n        emit GameStart(player1, player2);\n    }\n\n    function doSummon(Summon memory summon) public {\n        checkAction(summon.turnNumber, summon.sequenceNumber);\n        require(!pieces[summon.pieceId].initialized, \"piece ID already in use\");\n\n        // PORT tile\n        uint8 homeRow;\n        uint8 homeCol = 3;\n        if (msg.sender == player1) {\n            homeRow = 0;\n        } else {\n            homeRow = 6;\n        }\n\n        // MANA checks\n        if (msg.sender == player1) {\n            require(\n                player1Mana >= defaultStats[summon.pieceType].cost,\n                \"not enough mana\"\n            );\n            player1Mana -= defaultStats[summon.pieceType].cost;\n        } else {\n            require(\n                player2Mana >= defaultStats[summon.pieceType].cost,\n                \"not enough mana\"\n            );\n            player2Mana -= defaultStats[summon.pieceType].cost;\n        }\n\n        // validity checks\n        if (!defaultStats[summon.pieceType].isZk) {\n            require(\n                summon.row < BOARD_SIZE && summon.col < BOARD_SIZE,\n                \"not in bounds\"\n            );\n            // if visible piece, can't summon on existing piece\n            uint8 pieceIdAtSummonTile = boardPieces[summon.row][summon.col];\n            Piece storage pieceAtSummonTile = pieces[pieceIdAtSummonTile];\n            require(!pieceAtSummonTile.alive, \"can't summon there\");\n            // must summon adjacent to the PORT tile\n            require(\n                ZKChessUtils.taxiDist(\n                    summon.row,\n                    summon.col,\n                    homeRow,\n                    homeCol\n                ) == 1,\n                \"can't summon there\"\n            );\n        } else {\n            require(\n                summon.zkp.input[1] == homeRow &&\n                    summon.zkp.input[2] == homeCol,\n                \"bad ZKP\"\n            );\n            require(summon.zkp.input[3] == 1, \"bad ZKP\");\n            require(summon.zkp.input[4] == BOARD_SIZE, \"bad ZKP\");\n            require(\n                Verifier.verifyDist1Proof(\n                    summon.zkp.a,\n                    summon.zkp.b,\n                    summon.zkp.c,\n                    summon.zkp.input\n                ),\n                \"bad ZKP\"\n            );\n        }\n\n        // create piece\n        pieces[summon.pieceId] = Piece({\n            id: summon.pieceId,\n            pieceType: summon.pieceType,\n            owner: msg.sender,\n            row: summon.row,\n            col: summon.col,\n            alive: true,\n            commitment: summon.zkp.input[0],\n            initialized: true,\n            hp: defaultStats[summon.pieceType].hp,\n            initializedOnTurn: turnNumber\n        });\n        pieceIds.push(summon.pieceId);\n        boardPieces[summon.row][summon.col] = summon.pieceId;\n        // if piece has just been made, can't use it yet\n        // in the future this should be tracked in its own field\n        hasMoved[summon.turnNumber][summon.pieceId] = true;\n        hasAttacked[summon.turnNumber][summon.pieceId] = true;\n        emit DidSummon(\n            msg.sender,\n            sequenceNumber,\n            summon.pieceType,\n            summon.row,\n            summon.col\n        );\n        sequenceNumber++;\n    }\n\n    function doMove(Move memory move) public {\n        checkAction(move.turnNumber, move.sequenceNumber);\n        Piece storage piece = pieces[move.pieceId];\n        require(\n            piece.owner == msg.sender && piece.owner != address(0),\n            \"can't move that\"\n        );\n        require(piece.alive, \"piece dead\");\n        require(!hasMoved[move.turnNumber][piece.id], \"already moved\");\n        require(!hasAttacked[move.turnNumber][piece.id], \"already acted\");\n\n        uint8 originRow = piece.row;\n        uint8 originCol = piece.col;\n        if (defaultStats[piece.pieceType].isZk) {\n            require(piece.commitment == move.zkp.input[0], \"bad ZKP\");\n            require(move.zkp.input[3] == BOARD_SIZE, \"bad ZKP\");\n            require(\n                move.zkp.input[2] <= defaultStats[piece.pieceType].mvRange,\n                \"bad ZKP\"\n            );\n            require(\n                Verifier.verifyDist2Proof(\n                    move.zkp.a,\n                    move.zkp.b,\n                    move.zkp.c,\n                    move.zkp.input\n                ),\n                \"bad ZKP\"\n            );\n            piece.commitment = move.zkp.input[1];\n        } else {\n            uint8[] memory moveToRow = move.moveToRow;\n            uint8[] memory moveToCol = move.moveToCol;\n            require(isValidMove(piece, moveToRow, moveToCol), \"Invalid move\");\n            uint8 toRow = moveToRow[moveToRow.length - 1];\n            uint8 toCol = moveToCol[moveToCol.length - 1];\n            boardPieces[piece.row][piece.col] = 0;\n            boardPieces[toRow][toCol] = piece.id;\n            piece.row = toRow;\n            piece.col = toCol;\n        }\n        hasMoved[move.turnNumber][piece.id] = true;\n        uint8 destRow;\n        uint8 destCol;\n        if (move.moveToRow.length > 0) {\n            destRow = move.moveToRow[move.moveToRow.length - 1];\n        }\n        if (move.moveToCol.length > 0) {\n            destCol = move.moveToCol[move.moveToCol.length - 1];\n        }\n        emit DidMove(\n            sequenceNumber,\n            move.pieceId,\n            originRow,\n            originCol,\n            destRow,\n            destCol\n        );\n        sequenceNumber++;\n    }\n\n    function doAttack(Attack memory attack) public {\n        checkAction(attack.turnNumber, attack.sequenceNumber);\n        require(\n            ZKChessUtils.checkAttack(\n                attack,\n                pieces,\n                defaultStats,\n                hasAttacked,\n                BOARD_SIZE\n            ),\n            \"invalid attack\"\n        );\n\n        ZKChessUtils.executeAttack(\n            attack,\n            pieces,\n            boardPieces,\n            defaultStats,\n            hasAttacked,\n            BOARD_SIZE\n        );\n        emit DidAttack(\n            sequenceNumber,\n            attack.pieceId,\n            attack.attackedId,\n            pieces[attack.pieceId].hp,\n            pieces[attack.attackedId].hp\n        );\n        sequenceNumber++;\n    }\n\n    function endTurn(uint8 _turnNumber, uint8 _sequenceNumber) public {\n        checkAction(_turnNumber, _sequenceNumber);\n        if (msg.sender == player1) {\n            // change to p2's turn\n            player1Mana = 0;\n            player2Mana = turnNumber;\n            if (player2Mana > 8) {\n                player2Mana = 8;\n            }\n            gameState = GameState.P2_TO_MOVE;\n        } else {\n            // change to p1's turn\n            turnNumber++;\n            player2Mana = 0;\n            player1Mana = turnNumber;\n            if (player1Mana > 8) {\n                player1Mana = 8;\n            }\n            gameState = GameState.P1_TO_MOVE;\n        }\n        emit DidEndTurn(msg.sender, turnNumber, sequenceNumber);\n        sequenceNumber++;\n\n        if (gameShouldBeCompleted()) {\n            gameState = GameState.COMPLETE;\n            emit GameFinished();\n        }\n    }\n}\n",
  "sourcePath": "/Users/bgu/zk-chess/eth/contracts/ZKChessGame.sol",
  "compiler": {
    "name": "solc",
    "version": "0.6.7+commit.b8d736ae.Emscripten.clang"
  },
  "schemaVersion": "3.3.1",
  "updatedAt": "2020-11-12T20:44:43.678Z",
  "networkType": "ethereum",
  "devdoc": {
    "methods": {}
  },
  "userdoc": {
    "methods": {
      "checkAction(uint8,uint16)": {
        "notice": "/////////// Helper /// ///////////"
      },
      "getPieces()": {
        "notice": "//////////// GETTERS /// ////////////"
      },
      "joinGame()": {
        "notice": "/////////////////// Game Mechanics /// ///////////////////"
      }
    }
  }
}