{
  "contractName": "ZKChessGame",
  "abi": [
    {
      "anonymous": false,
      "inputs": [
        {
          "indexed": false,
          "internalType": "uint16",
          "name": "sequenceNumber",
          "type": "uint16"
        },
        {
          "indexed": false,
          "internalType": "uint8",
          "name": "attacker",
          "type": "uint8"
        },
        {
          "indexed": false,
          "internalType": "uint8",
          "name": "attacked",
          "type": "uint8"
        },
        {
          "indexed": false,
          "internalType": "uint8",
          "name": "attackerHp",
          "type": "uint8"
        },
        {
          "indexed": false,
          "internalType": "uint8",
          "name": "attackedHp",
          "type": "uint8"
        }
      ],
      "name": "DidAttack",
      "type": "event"
    },
    {
      "anonymous": false,
      "inputs": [
        {
          "indexed": false,
          "internalType": "address",
          "name": "player",
          "type": "address"
        },
        {
          "indexed": false,
          "internalType": "uint8",
          "name": "turnNumber",
          "type": "uint8"
        },
        {
          "indexed": false,
          "internalType": "uint16",
          "name": "sequenceNumber",
          "type": "uint16"
        }
      ],
      "name": "DidEndTurn",
      "type": "event"
    },
    {
      "anonymous": false,
      "inputs": [
        {
          "indexed": false,
          "internalType": "uint16",
          "name": "sequenceNumber",
          "type": "uint16"
        },
        {
          "indexed": false,
          "internalType": "uint8",
          "name": "pieceId",
          "type": "uint8"
        },
        {
          "indexed": false,
          "internalType": "uint8",
          "name": "fromRow",
          "type": "uint8"
        },
        {
          "indexed": false,
          "internalType": "uint8",
          "name": "fromCol",
          "type": "uint8"
        },
        {
          "indexed": false,
          "internalType": "uint8",
          "name": "toRow",
          "type": "uint8"
        },
        {
          "indexed": false,
          "internalType": "uint8",
          "name": "toCol",
          "type": "uint8"
        }
      ],
      "name": "DidMove",
      "type": "event"
    },
    {
      "anonymous": false,
      "inputs": [
        {
          "indexed": false,
          "internalType": "address",
          "name": "player",
          "type": "address"
        },
        {
          "indexed": false,
          "internalType": "uint8",
          "name": "pieceId",
          "type": "uint8"
        },
        {
          "indexed": false,
          "internalType": "uint16",
          "name": "sequenceNumber",
          "type": "uint16"
        },
        {
          "indexed": false,
          "internalType": "enum PieceType",
          "name": "pieceType",
          "type": "uint8"
        },
        {
          "indexed": false,
          "internalType": "uint8",
          "name": "atRow",
          "type": "uint8"
        },
        {
          "indexed": false,
          "internalType": "uint8",
          "name": "atCol",
          "type": "uint8"
        }
      ],
      "name": "DidSummon",
      "type": "event"
    },
    {
      "anonymous": false,
      "inputs": [],
      "name": "GameFinished",
      "type": "event"
    },
    {
      "anonymous": false,
      "inputs": [
        {
          "indexed": false,
          "internalType": "address",
          "name": "p1",
          "type": "address"
        },
        {
          "indexed": false,
          "internalType": "address",
          "name": "p2",
          "type": "address"
        }
      ],
      "name": "GameStart",
      "type": "event"
    },
    {
      "inputs": [],
      "name": "NCOLS",
      "outputs": [
        {
          "internalType": "uint8",
          "name": "",
          "type": "uint8"
        }
      ],
      "stateMutability": "view",
      "type": "function",
      "constant": true
    },
    {
      "inputs": [],
      "name": "NROWS",
      "outputs": [
        {
          "internalType": "uint8",
          "name": "",
          "type": "uint8"
        }
      ],
      "stateMutability": "view",
      "type": "function",
      "constant": true
    },
    {
      "inputs": [
        {
          "internalType": "uint256",
          "name": "",
          "type": "uint256"
        },
        {
          "internalType": "uint256",
          "name": "",
          "type": "uint256"
        }
      ],
      "name": "boardPieces",
      "outputs": [
        {
          "internalType": "uint8",
          "name": "",
          "type": "uint8"
        }
      ],
      "stateMutability": "view",
      "type": "function",
      "constant": true
    },
    {
      "inputs": [
        {
          "internalType": "enum PieceType",
          "name": "",
          "type": "uint8"
        }
      ],
      "name": "defaultStats",
      "outputs": [
        {
          "internalType": "enum PieceType",
          "name": "pieceType",
          "type": "uint8"
        },
        {
          "internalType": "uint8",
          "name": "mvRange",
          "type": "uint8"
        },
        {
          "internalType": "uint8",
          "name": "atkRange",
          "type": "uint8"
        },
        {
          "internalType": "uint8",
          "name": "hp",
          "type": "uint8"
        },
        {
          "internalType": "uint8",
          "name": "atk",
          "type": "uint8"
        },
        {
          "internalType": "uint8",
          "name": "cost",
          "type": "uint8"
        },
        {
          "internalType": "bool",
          "name": "isZk",
          "type": "bool"
        },
        {
          "internalType": "bool",
          "name": "kamikaze",
          "type": "bool"
        }
      ],
      "stateMutability": "view",
      "type": "function",
      "constant": true
    },
    {
      "inputs": [],
      "name": "gameId",
      "outputs": [
        {
          "internalType": "uint256",
          "name": "",
          "type": "uint256"
        }
      ],
      "stateMutability": "view",
      "type": "function",
      "constant": true
    },
    {
      "inputs": [],
      "name": "gameState",
      "outputs": [
        {
          "internalType": "enum GameState",
          "name": "",
          "type": "uint8"
        }
      ],
      "stateMutability": "view",
      "type": "function",
      "constant": true
    },
    {
      "inputs": [
        {
          "internalType": "uint8",
          "name": "",
          "type": "uint8"
        },
        {
          "internalType": "uint8",
          "name": "",
          "type": "uint8"
        }
      ],
      "name": "hasAttacked",
      "outputs": [
        {
          "internalType": "bool",
          "name": "",
          "type": "bool"
        }
      ],
      "stateMutability": "view",
      "type": "function",
      "constant": true
    },
    {
      "inputs": [
        {
          "internalType": "uint8",
          "name": "",
          "type": "uint8"
        },
        {
          "internalType": "uint8",
          "name": "",
          "type": "uint8"
        }
      ],
      "name": "hasMoved",
      "outputs": [
        {
          "internalType": "bool",
          "name": "",
          "type": "bool"
        }
      ],
      "stateMutability": "view",
      "type": "function",
      "constant": true
    },
    {
      "inputs": [],
      "name": "lastActionTimestamp",
      "outputs": [
        {
          "internalType": "uint256",
          "name": "",
          "type": "uint256"
        }
      ],
      "stateMutability": "view",
      "type": "function",
      "constant": true
    },
    {
      "inputs": [
        {
          "internalType": "uint256",
          "name": "",
          "type": "uint256"
        }
      ],
      "name": "objectives",
      "outputs": [
        {
          "internalType": "uint8",
          "name": "row",
          "type": "uint8"
        },
        {
          "internalType": "uint8",
          "name": "col",
          "type": "uint8"
        }
      ],
      "stateMutability": "view",
      "type": "function",
      "constant": true
    },
    {
      "inputs": [
        {
          "internalType": "uint256",
          "name": "",
          "type": "uint256"
        }
      ],
      "name": "pieceIds",
      "outputs": [
        {
          "internalType": "uint8",
          "name": "",
          "type": "uint8"
        }
      ],
      "stateMutability": "view",
      "type": "function",
      "constant": true
    },
    {
      "inputs": [
        {
          "internalType": "uint8",
          "name": "",
          "type": "uint8"
        }
      ],
      "name": "pieces",
      "outputs": [
        {
          "internalType": "uint8",
          "name": "id",
          "type": "uint8"
        },
        {
          "internalType": "enum PieceType",
          "name": "pieceType",
          "type": "uint8"
        },
        {
          "internalType": "address",
          "name": "owner",
          "type": "address"
        },
        {
          "internalType": "uint8",
          "name": "row",
          "type": "uint8"
        },
        {
          "internalType": "uint8",
          "name": "col",
          "type": "uint8"
        },
        {
          "internalType": "bool",
          "name": "alive",
          "type": "bool"
        },
        {
          "internalType": "bool",
          "name": "initialized",
          "type": "bool"
        },
        {
          "internalType": "uint8",
          "name": "hp",
          "type": "uint8"
        },
        {
          "internalType": "uint8",
          "name": "initializedOnTurn",
          "type": "uint8"
        },
        {
          "internalType": "uint256",
          "name": "commitment",
          "type": "uint256"
        },
        {
          "internalType": "uint8",
          "name": "lastMove",
          "type": "uint8"
        },
        {
          "internalType": "uint8",
          "name": "lastAttack",
          "type": "uint8"
        }
      ],
      "stateMutability": "view",
      "type": "function",
      "constant": true
    },
    {
      "inputs": [],
      "name": "player1",
      "outputs": [
        {
          "internalType": "address",
          "name": "",
          "type": "address"
        }
      ],
      "stateMutability": "view",
      "type": "function",
      "constant": true
    },
    {
      "inputs": [],
      "name": "player1Mana",
      "outputs": [
        {
          "internalType": "uint8",
          "name": "",
          "type": "uint8"
        }
      ],
      "stateMutability": "view",
      "type": "function",
      "constant": true
    },
    {
      "inputs": [],
      "name": "player2",
      "outputs": [
        {
          "internalType": "address",
          "name": "",
          "type": "address"
        }
      ],
      "stateMutability": "view",
      "type": "function",
      "constant": true
    },
    {
      "inputs": [],
      "name": "player2Mana",
      "outputs": [
        {
          "internalType": "uint8",
          "name": "",
          "type": "uint8"
        }
      ],
      "stateMutability": "view",
      "type": "function",
      "constant": true
    },
    {
      "inputs": [],
      "name": "sequenceNumber",
      "outputs": [
        {
          "internalType": "uint16",
          "name": "",
          "type": "uint16"
        }
      ],
      "stateMutability": "view",
      "type": "function",
      "constant": true
    },
    {
      "inputs": [],
      "name": "turnNumber",
      "outputs": [
        {
          "internalType": "uint8",
          "name": "",
          "type": "uint8"
        }
      ],
      "stateMutability": "view",
      "type": "function",
      "constant": true
    },
    {
      "inputs": [
        {
          "internalType": "uint256",
          "name": "_gameId",
          "type": "uint256"
        }
      ],
      "name": "initialize",
      "outputs": [],
      "stateMutability": "nonpayable",
      "type": "function"
    },
    {
      "inputs": [],
      "name": "getInfo",
      "outputs": [
        {
          "components": [
            {
              "internalType": "uint256",
              "name": "gameId",
              "type": "uint256"
            },
            {
              "internalType": "uint8",
              "name": "NROWS",
              "type": "uint8"
            },
            {
              "internalType": "uint8",
              "name": "NCOLS",
              "type": "uint8"
            },
            {
              "internalType": "uint8",
              "name": "turnNumber",
              "type": "uint8"
            },
            {
              "internalType": "uint16",
              "name": "sequenceNumber",
              "type": "uint16"
            },
            {
              "internalType": "enum GameState",
              "name": "gameState",
              "type": "uint8"
            },
            {
              "internalType": "address",
              "name": "player1",
              "type": "address"
            },
            {
              "internalType": "address",
              "name": "player2",
              "type": "address"
            },
            {
              "internalType": "uint8",
              "name": "player1Mana",
              "type": "uint8"
            },
            {
              "internalType": "uint8",
              "name": "player2Mana",
              "type": "uint8"
            },
            {
              "internalType": "uint256",
              "name": "lastActionTimestamp",
              "type": "uint256"
            }
          ],
          "internalType": "struct GameInfo",
          "name": "ret",
          "type": "tuple"
        }
      ],
      "stateMutability": "view",
      "type": "function",
      "constant": true
    },
    {
      "inputs": [],
      "name": "getPieces",
      "outputs": [
        {
          "components": [
            {
              "internalType": "uint8",
              "name": "id",
              "type": "uint8"
            },
            {
              "internalType": "enum PieceType",
              "name": "pieceType",
              "type": "uint8"
            },
            {
              "internalType": "address",
              "name": "owner",
              "type": "address"
            },
            {
              "internalType": "uint8",
              "name": "row",
              "type": "uint8"
            },
            {
              "internalType": "uint8",
              "name": "col",
              "type": "uint8"
            },
            {
              "internalType": "bool",
              "name": "alive",
              "type": "bool"
            },
            {
              "internalType": "bool",
              "name": "initialized",
              "type": "bool"
            },
            {
              "internalType": "uint8",
              "name": "hp",
              "type": "uint8"
            },
            {
              "internalType": "uint8",
              "name": "initializedOnTurn",
              "type": "uint8"
            },
            {
              "internalType": "uint256",
              "name": "commitment",
              "type": "uint256"
            },
            {
              "internalType": "uint8",
              "name": "lastMove",
              "type": "uint8"
            },
            {
              "internalType": "uint8",
              "name": "lastAttack",
              "type": "uint8"
            }
          ],
          "internalType": "struct Piece[]",
          "name": "ret",
          "type": "tuple[]"
        }
      ],
      "stateMutability": "view",
      "type": "function",
      "constant": true
    },
    {
      "inputs": [],
      "name": "getDefaults",
      "outputs": [
        {
          "components": [
            {
              "internalType": "enum PieceType",
              "name": "pieceType",
              "type": "uint8"
            },
            {
              "internalType": "uint8",
              "name": "mvRange",
              "type": "uint8"
            },
            {
              "internalType": "uint8",
              "name": "atkRange",
              "type": "uint8"
            },
            {
              "internalType": "uint8",
              "name": "hp",
              "type": "uint8"
            },
            {
              "internalType": "uint8",
              "name": "atk",
              "type": "uint8"
            },
            {
              "internalType": "uint8",
              "name": "cost",
              "type": "uint8"
            },
            {
              "internalType": "bool",
              "name": "isZk",
              "type": "bool"
            },
            {
              "internalType": "bool",
              "name": "kamikaze",
              "type": "bool"
            }
          ],
          "internalType": "struct PieceDefaultStats[]",
          "name": "ret",
          "type": "tuple[]"
        }
      ],
      "stateMutability": "view",
      "type": "function",
      "constant": true
    },
    {
      "inputs": [],
      "name": "getObjectives",
      "outputs": [
        {
          "components": [
            {
              "internalType": "uint8",
              "name": "row",
              "type": "uint8"
            },
            {
              "internalType": "uint8",
              "name": "col",
              "type": "uint8"
            }
          ],
          "internalType": "struct Objective[]",
          "name": "ret",
          "type": "tuple[]"
        }
      ],
      "stateMutability": "view",
      "type": "function",
      "constant": true
    },
    {
      "inputs": [
        {
          "internalType": "uint8",
          "name": "_turnNumber",
          "type": "uint8"
        },
        {
          "internalType": "uint16",
          "name": "_sequenceNumber",
          "type": "uint16"
        }
      ],
      "name": "checkAction",
      "outputs": [
        {
          "internalType": "bool",
          "name": "",
          "type": "bool"
        }
      ],
      "stateMutability": "view",
      "type": "function",
      "constant": true
    },
    {
      "inputs": [],
      "name": "gameShouldBeCompleted",
      "outputs": [
        {
          "internalType": "bool",
          "name": "",
          "type": "bool"
        }
      ],
      "stateMutability": "view",
      "type": "function",
      "constant": true
    },
    {
      "inputs": [],
      "name": "joinGame",
      "outputs": [],
      "stateMutability": "nonpayable",
      "type": "function"
    },
    {
      "inputs": [
        {
          "components": [
            {
              "internalType": "uint8",
              "name": "turnNumber",
              "type": "uint8"
            },
            {
              "internalType": "uint16",
              "name": "sequenceNumber",
              "type": "uint16"
            },
            {
              "internalType": "uint8",
              "name": "pieceId",
              "type": "uint8"
            },
            {
              "internalType": "enum PieceType",
              "name": "pieceType",
              "type": "uint8"
            },
            {
              "internalType": "uint8",
              "name": "row",
              "type": "uint8"
            },
            {
              "internalType": "uint8",
              "name": "col",
              "type": "uint8"
            },
            {
              "components": [
                {
                  "internalType": "uint256[2]",
                  "name": "a",
                  "type": "uint256[2]"
                },
                {
                  "internalType": "uint256[2][2]",
                  "name": "b",
                  "type": "uint256[2][2]"
                },
                {
                  "internalType": "uint256[2]",
                  "name": "c",
                  "type": "uint256[2]"
                },
                {
                  "internalType": "uint256[6]",
                  "name": "input",
                  "type": "uint256[6]"
                }
              ],
              "internalType": "struct SummonZKP",
              "name": "zkp",
              "type": "tuple"
            }
          ],
          "internalType": "struct Summon",
          "name": "summon",
          "type": "tuple"
        }
      ],
      "name": "doSummon",
      "outputs": [],
      "stateMutability": "nonpayable",
      "type": "function"
    },
    {
      "inputs": [
        {
          "components": [
            {
              "internalType": "uint8",
              "name": "turnNumber",
              "type": "uint8"
            },
            {
              "internalType": "uint16",
              "name": "sequenceNumber",
              "type": "uint16"
            },
            {
              "internalType": "uint8",
              "name": "pieceId",
              "type": "uint8"
            },
            {
              "internalType": "uint8[]",
              "name": "moveToRow",
              "type": "uint8[]"
            },
            {
              "internalType": "uint8[]",
              "name": "moveToCol",
              "type": "uint8[]"
            },
            {
              "components": [
                {
                  "internalType": "uint256[2]",
                  "name": "a",
                  "type": "uint256[2]"
                },
                {
                  "internalType": "uint256[2][2]",
                  "name": "b",
                  "type": "uint256[2][2]"
                },
                {
                  "internalType": "uint256[2]",
                  "name": "c",
                  "type": "uint256[2]"
                },
                {
                  "internalType": "uint256[5]",
                  "name": "input",
                  "type": "uint256[5]"
                }
              ],
              "internalType": "struct MoveZKP",
              "name": "zkp",
              "type": "tuple"
            }
          ],
          "internalType": "struct Move",
          "name": "move",
          "type": "tuple"
        }
      ],
      "name": "doMove",
      "outputs": [],
      "stateMutability": "nonpayable",
      "type": "function"
    },
    {
      "inputs": [
        {
          "components": [
            {
              "internalType": "uint8",
              "name": "turnNumber",
              "type": "uint8"
            },
            {
              "internalType": "uint16",
              "name": "sequenceNumber",
              "type": "uint16"
            },
            {
              "internalType": "uint8",
              "name": "pieceId",
              "type": "uint8"
            },
            {
              "internalType": "uint8",
              "name": "attackedId",
              "type": "uint8"
            },
            {
              "components": [
                {
                  "internalType": "uint256[2]",
                  "name": "a",
                  "type": "uint256[2]"
                },
                {
                  "internalType": "uint256[2][2]",
                  "name": "b",
                  "type": "uint256[2][2]"
                },
                {
                  "internalType": "uint256[2]",
                  "name": "c",
                  "type": "uint256[2]"
                },
                {
                  "internalType": "uint256[6]",
                  "name": "input",
                  "type": "uint256[6]"
                }
              ],
              "internalType": "struct AttackZKP",
              "name": "zkp",
              "type": "tuple"
            }
          ],
          "internalType": "struct Attack",
          "name": "attack",
          "type": "tuple"
        }
      ],
      "name": "doAttack",
      "outputs": [],
      "stateMutability": "nonpayable",
      "type": "function"
    },
    {
      "inputs": [
        {
          "internalType": "uint8",
          "name": "_turnNumber",
          "type": "uint8"
        },
        {
          "internalType": "uint8",
          "name": "_sequenceNumber",
          "type": "uint8"
        }
      ],
      "name": "endTurn",
      "outputs": [],
      "stateMutability": "nonpayable",
      "type": "function"
    }
  ],
  "bytecode": "0x608060405234801561001057600080fd5b5061551d806100206000396000f3fe608060405234801561001057600080fd5b50600436106101da5760003560e01c80637e15247d11610104578063d1f9c24d116100a2578063df54a92811610071578063df54a92814610562578063e8f5294d14610592578063eac697c9146105ae578063fe4b84df146105cc576101da565b8063d1f9c24d146104fe578063d30895e41461051c578063d4f77b1c1461053a578063d7c81b5514610544576101da565b8063b172ed4d116100de578063b172ed4d14610462578063c0c74a7614610480578063cf615f6c146104b0578063cfecc6de146104ce576101da565b80637e15247d146103f857806381cb97ca1461041657806385c55ab914610446576101da565b806351df541c1161017c5780635a9b0b891161014b5780635a9b0b891461038057806362d9fd871461039e57806364ca23ef146103bc5780637267a359146103da576101da565b806351df541c1461030a5780635700401e1461032857806358f980911461034657806359a5f12d14610362576101da565b80632c784f32116101b85780632c784f321461024c57806339813cbd146102875780633fb7388e146102a3578063430632ea146102d3576101da565b806311628abc146101df5780631d99a4d3146101fd5780632a5102fb1461022e575b600080fd5b6101e76105e8565b6040516101f49190614f13565b60405180910390f35b61021760048036038101906102129190613ae3565b6105fb565b604051610225929190614fe8565b60405180910390f35b610236610642565b6040516102439190614f13565b60405180910390f35b61026660048036038101906102619190613b48565b610647565b60405161027e9c9b9a99989796959493929190614f2e565b60405180910390f35b6102a1600480360381019061029c9190613bd6565b610749565b005b6102bd60048036038101906102b89190613b0c565b610d62565b6040516102ca9190614f13565b60405180910390f35b6102ed60048036038101906102e89190613a25565b610dab565b604051610301989796959493929190614b10565b60405180910390f35b610312610e5b565b60405161031f9190614ada565b60405180910390f35b610330610f35565b60405161033d9190614f13565b60405180910390f35b610360600480360381019061035b9190613a4e565b610f48565b005b61036a611187565b6040516103779190614890565b60405180910390f35b6103886111ad565b6040516103959190614d88565b60405180910390f35b6103a66112e9565b6040516103b39190614f13565b60405180910390f35b6103c46112ee565b6040516103d19190614e29565b60405180910390f35b6103e2611302565b6040516103ef9190614f13565b60405180910390f35b610400611315565b60405161040d91906149cd565b60405180910390f35b610430600480360381019061042b9190613bd6565b611413565b60405161043d9190614ada565b60405180910390f35b610460600480360381019061045b9190613a78565b611442565b005b61046a611883565b6040516104779190614a0a565b60405180910390f35b61049a60048036038101906104959190613b9a565b611a51565b6040516104a79190614ada565b60405180910390f35b6104b8611b60565b6040516104c59190614a2c565b60405180910390f35b6104e860048036038101906104e39190613ae3565b611de1565b6040516104f59190614f13565b60405180910390f35b610506611e12565b6040516105139190614af5565b60405180910390f35b610524611e25565b6040516105319190614890565b60405180910390f35b610542611e4b565b005b61054c612289565b6040516105599190614ef8565b60405180910390f35b61057c60048036038101906105779190613bd6565b61228f565b6040516105899190614ada565b60405180910390f35b6105ac60048036038101906105a79190613ab9565b6122be565b005b6105b661303b565b6040516105c39190614ef8565b60405180910390f35b6105e660048036038101906105e19190613ae3565b613041565b005b603b60159054906101000a900460ff1681565b6037818154811061060857fe5b906000526020600020016000915090508060000160009054906101000a900460ff16908060000160019054906101000a900460ff16905082565b600581565b60386020528060005260406000206000915090508060000160009054906101000a900460ff16908060000160019054906101000a900460ff16908060000160029054906101000a900473ffffffffffffffffffffffffffffffffffffffff16908060000160169054906101000a900460ff16908060000160179054906101000a900460ff16908060000160189054906101000a900460ff16908060000160199054906101000a900460ff169080600001601a9054906101000a900460ff169080600001601b9054906101000a900460ff16908060010154908060020160009054906101000a900460ff16908060020160019054906101000a900460ff1690508c565b42603c8190555061075d828260ff16611a51565b50603a60009054906101000a900473ffffffffffffffffffffffffffffffffffffffff1673ffffffffffffffffffffffffffffffffffffffff163373ffffffffffffffffffffffffffffffffffffffff161415610a0b576000603b60146101000a81548160ff021916908360ff160217905550603460009054906101000a900460ff16603b60156101000a81548160ff021916908360ff1602179055506008603b60159054906101000a900460ff1660ff161115610832576008603b60156101000a81548160ff021916908360ff1602179055505b60008090505b6037805490508160ff1610156109e157600060378260ff168154811061085a57fe5b9060005260206000200160000160009054906101000a900460ff169050600060378360ff168154811061088957fe5b9060005260206000200160000160019054906101000a900460ff16905060006038600060358560ff16815481106108bc57fe5b906000526020600020018460ff16815481106108d457fe5b90600052602060002090602091828204019190069054906101000a900460ff1660ff1660ff16815260200190815260200160002090508060000160189054906101000a900460ff1680156109995750603b60009054906101000a900473ffffffffffffffffffffffffffffffffffffffff1673ffffffffffffffffffffffffffffffffffffffff168160000160029054906101000a900473ffffffffffffffffffffffffffffffffffffffff1673ffffffffffffffffffffffffffffffffffffffff16145b156109d157603b601581819054906101000a900460ff168092919060010191906101000a81548160ff021916908360ff160217905550505b5050508080600101915050610838565b506002603460036101000a81548160ff02191690836003811115610a0157fe5b0217905550610c90565b6034600081819054906101000a900460ff168092919060010191906101000a81548160ff021916908360ff160217905550506000603b60156101000a81548160ff021916908360ff160217905550603460009054906101000a900460ff16603b60146101000a81548160ff021916908360ff1602179055506008603b60149054906101000a900460ff1660ff161115610abb576008603b60146101000a81548160ff021916908360ff1602179055505b60008090505b6037805490508160ff161015610c6a57600060378260ff1681548110610ae357fe5b9060005260206000200160000160009054906101000a900460ff169050600060378360ff1681548110610b1257fe5b9060005260206000200160000160019054906101000a900460ff16905060006038600060358560ff1681548110610b4557fe5b906000526020600020018460ff1681548110610b5d57fe5b90600052602060002090602091828204019190069054906101000a900460ff1660ff1660ff16815260200190815260200160002090508060000160189054906101000a900460ff168015610c225750603a60009054906101000a900473ffffffffffffffffffffffffffffffffffffffff1673ffffffffffffffffffffffffffffffffffffffff168160000160029054906101000a900473ffffffffffffffffffffffffffffffffffffffff1673ffffffffffffffffffffffffffffffffffffffff16145b15610c5a57603b601481819054906101000a900460ff168092919060010191906101000a81548160ff021916908360ff160217905550505b5050508080600101915050610ac1565b506001603460036101000a81548160ff02191690836003811115610c8a57fe5b02179055505b7f27e77cb9303b56e18ceb82b3e0df64b35731cea5df6f30547f9fec78b1081bbf338383604051610cc39392919061490c565b60405180910390a16034600181819054906101000a900461ffff168092919060010191906101000a81548161ffff021916908361ffff16021790555050610d08610e5b565b15610d5e576003603460036101000a81548160ff02191690836003811115610d2c57fe5b02179055507fb537cbcadc098cfedf5a04ef7e68a8554b55f7e45bfdaca1cbc51a686ef65f4860405160405180910390a15b5050565b60358281548110610d6f57fe5b906000526020600020018181548110610d8457fe5b9060005260206000209060209182820401919006915091509054906101000a900460ff1681565b60396020528060005260406000206000915090508060000160009054906101000a900460ff16908060000160019054906101000a900460ff16908060000160029054906101000a900460ff16908060000160039054906101000a900460ff16908060000160049054906101000a900460ff16908060000160059054906101000a900460ff16908060000160069054906101000a900460ff16908060000160079054906101000a900460ff16905088565b600073__ZKChessUtils__________________________63e382904460366038603a60009054906101000a900473ffffffffffffffffffffffffffffffffffffffff16603b60009054906101000a900473ffffffffffffffffffffffffffffffffffffffff166040518563ffffffff1660e01b8152600401610ee09493929190614a95565b60206040518083038186803b158015610ef857600080fd5b505af4158015610f0c573d6000803e3d6000fd5b505050506040513d601f19601f82011682018060405250810190610f3091906139fc565b905090565b603460009054906101000a900460ff1681565b42603c81905550610f6181600001518260200151611a51565b5073__ZKChessUtils__________________________6369fe0a208260386039603e600560076040518763ffffffff1660e01b8152600401610fa896959493929190614d21565b60206040518083038186803b158015610fc057600080fd5b505af4158015610fd4573d6000803e3d6000fd5b505050506040513d601f19601f82011682018060405250810190610ff891906139fc565b611037576040517f08c379a000000000000000000000000000000000000000000000000000000000815260040161102e90614c69565b60405180910390fd5b73__ZKChessUtils__________________________6317a5da6382603860356039603e6040518663ffffffff1660e01b815260040161107a959493929190614cc9565b60006040518083038186803b15801561109257600080fd5b505af41580156110a6573d6000803e3d6000fd5b505050507f26b1bbbf4d915af107239a76abff01456db75ac5dd5aafafd4b3d1286060734681602001518260400151836060015160386000866040015160ff1660ff168152602001908152602001600020600001601a9054906101000a900460ff1660386000876060015160ff1660ff168152602001908152602001600020600001601a9054906101000a900460ff16604051611147959493929190614e44565b60405180910390a16034600181819054906101000a900461ffff168092919060010191906101000a81548161ffff021916908361ffff1602179055505050565b603b60009054906101000a900473ffffffffffffffffffffffffffffffffffffffff1681565b6111b5613200565b6040518061016001604052806033548152602001600560ff168152602001600760ff168152602001603460009054906101000a900460ff1660ff168152602001603460019054906101000a900461ffff1661ffff168152602001603460039054906101000a900460ff16600381111561122a57fe5b8152602001603a60009054906101000a900473ffffffffffffffffffffffffffffffffffffffff1673ffffffffffffffffffffffffffffffffffffffff168152602001603b60009054906101000a900473ffffffffffffffffffffffffffffffffffffffff1673ffffffffffffffffffffffffffffffffffffffff168152602001603b60149054906101000a900460ff1660ff168152602001603b60159054906101000a900460ff1660ff168152602001603c54815250905080905090565b600781565b603460019054906101000a900461ffff1681565b603b60149054906101000a900460ff1681565b606060378054905067ffffffffffffffff8111801561133357600080fd5b5060405190808252806020026020018201604052801561136d57816020015b61135a6132a4565b8152602001906001900390816113525790505b50905060008090505b6037805490508160ff16101561140c5760378160ff168154811061139657fe5b906000526020600020016040518060400160405290816000820160009054906101000a900460ff1660ff1660ff1681526020016000820160019054906101000a900460ff1660ff1660ff1681525050828260ff16815181106113f457fe5b60200260200101819052508080600101915050611376565b5080905090565b603e6020528160005260406000206020528060005260406000206000915091509054906101000a900460ff1681565b42603c8190555061145b81600001518260200151611a51565b50600060386000836040015160ff1660ff168152602001908152602001600020905060008160000160169054906101000a900460ff16905060008260000160179054906101000a900460ff16905073__ZKChessUtils__________________________630233d6fb8560386039603d603e6035600560076040518963ffffffff1660e01b81526004016114f5989796959493929190614da4565b60206040518083038186803b15801561150d57600080fd5b505af4158015611521573d6000803e3d6000fd5b505050506040513d601f19601f8201168201806040525081019061154591906139fc565b611584576040517f08c379a000000000000000000000000000000000000000000000000000000000815260040161157b90614c09565b60405180910390fd5b603960008460000160019054906101000a900460ff1660058111156115a557fe5b60058111156115b057fe5b815260200190815260200160002060000160069054906101000a900460ff16156115fb578360a00151606001516001600581106115e957fe5b6020020151836001018190555061175e565b60608460600151905060608560800151905060008260018451038151811061161f57fe5b6020026020010151905060008260018451038151811061163b57fe5b60200260200101519050600060358860000160169054906101000a900460ff1660ff168154811061166857fe5b906000526020600020018860000160179054906101000a900460ff1660ff168154811061169157fe5b90600052602060002090602091828204019190066101000a81548160ff021916908360ff1602179055508660000160009054906101000a900460ff1660358360ff16815481106116dd57fe5b906000526020600020018260ff16815481106116f557fe5b90600052602060002090602091828204019190066101000a81548160ff021916908360ff160217905550818760000160166101000a81548160ff021916908360ff160217905550808760000160176101000a81548160ff021916908360ff160217905550505050505b6001603d6000866000015160ff1660ff16815260200190815260200160002060008560000160009054906101000a900460ff1660ff1660ff16815260200190815260200160002060006101000a81548160ff02191690831515021790555083600001518360020160006101000a81548160ff021916908360ff1602179055507f7e2f4aae474473f9e261f72d50b4f8aaabb3f5380276750de70e0121b377fac68460200151856040015184848760000160169054906101000a900460ff168860000160179054906101000a900460ff1660405161184096959493929190614e97565b60405180910390a16034600181819054906101000a900461ffff168092919060010191906101000a81548161ffff021916908361ffff1602179055505050505050565b6060600667ffffffffffffffff8111801561189d57600080fd5b506040519080825280602002602001820160405280156118d757816020015b6118c46132c4565b8152602001906001900390816118bc5790505b50905060008090505b60068160ff161015611a4a57603960008260ff1660058111156118ff57fe5b600581111561190a57fe5b600581111561191557fe5b8152602001908152602001600020604051806101000160405290816000820160009054906101000a900460ff16600581111561194d57fe5b600581111561195857fe5b81526020016000820160019054906101000a900460ff1660ff1660ff1681526020016000820160029054906101000a900460ff1660ff1660ff1681526020016000820160039054906101000a900460ff1660ff1660ff1681526020016000820160049054906101000a900460ff1660ff1660ff1681526020016000820160059054906101000a900460ff1660ff1660ff1681526020016000820160069054906101000a900460ff161515151581526020016000820160079054906101000a900460ff161515151581525050828260ff1681518110611a3257fe5b602002602001018190525080806001019150506118e0565b5080905090565b600073__ZKChessUtils__________________________63bbca541f84603460009054906101000a900460ff1685603460019054906101000a900461ffff16603a60009054906101000a900473ffffffffffffffffffffffffffffffffffffffff16603b60009054906101000a900473ffffffffffffffffffffffffffffffffffffffff16603460039054906101000a900460ff166040518863ffffffff1660e01b8152600401611b089796959493929190615011565b60206040518083038186803b158015611b2057600080fd5b505af4158015611b34573d6000803e3d6000fd5b505050506040513d601f19601f82011682018060405250810190611b5891906139fc565b905092915050565b606060368054905067ffffffffffffffff81118015611b7e57600080fd5b50604051908082528060200260200182016040528015611bb857816020015b611ba5613327565b815260200190600190039081611b9d5790505b50905060008090505b6036805490508160ff161015611dda576038600060368360ff1681548110611be557fe5b90600052602060002090602091828204019190069054906101000a900460ff1660ff1660ff168152602001908152602001600020604051806101800160405290816000820160009054906101000a900460ff1660ff1660ff1681526020016000820160019054906101000a900460ff166005811115611c6057fe5b6005811115611c6b57fe5b81526020016000820160029054906101000a900473ffffffffffffffffffffffffffffffffffffffff1673ffffffffffffffffffffffffffffffffffffffff1673ffffffffffffffffffffffffffffffffffffffff1681526020016000820160169054906101000a900460ff1660ff1660ff1681526020016000820160179054906101000a900460ff1660ff1660ff1681526020016000820160189054906101000a900460ff161515151581526020016000820160199054906101000a900460ff1615151515815260200160008201601a9054906101000a900460ff1660ff1660ff16815260200160008201601b9054906101000a900460ff1660ff1660ff168152602001600182015481526020016002820160009054906101000a900460ff1660ff1660ff1681526020016002820160019054906101000a900460ff1660ff1660ff1681525050828260ff1681518110611dc257fe5b60200260200101819052508080600101915050611bc1565b5080905090565b60368181548110611dee57fe5b9060005260206000209060209182820401919006915054906101000a900460ff1681565b603460039054906101000a900460ff1681565b603a60009054906101000a900473ffffffffffffffffffffffffffffffffffffffff1681565b42603c8190555060006003811115611e5f57fe5b603460039054906101000a900460ff166003811115611e7a57fe5b14611eba576040517f08c379a0000000000000000000000000000000000000000000000000000000008152600401611eb190614ca9565b60405180910390fd5b600073ffffffffffffffffffffffffffffffffffffffff16603a60009054906101000a900473ffffffffffffffffffffffffffffffffffffffff1673ffffffffffffffffffffffffffffffffffffffff161415611f575733603a60006101000a81548173ffffffffffffffffffffffffffffffffffffffff021916908373ffffffffffffffffffffffffffffffffffffffff160217905550612287565b603a60009054906101000a900473ffffffffffffffffffffffffffffffffffffffff1673ffffffffffffffffffffffffffffffffffffffff163373ffffffffffffffffffffffffffffffffffffffff161415611fe8576040517f08c379a0000000000000000000000000000000000000000000000000000000008152600401611fdf90614be9565b60405180910390fd5b600060024281611ff457fe5b0614156120415733603b60006101000a81548173ffffffffffffffffffffffffffffffffffffffff021916908373ffffffffffffffffffffffffffffffffffffffff1602179055506120e6565b603a60009054906101000a900473ffffffffffffffffffffffffffffffffffffffff16603b60006101000a81548173ffffffffffffffffffffffffffffffffffffffff021916908373ffffffffffffffffffffffffffffffffffffffff16021790555033603a60006101000a81548173ffffffffffffffffffffffffffffffffffffffff021916908373ffffffffffffffffffffffffffffffffffffffff1602179055505b73__ZKChessUtils__________________________63aa67b4af603a60009054906101000a900473ffffffffffffffffffffffffffffffffffffffff16603b60009054906101000a900473ffffffffffffffffffffffffffffffffffffffff1660386036603560396040518763ffffffff1660e01b815260040161216f9695949392919061496c565b60006040518083038186803b15801561218757600080fd5b505af415801561219b573d6000803e3d6000fd5b505050506001603460036101000a81548160ff021916908360038111156121be57fe5b02179055506001603460006101000a81548160ff021916908360ff160217905550603460009054906101000a900460ff16603b60146101000a81548160ff021916908360ff1602179055507f8fd707874eb940598510258c64cad23fd35fe8c85c5c38e8782fac2cc887fb6e603a60009054906101000a900473ffffffffffffffffffffffffffffffffffffffff16603b60009054906101000a900473ffffffffffffffffffffffffffffffffffffffff1660405161227e929190614943565b60405180910390a15b565b60335481565b603d6020528160005260406000206020528060005260406000206000915091509054906101000a900460ff1681565b42603c819055506122d781600001518260200151611a51565b5060386000826040015160ff1660ff16815260200190815260200160002060000160199054906101000a900460ff1615612346576040517f08c379a000000000000000000000000000000000000000000000000000000000815260040161233d90614c29565b60405180910390fd5b600080603a60009054906101000a900473ffffffffffffffffffffffffffffffffffffffff1673ffffffffffffffffffffffffffffffffffffffff163373ffffffffffffffffffffffffffffffffffffffff1614156123f85760386000600160ff16815260200190815260200160002060000160169054906101000a900460ff16915060386000600160ff16815260200190815260200160002060000160179054906101000a900460ff16905061244d565b60386000600260ff16815260200190815260200160002060000160169054906101000a900460ff16915060386000600260ff16815260200190815260200160002060000160179054906101000a900460ff1690505b603a60009054906101000a900473ffffffffffffffffffffffffffffffffffffffff1673ffffffffffffffffffffffffffffffffffffffff163373ffffffffffffffffffffffffffffffffffffffff1614156125a75760396000846060015160058111156124b757fe5b60058111156124c257fe5b815260200190815260200160002060000160059054906101000a900460ff1660ff16603b60149054906101000a900460ff1660ff161015612538576040517f08c379a000000000000000000000000000000000000000000000000000000000815260040161252f90614ba9565b60405180910390fd5b603960008460600151600581111561254c57fe5b600581111561255757fe5b815260200190815260200160002060000160059054906101000a900460ff16603b60148282829054906101000a900460ff160392506101000a81548160ff021916908360ff1602179055506126a7565b60396000846060015160058111156125bb57fe5b60058111156125c657fe5b815260200190815260200160002060000160059054906101000a900460ff1660ff16603b60159054906101000a900460ff1660ff16101561263c576040517f08c379a000000000000000000000000000000000000000000000000000000000815260040161263390614ba9565b60405180910390fd5b603960008460600151600581111561265057fe5b600581111561265b57fe5b815260200190815260200160002060000160059054906101000a900460ff16603b60158282829054906101000a900460ff160392506101000a81548160ff021916908360ff1602179055505b60396000846060015160058111156126bb57fe5b60058111156126c657fe5b815260200190815260200160002060000160069054906101000a900460ff166128f057600560ff16836080015160ff1610801561270d5750600760ff168360a0015160ff16105b61274c576040517f08c379a000000000000000000000000000000000000000000000000000000000815260040161274390614c49565b60405180910390fd5b60006035846080015160ff168154811061276257fe5b906000526020600020018460a0015160ff168154811061277e57fe5b90600052602060002090602091828204019190069054906101000a900460ff1690506000603860008360ff1660ff16815260200190815260200160002090508060000160189054906101000a900460ff161561280f576040517f08c379a000000000000000000000000000000000000000000000000000000000815260040161280690614c89565b60405180910390fd5b600173__ZKChessUtils__________________________632542841a87608001518860a0015188886040518563ffffffff1660e01b81526004016128569493929190615080565b60206040518083038186803b15801561286e57600080fd5b505af4158015612882573d6000803e3d6000fd5b505050506040513d601f19601f820116820180604052508101906128a69190613b71565b60ff16146128e9576040517f08c379a00000000000000000000000000000000000000000000000000000000081526004016128e090614c89565b60405180910390fd5b5050612b7c565b8160ff168360c001516060015160016006811061290957fe5b602002015114801561293657508060ff168360c001516060015160026006811061292f57fe5b6020020151145b612975576040517f08c379a000000000000000000000000000000000000000000000000000000000815260040161296c90614bc9565b60405180910390fd5b60018360c001516060015160036006811061298c57fe5b6020020151146129d1576040517f08c379a00000000000000000000000000000000000000000000000000000000081526004016129c890614bc9565b60405180910390fd5b600560ff168360c00151606001516004600681106129eb57fe5b602002015114612a30576040517f08c379a0000000000000000000000000000000000000000000000000000000008152600401612a2790614bc9565b60405180910390fd5b600760ff168360c0015160600151600560068110612a4a57fe5b602002015114612a8f576040517f08c379a0000000000000000000000000000000000000000000000000000000008152600401612a8690614bc9565b60405180910390fd5b73__Verifier______________________________6395eb76fc8460c00151600001518560c00151602001518660c00151604001518760c00151606001516040518563ffffffff1660e01b8152600401612aec9493929190614a4e565b60206040518083038186803b158015612b0457600080fd5b505af4158015612b18573d6000803e3d6000fd5b505050506040513d601f19601f82011682018060405250810190612b3c91906139fc565b612b7b576040517f08c379a0000000000000000000000000000000000000000000000000000000008152600401612b7290614bc9565b60405180910390fd5b5b604051806101800160405280846040015160ff16815260200184606001516005811115612ba557fe5b81526020013373ffffffffffffffffffffffffffffffffffffffff168152602001846080015160ff1681526020018460a0015160ff1681526020016001151581526020016001151581526020016039600086606001516005811115612c0657fe5b6005811115612c1157fe5b815260200190815260200160002060000160039054906101000a900460ff1660ff168152602001603460009054906101000a900460ff1660ff1681526020018460c0015160600151600060068110612c6557fe5b60200201518152602001603460009054906101000a900460ff1660ff168152602001603460009054906101000a900460ff1660ff1681525060386000856040015160ff1660ff16815260200190815260200160002060008201518160000160006101000a81548160ff021916908360ff16021790555060208201518160000160016101000a81548160ff02191690836005811115612cff57fe5b021790555060408201518160000160026101000a81548173ffffffffffffffffffffffffffffffffffffffff021916908373ffffffffffffffffffffffffffffffffffffffff16021790555060608201518160000160166101000a81548160ff021916908360ff16021790555060808201518160000160176101000a81548160ff021916908360ff16021790555060a08201518160000160186101000a81548160ff02191690831515021790555060c08201518160000160196101000a81548160ff02191690831515021790555060e082015181600001601a6101000a81548160ff021916908360ff16021790555061010082015181600001601b6101000a81548160ff021916908360ff16021790555061012082015181600101556101408201518160020160006101000a81548160ff021916908360ff1602179055506101608201518160020160016101000a81548160ff021916908360ff1602179055509050506036836040015190806001815401808255809150506001900390600052602060002090602091828204019190069091909190916101000a81548160ff021916908360ff16021790555082604001516035846080015160ff1681548110612ec457fe5b906000526020600020018460a0015160ff1681548110612ee057fe5b90600052602060002090602091828204019190066101000a81548160ff021916908360ff1602179055506001603d6000856000015160ff1660ff1681526020019081526020016000206000856040015160ff1660ff16815260200190815260200160002060006101000a81548160ff0219169083151502179055506001603e6000856000015160ff1660ff1681526020019081526020016000206000856040015160ff1660ff16815260200190815260200160002060006101000a81548160ff0219169083151502179055507f0c028d8e3094b70fecb63c902612f5b21d26edfeea4f8ec3f69b411d1d50f20d3384604001518560200151866060015187608001518860a00151604051612ff9969594939291906148ab565b60405180910390a16034600181819054906101000a900461ffff168092919060010191906101000a81548161ffff021916908361ffff16021790555050505050565b603c5481565b806033819055506000603460036101000a81548160ff0219169083600381111561306757fe5b021790555060008090505b600560ff168160ff16101561312c57603560018160018154018082558091505003906000526020600020505060008090505b600760ff168160ff16101561311e5760358260ff16815481106130c357fe5b90600052602060002001600090806001815401808255809150506001900390600052602060002090602091828204019190069091909190916101000a81548160ff021916908360ff16021790555080806001019150506130a4565b508080600101915050613072565b5073__ZKChessUtils__________________________63df9f019560396040518263ffffffff1660e01b81526004016131659190614b8e565b60006040518083038186803b15801561317d57600080fd5b505af4158015613191573d6000803e3d6000fd5b5050505073__ZKChessUtils__________________________63217be09060376040518263ffffffff1660e01b81526004016131cd91906149ef565b60006040518083038186803b1580156131e557600080fd5b505af41580156131f9573d6000803e3d6000fd5b5050505050565b60405180610160016040528060008152602001600060ff168152602001600060ff168152602001600060ff168152602001600061ffff1681526020016000600381111561324957fe5b8152602001600073ffffffffffffffffffffffffffffffffffffffff168152602001600073ffffffffffffffffffffffffffffffffffffffff168152602001600060ff168152602001600060ff168152602001600081525090565b6040518060400160405280600060ff168152602001600060ff1681525090565b604051806101000160405280600060058111156132dd57fe5b8152602001600060ff168152602001600060ff168152602001600060ff168152602001600060ff168152602001600060ff1681526020016000151581526020016000151581525090565b604051806101800160405280600060ff1681526020016000600581111561334a57fe5b8152602001600073ffffffffffffffffffffffffffffffffffffffff168152602001600060ff168152602001600060ff168152602001600015158152602001600015158152602001600060ff168152602001600060ff16815260200160008152602001600060ff168152602001600060ff1681525090565b600082601f8301126133d357600080fd5b60026133e66133e1826150f2565b6150c5565b915081838560408402820111156133fc57600080fd5b60005b8381101561342c57816134128882613436565b8452602084019350604083019250506001810190506133ff565b5050505092915050565b600082601f83011261344757600080fd5b600261345a61345582615114565b6150c5565b9150818385602084028201111561347057600080fd5b60005b838110156134a0578161348688826139bd565b845260208401935060208301925050600181019050613473565b5050505092915050565b600082601f8301126134bb57600080fd5b60056134ce6134c982615136565b6150c5565b915081838560208402820111156134e457600080fd5b60005b8381101561351457816134fa88826139bd565b8452602084019350602083019250506001810190506134e7565b5050505092915050565b600082601f83011261352f57600080fd5b600661354261353d82615158565b6150c5565b9150818385602084028201111561355857600080fd5b60005b83811015613588578161356e88826139bd565b84526020840193506020830192505060018101905061355b565b5050505092915050565b600082601f8301126135a357600080fd5b81356135b66135b18261517a565b6150c5565b915081818352602084019350602081019050838560208402820111156135db57600080fd5b60005b8381101561360b57816135f188826139d2565b8452602084019350602083019250506001810190506135de565b5050505092915050565b6000815190506136248161547b565b92915050565b60008135905061363981615492565b92915050565b60006101c0828403121561365257600080fd5b61365c60806150c5565b9050600061366c84828501613436565b6000830152506040613680848285016133c2565b60208301525060c061369484828501613436565b6040830152506101006136a98482850161351e565b60608301525092915050565b600061024082840312156136c857600080fd5b6136d260a06150c5565b905060006136e2848285016139d2565b60008301525060206136f6848285016139a8565b602083015250604061370a848285016139d2565b604083015250606061371e848285016139d2565b60608301525060806137328482850161363f565b60808301525092915050565b60006101a0828403121561375157600080fd5b61375b60806150c5565b9050600061376b84828501613436565b600083015250604061377f848285016133c2565b60208301525060c061379384828501613436565b6040830152506101006137a8848285016134aa565b60608301525092915050565b600061024082840312156137c757600080fd5b6137d160c06150c5565b905060006137e1848285016139d2565b60008301525060206137f5848285016139a8565b6020830152506040613809848285016139d2565b604083015250606082013567ffffffffffffffff81111561382957600080fd5b61383584828501613592565b606083015250608082013567ffffffffffffffff81111561385557600080fd5b61386184828501613592565b60808301525060a06138758482850161373e565b60a08301525092915050565b60006101c0828403121561389457600080fd5b61389e60806150c5565b905060006138ae84828501613436565b60008301525060406138c2848285016133c2565b60208301525060c06138d684828501613436565b6040830152506101006138eb8482850161351e565b60608301525092915050565b6000610280828403121561390a57600080fd5b61391460e06150c5565b90506000613924848285016139d2565b6000830152506020613938848285016139a8565b602083015250604061394c848285016139d2565b60408301525060606139608482850161362a565b6060830152506080613974848285016139d2565b60808301525060a0613988848285016139d2565b60a08301525060c061399c84828501613881565b60c08301525092915050565b6000813590506139b7816154a2565b92915050565b6000813590506139cc816154b9565b92915050565b6000813590506139e1816154d0565b92915050565b6000815190506139f6816154d0565b92915050565b600060208284031215613a0e57600080fd5b6000613a1c84828501613615565b91505092915050565b600060208284031215613a3757600080fd5b6000613a458482850161362a565b91505092915050565b60006102408284031215613a6157600080fd5b6000613a6f848285016136b5565b91505092915050565b600060208284031215613a8a57600080fd5b600082013567ffffffffffffffff811115613aa457600080fd5b613ab0848285016137b4565b91505092915050565b60006102808284031215613acc57600080fd5b6000613ada848285016138f7565b91505092915050565b600060208284031215613af557600080fd5b6000613b03848285016139bd565b91505092915050565b60008060408385031215613b1f57600080fd5b6000613b2d858286016139bd565b9250506020613b3e858286016139bd565b9150509250929050565b600060208284031215613b5a57600080fd5b6000613b68848285016139d2565b91505092915050565b600060208284031215613b8357600080fd5b6000613b91848285016139e7565b91505092915050565b60008060408385031215613bad57600080fd5b6000613bbb858286016139d2565b9250506020613bcc858286016139a8565b9150509250929050565b60008060408385031215613be957600080fd5b6000613bf7858286016139d2565b9250506020613c08858286016139d2565b9150509250929050565b6000613c1e8383613f0d565b60408301905092915050565b6000613c368383614615565b60408301905092915050565b6000613c4e8383614644565b6101008301905092915050565b6000613c6783836146e6565b6101808301905092915050565b6000613c808383614836565b60208301905092915050565b6000613c988383614881565b60208301905092915050565b613cad816153f5565b82525050565b613cbc8161536c565b82525050565b613ccb8161536c565b82525050565b613cda8161536c565b82525050565b613ce98161520a565b613cf381846152ca565b9250613cfe826151a2565b8060005b83811015613d2f578151613d168782613c12565b9650613d2183615262565b925050600181019050613d02565b505050505050565b613d408161520a565b613d4a81846152d5565b9250613d55826151a2565b8060005b83811015613d86578151613d6d8782613c12565b9650613d7883615262565b925050600181019050613d59565b505050505050565b8082525050565b6000613da082615215565b613daa81856152e0565b9350613db5836151ac565b8060005b83811015613de6578151613dcd8882613c2a565b9750613dd88361526f565b925050600181019050613db9565b5085935050505092915050565b8082525050565b6000613e0582615220565b613e0f81856152f1565b9350613e1a836151bc565b8060005b83811015613e4b578151613e328882613c42565b9750613e3d8361527c565b925050600181019050613e1e565b5085935050505092915050565b6000613e638261522b565b613e6d8185615302565b9350613e78836151cc565b8060005b83811015613ea9578151613e908882613c5b565b9750613e9b83615289565b925050600181019050613e7c565b5085935050505092915050565b613ebf81615236565b613ec98184615313565b9250613ed4826151dc565b8060005b83811015613f05578151613eec8782613c74565b9650613ef783615296565b925050600181019050613ed8565b505050505050565b613f1681615236565b613f20818461531e565b9250613f2b826151dc565b8060005b83811015613f5c578151613f438782613c74565b9650613f4e83615296565b925050600181019050613f2f565b505050505050565b613f6d81615241565b613f778184615329565b9250613f82826151e6565b8060005b83811015613fb3578151613f9a8782613c74565b9650613fa5836152a3565b925050600181019050613f86565b505050505050565b613fc48161524c565b613fce8184615334565b9250613fd9826151f0565b8060005b8381101561400a578151613ff18782613c74565b9650613ffc836152b0565b925050600181019050613fdd565b505050505050565b61401b8161524c565b614025818461533f565b9250614030826151f0565b8060005b838110156140615781516140488782613c74565b9650614053836152b0565b925050600181019050614034565b505050505050565b600061407482615257565b61407e818561534a565b9350614089836151fa565b8060005b838110156140ba5781516140a18882613c8c565b97506140ac836152bd565b92505060018101905061408d565b5085935050505092915050565b8082525050565b6140d78161537e565b82525050565b6140e68161537e565b82525050565b6140f581615407565b82525050565b61410481615407565b82525050565b61411381615407565b82525050565b61412281615419565b82525050565b61413181615419565b82525050565b8082525050565b8082525050565b8082525050565b6000614159600f8361535b565b91507f6e6f7420656e6f756768206d616e6100000000000000000000000000000000006000830152602082019050919050565b600061419960078361535b565b91507f626164205a4b50000000000000000000000000000000000000000000000000006000830152602082019050919050565b60006141d960158361535b565b91507f63616e2774206a6f696e2067616d6520747769636500000000000000000000006000830152602082019050919050565b6000614219600b8361535b565b91507f6d6f7665206661696c65640000000000000000000000000000000000000000006000830152602082019050919050565b600061425960178361535b565b91507f706965636520494420616c726561647920696e207573650000000000000000006000830152602082019050919050565b6000614299600d8361535b565b91507f6e6f7420696e20626f756e6473000000000000000000000000000000000000006000830152602082019050919050565b60006142d9600e8361535b565b91507f696e76616c69642061747461636b0000000000000000000000000000000000006000830152602082019050919050565b600061431960128361535b565b91507f63616e27742073756d6d6f6e20746865726500000000000000000000000000006000830152602082019050919050565b600061435960148361535b565b91507f47616d6520616c726561647920737461727465640000000000000000000000006000830152602082019050919050565b6101c0820160008201516143a36000850182613f0d565b5060208201516143b66040850182613d37565b5060408201516143c960c0850182613f0d565b5060608201516143dd610100850182614012565b50505050565b610240820160008201516143fa6000850182614881565b50602082015161440d6020850182614809565b5060408201516144206040850182614881565b5060608201516144336060850182614881565b506080820151614446608085018261438c565b50505050565b610160820160008201516144636000850182614818565b5060208201516144766020850182614854565b5060408201516144896040850182614854565b50606082015161449c6060850182614854565b5060808201516144af60808501826147dc565b5060a08201516144c260a08501826140ec565b5060c08201516144d560c0850182613cb3565b5060e08201516144e860e0850182613cb3565b506101008201516144fd610100850182614854565b50610120820151614512610120850182614854565b50610140820151614527610140850182614818565b50505050565b6101a0820160008201516145446000850182613f0d565b5060208201516145576040850182613d37565b50604082015161456a60c0850182613f0d565b50606082015161457e610100850182613f64565b50505050565b60006102408301600083015161459d6000860182614881565b5060208301516145b06020860182614809565b5060408301516145c36040860182614881565b50606083015184820360608601526145db8282614069565b915050608083015184820360808601526145f58282614069565b91505060a083015161460a60a086018261452d565b508091505092915050565b60408201600082015161462b6000850182614854565b50602082015161463e6020850182614854565b50505050565b6101008201600082015161465b6000850182614119565b50602082015161466e6020850182614854565b5060408201516146816040850182614854565b5060608201516146946060850182614854565b5060808201516146a76080850182614854565b5060a08201516146ba60a0850182614854565b5060c08201516146cd60c08501826140ce565b5060e08201516146e060e08501826140ce565b50505050565b610180820160008201516146fd6000850182614854565b5060208201516147106020850182614119565b5060408201516147236040850182613cb3565b5060608201516147366060850182614854565b5060808201516147496080850182614854565b5060a082015161475c60a08501826140ce565b5060c082015161476f60c08501826140ce565b5060e082015161478260e0850182614854565b50610100820151614797610100850182614854565b506101208201516147ac610120850182614818565b506101408201516147c1610140850182614854565b506101608201516147d6610160850182614854565b50505050565b6147e5816153b0565b82525050565b6147f4816153b0565b82525050565b614803816153b0565b82525050565b614812816153b0565b82525050565b614821816153de565b82525050565b614830816153de565b82525050565b61483f816153de565b82525050565b61484e8161544f565b82525050565b61485d816153e8565b82525050565b61486c816153e8565b82525050565b61487b816153e8565b82525050565b61488a816153e8565b82525050565b60006020820190506148a56000830184613cc2565b92915050565b600060c0820190506148c06000830189613ca4565b6148cd6020830188614863565b6148da60408301876147eb565b6148e76060830186614128565b6148f46080830185614863565b61490160a0830184614863565b979650505050505050565b60006060820190506149216000830186613ca4565b61492e6020830185614863565b61493b6040830184614845565b949350505050565b60006040820190506149586000830185613cc2565b6149656020830184613cc2565b9392505050565b600060c0820190506149816000830189613cd1565b61498e6020830188613cd1565b61499b6040830187614145565b6149a860608301866140c7565b6149b56080830185613d8e565b6149c260a0830184614137565b979650505050505050565b600060208201905081810360008301526149e78184613d95565b905092915050565b6000602082019050614a046000830184613df3565b92915050565b60006020820190508181036000830152614a248184613dfa565b905092915050565b60006020820190508181036000830152614a468184613e58565b905092915050565b60006101c082019050614a646000830187613eb6565b614a716040830186613ce0565b614a7e60c0830185613eb6565b614a8c610100830184613fbb565b95945050505050565b6000608082019050614aaa60008301876140c7565b614ab76020830186614145565b614ac46040830185613cd1565b614ad16060830184613cd1565b95945050505050565b6000602082019050614aef60008301846140dd565b92915050565b6000602082019050614b0a60008301846140fb565b92915050565b600061010082019050614b26600083018b614128565b614b33602083018a614863565b614b406040830189614863565b614b4d6060830188614863565b614b5a6080830187614863565b614b6760a0830186614863565b614b7460c08301856140dd565b614b8160e08301846140dd565b9998505050505050505050565b6000602082019050614ba36000830184614137565b92915050565b60006020820190508181036000830152614bc28161414c565b9050919050565b60006020820190508181036000830152614be28161418c565b9050919050565b60006020820190508181036000830152614c02816141cc565b9050919050565b60006020820190508181036000830152614c228161420c565b9050919050565b60006020820190508181036000830152614c428161424c565b9050919050565b60006020820190508181036000830152614c628161428c565b9050919050565b60006020820190508181036000830152614c82816142cc565b9050919050565b60006020820190508181036000830152614ca28161430c565b9050919050565b60006020820190508181036000830152614cc28161434c565b9050919050565b60006102c082019050614cdf60008301886143e3565b614ced610240830187614145565b614cfb610260830186613d8e565b614d09610280830185614137565b614d176102a083018461413e565b9695505050505050565b60006102e082019050614d3760008301896143e3565b614d45610240830188614145565b614d53610260830187614137565b614d6161028083018661413e565b614d6f6102a0830185614872565b614d7d6102c0830184614872565b979650505050505050565b600061016082019050614d9e600083018461444c565b92915050565b6000610100820190508181036000830152614dbf818b614584565b9050614dce602083018a614145565b614ddb6040830189614137565b614de8606083018861413e565b614df5608083018761413e565b614e0260a0830186613d8e565b614e0f60c0830185614872565b614e1c60e0830184614872565b9998505050505050505050565b6000602082019050614e3e60008301846147eb565b92915050565b600060a082019050614e5960008301886147eb565b614e666020830187614863565b614e736040830186614863565b614e806060830185614863565b614e8d6080830184614863565b9695505050505050565b600060c082019050614eac60008301896147eb565b614eb96020830188614863565b614ec66040830187614863565b614ed36060830186614863565b614ee06080830185614863565b614eed60a0830184614863565b979650505050505050565b6000602082019050614f0d6000830184614827565b92915050565b6000602082019050614f286000830184614863565b92915050565b600061018082019050614f44600083018f614863565b614f51602083018e614128565b614f5e604083018d613cc2565b614f6b606083018c614863565b614f78608083018b614863565b614f8560a083018a6140dd565b614f9260c08301896140dd565b614f9f60e0830188614863565b614fad610100830187614863565b614fbb610120830186614827565b614fc9610140830185614863565b614fd7610160830184614863565b9d9c50505050505050505050505050565b6000604082019050614ffd6000830185614863565b61500a6020830184614863565b9392505050565b600060e082019050615026600083018a614872565b6150336020830189614872565b61504060408301886147fa565b61504d60608301876147fa565b61505a6080830186613cd1565b61506760a0830185613cd1565b61507460c083018461410a565b98975050505050505050565b60006080820190506150956000830187614872565b6150a26020830186614872565b6150af6040830185614872565b6150bc6060830184614872565b95945050505050565b6000604051905081810181811067ffffffffffffffff821117156150e857600080fd5b8060405250919050565b600067ffffffffffffffff82111561510957600080fd5b602082029050919050565b600067ffffffffffffffff82111561512b57600080fd5b602082029050919050565b600067ffffffffffffffff82111561514d57600080fd5b602082029050919050565b600067ffffffffffffffff82111561516f57600080fd5b602082029050919050565b600067ffffffffffffffff82111561519157600080fd5b602082029050602081019050919050565b6000819050919050565b6000819050602082019050919050565b6000819050602082019050919050565b6000819050602082019050919050565b6000819050919050565b6000819050919050565b6000819050919050565b6000819050602082019050919050565b600060029050919050565b600081519050919050565b600081519050919050565b600081519050919050565b600060029050919050565b600060059050919050565b600060069050919050565b600081519050919050565b6000602082019050919050565b6000602082019050919050565b6000602082019050919050565b6000602082019050919050565b6000602082019050919050565b6000602082019050919050565b6000602082019050919050565b6000602082019050919050565b600081905092915050565b600081905092915050565b600082825260208201905092915050565b600082825260208201905092915050565b600082825260208201905092915050565b600081905092915050565b600081905092915050565b600081905092915050565b600081905092915050565b600081905092915050565b600082825260208201905092915050565b600082825260208201905092915050565b6000615377826153be565b9050919050565b60008115159050919050565b600081905061539882615461565b919050565b60008190506153ab8261546e565b919050565b600061ffff82169050919050565b600073ffffffffffffffffffffffffffffffffffffffff82169050919050565b6000819050919050565b600060ff82169050919050565b60006154008261542b565b9050919050565b60006154128261538a565b9050919050565b60006154248261539d565b9050919050565b60006154368261543d565b9050919050565b6000615448826153be565b9050919050565b600061545a826153e8565b9050919050565b6004811061546b57fe5b50565b6006811061547857fe5b50565b6154848161537e565b811461548f57600080fd5b50565b6006811061549f57600080fd5b50565b6154ab816153b0565b81146154b657600080fd5b50565b6154c2816153de565b81146154cd57600080fd5b50565b6154d9816153e8565b81146154e457600080fd5b5056fea264697066735822122000b92f04011570800732066ed860b7c4de3947e605d309d1d5a8ab9549a7373664736f6c63430006070033",
  "immutableReferences": {},
  "source": "pragma solidity ^0.6.7;\npragma experimental ABIEncoderV2;\n\nimport \"@openzeppelin/contracts-ethereum-package/contracts/Initializable.sol\";\nimport \"./ZKChessTypes.sol\";\nimport \"./ZKChessUtils.sol\";\nimport \"./Verifier.sol\";\n\ncontract ZKChessGame is Initializable {\n    uint8 public constant NROWS = 5;\n    uint8 public constant NCOLS = 7;\n\n    uint256 public gameId;\n\n    uint8 public turnNumber;\n    uint16 public sequenceNumber;\n    GameState public gameState;\n    uint8[][] public boardPieces; // board[row][col]\n\n    uint8[] public pieceIds;\n    Objective[] public objectives;\n    mapping(uint8 => Piece) public pieces;\n\n    mapping(PieceType => PieceDefaultStats) public defaultStats;\n\n    address public player1;\n    address public player2;\n\n    uint8 public player1Mana;\n    uint8 public player2Mana;\n\n    uint256 public lastActionTimestamp;\n\n    // mapping from turn # -> piece # -> has acted\n    mapping(uint8 => mapping(uint8 => bool)) public hasMoved;\n    mapping(uint8 => mapping(uint8 => bool)) public hasAttacked;\n\n    function initialize(uint256 _gameId) public {\n        gameId = _gameId;\n        gameState = GameState.WAITING_FOR_PLAYERS;\n\n        for (uint8 i = 0; i < NROWS; i++) {\n            boardPieces.push();\n            for (uint8 j = 0; j < NCOLS; j++) {\n                boardPieces[i].push(0);\n            }\n        }\n\n        // initialize pieces\n        ZKChessUtils.initializeDefaults(defaultStats);\n        ZKChessUtils.initializeObjectives(objectives);\n    }\n\n    //////////////\n    /// EVENTS ///\n    //////////////\n\n    event GameStart(address p1, address p2);\n    event DidSummon(\n        address player,\n        uint8 pieceId,\n        uint16 sequenceNumber,\n        PieceType pieceType,\n        uint8 atRow,\n        uint8 atCol\n    );\n    event DidMove(\n        uint16 sequenceNumber,\n        uint8 pieceId,\n        uint8 fromRow,\n        uint8 fromCol,\n        uint8 toRow,\n        uint8 toCol\n    );\n    event DidAttack(\n        uint16 sequenceNumber,\n        uint8 attacker,\n        uint8 attacked,\n        uint8 attackerHp,\n        uint8 attackedHp\n    );\n    event DidEndTurn(address player, uint8 turnNumber, uint16 sequenceNumber);\n    event GameFinished();\n\n    ///////////////\n    /// GETTERS ///\n    ///////////////\n\n    function getInfo() public view returns (GameInfo memory ret) {\n        ret = GameInfo({\n            gameId: gameId,\n            NROWS: NROWS,\n            NCOLS: NCOLS,\n            turnNumber: turnNumber,\n            sequenceNumber: sequenceNumber,\n            gameState: gameState,\n            player1: player1,\n            player2: player2,\n            player1Mana: player1Mana,\n            player2Mana: player2Mana,\n            lastActionTimestamp: lastActionTimestamp\n        });\n        return ret;\n    }\n\n    function getPieces() public view returns (Piece[] memory ret) {\n        ret = new Piece[](pieceIds.length);\n        for (uint8 i = 0; i < pieceIds.length; i++) {\n            ret[i] = pieces[pieceIds[i]];\n        }\n        return ret;\n    }\n\n    function getDefaults()\n        public\n        view\n        returns (PieceDefaultStats[] memory ret)\n    {\n        ret = new PieceDefaultStats[](6);\n        // TODO hardcode bad >:(\n        for (uint8 i = 0; i < 6; i++) {\n            ret[i] = defaultStats[PieceType(i)];\n        }\n        return ret;\n    }\n\n    function getObjectives() public view returns (Objective[] memory ret) {\n        ret = new Objective[](objectives.length);\n        for (uint8 i = 0; i < objectives.length; i++) {\n            ret[i] = objectives[i];\n        }\n        return ret;\n    }\n\n    //////////////\n    /// Helper ///\n    //////////////\n\n    function checkAction(uint8 _turnNumber, uint16 _sequenceNumber)\n        public\n        view\n        returns (bool)\n    {\n        return\n            ZKChessUtils.checkAction(\n                _turnNumber,\n                turnNumber,\n                _sequenceNumber,\n                sequenceNumber,\n                player1,\n                player2,\n                gameState\n            );\n    }\n\n    function gameShouldBeCompleted() public view returns (bool) {\n        return\n            ZKChessUtils.gameShouldBeCompleted(\n                pieceIds,\n                pieces,\n                player1,\n                player2\n            );\n    }\n\n    //////////////////////\n    /// Game Mechanics ///\n    //////////////////////\n\n    function joinGame() public {\n        lastActionTimestamp = block.timestamp;\n        require(\n            gameState == GameState.WAITING_FOR_PLAYERS,\n            \"Game already started\"\n        );\n        if (player1 == address(0)) {\n            // first player to join game\n            player1 = msg.sender;\n            return;\n        }\n        // another player has joined. game is ready to start\n\n        require(msg.sender != player1, \"can't join game twice\");\n        // randomize player order\n        if (block.timestamp % 2 == 0) {\n            player2 = msg.sender;\n        } else {\n            player2 = player1;\n            player1 = msg.sender;\n        }\n\n        // set pieces\n        ZKChessUtils.initializePieces(\n            player1,\n            player2,\n            pieces,\n            pieceIds,\n            boardPieces,\n            defaultStats\n        );\n\n        gameState = GameState.P1_TO_MOVE;\n        turnNumber = 1;\n        player1Mana = turnNumber;\n        emit GameStart(player1, player2);\n    }\n\n    function doSummon(Summon memory summon) public {\n        lastActionTimestamp = block.timestamp;\n        checkAction(summon.turnNumber, summon.sequenceNumber);\n        require(!pieces[summon.pieceId].initialized, \"piece ID already in use\");\n\n        // PORT tile\n        uint8 homeRow;\n        uint8 homeCol;\n        if (msg.sender == player1) {\n            homeRow = pieces[1].row;\n            homeCol = pieces[1].col;\n        } else {\n            homeRow = pieces[2].row;\n            homeCol = pieces[2].col;\n        }\n\n        // MANA checks\n        if (msg.sender == player1) {\n            require(\n                player1Mana >= defaultStats[summon.pieceType].cost,\n                \"not enough mana\"\n            );\n            player1Mana -= defaultStats[summon.pieceType].cost;\n        } else {\n            require(\n                player2Mana >= defaultStats[summon.pieceType].cost,\n                \"not enough mana\"\n            );\n            player2Mana -= defaultStats[summon.pieceType].cost;\n        }\n\n        // validity checks\n        if (!defaultStats[summon.pieceType].isZk) {\n            require(summon.row < NROWS && summon.col < NCOLS, \"not in bounds\");\n            // if visible piece, can't summon on existing piece\n            uint8 pieceIdAtSummonTile = boardPieces[summon.row][summon.col];\n            Piece storage pieceAtSummonTile = pieces[pieceIdAtSummonTile];\n            require(!pieceAtSummonTile.alive, \"can't summon there\");\n            // must summon adjacent to the PORT tile\n            require(\n                ZKChessUtils.taxiDist(\n                    summon.row,\n                    summon.col,\n                    homeRow,\n                    homeCol\n                ) == 1,\n                \"can't summon there\"\n            );\n        } else {\n            require(\n                summon.zkp.input[1] == homeRow &&\n                    summon.zkp.input[2] == homeCol,\n                \"bad ZKP\"\n            );\n            require(summon.zkp.input[3] == 1, \"bad ZKP\");\n            require(summon.zkp.input[4] == NROWS, \"bad ZKP\");\n            require(summon.zkp.input[5] == NCOLS, \"bad ZKP\");\n            require(\n                Verifier.verifyDist1Proof(\n                    summon.zkp.a,\n                    summon.zkp.b,\n                    summon.zkp.c,\n                    summon.zkp.input\n                ),\n                \"bad ZKP\"\n            );\n        }\n\n        // create piece\n        pieces[summon.pieceId] = Piece({\n            id: summon.pieceId,\n            pieceType: summon.pieceType,\n            owner: msg.sender,\n            row: summon.row,\n            col: summon.col,\n            alive: true,\n            commitment: summon.zkp.input[0],\n            initialized: true,\n            hp: defaultStats[summon.pieceType].hp,\n            initializedOnTurn: turnNumber,\n            lastMove: turnNumber,\n            lastAttack: turnNumber\n        });\n        pieceIds.push(summon.pieceId);\n        boardPieces[summon.row][summon.col] = summon.pieceId;\n        // if piece has just been made, can't use it yet\n        // in the future this should be tracked in its own field\n        hasMoved[summon.turnNumber][summon.pieceId] = true;\n        hasAttacked[summon.turnNumber][summon.pieceId] = true;\n        emit DidSummon(\n            msg.sender,\n            summon.pieceId,\n            summon.sequenceNumber,\n            summon.pieceType,\n            summon.row,\n            summon.col\n        );\n        sequenceNumber++;\n    }\n\n    function doMove(Move memory move) public {\n        lastActionTimestamp = block.timestamp;\n        checkAction(move.turnNumber, move.sequenceNumber);\n        Piece storage piece = pieces[move.pieceId];\n        uint8 originRow = piece.row;\n        uint8 originCol = piece.col;\n\n        require(\n            ZKChessUtils.checkMove(\n                move,\n                pieces,\n                defaultStats,\n                hasMoved,\n                hasAttacked,\n                boardPieces,\n                NROWS,\n                NCOLS\n            ),\n            \"move failed\"\n        );\n\n        if (defaultStats[piece.pieceType].isZk) {\n            piece.commitment = move.zkp.input[1];\n        } else {\n            uint8[] memory moveToRow = move.moveToRow;\n            uint8[] memory moveToCol = move.moveToCol;\n            uint8 toRow = moveToRow[moveToRow.length - 1];\n            uint8 toCol = moveToCol[moveToCol.length - 1];\n            boardPieces[piece.row][piece.col] = 0;\n            boardPieces[toRow][toCol] = piece.id;\n            piece.row = toRow;\n            piece.col = toCol;\n        }\n        hasMoved[move.turnNumber][piece.id] = true;\n        piece.lastMove = move.turnNumber;\n        emit DidMove(\n            move.sequenceNumber,\n            move.pieceId,\n            originRow,\n            originCol,\n            piece.row,\n            piece.col\n        );\n        sequenceNumber++;\n    }\n\n    function doAttack(Attack memory attack) public {\n        lastActionTimestamp = block.timestamp;\n        checkAction(attack.turnNumber, attack.sequenceNumber);\n        require(\n            ZKChessUtils.checkAttack(\n                attack,\n                pieces,\n                defaultStats,\n                hasAttacked,\n                NROWS,\n                NCOLS\n            ),\n            \"invalid attack\"\n        );\n\n        ZKChessUtils.executeAttack(\n            attack,\n            pieces,\n            boardPieces,\n            defaultStats,\n            hasAttacked\n        );\n        emit DidAttack(\n            attack.sequenceNumber,\n            attack.pieceId,\n            attack.attackedId,\n            pieces[attack.pieceId].hp,\n            pieces[attack.attackedId].hp\n        );\n        sequenceNumber++;\n    }\n\n    function endTurn(uint8 _turnNumber, uint8 _sequenceNumber) public {\n        lastActionTimestamp = block.timestamp;\n        checkAction(_turnNumber, _sequenceNumber);\n        if (msg.sender == player1) {\n            // change to p2's turn\n            player1Mana = 0;\n            player2Mana = turnNumber;\n            if (player2Mana > 8) {\n                player2Mana = 8;\n            }\n            for (uint8 i = 0; i < objectives.length; i++) {\n                uint8 row = objectives[i].row;\n                uint8 col = objectives[i].col;\n                Piece storage occupyingPiece = pieces[boardPieces[row][col]];\n                if (occupyingPiece.alive && occupyingPiece.owner == player2) {\n                    player2Mana++;\n                }\n            }\n            gameState = GameState.P2_TO_MOVE;\n        } else {\n            // change to p1's turn\n            turnNumber++;\n            player2Mana = 0;\n            player1Mana = turnNumber;\n            if (player1Mana > 8) {\n                player1Mana = 8;\n            }\n            for (uint8 i = 0; i < objectives.length; i++) {\n                uint8 row = objectives[i].row;\n                uint8 col = objectives[i].col;\n                Piece storage occupyingPiece = pieces[boardPieces[row][col]];\n                if (occupyingPiece.alive && occupyingPiece.owner == player1) {\n                    player1Mana++;\n                }\n            }\n            gameState = GameState.P1_TO_MOVE;\n        }\n        emit DidEndTurn(msg.sender, _turnNumber, _sequenceNumber);\n        sequenceNumber++;\n\n        if (gameShouldBeCompleted()) {\n            gameState = GameState.COMPLETE;\n            emit GameFinished();\n        }\n    }\n}\n",
  "sourcePath": "/Users/bgu/zk-chess/eth/contracts/ZKChessGame.sol",
  "compiler": {
    "name": "solc",
    "version": "0.6.7+commit.b8d736ae.Emscripten.clang"
  },
  "schemaVersion": "3.3.1",
  "updatedAt": "2020-11-17T23:03:55.128Z",
  "networkType": "ethereum",
  "devdoc": {
    "methods": {}
  },
  "userdoc": {
    "methods": {
      "checkAction(uint8,uint16)": {
        "notice": "/////////// Helper /// ///////////"
      },
      "getInfo()": {
        "notice": "//////////// GETTERS /// ////////////"
      },
      "joinGame()": {
        "notice": "/////////////////// Game Mechanics /// ///////////////////"
      }
    }
  }
}