{
  "contractName": "ZKChessGame",
  "abi": [
    {
      "anonymous": false,
      "inputs": [],
      "name": "GameFinished",
      "type": "event"
    },
    {
      "anonymous": false,
      "inputs": [
        {
          "indexed": false,
          "internalType": "address",
          "name": "p1",
          "type": "address"
        },
        {
          "indexed": false,
          "internalType": "address",
          "name": "p2",
          "type": "address"
        }
      ],
      "name": "GameStart",
      "type": "event"
    },
    {
      "anonymous": false,
      "inputs": [
        {
          "indexed": false,
          "internalType": "address",
          "name": "player",
          "type": "address"
        }
      ],
      "name": "MoveMade",
      "type": "event"
    },
    {
      "anonymous": false,
      "inputs": [
        {
          "indexed": false,
          "internalType": "uint256",
          "name": "pfsAccepted",
          "type": "uint256"
        }
      ],
      "name": "ProofVerified",
      "type": "event"
    },
    {
      "inputs": [],
      "name": "BOARD_SIZE",
      "outputs": [
        {
          "internalType": "uint256",
          "name": "",
          "type": "uint256"
        }
      ],
      "stateMutability": "view",
      "type": "function",
      "constant": true
    },
    {
      "inputs": [],
      "name": "DISABLE_ZK_CHECK",
      "outputs": [
        {
          "internalType": "bool",
          "name": "",
          "type": "bool"
        }
      ],
      "stateMutability": "view",
      "type": "function",
      "constant": true
    },
    {
      "inputs": [],
      "name": "FIELD_SIZE",
      "outputs": [
        {
          "internalType": "uint256",
          "name": "",
          "type": "uint256"
        }
      ],
      "stateMutability": "view",
      "type": "function",
      "constant": true
    },
    {
      "inputs": [],
      "name": "GHOST_START_COMMITMENT",
      "outputs": [
        {
          "internalType": "uint256",
          "name": "",
          "type": "uint256"
        }
      ],
      "stateMutability": "view",
      "type": "function",
      "constant": true
    },
    {
      "inputs": [
        {
          "internalType": "uint256",
          "name": "",
          "type": "uint256"
        },
        {
          "internalType": "uint256",
          "name": "",
          "type": "uint256"
        }
      ],
      "name": "boardObjectives",
      "outputs": [
        {
          "internalType": "uint8",
          "name": "",
          "type": "uint8"
        }
      ],
      "stateMutability": "view",
      "type": "function",
      "constant": true
    },
    {
      "inputs": [
        {
          "internalType": "uint256",
          "name": "",
          "type": "uint256"
        },
        {
          "internalType": "uint256",
          "name": "",
          "type": "uint256"
        }
      ],
      "name": "boardPieces",
      "outputs": [
        {
          "internalType": "uint8",
          "name": "",
          "type": "uint8"
        }
      ],
      "stateMutability": "view",
      "type": "function",
      "constant": true
    },
    {
      "inputs": [],
      "name": "gameId",
      "outputs": [
        {
          "internalType": "uint256",
          "name": "",
          "type": "uint256"
        }
      ],
      "stateMutability": "view",
      "type": "function",
      "constant": true
    },
    {
      "inputs": [],
      "name": "gameState",
      "outputs": [
        {
          "internalType": "enum GameState",
          "name": "",
          "type": "uint8"
        }
      ],
      "stateMutability": "view",
      "type": "function",
      "constant": true
    },
    {
      "inputs": [
        {
          "internalType": "uint256",
          "name": "",
          "type": "uint256"
        }
      ],
      "name": "objectiveIds",
      "outputs": [
        {
          "internalType": "uint8",
          "name": "",
          "type": "uint8"
        }
      ],
      "stateMutability": "view",
      "type": "function",
      "constant": true
    },
    {
      "inputs": [
        {
          "internalType": "uint8",
          "name": "",
          "type": "uint8"
        }
      ],
      "name": "objectives",
      "outputs": [
        {
          "internalType": "uint8",
          "name": "id",
          "type": "uint8"
        },
        {
          "internalType": "uint8",
          "name": "value",
          "type": "uint8"
        },
        {
          "internalType": "uint8",
          "name": "row",
          "type": "uint8"
        },
        {
          "internalType": "uint8",
          "name": "col",
          "type": "uint8"
        },
        {
          "internalType": "address",
          "name": "capturedBy",
          "type": "address"
        }
      ],
      "stateMutability": "view",
      "type": "function",
      "constant": true
    },
    {
      "inputs": [
        {
          "internalType": "uint256",
          "name": "",
          "type": "uint256"
        }
      ],
      "name": "pieceIds",
      "outputs": [
        {
          "internalType": "uint8",
          "name": "",
          "type": "uint8"
        }
      ],
      "stateMutability": "view",
      "type": "function",
      "constant": true
    },
    {
      "inputs": [
        {
          "internalType": "uint8",
          "name": "",
          "type": "uint8"
        }
      ],
      "name": "pieces",
      "outputs": [
        {
          "internalType": "uint8",
          "name": "id",
          "type": "uint8"
        },
        {
          "internalType": "enum PieceType",
          "name": "pieceType",
          "type": "uint8"
        },
        {
          "internalType": "address",
          "name": "owner",
          "type": "address"
        },
        {
          "internalType": "uint8",
          "name": "row",
          "type": "uint8"
        },
        {
          "internalType": "uint8",
          "name": "col",
          "type": "uint8"
        },
        {
          "internalType": "bool",
          "name": "alive",
          "type": "bool"
        },
        {
          "internalType": "uint256",
          "name": "commitment",
          "type": "uint256"
        }
      ],
      "stateMutability": "view",
      "type": "function",
      "constant": true
    },
    {
      "inputs": [],
      "name": "player1",
      "outputs": [
        {
          "internalType": "address",
          "name": "",
          "type": "address"
        }
      ],
      "stateMutability": "view",
      "type": "function",
      "constant": true
    },
    {
      "inputs": [],
      "name": "player1Score",
      "outputs": [
        {
          "internalType": "uint8",
          "name": "",
          "type": "uint8"
        }
      ],
      "stateMutability": "view",
      "type": "function",
      "constant": true
    },
    {
      "inputs": [],
      "name": "player2",
      "outputs": [
        {
          "internalType": "address",
          "name": "",
          "type": "address"
        }
      ],
      "stateMutability": "view",
      "type": "function",
      "constant": true
    },
    {
      "inputs": [],
      "name": "player2Score",
      "outputs": [
        {
          "internalType": "uint8",
          "name": "",
          "type": "uint8"
        }
      ],
      "stateMutability": "view",
      "type": "function",
      "constant": true
    },
    {
      "inputs": [],
      "name": "turnNumber",
      "outputs": [
        {
          "internalType": "uint8",
          "name": "",
          "type": "uint8"
        }
      ],
      "stateMutability": "view",
      "type": "function",
      "constant": true
    },
    {
      "inputs": [
        {
          "internalType": "uint256",
          "name": "_gameId",
          "type": "uint256"
        },
        {
          "internalType": "bool",
          "name": "_disableZKCheck",
          "type": "bool"
        }
      ],
      "name": "initialize",
      "outputs": [],
      "stateMutability": "nonpayable",
      "type": "function"
    },
    {
      "inputs": [],
      "name": "getPieces",
      "outputs": [
        {
          "components": [
            {
              "internalType": "uint8",
              "name": "id",
              "type": "uint8"
            },
            {
              "internalType": "enum PieceType",
              "name": "pieceType",
              "type": "uint8"
            },
            {
              "internalType": "address",
              "name": "owner",
              "type": "address"
            },
            {
              "internalType": "uint8",
              "name": "row",
              "type": "uint8"
            },
            {
              "internalType": "uint8",
              "name": "col",
              "type": "uint8"
            },
            {
              "internalType": "bool",
              "name": "alive",
              "type": "bool"
            },
            {
              "internalType": "uint256",
              "name": "commitment",
              "type": "uint256"
            }
          ],
          "internalType": "struct Piece[]",
          "name": "ret",
          "type": "tuple[]"
        }
      ],
      "stateMutability": "view",
      "type": "function",
      "constant": true
    },
    {
      "inputs": [],
      "name": "getObjectives",
      "outputs": [
        {
          "components": [
            {
              "internalType": "uint8",
              "name": "id",
              "type": "uint8"
            },
            {
              "internalType": "uint8",
              "name": "value",
              "type": "uint8"
            },
            {
              "internalType": "uint8",
              "name": "row",
              "type": "uint8"
            },
            {
              "internalType": "uint8",
              "name": "col",
              "type": "uint8"
            },
            {
              "internalType": "address",
              "name": "capturedBy",
              "type": "address"
            }
          ],
          "internalType": "struct Objective[]",
          "name": "ret",
          "type": "tuple[]"
        }
      ],
      "stateMutability": "view",
      "type": "function",
      "constant": true
    },
    {
      "inputs": [
        {
          "components": [
            {
              "internalType": "uint8",
              "name": "id",
              "type": "uint8"
            },
            {
              "internalType": "enum PieceType",
              "name": "pieceType",
              "type": "uint8"
            },
            {
              "internalType": "address",
              "name": "owner",
              "type": "address"
            },
            {
              "internalType": "uint8",
              "name": "row",
              "type": "uint8"
            },
            {
              "internalType": "uint8",
              "name": "col",
              "type": "uint8"
            },
            {
              "internalType": "bool",
              "name": "alive",
              "type": "bool"
            },
            {
              "internalType": "uint256",
              "name": "commitment",
              "type": "uint256"
            }
          ],
          "internalType": "struct Piece",
          "name": "piece",
          "type": "tuple"
        },
        {
          "internalType": "uint8[]",
          "name": "toRow",
          "type": "uint8[]"
        },
        {
          "internalType": "uint8[]",
          "name": "toCol",
          "type": "uint8[]"
        }
      ],
      "name": "isValidMove",
      "outputs": [
        {
          "internalType": "bool",
          "name": "",
          "type": "bool"
        }
      ],
      "stateMutability": "view",
      "type": "function",
      "constant": true
    },
    {
      "inputs": [],
      "name": "gameShouldBeCompleted",
      "outputs": [
        {
          "internalType": "bool",
          "name": "",
          "type": "bool"
        }
      ],
      "stateMutability": "view",
      "type": "function",
      "constant": true
    },
    {
      "inputs": [],
      "name": "joinGame",
      "outputs": [],
      "stateMutability": "nonpayable",
      "type": "function"
    },
    {
      "inputs": [
        {
          "components": [
            {
              "internalType": "uint8",
              "name": "turnNumber",
              "type": "uint8"
            },
            {
              "internalType": "uint8",
              "name": "pieceId",
              "type": "uint8"
            },
            {
              "internalType": "bool",
              "name": "doesMove",
              "type": "bool"
            },
            {
              "internalType": "uint8[]",
              "name": "moveToRow",
              "type": "uint8[]"
            },
            {
              "internalType": "uint8[]",
              "name": "moveToCol",
              "type": "uint8[]"
            },
            {
              "internalType": "bool",
              "name": "doesAttack",
              "type": "bool"
            },
            {
              "internalType": "uint8",
              "name": "attackRow",
              "type": "uint8"
            },
            {
              "internalType": "uint8",
              "name": "attackCol",
              "type": "uint8"
            },
            {
              "components": [
                {
                  "internalType": "uint256[2]",
                  "name": "a",
                  "type": "uint256[2]"
                },
                {
                  "internalType": "uint256[2][2]",
                  "name": "b",
                  "type": "uint256[2][2]"
                },
                {
                  "internalType": "uint256[2]",
                  "name": "c",
                  "type": "uint256[2]"
                },
                {
                  "internalType": "uint256[2]",
                  "name": "input",
                  "type": "uint256[2]"
                }
              ],
              "internalType": "struct MoveZKP",
              "name": "moveZkp",
              "type": "tuple"
            },
            {
              "components": [
                {
                  "internalType": "uint256[2]",
                  "name": "a",
                  "type": "uint256[2]"
                },
                {
                  "internalType": "uint256[2][2]",
                  "name": "b",
                  "type": "uint256[2][2]"
                },
                {
                  "internalType": "uint256[2]",
                  "name": "c",
                  "type": "uint256[2]"
                },
                {
                  "internalType": "uint256[4]",
                  "name": "input",
                  "type": "uint256[4]"
                }
              ],
              "internalType": "struct AttackZKP",
              "name": "attackZkp",
              "type": "tuple"
            }
          ],
          "internalType": "struct Action",
          "name": "action",
          "type": "tuple"
        }
      ],
      "name": "act",
      "outputs": [],
      "stateMutability": "nonpayable",
      "type": "function"
    }
  ],
  "bytecode": "0x608060405234801561001057600080fd5b50615396806100206000396000f3fe608060405234801561001057600080fd5b50600436106101585760003560e01c8063acbc1a91116100c3578063d1f9c24d1161007c578063d1f9c24d146103eb578063d30895e414610409578063d4f77b1c14610427578063d7c81b5514610431578063dc4a3e951461044f578063ee5d8a711461046d57610158565b8063acbc1a9114610301578063b02282461461031f578063bd91fdb41461034f578063c6204ee21461036d578063cf615f6c1461039d578063cfecc6de146103bb57610158565b80635700401e116101155780635700401e1461023757806359a5f12d146102555780635c3beb32146102735780637174f2c0146102a75780637e15247d146102c55780638af9d562146102e357610158565b8063279646661461015d5780632c784f32146101795780633fb7388e146101af578063414a37ba146101df57806351759e49146101fd57806351df541c14610219575b600080fd5b610177600480360381019061017291906143e3565b61049d565b005b610193600480360381019061018e919061445b565b611bd9565b6040516101a69796959493929190614fa0565b60405180910390f35b6101c960048036038101906101c4919061441f565b611c7c565b6040516101d69190614f85565b60405180910390f35b6101e7611cb2565b6040516101f49190614f6a565b60405180910390f35b610217600480360381019061021291906142f8565b611cd6565b005b610221612700565b60405161022e9190614d54565b60405180910390f35b61023f612874565b60405161024c9190614f85565b60405180910390f35b61025d612887565b60405161026a9190614c6a565b60405180910390f35b61028d6004803603810190610288919061445b565b6128ad565b60405161029e95949392919061500f565b60405180910390f35b6102af612937565b6040516102bc9190614f85565b60405180910390f35b6102cd61294a565b6040516102da9190614cc9565b60405180910390f35b6102eb612af4565b6040516102f89190614d54565b60405180910390f35b610309612b07565b6040516103169190614f6a565b60405180910390f35b6103396004803603810190610334919061441f565b612b2b565b6040516103469190614f85565b60405180910390f35b610357612b61565b6040516103649190614f85565b60405180910390f35b610387600480360381019061038291906143ba565b612b74565b6040516103949190614f85565b60405180910390f35b6103a5612b9b565b6040516103b29190614ceb565b60405180910390f35b6103d560048036038101906103d091906143ba565b612d7a565b6040516103e29190614f85565b60405180910390f35b6103f3612da1565b6040516104009190614d6f565b60405180910390f35b610411612db4565b60405161041e9190614c6a565b60405180910390f35b61042f612dda565b005b61043961324e565b6040516104469190614f6a565b60405180910390f35b610457613254565b6040516104649190614f6a565b60405180910390f35b61048760048036038101906104829190614339565b613259565b6040516104949190614d54565b60405180910390f35b8160338190555080604760006101000a81548160ff0219169083151502179055506000603460016101000a81548160ff021916908360038111156104dd57fe5b0217905550604051806101000160405280600160ff168152602001600260ff168152602001600360ff168152602001600460ff168152602001600560ff168152602001600660ff168152602001600760ff168152602001600860ff16815250604390600861054c929190613b96565b506040518060c00160405280600960ff168152602001600a60ff168152602001600b60ff168152602001600c60ff168152602001600d60ff168152602001600e60ff1681525060459060066105a2929190613c30565b506040518060e00160405280600160ff168152602001600060028111156105c557fe5b8152602001600073ffffffffffffffffffffffffffffffffffffffff168152602001600060ff168152602001600160ff168152602001600115158152602001600081525060446000600160ff16815260200190815260200160002060008201518160000160006101000a81548160ff021916908360ff16021790555060208201518160000160016101000a81548160ff0219169083600281111561066557fe5b021790555060408201518160000160026101000a81548173ffffffffffffffffffffffffffffffffffffffff021916908373ffffffffffffffffffffffffffffffffffffffff16021790555060608201518160000160166101000a81548160ff021916908360ff16021790555060808201518160000160176101000a81548160ff021916908360ff16021790555060a08201518160000160186101000a81548160ff02191690831515021790555060c082015181600101559050506001603560006007811061073057fe5b0160016007811061073d57fe5b602091828204019190066101000a81548160ff021916908360ff1602179055506040518060e00160405280600260ff1681526020016001600281111561077f57fe5b8152602001600073ffffffffffffffffffffffffffffffffffffffff168152602001600060ff168152602001600360ff168152602001600115158152602001600081525060446000600260ff16815260200190815260200160002060008201518160000160006101000a81548160ff021916908360ff16021790555060208201518160000160016101000a81548160ff0219169083600281111561081f57fe5b021790555060408201518160000160026101000a81548173ffffffffffffffffffffffffffffffffffffffff021916908373ffffffffffffffffffffffffffffffffffffffff16021790555060608201518160000160166101000a81548160ff021916908360ff16021790555060808201518160000160176101000a81548160ff021916908360ff16021790555060a08201518160000160186101000a81548160ff02191690831515021790555060c08201518160010155905050600260356000600781106108ea57fe5b016003600781106108f757fe5b602091828204019190066101000a81548160ff021916908360ff1602179055506040518060e00160405280600360ff1681526020016000600281111561093957fe5b8152602001600073ffffffffffffffffffffffffffffffffffffffff168152602001600060ff168152602001600560ff168152602001600115158152602001600081525060446000600360ff16815260200190815260200160002060008201518160000160006101000a81548160ff021916908360ff16021790555060208201518160000160016101000a81548160ff021916908360028111156109d957fe5b021790555060408201518160000160026101000a81548173ffffffffffffffffffffffffffffffffffffffff021916908373ffffffffffffffffffffffffffffffffffffffff16021790555060608201518160000160166101000a81548160ff021916908360ff16021790555060808201518160000160176101000a81548160ff021916908360ff16021790555060a08201518160000160186101000a81548160ff02191690831515021790555060c0820151816001015590505060036035600060078110610aa457fe5b01600560078110610ab157fe5b602091828204019190066101000a81548160ff021916908360ff1602179055506040518060e00160405280600460ff168152602001600280811115610af257fe5b8152602001600073ffffffffffffffffffffffffffffffffffffffff168152602001600060ff168152602001600060ff1681526020016001151581526020017f104ddaefd01036b8465b22025720f944733190135fd4ed564186bc3cfcaec72281525060446000600460ff16815260200190815260200160002060008201518160000160006101000a81548160ff021916908360ff16021790555060208201518160000160016101000a81548160ff02191690836002811115610bb157fe5b021790555060408201518160000160026101000a81548173ffffffffffffffffffffffffffffffffffffffff021916908373ffffffffffffffffffffffffffffffffffffffff16021790555060608201518160000160166101000a81548160ff021916908360ff16021790555060808201518160000160176101000a81548160ff021916908360ff16021790555060a08201518160000160186101000a81548160ff02191690831515021790555060c082015181600101559050506040518060e00160405280600560ff16815260200160006002811115610c8e57fe5b8152602001600073ffffffffffffffffffffffffffffffffffffffff168152602001600660ff168152602001600160ff168152602001600115158152602001600081525060446000600560ff16815260200190815260200160002060008201518160000160006101000a81548160ff021916908360ff16021790555060208201518160000160016101000a81548160ff02191690836002811115610d2e57fe5b021790555060408201518160000160026101000a81548173ffffffffffffffffffffffffffffffffffffffff021916908373ffffffffffffffffffffffffffffffffffffffff16021790555060608201518160000160166101000a81548160ff021916908360ff16021790555060808201518160000160176101000a81548160ff021916908360ff16021790555060a08201518160000160186101000a81548160ff02191690831515021790555060c0820151816001015590505060056035600660078110610df957fe5b01600160078110610e0657fe5b602091828204019190066101000a81548160ff021916908360ff1602179055506040518060e00160405280600660ff16815260200160016002811115610e4857fe5b8152602001600073ffffffffffffffffffffffffffffffffffffffff168152602001600660ff168152602001600360ff168152602001600115158152602001600081525060446000600660ff16815260200190815260200160002060008201518160000160006101000a81548160ff021916908360ff16021790555060208201518160000160016101000a81548160ff02191690836002811115610ee857fe5b021790555060408201518160000160026101000a81548173ffffffffffffffffffffffffffffffffffffffff021916908373ffffffffffffffffffffffffffffffffffffffff16021790555060608201518160000160166101000a81548160ff021916908360ff16021790555060808201518160000160176101000a81548160ff021916908360ff16021790555060a08201518160000160186101000a81548160ff02191690831515021790555060c0820151816001015590505060066035600660078110610fb357fe5b01600360078110610fc057fe5b602091828204019190066101000a81548160ff021916908360ff1602179055506040518060e00160405280600760ff1681526020016000600281111561100257fe5b8152602001600073ffffffffffffffffffffffffffffffffffffffff168152602001600660ff168152602001600560ff168152602001600115158152602001600081525060446000600760ff16815260200190815260200160002060008201518160000160006101000a81548160ff021916908360ff16021790555060208201518160000160016101000a81548160ff021916908360028111156110a257fe5b021790555060408201518160000160026101000a81548173ffffffffffffffffffffffffffffffffffffffff021916908373ffffffffffffffffffffffffffffffffffffffff16021790555060608201518160000160166101000a81548160ff021916908360ff16021790555060808201518160000160176101000a81548160ff021916908360ff16021790555060a08201518160000160186101000a81548160ff02191690831515021790555060c082015181600101559050506007603560066007811061116d57fe5b0160056007811061117a57fe5b602091828204019190066101000a81548160ff021916908360ff1602179055506040518060e00160405280600860ff1681526020016002808111156111bb57fe5b8152602001600073ffffffffffffffffffffffffffffffffffffffff168152602001600660ff168152602001600060ff1681526020016001151581526020017f104ddaefd01036b8465b22025720f944733190135fd4ed564186bc3cfcaec72281525060446000600860ff16815260200190815260200160002060008201518160000160006101000a81548160ff021916908360ff16021790555060208201518160000160016101000a81548160ff0219169083600281111561127a57fe5b021790555060408201518160000160026101000a81548173ffffffffffffffffffffffffffffffffffffffff021916908373ffffffffffffffffffffffffffffffffffffffff16021790555060608201518160000160166101000a81548160ff021916908360ff16021790555060808201518160000160176101000a81548160ff021916908360ff16021790555060a08201518160000160186101000a81548160ff02191690831515021790555060c082015181600101559050506040518060a00160405280600960ff168152602001600560ff168152602001600360ff168152602001600060ff168152602001600073ffffffffffffffffffffffffffffffffffffffff1681525060466000600960ff16815260200190815260200160002060008201518160000160006101000a81548160ff021916908360ff16021790555060208201518160000160016101000a81548160ff021916908360ff16021790555060408201518160000160026101000a81548160ff021916908360ff16021790555060608201518160000160036101000a81548160ff021916908360ff16021790555060808201518160000160046101000a81548173ffffffffffffffffffffffffffffffffffffffff021916908373ffffffffffffffffffffffffffffffffffffffff1602179055509050506009603c60036007811061147857fe5b0160006007811061148557fe5b602091828204019190066101000a81548160ff021916908360ff1602179055506040518060a00160405280600a60ff168152602001600560ff168152602001600260ff168152602001600260ff168152602001600073ffffffffffffffffffffffffffffffffffffffff1681525060466000600a60ff16815260200190815260200160002060008201518160000160006101000a81548160ff021916908360ff16021790555060208201518160000160016101000a81548160ff021916908360ff16021790555060408201518160000160026101000a81548160ff021916908360ff16021790555060608201518160000160036101000a81548160ff021916908360ff16021790555060808201518160000160046101000a81548173ffffffffffffffffffffffffffffffffffffffff021916908373ffffffffffffffffffffffffffffffffffffffff160217905550905050600a603c6002600781106115e857fe5b016002600781106115f557fe5b602091828204019190066101000a81548160ff021916908360ff1602179055506040518060a00160405280600b60ff168152602001600a60ff168152602001600460ff168152602001600260ff168152602001600073ffffffffffffffffffffffffffffffffffffffff1681525060466000600b60ff16815260200190815260200160002060008201518160000160006101000a81548160ff021916908360ff16021790555060208201518160000160016101000a81548160ff021916908360ff16021790555060408201518160000160026101000a81548160ff021916908360ff16021790555060608201518160000160036101000a81548160ff021916908360ff16021790555060808201518160000160046101000a81548173ffffffffffffffffffffffffffffffffffffffff021916908373ffffffffffffffffffffffffffffffffffffffff160217905550905050600b603c60046007811061175857fe5b0160026007811061176557fe5b602091828204019190066101000a81548160ff021916908360ff1602179055506040518060a00160405280600c60ff168152602001600a60ff168152602001600260ff168152602001600460ff168152602001600073ffffffffffffffffffffffffffffffffffffffff1681525060466000600c60ff16815260200190815260200160002060008201518160000160006101000a81548160ff021916908360ff16021790555060208201518160000160016101000a81548160ff021916908360ff16021790555060408201518160000160026101000a81548160ff021916908360ff16021790555060608201518160000160036101000a81548160ff021916908360ff16021790555060808201518160000160046101000a81548173ffffffffffffffffffffffffffffffffffffffff021916908373ffffffffffffffffffffffffffffffffffffffff160217905550905050600c603c6002600781106118c857fe5b016004600781106118d557fe5b602091828204019190066101000a81548160ff021916908360ff1602179055506040518060a00160405280600d60ff168152602001600560ff168152602001600460ff168152602001600460ff168152602001600073ffffffffffffffffffffffffffffffffffffffff1681525060466000600d60ff16815260200190815260200160002060008201518160000160006101000a81548160ff021916908360ff16021790555060208201518160000160016101000a81548160ff021916908360ff16021790555060408201518160000160026101000a81548160ff021916908360ff16021790555060608201518160000160036101000a81548160ff021916908360ff16021790555060808201518160000160046101000a81548173ffffffffffffffffffffffffffffffffffffffff021916908373ffffffffffffffffffffffffffffffffffffffff160217905550905050600d603c600460078110611a3857fe5b01600460078110611a4557fe5b602091828204019190066101000a81548160ff021916908360ff1602179055506040518060a00160405280600e60ff168152602001600560ff168152602001600360ff168152602001600660ff168152602001600073ffffffffffffffffffffffffffffffffffffffff1681525060466000600e60ff16815260200190815260200160002060008201518160000160006101000a81548160ff021916908360ff16021790555060208201518160000160016101000a81548160ff021916908360ff16021790555060408201518160000160026101000a81548160ff021916908360ff16021790555060608201518160000160036101000a81548160ff021916908360ff16021790555060808201518160000160046101000a81548173ffffffffffffffffffffffffffffffffffffffff021916908373ffffffffffffffffffffffffffffffffffffffff160217905550905050600e603c600360078110611ba857fe5b01600660078110611bb557fe5b602091828204019190066101000a81548160ff021916908360ff1602179055505050565b60446020528060005260406000206000915090508060000160009054906101000a900460ff16908060000160019054906101000a900460ff16908060000160029054906101000a900473ffffffffffffffffffffffffffffffffffffffff16908060000160169054906101000a900460ff16908060000160179054906101000a900460ff16908060000160189054906101000a900460ff16908060010154905087565b60358260078110611c8957fe5b018160078110611c9557fe5b60209182820401919006915091509054906101000a900460ff1681565b7f30644e72e131a029b85045b68181585d2833e84879b9709143e1f593f000000181565b600380811115611ce257fe5b603460019054906101000a900460ff166003811115611cfd57fe5b1415611d3e576040517f08c379a0000000000000000000000000000000000000000000000000000000008152600401611d3590614e8a565b60405180910390fd5b604760019054906101000a900473ffffffffffffffffffffffffffffffffffffffff1673ffffffffffffffffffffffffffffffffffffffff163373ffffffffffffffffffffffffffffffffffffffff161415611dfd5760016003811115611da157fe5b603460019054906101000a900460ff166003811115611dbc57fe5b14611dfc576040517f08c379a0000000000000000000000000000000000000000000000000000000008152600401611df390614f4a565b60405180910390fd5b5b604860009054906101000a900473ffffffffffffffffffffffffffffffffffffffff1673ffffffffffffffffffffffffffffffffffffffff163373ffffffffffffffffffffffffffffffffffffffff161415611ebc5760026003811115611e6057fe5b603460019054906101000a900460ff166003811115611e7b57fe5b14611ebb576040517f08c379a0000000000000000000000000000000000000000000000000000000008152600401611eb290614eaa565b60405180910390fd5b5b603460009054906101000a900460ff1660ff16816000015160ff1614611f17576040517f08c379a0000000000000000000000000000000000000000000000000000000008152600401611f0e90614daa565b60405180910390fd5b600060446000836020015160ff1660ff16815260200190815260200160002090503373ffffffffffffffffffffffffffffffffffffffff168160000160029054906101000a900473ffffffffffffffffffffffffffffffffffffffff1673ffffffffffffffffffffffffffffffffffffffff1614158015611fe95750600073ffffffffffffffffffffffffffffffffffffffff168160000160029054906101000a900473ffffffffffffffffffffffffffffffffffffffff1673ffffffffffffffffffffffffffffffffffffffff1614155b612028576040517f08c379a000000000000000000000000000000000000000000000000000000000815260040161201f90614e6a565b60405180910390fd5b6000826020015160ff16141561203e57506126fd565b8060000160189054906101000a900460ff1661208f576040517f08c379a000000000000000000000000000000000000000000000000000000000815260040161208690614dca565b60405180910390fd5b60028081111561209b57fe5b8160000160019054906101000a900460ff1660028111156120b857fe5b141561224b57816101000151606001516000600281106120d457fe5b602002015181600101541461211e576040517f08c379a000000000000000000000000000000000000000000000000000000000815260040161211590614eea565b60405180910390fd5b604760009054906101000a900460ff166122235773__Verifier______________________________63ab475307836101000151600001518461010001516020015185610100015160400151866101000151606001516040518563ffffffff1660e01b81526004016121939493929190614d0d565b60206040518083038186803b1580156121ab57600080fd5b505af41580156121bf573d6000803e3d6000fd5b505050506040513d601f19601f820116820180604052508101906121e391906142cf565b612222576040517f08c379a000000000000000000000000000000000000000000000000000000000815260040161221990614e2a565b60405180910390fd5b5b8161010001516060015160016002811061223957fe5b602002015181600101819055506126f3565b8160400151156126f25760608260600151905060608360800151905061237c836040518060e00160405290816000820160009054906101000a900460ff1660ff1660ff1681526020016000820160019054906101000a900460ff1660028111156122b157fe5b60028111156122bc57fe5b81526020016000820160029054906101000a900473ffffffffffffffffffffffffffffffffffffffff1673ffffffffffffffffffffffffffffffffffffffff1673ffffffffffffffffffffffffffffffffffffffff1681526020016000820160169054906101000a900460ff1660ff1660ff1681526020016000820160179054906101000a900460ff1660ff1660ff1681526020016000820160189054906101000a900460ff161515151581526020016001820154815250508383613259565b6123bb576040517f08c379a00000000000000000000000000000000000000000000000000000000081526004016123b290614e4a565b60405180910390fd5b6000826001845103815181106123cd57fe5b602002602001015190506000826001845103815181106123e957fe5b60200260200101519050600060358660000160169054906101000a900460ff1660ff166007811061241657fe5b018660000160179054906101000a900460ff1660ff166007811061243657fe5b602091828204019190066101000a81548160ff021916908360ff1602179055508460000160009054906101000a900460ff1660358360ff166007811061247857fe5b018260ff166007811061248757fe5b602091828204019190066101000a81548160ff021916908360ff160217905550818560000160166101000a81548160ff021916908360ff160217905550808560000160176101000a81548160ff021916908360ff160217905550600060466000603c8560ff16600781106124f757fe5b018460ff166007811061250657fe5b602091828204019190069054906101000a900460ff1660ff1660ff16815260200190815260200160002060000160019054906101000a900460ff1660ff161180156125ed5750600073ffffffffffffffffffffffffffffffffffffffff1660466000603c8560ff166007811061257857fe5b018460ff166007811061258757fe5b602091828204019190069054906101000a900460ff1660ff1660ff16815260200190815260200160002060000160049054906101000a900473ffffffffffffffffffffffffffffffffffffffff1673ffffffffffffffffffffffffffffffffffffffff16145b156126ed57604760019054906101000a900473ffffffffffffffffffffffffffffffffffffffff1673ffffffffffffffffffffffffffffffffffffffff163373ffffffffffffffffffffffffffffffffffffffff16141561269c57603c8260ff166007811061265857fe5b018160ff166007811061266757fe5b602091828204019190069054906101000a900460ff16604860166101000a81548160ff021916908360ff1602179055506126ec565b603c8260ff16600781106126ac57fe5b018160ff16600781106126bb57fe5b602091828204019190069054906101000a900460ff16604860176101000a81548160ff021916908360ff1602179055505b5b505050505b5b6126fb61354b565b505b50565b6000806001905060008090505b60088160ff161015612783576044600060438360ff166008811061272d57fe5b602091828204019190069054906101000a900460ff1660ff1660ff16815260200190815260200160002060000160189054906101000a900460ff16156127765760009150612783565b808060010191505061270d565b508015612794576001915050612871565b60006001905060008090505b60068160ff16101561285857600073ffffffffffffffffffffffffffffffffffffffff166046600060458460ff16600681106127d857fe5b602091828204019190069054906101000a900460ff1660ff1660ff16815260200190815260200160002060000160049054906101000a900473ffffffffffffffffffffffffffffffffffffffff1673ffffffffffffffffffffffffffffffffffffffff16141561284b5760009150612858565b80806001019150506127a0565b50801561286a57600192505050612871565b6000925050505b90565b603460009054906101000a900460ff1681565b604860009054906101000a900473ffffffffffffffffffffffffffffffffffffffff1681565b60466020528060005260406000206000915090508060000160009054906101000a900460ff16908060000160019054906101000a900460ff16908060000160029054906101000a900460ff16908060000160039054906101000a900460ff16908060000160049054906101000a900473ffffffffffffffffffffffffffffffffffffffff16905085565b604860149054906101000a900460ff1681565b6060600667ffffffffffffffff8111801561296457600080fd5b5060405190808252806020026020018201604052801561299e57816020015b61298b613cca565b8152602001906001900390816129835790505b50905060008090505b60068160ff161015612aed576046600060458360ff16600681106129c757fe5b602091828204019190069054906101000a900460ff1660ff1660ff1681526020019081526020016000206040518060a00160405290816000820160009054906101000a900460ff1660ff1660ff1681526020016000820160019054906101000a900460ff1660ff1660ff1681526020016000820160029054906101000a900460ff1660ff1660ff1681526020016000820160039054906101000a900460ff1660ff1660ff1681526020016000820160049054906101000a900473ffffffffffffffffffffffffffffffffffffffff1673ffffffffffffffffffffffffffffffffffffffff1673ffffffffffffffffffffffffffffffffffffffff1681525050828260ff1681518110612ad557fe5b602002602001018190525080806001019150506129a7565b5080905090565b604760009054906101000a900460ff1681565b7f104ddaefd01036b8465b22025720f944733190135fd4ed564186bc3cfcaec72281565b603c8260078110612b3857fe5b018160078110612b4457fe5b60209182820401919006915091509054906101000a900460ff1681565b604860159054906101000a900460ff1681565b60458160068110612b8157fe5b60209182820401919006915054906101000a900460ff1681565b6060600867ffffffffffffffff81118015612bb557600080fd5b50604051908082528060200260200182016040528015612bef57816020015b612bdc613d1b565b815260200190600190039081612bd45790505b50905060008090505b60088160ff161015612d73576044600060438360ff1660088110612c1857fe5b602091828204019190069054906101000a900460ff1660ff1660ff1681526020019081526020016000206040518060e00160405290816000820160009054906101000a900460ff1660ff1660ff1681526020016000820160019054906101000a900460ff166002811115612c8857fe5b6002811115612c9357fe5b81526020016000820160029054906101000a900473ffffffffffffffffffffffffffffffffffffffff1673ffffffffffffffffffffffffffffffffffffffff1673ffffffffffffffffffffffffffffffffffffffff1681526020016000820160169054906101000a900460ff1660ff1660ff1681526020016000820160179054906101000a900460ff1660ff1660ff1681526020016000820160189054906101000a900460ff16151515158152602001600182015481525050828260ff1681518110612d5b57fe5b60200260200101819052508080600101915050612bf8565b5080905090565b60438160088110612d8757fe5b60209182820401919006915054906101000a900460ff1681565b603460019054906101000a900460ff1681565b604760019054906101000a900473ffffffffffffffffffffffffffffffffffffffff1681565b60006003811115612de757fe5b603460019054906101000a900460ff166003811115612e0257fe5b14612e42576040517f08c379a0000000000000000000000000000000000000000000000000000000008152600401612e3990614f2a565b60405180910390fd5b600073ffffffffffffffffffffffffffffffffffffffff16604760019054906101000a900473ffffffffffffffffffffffffffffffffffffffff1673ffffffffffffffffffffffffffffffffffffffff161415612edf5733604760016101000a81548173ffffffffffffffffffffffffffffffffffffffff021916908373ffffffffffffffffffffffffffffffffffffffff16021790555061324c565b604760019054906101000a900473ffffffffffffffffffffffffffffffffffffffff1673ffffffffffffffffffffffffffffffffffffffff163373ffffffffffffffffffffffffffffffffffffffff161415612f70576040517f08c379a0000000000000000000000000000000000000000000000000000000008152600401612f6790614dea565b60405180910390fd5b600060024281612f7c57fe5b061415612fc95733604860006101000a81548173ffffffffffffffffffffffffffffffffffffffff021916908373ffffffffffffffffffffffffffffffffffffffff16021790555061306e565b604760019054906101000a900473ffffffffffffffffffffffffffffffffffffffff16604860006101000a81548173ffffffffffffffffffffffffffffffffffffffff021916908373ffffffffffffffffffffffffffffffffffffffff16021790555033604760016101000a81548173ffffffffffffffffffffffffffffffffffffffff021916908373ffffffffffffffffffffffffffffffffffffffff1602179055505b6000600190505b60058160ff16101561310b57604760019054906101000a900473ffffffffffffffffffffffffffffffffffffffff16604460008360ff1660ff16815260200190815260200160002060000160026101000a81548173ffffffffffffffffffffffffffffffffffffffff021916908373ffffffffffffffffffffffffffffffffffffffff1602179055508080600101915050613075565b506000600590505b60098160ff1610156131a957604860009054906101000a900473ffffffffffffffffffffffffffffffffffffffff16604460008360ff1660ff16815260200190815260200160002060000160026101000a81548173ffffffffffffffffffffffffffffffffffffffff021916908373ffffffffffffffffffffffffffffffffffffffff1602179055508080600101915050613113565b506001603460016101000a81548160ff021916908360038111156131c957fe5b02179055507f8fd707874eb940598510258c64cad23fd35fe8c85c5c38e8782fac2cc887fb6e604760019054906101000a900473ffffffffffffffffffffffffffffffffffffffff16604860009054906101000a900473ffffffffffffffffffffffffffffffffffffffff16604051613243929190614ca0565b60405180910390a15b565b60335481565b600781565b6000808460600151905060008560800151905083518551146132b0576040517f08c379a00000000000000000000000000000000000000000000000000000000081526004016132a790614eca565b60405180910390fd5b6000809050600060028111156132c257fe5b876020015160028111156132d257fe5b14156132e1576001905061330a565b600160028111156132ee57fe5b876020015160028111156132fe57fe5b141561330957600290505b5b8060ff1686511115613351576040517f08c379a000000000000000000000000000000000000000000000000000000000815260040161334890614f0a565b60405180910390fd5b60008090505b865181101561353c57600087828151811061336e57fe5b60200260200101519050600087838151811061338657fe5b6020026020010151905060078260ff1610806133a5575060078160ff16105b6133e4576040517f08c379a00000000000000000000000000000000000000000000000000000000081526004016133db90614e0a565b60405180910390fd5b8560ff168260ff1614806133fd57508460ff168160ff16145b801561343e5750600186830360ff16148061341d5750600182870360ff16145b8061342d5750600185820360ff16145b8061343d5750600181860360ff16145b5b61347d576040517f08c379a000000000000000000000000000000000000000000000000000000000815260040161347490614eca565b60405180910390fd5b600060358360ff166007811061348f57fe5b018260ff166007811061349e57fe5b602091828204019190069054906101000a900460ff1690506000604460008360ff1660ff16815260200190815260200160002090508060000160189054906101000a900460ff1615613525576040517f08c379a000000000000000000000000000000000000000000000000000000000815260040161351c90614d8a565b60405180910390fd5b839750829650505050508080600101915050613357565b50600193505050509392505050565b604760019054906101000a900473ffffffffffffffffffffffffffffffffffffffff1673ffffffffffffffffffffffffffffffffffffffff163373ffffffffffffffffffffffffffffffffffffffff16141561383957600060466000604860179054906101000a900460ff1660ff1660ff168152602001908152602001600020905060008160000160019054906101000a900460ff1660ff161180156136415750600073ffffffffffffffffffffffffffffffffffffffff168160000160049054906101000a900473ffffffffffffffffffffffffffffffffffffffff1673ffffffffffffffffffffffffffffffffffffffff16145b156137f35760006044600060358460000160029054906101000a900460ff1660ff166007811061366d57fe5b018460000160039054906101000a900460ff1660ff166007811061368d57fe5b602091828204019190069054906101000a900460ff1660ff1660ff1681526020019081526020016000209050604860009054906101000a900473ffffffffffffffffffffffffffffffffffffffff1673ffffffffffffffffffffffffffffffffffffffff168160000160029054906101000a900473ffffffffffffffffffffffffffffffffffffffff1673ffffffffffffffffffffffffffffffffffffffff1614801561374857508060000160189054906101000a900460ff165b156137f157604860009054906101000a900473ffffffffffffffffffffffffffffffffffffffff168260000160046101000a81548173ffffffffffffffffffffffffffffffffffffffff021916908373ffffffffffffffffffffffffffffffffffffffff1602179055508160000160019054906101000a900460ff16604860158282829054906101000a900460ff160192506101000a81548160ff021916908360ff1602179055505b505b6000604860176101000a81548160ff021916908360ff1602179055506002603460016101000a81548160ff0219169083600381111561382e57fe5b021790555050613aff565b600060466000604860169054906101000a900460ff1660ff1660ff168152602001908152602001600020905060008160000160019054906101000a900460ff1660ff161180156138d95750600073ffffffffffffffffffffffffffffffffffffffff168160000160049054906101000a900473ffffffffffffffffffffffffffffffffffffffff1673ffffffffffffffffffffffffffffffffffffffff16145b15613a8b5760006044600060358460000160029054906101000a900460ff1660ff166007811061390557fe5b018460000160039054906101000a900460ff1660ff166007811061392557fe5b602091828204019190069054906101000a900460ff1660ff1660ff1681526020019081526020016000209050604760019054906101000a900473ffffffffffffffffffffffffffffffffffffffff1673ffffffffffffffffffffffffffffffffffffffff168160000160029054906101000a900473ffffffffffffffffffffffffffffffffffffffff1673ffffffffffffffffffffffffffffffffffffffff161480156139e057508060000160189054906101000a900460ff165b15613a8957604760019054906101000a900473ffffffffffffffffffffffffffffffffffffffff168260000160046101000a81548173ffffffffffffffffffffffffffffffffffffffff021916908373ffffffffffffffffffffffffffffffffffffffff1602179055508160000160019054906101000a900460ff16604860148282829054906101000a900460ff160192506101000a81548160ff021916908360ff1602179055505b505b6000604860166101000a81548160ff021916908360ff1602179055506034600081819054906101000a900460ff168092919060010191906101000a81548160ff021916908360ff160217905550506001603460016101000a81548160ff02191690836003811115613af857fe5b0217905550505b7f8eaa9f09cc5e3b56163bc8d93f99b4299c7172f83d51d1448e8d9a3dc6d1a10133604051613b2e9190614c85565b60405180910390a1613b3e612700565b15613b94576003603460016101000a81548160ff02191690836003811115613b6257fe5b02179055507fb537cbcadc098cfedf5a04ef7e68a8554b55f7e45bfdaca1cbc51a686ef65f4860405160405180910390a15b565b826008601f01602090048101928215613c1f5791602002820160005b83821115613bf057835183826101000a81548160ff021916908360ff1602179055509260200192600101602081600001049283019260010302613bb2565b8015613c1d5782816101000a81549060ff0219169055600101602081600001049283019260010302613bf0565b505b509050613c2c9190613d84565b5090565b826006601f01602090048101928215613cb95791602002820160005b83821115613c8a57835183826101000a81548160ff021916908360ff1602179055509260200192600101602081600001049283019260010302613c4c565b8015613cb75782816101000a81549060ff0219169055600101602081600001049283019260010302613c8a565b505b509050613cc69190613d84565b5090565b6040518060a00160405280600060ff168152602001600060ff168152602001600060ff168152602001600060ff168152602001600073ffffffffffffffffffffffffffffffffffffffff1681525090565b6040518060e00160405280600060ff16815260200160006002811115613d3d57fe5b8152602001600073ffffffffffffffffffffffffffffffffffffffff168152602001600060ff168152602001600060ff168152602001600015158152602001600081525090565b613db191905b80821115613dad57600081816101000a81549060ff021916905550600101613d8a565b5090565b90565b600081359050613dc3816152f4565b92915050565b600082601f830112613dda57600080fd5b6002613ded613de88261508f565b615062565b91508183856040840282011115613e0357600080fd5b60005b83811015613e335781613e198882613e3d565b845260208401935060408301925050600181019050613e06565b5050505092915050565b600082601f830112613e4e57600080fd5b6002613e61613e5c826150b1565b615062565b91508183856020840282011115613e7757600080fd5b60005b83811015613ea75781613e8d88826142a5565b845260208401935060208301925050600181019050613e7a565b5050505092915050565b600082601f830112613ec257600080fd5b6004613ed5613ed0826150d3565b615062565b91508183856020840282011115613eeb57600080fd5b60005b83811015613f1b5781613f0188826142a5565b845260208401935060208301925050600181019050613eee565b5050505092915050565b600082601f830112613f3657600080fd5b8135613f49613f44826150f5565b615062565b91508181835260208401935060208101905083856020840282011115613f6e57600080fd5b60005b83811015613f9e5781613f8488826142ba565b845260208401935060208301925050600181019050613f71565b5050505092915050565b600081359050613fb78161530b565b92915050565b600081519050613fcc8161530b565b92915050565b600081359050613fe181615322565b92915050565b60006103c08284031215613ffa57600080fd5b614005610140615062565b90506000614015848285016142ba565b6000830152506020614029848285016142ba565b602083015250604061403d84828501613fa8565b604083015250606082013567ffffffffffffffff81111561405d57600080fd5b61406984828501613f25565b606083015250608082013567ffffffffffffffff81111561408957600080fd5b61409584828501613f25565b60808301525060a06140a984828501613fa8565b60a08301525060c06140bd848285016142ba565b60c08301525060e06140d1848285016142ba565b60e0830152506101006140e68482850161417f565b610100830152506102406140fc84828501614109565b6101208301525092915050565b6000610180828403121561411c57600080fd5b6141266080615062565b9050600061413684828501613e3d565b600083015250604061414a84828501613dc9565b60208301525060c061415e84828501613e3d565b60408301525061010061417384828501613eb1565b60608301525092915050565b6000610140828403121561419257600080fd5b61419c6080615062565b905060006141ac84828501613e3d565b60008301525060406141c084828501613dc9565b60208301525060c06141d484828501613e3d565b6040830152506101006141e984828501613e3d565b60608301525092915050565b600060e0828403121561420757600080fd5b61421160e0615062565b90506000614221848285016142ba565b600083015250602061423584828501613fd2565b602083015250604061424984828501613db4565b604083015250606061425d848285016142ba565b6060830152506080614271848285016142ba565b60808301525060a061428584828501613fa8565b60a08301525060c0614299848285016142a5565b60c08301525092915050565b6000813590506142b481615332565b92915050565b6000813590506142c981615349565b92915050565b6000602082840312156142e157600080fd5b60006142ef84828501613fbd565b91505092915050565b60006020828403121561430a57600080fd5b600082013567ffffffffffffffff81111561432457600080fd5b61433084828501613fe7565b91505092915050565b6000806000610120848603121561434f57600080fd5b600061435d868287016141f5565b93505060e084013567ffffffffffffffff81111561437a57600080fd5b61438686828701613f25565b92505061010084013567ffffffffffffffff8111156143a457600080fd5b6143b086828701613f25565b9150509250925092565b6000602082840312156143cc57600080fd5b60006143da848285016142a5565b91505092915050565b600080604083850312156143f657600080fd5b6000614404858286016142a5565b925050602061441585828601613fa8565b9150509250929050565b6000806040838503121561443257600080fd5b6000614440858286016142a5565b9250506020614451858286016142a5565b9150509250929050565b60006020828403121561446d57600080fd5b600061447b848285016142ba565b91505092915050565b6000614490838361467b565b60408301905092915050565b60006144a88383614b29565b60a08301905092915050565b60006144c08383614b91565b60e08301905092915050565b60006144d88383614c3d565b60208301905092915050565b6144ed81615280565b82525050565b6144fc81615205565b82525050565b61450b81615205565b82525050565b61451a81615151565b61452481846151b1565b925061452f8261511d565b8060005b838110156145605781516145478782614484565b96506145528361517d565b925050600181019050614533565b505050505050565b60006145738261515c565b61457d81856151bc565b935061458883615127565b8060005b838110156145b95781516145a0888261449c565b97506145ab8361518a565b92505060018101905061458c565b5085935050505092915050565b60006145d182615167565b6145db81856151cd565b93506145e683615137565b8060005b838110156146175781516145fe88826144b4565b975061460983615197565b9250506001810190506145ea565b5085935050505092915050565b61462d81615172565b61463781846151de565b925061464282615147565b8060005b8381101561467357815161465a87826144cc565b9650614665836151a4565b925050600181019050614646565b505050505050565b61468481615172565b61468e81846151e9565b925061469982615147565b8060005b838110156146ca5781516146b187826144cc565b96506146bc836151a4565b92505060018101905061469d565b505050505050565b6146db81615217565b82525050565b6146ea81615217565b82525050565b6146f981615292565b82525050565b614708816152a4565b82525050565b614717816152a4565b82525050565b600061472a6027836151f4565b91507f747269656420746f206d6f7665207468726f75676820616e206578697374696e60008301527f67207069656365000000000000000000000000000000000000000000000000006020830152604082019050919050565b60006147906011836151f4565b91507f57726f6e67207475726e206e756d6265720000000000000000000000000000006000830152602082019050919050565b60006147d0600d836151f4565b91507f50696563652069732064656164000000000000000000000000000000000000006000830152602082019050919050565b60006148106015836151f4565b91507f63616e2774206a6f696e2067616d6520747769636500000000000000000000006000830152602082019050919050565b6000614850601b836151f4565b91507f747269656420746f206d6f7665206f7574206f6620626f756e647300000000006000830152602082019050919050565b60006148906014836151f4565b91507f4661696c6564207a6b206d6f766520636865636b0000000000000000000000006000830152602082019050919050565b60006148d0600c836151f4565b91507f496e76616c6964206d6f766500000000000000000000000000000000000000006000830152602082019050919050565b6000614910601b836151f4565b91507f63616e2774206d6f7665206f70706f6e656e74277320706965636500000000006000830152602082019050919050565b6000614950600d836151f4565b91507f47616d6520697320656e646564000000000000000000000000000000000000006000830152602082019050919050565b6000614990600d836151f4565b91507f4e6f742070322773207475726e000000000000000000000000000000000000006000830152602082019050919050565b60006149d0600c836151f4565b91507f696e76616c6964206d6f766500000000000000000000000000000000000000006000830152602082019050919050565b6000614a106010836151f4565b91507f5a4b2050726f6f6620696e76616c6964000000000000000000000000000000006000830152602082019050919050565b6000614a50602d836151f4565b91507f747269656420746f206d6f76652070696563652066757274686572207468616e60008301527f2072616e676520616c6c6f7773000000000000000000000000000000000000006020830152604082019050919050565b6000614ab66014836151f4565b91507f47616d6520616c726561647920737461727465640000000000000000000000006000830152602082019050919050565b6000614af6600d836151f4565b91507f4e6f742070312773207475726e000000000000000000000000000000000000006000830152602082019050919050565b60a082016000820151614b3f6000850182614c4c565b506020820151614b526020850182614c4c565b506040820151614b656040850182614c4c565b506060820151614b786060850182614c4c565b506080820151614b8b60808501826144f3565b50505050565b60e082016000820151614ba76000850182614c4c565b506020820151614bba60208501826146ff565b506040820151614bcd60408501826144f3565b506060820151614be06060850182614c4c565b506080820151614bf36080850182614c4c565b5060a0820151614c0660a08501826146d2565b5060c0820151614c1960c0850182614c1f565b50505050565b614c2881615269565b82525050565b614c3781615269565b82525050565b614c4681615269565b82525050565b614c5581615273565b82525050565b614c6481615273565b82525050565b6000602082019050614c7f6000830184614502565b92915050565b6000602082019050614c9a60008301846144e4565b92915050565b6000604082019050614cb56000830185614502565b614cc26020830184614502565b9392505050565b60006020820190508181036000830152614ce38184614568565b905092915050565b60006020820190508181036000830152614d0581846145c6565b905092915050565b600061014082019050614d236000830187614624565b614d306040830186614511565b614d3d60c0830185614624565b614d4b610100830184614624565b95945050505050565b6000602082019050614d6960008301846146e1565b92915050565b6000602082019050614d8460008301846146f0565b92915050565b60006020820190508181036000830152614da38161471d565b9050919050565b60006020820190508181036000830152614dc381614783565b9050919050565b60006020820190508181036000830152614de3816147c3565b9050919050565b60006020820190508181036000830152614e0381614803565b9050919050565b60006020820190508181036000830152614e2381614843565b9050919050565b60006020820190508181036000830152614e4381614883565b9050919050565b60006020820190508181036000830152614e63816148c3565b9050919050565b60006020820190508181036000830152614e8381614903565b9050919050565b60006020820190508181036000830152614ea381614943565b9050919050565b60006020820190508181036000830152614ec381614983565b9050919050565b60006020820190508181036000830152614ee3816149c3565b9050919050565b60006020820190508181036000830152614f0381614a03565b9050919050565b60006020820190508181036000830152614f2381614a43565b9050919050565b60006020820190508181036000830152614f4381614aa9565b9050919050565b60006020820190508181036000830152614f6381614ae9565b9050919050565b6000602082019050614f7f6000830184614c2e565b92915050565b6000602082019050614f9a6000830184614c5b565b92915050565b600060e082019050614fb5600083018a614c5b565b614fc2602083018961470e565b614fcf6040830188614502565b614fdc6060830187614c5b565b614fe96080830186614c5b565b614ff660a08301856146e1565b61500360c0830184614c2e565b98975050505050505050565b600060a0820190506150246000830188614c5b565b6150316020830187614c5b565b61503e6040830186614c5b565b61504b6060830185614c5b565b6150586080830184614502565b9695505050505050565b6000604051905081810181811067ffffffffffffffff8211171561508557600080fd5b8060405250919050565b600067ffffffffffffffff8211156150a657600080fd5b602082029050919050565b600067ffffffffffffffff8211156150c857600080fd5b602082029050919050565b600067ffffffffffffffff8211156150ea57600080fd5b602082029050919050565b600067ffffffffffffffff82111561510c57600080fd5b602082029050602081019050919050565b6000819050919050565b6000819050602082019050919050565b6000819050602082019050919050565b6000819050919050565b600060029050919050565b600081519050919050565b600081519050919050565b600060029050919050565b6000602082019050919050565b6000602082019050919050565b6000602082019050919050565b6000602082019050919050565b600081905092915050565b600082825260208201905092915050565b600082825260208201905092915050565b600081905092915050565b600081905092915050565b600082825260208201905092915050565b600061521082615249565b9050919050565b60008115159050919050565b6000819050615231826152da565b919050565b6000819050615244826152e7565b919050565b600073ffffffffffffffffffffffffffffffffffffffff82169050919050565b6000819050919050565b600060ff82169050919050565b600061528b826152b6565b9050919050565b600061529d82615223565b9050919050565b60006152af82615236565b9050919050565b60006152c1826152c8565b9050919050565b60006152d382615249565b9050919050565b600481106152e457fe5b50565b600381106152f157fe5b50565b6152fd81615205565b811461530857600080fd5b50565b61531481615217565b811461531f57600080fd5b50565b6003811061532f57600080fd5b50565b61533b81615269565b811461534657600080fd5b50565b61535281615273565b811461535d57600080fd5b5056fea2646970667358221220e7c9a28620b0c0627740b31f65c721cb120fd3e6be34b6445ae53d832167834264736f6c63430006070033",
  "immutableReferences": {},
  "source": "pragma solidity ^0.6.7;\npragma experimental ABIEncoderV2;\n\nimport \"@openzeppelin/contracts-ethereum-package/contracts/Initializable.sol\";\nimport \"./ZKChessTypes.sol\";\nimport \"./ZKChessUtils.sol\";\nimport \"./Verifier.sol\";\n\ncontract ZKChessGame is Initializable {\n    uint256\n        public constant FIELD_SIZE = 21888242871839275222246405745257275088548364400416034343698204186575808495617;\n    uint256\n        public constant GHOST_START_COMMITMENT = 7374563847362678215915084925243633004703986452179446109135597066279732561698;\n    uint256 public constant BOARD_SIZE = 7;\n\n    uint256 public gameId;\n\n    uint8 public turnNumber;\n    GameState public gameState;\n    uint8[BOARD_SIZE][BOARD_SIZE] public boardPieces; // board[row][col]\n    uint8[BOARD_SIZE][BOARD_SIZE] public boardObjectives;\n\n    uint8[8] public pieceIds;\n    mapping(uint8 => Piece) public pieces;\n    uint8[6] public objectiveIds;\n    mapping(uint8 => Objective) public objectives;\n\n    bool public DISABLE_ZK_CHECK;\n\n    address public player1;\n    address public player2;\n\n    uint8 public player1Score;\n    uint8 public player2Score;\n\n    uint8 p1CurrentlyCapturing;\n    uint8 p2CurrentlyCapturing;\n\n    uint256 pfsVerified;\n\n    function initialize(uint256 _gameId, bool _disableZKCheck) public {\n        gameId = _gameId;\n        DISABLE_ZK_CHECK = _disableZKCheck;\n        gameState = GameState.WAITING_FOR_PLAYERS;\n\n        pieceIds = [1, 2, 3, 4, 5, 6, 7, 8];\n        objectiveIds = [9, 10, 11, 12, 13, 14];\n\n        // initialize pieces\n        pieces[1] = Piece({\n            id: 1,\n            pieceType: PieceType.KING,\n            owner: address(0),\n            row: 0,\n            col: 1,\n            alive: true,\n            commitment: 0\n        });\n        boardPieces[0][1] = 1;\n        pieces[2] = Piece({\n            id: 2,\n            pieceType: PieceType.KNIGHT,\n            owner: address(0),\n            row: 0,\n            col: 3,\n            alive: true,\n            commitment: 0\n        });\n        boardPieces[0][3] = 2;\n        pieces[3] = Piece({\n            id: 3,\n            pieceType: PieceType.KING,\n            owner: address(0),\n            row: 0,\n            col: 5,\n            alive: true,\n            commitment: 0\n        });\n        boardPieces[0][5] = 3;\n        pieces[4] = Piece({\n            id: 4,\n            pieceType: PieceType.GHOST,\n            owner: address(0),\n            row: 0,\n            col: 0,\n            alive: true,\n            commitment: GHOST_START_COMMITMENT\n        });\n        pieces[5] = Piece({\n            id: 5,\n            pieceType: PieceType.KING,\n            owner: address(0),\n            row: 6,\n            col: 1,\n            alive: true,\n            commitment: 0\n        });\n        boardPieces[6][1] = 5;\n        pieces[6] = Piece({\n            id: 6,\n            pieceType: PieceType.KNIGHT,\n            owner: address(0),\n            row: 6,\n            col: 3,\n            alive: true,\n            commitment: 0\n        });\n        boardPieces[6][3] = 6;\n        pieces[7] = Piece({\n            id: 7,\n            pieceType: PieceType.KING,\n            owner: address(0),\n            row: 6,\n            col: 5,\n            alive: true,\n            commitment: 0\n        });\n        boardPieces[6][5] = 7;\n        pieces[8] = Piece({\n            id: 8,\n            pieceType: PieceType.GHOST,\n            owner: address(0),\n            row: 6,\n            col: 0,\n            alive: true,\n            commitment: GHOST_START_COMMITMENT\n        });\n\n        // initialize objectives\n        objectives[9] = Objective({\n            id: 9,\n            value: 5,\n            row: 3,\n            col: 0,\n            capturedBy: address(0)\n        });\n        boardObjectives[3][0] = 9;\n        objectives[10] = Objective({\n            id: 10,\n            value: 5,\n            row: 2,\n            col: 2,\n            capturedBy: address(0)\n        });\n        boardObjectives[2][2] = 10;\n        objectives[11] = Objective({\n            id: 11,\n            value: 10,\n            row: 4,\n            col: 2,\n            capturedBy: address(0)\n        });\n        boardObjectives[4][2] = 11;\n        objectives[12] = Objective({\n            id: 12,\n            value: 10,\n            row: 2,\n            col: 4,\n            capturedBy: address(0)\n        });\n        boardObjectives[2][4] = 12;\n        objectives[13] = Objective({\n            id: 13,\n            value: 5,\n            row: 4,\n            col: 4,\n            capturedBy: address(0)\n        });\n        boardObjectives[4][4] = 13;\n        objectives[14] = Objective({\n            id: 14,\n            value: 5,\n            row: 3,\n            col: 6,\n            capturedBy: address(0)\n        });\n        boardObjectives[3][6] = 14;\n    }\n\n    //////////////\n    /// EVENTS ///\n    //////////////\n\n    event ProofVerified(uint256 pfsAccepted);\n    event GameStart(address p1, address p2);\n    event MoveMade(address player);\n    event GameFinished();\n\n    ///////////////\n    /// GETTERS ///\n    ///////////////\n\n    function getPieces() public view returns (Piece[] memory ret) {\n        ret = new Piece[](pieceIds.length);\n        for (uint8 i = 0; i < pieceIds.length; i++) {\n            ret[i] = pieces[pieceIds[i]];\n        }\n        return ret;\n    }\n\n    function getObjectives() public view returns (Objective[] memory ret) {\n        ret = new Objective[](objectiveIds.length);\n        for (uint8 i = 0; i < objectiveIds.length; i++) {\n            ret[i] = objectives[objectiveIds[i]];\n        }\n        return ret;\n    }\n\n    //////////////\n    /// Helper ///\n    //////////////\n\n    function isValidMove(\n        Piece memory piece,\n        uint8[] memory toRow,\n        uint8[] memory toCol\n    ) public view returns (bool) {\n        uint8 currentRow = piece.row;\n        uint8 currentCol = piece.col;\n        require(toRow.length == toCol.length, \"invalid move\");\n        uint8 moveRange = 0;\n        if (piece.pieceType == PieceType.KING) {\n            moveRange = 1;\n        } else if (piece.pieceType == PieceType.KNIGHT) {\n            moveRange = 2;\n        }\n        require(\n            toRow.length <= moveRange,\n            \"tried to move piece further than range allows\"\n        );\n\n        for (uint256 i = 0; i < toRow.length; i++) {\n            uint8 nextRow = toRow[i];\n            uint8 nextCol = toCol[i];\n            // must be in range [0, SIZE - 1]\n            require(\n                nextRow < BOARD_SIZE || nextCol < BOARD_SIZE,\n                \"tried to move out of bounds\"\n            );\n            // (nextRow, nextCol) must be adjacent to (currentRow, currentCol)\n            require(\n                (nextRow == currentRow || nextCol == currentCol) &&\n                    (nextRow - currentRow == 1 ||\n                        currentRow - nextRow == 1 ||\n                        nextCol - currentCol == 1 ||\n                        currentCol - nextCol == 1),\n                \"invalid move\"\n            );\n            // can't move through or onto a square with a piece on it\n            uint8 pieceIdAtNextTile = boardPieces[nextRow][nextCol];\n            Piece storage pieceAtNextTile = pieces[pieceIdAtNextTile];\n            require(\n                !pieceAtNextTile.alive,\n                \"tried to move through an existing piece\"\n            );\n            currentRow = nextRow;\n            currentCol = nextCol;\n        }\n        return true;\n    }\n\n    function gameShouldBeCompleted() public view returns (bool) {\n        // check if game is over: no pieces left, OR no objectives left\n        bool noPiecesLeft = true;\n        for (uint8 i = 0; i < pieceIds.length; i++) {\n            if (pieces[pieceIds[i]].alive) {\n                noPiecesLeft = false;\n                break;\n            }\n        }\n        if (noPiecesLeft) {\n            return true;\n        }\n\n        bool noObjectivesLeft = true;\n        for (uint8 i = 0; i < objectiveIds.length; i++) {\n            if (objectives[objectiveIds[i]].capturedBy == address(0)) {\n                noObjectivesLeft = false;\n                break;\n            }\n        }\n        if (noObjectivesLeft) {\n            return true;\n        }\n        return false;\n    }\n\n    //////////////////////\n    /// Game Mechanics ///\n    //////////////////////\n\n    function joinGame() public {\n        require(\n            gameState == GameState.WAITING_FOR_PLAYERS,\n            \"Game already started\"\n        );\n        if (player1 == address(0)) {\n            // first player to join game\n            player1 = msg.sender;\n            return;\n        }\n        // another player has joined. game is ready to start\n\n        require(msg.sender != player1, \"can't join game twice\");\n        // randomize player order\n        if (block.timestamp % 2 == 0) {\n            player2 = msg.sender;\n        } else {\n            player2 = player1;\n            player1 = msg.sender;\n        }\n\n        // set pieces\n        for (uint8 i = 1; i < 5; i++) {\n            pieces[i].owner = player1;\n        }\n        for (uint8 i = 5; i < 9; i++) {\n            pieces[i].owner = player2;\n        }\n\n        gameState = GameState.P1_TO_MOVE;\n        emit GameStart(player1, player2);\n    }\n\n    function act(Action memory action) public {\n        require(gameState != GameState.COMPLETE, \"Game is ended\");\n        if (msg.sender == player1) {\n            require(gameState == GameState.P1_TO_MOVE, \"Not p1's turn\");\n        }\n        if (msg.sender == player2) {\n            require(gameState == GameState.P2_TO_MOVE, \"Not p2's turn\");\n        }\n        require(action.turnNumber == turnNumber, \"Wrong turn number\");\n        Piece storage piece = pieces[action.pieceId];\n        require(\n            piece.owner != msg.sender && piece.owner != address(0),\n            \"can't move opponent's piece\"\n        );\n\n        if (action.pieceId == 0) {\n            // TODO: creating a new piece\n            return;\n        } else {\n            // moving an existing piece\n            require(piece.alive, \"Piece is dead\");\n\n            if (piece.pieceType == PieceType.GHOST) {\n                require(\n                    piece.commitment == action.moveZkp.input[0],\n                    \"ZK Proof invalid\"\n                );\n                if (!DISABLE_ZK_CHECK) {\n                    require(\n                        Verifier.verifyMoveProof(\n                            action.moveZkp.a,\n                            action.moveZkp.b,\n                            action.moveZkp.c,\n                            action.moveZkp.input\n                        ),\n                        \"Failed zk move check\"\n                    );\n                }\n                piece.commitment = action.moveZkp.input[1];\n            } else {\n                if (action.doesMove) {\n                    uint8[] memory moveToRow = action.moveToRow;\n                    uint8[] memory moveToCol = action.moveToCol;\n                    require(\n                        isValidMove(piece, moveToRow, moveToCol),\n                        \"Invalid move\"\n                    );\n                    uint8 toRow = moveToRow[moveToRow.length - 1];\n                    uint8 toCol = moveToCol[moveToCol.length - 1];\n                    boardPieces[piece.row][piece.col] = 0;\n                    boardPieces[toRow][toCol] = piece.id;\n                    piece.row = toRow;\n                    piece.col = toCol;\n                    if (\n                        objectives[boardObjectives[toRow][toCol]].value > 0 &&\n                        objectives[boardObjectives[toRow][toCol]].capturedBy ==\n                        address(0)\n                    ) {\n                        if (msg.sender == player1) {\n                            p1CurrentlyCapturing = boardObjectives[toRow][toCol];\n                        } else {\n                            p2CurrentlyCapturing = boardObjectives[toRow][toCol];\n                        }\n                    }\n                }\n            }\n        }\n        completeTurn();\n    }\n\n    function completeTurn() internal {\n        if (msg.sender == player1) {\n            // check if opponent captures any objectives\n            Objective storage capturing = objectives[p2CurrentlyCapturing];\n            if (capturing.value > 0 && capturing.capturedBy == address(0)) {\n                // is an uncaptured objective\n                Piece storage onObjective = pieces[boardPieces[capturing\n                    .row][capturing.col]];\n                if (onObjective.owner == player2 && onObjective.alive) {\n                    // p2's live piece is stationed on top\n                    capturing.capturedBy = player2;\n                    player2Score += capturing.value;\n                }\n            }\n            // change to p2's turn\n            p2CurrentlyCapturing = 0;\n            gameState = GameState.P2_TO_MOVE;\n        } else {\n            // check if opponent captures any objectives\n            Objective storage capturing = objectives[p1CurrentlyCapturing];\n            if (capturing.value > 0 && capturing.capturedBy == address(0)) {\n                // is an uncaptured objective\n                Piece storage onObjective = pieces[boardPieces[capturing\n                    .row][capturing.col]];\n                if (onObjective.owner == player1 && onObjective.alive) {\n                    // p1's live piece is stationed on top\n                    capturing.capturedBy = player1;\n                    player1Score += capturing.value;\n                }\n            }\n            // change to p1's turn\n            p1CurrentlyCapturing = 0;\n            turnNumber++;\n            gameState = GameState.P1_TO_MOVE;\n        }\n        emit MoveMade(msg.sender);\n\n        if (gameShouldBeCompleted()) {\n            gameState = GameState.COMPLETE;\n            emit GameFinished();\n        }\n    }\n}\n",
  "sourcePath": "/Users/bgu/zk-chess/eth/contracts/ZKChessGame.sol",
  "compiler": {
    "name": "solc",
    "version": "0.6.7+commit.b8d736ae.Emscripten.clang"
  },
  "schemaVersion": "3.3.1",
  "updatedAt": "2020-11-06T22:02:12.078Z",
  "networkType": "ethereum",
  "devdoc": {
    "methods": {}
  },
  "userdoc": {
    "methods": {
      "getPieces()": {
        "notice": "//////////// GETTERS /// ////////////"
      },
      "isValidMove((uint8,uint8,address,uint8,uint8,bool,uint256),uint8[],uint8[])": {
        "notice": "/////////// Helper /// ///////////"
      },
      "joinGame()": {
        "notice": "/////////////////// Game Mechanics /// ///////////////////"
      }
    }
  }
}