{
  "contractName": "ZKChessGame",
  "abi": [
    {
      "anonymous": false,
      "inputs": [],
      "name": "GameFinished",
      "type": "event"
    },
    {
      "anonymous": false,
      "inputs": [
        {
          "indexed": false,
          "internalType": "address",
          "name": "p1",
          "type": "address"
        },
        {
          "indexed": false,
          "internalType": "address",
          "name": "p2",
          "type": "address"
        }
      ],
      "name": "GameStart",
      "type": "event"
    },
    {
      "anonymous": false,
      "inputs": [
        {
          "indexed": false,
          "internalType": "address",
          "name": "player",
          "type": "address"
        }
      ],
      "name": "MoveMade",
      "type": "event"
    },
    {
      "anonymous": false,
      "inputs": [
        {
          "indexed": false,
          "internalType": "uint256",
          "name": "pfsAccepted",
          "type": "uint256"
        }
      ],
      "name": "ProofVerified",
      "type": "event"
    },
    {
      "inputs": [],
      "name": "BOARD_SIZE",
      "outputs": [
        {
          "internalType": "uint256",
          "name": "",
          "type": "uint256"
        }
      ],
      "stateMutability": "view",
      "type": "function",
      "constant": true
    },
    {
      "inputs": [],
      "name": "DISABLE_ZK_CHECK",
      "outputs": [
        {
          "internalType": "bool",
          "name": "",
          "type": "bool"
        }
      ],
      "stateMutability": "view",
      "type": "function",
      "constant": true
    },
    {
      "inputs": [],
      "name": "FIELD_SIZE",
      "outputs": [
        {
          "internalType": "uint256",
          "name": "",
          "type": "uint256"
        }
      ],
      "stateMutability": "view",
      "type": "function",
      "constant": true
    },
    {
      "inputs": [],
      "name": "GHOST_START_COMMITMENT",
      "outputs": [
        {
          "internalType": "uint256",
          "name": "",
          "type": "uint256"
        }
      ],
      "stateMutability": "view",
      "type": "function",
      "constant": true
    },
    {
      "inputs": [
        {
          "internalType": "uint256",
          "name": "",
          "type": "uint256"
        },
        {
          "internalType": "uint256",
          "name": "",
          "type": "uint256"
        }
      ],
      "name": "boardObjectives",
      "outputs": [
        {
          "internalType": "uint8",
          "name": "",
          "type": "uint8"
        }
      ],
      "stateMutability": "view",
      "type": "function",
      "constant": true
    },
    {
      "inputs": [
        {
          "internalType": "uint256",
          "name": "",
          "type": "uint256"
        },
        {
          "internalType": "uint256",
          "name": "",
          "type": "uint256"
        }
      ],
      "name": "boardPieces",
      "outputs": [
        {
          "internalType": "uint8",
          "name": "",
          "type": "uint8"
        }
      ],
      "stateMutability": "view",
      "type": "function",
      "constant": true
    },
    {
      "inputs": [],
      "name": "gameId",
      "outputs": [
        {
          "internalType": "uint256",
          "name": "",
          "type": "uint256"
        }
      ],
      "stateMutability": "view",
      "type": "function",
      "constant": true
    },
    {
      "inputs": [],
      "name": "gameState",
      "outputs": [
        {
          "internalType": "enum GameState",
          "name": "",
          "type": "uint8"
        }
      ],
      "stateMutability": "view",
      "type": "function",
      "constant": true
    },
    {
      "inputs": [
        {
          "internalType": "uint256",
          "name": "",
          "type": "uint256"
        }
      ],
      "name": "objectiveIds",
      "outputs": [
        {
          "internalType": "uint8",
          "name": "",
          "type": "uint8"
        }
      ],
      "stateMutability": "view",
      "type": "function",
      "constant": true
    },
    {
      "inputs": [
        {
          "internalType": "uint8",
          "name": "",
          "type": "uint8"
        }
      ],
      "name": "objectives",
      "outputs": [
        {
          "internalType": "uint8",
          "name": "id",
          "type": "uint8"
        },
        {
          "internalType": "uint8",
          "name": "value",
          "type": "uint8"
        },
        {
          "internalType": "uint8",
          "name": "row",
          "type": "uint8"
        },
        {
          "internalType": "uint8",
          "name": "col",
          "type": "uint8"
        },
        {
          "internalType": "address",
          "name": "capturedBy",
          "type": "address"
        }
      ],
      "stateMutability": "view",
      "type": "function",
      "constant": true
    },
    {
      "inputs": [
        {
          "internalType": "uint256",
          "name": "",
          "type": "uint256"
        }
      ],
      "name": "pieceIds",
      "outputs": [
        {
          "internalType": "uint8",
          "name": "",
          "type": "uint8"
        }
      ],
      "stateMutability": "view",
      "type": "function",
      "constant": true
    },
    {
      "inputs": [
        {
          "internalType": "uint8",
          "name": "",
          "type": "uint8"
        }
      ],
      "name": "pieces",
      "outputs": [
        {
          "internalType": "uint8",
          "name": "id",
          "type": "uint8"
        },
        {
          "internalType": "enum PieceType",
          "name": "pieceType",
          "type": "uint8"
        },
        {
          "internalType": "address",
          "name": "owner",
          "type": "address"
        },
        {
          "internalType": "uint8",
          "name": "row",
          "type": "uint8"
        },
        {
          "internalType": "uint8",
          "name": "col",
          "type": "uint8"
        },
        {
          "internalType": "bool",
          "name": "alive",
          "type": "bool"
        },
        {
          "internalType": "uint256",
          "name": "commitment",
          "type": "uint256"
        }
      ],
      "stateMutability": "view",
      "type": "function",
      "constant": true
    },
    {
      "inputs": [],
      "name": "player1",
      "outputs": [
        {
          "internalType": "address",
          "name": "",
          "type": "address"
        }
      ],
      "stateMutability": "view",
      "type": "function",
      "constant": true
    },
    {
      "inputs": [],
      "name": "player1Score",
      "outputs": [
        {
          "internalType": "uint8",
          "name": "",
          "type": "uint8"
        }
      ],
      "stateMutability": "view",
      "type": "function",
      "constant": true
    },
    {
      "inputs": [],
      "name": "player2",
      "outputs": [
        {
          "internalType": "address",
          "name": "",
          "type": "address"
        }
      ],
      "stateMutability": "view",
      "type": "function",
      "constant": true
    },
    {
      "inputs": [],
      "name": "player2Score",
      "outputs": [
        {
          "internalType": "uint8",
          "name": "",
          "type": "uint8"
        }
      ],
      "stateMutability": "view",
      "type": "function",
      "constant": true
    },
    {
      "inputs": [],
      "name": "turnNumber",
      "outputs": [
        {
          "internalType": "uint8",
          "name": "",
          "type": "uint8"
        }
      ],
      "stateMutability": "view",
      "type": "function",
      "constant": true
    },
    {
      "inputs": [
        {
          "internalType": "uint256",
          "name": "_gameId",
          "type": "uint256"
        },
        {
          "internalType": "bool",
          "name": "_disableZKCheck",
          "type": "bool"
        }
      ],
      "name": "initialize",
      "outputs": [],
      "stateMutability": "nonpayable",
      "type": "function"
    },
    {
      "inputs": [],
      "name": "getPieces",
      "outputs": [
        {
          "components": [
            {
              "internalType": "uint8",
              "name": "id",
              "type": "uint8"
            },
            {
              "internalType": "enum PieceType",
              "name": "pieceType",
              "type": "uint8"
            },
            {
              "internalType": "address",
              "name": "owner",
              "type": "address"
            },
            {
              "internalType": "uint8",
              "name": "row",
              "type": "uint8"
            },
            {
              "internalType": "uint8",
              "name": "col",
              "type": "uint8"
            },
            {
              "internalType": "bool",
              "name": "alive",
              "type": "bool"
            },
            {
              "internalType": "uint256",
              "name": "commitment",
              "type": "uint256"
            }
          ],
          "internalType": "struct Piece[]",
          "name": "ret",
          "type": "tuple[]"
        }
      ],
      "stateMutability": "view",
      "type": "function",
      "constant": true
    },
    {
      "inputs": [],
      "name": "getObjectives",
      "outputs": [
        {
          "components": [
            {
              "internalType": "uint8",
              "name": "id",
              "type": "uint8"
            },
            {
              "internalType": "uint8",
              "name": "value",
              "type": "uint8"
            },
            {
              "internalType": "uint8",
              "name": "row",
              "type": "uint8"
            },
            {
              "internalType": "uint8",
              "name": "col",
              "type": "uint8"
            },
            {
              "internalType": "address",
              "name": "capturedBy",
              "type": "address"
            }
          ],
          "internalType": "struct Objective[]",
          "name": "ret",
          "type": "tuple[]"
        }
      ],
      "stateMutability": "view",
      "type": "function",
      "constant": true
    },
    {
      "inputs": [
        {
          "components": [
            {
              "internalType": "uint8",
              "name": "id",
              "type": "uint8"
            },
            {
              "internalType": "enum PieceType",
              "name": "pieceType",
              "type": "uint8"
            },
            {
              "internalType": "address",
              "name": "owner",
              "type": "address"
            },
            {
              "internalType": "uint8",
              "name": "row",
              "type": "uint8"
            },
            {
              "internalType": "uint8",
              "name": "col",
              "type": "uint8"
            },
            {
              "internalType": "bool",
              "name": "alive",
              "type": "bool"
            },
            {
              "internalType": "uint256",
              "name": "commitment",
              "type": "uint256"
            }
          ],
          "internalType": "struct Piece",
          "name": "piece",
          "type": "tuple"
        },
        {
          "internalType": "uint8[]",
          "name": "toRow",
          "type": "uint8[]"
        },
        {
          "internalType": "uint8[]",
          "name": "toCol",
          "type": "uint8[]"
        }
      ],
      "name": "isValidMove",
      "outputs": [
        {
          "internalType": "bool",
          "name": "",
          "type": "bool"
        }
      ],
      "stateMutability": "view",
      "type": "function",
      "constant": true
    },
    {
      "inputs": [],
      "name": "gameShouldBeCompleted",
      "outputs": [
        {
          "internalType": "bool",
          "name": "",
          "type": "bool"
        }
      ],
      "stateMutability": "view",
      "type": "function",
      "constant": true
    },
    {
      "inputs": [],
      "name": "joinGame",
      "outputs": [],
      "stateMutability": "nonpayable",
      "type": "function"
    },
    {
      "inputs": [
        {
          "components": [
            {
              "internalType": "uint8",
              "name": "turnNumber",
              "type": "uint8"
            },
            {
              "internalType": "uint8",
              "name": "pieceId",
              "type": "uint8"
            },
            {
              "internalType": "uint8[]",
              "name": "moveToRow",
              "type": "uint8[]"
            },
            {
              "internalType": "uint8[]",
              "name": "moveToCol",
              "type": "uint8[]"
            },
            {
              "components": [
                {
                  "internalType": "uint256[2]",
                  "name": "a",
                  "type": "uint256[2]"
                },
                {
                  "internalType": "uint256[2][2]",
                  "name": "b",
                  "type": "uint256[2][2]"
                },
                {
                  "internalType": "uint256[2]",
                  "name": "c",
                  "type": "uint256[2]"
                },
                {
                  "internalType": "uint256[2]",
                  "name": "input",
                  "type": "uint256[2]"
                }
              ],
              "internalType": "struct MoveZKP",
              "name": "zkp",
              "type": "tuple"
            }
          ],
          "internalType": "struct Move",
          "name": "move",
          "type": "tuple"
        }
      ],
      "name": "doMove",
      "outputs": [],
      "stateMutability": "nonpayable",
      "type": "function"
    },
    {
      "inputs": [
        {
          "internalType": "uint8",
          "name": "_turnNumber",
          "type": "uint8"
        }
      ],
      "name": "endTurn",
      "outputs": [],
      "stateMutability": "nonpayable",
      "type": "function"
    }
  ],
  "bytecode": "0x608060405234801561001057600080fd5b506152df806100206000396000f3fe608060405234801561001057600080fd5b50600436106101735760003560e01c8063acbc1a91116100de578063d1f9c24d11610097578063d7c81b5511610071578063d7c81b551461044c578063dc4a3e951461046a578063e4ecc45414610488578063ee5d8a71146104a457610173565b8063d1f9c24d14610406578063d30895e414610424578063d4f77b1c1461044257610173565b8063acbc1a911461031c578063b02282461461033a578063bd91fdb41461036a578063c6204ee214610388578063cf615f6c146103b8578063cfecc6de146103d657610173565b80635700401e116101305780635700401e1461025257806359a5f12d146102705780635c3beb321461028e5780637174f2c0146102c25780637e15247d146102e05780638af9d562146102fe57610173565b806327964666146101785780632c784f32146101945780633fb7388e146101ca578063414a37ba146101fa57806351df541c146102185780635595b5d514610236575b600080fd5b610192600480360381019061018d91906142ee565b6104d4565b005b6101ae60048036038101906101a99190614366565b611c10565b6040516101c19796959493929190614f0b565b60405180910390f35b6101e460048036038101906101df919061432a565b611cb3565b6040516101f19190614ef0565b60405180910390f35b610202611ce9565b60405161020f9190614ed5565b60405180910390f35b610220611d0d565b60405161022d9190614c9f565b60405180910390f35b610250600480360381019061024b9190614366565b611e81565b005b61025a612524565b6040516102679190614ef0565b60405180910390f35b610278612537565b6040516102859190614bb5565b60405180910390f35b6102a860048036038101906102a39190614366565b61255d565b6040516102b9959493929190614f7a565b60405180910390f35b6102ca6125e7565b6040516102d79190614ef0565b60405180910390f35b6102e86125fa565b6040516102f59190614c14565b60405180910390f35b6103066127a4565b6040516103139190614c9f565b60405180910390f35b6103246127b7565b6040516103319190614ed5565b60405180910390f35b610354600480360381019061034f919061432a565b6127db565b6040516103619190614ef0565b60405180910390f35b610372612811565b60405161037f9190614ef0565b60405180910390f35b6103a2600480360381019061039d91906142c5565b612824565b6040516103af9190614ef0565b60405180910390f35b6103c061284b565b6040516103cd9190614c36565b60405180910390f35b6103f060048036038101906103eb91906142c5565b612a2a565b6040516103fd9190614ef0565b60405180910390f35b61040e612a51565b60405161041b9190614cba565b60405180910390f35b61042c612a64565b6040516104399190614bb5565b60405180910390f35b61044a612a8a565b005b610454612efe565b6040516104619190614ed5565b60405180910390f35b610472612f04565b60405161047f9190614ed5565b60405180910390f35b6104a2600480360381019061049d9190614203565b612f09565b005b6104be60048036038101906104b99190614244565b613902565b6040516104cb9190614c9f565b60405180910390f35b8160338190555080604760006101000a81548160ff0219169083151502179055506000603460016101000a81548160ff0219169083600381111561051457fe5b0217905550604051806101000160405280600160ff168152602001600260ff168152602001600360ff168152602001600460ff168152602001600560ff168152602001600660ff168152602001600760ff168152602001600860ff168152506043906008610583929190613bf4565b506040518060c00160405280600960ff168152602001600a60ff168152602001600b60ff168152602001600c60ff168152602001600d60ff168152602001600e60ff1681525060459060066105d9929190613c8e565b506040518060e00160405280600160ff168152602001600060028111156105fc57fe5b8152602001600073ffffffffffffffffffffffffffffffffffffffff168152602001600060ff168152602001600160ff168152602001600115158152602001600081525060446000600160ff16815260200190815260200160002060008201518160000160006101000a81548160ff021916908360ff16021790555060208201518160000160016101000a81548160ff0219169083600281111561069c57fe5b021790555060408201518160000160026101000a81548173ffffffffffffffffffffffffffffffffffffffff021916908373ffffffffffffffffffffffffffffffffffffffff16021790555060608201518160000160166101000a81548160ff021916908360ff16021790555060808201518160000160176101000a81548160ff021916908360ff16021790555060a08201518160000160186101000a81548160ff02191690831515021790555060c082015181600101559050506001603560006007811061076757fe5b0160016007811061077457fe5b602091828204019190066101000a81548160ff021916908360ff1602179055506040518060e00160405280600260ff168152602001600160028111156107b657fe5b8152602001600073ffffffffffffffffffffffffffffffffffffffff168152602001600060ff168152602001600360ff168152602001600115158152602001600081525060446000600260ff16815260200190815260200160002060008201518160000160006101000a81548160ff021916908360ff16021790555060208201518160000160016101000a81548160ff0219169083600281111561085657fe5b021790555060408201518160000160026101000a81548173ffffffffffffffffffffffffffffffffffffffff021916908373ffffffffffffffffffffffffffffffffffffffff16021790555060608201518160000160166101000a81548160ff021916908360ff16021790555060808201518160000160176101000a81548160ff021916908360ff16021790555060a08201518160000160186101000a81548160ff02191690831515021790555060c082015181600101559050506002603560006007811061092157fe5b0160036007811061092e57fe5b602091828204019190066101000a81548160ff021916908360ff1602179055506040518060e00160405280600360ff1681526020016000600281111561097057fe5b8152602001600073ffffffffffffffffffffffffffffffffffffffff168152602001600060ff168152602001600560ff168152602001600115158152602001600081525060446000600360ff16815260200190815260200160002060008201518160000160006101000a81548160ff021916908360ff16021790555060208201518160000160016101000a81548160ff02191690836002811115610a1057fe5b021790555060408201518160000160026101000a81548173ffffffffffffffffffffffffffffffffffffffff021916908373ffffffffffffffffffffffffffffffffffffffff16021790555060608201518160000160166101000a81548160ff021916908360ff16021790555060808201518160000160176101000a81548160ff021916908360ff16021790555060a08201518160000160186101000a81548160ff02191690831515021790555060c0820151816001015590505060036035600060078110610adb57fe5b01600560078110610ae857fe5b602091828204019190066101000a81548160ff021916908360ff1602179055506040518060e00160405280600460ff168152602001600280811115610b2957fe5b8152602001600073ffffffffffffffffffffffffffffffffffffffff168152602001600060ff168152602001600060ff1681526020016001151581526020017f104ddaefd01036b8465b22025720f944733190135fd4ed564186bc3cfcaec72281525060446000600460ff16815260200190815260200160002060008201518160000160006101000a81548160ff021916908360ff16021790555060208201518160000160016101000a81548160ff02191690836002811115610be857fe5b021790555060408201518160000160026101000a81548173ffffffffffffffffffffffffffffffffffffffff021916908373ffffffffffffffffffffffffffffffffffffffff16021790555060608201518160000160166101000a81548160ff021916908360ff16021790555060808201518160000160176101000a81548160ff021916908360ff16021790555060a08201518160000160186101000a81548160ff02191690831515021790555060c082015181600101559050506040518060e00160405280600560ff16815260200160006002811115610cc557fe5b8152602001600073ffffffffffffffffffffffffffffffffffffffff168152602001600660ff168152602001600160ff168152602001600115158152602001600081525060446000600560ff16815260200190815260200160002060008201518160000160006101000a81548160ff021916908360ff16021790555060208201518160000160016101000a81548160ff02191690836002811115610d6557fe5b021790555060408201518160000160026101000a81548173ffffffffffffffffffffffffffffffffffffffff021916908373ffffffffffffffffffffffffffffffffffffffff16021790555060608201518160000160166101000a81548160ff021916908360ff16021790555060808201518160000160176101000a81548160ff021916908360ff16021790555060a08201518160000160186101000a81548160ff02191690831515021790555060c0820151816001015590505060056035600660078110610e3057fe5b01600160078110610e3d57fe5b602091828204019190066101000a81548160ff021916908360ff1602179055506040518060e00160405280600660ff16815260200160016002811115610e7f57fe5b8152602001600073ffffffffffffffffffffffffffffffffffffffff168152602001600660ff168152602001600360ff168152602001600115158152602001600081525060446000600660ff16815260200190815260200160002060008201518160000160006101000a81548160ff021916908360ff16021790555060208201518160000160016101000a81548160ff02191690836002811115610f1f57fe5b021790555060408201518160000160026101000a81548173ffffffffffffffffffffffffffffffffffffffff021916908373ffffffffffffffffffffffffffffffffffffffff16021790555060608201518160000160166101000a81548160ff021916908360ff16021790555060808201518160000160176101000a81548160ff021916908360ff16021790555060a08201518160000160186101000a81548160ff02191690831515021790555060c0820151816001015590505060066035600660078110610fea57fe5b01600360078110610ff757fe5b602091828204019190066101000a81548160ff021916908360ff1602179055506040518060e00160405280600760ff1681526020016000600281111561103957fe5b8152602001600073ffffffffffffffffffffffffffffffffffffffff168152602001600660ff168152602001600560ff168152602001600115158152602001600081525060446000600760ff16815260200190815260200160002060008201518160000160006101000a81548160ff021916908360ff16021790555060208201518160000160016101000a81548160ff021916908360028111156110d957fe5b021790555060408201518160000160026101000a81548173ffffffffffffffffffffffffffffffffffffffff021916908373ffffffffffffffffffffffffffffffffffffffff16021790555060608201518160000160166101000a81548160ff021916908360ff16021790555060808201518160000160176101000a81548160ff021916908360ff16021790555060a08201518160000160186101000a81548160ff02191690831515021790555060c08201518160010155905050600760356006600781106111a457fe5b016005600781106111b157fe5b602091828204019190066101000a81548160ff021916908360ff1602179055506040518060e00160405280600860ff1681526020016002808111156111f257fe5b8152602001600073ffffffffffffffffffffffffffffffffffffffff168152602001600660ff168152602001600060ff1681526020016001151581526020017f104ddaefd01036b8465b22025720f944733190135fd4ed564186bc3cfcaec72281525060446000600860ff16815260200190815260200160002060008201518160000160006101000a81548160ff021916908360ff16021790555060208201518160000160016101000a81548160ff021916908360028111156112b157fe5b021790555060408201518160000160026101000a81548173ffffffffffffffffffffffffffffffffffffffff021916908373ffffffffffffffffffffffffffffffffffffffff16021790555060608201518160000160166101000a81548160ff021916908360ff16021790555060808201518160000160176101000a81548160ff021916908360ff16021790555060a08201518160000160186101000a81548160ff02191690831515021790555060c082015181600101559050506040518060a00160405280600960ff168152602001600560ff168152602001600360ff168152602001600060ff168152602001600073ffffffffffffffffffffffffffffffffffffffff1681525060466000600960ff16815260200190815260200160002060008201518160000160006101000a81548160ff021916908360ff16021790555060208201518160000160016101000a81548160ff021916908360ff16021790555060408201518160000160026101000a81548160ff021916908360ff16021790555060608201518160000160036101000a81548160ff021916908360ff16021790555060808201518160000160046101000a81548173ffffffffffffffffffffffffffffffffffffffff021916908373ffffffffffffffffffffffffffffffffffffffff1602179055509050506009603c6003600781106114af57fe5b016000600781106114bc57fe5b602091828204019190066101000a81548160ff021916908360ff1602179055506040518060a00160405280600a60ff168152602001600560ff168152602001600260ff168152602001600260ff168152602001600073ffffffffffffffffffffffffffffffffffffffff1681525060466000600a60ff16815260200190815260200160002060008201518160000160006101000a81548160ff021916908360ff16021790555060208201518160000160016101000a81548160ff021916908360ff16021790555060408201518160000160026101000a81548160ff021916908360ff16021790555060608201518160000160036101000a81548160ff021916908360ff16021790555060808201518160000160046101000a81548173ffffffffffffffffffffffffffffffffffffffff021916908373ffffffffffffffffffffffffffffffffffffffff160217905550905050600a603c60026007811061161f57fe5b0160026007811061162c57fe5b602091828204019190066101000a81548160ff021916908360ff1602179055506040518060a00160405280600b60ff168152602001600a60ff168152602001600460ff168152602001600260ff168152602001600073ffffffffffffffffffffffffffffffffffffffff1681525060466000600b60ff16815260200190815260200160002060008201518160000160006101000a81548160ff021916908360ff16021790555060208201518160000160016101000a81548160ff021916908360ff16021790555060408201518160000160026101000a81548160ff021916908360ff16021790555060608201518160000160036101000a81548160ff021916908360ff16021790555060808201518160000160046101000a81548173ffffffffffffffffffffffffffffffffffffffff021916908373ffffffffffffffffffffffffffffffffffffffff160217905550905050600b603c60046007811061178f57fe5b0160026007811061179c57fe5b602091828204019190066101000a81548160ff021916908360ff1602179055506040518060a00160405280600c60ff168152602001600a60ff168152602001600260ff168152602001600460ff168152602001600073ffffffffffffffffffffffffffffffffffffffff1681525060466000600c60ff16815260200190815260200160002060008201518160000160006101000a81548160ff021916908360ff16021790555060208201518160000160016101000a81548160ff021916908360ff16021790555060408201518160000160026101000a81548160ff021916908360ff16021790555060608201518160000160036101000a81548160ff021916908360ff16021790555060808201518160000160046101000a81548173ffffffffffffffffffffffffffffffffffffffff021916908373ffffffffffffffffffffffffffffffffffffffff160217905550905050600c603c6002600781106118ff57fe5b0160046007811061190c57fe5b602091828204019190066101000a81548160ff021916908360ff1602179055506040518060a00160405280600d60ff168152602001600560ff168152602001600460ff168152602001600460ff168152602001600073ffffffffffffffffffffffffffffffffffffffff1681525060466000600d60ff16815260200190815260200160002060008201518160000160006101000a81548160ff021916908360ff16021790555060208201518160000160016101000a81548160ff021916908360ff16021790555060408201518160000160026101000a81548160ff021916908360ff16021790555060608201518160000160036101000a81548160ff021916908360ff16021790555060808201518160000160046101000a81548173ffffffffffffffffffffffffffffffffffffffff021916908373ffffffffffffffffffffffffffffffffffffffff160217905550905050600d603c600460078110611a6f57fe5b01600460078110611a7c57fe5b602091828204019190066101000a81548160ff021916908360ff1602179055506040518060a00160405280600e60ff168152602001600560ff168152602001600360ff168152602001600660ff168152602001600073ffffffffffffffffffffffffffffffffffffffff1681525060466000600e60ff16815260200190815260200160002060008201518160000160006101000a81548160ff021916908360ff16021790555060208201518160000160016101000a81548160ff021916908360ff16021790555060408201518160000160026101000a81548160ff021916908360ff16021790555060608201518160000160036101000a81548160ff021916908360ff16021790555060808201518160000160046101000a81548173ffffffffffffffffffffffffffffffffffffffff021916908373ffffffffffffffffffffffffffffffffffffffff160217905550905050600e603c600360078110611bdf57fe5b01600660078110611bec57fe5b602091828204019190066101000a81548160ff021916908360ff1602179055505050565b60446020528060005260406000206000915090508060000160009054906101000a900460ff16908060000160019054906101000a900460ff16908060000160029054906101000a900473ffffffffffffffffffffffffffffffffffffffff16908060000160169054906101000a900460ff16908060000160179054906101000a900460ff16908060000160189054906101000a900460ff16908060010154905087565b60358260078110611cc057fe5b018160078110611ccc57fe5b60209182820401919006915091509054906101000a900460ff1681565b7f30644e72e131a029b85045b68181585d2833e84879b9709143e1f593f000000181565b6000806001905060008090505b60088160ff161015611d90576044600060438360ff1660088110611d3a57fe5b602091828204019190069054906101000a900460ff1660ff1660ff16815260200190815260200160002060000160189054906101000a900460ff1615611d835760009150611d90565b8080600101915050611d1a565b508015611da1576001915050611e7e565b60006001905060008090505b60068160ff161015611e6557600073ffffffffffffffffffffffffffffffffffffffff166046600060458460ff1660068110611de557fe5b602091828204019190069054906101000a900460ff1660ff1660ff16815260200190815260200160002060000160049054906101000a900473ffffffffffffffffffffffffffffffffffffffff1673ffffffffffffffffffffffffffffffffffffffff161415611e585760009150611e65565b8080600101915050611dad565b508015611e7757600192505050611e7e565b6000925050505b90565b603460009054906101000a900460ff1660ff168160ff1614611ed8576040517f08c379a0000000000000000000000000000000000000000000000000000000008152600401611ecf90614e75565b60405180910390fd5b604760019054906101000a900473ffffffffffffffffffffffffffffffffffffffff1673ffffffffffffffffffffffffffffffffffffffff163373ffffffffffffffffffffffffffffffffffffffff1614156121c657600060466000604860179054906101000a900460ff1660ff1660ff168152602001908152602001600020905060008160000160019054906101000a900460ff1660ff16118015611fce5750600073ffffffffffffffffffffffffffffffffffffffff168160000160049054906101000a900473ffffffffffffffffffffffffffffffffffffffff1673ffffffffffffffffffffffffffffffffffffffff16145b156121805760006044600060358460000160029054906101000a900460ff1660ff1660078110611ffa57fe5b018460000160039054906101000a900460ff1660ff166007811061201a57fe5b602091828204019190069054906101000a900460ff1660ff1660ff1681526020019081526020016000209050604860009054906101000a900473ffffffffffffffffffffffffffffffffffffffff1673ffffffffffffffffffffffffffffffffffffffff168160000160029054906101000a900473ffffffffffffffffffffffffffffffffffffffff1673ffffffffffffffffffffffffffffffffffffffff161480156120d557508060000160189054906101000a900460ff165b1561217e57604860009054906101000a900473ffffffffffffffffffffffffffffffffffffffff168260000160046101000a81548173ffffffffffffffffffffffffffffffffffffffff021916908373ffffffffffffffffffffffffffffffffffffffff1602179055508160000160019054906101000a900460ff16604860158282829054906101000a900460ff160192506101000a81548160ff021916908360ff1602179055505b505b6000604860176101000a81548160ff021916908360ff1602179055506002603460016101000a81548160ff021916908360038111156121bb57fe5b02179055505061248c565b600060466000604860169054906101000a900460ff1660ff1660ff168152602001908152602001600020905060008160000160019054906101000a900460ff1660ff161180156122665750600073ffffffffffffffffffffffffffffffffffffffff168160000160049054906101000a900473ffffffffffffffffffffffffffffffffffffffff1673ffffffffffffffffffffffffffffffffffffffff16145b156124185760006044600060358460000160029054906101000a900460ff1660ff166007811061229257fe5b018460000160039054906101000a900460ff1660ff16600781106122b257fe5b602091828204019190069054906101000a900460ff1660ff1660ff1681526020019081526020016000209050604760019054906101000a900473ffffffffffffffffffffffffffffffffffffffff1673ffffffffffffffffffffffffffffffffffffffff168160000160029054906101000a900473ffffffffffffffffffffffffffffffffffffffff1673ffffffffffffffffffffffffffffffffffffffff1614801561236d57508060000160189054906101000a900460ff165b1561241657604760019054906101000a900473ffffffffffffffffffffffffffffffffffffffff168260000160046101000a81548173ffffffffffffffffffffffffffffffffffffffff021916908373ffffffffffffffffffffffffffffffffffffffff1602179055508160000160019054906101000a900460ff16604860148282829054906101000a900460ff160192506101000a81548160ff021916908360ff1602179055505b505b6000604860166101000a81548160ff021916908360ff1602179055506034600081819054906101000a900460ff168092919060010191906101000a81548160ff021916908360ff160217905550506001603460016101000a81548160ff0219169083600381111561248557fe5b0217905550505b7f8eaa9f09cc5e3b56163bc8d93f99b4299c7172f83d51d1448e8d9a3dc6d1a101336040516124bb9190614bd0565b60405180910390a16124cb611d0d565b15612521576003603460016101000a81548160ff021916908360038111156124ef57fe5b02179055507fb537cbcadc098cfedf5a04ef7e68a8554b55f7e45bfdaca1cbc51a686ef65f4860405160405180910390a15b50565b603460009054906101000a900460ff1681565b604860009054906101000a900473ffffffffffffffffffffffffffffffffffffffff1681565b60466020528060005260406000206000915090508060000160009054906101000a900460ff16908060000160019054906101000a900460ff16908060000160029054906101000a900460ff16908060000160039054906101000a900460ff16908060000160049054906101000a900473ffffffffffffffffffffffffffffffffffffffff16905085565b604860149054906101000a900460ff1681565b6060600667ffffffffffffffff8111801561261457600080fd5b5060405190808252806020026020018201604052801561264e57816020015b61263b613d28565b8152602001906001900390816126335790505b50905060008090505b60068160ff16101561279d576046600060458360ff166006811061267757fe5b602091828204019190069054906101000a900460ff1660ff1660ff1681526020019081526020016000206040518060a00160405290816000820160009054906101000a900460ff1660ff1660ff1681526020016000820160019054906101000a900460ff1660ff1660ff1681526020016000820160029054906101000a900460ff1660ff1660ff1681526020016000820160039054906101000a900460ff1660ff1660ff1681526020016000820160049054906101000a900473ffffffffffffffffffffffffffffffffffffffff1673ffffffffffffffffffffffffffffffffffffffff1673ffffffffffffffffffffffffffffffffffffffff1681525050828260ff168151811061278557fe5b60200260200101819052508080600101915050612657565b5080905090565b604760009054906101000a900460ff1681565b7f104ddaefd01036b8465b22025720f944733190135fd4ed564186bc3cfcaec72281565b603c82600781106127e857fe5b0181600781106127f457fe5b60209182820401919006915091509054906101000a900460ff1681565b604860159054906101000a900460ff1681565b6045816006811061283157fe5b60209182820401919006915054906101000a900460ff1681565b6060600867ffffffffffffffff8111801561286557600080fd5b5060405190808252806020026020018201604052801561289f57816020015b61288c613d79565b8152602001906001900390816128845790505b50905060008090505b60088160ff161015612a23576044600060438360ff16600881106128c857fe5b602091828204019190069054906101000a900460ff1660ff1660ff1681526020019081526020016000206040518060e00160405290816000820160009054906101000a900460ff1660ff1660ff1681526020016000820160019054906101000a900460ff16600281111561293857fe5b600281111561294357fe5b81526020016000820160029054906101000a900473ffffffffffffffffffffffffffffffffffffffff1673ffffffffffffffffffffffffffffffffffffffff1673ffffffffffffffffffffffffffffffffffffffff1681526020016000820160169054906101000a900460ff1660ff1660ff1681526020016000820160179054906101000a900460ff1660ff1660ff1681526020016000820160189054906101000a900460ff16151515158152602001600182015481525050828260ff1681518110612a0b57fe5b602002602001018190525080806001019150506128a8565b5080905090565b60438160088110612a3757fe5b60209182820401919006915054906101000a900460ff1681565b603460019054906101000a900460ff1681565b604760019054906101000a900473ffffffffffffffffffffffffffffffffffffffff1681565b60006003811115612a9757fe5b603460019054906101000a900460ff166003811115612ab257fe5b14612af2576040517f08c379a0000000000000000000000000000000000000000000000000000000008152600401612ae990614e95565b60405180910390fd5b600073ffffffffffffffffffffffffffffffffffffffff16604760019054906101000a900473ffffffffffffffffffffffffffffffffffffffff1673ffffffffffffffffffffffffffffffffffffffff161415612b8f5733604760016101000a81548173ffffffffffffffffffffffffffffffffffffffff021916908373ffffffffffffffffffffffffffffffffffffffff160217905550612efc565b604760019054906101000a900473ffffffffffffffffffffffffffffffffffffffff1673ffffffffffffffffffffffffffffffffffffffff163373ffffffffffffffffffffffffffffffffffffffff161415612c20576040517f08c379a0000000000000000000000000000000000000000000000000000000008152600401612c1790614d35565b60405180910390fd5b600060024281612c2c57fe5b061415612c795733604860006101000a81548173ffffffffffffffffffffffffffffffffffffffff021916908373ffffffffffffffffffffffffffffffffffffffff160217905550612d1e565b604760019054906101000a900473ffffffffffffffffffffffffffffffffffffffff16604860006101000a81548173ffffffffffffffffffffffffffffffffffffffff021916908373ffffffffffffffffffffffffffffffffffffffff16021790555033604760016101000a81548173ffffffffffffffffffffffffffffffffffffffff021916908373ffffffffffffffffffffffffffffffffffffffff1602179055505b6000600190505b60058160ff161015612dbb57604760019054906101000a900473ffffffffffffffffffffffffffffffffffffffff16604460008360ff1660ff16815260200190815260200160002060000160026101000a81548173ffffffffffffffffffffffffffffffffffffffff021916908373ffffffffffffffffffffffffffffffffffffffff1602179055508080600101915050612d25565b506000600590505b60098160ff161015612e5957604860009054906101000a900473ffffffffffffffffffffffffffffffffffffffff16604460008360ff1660ff16815260200190815260200160002060000160026101000a81548173ffffffffffffffffffffffffffffffffffffffff021916908373ffffffffffffffffffffffffffffffffffffffff1602179055508080600101915050612dc3565b506001603460016101000a81548160ff02191690836003811115612e7957fe5b02179055507f8fd707874eb940598510258c64cad23fd35fe8c85c5c38e8782fac2cc887fb6e604760019054906101000a900473ffffffffffffffffffffffffffffffffffffffff16604860009054906101000a900473ffffffffffffffffffffffffffffffffffffffff16604051612ef3929190614beb565b60405180910390a15b565b60335481565b600781565b600380811115612f1557fe5b603460019054906101000a900460ff166003811115612f3057fe5b1415612f71576040517f08c379a0000000000000000000000000000000000000000000000000000000008152600401612f6890614dd5565b60405180910390fd5b604760019054906101000a900473ffffffffffffffffffffffffffffffffffffffff1673ffffffffffffffffffffffffffffffffffffffff163373ffffffffffffffffffffffffffffffffffffffff1614156130305760016003811115612fd457fe5b603460019054906101000a900460ff166003811115612fef57fe5b1461302f576040517f08c379a000000000000000000000000000000000000000000000000000000000815260040161302690614eb5565b60405180910390fd5b5b604860009054906101000a900473ffffffffffffffffffffffffffffffffffffffff1673ffffffffffffffffffffffffffffffffffffffff163373ffffffffffffffffffffffffffffffffffffffff1614156130ef576002600381111561309357fe5b603460019054906101000a900460ff1660038111156130ae57fe5b146130ee576040517f08c379a00000000000000000000000000000000000000000000000000000000081526004016130e590614df5565b60405180910390fd5b5b603460009054906101000a900460ff1660ff16816000015160ff161461314a576040517f08c379a000000000000000000000000000000000000000000000000000000000815260040161314190614cf5565b60405180910390fd5b600060446000836020015160ff1660ff16815260200190815260200160002090503373ffffffffffffffffffffffffffffffffffffffff168160000160029054906101000a900473ffffffffffffffffffffffffffffffffffffffff1673ffffffffffffffffffffffffffffffffffffffff1614801561321b5750600073ffffffffffffffffffffffffffffffffffffffff168160000160029054906101000a900473ffffffffffffffffffffffffffffffffffffffff1673ffffffffffffffffffffffffffffffffffffffff1614155b61325a576040517f08c379a000000000000000000000000000000000000000000000000000000000815260040161325190614db5565b60405180910390fd5b8060000160189054906101000a900460ff166132ab576040517f08c379a00000000000000000000000000000000000000000000000000000000081526004016132a290614d15565b60405180910390fd5b6002808111156132b757fe5b8160000160019054906101000a900460ff1660028111156132d457fe5b1415613461578160800151606001516000600281106132ef57fe5b6020020151816001015414613339576040517f08c379a000000000000000000000000000000000000000000000000000000000815260040161333090614e35565b60405180910390fd5b604760009054906101000a900460ff1661343a5773__Verifier______________________________63ab4753078360800151600001518460800151602001518560800151604001518660800151606001516040518563ffffffff1660e01b81526004016133aa9493929190614c58565b60206040518083038186803b1580156133c257600080fd5b505af41580156133d6573d6000803e3d6000fd5b505050506040513d601f19601f820116820180604052508101906133fa91906141da565b613439576040517f08c379a000000000000000000000000000000000000000000000000000000000815260040161343090614d75565b60405180910390fd5b5b81608001516060015160016002811061344f57fe5b602002015181600101819055506138fe565b606082604001519050606083606001519050613588836040518060e00160405290816000820160009054906101000a900460ff1660ff1660ff1681526020016000820160019054906101000a900460ff1660028111156134bd57fe5b60028111156134c857fe5b81526020016000820160029054906101000a900473ffffffffffffffffffffffffffffffffffffffff1673ffffffffffffffffffffffffffffffffffffffff1673ffffffffffffffffffffffffffffffffffffffff1681526020016000820160169054906101000a900460ff1660ff1660ff1681526020016000820160179054906101000a900460ff1660ff1660ff1681526020016000820160189054906101000a900460ff161515151581526020016001820154815250508383613902565b6135c7576040517f08c379a00000000000000000000000000000000000000000000000000000000081526004016135be90614d95565b60405180910390fd5b6000826001845103815181106135d957fe5b602002602001015190506000826001845103815181106135f557fe5b60200260200101519050600060358660000160169054906101000a900460ff1660ff166007811061362257fe5b018660000160179054906101000a900460ff1660ff166007811061364257fe5b602091828204019190066101000a81548160ff021916908360ff1602179055508460000160009054906101000a900460ff1660358360ff166007811061368457fe5b018260ff166007811061369357fe5b602091828204019190066101000a81548160ff021916908360ff160217905550818560000160166101000a81548160ff021916908360ff160217905550808560000160176101000a81548160ff021916908360ff160217905550600060466000603c8560ff166007811061370357fe5b018460ff166007811061371257fe5b602091828204019190069054906101000a900460ff1660ff1660ff16815260200190815260200160002060000160019054906101000a900460ff1660ff161180156137f95750600073ffffffffffffffffffffffffffffffffffffffff1660466000603c8560ff166007811061378457fe5b018460ff166007811061379357fe5b602091828204019190069054906101000a900460ff1660ff1660ff16815260200190815260200160002060000160049054906101000a900473ffffffffffffffffffffffffffffffffffffffff1673ffffffffffffffffffffffffffffffffffffffff16145b156138f957604760019054906101000a900473ffffffffffffffffffffffffffffffffffffffff1673ffffffffffffffffffffffffffffffffffffffff163373ffffffffffffffffffffffffffffffffffffffff1614156138a857603c8260ff166007811061386457fe5b018160ff166007811061387357fe5b602091828204019190069054906101000a900460ff16604860166101000a81548160ff021916908360ff1602179055506138f8565b603c8260ff16600781106138b857fe5b018160ff16600781106138c757fe5b602091828204019190069054906101000a900460ff16604860176101000a81548160ff021916908360ff1602179055505b5b505050505b5050565b600080846060015190506000856080015190508351855114613959576040517f08c379a000000000000000000000000000000000000000000000000000000000815260040161395090614e15565b60405180910390fd5b60008090506000600281111561396b57fe5b8760200151600281111561397b57fe5b141561398a57600190506139b3565b6001600281111561399757fe5b876020015160028111156139a757fe5b14156139b257600290505b5b8060ff16865111156139fa576040517f08c379a00000000000000000000000000000000000000000000000000000000081526004016139f190614e55565b60405180910390fd5b60008090505b8651811015613be5576000878281518110613a1757fe5b602002602001015190506000878381518110613a2f57fe5b6020026020010151905060078260ff161080613a4e575060078160ff16105b613a8d576040517f08c379a0000000000000000000000000000000000000000000000000000000008152600401613a8490614d55565b60405180910390fd5b8560ff168260ff161480613aa657508460ff168160ff16145b8015613ae75750600186830360ff161480613ac65750600182870360ff16145b80613ad65750600185820360ff16145b80613ae65750600181860360ff16145b5b613b26576040517f08c379a0000000000000000000000000000000000000000000000000000000008152600401613b1d90614e15565b60405180910390fd5b600060358360ff1660078110613b3857fe5b018260ff1660078110613b4757fe5b602091828204019190069054906101000a900460ff1690506000604460008360ff1660ff16815260200190815260200160002090508060000160189054906101000a900460ff1615613bce576040517f08c379a0000000000000000000000000000000000000000000000000000000008152600401613bc590614cd5565b60405180910390fd5b839750829650505050508080600101915050613a00565b50600193505050509392505050565b826008601f01602090048101928215613c7d5791602002820160005b83821115613c4e57835183826101000a81548160ff021916908360ff1602179055509260200192600101602081600001049283019260010302613c10565b8015613c7b5782816101000a81549060ff0219169055600101602081600001049283019260010302613c4e565b505b509050613c8a9190613de2565b5090565b826006601f01602090048101928215613d175791602002820160005b83821115613ce857835183826101000a81548160ff021916908360ff1602179055509260200192600101602081600001049283019260010302613caa565b8015613d155782816101000a81549060ff0219169055600101602081600001049283019260010302613ce8565b505b509050613d249190613de2565b5090565b6040518060a00160405280600060ff168152602001600060ff168152602001600060ff168152602001600060ff168152602001600073ffffffffffffffffffffffffffffffffffffffff1681525090565b6040518060e00160405280600060ff16815260200160006002811115613d9b57fe5b8152602001600073ffffffffffffffffffffffffffffffffffffffff168152602001600060ff168152602001600060ff168152602001600015158152602001600081525090565b613e0f91905b80821115613e0b57600081816101000a81549060ff021916905550600101613de8565b5090565b90565b600081359050613e218161523d565b92915050565b600082601f830112613e3857600080fd5b6002613e4b613e4682614ffa565b614fcd565b91508183856040840282011115613e6157600080fd5b60005b83811015613e915781613e778882613e9b565b845260208401935060408301925050600181019050613e64565b5050505092915050565b600082601f830112613eac57600080fd5b6002613ebf613eba8261501c565b614fcd565b91508183856020840282011115613ed557600080fd5b60005b83811015613f055781613eeb88826141b0565b845260208401935060208301925050600181019050613ed8565b5050505092915050565b600082601f830112613f2057600080fd5b8135613f33613f2e8261503e565b614fcd565b91508181835260208401935060208101905083856020840282011115613f5857600080fd5b60005b83811015613f885781613f6e88826141c5565b845260208401935060208301925050600181019050613f5b565b5050505092915050565b600081359050613fa181615254565b92915050565b600081519050613fb681615254565b92915050565b600081359050613fcb8161526b565b92915050565b60006101408284031215613fe457600080fd5b613fee6080614fcd565b90506000613ffe84828501613e9b565b600083015250604061401284828501613e27565b60208301525060c061402684828501613e9b565b60408301525061010061403b84828501613e9b565b60608301525092915050565b60006101c0828403121561405a57600080fd5b61406460a0614fcd565b90506000614074848285016141c5565b6000830152506020614088848285016141c5565b602083015250604082013567ffffffffffffffff8111156140a857600080fd5b6140b484828501613f0f565b604083015250606082013567ffffffffffffffff8111156140d457600080fd5b6140e084828501613f0f565b60608301525060806140f484828501613fd1565b60808301525092915050565b600060e0828403121561411257600080fd5b61411c60e0614fcd565b9050600061412c848285016141c5565b600083015250602061414084828501613fbc565b602083015250604061415484828501613e12565b6040830152506060614168848285016141c5565b606083015250608061417c848285016141c5565b60808301525060a061419084828501613f92565b60a08301525060c06141a4848285016141b0565b60c08301525092915050565b6000813590506141bf8161527b565b92915050565b6000813590506141d481615292565b92915050565b6000602082840312156141ec57600080fd5b60006141fa84828501613fa7565b91505092915050565b60006020828403121561421557600080fd5b600082013567ffffffffffffffff81111561422f57600080fd5b61423b84828501614047565b91505092915050565b6000806000610120848603121561425a57600080fd5b600061426886828701614100565b93505060e084013567ffffffffffffffff81111561428557600080fd5b61429186828701613f0f565b92505061010084013567ffffffffffffffff8111156142af57600080fd5b6142bb86828701613f0f565b9150509250925092565b6000602082840312156142d757600080fd5b60006142e5848285016141b0565b91505092915050565b6000806040838503121561430157600080fd5b600061430f858286016141b0565b925050602061432085828601613f92565b9150509250929050565b6000806040838503121561433d57600080fd5b600061434b858286016141b0565b925050602061435c858286016141b0565b9150509250929050565b60006020828403121561437857600080fd5b6000614386848285016141c5565b91505092915050565b600061439b8383614586565b60408301905092915050565b60006143b38383614a74565b60a08301905092915050565b60006143cb8383614adc565b60e08301905092915050565b60006143e38383614b88565b60208301905092915050565b6143f8816151c9565b82525050565b6144078161514e565b82525050565b6144168161514e565b82525050565b6144258161509a565b61442f81846150fa565b925061443a82615066565b8060005b8381101561446b578151614452878261438f565b965061445d836150c6565b92505060018101905061443e565b505050505050565b600061447e826150a5565b6144888185615105565b935061449383615070565b8060005b838110156144c45781516144ab88826143a7565b97506144b6836150d3565b925050600181019050614497565b5085935050505092915050565b60006144dc826150b0565b6144e68185615116565b93506144f183615080565b8060005b8381101561452257815161450988826143bf565b9750614514836150e0565b9250506001810190506144f5565b5085935050505092915050565b614538816150bb565b6145428184615127565b925061454d82615090565b8060005b8381101561457e57815161456587826143d7565b9650614570836150ed565b925050600181019050614551565b505050505050565b61458f816150bb565b6145998184615132565b92506145a482615090565b8060005b838110156145d55781516145bc87826143d7565b96506145c7836150ed565b9250506001810190506145a8565b505050505050565b6145e681615160565b82525050565b6145f581615160565b82525050565b614604816151db565b82525050565b614613816151ed565b82525050565b614622816151ed565b82525050565b600061463560278361513d565b91507f747269656420746f206d6f7665207468726f75676820616e206578697374696e60008301527f67207069656365000000000000000000000000000000000000000000000000006020830152604082019050919050565b600061469b60118361513d565b91507f57726f6e67207475726e206e756d6265720000000000000000000000000000006000830152602082019050919050565b60006146db600d8361513d565b91507f50696563652069732064656164000000000000000000000000000000000000006000830152602082019050919050565b600061471b60158361513d565b91507f63616e2774206a6f696e2067616d6520747769636500000000000000000000006000830152602082019050919050565b600061475b601b8361513d565b91507f747269656420746f206d6f7665206f7574206f6620626f756e647300000000006000830152602082019050919050565b600061479b60148361513d565b91507f4661696c6564207a6b206d6f766520636865636b0000000000000000000000006000830152602082019050919050565b60006147db600c8361513d565b91507f496e76616c6964206d6f766500000000000000000000000000000000000000006000830152602082019050919050565b600061481b601b8361513d565b91507f63616e2774206d6f7665206f70706f6e656e74277320706965636500000000006000830152602082019050919050565b600061485b600d8361513d565b91507f47616d6520697320656e646564000000000000000000000000000000000000006000830152602082019050919050565b600061489b600d8361513d565b91507f4e6f742070322773207475726e000000000000000000000000000000000000006000830152602082019050919050565b60006148db600c8361513d565b91507f696e76616c6964206d6f766500000000000000000000000000000000000000006000830152602082019050919050565b600061491b60108361513d565b91507f5a4b2050726f6f6620696e76616c6964000000000000000000000000000000006000830152602082019050919050565b600061495b602d8361513d565b91507f747269656420746f206d6f76652070696563652066757274686572207468616e60008301527f2072616e676520616c6c6f7773000000000000000000000000000000000000006020830152604082019050919050565b60006149c160118361513d565b91507f77726f6e67207475726e206e756d6265720000000000000000000000000000006000830152602082019050919050565b6000614a0160148361513d565b91507f47616d6520616c726561647920737461727465640000000000000000000000006000830152602082019050919050565b6000614a41600d8361513d565b91507f4e6f742070312773207475726e000000000000000000000000000000000000006000830152602082019050919050565b60a082016000820151614a8a6000850182614b97565b506020820151614a9d6020850182614b97565b506040820151614ab06040850182614b97565b506060820151614ac36060850182614b97565b506080820151614ad660808501826143fe565b50505050565b60e082016000820151614af26000850182614b97565b506020820151614b05602085018261460a565b506040820151614b1860408501826143fe565b506060820151614b2b6060850182614b97565b506080820151614b3e6080850182614b97565b5060a0820151614b5160a08501826145dd565b5060c0820151614b6460c0850182614b6a565b50505050565b614b73816151b2565b82525050565b614b82816151b2565b82525050565b614b91816151b2565b82525050565b614ba0816151bc565b82525050565b614baf816151bc565b82525050565b6000602082019050614bca600083018461440d565b92915050565b6000602082019050614be560008301846143ef565b92915050565b6000604082019050614c00600083018561440d565b614c0d602083018461440d565b9392505050565b60006020820190508181036000830152614c2e8184614473565b905092915050565b60006020820190508181036000830152614c5081846144d1565b905092915050565b600061014082019050614c6e600083018761452f565b614c7b604083018661441c565b614c8860c083018561452f565b614c9661010083018461452f565b95945050505050565b6000602082019050614cb460008301846145ec565b92915050565b6000602082019050614ccf60008301846145fb565b92915050565b60006020820190508181036000830152614cee81614628565b9050919050565b60006020820190508181036000830152614d0e8161468e565b9050919050565b60006020820190508181036000830152614d2e816146ce565b9050919050565b60006020820190508181036000830152614d4e8161470e565b9050919050565b60006020820190508181036000830152614d6e8161474e565b9050919050565b60006020820190508181036000830152614d8e8161478e565b9050919050565b60006020820190508181036000830152614dae816147ce565b9050919050565b60006020820190508181036000830152614dce8161480e565b9050919050565b60006020820190508181036000830152614dee8161484e565b9050919050565b60006020820190508181036000830152614e0e8161488e565b9050919050565b60006020820190508181036000830152614e2e816148ce565b9050919050565b60006020820190508181036000830152614e4e8161490e565b9050919050565b60006020820190508181036000830152614e6e8161494e565b9050919050565b60006020820190508181036000830152614e8e816149b4565b9050919050565b60006020820190508181036000830152614eae816149f4565b9050919050565b60006020820190508181036000830152614ece81614a34565b9050919050565b6000602082019050614eea6000830184614b79565b92915050565b6000602082019050614f056000830184614ba6565b92915050565b600060e082019050614f20600083018a614ba6565b614f2d6020830189614619565b614f3a604083018861440d565b614f476060830187614ba6565b614f546080830186614ba6565b614f6160a08301856145ec565b614f6e60c0830184614b79565b98975050505050505050565b600060a082019050614f8f6000830188614ba6565b614f9c6020830187614ba6565b614fa96040830186614ba6565b614fb66060830185614ba6565b614fc3608083018461440d565b9695505050505050565b6000604051905081810181811067ffffffffffffffff82111715614ff057600080fd5b8060405250919050565b600067ffffffffffffffff82111561501157600080fd5b602082029050919050565b600067ffffffffffffffff82111561503357600080fd5b602082029050919050565b600067ffffffffffffffff82111561505557600080fd5b602082029050602081019050919050565b6000819050919050565b6000819050602082019050919050565b6000819050602082019050919050565b6000819050919050565b600060029050919050565b600081519050919050565b600081519050919050565b600060029050919050565b6000602082019050919050565b6000602082019050919050565b6000602082019050919050565b6000602082019050919050565b600081905092915050565b600082825260208201905092915050565b600082825260208201905092915050565b600081905092915050565b600081905092915050565b600082825260208201905092915050565b600061515982615192565b9050919050565b60008115159050919050565b600081905061517a82615223565b919050565b600081905061518d82615230565b919050565b600073ffffffffffffffffffffffffffffffffffffffff82169050919050565b6000819050919050565b600060ff82169050919050565b60006151d4826151ff565b9050919050565b60006151e68261516c565b9050919050565b60006151f88261517f565b9050919050565b600061520a82615211565b9050919050565b600061521c82615192565b9050919050565b6004811061522d57fe5b50565b6003811061523a57fe5b50565b6152468161514e565b811461525157600080fd5b50565b61525d81615160565b811461526857600080fd5b50565b6003811061527857600080fd5b50565b615284816151b2565b811461528f57600080fd5b50565b61529b816151bc565b81146152a657600080fd5b5056fea2646970667358221220b5d22630969206892798c4e7596917089e8580299df005f149213c46a310149564736f6c63430006070033",
  "immutableReferences": {},
  "source": "pragma solidity ^0.6.7;\npragma experimental ABIEncoderV2;\n\nimport \"@openzeppelin/contracts-ethereum-package/contracts/Initializable.sol\";\nimport \"./ZKChessTypes.sol\";\nimport \"./ZKChessUtils.sol\";\nimport \"./Verifier.sol\";\n\ncontract ZKChessGame is Initializable {\n    uint256\n        public constant FIELD_SIZE = 21888242871839275222246405745257275088548364400416034343698204186575808495617;\n    uint256\n        public constant GHOST_START_COMMITMENT = 7374563847362678215915084925243633004703986452179446109135597066279732561698;\n    uint256 public constant BOARD_SIZE = 7;\n\n    uint256 public gameId;\n\n    uint8 public turnNumber;\n    GameState public gameState;\n    uint8[BOARD_SIZE][BOARD_SIZE] public boardPieces; // board[row][col]\n    uint8[BOARD_SIZE][BOARD_SIZE] public boardObjectives;\n\n    uint8[8] public pieceIds;\n    mapping(uint8 => Piece) public pieces;\n    uint8[6] public objectiveIds;\n    mapping(uint8 => Objective) public objectives;\n\n    bool public DISABLE_ZK_CHECK;\n\n    address public player1;\n    address public player2;\n\n    uint8 public player1Score;\n    uint8 public player2Score;\n\n    uint8 p1CurrentlyCapturing;\n    uint8 p2CurrentlyCapturing;\n\n    uint256 pfsVerified;\n\n    function initialize(uint256 _gameId, bool _disableZKCheck) public {\n        gameId = _gameId;\n        DISABLE_ZK_CHECK = _disableZKCheck;\n        gameState = GameState.WAITING_FOR_PLAYERS;\n\n        pieceIds = [1, 2, 3, 4, 5, 6, 7, 8];\n        objectiveIds = [9, 10, 11, 12, 13, 14];\n\n        // initialize pieces\n        pieces[1] = Piece({\n            id: 1,\n            pieceType: PieceType.KING,\n            owner: address(0),\n            row: 0,\n            col: 1,\n            alive: true,\n            commitment: 0\n        });\n        boardPieces[0][1] = 1;\n        pieces[2] = Piece({\n            id: 2,\n            pieceType: PieceType.KNIGHT,\n            owner: address(0),\n            row: 0,\n            col: 3,\n            alive: true,\n            commitment: 0\n        });\n        boardPieces[0][3] = 2;\n        pieces[3] = Piece({\n            id: 3,\n            pieceType: PieceType.KING,\n            owner: address(0),\n            row: 0,\n            col: 5,\n            alive: true,\n            commitment: 0\n        });\n        boardPieces[0][5] = 3;\n        pieces[4] = Piece({\n            id: 4,\n            pieceType: PieceType.GHOST,\n            owner: address(0),\n            row: 0,\n            col: 0,\n            alive: true,\n            commitment: GHOST_START_COMMITMENT\n        });\n        pieces[5] = Piece({\n            id: 5,\n            pieceType: PieceType.KING,\n            owner: address(0),\n            row: 6,\n            col: 1,\n            alive: true,\n            commitment: 0\n        });\n        boardPieces[6][1] = 5;\n        pieces[6] = Piece({\n            id: 6,\n            pieceType: PieceType.KNIGHT,\n            owner: address(0),\n            row: 6,\n            col: 3,\n            alive: true,\n            commitment: 0\n        });\n        boardPieces[6][3] = 6;\n        pieces[7] = Piece({\n            id: 7,\n            pieceType: PieceType.KING,\n            owner: address(0),\n            row: 6,\n            col: 5,\n            alive: true,\n            commitment: 0\n        });\n        boardPieces[6][5] = 7;\n        pieces[8] = Piece({\n            id: 8,\n            pieceType: PieceType.GHOST,\n            owner: address(0),\n            row: 6,\n            col: 0,\n            alive: true,\n            commitment: GHOST_START_COMMITMENT\n        });\n\n        // initialize objectives\n        objectives[9] = Objective({\n            id: 9,\n            value: 5,\n            row: 3,\n            col: 0,\n            capturedBy: address(0)\n        });\n        boardObjectives[3][0] = 9;\n        objectives[10] = Objective({\n            id: 10,\n            value: 5,\n            row: 2,\n            col: 2,\n            capturedBy: address(0)\n        });\n        boardObjectives[2][2] = 10;\n        objectives[11] = Objective({\n            id: 11,\n            value: 10,\n            row: 4,\n            col: 2,\n            capturedBy: address(0)\n        });\n        boardObjectives[4][2] = 11;\n        objectives[12] = Objective({\n            id: 12,\n            value: 10,\n            row: 2,\n            col: 4,\n            capturedBy: address(0)\n        });\n        boardObjectives[2][4] = 12;\n        objectives[13] = Objective({\n            id: 13,\n            value: 5,\n            row: 4,\n            col: 4,\n            capturedBy: address(0)\n        });\n        boardObjectives[4][4] = 13;\n        objectives[14] = Objective({\n            id: 14,\n            value: 5,\n            row: 3,\n            col: 6,\n            capturedBy: address(0)\n        });\n        boardObjectives[3][6] = 14;\n    }\n\n    //////////////\n    /// EVENTS ///\n    //////////////\n\n    event ProofVerified(uint256 pfsAccepted);\n    event GameStart(address p1, address p2);\n    event MoveMade(address player);\n    event GameFinished();\n\n    ///////////////\n    /// GETTERS ///\n    ///////////////\n\n    function getPieces() public view returns (Piece[] memory ret) {\n        ret = new Piece[](pieceIds.length);\n        for (uint8 i = 0; i < pieceIds.length; i++) {\n            ret[i] = pieces[pieceIds[i]];\n        }\n        return ret;\n    }\n\n    function getObjectives() public view returns (Objective[] memory ret) {\n        ret = new Objective[](objectiveIds.length);\n        for (uint8 i = 0; i < objectiveIds.length; i++) {\n            ret[i] = objectives[objectiveIds[i]];\n        }\n        return ret;\n    }\n\n    //////////////\n    /// Helper ///\n    //////////////\n\n    function isValidMove(\n        Piece memory piece,\n        uint8[] memory toRow,\n        uint8[] memory toCol\n    ) public view returns (bool) {\n        uint8 currentRow = piece.row;\n        uint8 currentCol = piece.col;\n        require(toRow.length == toCol.length, \"invalid move\");\n        uint8 moveRange = 0;\n        if (piece.pieceType == PieceType.KING) {\n            moveRange = 1;\n        } else if (piece.pieceType == PieceType.KNIGHT) {\n            moveRange = 2;\n        }\n        require(\n            toRow.length <= moveRange,\n            \"tried to move piece further than range allows\"\n        );\n\n        for (uint256 i = 0; i < toRow.length; i++) {\n            uint8 nextRow = toRow[i];\n            uint8 nextCol = toCol[i];\n            // must be in range [0, SIZE - 1]\n            require(\n                nextRow < BOARD_SIZE || nextCol < BOARD_SIZE,\n                \"tried to move out of bounds\"\n            );\n            // (nextRow, nextCol) must be adjacent to (currentRow, currentCol)\n            require(\n                (nextRow == currentRow || nextCol == currentCol) &&\n                    (nextRow - currentRow == 1 ||\n                        currentRow - nextRow == 1 ||\n                        nextCol - currentCol == 1 ||\n                        currentCol - nextCol == 1),\n                \"invalid move\"\n            );\n            // can't move through or onto a square with a piece on it\n            uint8 pieceIdAtNextTile = boardPieces[nextRow][nextCol];\n            Piece storage pieceAtNextTile = pieces[pieceIdAtNextTile];\n            require(\n                !pieceAtNextTile.alive,\n                \"tried to move through an existing piece\"\n            );\n            currentRow = nextRow;\n            currentCol = nextCol;\n        }\n        return true;\n    }\n\n    function gameShouldBeCompleted() public view returns (bool) {\n        // check if game is over: no pieces left, OR no objectives left\n        bool noPiecesLeft = true;\n        for (uint8 i = 0; i < pieceIds.length; i++) {\n            if (pieces[pieceIds[i]].alive) {\n                noPiecesLeft = false;\n                break;\n            }\n        }\n        if (noPiecesLeft) {\n            return true;\n        }\n\n        bool noObjectivesLeft = true;\n        for (uint8 i = 0; i < objectiveIds.length; i++) {\n            if (objectives[objectiveIds[i]].capturedBy == address(0)) {\n                noObjectivesLeft = false;\n                break;\n            }\n        }\n        if (noObjectivesLeft) {\n            return true;\n        }\n        return false;\n    }\n\n    //////////////////////\n    /// Game Mechanics ///\n    //////////////////////\n\n    function joinGame() public {\n        require(\n            gameState == GameState.WAITING_FOR_PLAYERS,\n            \"Game already started\"\n        );\n        if (player1 == address(0)) {\n            // first player to join game\n            player1 = msg.sender;\n            return;\n        }\n        // another player has joined. game is ready to start\n\n        require(msg.sender != player1, \"can't join game twice\");\n        // randomize player order\n        if (block.timestamp % 2 == 0) {\n            player2 = msg.sender;\n        } else {\n            player2 = player1;\n            player1 = msg.sender;\n        }\n\n        // set pieces\n        for (uint8 i = 1; i < 5; i++) {\n            pieces[i].owner = player1;\n        }\n        for (uint8 i = 5; i < 9; i++) {\n            pieces[i].owner = player2;\n        }\n\n        gameState = GameState.P1_TO_MOVE;\n        emit GameStart(player1, player2);\n    }\n\n    function doMove(Move memory move) public {\n        require(gameState != GameState.COMPLETE, \"Game is ended\");\n        if (msg.sender == player1) {\n            require(gameState == GameState.P1_TO_MOVE, \"Not p1's turn\");\n        }\n        if (msg.sender == player2) {\n            require(gameState == GameState.P2_TO_MOVE, \"Not p2's turn\");\n        }\n        require(move.turnNumber == turnNumber, \"Wrong turn number\");\n        Piece storage piece = pieces[move.pieceId];\n        require(\n            piece.owner == msg.sender && piece.owner != address(0),\n            \"can't move opponent's piece\"\n        );\n        require(piece.alive, \"Piece is dead\");\n\n        if (piece.pieceType == PieceType.GHOST) {\n            require(piece.commitment == move.zkp.input[0], \"ZK Proof invalid\");\n            if (!DISABLE_ZK_CHECK) {\n                require(\n                    Verifier.verifyMoveProof(\n                        move.zkp.a,\n                        move.zkp.b,\n                        move.zkp.c,\n                        move.zkp.input\n                    ),\n                    \"Failed zk move check\"\n                );\n            }\n            piece.commitment = move.zkp.input[1];\n        } else {\n            uint8[] memory moveToRow = move.moveToRow;\n            uint8[] memory moveToCol = move.moveToCol;\n            require(isValidMove(piece, moveToRow, moveToCol), \"Invalid move\");\n            uint8 toRow = moveToRow[moveToRow.length - 1];\n            uint8 toCol = moveToCol[moveToCol.length - 1];\n            boardPieces[piece.row][piece.col] = 0;\n            boardPieces[toRow][toCol] = piece.id;\n            piece.row = toRow;\n            piece.col = toCol;\n            if (\n                objectives[boardObjectives[toRow][toCol]].value > 0 &&\n                objectives[boardObjectives[toRow][toCol]].capturedBy ==\n                address(0)\n            ) {\n                if (msg.sender == player1) {\n                    p1CurrentlyCapturing = boardObjectives[toRow][toCol];\n                } else {\n                    p2CurrentlyCapturing = boardObjectives[toRow][toCol];\n                }\n            }\n        }\n    }\n\n    function endTurn(uint8 _turnNumber) public {\n        require(_turnNumber == turnNumber, \"wrong turn number\");\n        if (msg.sender == player1) {\n            // check if opponent captures any objectives\n            Objective storage capturing = objectives[p2CurrentlyCapturing];\n            if (capturing.value > 0 && capturing.capturedBy == address(0)) {\n                // is an uncaptured objective\n                Piece storage onObjective = pieces[boardPieces[capturing\n                    .row][capturing.col]];\n                if (onObjective.owner == player2 && onObjective.alive) {\n                    // p2's live piece is stationed on top\n                    capturing.capturedBy = player2;\n                    player2Score += capturing.value;\n                }\n            }\n            // change to p2's turn\n            p2CurrentlyCapturing = 0;\n            gameState = GameState.P2_TO_MOVE;\n        } else {\n            // check if opponent captures any objectives\n            Objective storage capturing = objectives[p1CurrentlyCapturing];\n            if (capturing.value > 0 && capturing.capturedBy == address(0)) {\n                // is an uncaptured objective\n                Piece storage onObjective = pieces[boardPieces[capturing\n                    .row][capturing.col]];\n                if (onObjective.owner == player1 && onObjective.alive) {\n                    // p1's live piece is stationed on top\n                    capturing.capturedBy = player1;\n                    player1Score += capturing.value;\n                }\n            }\n            // change to p1's turn\n            p1CurrentlyCapturing = 0;\n            turnNumber++;\n            gameState = GameState.P1_TO_MOVE;\n        }\n        emit MoveMade(msg.sender);\n\n        if (gameShouldBeCompleted()) {\n            gameState = GameState.COMPLETE;\n            emit GameFinished();\n        }\n    }\n}\n",
  "sourcePath": "/Users/bgu/zk-chess/eth/contracts/ZKChessGame.sol",
  "compiler": {
    "name": "solc",
    "version": "0.6.7+commit.b8d736ae.Emscripten.clang"
  },
  "schemaVersion": "3.3.1",
  "updatedAt": "2020-11-09T16:55:41.555Z",
  "networkType": "ethereum",
  "devdoc": {
    "methods": {}
  },
  "userdoc": {
    "methods": {
      "getPieces()": {
        "notice": "//////////// GETTERS /// ////////////"
      },
      "isValidMove((uint8,uint8,address,uint8,uint8,bool,uint256),uint8[],uint8[])": {
        "notice": "/////////// Helper /// ///////////"
      },
      "joinGame()": {
        "notice": "/////////////////// Game Mechanics /// ///////////////////"
      }
    }
  }
}