{
  "contractName": "ZKChessCore",
  "abi": [
    {
      "inputs": [
        {
          "internalType": "bool",
          "name": "_disableZKCheck",
          "type": "bool"
        }
      ],
      "stateMutability": "nonpayable",
      "type": "constructor"
    },
    {
      "anonymous": false,
      "inputs": [],
      "name": "GameFinished",
      "type": "event"
    },
    {
      "anonymous": false,
      "inputs": [
        {
          "indexed": false,
          "internalType": "address",
          "name": "p1",
          "type": "address"
        },
        {
          "indexed": false,
          "internalType": "address",
          "name": "p2",
          "type": "address"
        }
      ],
      "name": "GameStart",
      "type": "event"
    },
    {
      "anonymous": false,
      "inputs": [
        {
          "indexed": false,
          "internalType": "address",
          "name": "player",
          "type": "address"
        }
      ],
      "name": "MoveMade",
      "type": "event"
    },
    {
      "anonymous": false,
      "inputs": [
        {
          "indexed": false,
          "internalType": "uint256",
          "name": "pfsAccepted",
          "type": "uint256"
        }
      ],
      "name": "ProofVerified",
      "type": "event"
    },
    {
      "inputs": [],
      "name": "BOARD_SIZE",
      "outputs": [
        {
          "internalType": "uint256",
          "name": "",
          "type": "uint256"
        }
      ],
      "stateMutability": "view",
      "type": "function"
    },
    {
      "inputs": [],
      "name": "DISABLE_ZK_CHECK",
      "outputs": [
        {
          "internalType": "bool",
          "name": "",
          "type": "bool"
        }
      ],
      "stateMutability": "view",
      "type": "function"
    },
    {
      "inputs": [],
      "name": "FIELD_SIZE",
      "outputs": [
        {
          "internalType": "uint256",
          "name": "",
          "type": "uint256"
        }
      ],
      "stateMutability": "view",
      "type": "function"
    },
    {
      "inputs": [],
      "name": "GHOST_START_COMMITMENT",
      "outputs": [
        {
          "internalType": "uint256",
          "name": "",
          "type": "uint256"
        }
      ],
      "stateMutability": "view",
      "type": "function"
    },
    {
      "inputs": [
        {
          "internalType": "uint256",
          "name": "",
          "type": "uint256"
        },
        {
          "internalType": "uint256",
          "name": "",
          "type": "uint256"
        }
      ],
      "name": "boardObjectives",
      "outputs": [
        {
          "internalType": "uint8",
          "name": "",
          "type": "uint8"
        }
      ],
      "stateMutability": "view",
      "type": "function"
    },
    {
      "inputs": [
        {
          "internalType": "uint256",
          "name": "",
          "type": "uint256"
        },
        {
          "internalType": "uint256",
          "name": "",
          "type": "uint256"
        }
      ],
      "name": "boardPieces",
      "outputs": [
        {
          "internalType": "uint8",
          "name": "",
          "type": "uint8"
        }
      ],
      "stateMutability": "view",
      "type": "function"
    },
    {
      "inputs": [],
      "name": "gameState",
      "outputs": [
        {
          "internalType": "enum GameState",
          "name": "",
          "type": "uint8"
        }
      ],
      "stateMutability": "view",
      "type": "function"
    },
    {
      "inputs": [
        {
          "internalType": "uint256",
          "name": "",
          "type": "uint256"
        }
      ],
      "name": "objectiveIds",
      "outputs": [
        {
          "internalType": "uint8",
          "name": "",
          "type": "uint8"
        }
      ],
      "stateMutability": "view",
      "type": "function"
    },
    {
      "inputs": [
        {
          "internalType": "uint8",
          "name": "",
          "type": "uint8"
        }
      ],
      "name": "objectives",
      "outputs": [
        {
          "internalType": "uint8",
          "name": "id",
          "type": "uint8"
        },
        {
          "internalType": "uint8",
          "name": "value",
          "type": "uint8"
        },
        {
          "internalType": "uint8",
          "name": "row",
          "type": "uint8"
        },
        {
          "internalType": "uint8",
          "name": "col",
          "type": "uint8"
        },
        {
          "internalType": "address",
          "name": "capturedBy",
          "type": "address"
        }
      ],
      "stateMutability": "view",
      "type": "function"
    },
    {
      "inputs": [
        {
          "internalType": "uint256",
          "name": "",
          "type": "uint256"
        }
      ],
      "name": "pieceIds",
      "outputs": [
        {
          "internalType": "uint8",
          "name": "",
          "type": "uint8"
        }
      ],
      "stateMutability": "view",
      "type": "function"
    },
    {
      "inputs": [
        {
          "internalType": "uint8",
          "name": "",
          "type": "uint8"
        }
      ],
      "name": "pieces",
      "outputs": [
        {
          "internalType": "uint8",
          "name": "id",
          "type": "uint8"
        },
        {
          "internalType": "enum PieceType",
          "name": "pieceType",
          "type": "uint8"
        },
        {
          "internalType": "address",
          "name": "owner",
          "type": "address"
        },
        {
          "internalType": "uint8",
          "name": "row",
          "type": "uint8"
        },
        {
          "internalType": "uint8",
          "name": "col",
          "type": "uint8"
        },
        {
          "internalType": "bool",
          "name": "dead",
          "type": "bool"
        },
        {
          "internalType": "uint256",
          "name": "commitment",
          "type": "uint256"
        }
      ],
      "stateMutability": "view",
      "type": "function"
    },
    {
      "inputs": [],
      "name": "player1",
      "outputs": [
        {
          "internalType": "address",
          "name": "",
          "type": "address"
        }
      ],
      "stateMutability": "view",
      "type": "function"
    },
    {
      "inputs": [],
      "name": "player1Score",
      "outputs": [
        {
          "internalType": "uint8",
          "name": "",
          "type": "uint8"
        }
      ],
      "stateMutability": "view",
      "type": "function"
    },
    {
      "inputs": [],
      "name": "player2",
      "outputs": [
        {
          "internalType": "address",
          "name": "",
          "type": "address"
        }
      ],
      "stateMutability": "view",
      "type": "function"
    },
    {
      "inputs": [],
      "name": "player2Score",
      "outputs": [
        {
          "internalType": "uint8",
          "name": "",
          "type": "uint8"
        }
      ],
      "stateMutability": "view",
      "type": "function"
    },
    {
      "inputs": [],
      "name": "turnNumber",
      "outputs": [
        {
          "internalType": "uint8",
          "name": "",
          "type": "uint8"
        }
      ],
      "stateMutability": "view",
      "type": "function"
    },
    {
      "inputs": [],
      "name": "getPieces",
      "outputs": [
        {
          "components": [
            {
              "internalType": "uint8",
              "name": "id",
              "type": "uint8"
            },
            {
              "internalType": "enum PieceType",
              "name": "pieceType",
              "type": "uint8"
            },
            {
              "internalType": "address",
              "name": "owner",
              "type": "address"
            },
            {
              "internalType": "uint8",
              "name": "row",
              "type": "uint8"
            },
            {
              "internalType": "uint8",
              "name": "col",
              "type": "uint8"
            },
            {
              "internalType": "bool",
              "name": "dead",
              "type": "bool"
            },
            {
              "internalType": "uint256",
              "name": "commitment",
              "type": "uint256"
            }
          ],
          "internalType": "struct Piece[]",
          "name": "ret",
          "type": "tuple[]"
        }
      ],
      "stateMutability": "view",
      "type": "function"
    },
    {
      "inputs": [],
      "name": "getObjectives",
      "outputs": [
        {
          "components": [
            {
              "internalType": "uint8",
              "name": "id",
              "type": "uint8"
            },
            {
              "internalType": "uint8",
              "name": "value",
              "type": "uint8"
            },
            {
              "internalType": "uint8",
              "name": "row",
              "type": "uint8"
            },
            {
              "internalType": "uint8",
              "name": "col",
              "type": "uint8"
            },
            {
              "internalType": "address",
              "name": "capturedBy",
              "type": "address"
            }
          ],
          "internalType": "struct Objective[]",
          "name": "ret",
          "type": "tuple[]"
        }
      ],
      "stateMutability": "view",
      "type": "function"
    },
    {
      "inputs": [
        {
          "internalType": "uint256",
          "name": "val1",
          "type": "uint256"
        },
        {
          "internalType": "uint256",
          "name": "val2",
          "type": "uint256"
        },
        {
          "internalType": "uint256",
          "name": "val3",
          "type": "uint256"
        }
      ],
      "name": "hashTriple",
      "outputs": [
        {
          "internalType": "uint256",
          "name": "",
          "type": "uint256"
        }
      ],
      "stateMutability": "pure",
      "type": "function"
    },
    {
      "inputs": [
        {
          "components": [
            {
              "internalType": "uint8",
              "name": "id",
              "type": "uint8"
            },
            {
              "internalType": "enum PieceType",
              "name": "pieceType",
              "type": "uint8"
            },
            {
              "internalType": "address",
              "name": "owner",
              "type": "address"
            },
            {
              "internalType": "uint8",
              "name": "row",
              "type": "uint8"
            },
            {
              "internalType": "uint8",
              "name": "col",
              "type": "uint8"
            },
            {
              "internalType": "bool",
              "name": "dead",
              "type": "bool"
            },
            {
              "internalType": "uint256",
              "name": "commitment",
              "type": "uint256"
            }
          ],
          "internalType": "struct Piece",
          "name": "piece",
          "type": "tuple"
        },
        {
          "internalType": "uint8",
          "name": "toRow",
          "type": "uint8"
        },
        {
          "internalType": "uint8",
          "name": "toCol",
          "type": "uint8"
        }
      ],
      "name": "isValidMove",
      "outputs": [
        {
          "internalType": "bool",
          "name": "",
          "type": "bool"
        }
      ],
      "stateMutability": "view",
      "type": "function"
    },
    {
      "inputs": [],
      "name": "gameShouldBeCompleted",
      "outputs": [
        {
          "internalType": "bool",
          "name": "",
          "type": "bool"
        }
      ],
      "stateMutability": "view",
      "type": "function"
    },
    {
      "inputs": [],
      "name": "joinGame",
      "outputs": [],
      "stateMutability": "nonpayable",
      "type": "function"
    },
    {
      "inputs": [
        {
          "internalType": "uint8",
          "name": "pieceId",
          "type": "uint8"
        },
        {
          "internalType": "uint8",
          "name": "toRow",
          "type": "uint8"
        },
        {
          "internalType": "uint8",
          "name": "toCol",
          "type": "uint8"
        }
      ],
      "name": "movePiece",
      "outputs": [],
      "stateMutability": "nonpayable",
      "type": "function"
    },
    {
      "inputs": [
        {
          "internalType": "uint256[2]",
          "name": "_a",
          "type": "uint256[2]"
        },
        {
          "internalType": "uint256[2][2]",
          "name": "_b",
          "type": "uint256[2][2]"
        },
        {
          "internalType": "uint256[2]",
          "name": "_c",
          "type": "uint256[2]"
        },
        {
          "internalType": "uint256[2]",
          "name": "_input",
          "type": "uint256[2]"
        },
        {
          "internalType": "uint8",
          "name": "pieceId",
          "type": "uint8"
        }
      ],
      "name": "moveGhost",
      "outputs": [],
      "stateMutability": "nonpayable",
      "type": "function"
    },
    {
      "inputs": [
        {
          "internalType": "uint8",
          "name": "pieceId",
          "type": "uint8"
        },
        {
          "internalType": "uint256",
          "name": "row",
          "type": "uint256"
        },
        {
          "internalType": "uint256",
          "name": "col",
          "type": "uint256"
        },
        {
          "internalType": "uint256",
          "name": "salt",
          "type": "uint256"
        }
      ],
      "name": "ghostAttack",
      "outputs": [],
      "stateMutability": "nonpayable",
      "type": "function"
    }
  ],
  "bytecode": "0x60806040523480156200001157600080fd5b5060405162005bfa38038062005bfa833981810160405281019062000037919062001926565b80601360006101000a81548160ff02191690831515021790555060008060016101000a81548160ff021916908360038111156200007057fe5b0217905550604051806101000160405280600160ff168152602001600260ff168152602001600360ff168152602001600460ff168152602001600560ff168152602001600660ff168152602001600760ff168152602001600860ff16815250600f906008620000e19291906200179a565b506040518060c00160405280600960ff168152602001600a60ff168152602001600b60ff168152602001600c60ff168152602001600d60ff168152602001600e60ff168152506011906006620001399291906200183b565b506040518060e00160405280600160ff168152602001600060028111156200015d57fe5b8152602001600073ffffffffffffffffffffffffffffffffffffffff168152602001600060ff168152602001600160ff168152602001600015158152602001600081525060106000600160ff16815260200190815260200160002060008201518160000160006101000a81548160ff021916908360ff16021790555060208201518160000160016101000a81548160ff02191690836002811115620001fe57fe5b021790555060408201518160000160026101000a81548173ffffffffffffffffffffffffffffffffffffffff021916908373ffffffffffffffffffffffffffffffffffffffff16021790555060608201518160000160166101000a81548160ff021916908360ff16021790555060808201518160000160176101000a81548160ff021916908360ff16021790555060a08201518160000160186101000a81548160ff02191690831515021790555060c08201518160010155905050600180600060078110620002c957fe5b01600160078110620002d757fe5b602091828204019190066101000a81548160ff021916908360ff1602179055506040518060e00160405280600260ff168152602001600160028111156200031a57fe5b8152602001600073ffffffffffffffffffffffffffffffffffffffff168152602001600060ff168152602001600360ff168152602001600015158152602001600081525060106000600260ff16815260200190815260200160002060008201518160000160006101000a81548160ff021916908360ff16021790555060208201518160000160016101000a81548160ff02191690836002811115620003bb57fe5b021790555060408201518160000160026101000a81548173ffffffffffffffffffffffffffffffffffffffff021916908373ffffffffffffffffffffffffffffffffffffffff16021790555060608201518160000160166101000a81548160ff021916908360ff16021790555060808201518160000160176101000a81548160ff021916908360ff16021790555060a08201518160000160186101000a81548160ff02191690831515021790555060c08201518160010155905050600260016000600781106200048757fe5b016003600781106200049557fe5b602091828204019190066101000a81548160ff021916908360ff1602179055506040518060e00160405280600360ff16815260200160006002811115620004d857fe5b8152602001600073ffffffffffffffffffffffffffffffffffffffff168152602001600060ff168152602001600560ff168152602001600015158152602001600081525060106000600360ff16815260200190815260200160002060008201518160000160006101000a81548160ff021916908360ff16021790555060208201518160000160016101000a81548160ff021916908360028111156200057957fe5b021790555060408201518160000160026101000a81548173ffffffffffffffffffffffffffffffffffffffff021916908373ffffffffffffffffffffffffffffffffffffffff16021790555060608201518160000160166101000a81548160ff021916908360ff16021790555060808201518160000160176101000a81548160ff021916908360ff16021790555060a08201518160000160186101000a81548160ff02191690831515021790555060c08201518160010155905050600360016000600781106200064557fe5b016005600781106200065357fe5b602091828204019190066101000a81548160ff021916908360ff1602179055506040518060e00160405280600460ff1681526020016002808111156200069557fe5b8152602001600073ffffffffffffffffffffffffffffffffffffffff168152602001600060ff168152602001600060ff1681526020016000151581526020017f104ddaefd01036b8465b22025720f944733190135fd4ed564186bc3cfcaec72281525060106000600460ff16815260200190815260200160002060008201518160000160006101000a81548160ff021916908360ff16021790555060208201518160000160016101000a81548160ff021916908360028111156200075557fe5b021790555060408201518160000160026101000a81548173ffffffffffffffffffffffffffffffffffffffff021916908373ffffffffffffffffffffffffffffffffffffffff16021790555060608201518160000160166101000a81548160ff021916908360ff16021790555060808201518160000160176101000a81548160ff021916908360ff16021790555060a08201518160000160186101000a81548160ff02191690831515021790555060c082015181600101559050506040518060e00160405280600560ff168152602001600060028111156200083357fe5b8152602001600073ffffffffffffffffffffffffffffffffffffffff168152602001600660ff168152602001600160ff168152602001600015158152602001600081525060106000600560ff16815260200190815260200160002060008201518160000160006101000a81548160ff021916908360ff16021790555060208201518160000160016101000a81548160ff02191690836002811115620008d457fe5b021790555060408201518160000160026101000a81548173ffffffffffffffffffffffffffffffffffffffff021916908373ffffffffffffffffffffffffffffffffffffffff16021790555060608201518160000160166101000a81548160ff021916908360ff16021790555060808201518160000160176101000a81548160ff021916908360ff16021790555060a08201518160000160186101000a81548160ff02191690831515021790555060c0820151816001015590505060056001600660078110620009a057fe5b01600160078110620009ae57fe5b602091828204019190066101000a81548160ff021916908360ff1602179055506040518060e00160405280600660ff16815260200160016002811115620009f157fe5b8152602001600073ffffffffffffffffffffffffffffffffffffffff168152602001600660ff168152602001600360ff168152602001600015158152602001600081525060106000600660ff16815260200190815260200160002060008201518160000160006101000a81548160ff021916908360ff16021790555060208201518160000160016101000a81548160ff0219169083600281111562000a9257fe5b021790555060408201518160000160026101000a81548173ffffffffffffffffffffffffffffffffffffffff021916908373ffffffffffffffffffffffffffffffffffffffff16021790555060608201518160000160166101000a81548160ff021916908360ff16021790555060808201518160000160176101000a81548160ff021916908360ff16021790555060a08201518160000160186101000a81548160ff02191690831515021790555060c082015181600101559050506006600160066007811062000b5e57fe5b0160036007811062000b6c57fe5b602091828204019190066101000a81548160ff021916908360ff1602179055506040518060e00160405280600760ff1681526020016000600281111562000baf57fe5b8152602001600073ffffffffffffffffffffffffffffffffffffffff168152602001600660ff168152602001600560ff168152602001600015158152602001600081525060106000600760ff16815260200190815260200160002060008201518160000160006101000a81548160ff021916908360ff16021790555060208201518160000160016101000a81548160ff0219169083600281111562000c5057fe5b021790555060408201518160000160026101000a81548173ffffffffffffffffffffffffffffffffffffffff021916908373ffffffffffffffffffffffffffffffffffffffff16021790555060608201518160000160166101000a81548160ff021916908360ff16021790555060808201518160000160176101000a81548160ff021916908360ff16021790555060a08201518160000160186101000a81548160ff02191690831515021790555060c082015181600101559050506007600160066007811062000d1c57fe5b0160056007811062000d2a57fe5b602091828204019190066101000a81548160ff021916908360ff1602179055506040518060e00160405280600860ff16815260200160028081111562000d6c57fe5b8152602001600073ffffffffffffffffffffffffffffffffffffffff168152602001600660ff168152602001600060ff1681526020016000151581526020017f104ddaefd01036b8465b22025720f944733190135fd4ed564186bc3cfcaec72281525060106000600860ff16815260200190815260200160002060008201518160000160006101000a81548160ff021916908360ff16021790555060208201518160000160016101000a81548160ff0219169083600281111562000e2c57fe5b021790555060408201518160000160026101000a81548173ffffffffffffffffffffffffffffffffffffffff021916908373ffffffffffffffffffffffffffffffffffffffff16021790555060608201518160000160166101000a81548160ff021916908360ff16021790555060808201518160000160176101000a81548160ff021916908360ff16021790555060a08201518160000160186101000a81548160ff02191690831515021790555060c082015181600101559050506040518060a00160405280600960ff168152602001600560ff168152602001600360ff168152602001600060ff168152602001600073ffffffffffffffffffffffffffffffffffffffff1681525060126000600960ff16815260200190815260200160002060008201518160000160006101000a81548160ff021916908360ff16021790555060208201518160000160016101000a81548160ff021916908360ff16021790555060408201518160000160026101000a81548160ff021916908360ff16021790555060608201518160000160036101000a81548160ff021916908360ff16021790555060808201518160000160046101000a81548173ffffffffffffffffffffffffffffffffffffffff021916908373ffffffffffffffffffffffffffffffffffffffff160217905550905050600960086003600781106200102b57fe5b016000600781106200103957fe5b602091828204019190066101000a81548160ff021916908360ff1602179055506040518060a00160405280600a60ff168152602001600560ff168152602001600260ff168152602001600260ff168152602001600073ffffffffffffffffffffffffffffffffffffffff1681525060126000600a60ff16815260200190815260200160002060008201518160000160006101000a81548160ff021916908360ff16021790555060208201518160000160016101000a81548160ff021916908360ff16021790555060408201518160000160026101000a81548160ff021916908360ff16021790555060608201518160000160036101000a81548160ff021916908360ff16021790555060808201518160000160046101000a81548173ffffffffffffffffffffffffffffffffffffffff021916908373ffffffffffffffffffffffffffffffffffffffff160217905550905050600a60086002600781106200119d57fe5b01600260078110620011ab57fe5b602091828204019190066101000a81548160ff021916908360ff1602179055506040518060a00160405280600b60ff168152602001600a60ff168152602001600460ff168152602001600260ff168152602001600073ffffffffffffffffffffffffffffffffffffffff1681525060126000600b60ff16815260200190815260200160002060008201518160000160006101000a81548160ff021916908360ff16021790555060208201518160000160016101000a81548160ff021916908360ff16021790555060408201518160000160026101000a81548160ff021916908360ff16021790555060608201518160000160036101000a81548160ff021916908360ff16021790555060808201518160000160046101000a81548173ffffffffffffffffffffffffffffffffffffffff021916908373ffffffffffffffffffffffffffffffffffffffff160217905550905050600b60086004600781106200130f57fe5b016002600781106200131d57fe5b602091828204019190066101000a81548160ff021916908360ff1602179055506040518060a00160405280600c60ff168152602001600a60ff168152602001600260ff168152602001600460ff168152602001600073ffffffffffffffffffffffffffffffffffffffff1681525060126000600c60ff16815260200190815260200160002060008201518160000160006101000a81548160ff021916908360ff16021790555060208201518160000160016101000a81548160ff021916908360ff16021790555060408201518160000160026101000a81548160ff021916908360ff16021790555060608201518160000160036101000a81548160ff021916908360ff16021790555060808201518160000160046101000a81548173ffffffffffffffffffffffffffffffffffffffff021916908373ffffffffffffffffffffffffffffffffffffffff160217905550905050600c60086002600781106200148157fe5b016004600781106200148f57fe5b602091828204019190066101000a81548160ff021916908360ff1602179055506040518060a00160405280600d60ff168152602001600560ff168152602001600460ff168152602001600460ff168152602001600073ffffffffffffffffffffffffffffffffffffffff1681525060126000600d60ff16815260200190815260200160002060008201518160000160006101000a81548160ff021916908360ff16021790555060208201518160000160016101000a81548160ff021916908360ff16021790555060408201518160000160026101000a81548160ff021916908360ff16021790555060608201518160000160036101000a81548160ff021916908360ff16021790555060808201518160000160046101000a81548173ffffffffffffffffffffffffffffffffffffffff021916908373ffffffffffffffffffffffffffffffffffffffff160217905550905050600d6008600460078110620015f357fe5b016004600781106200160157fe5b602091828204019190066101000a81548160ff021916908360ff1602179055506040518060a00160405280600e60ff168152602001600560ff168152602001600360ff168152602001600660ff168152602001600073ffffffffffffffffffffffffffffffffffffffff1681525060126000600e60ff16815260200190815260200160002060008201518160000160006101000a81548160ff021916908360ff16021790555060208201518160000160016101000a81548160ff021916908360ff16021790555060408201518160000160026101000a81548160ff021916908360ff16021790555060608201518160000160036101000a81548160ff021916908360ff16021790555060808201518160000160046101000a81548173ffffffffffffffffffffffffffffffffffffffff021916908373ffffffffffffffffffffffffffffffffffffffff160217905550905050600e60086003600781106200176557fe5b016006600781106200177357fe5b602091828204019190066101000a81548160ff021916908360ff1602179055505062001978565b826008601f01602090048101928215620018285791602002820160005b83821115620017f757835183826101000a81548160ff021916908360ff1602179055509260200192600101602081600001049283019260010302620017b7565b8015620018265782816101000a81549060ff0219169055600101602081600001049283019260010302620017f7565b505b509050620018379190620018dc565b5090565b826006601f01602090048101928215620018c95791602002820160005b838211156200189857835183826101000a81548160ff021916908360ff160217905550926020019260010160208160000104928301926001030262001858565b8015620018c75782816101000a81549060ff021916905560010160208160000104928301926001030262001898565b505b509050620018d89190620018dc565b5090565b6200190c91905b808211156200190857600081816101000a81549060ff021916905550600101620018e3565b5090565b90565b60008151905062001920816200195e565b92915050565b6000602082840312156200193957600080fd5b600062001949848285016200190f565b91505092915050565b60008115159050919050565b620019698162001952565b81146200197557600080fd5b50565b61427280620019886000396000f3fe608060405234801561001057600080fd5b50600436106101725760003560e01c80638af9d562116100de578063cf615f6c11610097578063d30895e411610071578063d30895e414610483578063d4f77b1c146104a1578063dc4a3e95146104ab578063e645206a146104c957610172565b8063cf615f6c14610417578063cfecc6de14610435578063d1f9c24d1461046557610172565b80638af9d5621461034157806396d579481461035f578063acbc1a911461037b578063b022824614610399578063bd91fdb4146103c9578063c6204ee2146103e757610172565b8063562fb42711610130578063562fb427146102795780635700401e1461029557806359a5f12d146102b35780635c3beb32146102d15780637174f2c0146103055780637e15247d1461032357610172565b80621c7f2214610177578063210851b5146101a75780632c784f32146101d75780633fb7388e1461020d578063414a37ba1461023d57806351df541c1461025b575b600080fd5b610191600480360381019061018c919061329f565b6104e5565b60405161019e9190613e47565b60405180910390f35b6101c160048036038101906101bc91906131ad565b61073d565b6040516101ce9190613c51565b60405180910390f35b6101f160048036038101906101ec91906132ee565b610a46565b6040516102049796959493929190613eb4565b60405180910390f35b61022760048036038101906102229190613227565b610ae9565b6040516102349190613e99565b60405180910390f35b610245610b1f565b6040516102529190613e47565b60405180910390f35b610263610b43565b6040516102709190613c51565b60405180910390f35b610293600480360381019061028e919061310a565b610cb6565b005b61029d611116565b6040516102aa9190613e99565b60405180910390f35b6102bb611128565b6040516102c89190613b67565b60405180910390f35b6102eb60048036038101906102e691906132ee565b61114e565b6040516102fc959493929190613f23565b60405180910390f35b61030d6111d8565b60405161031a9190613e99565b60405180910390f35b61032b6111ea565b6040516103389190613bc6565b60405180910390f35b610349611394565b6040516103569190613c51565b60405180910390f35b61037960048036038101906103749190613317565b6113a7565b005b6103836118f7565b6040516103909190613e47565b60405180910390f35b6103b360048036038101906103ae9190613227565b61191b565b6040516103c09190613e99565b60405180910390f35b6103d1611951565b6040516103de9190613e99565b60405180910390f35b61040160048036038101906103fc91906131fe565b611964565b60405161040e9190613e99565b60405180910390f35b61041f61198b565b60405161042c9190613be8565b60405180910390f35b61044f600480360381019061044a91906131fe565b611b6a565b60405161045c9190613e99565b60405180910390f35b61046d611b91565b60405161047a9190613c6c565b60405180910390f35b61048b611ba4565b6040516104989190613b67565b60405180910390f35b6104a9611bca565b005b6104b361203e565b6040516104c09190613e47565b60405180910390f35b6104e360048036038101906104de919061337a565b612043565b005b6000806000905060008090507f30644e72e131a029b85045b68181585d2833e84879b9709143e1f593f00000018061051957fe5b868308915073__Hasher________________________________633f1a1187838360006040518463ffffffff1660e01b815260040161055a93929190613e62565b604080518083038186803b15801561057157600080fd5b505af4158015610585573d6000803e3d6000fd5b505050506040513d601f19601f820116820180604052508101906105a99190613263565b80925081935050507f30644e72e131a029b85045b68181585d2833e84879b9709143e1f593f0000001806105d957fe5b858308915073__Hasher________________________________633f1a1187838360006040518463ffffffff1660e01b815260040161061a93929190613e62565b604080518083038186803b15801561063157600080fd5b505af4158015610645573d6000803e3d6000fd5b505050506040513d601f19601f820116820180604052508101906106699190613263565b80925081935050507f30644e72e131a029b85045b68181585d2833e84879b9709143e1f593f00000018061069957fe5b848308915073__Hasher________________________________633f1a1187838360006040518463ffffffff1660e01b81526004016106da93929190613e62565b604080518083038186803b1580156106f157600080fd5b505af4158015610705573d6000803e3d6000fd5b505050506040513d601f19601f820116820180604052508101906107299190613263565b809250819350505081925050509392505050565b600060078360ff16101580610756575060078260ff1610155b156107645760009050610a3f565b600060018460ff166007811061077657fe5b018360ff166007811061078557fe5b602091828204019190069054906101000a900460ff1660ff1611156107ad5760009050610a3f565b6002808111156107b957fe5b846020015160028111156107c957fe5b14156107d85760009050610a3f565b600060028111156107e557fe5b846020015160028111156107f557fe5b14156108db578260ff16846060015160ff1614801561081d57508160ff16846080015160ff16145b1561082b5760009050610a3f565b60008360ff16856060015160ff1603905060018160010b138061087057507fffffffffffffffffffffffffffffffffffffffffffffffffffffffffffffffff8160010b125b1561087f576000915050610a3f565b60008360ff16866080015160ff1603905060018160010b13806108c457507fffffffffffffffffffffffffffffffffffffffffffffffffffffffffffffffff8160010b125b156108d457600092505050610a3f565b5050610a3a565b600160028111156108e857fe5b846020015160028111156108f857fe5b1415610a395760008360ff16856060015160ff1603905060008360ff16866080015160ff1603905060028260010b148061095457507ffffffffffffffffffffffffffffffffffffffffffffffffffffffffffffffffe8260010b145b156109a55760018160010b1415801561099057507fffffffffffffffffffffffffffffffffffffffffffffffffffffffffffffffff8160010b14155b156109a057600092505050610a3f565b610a36565b60018260010b14806109d957507fffffffffffffffffffffffffffffffffffffffffffffffffffffffffffffffff8260010b145b15610a2a5760028160010b14158015610a1557507ffffffffffffffffffffffffffffffffffffffffffffffffffffffffffffffffe8160010b14155b15610a2557600092505050610a3f565b610a35565b600092505050610a3f565b5b50505b5b600190505b9392505050565b60106020528060005260406000206000915090508060000160009054906101000a900460ff16908060000160019054906101000a900460ff16908060000160029054906101000a900473ffffffffffffffffffffffffffffffffffffffff16908060000160169054906101000a900460ff16908060000160179054906101000a900460ff16908060000160189054906101000a900460ff16908060010154905087565b60018260078110610af657fe5b018160078110610b0257fe5b60209182820401919006915091509054906101000a900460ff1681565b7f30644e72e131a029b85045b68181585d2833e84879b9709143e1f593f000000181565b6000806001905060008090505b60088160ff161015610bc55760106000600f8360ff1660088110610b7057fe5b602091828204019190069054906101000a900460ff1660ff1660ff16815260200190815260200160002060000160189054906101000a900460ff16610bb85760009150610bc5565b8080600101915050610b50565b508015610bd6576001915050610cb3565b60006001905060008090505b60068160ff161015610c9a57600073ffffffffffffffffffffffffffffffffffffffff166012600060118460ff1660068110610c1a57fe5b602091828204019190069054906101000a900460ff1660ff1660ff16815260200190815260200160002060000160049054906101000a900473ffffffffffffffffffffffffffffffffffffffff1673ffffffffffffffffffffffffffffffffffffffff161415610c8d5760009150610c9a565b8080600101915050610be2565b508015610cac57600192505050610cb3565b6000925050505b90565b600380811115610cc257fe5b600060019054906101000a900460ff166003811115610cdd57fe5b1415610d1e576040517f08c379a0000000000000000000000000000000000000000000000000000000008152600401610d1590613d47565b60405180910390fd5b601360019054906101000a900473ffffffffffffffffffffffffffffffffffffffff1673ffffffffffffffffffffffffffffffffffffffff163373ffffffffffffffffffffffffffffffffffffffff161415610ddd5760016003811115610d8157fe5b600060019054906101000a900460ff166003811115610d9c57fe5b14610ddc576040517f08c379a0000000000000000000000000000000000000000000000000000000008152600401610dd390613e27565b60405180910390fd5b5b601460009054906101000a900473ffffffffffffffffffffffffffffffffffffffff1673ffffffffffffffffffffffffffffffffffffffff163373ffffffffffffffffffffffffffffffffffffffff161415610e9c5760026003811115610e4057fe5b600060019054906101000a900460ff166003811115610e5b57fe5b14610e9b576040517f08c379a0000000000000000000000000000000000000000000000000000000008152600401610e9290613d67565b60405180910390fd5b5b6000601060008360ff1660ff1681526020019081526020016000209050600280811115610ec557fe5b8160000160019054906101000a900460ff166002811115610ee257fe5b14610f22576040517f08c379a0000000000000000000000000000000000000000000000000000000008152600401610f1990613d27565b60405180910390fd5b3373ffffffffffffffffffffffffffffffffffffffff168160000160029054906101000a900473ffffffffffffffffffffffffffffffffffffffff1673ffffffffffffffffffffffffffffffffffffffff1614610fb4576040517f08c379a0000000000000000000000000000000000000000000000000000000008152600401610fab90613e07565b60405180910390fd5b82600060028110610fc157fe5b602002015181600101541461100b576040517f08c379a000000000000000000000000000000000000000000000000000000000815260040161100290613da7565b60405180910390fd5b601360009054906101000a900460ff166110ec5773__Verifier______________________________63ab475307878787876040518563ffffffff1660e01b815260040161105c9493929190613c0a565b60206040518083038186803b15801561107457600080fd5b505af4158015611088573d6000803e3d6000fd5b505050506040513d601f19601f820116820180604052508101906110ac9190613184565b6110eb576040517f08c379a00000000000000000000000000000000000000000000000000000000081526004016110e290613cc7565b60405180910390fd5b5b826001600281106110f957fe5b6020020151816001018190555061110e6127da565b505050505050565b6000809054906101000a900460ff1681565b601460009054906101000a900473ffffffffffffffffffffffffffffffffffffffff1681565b60126020528060005260406000206000915090508060000160009054906101000a900460ff16908060000160019054906101000a900460ff16908060000160029054906101000a900460ff16908060000160039054906101000a900460ff16908060000160049054906101000a900473ffffffffffffffffffffffffffffffffffffffff16905085565b6014809054906101000a900460ff1681565b6060600667ffffffffffffffff8111801561120457600080fd5b5060405190808252806020026020018201604052801561123e57816020015b61122b612e25565b8152602001906001900390816112235790505b50905060008090505b60068160ff16101561138d576012600060118360ff166006811061126757fe5b602091828204019190069054906101000a900460ff1660ff1660ff1681526020019081526020016000206040518060a00160405290816000820160009054906101000a900460ff1660ff1660ff1681526020016000820160019054906101000a900460ff1660ff1660ff1681526020016000820160029054906101000a900460ff1660ff1660ff1681526020016000820160039054906101000a900460ff1660ff1660ff1681526020016000820160049054906101000a900473ffffffffffffffffffffffffffffffffffffffff1673ffffffffffffffffffffffffffffffffffffffff1673ffffffffffffffffffffffffffffffffffffffff1681525050828260ff168151811061137557fe5b60200260200101819052508080600101915050611247565b5080905090565b601360009054906101000a900460ff1681565b6003808111156113b357fe5b600060019054906101000a900460ff1660038111156113ce57fe5b141561140f576040517f08c379a000000000000000000000000000000000000000000000000000000000815260040161140690613d47565b60405180910390fd5b601360019054906101000a900473ffffffffffffffffffffffffffffffffffffffff1673ffffffffffffffffffffffffffffffffffffffff163373ffffffffffffffffffffffffffffffffffffffff1614156114ce576001600381111561147257fe5b600060019054906101000a900460ff16600381111561148d57fe5b146114cd576040517f08c379a00000000000000000000000000000000000000000000000000000000081526004016114c490613e27565b60405180910390fd5b5b601460009054906101000a900473ffffffffffffffffffffffffffffffffffffffff1673ffffffffffffffffffffffffffffffffffffffff163373ffffffffffffffffffffffffffffffffffffffff16141561158d576002600381111561153157fe5b600060019054906101000a900460ff16600381111561154c57fe5b1461158c576040517f08c379a000000000000000000000000000000000000000000000000000000000815260040161158390613d67565b60405180910390fd5b5b60008060009054906101000a900460ff1660ff16116115e1576040517f08c379a00000000000000000000000000000000000000000000000000000000081526004016115d890613dc7565b60405180910390fd5b6000601060008660ff1660ff168152602001908152602001600020905060028081111561160a57fe5b8160000160019054906101000a900460ff16600281111561162757fe5b14611667576040517f08c379a000000000000000000000000000000000000000000000000000000000815260040161165e90613d27565b60405180910390fd5b3373ffffffffffffffffffffffffffffffffffffffff168160000160029054906101000a900473ffffffffffffffffffffffffffffffffffffffff1673ffffffffffffffffffffffffffffffffffffffff16146116f9576040517f08c379a00000000000000000000000000000000000000000000000000000000081526004016116f090613e07565b60405180910390fd5b80600101546117098585856104e5565b14611749576040517f08c379a000000000000000000000000000000000000000000000000000000000815260040161174090613d87565b60405180910390fd5b6000601060006001876007811061175c57fe5b01866007811061176857fe5b602091828204019190069054906101000a900460ff1660ff1660ff16815260200190815260200160002090506000601360019054906101000a900473ffffffffffffffffffffffffffffffffffffffff169050601360019054906101000a900473ffffffffffffffffffffffffffffffffffffffff1673ffffffffffffffffffffffffffffffffffffffff163373ffffffffffffffffffffffffffffffffffffffff16141561183757601460009054906101000a900473ffffffffffffffffffffffffffffffffffffffff1690505b8073ffffffffffffffffffffffffffffffffffffffff168260000160029054906101000a900473ffffffffffffffffffffffffffffffffffffffff1673ffffffffffffffffffffffffffffffffffffffff16146118c9576040517f08c379a00000000000000000000000000000000000000000000000000000000081526004016118c090613d07565b60405180910390fd5b60018260000160186101000a81548160ff0219169083151502179055506118ee6127da565b50505050505050565b7f104ddaefd01036b8465b22025720f944733190135fd4ed564186bc3cfcaec72281565b6008826007811061192857fe5b01816007811061193457fe5b60209182820401919006915091509054906101000a900460ff1681565b601460159054906101000a900460ff1681565b6011816006811061197157fe5b60209182820401919006915054906101000a900460ff1681565b6060600867ffffffffffffffff811180156119a557600080fd5b506040519080825280602002602001820160405280156119df57816020015b6119cc612e76565b8152602001906001900390816119c45790505b50905060008090505b60088160ff161015611b635760106000600f8360ff1660088110611a0857fe5b602091828204019190069054906101000a900460ff1660ff1660ff1681526020019081526020016000206040518060e00160405290816000820160009054906101000a900460ff1660ff1660ff1681526020016000820160019054906101000a900460ff166002811115611a7857fe5b6002811115611a8357fe5b81526020016000820160029054906101000a900473ffffffffffffffffffffffffffffffffffffffff1673ffffffffffffffffffffffffffffffffffffffff1673ffffffffffffffffffffffffffffffffffffffff1681526020016000820160169054906101000a900460ff1660ff1660ff1681526020016000820160179054906101000a900460ff1660ff1660ff1681526020016000820160189054906101000a900460ff16151515158152602001600182015481525050828260ff1681518110611b4b57fe5b602002602001018190525080806001019150506119e8565b5080905090565b600f8160088110611b7757fe5b60209182820401919006915054906101000a900460ff1681565b600060019054906101000a900460ff1681565b601360019054906101000a900473ffffffffffffffffffffffffffffffffffffffff1681565b60006003811115611bd757fe5b600060019054906101000a900460ff166003811115611bf257fe5b14611c32576040517f08c379a0000000000000000000000000000000000000000000000000000000008152600401611c2990613de7565b60405180910390fd5b600073ffffffffffffffffffffffffffffffffffffffff16601360019054906101000a900473ffffffffffffffffffffffffffffffffffffffff1673ffffffffffffffffffffffffffffffffffffffff161415611ccf5733601360016101000a81548173ffffffffffffffffffffffffffffffffffffffff021916908373ffffffffffffffffffffffffffffffffffffffff16021790555061203c565b601360019054906101000a900473ffffffffffffffffffffffffffffffffffffffff1673ffffffffffffffffffffffffffffffffffffffff163373ffffffffffffffffffffffffffffffffffffffff161415611d60576040517f08c379a0000000000000000000000000000000000000000000000000000000008152600401611d5790613ca7565b60405180910390fd5b600060024281611d6c57fe5b061415611db95733601460006101000a81548173ffffffffffffffffffffffffffffffffffffffff021916908373ffffffffffffffffffffffffffffffffffffffff160217905550611e5e565b601360019054906101000a900473ffffffffffffffffffffffffffffffffffffffff16601460006101000a81548173ffffffffffffffffffffffffffffffffffffffff021916908373ffffffffffffffffffffffffffffffffffffffff16021790555033601360016101000a81548173ffffffffffffffffffffffffffffffffffffffff021916908373ffffffffffffffffffffffffffffffffffffffff1602179055505b6000600190505b60058160ff161015611efb57601360019054906101000a900473ffffffffffffffffffffffffffffffffffffffff16601060008360ff1660ff16815260200190815260200160002060000160026101000a81548173ffffffffffffffffffffffffffffffffffffffff021916908373ffffffffffffffffffffffffffffffffffffffff1602179055508080600101915050611e65565b506000600590505b60098160ff161015611f9957601460009054906101000a900473ffffffffffffffffffffffffffffffffffffffff16601060008360ff1660ff16815260200190815260200160002060000160026101000a81548173ffffffffffffffffffffffffffffffffffffffff021916908373ffffffffffffffffffffffffffffffffffffffff1602179055508080600101915050611f03565b506001600060016101000a81548160ff02191690836003811115611fb957fe5b02179055507f8fd707874eb940598510258c64cad23fd35fe8c85c5c38e8782fac2cc887fb6e601360019054906101000a900473ffffffffffffffffffffffffffffffffffffffff16601460009054906101000a900473ffffffffffffffffffffffffffffffffffffffff16604051612033929190613b9d565b60405180910390a15b565b600781565b60038081111561204f57fe5b600060019054906101000a900460ff16600381111561206a57fe5b14156120ab576040517f08c379a00000000000000000000000000000000000000000000000000000000081526004016120a290613d47565b60405180910390fd5b601360019054906101000a900473ffffffffffffffffffffffffffffffffffffffff1673ffffffffffffffffffffffffffffffffffffffff163373ffffffffffffffffffffffffffffffffffffffff16141561216a576001600381111561210e57fe5b600060019054906101000a900460ff16600381111561212957fe5b14612169576040517f08c379a000000000000000000000000000000000000000000000000000000000815260040161216090613e27565b60405180910390fd5b5b601460009054906101000a900473ffffffffffffffffffffffffffffffffffffffff1673ffffffffffffffffffffffffffffffffffffffff163373ffffffffffffffffffffffffffffffffffffffff16141561222957600260038111156121cd57fe5b600060019054906101000a900460ff1660038111156121e857fe5b14612228576040517f08c379a000000000000000000000000000000000000000000000000000000000815260040161221f90613d67565b60405180910390fd5b5b60008060009054906101000a900460ff1660ff161161227d576040517f08c379a000000000000000000000000000000000000000000000000000000000815260040161227490613dc7565b60405180910390fd5b6000601060008560ff1660ff16815260200190815260200160002090503373ffffffffffffffffffffffffffffffffffffffff168160000160029054906101000a900473ffffffffffffffffffffffffffffffffffffffff1673ffffffffffffffffffffffffffffffffffffffff161461232c576040517f08c379a000000000000000000000000000000000000000000000000000000000815260040161232390613e07565b60405180910390fd5b8060000160189054906101000a900460ff161561237e576040517f08c379a000000000000000000000000000000000000000000000000000000000815260040161237590613c87565b60405180910390fd5b612493816040518060e00160405290816000820160009054906101000a900460ff1660ff1660ff1681526020016000820160019054906101000a900460ff1660028111156123c857fe5b60028111156123d357fe5b81526020016000820160029054906101000a900473ffffffffffffffffffffffffffffffffffffffff1673ffffffffffffffffffffffffffffffffffffffff1673ffffffffffffffffffffffffffffffffffffffff1681526020016000820160169054906101000a900460ff1660ff1660ff1681526020016000820160179054906101000a900460ff1660ff1660ff1681526020016000820160189054906101000a900460ff16151515158152602001600182015481525050848461073d565b6124d2576040517f08c379a00000000000000000000000000000000000000000000000000000000081526004016124c990613ce7565b60405180910390fd5b600060018260000160169054906101000a900460ff1660ff16600781106124f557fe5b018260000160179054906101000a900460ff1660ff166007811061251557fe5b602091828204019190066101000a81548160ff021916908360ff1602179055508060000160009054906101000a900460ff1660018460ff166007811061255757fe5b018360ff166007811061256657fe5b602091828204019190066101000a81548160ff021916908360ff160217905550828160000160166101000a81548160ff021916908360ff160217905550818160000160176101000a81548160ff021916908360ff16021790555060006012600060088660ff16600781106125d657fe5b018560ff16600781106125e557fe5b602091828204019190069054906101000a900460ff1660ff1660ff16815260200190815260200160002060000160019054906101000a900460ff1660ff161180156126cc5750600073ffffffffffffffffffffffffffffffffffffffff166012600060088660ff166007811061265757fe5b018560ff166007811061266657fe5b602091828204019190069054906101000a900460ff1660ff1660ff16815260200190815260200160002060000160049054906101000a900473ffffffffffffffffffffffffffffffffffffffff1673ffffffffffffffffffffffffffffffffffffffff16145b156127cc57601360019054906101000a900473ffffffffffffffffffffffffffffffffffffffff1673ffffffffffffffffffffffffffffffffffffffff163373ffffffffffffffffffffffffffffffffffffffff16141561277b5760088360ff166007811061273757fe5b018260ff166007811061274657fe5b602091828204019190069054906101000a900460ff16601460166101000a81548160ff021916908360ff1602179055506127cb565b60088360ff166007811061278b57fe5b018260ff166007811061279a57fe5b602091828204019190069054906101000a900460ff16601460176101000a81548160ff021916908360ff1602179055505b5b6127d46127da565b50505050565b601360019054906101000a900473ffffffffffffffffffffffffffffffffffffffff1673ffffffffffffffffffffffffffffffffffffffff163373ffffffffffffffffffffffffffffffffffffffff161415612ac957600060126000601460179054906101000a900460ff1660ff1660ff168152602001908152602001600020905060008160000160019054906101000a900460ff1660ff161180156128d05750600073ffffffffffffffffffffffffffffffffffffffff168160000160049054906101000a900473ffffffffffffffffffffffffffffffffffffffff1673ffffffffffffffffffffffffffffffffffffffff16145b15612a835760006010600060018460000160029054906101000a900460ff1660ff16600781106128fc57fe5b018460000160039054906101000a900460ff1660ff166007811061291c57fe5b602091828204019190069054906101000a900460ff1660ff1660ff1681526020019081526020016000209050601460009054906101000a900473ffffffffffffffffffffffffffffffffffffffff1673ffffffffffffffffffffffffffffffffffffffff168160000160029054906101000a900473ffffffffffffffffffffffffffffffffffffffff1673ffffffffffffffffffffffffffffffffffffffff161480156129d857508060000160189054906101000a900460ff16155b15612a8157601460009054906101000a900473ffffffffffffffffffffffffffffffffffffffff168260000160046101000a81548173ffffffffffffffffffffffffffffffffffffffff021916908373ffffffffffffffffffffffffffffffffffffffff1602179055508160000160019054906101000a900460ff16601460158282829054906101000a900460ff160192506101000a81548160ff021916908360ff1602179055505b505b6000601460176101000a81548160ff021916908360ff1602179055506002600060016101000a81548160ff02191690836003811115612abe57fe5b021790555050612d8e565b600060126000601460169054906101000a900460ff1660ff1660ff168152602001908152602001600020905060008160000160019054906101000a900460ff1660ff16118015612b695750600073ffffffffffffffffffffffffffffffffffffffff168160000160049054906101000a900473ffffffffffffffffffffffffffffffffffffffff1673ffffffffffffffffffffffffffffffffffffffff16145b15612d1b5760006010600060018460000160029054906101000a900460ff1660ff1660078110612b9557fe5b018460000160039054906101000a900460ff1660ff1660078110612bb557fe5b602091828204019190069054906101000a900460ff1660ff1660ff1681526020019081526020016000209050601360019054906101000a900473ffffffffffffffffffffffffffffffffffffffff1673ffffffffffffffffffffffffffffffffffffffff168160000160029054906101000a900473ffffffffffffffffffffffffffffffffffffffff1673ffffffffffffffffffffffffffffffffffffffff16148015612c7157508060000160189054906101000a900460ff16155b15612d1957601360019054906101000a900473ffffffffffffffffffffffffffffffffffffffff168260000160046101000a81548173ffffffffffffffffffffffffffffffffffffffff021916908373ffffffffffffffffffffffffffffffffffffffff1602179055508160000160019054906101000a900460ff166014808282829054906101000a900460ff160192506101000a81548160ff021916908360ff1602179055505b505b6000601460166101000a81548160ff021916908360ff16021790555060008081819054906101000a900460ff168092919060010191906101000a81548160ff021916908360ff160217905550506001600060016101000a81548160ff02191690836003811115612d8757fe5b0217905550505b7f8eaa9f09cc5e3b56163bc8d93f99b4299c7172f83d51d1448e8d9a3dc6d1a10133604051612dbd9190613b82565b60405180910390a1612dcd610b43565b15612e23576003600060016101000a81548160ff02191690836003811115612df157fe5b02179055507fb537cbcadc098cfedf5a04ef7e68a8554b55f7e45bfdaca1cbc51a686ef65f4860405160405180910390a15b565b6040518060a00160405280600060ff168152602001600060ff168152602001600060ff168152602001600060ff168152602001600073ffffffffffffffffffffffffffffffffffffffff1681525090565b6040518060e00160405280600060ff16815260200160006002811115612e9857fe5b8152602001600073ffffffffffffffffffffffffffffffffffffffff168152602001600060ff168152602001600060ff168152602001600015158152602001600081525090565b600081359050612eee816141d0565b92915050565b600082601f830112612f0557600080fd5b6002612f18612f1382613fa3565b613f76565b91508183856040840282011115612f2e57600080fd5b60005b83811015612f5e5781612f448882612f68565b845260208401935060408301925050600181019050612f31565b5050505092915050565b600082601f830112612f7957600080fd5b6002612f8c612f8782613fc5565b613f76565b91508183856020840282011115612fa257600080fd5b60005b83811015612fd25781612fb888826130cb565b845260208401935060208301925050600181019050612fa5565b5050505092915050565b600081359050612feb816141e7565b92915050565b600081519050613000816141e7565b92915050565b600081359050613015816141fe565b92915050565b600060e0828403121561302d57600080fd5b61303760e0613f76565b90506000613047848285016130f5565b600083015250602061305b84828501613006565b602083015250604061306f84828501612edf565b6040830152506060613083848285016130f5565b6060830152506080613097848285016130f5565b60808301525060a06130ab84828501612fdc565b60a08301525060c06130bf848285016130cb565b60c08301525092915050565b6000813590506130da8161420e565b92915050565b6000815190506130ef8161420e565b92915050565b60008135905061310481614225565b92915050565b6000806000806000610160868803121561312357600080fd5b600061313188828901612f68565b955050604061314288828901612ef4565b94505060c061315388828901612f68565b93505061010061316588828901612f68565b925050610140613177888289016130f5565b9150509295509295909350565b60006020828403121561319657600080fd5b60006131a484828501612ff1565b91505092915050565b600080600061012084860312156131c357600080fd5b60006131d18682870161301b565b93505060e06131e2868287016130f5565b9250506101006131f4868287016130f5565b9150509250925092565b60006020828403121561321057600080fd5b600061321e848285016130cb565b91505092915050565b6000806040838503121561323a57600080fd5b6000613248858286016130cb565b9250506020613259858286016130cb565b9150509250929050565b6000806040838503121561327657600080fd5b6000613284858286016130e0565b9250506020613295858286016130e0565b9150509250929050565b6000806000606084860312156132b457600080fd5b60006132c2868287016130cb565b93505060206132d3868287016130cb565b92505060406132e4868287016130cb565b9150509250925092565b60006020828403121561330057600080fd5b600061330e848285016130f5565b91505092915050565b6000806000806080858703121561332d57600080fd5b600061333b878288016130f5565b945050602061334c878288016130cb565b935050604061335d878288016130cb565b925050606061336e878288016130cb565b91505092959194509250565b60008060006060848603121561338f57600080fd5b600061339d868287016130f5565b93505060206133ae868287016130f5565b92505060406133bf868287016130f5565b9150509250925092565b60006133d583836135c0565b60408301905092915050565b60006133ed8383613a17565b60a08301905092915050565b60006134058383613a7f565b60e08301905092915050565b600061341d8383613b3a565b60208301905092915050565b6134328161414a565b82525050565b613441816140cf565b82525050565b613450816140cf565b82525050565b61345f8161401b565b613469818461407b565b925061347482613fe7565b8060005b838110156134a557815161348c87826133c9565b965061349783614047565b925050600181019050613478565b505050505050565b60006134b882614026565b6134c28185614086565b93506134cd83613ff1565b8060005b838110156134fe5781516134e588826133e1565b97506134f083614054565b9250506001810190506134d1565b5085935050505092915050565b600061351682614031565b6135208185614097565b935061352b83614001565b8060005b8381101561355c57815161354388826133f9565b975061354e83614061565b92505060018101905061352f565b5085935050505092915050565b6135728161403c565b61357c81846140a8565b925061358782614011565b8060005b838110156135b857815161359f8782613411565b96506135aa8361406e565b92505060018101905061358b565b505050505050565b6135c98161403c565b6135d381846140b3565b92506135de82614011565b8060005b8381101561360f5781516135f68782613411565b96506136018361406e565b9250506001810190506135e2565b505050505050565b613620816140e1565b82525050565b61362f816140e1565b82525050565b61363e8161415c565b82525050565b61364d8161416e565b82525050565b61365c8161416e565b82525050565b61366b81614180565b82525050565b600061367e600d836140be565b91507f50696563652069732064656164000000000000000000000000000000000000006000830152602082019050919050565b60006136be6015836140be565b91507f63616e2774206a6f696e2067616d6520747769636500000000000000000000006000830152602082019050919050565b60006136fe6014836140be565b91507f4661696c6564207a6b206d6f766520636865636b0000000000000000000000006000830152602082019050919050565b600061373e600c836140be565b91507f496e76616c6964206d6f766500000000000000000000000000000000000000006000830152602082019050919050565b600061377e6029836140be565b91507f63616e206f6e6c792072657665616c20746f2063617074757265206f70706f7360008301527f696e6720706965636500000000000000000000000000000000000000000000006020830152604082019050919050565b60006137e46015836140be565b91507f5069656365206d75737420626520612067686f737400000000000000000000006000830152602082019050919050565b6000613824600d836140be565b91507f47616d6520697320656e646564000000000000000000000000000000000000006000830152602082019050919050565b6000613864600d836140be565b91507f4e6f742070322773207475726e000000000000000000000000000000000000006000830152602082019050919050565b60006138a4600e836140be565b91507f496e76616c69642072657665616c0000000000000000000000000000000000006000830152602082019050919050565b60006138e46010836140be565b91507f5a4b2050726f6f6620696e76616c6964000000000000000000000000000000006000830152602082019050919050565b6000613924601d836140be565b91507f4d757374206d6f76652067686f7374206f6e206669727374207475726e0000006000830152602082019050919050565b60006139646014836140be565b91507f47616d6520616c726561647920737461727465640000000000000000000000006000830152602082019050919050565b60006139a46018836140be565b91507f596f7520646f6e2774206f776e207468617420706965636500000000000000006000830152602082019050919050565b60006139e4600d836140be565b91507f4e6f742070312773207475726e000000000000000000000000000000000000006000830152602082019050919050565b60a082016000820151613a2d6000850182613b49565b506020820151613a406020850182613b49565b506040820151613a536040850182613b49565b506060820151613a666060850182613b49565b506080820151613a796080850182613438565b50505050565b60e082016000820151613a956000850182613b49565b506020820151613aa86020850182613644565b506040820151613abb6040850182613438565b506060820151613ace6060850182613b49565b506080820151613ae16080850182613b49565b5060a0820151613af460a0850182613617565b5060c0820151613b0760c0850182613b0d565b50505050565b613b1681614133565b82525050565b613b2581614133565b82525050565b613b3481614133565b82525050565b613b4381614133565b82525050565b613b528161413d565b82525050565b613b618161413d565b82525050565b6000602082019050613b7c6000830184613447565b92915050565b6000602082019050613b976000830184613429565b92915050565b6000604082019050613bb26000830185613447565b613bbf6020830184613447565b9392505050565b60006020820190508181036000830152613be081846134ad565b905092915050565b60006020820190508181036000830152613c02818461350b565b905092915050565b600061014082019050613c206000830187613569565b613c2d6040830186613456565b613c3a60c0830185613569565b613c48610100830184613569565b95945050505050565b6000602082019050613c666000830184613626565b92915050565b6000602082019050613c816000830184613635565b92915050565b60006020820190508181036000830152613ca081613671565b9050919050565b60006020820190508181036000830152613cc0816136b1565b9050919050565b60006020820190508181036000830152613ce0816136f1565b9050919050565b60006020820190508181036000830152613d0081613731565b9050919050565b60006020820190508181036000830152613d2081613771565b9050919050565b60006020820190508181036000830152613d40816137d7565b9050919050565b60006020820190508181036000830152613d6081613817565b9050919050565b60006020820190508181036000830152613d8081613857565b9050919050565b60006020820190508181036000830152613da081613897565b9050919050565b60006020820190508181036000830152613dc0816138d7565b9050919050565b60006020820190508181036000830152613de081613917565b9050919050565b60006020820190508181036000830152613e0081613957565b9050919050565b60006020820190508181036000830152613e2081613997565b9050919050565b60006020820190508181036000830152613e40816139d7565b9050919050565b6000602082019050613e5c6000830184613b1c565b92915050565b6000606082019050613e776000830186613b2b565b613e846020830185613b2b565b613e916040830184613662565b949350505050565b6000602082019050613eae6000830184613b58565b92915050565b600060e082019050613ec9600083018a613b58565b613ed66020830189613653565b613ee36040830188613447565b613ef06060830187613b58565b613efd6080830186613b58565b613f0a60a0830185613626565b613f1760c0830184613b1c565b98975050505050505050565b600060a082019050613f386000830188613b58565b613f456020830187613b58565b613f526040830186613b58565b613f5f6060830185613b58565b613f6c6080830184613447565b9695505050505050565b6000604051905081810181811067ffffffffffffffff82111715613f9957600080fd5b8060405250919050565b600067ffffffffffffffff821115613fba57600080fd5b602082029050919050565b600067ffffffffffffffff821115613fdc57600080fd5b602082029050919050565b6000819050919050565b6000819050602082019050919050565b6000819050602082019050919050565b6000819050919050565b600060029050919050565b600081519050919050565b600081519050919050565b600060029050919050565b6000602082019050919050565b6000602082019050919050565b6000602082019050919050565b6000602082019050919050565b600081905092915050565b600082825260208201905092915050565b600082825260208201905092915050565b600081905092915050565b600081905092915050565b600082825260208201905092915050565b60006140da82614113565b9050919050565b60008115159050919050565b60008190506140fb826141b6565b919050565b600081905061410e826141c3565b919050565b600073ffffffffffffffffffffffffffffffffffffffff82169050919050565b6000819050919050565b600060ff82169050919050565b600061415582614192565b9050919050565b6000614167826140ed565b9050919050565b600061417982614100565b9050919050565b600061418b82614133565b9050919050565b600061419d826141a4565b9050919050565b60006141af82614113565b9050919050565b600481106141c057fe5b50565b600381106141cd57fe5b50565b6141d9816140cf565b81146141e457600080fd5b50565b6141f0816140e1565b81146141fb57600080fd5b50565b6003811061420b57600080fd5b50565b61421781614133565b811461422257600080fd5b50565b61422e8161413d565b811461423957600080fd5b5056fea2646970667358221220ab01b21fbbfe4fd150c3c87aee9490786cb89a9b52808fe861213b09c4ba61d564736f6c63430006070033",
  "immutableReferences": {},
  "source": "pragma solidity ^0.6.7;\npragma experimental ABIEncoderV2;\n\nimport \"./ZKChessTypes.sol\";\nimport \"./Verifier.sol\";\nimport \"./Hasher.sol\";\n\ncontract ZKChessCore {\n    uint256\n        public constant FIELD_SIZE = 21888242871839275222246405745257275088548364400416034343698204186575808495617;\n    uint256\n        public constant GHOST_START_COMMITMENT = 7374563847362678215915084925243633004703986452179446109135597066279732561698;\n    uint256 public constant BOARD_SIZE = 7;\n\n    uint8 public turnNumber;\n    GameState public gameState;\n    uint8[BOARD_SIZE][BOARD_SIZE] public boardPieces; // board[row][col]\n    uint8[BOARD_SIZE][BOARD_SIZE] public boardObjectives;\n\n    uint8[8] public pieceIds;\n    mapping(uint8 => Piece) public pieces;\n    uint8[6] public objectiveIds;\n    mapping(uint8 => Objective) public objectives;\n\n    bool public DISABLE_ZK_CHECK;\n\n    address public player1;\n    address public player2;\n\n    uint8 public player1Score;\n    uint8 public player2Score;\n\n    uint8 p1CurrentlyCapturing;\n    uint8 p2CurrentlyCapturing;\n\n    uint256 pfsVerified;\n\n    constructor(bool _disableZKCheck) public {\n        DISABLE_ZK_CHECK = _disableZKCheck;\n        gameState = GameState.WAITING_FOR_PLAYERS;\n\n        pieceIds = [1, 2, 3, 4, 5, 6, 7, 8];\n        objectiveIds = [9, 10, 11, 12, 13, 14];\n\n        // initialize pieces\n        pieces[1] = Piece({\n            id: 1,\n            pieceType: PieceType.KING,\n            owner: address(0),\n            row: 0,\n            col: 1,\n            dead: false,\n            commitment: 0\n        });\n        boardPieces[0][1] = 1;\n        pieces[2] = Piece({\n            id: 2,\n            pieceType: PieceType.KNIGHT,\n            owner: address(0),\n            row: 0,\n            col: 3,\n            dead: false,\n            commitment: 0\n        });\n        boardPieces[0][3] = 2;\n        pieces[3] = Piece({\n            id: 3,\n            pieceType: PieceType.KING,\n            owner: address(0),\n            row: 0,\n            col: 5,\n            dead: false,\n            commitment: 0\n        });\n        boardPieces[0][5] = 3;\n        pieces[4] = Piece({\n            id: 4,\n            pieceType: PieceType.GHOST,\n            owner: address(0),\n            row: 0,\n            col: 0,\n            dead: false,\n            commitment: GHOST_START_COMMITMENT\n        });\n        pieces[5] = Piece({\n            id: 5,\n            pieceType: PieceType.KING,\n            owner: address(0),\n            row: 6,\n            col: 1,\n            dead: false,\n            commitment: 0\n        });\n        boardPieces[6][1] = 5;\n        pieces[6] = Piece({\n            id: 6,\n            pieceType: PieceType.KNIGHT,\n            owner: address(0),\n            row: 6,\n            col: 3,\n            dead: false,\n            commitment: 0\n        });\n        boardPieces[6][3] = 6;\n        pieces[7] = Piece({\n            id: 7,\n            pieceType: PieceType.KING,\n            owner: address(0),\n            row: 6,\n            col: 5,\n            dead: false,\n            commitment: 0\n        });\n        boardPieces[6][5] = 7;\n        pieces[8] = Piece({\n            id: 8,\n            pieceType: PieceType.GHOST,\n            owner: address(0),\n            row: 6,\n            col: 0,\n            dead: false,\n            commitment: GHOST_START_COMMITMENT\n        });\n\n        // initialize objectives\n        objectives[9] = Objective({\n            id: 9,\n            value: 5,\n            row: 3,\n            col: 0,\n            capturedBy: address(0)\n        });\n        boardObjectives[3][0] = 9;\n        objectives[10] = Objective({\n            id: 10,\n            value: 5,\n            row: 2,\n            col: 2,\n            capturedBy: address(0)\n        });\n        boardObjectives[2][2] = 10;\n        objectives[11] = Objective({\n            id: 11,\n            value: 10,\n            row: 4,\n            col: 2,\n            capturedBy: address(0)\n        });\n        boardObjectives[4][2] = 11;\n        objectives[12] = Objective({\n            id: 12,\n            value: 10,\n            row: 2,\n            col: 4,\n            capturedBy: address(0)\n        });\n        boardObjectives[2][4] = 12;\n        objectives[13] = Objective({\n            id: 13,\n            value: 5,\n            row: 4,\n            col: 4,\n            capturedBy: address(0)\n        });\n        boardObjectives[4][4] = 13;\n        objectives[14] = Objective({\n            id: 14,\n            value: 5,\n            row: 3,\n            col: 6,\n            capturedBy: address(0)\n        });\n        boardObjectives[3][6] = 14;\n    }\n\n    //////////////\n    /// EVENTS ///\n    //////////////\n\n    event ProofVerified(uint256 pfsAccepted);\n    event GameStart(address p1, address p2);\n    event MoveMade(address player);\n    event GameFinished();\n\n    ///////////////\n    /// GETTERS ///\n    ///////////////\n\n    function getPieces() public view returns (Piece[] memory ret) {\n        ret = new Piece[](pieceIds.length);\n        for (uint8 i = 0; i < pieceIds.length; i++) {\n            ret[i] = pieces[pieceIds[i]];\n        }\n        return ret;\n    }\n\n    function getObjectives() public view returns (Objective[] memory ret) {\n        ret = new Objective[](objectiveIds.length);\n        for (uint8 i = 0; i < objectiveIds.length; i++) {\n            ret[i] = objectives[objectiveIds[i]];\n        }\n        return ret;\n    }\n\n    //////////////\n    /// Helper ///\n    //////////////\n\n    function hashTriple(\n        uint256 val1,\n        uint256 val2,\n        uint256 val3\n    ) public pure returns (uint256) {\n        uint256 R = 0;\n        uint256 C = 0;\n\n        R = addmod(R, val1, FIELD_SIZE);\n        (R, C) = Hasher.MiMCSponge(R, C, 0);\n        R = addmod(R, val2, FIELD_SIZE);\n        (R, C) = Hasher.MiMCSponge(R, C, 0);\n        R = addmod(R, val3, FIELD_SIZE);\n        (R, C) = Hasher.MiMCSponge(R, C, 0);\n\n        return R;\n    }\n\n    function isValidMove(\n        Piece memory piece,\n        uint8 toRow,\n        uint8 toCol\n    ) public view returns (bool) {\n        if (toRow >= BOARD_SIZE || toCol >= BOARD_SIZE) {\n            // must be in the range [0, SIZE - 1]\n            return false;\n        }\n        if (boardPieces[toRow][toCol] > 0) {\n            // a piece already exists there\n            return false;\n        }\n        if (piece.pieceType == PieceType.GHOST) {\n            return false;\n        } else if (piece.pieceType == PieceType.KING) {\n            if (piece.row == toRow && piece.col == toCol) {\n                return false;\n            }\n            int16 rowDiff = int16(piece.row) - int16(toRow);\n            if (rowDiff > 1 || rowDiff < -1) {\n                return false;\n            }\n            int16 colDiff = int16(piece.col) - int16(toCol);\n            if (colDiff > 1 || colDiff < -1) {\n                return false;\n            }\n        } else if (piece.pieceType == PieceType.KNIGHT) {\n            int16 rowDiff = int16(piece.row) - int16(toRow);\n            int16 colDiff = int16(piece.col) - int16(toCol);\n            if (rowDiff == 2 || rowDiff == -2) {\n                if (colDiff != 1 && colDiff != -1) {\n                    return false;\n                }\n            } else if (rowDiff == 1 || rowDiff == -1) {\n                if (colDiff != 2 && colDiff != -2) {\n                    return false;\n                }\n            } else {\n                return false;\n            }\n        }\n        return true;\n    }\n\n    function gameShouldBeCompleted() public view returns (bool) {\n        // check if game is over: no pieces left, OR no objectives left\n        bool noPiecesLeft = true;\n        for (uint8 i = 0; i < pieceIds.length; i++) {\n            if (!pieces[pieceIds[i]].dead) {\n                noPiecesLeft = false;\n                break;\n            }\n        }\n        if (noPiecesLeft) {\n            return true;\n        }\n\n        bool noObjectivesLeft = true;\n        for (uint8 i = 0; i < objectiveIds.length; i++) {\n            if (objectives[objectiveIds[i]].capturedBy == address(0)) {\n                noObjectivesLeft = false;\n                break;\n            }\n        }\n        if (noObjectivesLeft) {\n            return true;\n        }\n        return false;\n    }\n\n    //////////////////////\n    /// Game Mechanics ///\n    //////////////////////\n\n    function joinGame() public {\n        require(\n            gameState == GameState.WAITING_FOR_PLAYERS,\n            \"Game already started\"\n        );\n        if (player1 == address(0)) {\n            // first player to join game\n            player1 = msg.sender;\n            return;\n        }\n        // another player has joined. game is ready to start\n\n        require(msg.sender != player1, \"can't join game twice\");\n        // randomize player order\n        if (block.timestamp % 2 == 0) {\n            player2 = msg.sender;\n        } else {\n            player2 = player1;\n            player1 = msg.sender;\n        }\n\n        // set pieces\n        for (uint8 i = 1; i < 5; i++) {\n            pieces[i].owner = player1;\n        }\n        for (uint8 i = 5; i < 9; i++) {\n            pieces[i].owner = player2;\n        }\n\n        gameState = GameState.P1_TO_MOVE;\n        emit GameStart(player1, player2);\n    }\n\n    function movePiece(\n        uint8 pieceId,\n        uint8 toRow,\n        uint8 toCol\n    ) public {\n        require(gameState != GameState.COMPLETE, \"Game is ended\");\n        if (msg.sender == player1) {\n            require(gameState == GameState.P1_TO_MOVE, \"Not p1's turn\");\n        }\n        if (msg.sender == player2) {\n            require(gameState == GameState.P2_TO_MOVE, \"Not p2's turn\");\n        }\n        require(turnNumber > 0, \"Must move ghost on first turn\");\n        Piece storage piece = pieces[pieceId];\n        require(piece.owner == msg.sender, \"You don't own that piece\");\n        require(!piece.dead, \"Piece is dead\");\n        require(isValidMove(piece, toRow, toCol), \"Invalid move\");\n\n        boardPieces[piece.row][piece.col] = 0;\n        boardPieces[toRow][toCol] = piece.id;\n        piece.row = toRow;\n        piece.col = toCol;\n        if (\n            objectives[boardObjectives[toRow][toCol]].value > 0 &&\n            objectives[boardObjectives[toRow][toCol]].capturedBy == address(0)\n        ) {\n            if (msg.sender == player1) {\n                p1CurrentlyCapturing = boardObjectives[toRow][toCol];\n            } else {\n                p2CurrentlyCapturing = boardObjectives[toRow][toCol];\n            }\n        }\n        completeTurn();\n    }\n\n    function moveGhost(\n        uint256[2] memory _a,\n        uint256[2][2] memory _b,\n        uint256[2] memory _c,\n        uint256[2] memory _input,\n        uint8 pieceId\n    ) public {\n        require(gameState != GameState.COMPLETE, \"Game is ended\");\n        if (msg.sender == player1) {\n            require(gameState == GameState.P1_TO_MOVE, \"Not p1's turn\");\n        }\n        if (msg.sender == player2) {\n            require(gameState == GameState.P2_TO_MOVE, \"Not p2's turn\");\n        }\n        Piece storage piece = pieces[pieceId];\n        require(piece.pieceType == PieceType.GHOST, \"Piece must be a ghost\");\n        require(piece.owner == msg.sender, \"You don't own that piece\");\n        require(piece.commitment == _input[0], \"ZK Proof invalid\");\n        if (!DISABLE_ZK_CHECK) {\n            require(\n                Verifier.verifyMoveProof(_a, _b, _c, _input),\n                \"Failed zk move check\"\n            );\n        }\n        piece.commitment = _input[1];\n        completeTurn();\n    }\n\n    function ghostAttack(\n        uint8 pieceId,\n        uint256 row,\n        uint256 col,\n        uint256 salt\n    ) public {\n        require(gameState != GameState.COMPLETE, \"Game is ended\");\n        if (msg.sender == player1) {\n            require(gameState == GameState.P1_TO_MOVE, \"Not p1's turn\");\n        }\n        if (msg.sender == player2) {\n            require(gameState == GameState.P2_TO_MOVE, \"Not p2's turn\");\n        }\n        require(turnNumber > 0, \"Must move ghost on first turn\");\n        Piece storage piece = pieces[pieceId];\n        require(piece.pieceType == PieceType.GHOST, \"Piece must be a ghost\");\n        require(piece.owner == msg.sender, \"You don't own that piece\");\n        require(\n            hashTriple(row, col, salt) == piece.commitment,\n            \"Invalid reveal\"\n        );\n        Piece storage theirPiece = pieces[boardPieces[row][col]];\n        address opponent = player1;\n        if (msg.sender == player1) {\n            opponent = player2;\n        }\n        require(\n            theirPiece.owner == opponent,\n            \"can only reveal to capture opposing piece\"\n        );\n        theirPiece.dead = true;\n        completeTurn();\n    }\n\n    function completeTurn() internal {\n        if (msg.sender == player1) {\n            // check if opponent captures any objectives\n            Objective storage capturing = objectives[p2CurrentlyCapturing];\n            if (capturing.value > 0 && capturing.capturedBy == address(0)) {\n                // is an uncaptured objective\n                Piece storage onObjective = pieces[boardPieces[capturing\n                    .row][capturing.col]];\n                if (onObjective.owner == player2 && !onObjective.dead) {\n                    // p2's live piece is stationed on top\n                    capturing.capturedBy = player2;\n                    player2Score += capturing.value;\n                }\n            }\n            // change to p2's turn\n            p2CurrentlyCapturing = 0;\n            gameState = GameState.P2_TO_MOVE;\n        } else {\n            // check if opponent captures any objectives\n            Objective storage capturing = objectives[p1CurrentlyCapturing];\n            if (capturing.value > 0 && capturing.capturedBy == address(0)) {\n                // is an uncaptured objective\n                Piece storage onObjective = pieces[boardPieces[capturing\n                    .row][capturing.col]];\n                if (onObjective.owner == player1 && !onObjective.dead) {\n                    // p1's live piece is stationed on top\n                    capturing.capturedBy = player1;\n                    player1Score += capturing.value;\n                }\n            }\n            // change to p1's turn\n            p1CurrentlyCapturing = 0;\n            turnNumber++;\n            gameState = GameState.P1_TO_MOVE;\n        }\n        emit MoveMade(msg.sender);\n\n        if (gameShouldBeCompleted()) {\n            gameState = GameState.COMPLETE;\n            emit GameFinished();\n        }\n    }\n}\n",
  "sourcePath": "/Users/bgu/zk-chess/eth/contracts/ZKChessCore.sol",
  "compiler": {
    "name": "solc",
    "version": "0.6.7+commit.b8d736ae.Emscripten.clang"
  },
  "schemaVersion": "3.3.1",
  "updatedAt": "2020-10-31T00:09:49.670Z",
  "devdoc": {
    "methods": {}
  },
  "userdoc": {
    "methods": {
      "getPieces()": {
        "notice": "//////////// GETTERS /// ////////////"
      },
      "hashTriple(uint256,uint256,uint256)": {
        "notice": "/////////// Helper /// ///////////"
      },
      "joinGame()": {
        "notice": "/////////////////// Game Mechanics /// ///////////////////"
      }
    }
  }
}