{
  "fileName": "ZKChessCore.sol",
  "contractName": "ZKChessCore",
  "source": "pragma solidity ^0.6.12;\npragma experimental ABIEncoderV2;\n\nimport \"@openzeppelin/contracts-ethereum-package/contracts/Initializable.sol\";\nimport \"./Verifier.sol\";\nimport \"./ZKChessStorage.sol\";\n\n// .______       _______     ___       _______  .___  ___.  _______\n// |   _  \\     |   ____|   /   \\     |       \\ |   \\/   | |   ____|\n// |  |_)  |    |  |__     /  ^  \\    |  .--.  ||  \\  /  | |  |__\n// |      /     |   __|   /  /_\\  \\   |  |  |  ||  |\\/|  | |   __|\n// |  |\\  \\----.|  |____ /  _____  \\  |  '--'  ||  |  |  | |  |____\n// | _| `._____||_______/__/     \\__\\ |_______/ |__|  |__| |_______|\n//\n// READ THIS FIRST BEFORE EDITING ANYTHING IN THIS FILE:\n// https://docs.openzeppelin.com/learn/upgrading-smart-contracts#limitations-of-contract-upgrades\n//\n// DO NOT ADD ANY STORAGE VARIABLES IN THIS FILE\n// IT SHOULD BELONG AT STORAGE CONTRACTS\n// ADDING STORAGE VARIABLES HERE WI LL BLOCK ANY STORAGE CONTRACTS FROM EVER\n// ADDING THEIR OWN VARIABLES EVER AGAIN.\n\ncontract ZKChessCore is Initializable, ZKChessStorage {\n    function initialize(address _adminAddress, bool _disableZKCheck)\n        public\n        initializer\n    {\n        paused = false;\n        DISABLE_ZK_CHECK = _disableZKCheck;\n    }\n\n    //////////////\n    /// EVENTS ///\n    //////////////\n\n    event ProofVerified(uint256 pfsAccepted);\n\n    //////////////////////\n    /// ACCESS CONTROL ///\n    //////////////////////\n\n    modifier onlyAdmin() {\n        require(msg.sender == adminAddress, \"Sender is not a game master\");\n        _;\n    }\n\n    modifier notPaused() {\n        require(!paused, \"Game is paused\");\n        _;\n    }\n\n    /////////////\n    /// Admin ///\n    /////////////\n\n    function pause() public onlyAdmin {\n        require(!paused, \"Game is already paused\");\n        paused = true;\n    }\n\n    function unpause() public onlyAdmin {\n        require(paused, \"Game is already unpaused\");\n        paused = false;\n    }\n\n    //////////////\n    /// Helper ///\n    //////////////\n\n    //////////////////////\n    /// Game Mechanics ///\n    //////////////////////\n\n    function checkProof(\n        uint256[2] memory _a,\n        uint256[2][2] memory _b,\n        uint256[2] memory _c,\n        uint256[3] memory _input\n    ) public notPaused returns (bool) {\n        if (!DISABLE_ZK_CHECK) {\n            require(\n                Verifier.verifyMoveProof(_a, _b, _c, _input),\n                \"Failed init proof check\"\n            );\n        }\n        pfsVerified += 1;\n        emit ProofVerified(pfsVerified);\n        return true;\n    }\n}\n",
  "sourcePath": "contracts/ZKChessCore.sol",
  "abi": [
    {
      "anonymous": false,
      "inputs": [
        {
          "indexed": false,
          "internalType": "uint256",
          "name": "pfsAccepted",
          "type": "uint256"
        }
      ],
      "name": "ProofVerified",
      "type": "event"
    },
    {
      "inputs": [],
      "name": "DISABLE_ZK_CHECK",
      "outputs": [
        {
          "internalType": "bool",
          "name": "",
          "type": "bool"
        }
      ],
      "stateMutability": "view",
      "type": "function"
    },
    {
      "inputs": [],
      "name": "adminAddress",
      "outputs": [
        {
          "internalType": "address",
          "name": "",
          "type": "address"
        }
      ],
      "stateMutability": "view",
      "type": "function"
    },
    {
      "inputs": [
        {
          "internalType": "uint256[2]",
          "name": "_a",
          "type": "uint256[2]"
        },
        {
          "internalType": "uint256[2][2]",
          "name": "_b",
          "type": "uint256[2][2]"
        },
        {
          "internalType": "uint256[2]",
          "name": "_c",
          "type": "uint256[2]"
        },
        {
          "internalType": "uint256[3]",
          "name": "_input",
          "type": "uint256[3]"
        }
      ],
      "name": "checkProof",
      "outputs": [
        {
          "internalType": "bool",
          "name": "",
          "type": "bool"
        }
      ],
      "stateMutability": "nonpayable",
      "type": "function"
    },
    {
      "inputs": [
        {
          "internalType": "address",
          "name": "_adminAddress",
          "type": "address"
        },
        {
          "internalType": "bool",
          "name": "_disableZKCheck",
          "type": "bool"
        }
      ],
      "name": "initialize",
      "outputs": [],
      "stateMutability": "nonpayable",
      "type": "function"
    },
    {
      "inputs": [],
      "name": "pause",
      "outputs": [],
      "stateMutability": "nonpayable",
      "type": "function"
    },
    {
      "inputs": [],
      "name": "paused",
      "outputs": [
        {
          "internalType": "bool",
          "name": "",
          "type": "bool"
        }
      ],
      "stateMutability": "view",
      "type": "function"
    },
    {
      "inputs": [],
      "name": "unpause",
      "outputs": [],
      "stateMutability": "nonpayable",
      "type": "function"
    }
  ],
  "bytecode": "0x608060405234801561001057600080fd5b50610846806100206000396000f3fe608060405234801561001057600080fd5b506004361061007d5760003560e01c80635c975abb1161005b5780635c975abb146100c85780638456cb59146100d05780638af9d562146100d8578063fc6f9468146100e05761007d565b806336079eb9146100825780633f4ba83a146100ab578063400ada75146100b5575b600080fd5b6100956100903660046104ba565b6100f5565b6040516100a2919061065c565b60405180910390f35b6100b3610231565b005b6100b36100c3366004610477565b610293565b610095610330565b6100b3610340565b6100956103a9565b6100e86103b9565b6040516100a291906105be565b603354600090600160a01b900460ff161561012b5760405162461bcd60e51b815260040161012290610723565b60405180910390fd5b603354600160a81b900460ff166101e557604051635a64846560e01b815273__Verifier______________________________90635a648465906101799088908890889088906004016105d2565b60206040518083038186803b15801561019157600080fd5b505af41580156101a5573d6000803e3d6000fd5b505050506040513d601f19601f820116820180604052508101906101c9919061056a565b6101e55760405162461bcd60e51b81526004016101229061069e565b60348054600101908190556040517f4eb5ee08f6bd1352ed7b0dac0ee5e5b7cb984b0477d694d9db613b705f47f2ab9161021e916107b2565b60405180910390a1506001949350505050565b6033546001600160a01b0316331461025b5760405162461bcd60e51b815260040161012290610667565b603354600160a01b900460ff166102845760405162461bcd60e51b81526004016101229061074b565b6033805460ff60a01b19169055565b600054610100900460ff16806102ac57506102ac6103c8565b806102ba575060005460ff16155b6102d65760405162461bcd60e51b8152600401610122906106d5565b600054610100900460ff16158015610301576000805460ff1961ff0019909116610100171660011790555b6033805461ffff60a01b1916600160a81b84151502179055801561032b576000805461ff00191690555b505050565b603354600160a01b900460ff1681565b6033546001600160a01b0316331461036a5760405162461bcd60e51b815260040161012290610667565b603354600160a01b900460ff16156103945760405162461bcd60e51b815260040161012290610782565b6033805460ff60a01b1916600160a01b179055565b603354600160a81b900460ff1681565b6033546001600160a01b031681565b303b1590565b600082601f8301126103de578081fd5b6103e860406107bb565b90508082846040850111156103fc57600080fd5b60005b600281101561041e5781358352602092830192909101906001016103ff565b50505092915050565b600082601f830112610437578081fd5b61044160606107bb565b905080828460608501111561045557600080fd5b60005b600381101561041e578135835260209283019290910190600101610458565b60008060408385031215610489578182fd5b82356001600160a01b038116811461049f578283fd5b915060208301356104af816107ff565b809150509250929050565b60008060008061016085870312156104d0578182fd5b6104da86866103ce565b9350604086605f8701126104ec578283fd5b60026104ff6104fa826107e2565b6107bb565b8083890160c08a018b811115610513578788fd5b875b8581101561053b576105278d846103ce565b855260209094019391860191600101610515565b508298506105498c826103ce565b975050505050505061055f866101008701610427565b905092959194509250565b60006020828403121561057b578081fd5b8151610586816107ff565b9392505050565b815260200190565b8060005b60028110156105b8578151845260209384019390910190600101610599565b50505050565b6001600160a01b0391909116815260200190565b61016081016105e18287610595565b60408083018660005b6002811015610611576105fe838351610595565b91830191602091909101906001016105ea565b5050505061062260c0830185610595565b61010082018360005b60038110156106505761063f83835161058d565b92506020919091019060010161062b565b50505095945050505050565b901515815260200190565b6020808252601b908201527f53656e646572206973206e6f7420612067616d65206d61737465720000000000604082015260600190565b60208082526017908201527f4661696c656420696e69742070726f6f6620636865636b000000000000000000604082015260600190565b6020808252602e908201527f436f6e747261637420696e7374616e63652068617320616c726561647920626560408201526d195b881a5b9a5d1a585b1a5e995960921b606082015260800190565b6020808252600e908201526d11d85b59481a5cc81c185d5cd95960921b604082015260600190565b60208082526018908201527f47616d6520697320616c726561647920756e7061757365640000000000000000604082015260600190565b60208082526016908201527511d85b59481a5cc8185b1c9958591e481c185d5cd95960521b604082015260600190565b90815260200190565b60405181810167ffffffffffffffff811182821017156107da57600080fd5b604052919050565b600067ffffffffffffffff8211156107f8578081fd5b5060200290565b801515811461080d57600080fd5b5056fea26469706673582212202f68d7651a5ac76b3ca3bdb691691cba4a98827b5404ff5a9d40f0b5407af07e64736f6c634300060c0033",
  "compiler": {
    "name": "solc",
    "version": "0.6.12+commit.27d51765.Emscripten.clang",
    "optimizer": {
      "enabled": true,
      "runs": 200
    },
    "evmVersion": "petersburg"
  }
}