{
  "contractName": "ZKChessCore",
  "abi": [
    {
      "inputs": [
        {
          "internalType": "bool",
          "name": "_disableZKCheck",
          "type": "bool"
        }
      ],
      "stateMutability": "nonpayable",
      "type": "constructor"
    },
    {
      "anonymous": false,
      "inputs": [],
      "name": "GameFinished",
      "type": "event"
    },
    {
      "anonymous": false,
      "inputs": [
        {
          "indexed": false,
          "internalType": "address",
          "name": "p1",
          "type": "address"
        },
        {
          "indexed": false,
          "internalType": "address",
          "name": "p2",
          "type": "address"
        }
      ],
      "name": "GameStart",
      "type": "event"
    },
    {
      "anonymous": false,
      "inputs": [
        {
          "indexed": false,
          "internalType": "address",
          "name": "player",
          "type": "address"
        }
      ],
      "name": "MoveMade",
      "type": "event"
    },
    {
      "anonymous": false,
      "inputs": [
        {
          "indexed": false,
          "internalType": "uint256",
          "name": "pfsAccepted",
          "type": "uint256"
        }
      ],
      "name": "ProofVerified",
      "type": "event"
    },
    {
      "inputs": [],
      "name": "BOARD_SIZE",
      "outputs": [
        {
          "internalType": "uint256",
          "name": "",
          "type": "uint256"
        }
      ],
      "stateMutability": "view",
      "type": "function"
    },
    {
      "inputs": [],
      "name": "DISABLE_ZK_CHECK",
      "outputs": [
        {
          "internalType": "bool",
          "name": "",
          "type": "bool"
        }
      ],
      "stateMutability": "view",
      "type": "function"
    },
    {
      "inputs": [],
      "name": "FIELD_SIZE",
      "outputs": [
        {
          "internalType": "uint256",
          "name": "",
          "type": "uint256"
        }
      ],
      "stateMutability": "view",
      "type": "function"
    },
    {
      "inputs": [],
      "name": "GHOST_START_COMMITMENT",
      "outputs": [
        {
          "internalType": "uint256",
          "name": "",
          "type": "uint256"
        }
      ],
      "stateMutability": "view",
      "type": "function"
    },
    {
      "inputs": [
        {
          "internalType": "uint256",
          "name": "",
          "type": "uint256"
        },
        {
          "internalType": "uint256",
          "name": "",
          "type": "uint256"
        }
      ],
      "name": "boardObjectives",
      "outputs": [
        {
          "internalType": "uint8",
          "name": "",
          "type": "uint8"
        }
      ],
      "stateMutability": "view",
      "type": "function"
    },
    {
      "inputs": [
        {
          "internalType": "uint256",
          "name": "",
          "type": "uint256"
        },
        {
          "internalType": "uint256",
          "name": "",
          "type": "uint256"
        }
      ],
      "name": "boardPieces",
      "outputs": [
        {
          "internalType": "uint8",
          "name": "",
          "type": "uint8"
        }
      ],
      "stateMutability": "view",
      "type": "function"
    },
    {
      "inputs": [],
      "name": "gameState",
      "outputs": [
        {
          "internalType": "enum GameState",
          "name": "",
          "type": "uint8"
        }
      ],
      "stateMutability": "view",
      "type": "function"
    },
    {
      "inputs": [
        {
          "internalType": "uint256",
          "name": "",
          "type": "uint256"
        }
      ],
      "name": "objectiveIds",
      "outputs": [
        {
          "internalType": "uint8",
          "name": "",
          "type": "uint8"
        }
      ],
      "stateMutability": "view",
      "type": "function"
    },
    {
      "inputs": [
        {
          "internalType": "uint8",
          "name": "",
          "type": "uint8"
        }
      ],
      "name": "objectives",
      "outputs": [
        {
          "internalType": "uint8",
          "name": "id",
          "type": "uint8"
        },
        {
          "internalType": "uint8",
          "name": "value",
          "type": "uint8"
        },
        {
          "internalType": "uint8",
          "name": "row",
          "type": "uint8"
        },
        {
          "internalType": "uint8",
          "name": "col",
          "type": "uint8"
        },
        {
          "internalType": "address",
          "name": "capturedBy",
          "type": "address"
        }
      ],
      "stateMutability": "view",
      "type": "function"
    },
    {
      "inputs": [
        {
          "internalType": "uint256",
          "name": "",
          "type": "uint256"
        }
      ],
      "name": "pieceIds",
      "outputs": [
        {
          "internalType": "uint8",
          "name": "",
          "type": "uint8"
        }
      ],
      "stateMutability": "view",
      "type": "function"
    },
    {
      "inputs": [
        {
          "internalType": "uint8",
          "name": "",
          "type": "uint8"
        }
      ],
      "name": "pieces",
      "outputs": [
        {
          "internalType": "uint8",
          "name": "id",
          "type": "uint8"
        },
        {
          "internalType": "enum PieceType",
          "name": "pieceType",
          "type": "uint8"
        },
        {
          "internalType": "address",
          "name": "owner",
          "type": "address"
        },
        {
          "internalType": "uint8",
          "name": "row",
          "type": "uint8"
        },
        {
          "internalType": "uint8",
          "name": "col",
          "type": "uint8"
        },
        {
          "internalType": "bool",
          "name": "dead",
          "type": "bool"
        },
        {
          "internalType": "uint256",
          "name": "commitment",
          "type": "uint256"
        }
      ],
      "stateMutability": "view",
      "type": "function"
    },
    {
      "inputs": [],
      "name": "player1",
      "outputs": [
        {
          "internalType": "address",
          "name": "",
          "type": "address"
        }
      ],
      "stateMutability": "view",
      "type": "function"
    },
    {
      "inputs": [],
      "name": "player1Score",
      "outputs": [
        {
          "internalType": "uint8",
          "name": "",
          "type": "uint8"
        }
      ],
      "stateMutability": "view",
      "type": "function"
    },
    {
      "inputs": [],
      "name": "player2",
      "outputs": [
        {
          "internalType": "address",
          "name": "",
          "type": "address"
        }
      ],
      "stateMutability": "view",
      "type": "function"
    },
    {
      "inputs": [],
      "name": "player2Score",
      "outputs": [
        {
          "internalType": "uint8",
          "name": "",
          "type": "uint8"
        }
      ],
      "stateMutability": "view",
      "type": "function"
    },
    {
      "inputs": [],
      "name": "turnNumber",
      "outputs": [
        {
          "internalType": "uint8",
          "name": "",
          "type": "uint8"
        }
      ],
      "stateMutability": "view",
      "type": "function"
    },
    {
      "inputs": [],
      "name": "getPieces",
      "outputs": [
        {
          "components": [
            {
              "internalType": "uint8",
              "name": "id",
              "type": "uint8"
            },
            {
              "internalType": "enum PieceType",
              "name": "pieceType",
              "type": "uint8"
            },
            {
              "internalType": "address",
              "name": "owner",
              "type": "address"
            },
            {
              "internalType": "uint8",
              "name": "row",
              "type": "uint8"
            },
            {
              "internalType": "uint8",
              "name": "col",
              "type": "uint8"
            },
            {
              "internalType": "bool",
              "name": "dead",
              "type": "bool"
            },
            {
              "internalType": "uint256",
              "name": "commitment",
              "type": "uint256"
            }
          ],
          "internalType": "struct Piece[]",
          "name": "ret",
          "type": "tuple[]"
        }
      ],
      "stateMutability": "view",
      "type": "function"
    },
    {
      "inputs": [],
      "name": "getObjectives",
      "outputs": [
        {
          "components": [
            {
              "internalType": "uint8",
              "name": "id",
              "type": "uint8"
            },
            {
              "internalType": "uint8",
              "name": "value",
              "type": "uint8"
            },
            {
              "internalType": "uint8",
              "name": "row",
              "type": "uint8"
            },
            {
              "internalType": "uint8",
              "name": "col",
              "type": "uint8"
            },
            {
              "internalType": "address",
              "name": "capturedBy",
              "type": "address"
            }
          ],
          "internalType": "struct Objective[]",
          "name": "ret",
          "type": "tuple[]"
        }
      ],
      "stateMutability": "view",
      "type": "function"
    },
    {
      "inputs": [
        {
          "internalType": "uint256",
          "name": "val1",
          "type": "uint256"
        },
        {
          "internalType": "uint256",
          "name": "val2",
          "type": "uint256"
        },
        {
          "internalType": "uint256",
          "name": "val3",
          "type": "uint256"
        }
      ],
      "name": "hashTriple",
      "outputs": [
        {
          "internalType": "uint256",
          "name": "",
          "type": "uint256"
        }
      ],
      "stateMutability": "pure",
      "type": "function"
    },
    {
      "inputs": [
        {
          "components": [
            {
              "internalType": "uint8",
              "name": "id",
              "type": "uint8"
            },
            {
              "internalType": "enum PieceType",
              "name": "pieceType",
              "type": "uint8"
            },
            {
              "internalType": "address",
              "name": "owner",
              "type": "address"
            },
            {
              "internalType": "uint8",
              "name": "row",
              "type": "uint8"
            },
            {
              "internalType": "uint8",
              "name": "col",
              "type": "uint8"
            },
            {
              "internalType": "bool",
              "name": "dead",
              "type": "bool"
            },
            {
              "internalType": "uint256",
              "name": "commitment",
              "type": "uint256"
            }
          ],
          "internalType": "struct Piece",
          "name": "piece",
          "type": "tuple"
        },
        {
          "internalType": "uint8",
          "name": "toRow",
          "type": "uint8"
        },
        {
          "internalType": "uint8",
          "name": "toCol",
          "type": "uint8"
        }
      ],
      "name": "isValidMove",
      "outputs": [
        {
          "internalType": "bool",
          "name": "",
          "type": "bool"
        }
      ],
      "stateMutability": "view",
      "type": "function"
    },
    {
      "inputs": [],
      "name": "gameShouldBeCompleted",
      "outputs": [
        {
          "internalType": "bool",
          "name": "",
          "type": "bool"
        }
      ],
      "stateMutability": "view",
      "type": "function"
    },
    {
      "inputs": [],
      "name": "joinGame",
      "outputs": [],
      "stateMutability": "nonpayable",
      "type": "function"
    },
    {
      "inputs": [
        {
          "internalType": "uint256[2]",
          "name": "_a",
          "type": "uint256[2]"
        },
        {
          "internalType": "uint256[2][2]",
          "name": "_b",
          "type": "uint256[2][2]"
        },
        {
          "internalType": "uint256[2]",
          "name": "_c",
          "type": "uint256[2]"
        },
        {
          "internalType": "uint256[2]",
          "name": "_input",
          "type": "uint256[2]"
        }
      ],
      "name": "checkProof",
      "outputs": [
        {
          "internalType": "bool",
          "name": "",
          "type": "bool"
        }
      ],
      "stateMutability": "nonpayable",
      "type": "function"
    },
    {
      "inputs": [
        {
          "internalType": "uint8",
          "name": "pieceId",
          "type": "uint8"
        },
        {
          "internalType": "uint8",
          "name": "toRow",
          "type": "uint8"
        },
        {
          "internalType": "uint8",
          "name": "toCol",
          "type": "uint8"
        }
      ],
      "name": "movePiece",
      "outputs": [],
      "stateMutability": "nonpayable",
      "type": "function"
    },
    {
      "inputs": [
        {
          "internalType": "uint256[2]",
          "name": "_a",
          "type": "uint256[2]"
        },
        {
          "internalType": "uint256[2][2]",
          "name": "_b",
          "type": "uint256[2][2]"
        },
        {
          "internalType": "uint256[2]",
          "name": "_c",
          "type": "uint256[2]"
        },
        {
          "internalType": "uint256[2]",
          "name": "_input",
          "type": "uint256[2]"
        },
        {
          "internalType": "uint8",
          "name": "pieceId",
          "type": "uint8"
        }
      ],
      "name": "moveGhost",
      "outputs": [],
      "stateMutability": "nonpayable",
      "type": "function"
    },
    {
      "inputs": [
        {
          "internalType": "uint8",
          "name": "pieceId",
          "type": "uint8"
        },
        {
          "internalType": "uint256",
          "name": "row",
          "type": "uint256"
        },
        {
          "internalType": "uint256",
          "name": "col",
          "type": "uint256"
        },
        {
          "internalType": "uint256",
          "name": "salt",
          "type": "uint256"
        }
      ],
      "name": "ghostAttack",
      "outputs": [],
      "stateMutability": "nonpayable",
      "type": "function"
    }
  ],
  "bytecode": "0x60806040523480156200001157600080fd5b5060405162005def38038062005def833981810160405281019062000037919062001926565b80601360006101000a81548160ff02191690831515021790555060008060016101000a81548160ff021916908360038111156200007057fe5b0217905550604051806101000160405280600160ff168152602001600260ff168152602001600360ff168152602001600460ff168152602001600560ff168152602001600660ff168152602001600760ff168152602001600860ff16815250600f906008620000e19291906200179a565b506040518060c00160405280600960ff168152602001600a60ff168152602001600b60ff168152602001600c60ff168152602001600d60ff168152602001600e60ff168152506011906006620001399291906200183b565b506040518060e00160405280600160ff168152602001600060028111156200015d57fe5b8152602001600073ffffffffffffffffffffffffffffffffffffffff168152602001600060ff168152602001600160ff168152602001600015158152602001600081525060106000600160ff16815260200190815260200160002060008201518160000160006101000a81548160ff021916908360ff16021790555060208201518160000160016101000a81548160ff02191690836002811115620001fe57fe5b021790555060408201518160000160026101000a81548173ffffffffffffffffffffffffffffffffffffffff021916908373ffffffffffffffffffffffffffffffffffffffff16021790555060608201518160000160166101000a81548160ff021916908360ff16021790555060808201518160000160176101000a81548160ff021916908360ff16021790555060a08201518160000160186101000a81548160ff02191690831515021790555060c08201518160010155905050600180600060078110620002c957fe5b01600160078110620002d757fe5b602091828204019190066101000a81548160ff021916908360ff1602179055506040518060e00160405280600260ff168152602001600160028111156200031a57fe5b8152602001600073ffffffffffffffffffffffffffffffffffffffff168152602001600060ff168152602001600360ff168152602001600015158152602001600081525060106000600260ff16815260200190815260200160002060008201518160000160006101000a81548160ff021916908360ff16021790555060208201518160000160016101000a81548160ff02191690836002811115620003bb57fe5b021790555060408201518160000160026101000a81548173ffffffffffffffffffffffffffffffffffffffff021916908373ffffffffffffffffffffffffffffffffffffffff16021790555060608201518160000160166101000a81548160ff021916908360ff16021790555060808201518160000160176101000a81548160ff021916908360ff16021790555060a08201518160000160186101000a81548160ff02191690831515021790555060c08201518160010155905050600260016000600781106200048757fe5b016003600781106200049557fe5b602091828204019190066101000a81548160ff021916908360ff1602179055506040518060e00160405280600360ff16815260200160006002811115620004d857fe5b8152602001600073ffffffffffffffffffffffffffffffffffffffff168152602001600060ff168152602001600560ff168152602001600015158152602001600081525060106000600360ff16815260200190815260200160002060008201518160000160006101000a81548160ff021916908360ff16021790555060208201518160000160016101000a81548160ff021916908360028111156200057957fe5b021790555060408201518160000160026101000a81548173ffffffffffffffffffffffffffffffffffffffff021916908373ffffffffffffffffffffffffffffffffffffffff16021790555060608201518160000160166101000a81548160ff021916908360ff16021790555060808201518160000160176101000a81548160ff021916908360ff16021790555060a08201518160000160186101000a81548160ff02191690831515021790555060c08201518160010155905050600360016000600781106200064557fe5b016005600781106200065357fe5b602091828204019190066101000a81548160ff021916908360ff1602179055506040518060e00160405280600460ff1681526020016002808111156200069557fe5b8152602001600073ffffffffffffffffffffffffffffffffffffffff168152602001600060ff168152602001600060ff1681526020016000151581526020017f104ddaefd01036b8465b22025720f944733190135fd4ed564186bc3cfcaec72281525060106000600460ff16815260200190815260200160002060008201518160000160006101000a81548160ff021916908360ff16021790555060208201518160000160016101000a81548160ff021916908360028111156200075557fe5b021790555060408201518160000160026101000a81548173ffffffffffffffffffffffffffffffffffffffff021916908373ffffffffffffffffffffffffffffffffffffffff16021790555060608201518160000160166101000a81548160ff021916908360ff16021790555060808201518160000160176101000a81548160ff021916908360ff16021790555060a08201518160000160186101000a81548160ff02191690831515021790555060c082015181600101559050506040518060e00160405280600560ff168152602001600060028111156200083357fe5b8152602001600073ffffffffffffffffffffffffffffffffffffffff168152602001600660ff168152602001600160ff168152602001600015158152602001600081525060106000600560ff16815260200190815260200160002060008201518160000160006101000a81548160ff021916908360ff16021790555060208201518160000160016101000a81548160ff02191690836002811115620008d457fe5b021790555060408201518160000160026101000a81548173ffffffffffffffffffffffffffffffffffffffff021916908373ffffffffffffffffffffffffffffffffffffffff16021790555060608201518160000160166101000a81548160ff021916908360ff16021790555060808201518160000160176101000a81548160ff021916908360ff16021790555060a08201518160000160186101000a81548160ff02191690831515021790555060c0820151816001015590505060056001600660078110620009a057fe5b01600160078110620009ae57fe5b602091828204019190066101000a81548160ff021916908360ff1602179055506040518060e00160405280600660ff16815260200160016002811115620009f157fe5b8152602001600073ffffffffffffffffffffffffffffffffffffffff168152602001600660ff168152602001600360ff168152602001600015158152602001600081525060106000600660ff16815260200190815260200160002060008201518160000160006101000a81548160ff021916908360ff16021790555060208201518160000160016101000a81548160ff0219169083600281111562000a9257fe5b021790555060408201518160000160026101000a81548173ffffffffffffffffffffffffffffffffffffffff021916908373ffffffffffffffffffffffffffffffffffffffff16021790555060608201518160000160166101000a81548160ff021916908360ff16021790555060808201518160000160176101000a81548160ff021916908360ff16021790555060a08201518160000160186101000a81548160ff02191690831515021790555060c082015181600101559050506006600160066007811062000b5e57fe5b0160036007811062000b6c57fe5b602091828204019190066101000a81548160ff021916908360ff1602179055506040518060e00160405280600760ff1681526020016000600281111562000baf57fe5b8152602001600073ffffffffffffffffffffffffffffffffffffffff168152602001600660ff168152602001600560ff168152602001600015158152602001600081525060106000600760ff16815260200190815260200160002060008201518160000160006101000a81548160ff021916908360ff16021790555060208201518160000160016101000a81548160ff0219169083600281111562000c5057fe5b021790555060408201518160000160026101000a81548173ffffffffffffffffffffffffffffffffffffffff021916908373ffffffffffffffffffffffffffffffffffffffff16021790555060608201518160000160166101000a81548160ff021916908360ff16021790555060808201518160000160176101000a81548160ff021916908360ff16021790555060a08201518160000160186101000a81548160ff02191690831515021790555060c082015181600101559050506007600160066007811062000d1c57fe5b0160056007811062000d2a57fe5b602091828204019190066101000a81548160ff021916908360ff1602179055506040518060e00160405280600860ff16815260200160028081111562000d6c57fe5b8152602001600073ffffffffffffffffffffffffffffffffffffffff168152602001600660ff168152602001600060ff1681526020016000151581526020017f104ddaefd01036b8465b22025720f944733190135fd4ed564186bc3cfcaec72281525060106000600860ff16815260200190815260200160002060008201518160000160006101000a81548160ff021916908360ff16021790555060208201518160000160016101000a81548160ff0219169083600281111562000e2c57fe5b021790555060408201518160000160026101000a81548173ffffffffffffffffffffffffffffffffffffffff021916908373ffffffffffffffffffffffffffffffffffffffff16021790555060608201518160000160166101000a81548160ff021916908360ff16021790555060808201518160000160176101000a81548160ff021916908360ff16021790555060a08201518160000160186101000a81548160ff02191690831515021790555060c082015181600101559050506040518060a00160405280600960ff168152602001600560ff168152602001600360ff168152602001600060ff168152602001600073ffffffffffffffffffffffffffffffffffffffff1681525060126000600960ff16815260200190815260200160002060008201518160000160006101000a81548160ff021916908360ff16021790555060208201518160000160016101000a81548160ff021916908360ff16021790555060408201518160000160026101000a81548160ff021916908360ff16021790555060608201518160000160036101000a81548160ff021916908360ff16021790555060808201518160000160046101000a81548173ffffffffffffffffffffffffffffffffffffffff021916908373ffffffffffffffffffffffffffffffffffffffff160217905550905050600960086003600781106200102b57fe5b016000600781106200103957fe5b602091828204019190066101000a81548160ff021916908360ff1602179055506040518060a00160405280600a60ff168152602001600560ff168152602001600260ff168152602001600260ff168152602001600073ffffffffffffffffffffffffffffffffffffffff1681525060126000600a60ff16815260200190815260200160002060008201518160000160006101000a81548160ff021916908360ff16021790555060208201518160000160016101000a81548160ff021916908360ff16021790555060408201518160000160026101000a81548160ff021916908360ff16021790555060608201518160000160036101000a81548160ff021916908360ff16021790555060808201518160000160046101000a81548173ffffffffffffffffffffffffffffffffffffffff021916908373ffffffffffffffffffffffffffffffffffffffff160217905550905050600a60086002600781106200119d57fe5b01600260078110620011ab57fe5b602091828204019190066101000a81548160ff021916908360ff1602179055506040518060a00160405280600b60ff168152602001600a60ff168152602001600460ff168152602001600260ff168152602001600073ffffffffffffffffffffffffffffffffffffffff1681525060126000600b60ff16815260200190815260200160002060008201518160000160006101000a81548160ff021916908360ff16021790555060208201518160000160016101000a81548160ff021916908360ff16021790555060408201518160000160026101000a81548160ff021916908360ff16021790555060608201518160000160036101000a81548160ff021916908360ff16021790555060808201518160000160046101000a81548173ffffffffffffffffffffffffffffffffffffffff021916908373ffffffffffffffffffffffffffffffffffffffff160217905550905050600b60086004600781106200130f57fe5b016002600781106200131d57fe5b602091828204019190066101000a81548160ff021916908360ff1602179055506040518060a00160405280600c60ff168152602001600a60ff168152602001600260ff168152602001600460ff168152602001600073ffffffffffffffffffffffffffffffffffffffff1681525060126000600c60ff16815260200190815260200160002060008201518160000160006101000a81548160ff021916908360ff16021790555060208201518160000160016101000a81548160ff021916908360ff16021790555060408201518160000160026101000a81548160ff021916908360ff16021790555060608201518160000160036101000a81548160ff021916908360ff16021790555060808201518160000160046101000a81548173ffffffffffffffffffffffffffffffffffffffff021916908373ffffffffffffffffffffffffffffffffffffffff160217905550905050600c60086002600781106200148157fe5b016004600781106200148f57fe5b602091828204019190066101000a81548160ff021916908360ff1602179055506040518060a00160405280600d60ff168152602001600560ff168152602001600460ff168152602001600460ff168152602001600073ffffffffffffffffffffffffffffffffffffffff1681525060126000600d60ff16815260200190815260200160002060008201518160000160006101000a81548160ff021916908360ff16021790555060208201518160000160016101000a81548160ff021916908360ff16021790555060408201518160000160026101000a81548160ff021916908360ff16021790555060608201518160000160036101000a81548160ff021916908360ff16021790555060808201518160000160046101000a81548173ffffffffffffffffffffffffffffffffffffffff021916908373ffffffffffffffffffffffffffffffffffffffff160217905550905050600d6008600460078110620015f357fe5b016004600781106200160157fe5b602091828204019190066101000a81548160ff021916908360ff1602179055506040518060a00160405280600e60ff168152602001600560ff168152602001600360ff168152602001600660ff168152602001600073ffffffffffffffffffffffffffffffffffffffff1681525060126000600e60ff16815260200190815260200160002060008201518160000160006101000a81548160ff021916908360ff16021790555060208201518160000160016101000a81548160ff021916908360ff16021790555060408201518160000160026101000a81548160ff021916908360ff16021790555060608201518160000160036101000a81548160ff021916908360ff16021790555060808201518160000160046101000a81548173ffffffffffffffffffffffffffffffffffffffff021916908373ffffffffffffffffffffffffffffffffffffffff160217905550905050600e60086003600781106200176557fe5b016006600781106200177357fe5b602091828204019190066101000a81548160ff021916908360ff1602179055505062001978565b826008601f01602090048101928215620018285791602002820160005b83821115620017f757835183826101000a81548160ff021916908360ff1602179055509260200192600101602081600001049283019260010302620017b7565b8015620018265782816101000a81549060ff0219169055600101602081600001049283019260010302620017f7565b505b509050620018379190620018dc565b5090565b826006601f01602090048101928215620018c95791602002820160005b838211156200189857835183826101000a81548160ff021916908360ff160217905550926020019260010160208160000104928301926001030262001858565b8015620018c75782816101000a81549060ff021916905560010160208160000104928301926001030262001898565b505b509050620018d89190620018dc565b5090565b6200190c91905b808211156200190857600081816101000a81549060ff021916905550600101620018e3565b5090565b90565b60008151905062001920816200195e565b92915050565b6000602082840312156200193957600080fd5b600062001949848285016200190f565b91505092915050565b60008115159050919050565b620019698162001952565b81146200197557600080fd5b50565b61446780620019886000396000f3fe608060405234801561001057600080fd5b506004361061018d5760003560e01c806396d57948116100de578063cfecc6de11610097578063d4f77b1c11610071578063d4f77b1c146104bc578063dc4a3e95146104c6578063e645206a146104e4578063fb2fac76146105005761018d565b8063cfecc6de14610450578063d1f9c24d14610480578063d30895e41461049e5761018d565b806396d579481461037a578063acbc1a9114610396578063b0228246146103b4578063bd91fdb4146103e4578063c6204ee214610402578063cf615f6c146104325761018d565b8063562fb4271161014b5780635c3beb32116101255780635c3beb32146102ec5780637174f2c0146103205780637e15247d1461033e5780638af9d5621461035c5761018d565b8063562fb427146102945780635700401e146102b057806359a5f12d146102ce5761018d565b80621c7f2214610192578063210851b5146101c25780632c784f32146101f25780633fb7388e14610228578063414a37ba1461025857806351df541c14610276575b600080fd5b6101ac60048036038101906101a79190613434565b610530565b6040516101b9919061403c565b60405180910390f35b6101dc60048036038101906101d79190613342565b610788565b6040516101e99190613e26565b60405180910390f35b61020c60048036038101906102079190613483565b610a91565b60405161021f97969594939291906140a9565b60405180910390f35b610242600480360381019061023d91906133bc565b610b34565b60405161024f919061408e565b60405180910390f35b610260610b6a565b60405161026d919061403c565b60405180910390f35b61027e610b8e565b60405161028b9190613e26565b60405180910390f35b6102ae60048036038101906102a9919061329f565b610d01565b005b6102b8611161565b6040516102c5919061408e565b60405180910390f35b6102d6611173565b6040516102e39190613d3c565b60405180910390f35b61030660048036038101906103019190613483565b611199565b604051610317959493929190614118565b60405180910390f35b610328611223565b604051610335919061408e565b60405180910390f35b610346611235565b6040516103539190613d9b565b60405180910390f35b6103646113df565b6040516103719190613e26565b60405180910390f35b610394600480360381019061038f91906134ac565b6113f2565b005b61039e611942565b6040516103ab919061403c565b60405180910390f35b6103ce60048036038101906103c991906133bc565b611966565b6040516103db919061408e565b60405180910390f35b6103ec61199c565b6040516103f9919061408e565b60405180910390f35b61041c60048036038101906104179190613393565b6119af565b604051610429919061408e565b60405180910390f35b61043a6119d6565b6040516104479190613dbd565b60405180910390f35b61046a60048036038101906104659190613393565b611bb5565b604051610477919061408e565b60405180910390f35b610488611bdc565b6040516104959190613e41565b60405180910390f35b6104a6611bef565b6040516104b39190613d3c565b60405180910390f35b6104c4611c15565b005b6104ce612089565b6040516104db919061403c565b60405180910390f35b6104fe60048036038101906104f9919061350f565b61208e565b005b61051a6004803603810190610515919061323a565b6127d1565b6040516105279190613e26565b60405180910390f35b6000806000905060008090507f30644e72e131a029b85045b68181585d2833e84879b9709143e1f593f00000018061056457fe5b868308915073__Hasher________________________________633f1a1187838360006040518463ffffffff1660e01b81526004016105a593929190614057565b604080518083038186803b1580156105bc57600080fd5b505af41580156105d0573d6000803e3d6000fd5b505050506040513d601f19601f820116820180604052508101906105f491906133f8565b80925081935050507f30644e72e131a029b85045b68181585d2833e84879b9709143e1f593f00000018061062457fe5b858308915073__Hasher________________________________633f1a1187838360006040518463ffffffff1660e01b815260040161066593929190614057565b604080518083038186803b15801561067c57600080fd5b505af4158015610690573d6000803e3d6000fd5b505050506040513d601f19601f820116820180604052508101906106b491906133f8565b80925081935050507f30644e72e131a029b85045b68181585d2833e84879b9709143e1f593f0000001806106e457fe5b848308915073__Hasher________________________________633f1a1187838360006040518463ffffffff1660e01b815260040161072593929190614057565b604080518083038186803b15801561073c57600080fd5b505af4158015610750573d6000803e3d6000fd5b505050506040513d601f19601f8201168201806040525081019061077491906133f8565b809250819350505081925050509392505050565b600060078360ff161015806107a1575060078260ff1610155b156107af5760009050610a8a565b600060018460ff16600781106107c157fe5b018360ff16600781106107d057fe5b602091828204019190069054906101000a900460ff1660ff1611156107f85760009050610a8a565b60028081111561080457fe5b8460200151600281111561081457fe5b14156108235760009050610a8a565b6000600281111561083057fe5b8460200151600281111561084057fe5b1415610926578260ff16846060015160ff1614801561086857508160ff16846080015160ff16145b156108765760009050610a8a565b60008360ff16856060015160ff1603905060018160010b13806108bb57507fffffffffffffffffffffffffffffffffffffffffffffffffffffffffffffffff8160010b125b156108ca576000915050610a8a565b60008360ff16866080015160ff1603905060018160010b138061090f57507fffffffffffffffffffffffffffffffffffffffffffffffffffffffffffffffff8160010b125b1561091f57600092505050610a8a565b5050610a85565b6001600281111561093357fe5b8460200151600281111561094357fe5b1415610a845760008360ff16856060015160ff1603905060008360ff16866080015160ff1603905060028260010b148061099f57507ffffffffffffffffffffffffffffffffffffffffffffffffffffffffffffffffe8260010b145b156109f05760018160010b141580156109db57507fffffffffffffffffffffffffffffffffffffffffffffffffffffffffffffffff8160010b14155b156109eb57600092505050610a8a565b610a81565b60018260010b1480610a2457507fffffffffffffffffffffffffffffffffffffffffffffffffffffffffffffffff8260010b145b15610a755760028160010b14158015610a6057507ffffffffffffffffffffffffffffffffffffffffffffffffffffffffffffffffe8160010b14155b15610a7057600092505050610a8a565b610a80565b600092505050610a8a565b5b50505b5b600190505b9392505050565b60106020528060005260406000206000915090508060000160009054906101000a900460ff16908060000160019054906101000a900460ff16908060000160029054906101000a900473ffffffffffffffffffffffffffffffffffffffff16908060000160169054906101000a900460ff16908060000160179054906101000a900460ff16908060000160189054906101000a900460ff16908060010154905087565b60018260078110610b4157fe5b018160078110610b4d57fe5b60209182820401919006915091509054906101000a900460ff1681565b7f30644e72e131a029b85045b68181585d2833e84879b9709143e1f593f000000181565b6000806001905060008090505b60088160ff161015610c105760106000600f8360ff1660088110610bbb57fe5b602091828204019190069054906101000a900460ff1660ff1660ff16815260200190815260200160002060000160189054906101000a900460ff16610c035760009150610c10565b8080600101915050610b9b565b508015610c21576001915050610cfe565b60006001905060008090505b60068160ff161015610ce557600073ffffffffffffffffffffffffffffffffffffffff166012600060118460ff1660068110610c6557fe5b602091828204019190069054906101000a900460ff1660ff1660ff16815260200190815260200160002060000160049054906101000a900473ffffffffffffffffffffffffffffffffffffffff1673ffffffffffffffffffffffffffffffffffffffff161415610cd85760009150610ce5565b8080600101915050610c2d565b508015610cf757600192505050610cfe565b6000925050505b90565b600380811115610d0d57fe5b600060019054906101000a900460ff166003811115610d2857fe5b1415610d69576040517f08c379a0000000000000000000000000000000000000000000000000000000008152600401610d6090613f3c565b60405180910390fd5b601360019054906101000a900473ffffffffffffffffffffffffffffffffffffffff1673ffffffffffffffffffffffffffffffffffffffff163373ffffffffffffffffffffffffffffffffffffffff161415610e285760016003811115610dcc57fe5b600060019054906101000a900460ff166003811115610de757fe5b14610e27576040517f08c379a0000000000000000000000000000000000000000000000000000000008152600401610e1e9061401c565b60405180910390fd5b5b601460009054906101000a900473ffffffffffffffffffffffffffffffffffffffff1673ffffffffffffffffffffffffffffffffffffffff163373ffffffffffffffffffffffffffffffffffffffff161415610ee75760026003811115610e8b57fe5b600060019054906101000a900460ff166003811115610ea657fe5b14610ee6576040517f08c379a0000000000000000000000000000000000000000000000000000000008152600401610edd90613f5c565b60405180910390fd5b5b6000601060008360ff1660ff1681526020019081526020016000209050600280811115610f1057fe5b8160000160019054906101000a900460ff166002811115610f2d57fe5b14610f6d576040517f08c379a0000000000000000000000000000000000000000000000000000000008152600401610f6490613f1c565b60405180910390fd5b3373ffffffffffffffffffffffffffffffffffffffff168160000160029054906101000a900473ffffffffffffffffffffffffffffffffffffffff1673ffffffffffffffffffffffffffffffffffffffff1614610fff576040517f08c379a0000000000000000000000000000000000000000000000000000000008152600401610ff690613ffc565b60405180910390fd5b8260006002811061100c57fe5b6020020151816001015414611056576040517f08c379a000000000000000000000000000000000000000000000000000000000815260040161104d90613f9c565b60405180910390fd5b601360009054906101000a900460ff166111375773__Verifier______________________________63ab475307878787876040518563ffffffff1660e01b81526004016110a79493929190613ddf565b60206040518083038186803b1580156110bf57600080fd5b505af41580156110d3573d6000803e3d6000fd5b505050506040513d601f19601f820116820180604052508101906110f79190613319565b611136576040517f08c379a000000000000000000000000000000000000000000000000000000000815260040161112d90613ebc565b60405180910390fd5b5b8260016002811061114457fe5b6020020151816001018190555061115961290a565b505050505050565b6000809054906101000a900460ff1681565b601460009054906101000a900473ffffffffffffffffffffffffffffffffffffffff1681565b60126020528060005260406000206000915090508060000160009054906101000a900460ff16908060000160019054906101000a900460ff16908060000160029054906101000a900460ff16908060000160039054906101000a900460ff16908060000160049054906101000a900473ffffffffffffffffffffffffffffffffffffffff16905085565b6014809054906101000a900460ff1681565b6060600667ffffffffffffffff8111801561124f57600080fd5b5060405190808252806020026020018201604052801561128957816020015b611276612f55565b81526020019060019003908161126e5790505b50905060008090505b60068160ff1610156113d8576012600060118360ff16600681106112b257fe5b602091828204019190069054906101000a900460ff1660ff1660ff1681526020019081526020016000206040518060a00160405290816000820160009054906101000a900460ff1660ff1660ff1681526020016000820160019054906101000a900460ff1660ff1660ff1681526020016000820160029054906101000a900460ff1660ff1660ff1681526020016000820160039054906101000a900460ff1660ff1660ff1681526020016000820160049054906101000a900473ffffffffffffffffffffffffffffffffffffffff1673ffffffffffffffffffffffffffffffffffffffff1673ffffffffffffffffffffffffffffffffffffffff1681525050828260ff16815181106113c057fe5b60200260200101819052508080600101915050611292565b5080905090565b601360009054906101000a900460ff1681565b6003808111156113fe57fe5b600060019054906101000a900460ff16600381111561141957fe5b141561145a576040517f08c379a000000000000000000000000000000000000000000000000000000000815260040161145190613f3c565b60405180910390fd5b601360019054906101000a900473ffffffffffffffffffffffffffffffffffffffff1673ffffffffffffffffffffffffffffffffffffffff163373ffffffffffffffffffffffffffffffffffffffff16141561151957600160038111156114bd57fe5b600060019054906101000a900460ff1660038111156114d857fe5b14611518576040517f08c379a000000000000000000000000000000000000000000000000000000000815260040161150f9061401c565b60405180910390fd5b5b601460009054906101000a900473ffffffffffffffffffffffffffffffffffffffff1673ffffffffffffffffffffffffffffffffffffffff163373ffffffffffffffffffffffffffffffffffffffff1614156115d8576002600381111561157c57fe5b600060019054906101000a900460ff16600381111561159757fe5b146115d7576040517f08c379a00000000000000000000000000000000000000000000000000000000081526004016115ce90613f5c565b60405180910390fd5b5b60008060009054906101000a900460ff1660ff161161162c576040517f08c379a000000000000000000000000000000000000000000000000000000000815260040161162390613fbc565b60405180910390fd5b6000601060008660ff1660ff168152602001908152602001600020905060028081111561165557fe5b8160000160019054906101000a900460ff16600281111561167257fe5b146116b2576040517f08c379a00000000000000000000000000000000000000000000000000000000081526004016116a990613f1c565b60405180910390fd5b3373ffffffffffffffffffffffffffffffffffffffff168160000160029054906101000a900473ffffffffffffffffffffffffffffffffffffffff1673ffffffffffffffffffffffffffffffffffffffff1614611744576040517f08c379a000000000000000000000000000000000000000000000000000000000815260040161173b90613ffc565b60405180910390fd5b8060010154611754858585610530565b14611794576040517f08c379a000000000000000000000000000000000000000000000000000000000815260040161178b90613f7c565b60405180910390fd5b600060106000600187600781106117a757fe5b0186600781106117b357fe5b602091828204019190069054906101000a900460ff1660ff1660ff16815260200190815260200160002090506000601360019054906101000a900473ffffffffffffffffffffffffffffffffffffffff169050601360019054906101000a900473ffffffffffffffffffffffffffffffffffffffff1673ffffffffffffffffffffffffffffffffffffffff163373ffffffffffffffffffffffffffffffffffffffff16141561188257601460009054906101000a900473ffffffffffffffffffffffffffffffffffffffff1690505b8073ffffffffffffffffffffffffffffffffffffffff168260000160029054906101000a900473ffffffffffffffffffffffffffffffffffffffff1673ffffffffffffffffffffffffffffffffffffffff1614611914576040517f08c379a000000000000000000000000000000000000000000000000000000000815260040161190b90613efc565b60405180910390fd5b60018260000160186101000a81548160ff02191690831515021790555061193961290a565b50505050505050565b7f104ddaefd01036b8465b22025720f944733190135fd4ed564186bc3cfcaec72281565b6008826007811061197357fe5b01816007811061197f57fe5b60209182820401919006915091509054906101000a900460ff1681565b601460159054906101000a900460ff1681565b601181600681106119bc57fe5b60209182820401919006915054906101000a900460ff1681565b6060600867ffffffffffffffff811180156119f057600080fd5b50604051908082528060200260200182016040528015611a2a57816020015b611a17612fa6565b815260200190600190039081611a0f5790505b50905060008090505b60088160ff161015611bae5760106000600f8360ff1660088110611a5357fe5b602091828204019190069054906101000a900460ff1660ff1660ff1681526020019081526020016000206040518060e00160405290816000820160009054906101000a900460ff1660ff1660ff1681526020016000820160019054906101000a900460ff166002811115611ac357fe5b6002811115611ace57fe5b81526020016000820160029054906101000a900473ffffffffffffffffffffffffffffffffffffffff1673ffffffffffffffffffffffffffffffffffffffff1673ffffffffffffffffffffffffffffffffffffffff1681526020016000820160169054906101000a900460ff1660ff1660ff1681526020016000820160179054906101000a900460ff1660ff1660ff1681526020016000820160189054906101000a900460ff16151515158152602001600182015481525050828260ff1681518110611b9657fe5b60200260200101819052508080600101915050611a33565b5080905090565b600f8160088110611bc257fe5b60209182820401919006915054906101000a900460ff1681565b600060019054906101000a900460ff1681565b601360019054906101000a900473ffffffffffffffffffffffffffffffffffffffff1681565b60006003811115611c2257fe5b600060019054906101000a900460ff166003811115611c3d57fe5b14611c7d576040517f08c379a0000000000000000000000000000000000000000000000000000000008152600401611c7490613fdc565b60405180910390fd5b600073ffffffffffffffffffffffffffffffffffffffff16601360019054906101000a900473ffffffffffffffffffffffffffffffffffffffff1673ffffffffffffffffffffffffffffffffffffffff161415611d1a5733601360016101000a81548173ffffffffffffffffffffffffffffffffffffffff021916908373ffffffffffffffffffffffffffffffffffffffff160217905550612087565b601360019054906101000a900473ffffffffffffffffffffffffffffffffffffffff1673ffffffffffffffffffffffffffffffffffffffff163373ffffffffffffffffffffffffffffffffffffffff161415611dab576040517f08c379a0000000000000000000000000000000000000000000000000000000008152600401611da290613e7c565b60405180910390fd5b600060024281611db757fe5b061415611e045733601460006101000a81548173ffffffffffffffffffffffffffffffffffffffff021916908373ffffffffffffffffffffffffffffffffffffffff160217905550611ea9565b601360019054906101000a900473ffffffffffffffffffffffffffffffffffffffff16601460006101000a81548173ffffffffffffffffffffffffffffffffffffffff021916908373ffffffffffffffffffffffffffffffffffffffff16021790555033601360016101000a81548173ffffffffffffffffffffffffffffffffffffffff021916908373ffffffffffffffffffffffffffffffffffffffff1602179055505b6000600190505b60058160ff161015611f4657601360019054906101000a900473ffffffffffffffffffffffffffffffffffffffff16601060008360ff1660ff16815260200190815260200160002060000160026101000a81548173ffffffffffffffffffffffffffffffffffffffff021916908373ffffffffffffffffffffffffffffffffffffffff1602179055508080600101915050611eb0565b506000600590505b60098160ff161015611fe457601460009054906101000a900473ffffffffffffffffffffffffffffffffffffffff16601060008360ff1660ff16815260200190815260200160002060000160026101000a81548173ffffffffffffffffffffffffffffffffffffffff021916908373ffffffffffffffffffffffffffffffffffffffff1602179055508080600101915050611f4e565b506001600060016101000a81548160ff0219169083600381111561200457fe5b02179055507f8fd707874eb940598510258c64cad23fd35fe8c85c5c38e8782fac2cc887fb6e601360019054906101000a900473ffffffffffffffffffffffffffffffffffffffff16601460009054906101000a900473ffffffffffffffffffffffffffffffffffffffff1660405161207e929190613d72565b60405180910390a15b565b600781565b60038081111561209a57fe5b600060019054906101000a900460ff1660038111156120b557fe5b14156120f6576040517f08c379a00000000000000000000000000000000000000000000000000000000081526004016120ed90613f3c565b60405180910390fd5b601360019054906101000a900473ffffffffffffffffffffffffffffffffffffffff1673ffffffffffffffffffffffffffffffffffffffff163373ffffffffffffffffffffffffffffffffffffffff1614156121b5576001600381111561215957fe5b600060019054906101000a900460ff16600381111561217457fe5b146121b4576040517f08c379a00000000000000000000000000000000000000000000000000000000081526004016121ab9061401c565b60405180910390fd5b5b601460009054906101000a900473ffffffffffffffffffffffffffffffffffffffff1673ffffffffffffffffffffffffffffffffffffffff163373ffffffffffffffffffffffffffffffffffffffff161415612274576002600381111561221857fe5b600060019054906101000a900460ff16600381111561223357fe5b14612273576040517f08c379a000000000000000000000000000000000000000000000000000000000815260040161226a90613f5c565b60405180910390fd5b5b6000601060008560ff1660ff16815260200190815260200160002090503373ffffffffffffffffffffffffffffffffffffffff168160000160029054906101000a900473ffffffffffffffffffffffffffffffffffffffff1673ffffffffffffffffffffffffffffffffffffffff1614612323576040517f08c379a000000000000000000000000000000000000000000000000000000000815260040161231a90613ffc565b60405180910390fd5b8060000160189054906101000a900460ff1615612375576040517f08c379a000000000000000000000000000000000000000000000000000000000815260040161236c90613e5c565b60405180910390fd5b61248a816040518060e00160405290816000820160009054906101000a900460ff1660ff1660ff1681526020016000820160019054906101000a900460ff1660028111156123bf57fe5b60028111156123ca57fe5b81526020016000820160029054906101000a900473ffffffffffffffffffffffffffffffffffffffff1673ffffffffffffffffffffffffffffffffffffffff1673ffffffffffffffffffffffffffffffffffffffff1681526020016000820160169054906101000a900460ff1660ff1660ff1681526020016000820160179054906101000a900460ff1660ff1660ff1681526020016000820160189054906101000a900460ff161515151581526020016001820154815250508484610788565b6124c9576040517f08c379a00000000000000000000000000000000000000000000000000000000081526004016124c090613edc565b60405180910390fd5b600060018260000160169054906101000a900460ff1660ff16600781106124ec57fe5b018260000160179054906101000a900460ff1660ff166007811061250c57fe5b602091828204019190066101000a81548160ff021916908360ff1602179055508060000160009054906101000a900460ff1660018460ff166007811061254e57fe5b018360ff166007811061255d57fe5b602091828204019190066101000a81548160ff021916908360ff160217905550828160000160166101000a81548160ff021916908360ff160217905550818160000160176101000a81548160ff021916908360ff16021790555060006012600060088660ff16600781106125cd57fe5b018560ff16600781106125dc57fe5b602091828204019190069054906101000a900460ff1660ff1660ff16815260200190815260200160002060000160019054906101000a900460ff1660ff161180156126c35750600073ffffffffffffffffffffffffffffffffffffffff166012600060088660ff166007811061264e57fe5b018560ff166007811061265d57fe5b602091828204019190069054906101000a900460ff1660ff1660ff16815260200190815260200160002060000160049054906101000a900473ffffffffffffffffffffffffffffffffffffffff1673ffffffffffffffffffffffffffffffffffffffff16145b156127c357601360019054906101000a900473ffffffffffffffffffffffffffffffffffffffff1673ffffffffffffffffffffffffffffffffffffffff163373ffffffffffffffffffffffffffffffffffffffff1614156127725760088360ff166007811061272e57fe5b018260ff166007811061273d57fe5b602091828204019190069054906101000a900460ff16601460166101000a81548160ff021916908360ff1602179055506127c2565b60088360ff166007811061278257fe5b018260ff166007811061279157fe5b602091828204019190069054906101000a900460ff16601460176101000a81548160ff021916908360ff1602179055505b5b6127cb61290a565b50505050565b6000601360009054906101000a900460ff166128b45773__Verifier______________________________63ab475307868686866040518563ffffffff1660e01b81526004016128249493929190613ddf565b60206040518083038186803b15801561283c57600080fd5b505af4158015612850573d6000803e3d6000fd5b505050506040513d601f19601f820116820180604052508101906128749190613319565b6128b3576040517f08c379a00000000000000000000000000000000000000000000000000000000081526004016128aa90613e9c565b60405180910390fd5b5b60016015600082825401925050819055507f4eb5ee08f6bd1352ed7b0dac0ee5e5b7cb984b0477d694d9db613b705f47f2ab6015546040516128f6919061403c565b60405180910390a160019050949350505050565b601360019054906101000a900473ffffffffffffffffffffffffffffffffffffffff1673ffffffffffffffffffffffffffffffffffffffff163373ffffffffffffffffffffffffffffffffffffffff161415612bf957600060126000601460179054906101000a900460ff1660ff1660ff168152602001908152602001600020905060008160000160019054906101000a900460ff1660ff16118015612a005750600073ffffffffffffffffffffffffffffffffffffffff168160000160049054906101000a900473ffffffffffffffffffffffffffffffffffffffff1673ffffffffffffffffffffffffffffffffffffffff16145b15612bb35760006010600060018460000160029054906101000a900460ff1660ff1660078110612a2c57fe5b018460000160039054906101000a900460ff1660ff1660078110612a4c57fe5b602091828204019190069054906101000a900460ff1660ff1660ff1681526020019081526020016000209050601460009054906101000a900473ffffffffffffffffffffffffffffffffffffffff1673ffffffffffffffffffffffffffffffffffffffff168160000160029054906101000a900473ffffffffffffffffffffffffffffffffffffffff1673ffffffffffffffffffffffffffffffffffffffff16148015612b0857508060000160189054906101000a900460ff16155b15612bb157601460009054906101000a900473ffffffffffffffffffffffffffffffffffffffff168260000160046101000a81548173ffffffffffffffffffffffffffffffffffffffff021916908373ffffffffffffffffffffffffffffffffffffffff1602179055508160000160019054906101000a900460ff16601460158282829054906101000a900460ff160192506101000a81548160ff021916908360ff1602179055505b505b6000601460176101000a81548160ff021916908360ff1602179055506002600060016101000a81548160ff02191690836003811115612bee57fe5b021790555050612ebe565b600060126000601460169054906101000a900460ff1660ff1660ff168152602001908152602001600020905060008160000160019054906101000a900460ff1660ff16118015612c995750600073ffffffffffffffffffffffffffffffffffffffff168160000160049054906101000a900473ffffffffffffffffffffffffffffffffffffffff1673ffffffffffffffffffffffffffffffffffffffff16145b15612e4b5760006010600060018460000160029054906101000a900460ff1660ff1660078110612cc557fe5b018460000160039054906101000a900460ff1660ff1660078110612ce557fe5b602091828204019190069054906101000a900460ff1660ff1660ff1681526020019081526020016000209050601360019054906101000a900473ffffffffffffffffffffffffffffffffffffffff1673ffffffffffffffffffffffffffffffffffffffff168160000160029054906101000a900473ffffffffffffffffffffffffffffffffffffffff1673ffffffffffffffffffffffffffffffffffffffff16148015612da157508060000160189054906101000a900460ff16155b15612e4957601360019054906101000a900473ffffffffffffffffffffffffffffffffffffffff168260000160046101000a81548173ffffffffffffffffffffffffffffffffffffffff021916908373ffffffffffffffffffffffffffffffffffffffff1602179055508160000160019054906101000a900460ff166014808282829054906101000a900460ff160192506101000a81548160ff021916908360ff1602179055505b505b6000601460166101000a81548160ff021916908360ff16021790555060008081819054906101000a900460ff168092919060010191906101000a81548160ff021916908360ff160217905550506001600060016101000a81548160ff02191690836003811115612eb757fe5b0217905550505b7f8eaa9f09cc5e3b56163bc8d93f99b4299c7172f83d51d1448e8d9a3dc6d1a10133604051612eed9190613d57565b60405180910390a1612efd610b8e565b15612f53576003600060016101000a81548160ff02191690836003811115612f2157fe5b02179055507fb537cbcadc098cfedf5a04ef7e68a8554b55f7e45bfdaca1cbc51a686ef65f4860405160405180910390a15b565b6040518060a00160405280600060ff168152602001600060ff168152602001600060ff168152602001600060ff168152602001600073ffffffffffffffffffffffffffffffffffffffff1681525090565b6040518060e00160405280600060ff16815260200160006002811115612fc857fe5b8152602001600073ffffffffffffffffffffffffffffffffffffffff168152602001600060ff168152602001600060ff168152602001600015158152602001600081525090565b60008135905061301e816143c5565b92915050565b600082601f83011261303557600080fd5b600261304861304382614198565b61416b565b9150818385604084028201111561305e57600080fd5b60005b8381101561308e57816130748882613098565b845260208401935060408301925050600181019050613061565b5050505092915050565b600082601f8301126130a957600080fd5b60026130bc6130b7826141ba565b61416b565b915081838560208402820111156130d257600080fd5b60005b8381101561310257816130e888826131fb565b8452602084019350602083019250506001810190506130d5565b5050505092915050565b60008135905061311b816143dc565b92915050565b600081519050613130816143dc565b92915050565b600081359050613145816143f3565b92915050565b600060e0828403121561315d57600080fd5b61316760e061416b565b9050600061317784828501613225565b600083015250602061318b84828501613136565b602083015250604061319f8482850161300f565b60408301525060606131b384828501613225565b60608301525060806131c784828501613225565b60808301525060a06131db8482850161310c565b60a08301525060c06131ef848285016131fb565b60c08301525092915050565b60008135905061320a81614403565b92915050565b60008151905061321f81614403565b92915050565b6000813590506132348161441a565b92915050565b600080600080610140858703121561325157600080fd5b600061325f87828801613098565b945050604061327087828801613024565b93505060c061328187828801613098565b92505061010061329387828801613098565b91505092959194509250565b600080600080600061016086880312156132b857600080fd5b60006132c688828901613098565b95505060406132d788828901613024565b94505060c06132e888828901613098565b9350506101006132fa88828901613098565b92505061014061330c88828901613225565b9150509295509295909350565b60006020828403121561332b57600080fd5b600061333984828501613121565b91505092915050565b6000806000610120848603121561335857600080fd5b60006133668682870161314b565b93505060e061337786828701613225565b92505061010061338986828701613225565b9150509250925092565b6000602082840312156133a557600080fd5b60006133b3848285016131fb565b91505092915050565b600080604083850312156133cf57600080fd5b60006133dd858286016131fb565b92505060206133ee858286016131fb565b9150509250929050565b6000806040838503121561340b57600080fd5b600061341985828601613210565b925050602061342a85828601613210565b9150509250929050565b60008060006060848603121561344957600080fd5b6000613457868287016131fb565b9350506020613468868287016131fb565b9250506040613479868287016131fb565b9150509250925092565b60006020828403121561349557600080fd5b60006134a384828501613225565b91505092915050565b600080600080608085870312156134c257600080fd5b60006134d087828801613225565b94505060206134e1878288016131fb565b93505060406134f2878288016131fb565b9250506060613503878288016131fb565b91505092959194509250565b60008060006060848603121561352457600080fd5b600061353286828701613225565b935050602061354386828701613225565b925050604061355486828701613225565b9150509250925092565b600061356a8383613755565b60408301905092915050565b60006135828383613bec565b60a08301905092915050565b600061359a8383613c54565b60e08301905092915050565b60006135b28383613d0f565b60208301905092915050565b6135c78161433f565b82525050565b6135d6816142c4565b82525050565b6135e5816142c4565b82525050565b6135f481614210565b6135fe8184614270565b9250613609826141dc565b8060005b8381101561363a578151613621878261355e565b965061362c8361423c565b92505060018101905061360d565b505050505050565b600061364d8261421b565b613657818561427b565b9350613662836141e6565b8060005b8381101561369357815161367a8882613576565b975061368583614249565b925050600181019050613666565b5085935050505092915050565b60006136ab82614226565b6136b5818561428c565b93506136c0836141f6565b8060005b838110156136f15781516136d8888261358e565b97506136e383614256565b9250506001810190506136c4565b5085935050505092915050565b61370781614231565b613711818461429d565b925061371c82614206565b8060005b8381101561374d57815161373487826135a6565b965061373f83614263565b925050600181019050613720565b505050505050565b61375e81614231565b61376881846142a8565b925061377382614206565b8060005b838110156137a457815161378b87826135a6565b965061379683614263565b925050600181019050613777565b505050505050565b6137b5816142d6565b82525050565b6137c4816142d6565b82525050565b6137d381614351565b82525050565b6137e281614363565b82525050565b6137f181614363565b82525050565b61380081614375565b82525050565b6000613813600d836142b3565b91507f50696563652069732064656164000000000000000000000000000000000000006000830152602082019050919050565b60006138536015836142b3565b91507f63616e2774206a6f696e2067616d6520747769636500000000000000000000006000830152602082019050919050565b60006138936017836142b3565b91507f4661696c656420696e69742070726f6f6620636865636b0000000000000000006000830152602082019050919050565b60006138d36014836142b3565b91507f4661696c6564207a6b206d6f766520636865636b0000000000000000000000006000830152602082019050919050565b6000613913600c836142b3565b91507f496e76616c6964206d6f766500000000000000000000000000000000000000006000830152602082019050919050565b60006139536029836142b3565b91507f63616e206f6e6c792072657665616c20746f2063617074757265206f70706f7360008301527f696e6720706965636500000000000000000000000000000000000000000000006020830152604082019050919050565b60006139b96015836142b3565b91507f5069656365206d75737420626520612067686f737400000000000000000000006000830152602082019050919050565b60006139f9600d836142b3565b91507f47616d6520697320656e646564000000000000000000000000000000000000006000830152602082019050919050565b6000613a39600d836142b3565b91507f4e6f742070322773207475726e000000000000000000000000000000000000006000830152602082019050919050565b6000613a79600e836142b3565b91507f496e76616c69642072657665616c0000000000000000000000000000000000006000830152602082019050919050565b6000613ab96010836142b3565b91507f5a4b2050726f6f6620696e76616c6964000000000000000000000000000000006000830152602082019050919050565b6000613af9601d836142b3565b91507f4d757374206d6f76652067686f7374206f6e206669727374207475726e0000006000830152602082019050919050565b6000613b396014836142b3565b91507f47616d6520616c726561647920737461727465640000000000000000000000006000830152602082019050919050565b6000613b796018836142b3565b91507f596f7520646f6e2774206f776e207468617420706965636500000000000000006000830152602082019050919050565b6000613bb9600d836142b3565b91507f4e6f742070312773207475726e000000000000000000000000000000000000006000830152602082019050919050565b60a082016000820151613c026000850182613d1e565b506020820151613c156020850182613d1e565b506040820151613c286040850182613d1e565b506060820151613c3b6060850182613d1e565b506080820151613c4e60808501826135cd565b50505050565b60e082016000820151613c6a6000850182613d1e565b506020820151613c7d60208501826137d9565b506040820151613c9060408501826135cd565b506060820151613ca36060850182613d1e565b506080820151613cb66080850182613d1e565b5060a0820151613cc960a08501826137ac565b5060c0820151613cdc60c0850182613ce2565b50505050565b613ceb81614328565b82525050565b613cfa81614328565b82525050565b613d0981614328565b82525050565b613d1881614328565b82525050565b613d2781614332565b82525050565b613d3681614332565b82525050565b6000602082019050613d5160008301846135dc565b92915050565b6000602082019050613d6c60008301846135be565b92915050565b6000604082019050613d8760008301856135dc565b613d9460208301846135dc565b9392505050565b60006020820190508181036000830152613db58184613642565b905092915050565b60006020820190508181036000830152613dd781846136a0565b905092915050565b600061014082019050613df560008301876136fe565b613e0260408301866135eb565b613e0f60c08301856136fe565b613e1d6101008301846136fe565b95945050505050565b6000602082019050613e3b60008301846137bb565b92915050565b6000602082019050613e5660008301846137ca565b92915050565b60006020820190508181036000830152613e7581613806565b9050919050565b60006020820190508181036000830152613e9581613846565b9050919050565b60006020820190508181036000830152613eb581613886565b9050919050565b60006020820190508181036000830152613ed5816138c6565b9050919050565b60006020820190508181036000830152613ef581613906565b9050919050565b60006020820190508181036000830152613f1581613946565b9050919050565b60006020820190508181036000830152613f35816139ac565b9050919050565b60006020820190508181036000830152613f55816139ec565b9050919050565b60006020820190508181036000830152613f7581613a2c565b9050919050565b60006020820190508181036000830152613f9581613a6c565b9050919050565b60006020820190508181036000830152613fb581613aac565b9050919050565b60006020820190508181036000830152613fd581613aec565b9050919050565b60006020820190508181036000830152613ff581613b2c565b9050919050565b6000602082019050818103600083015261401581613b6c565b9050919050565b6000602082019050818103600083015261403581613bac565b9050919050565b60006020820190506140516000830184613cf1565b92915050565b600060608201905061406c6000830186613d00565b6140796020830185613d00565b61408660408301846137f7565b949350505050565b60006020820190506140a36000830184613d2d565b92915050565b600060e0820190506140be600083018a613d2d565b6140cb60208301896137e8565b6140d860408301886135dc565b6140e56060830187613d2d565b6140f26080830186613d2d565b6140ff60a08301856137bb565b61410c60c0830184613cf1565b98975050505050505050565b600060a08201905061412d6000830188613d2d565b61413a6020830187613d2d565b6141476040830186613d2d565b6141546060830185613d2d565b61416160808301846135dc565b9695505050505050565b6000604051905081810181811067ffffffffffffffff8211171561418e57600080fd5b8060405250919050565b600067ffffffffffffffff8211156141af57600080fd5b602082029050919050565b600067ffffffffffffffff8211156141d157600080fd5b602082029050919050565b6000819050919050565b6000819050602082019050919050565b6000819050602082019050919050565b6000819050919050565b600060029050919050565b600081519050919050565b600081519050919050565b600060029050919050565b6000602082019050919050565b6000602082019050919050565b6000602082019050919050565b6000602082019050919050565b600081905092915050565b600082825260208201905092915050565b600082825260208201905092915050565b600081905092915050565b600081905092915050565b600082825260208201905092915050565b60006142cf82614308565b9050919050565b60008115159050919050565b60008190506142f0826143ab565b919050565b6000819050614303826143b8565b919050565b600073ffffffffffffffffffffffffffffffffffffffff82169050919050565b6000819050919050565b600060ff82169050919050565b600061434a82614387565b9050919050565b600061435c826142e2565b9050919050565b600061436e826142f5565b9050919050565b600061438082614328565b9050919050565b600061439282614399565b9050919050565b60006143a482614308565b9050919050565b600481106143b557fe5b50565b600381106143c257fe5b50565b6143ce816142c4565b81146143d957600080fd5b50565b6143e5816142d6565b81146143f057600080fd5b50565b6003811061440057600080fd5b50565b61440c81614328565b811461441757600080fd5b50565b61442381614332565b811461442e57600080fd5b5056fea26469706673582212208ef9409e8abef1959235e98d719f114d6226140c266763d4ee89d865b240f8c264736f6c63430006070033",
  "immutableReferences": {},
  "source": "pragma solidity ^0.6.7;\npragma experimental ABIEncoderV2;\n\nimport \"./ZKChessTypes.sol\";\nimport \"./Verifier.sol\";\nimport \"./Hasher.sol\";\n\ncontract ZKChessCore {\n    uint256\n        public constant FIELD_SIZE = 21888242871839275222246405745257275088548364400416034343698204186575808495617;\n    uint256\n        public constant GHOST_START_COMMITMENT = 7374563847362678215915084925243633004703986452179446109135597066279732561698;\n    uint256 public constant BOARD_SIZE = 7;\n\n    uint8 public turnNumber;\n    GameState public gameState;\n    uint8[BOARD_SIZE][BOARD_SIZE] public boardPieces; // board[row][col]\n    uint8[BOARD_SIZE][BOARD_SIZE] public boardObjectives;\n\n    uint8[8] public pieceIds;\n    mapping(uint8 => Piece) public pieces;\n    uint8[6] public objectiveIds;\n    mapping(uint8 => Objective) public objectives;\n\n    bool public DISABLE_ZK_CHECK;\n\n    address public player1;\n    address public player2;\n\n    uint8 public player1Score;\n    uint8 public player2Score;\n\n    uint8 p1CurrentlyCapturing;\n    uint8 p2CurrentlyCapturing;\n\n    uint256 pfsVerified;\n\n    constructor(bool _disableZKCheck) public {\n        DISABLE_ZK_CHECK = _disableZKCheck;\n        gameState = GameState.WAITING_FOR_PLAYERS;\n\n        pieceIds = [1, 2, 3, 4, 5, 6, 7, 8];\n        objectiveIds = [9, 10, 11, 12, 13, 14];\n\n        // initialize pieces\n        pieces[1] = Piece({\n            id: 1,\n            pieceType: PieceType.KING,\n            owner: address(0),\n            row: 0,\n            col: 1,\n            dead: false,\n            commitment: 0\n        });\n        boardPieces[0][1] = 1;\n        pieces[2] = Piece({\n            id: 2,\n            pieceType: PieceType.KNIGHT,\n            owner: address(0),\n            row: 0,\n            col: 3,\n            dead: false,\n            commitment: 0\n        });\n        boardPieces[0][3] = 2;\n        pieces[3] = Piece({\n            id: 3,\n            pieceType: PieceType.KING,\n            owner: address(0),\n            row: 0,\n            col: 5,\n            dead: false,\n            commitment: 0\n        });\n        boardPieces[0][5] = 3;\n        pieces[4] = Piece({\n            id: 4,\n            pieceType: PieceType.GHOST,\n            owner: address(0),\n            row: 0,\n            col: 0,\n            dead: false,\n            commitment: GHOST_START_COMMITMENT\n        });\n        pieces[5] = Piece({\n            id: 5,\n            pieceType: PieceType.KING,\n            owner: address(0),\n            row: 6,\n            col: 1,\n            dead: false,\n            commitment: 0\n        });\n        boardPieces[6][1] = 5;\n        pieces[6] = Piece({\n            id: 6,\n            pieceType: PieceType.KNIGHT,\n            owner: address(0),\n            row: 6,\n            col: 3,\n            dead: false,\n            commitment: 0\n        });\n        boardPieces[6][3] = 6;\n        pieces[7] = Piece({\n            id: 7,\n            pieceType: PieceType.KING,\n            owner: address(0),\n            row: 6,\n            col: 5,\n            dead: false,\n            commitment: 0\n        });\n        boardPieces[6][5] = 7;\n        pieces[8] = Piece({\n            id: 8,\n            pieceType: PieceType.GHOST,\n            owner: address(0),\n            row: 6,\n            col: 0,\n            dead: false,\n            commitment: GHOST_START_COMMITMENT\n        });\n\n        // initialize objectives\n        objectives[9] = Objective({\n            id: 9,\n            value: 5,\n            row: 3,\n            col: 0,\n            capturedBy: address(0)\n        });\n        boardObjectives[3][0] = 9;\n        objectives[10] = Objective({\n            id: 10,\n            value: 5,\n            row: 2,\n            col: 2,\n            capturedBy: address(0)\n        });\n        boardObjectives[2][2] = 10;\n        objectives[11] = Objective({\n            id: 11,\n            value: 10,\n            row: 4,\n            col: 2,\n            capturedBy: address(0)\n        });\n        boardObjectives[4][2] = 11;\n        objectives[12] = Objective({\n            id: 12,\n            value: 10,\n            row: 2,\n            col: 4,\n            capturedBy: address(0)\n        });\n        boardObjectives[2][4] = 12;\n        objectives[13] = Objective({\n            id: 13,\n            value: 5,\n            row: 4,\n            col: 4,\n            capturedBy: address(0)\n        });\n        boardObjectives[4][4] = 13;\n        objectives[14] = Objective({\n            id: 14,\n            value: 5,\n            row: 3,\n            col: 6,\n            capturedBy: address(0)\n        });\n        boardObjectives[3][6] = 14;\n    }\n\n    //////////////\n    /// EVENTS ///\n    //////////////\n\n    event ProofVerified(uint256 pfsAccepted);\n    event GameStart(address p1, address p2);\n    event MoveMade(address player);\n    event GameFinished();\n\n    ///////////////\n    /// GETTERS ///\n    ///////////////\n\n    function getPieces() public view returns (Piece[] memory ret) {\n        ret = new Piece[](pieceIds.length);\n        for (uint8 i = 0; i < pieceIds.length; i++) {\n            ret[i] = pieces[pieceIds[i]];\n        }\n        return ret;\n    }\n\n    function getObjectives() public view returns (Objective[] memory ret) {\n        ret = new Objective[](objectiveIds.length);\n        for (uint8 i = 0; i < objectiveIds.length; i++) {\n            ret[i] = objectives[objectiveIds[i]];\n        }\n        return ret;\n    }\n\n    //////////////\n    /// Helper ///\n    //////////////\n\n    function hashTriple(\n        uint256 val1,\n        uint256 val2,\n        uint256 val3\n    ) public pure returns (uint256) {\n        uint256 R = 0;\n        uint256 C = 0;\n\n        R = addmod(R, val1, FIELD_SIZE);\n        (R, C) = Hasher.MiMCSponge(R, C, 0);\n        R = addmod(R, val2, FIELD_SIZE);\n        (R, C) = Hasher.MiMCSponge(R, C, 0);\n        R = addmod(R, val3, FIELD_SIZE);\n        (R, C) = Hasher.MiMCSponge(R, C, 0);\n\n        return R;\n    }\n\n    function isValidMove(\n        Piece memory piece,\n        uint8 toRow,\n        uint8 toCol\n    ) public view returns (bool) {\n        if (toRow >= BOARD_SIZE || toCol >= BOARD_SIZE) {\n            // must be in the range [0, SIZE - 1]\n            return false;\n        }\n        if (boardPieces[toRow][toCol] > 0) {\n            // a piece already exists there\n            return false;\n        }\n        if (piece.pieceType == PieceType.GHOST) {\n            return false;\n        } else if (piece.pieceType == PieceType.KING) {\n            if (piece.row == toRow && piece.col == toCol) {\n                return false;\n            }\n            int16 rowDiff = int16(piece.row) - int16(toRow);\n            if (rowDiff > 1 || rowDiff < -1) {\n                return false;\n            }\n            int16 colDiff = int16(piece.col) - int16(toCol);\n            if (colDiff > 1 || colDiff < -1) {\n                return false;\n            }\n        } else if (piece.pieceType == PieceType.KNIGHT) {\n            int16 rowDiff = int16(piece.row) - int16(toRow);\n            int16 colDiff = int16(piece.col) - int16(toCol);\n            if (rowDiff == 2 || rowDiff == -2) {\n                if (colDiff != 1 && colDiff != -1) {\n                    return false;\n                }\n            } else if (rowDiff == 1 || rowDiff == -1) {\n                if (colDiff != 2 && colDiff != -2) {\n                    return false;\n                }\n            } else {\n                return false;\n            }\n        }\n        return true;\n    }\n\n    function gameShouldBeCompleted() public view returns (bool) {\n        // check if game is over: no pieces left, OR no objectives left\n        bool noPiecesLeft = true;\n        for (uint8 i = 0; i < pieceIds.length; i++) {\n            if (!pieces[pieceIds[i]].dead) {\n                noPiecesLeft = false;\n                break;\n            }\n        }\n        if (noPiecesLeft) {\n            return true;\n        }\n\n        bool noObjectivesLeft = true;\n        for (uint8 i = 0; i < objectiveIds.length; i++) {\n            if (objectives[objectiveIds[i]].capturedBy == address(0)) {\n                noObjectivesLeft = false;\n                break;\n            }\n        }\n        if (noObjectivesLeft) {\n            return true;\n        }\n        return false;\n    }\n\n    //////////////////////\n    /// Game Mechanics ///\n    //////////////////////\n\n    function joinGame() public {\n        require(\n            gameState == GameState.WAITING_FOR_PLAYERS,\n            \"Game already started\"\n        );\n        if (player1 == address(0)) {\n            // first player to join game\n            player1 = msg.sender;\n            return;\n        }\n        // another player has joined. game is ready to start\n\n        require(msg.sender != player1, \"can't join game twice\");\n        // randomize player order\n        if (block.timestamp % 2 == 0) {\n            player2 = msg.sender;\n        } else {\n            player2 = player1;\n            player1 = msg.sender;\n        }\n\n        // set pieces\n        for (uint8 i = 1; i < 5; i++) {\n            pieces[i].owner = player1;\n        }\n        for (uint8 i = 5; i < 9; i++) {\n            pieces[i].owner = player2;\n        }\n\n        gameState = GameState.P1_TO_MOVE;\n        emit GameStart(player1, player2);\n    }\n\n    function checkProof(\n        uint256[2] memory _a,\n        uint256[2][2] memory _b,\n        uint256[2] memory _c,\n        uint256[2] memory _input\n    ) public returns (bool) {\n        if (!DISABLE_ZK_CHECK) {\n            require(\n                Verifier.verifyMoveProof(_a, _b, _c, _input),\n                \"Failed init proof check\"\n            );\n        }\n        pfsVerified += 1;\n        emit ProofVerified(pfsVerified);\n        return true;\n    }\n\n    function movePiece(\n        uint8 pieceId,\n        uint8 toRow,\n        uint8 toCol\n    ) public {\n        require(gameState != GameState.COMPLETE, \"Game is ended\");\n        if (msg.sender == player1) {\n            require(gameState == GameState.P1_TO_MOVE, \"Not p1's turn\");\n        }\n        if (msg.sender == player2) {\n            require(gameState == GameState.P2_TO_MOVE, \"Not p2's turn\");\n        }\n        // require(turnNumber > 0, \"Must move ghost on first turn\");\n        Piece storage piece = pieces[pieceId];\n        require(piece.owner == msg.sender, \"You don't own that piece\");\n        require(!piece.dead, \"Piece is dead\");\n        require(isValidMove(piece, toRow, toCol), \"Invalid move\");\n\n        boardPieces[piece.row][piece.col] = 0;\n        boardPieces[toRow][toCol] = piece.id;\n        piece.row = toRow;\n        piece.col = toCol;\n        if (\n            objectives[boardObjectives[toRow][toCol]].value > 0 &&\n            objectives[boardObjectives[toRow][toCol]].capturedBy == address(0)\n        ) {\n            if (msg.sender == player1) {\n                p1CurrentlyCapturing = boardObjectives[toRow][toCol];\n            } else {\n                p2CurrentlyCapturing = boardObjectives[toRow][toCol];\n            }\n        }\n        completeTurn();\n    }\n\n    function moveGhost(\n        uint256[2] memory _a,\n        uint256[2][2] memory _b,\n        uint256[2] memory _c,\n        uint256[2] memory _input,\n        uint8 pieceId\n    ) public {\n        require(gameState != GameState.COMPLETE, \"Game is ended\");\n        if (msg.sender == player1) {\n            require(gameState == GameState.P1_TO_MOVE, \"Not p1's turn\");\n        }\n        if (msg.sender == player2) {\n            require(gameState == GameState.P2_TO_MOVE, \"Not p2's turn\");\n        }\n        Piece storage piece = pieces[pieceId];\n        require(piece.pieceType == PieceType.GHOST, \"Piece must be a ghost\");\n        require(piece.owner == msg.sender, \"You don't own that piece\");\n        require(piece.commitment == _input[0], \"ZK Proof invalid\");\n        if (!DISABLE_ZK_CHECK) {\n            require(\n                Verifier.verifyMoveProof(_a, _b, _c, _input),\n                \"Failed zk move check\"\n            );\n        }\n        piece.commitment = _input[1];\n        completeTurn();\n    }\n\n    function ghostAttack(\n        uint8 pieceId,\n        uint256 row,\n        uint256 col,\n        uint256 salt\n    ) public {\n        require(gameState != GameState.COMPLETE, \"Game is ended\");\n        if (msg.sender == player1) {\n            require(gameState == GameState.P1_TO_MOVE, \"Not p1's turn\");\n        }\n        if (msg.sender == player2) {\n            require(gameState == GameState.P2_TO_MOVE, \"Not p2's turn\");\n        }\n        require(turnNumber > 0, \"Must move ghost on first turn\");\n        Piece storage piece = pieces[pieceId];\n        require(piece.pieceType == PieceType.GHOST, \"Piece must be a ghost\");\n        require(piece.owner == msg.sender, \"You don't own that piece\");\n        require(\n            hashTriple(row, col, salt) == piece.commitment,\n            \"Invalid reveal\"\n        );\n        Piece storage theirPiece = pieces[boardPieces[row][col]];\n        address opponent = player1;\n        if (msg.sender == player1) {\n            opponent = player2;\n        }\n        require(\n            theirPiece.owner == opponent,\n            \"can only reveal to capture opposing piece\"\n        );\n        theirPiece.dead = true;\n        completeTurn();\n    }\n\n    function completeTurn() internal {\n        if (msg.sender == player1) {\n            // check if opponent captures any objectives\n            Objective storage capturing = objectives[p2CurrentlyCapturing];\n            if (capturing.value > 0 && capturing.capturedBy == address(0)) {\n                // is an uncaptured objective\n                Piece storage onObjective = pieces[boardPieces[capturing\n                    .row][capturing.col]];\n                if (onObjective.owner == player2 && !onObjective.dead) {\n                    // p2's live piece is stationed on top\n                    capturing.capturedBy = player2;\n                    player2Score += capturing.value;\n                }\n            }\n            // change to p2's turn\n            p2CurrentlyCapturing = 0;\n            gameState = GameState.P2_TO_MOVE;\n        } else {\n            // check if opponent captures any objectives\n            Objective storage capturing = objectives[p1CurrentlyCapturing];\n            if (capturing.value > 0 && capturing.capturedBy == address(0)) {\n                // is an uncaptured objective\n                Piece storage onObjective = pieces[boardPieces[capturing\n                    .row][capturing.col]];\n                if (onObjective.owner == player1 && !onObjective.dead) {\n                    // p1's live piece is stationed on top\n                    capturing.capturedBy = player1;\n                    player1Score += capturing.value;\n                }\n            }\n            // change to p1's turn\n            p1CurrentlyCapturing = 0;\n            turnNumber++;\n            gameState = GameState.P1_TO_MOVE;\n        }\n        emit MoveMade(msg.sender);\n\n        if (gameShouldBeCompleted()) {\n            gameState = GameState.COMPLETE;\n            emit GameFinished();\n        }\n    }\n}\n",
  "sourcePath": "/Users/bgu/zk-chess/eth/contracts/ZKChessCore.sol",
  "compiler": {
    "name": "solc",
    "version": "0.6.7+commit.b8d736ae.Emscripten.clang"
  },
  "schemaVersion": "3.3.1",
  "updatedAt": "2020-10-30T02:55:50.761Z",
  "devdoc": {
    "methods": {}
  },
  "userdoc": {
    "methods": {
      "getPieces()": {
        "notice": "//////////// GETTERS /// ////////////"
      },
      "hashTriple(uint256,uint256,uint256)": {
        "notice": "/////////// Helper /// ///////////"
      },
      "joinGame()": {
        "notice": "/////////////////// Game Mechanics /// ///////////////////"
      }
    }
  }
}