{
  "contractName": "ZKChessCore",
  "abi": [
    {
      "inputs": [
        {
          "internalType": "address",
          "name": "_adminAddress",
          "type": "address"
        },
        {
          "internalType": "bool",
          "name": "_disableZKCheck",
          "type": "bool"
        }
      ],
      "stateMutability": "nonpayable",
      "type": "constructor"
    },
    {
      "anonymous": false,
      "inputs": [
        {
          "indexed": false,
          "internalType": "uint256",
          "name": "pfsAccepted",
          "type": "uint256"
        }
      ],
      "name": "ProofVerified",
      "type": "event"
    },
    {
      "inputs": [],
      "name": "DISABLE_ZK_CHECK",
      "outputs": [
        {
          "internalType": "bool",
          "name": "",
          "type": "bool"
        }
      ],
      "stateMutability": "view",
      "type": "function",
      "constant": true
    },
    {
      "inputs": [],
      "name": "adminAddress",
      "outputs": [
        {
          "internalType": "address",
          "name": "",
          "type": "address"
        }
      ],
      "stateMutability": "view",
      "type": "function",
      "constant": true
    },
    {
      "inputs": [],
      "name": "paused",
      "outputs": [
        {
          "internalType": "bool",
          "name": "",
          "type": "bool"
        }
      ],
      "stateMutability": "view",
      "type": "function",
      "constant": true
    },
    {
      "inputs": [],
      "name": "pause",
      "outputs": [],
      "stateMutability": "nonpayable",
      "type": "function"
    },
    {
      "inputs": [],
      "name": "unpause",
      "outputs": [],
      "stateMutability": "nonpayable",
      "type": "function"
    },
    {
      "inputs": [
        {
          "internalType": "uint256[2]",
          "name": "_a",
          "type": "uint256[2]"
        },
        {
          "internalType": "uint256[2][2]",
          "name": "_b",
          "type": "uint256[2][2]"
        },
        {
          "internalType": "uint256[2]",
          "name": "_c",
          "type": "uint256[2]"
        },
        {
          "internalType": "uint256[1]",
          "name": "_input",
          "type": "uint256[1]"
        }
      ],
      "name": "checkProof",
      "outputs": [
        {
          "internalType": "bool",
          "name": "",
          "type": "bool"
        }
      ],
      "stateMutability": "nonpayable",
      "type": "function"
    }
  ],
  "bytecode": "0x60806040523480156200001157600080fd5b5060405162000e6938038062000e698339818101604052810190620000379190620000a1565b60008060146101000a81548160ff02191690831515021790555080600060156101000a81548160ff021916908315150217905550505062000156565b600081519050620000848162000122565b92915050565b6000815190506200009b816200013c565b92915050565b60008060408385031215620000b557600080fd5b6000620000c58582860162000073565b9250506020620000d8858286016200008a565b9150509250929050565b6000620000ef8262000102565b9050919050565b60008115159050919050565b600073ffffffffffffffffffffffffffffffffffffffff82169050919050565b6200012d81620000e2565b81146200013957600080fd5b50565b6200014781620000f6565b81146200015357600080fd5b50565b610d0380620001666000396000f3fe608060405234801561001057600080fd5b50600436106100625760003560e01c80633f4ba83a146100675780635c975abb1461007157806373d643da1461008f5780638456cb59146100bf5780638af9d562146100c9578063fc6f9468146100e7575b600080fd5b61006f610105565b005b6100796101ff565b6040516100869190610a4b565b60405180910390f35b6100a960048036038101906100a49190610653565b610212565b6040516100b69190610a4b565b60405180910390f35b6100c7610399565b005b6100d1610495565b6040516100de9190610a4b565b60405180910390f35b6100ef6104a8565b6040516100fc91906109e9565b60405180910390f35b6000809054906101000a900473ffffffffffffffffffffffffffffffffffffffff1673ffffffffffffffffffffffffffffffffffffffff163373ffffffffffffffffffffffffffffffffffffffff1614610194576040517f08c379a000000000000000000000000000000000000000000000000000000000815260040161018b90610a66565b60405180910390fd5b600060149054906101000a900460ff166101e3576040517f08c379a00000000000000000000000000000000000000000000000000000000081526004016101da90610ac6565b60405180910390fd5b60008060146101000a81548160ff021916908315150217905550565b600060149054906101000a900460ff1681565b60008060149054906101000a900460ff1615610263576040517f08c379a000000000000000000000000000000000000000000000000000000000815260040161025a90610aa6565b60405180910390fd5b600060159054906101000a900460ff166103445773__Verifier______________________________6356387ffe868686866040518563ffffffff1660e01b81526004016102b49493929190610a04565b60206040518083038186803b1580156102cc57600080fd5b505af41580156102e0573d6000803e3d6000fd5b505050506040513d601f19601f8201168201806040525081019061030491906106b8565b610343576040517f08c379a000000000000000000000000000000000000000000000000000000000815260040161033a90610a86565b60405180910390fd5b5b600180600082825401925050819055507f4eb5ee08f6bd1352ed7b0dac0ee5e5b7cb984b0477d694d9db613b705f47f2ab6001546040516103859190610b06565b60405180910390a160019050949350505050565b6000809054906101000a900473ffffffffffffffffffffffffffffffffffffffff1673ffffffffffffffffffffffffffffffffffffffff163373ffffffffffffffffffffffffffffffffffffffff1614610428576040517f08c379a000000000000000000000000000000000000000000000000000000000815260040161041f90610a66565b60405180910390fd5b600060149054906101000a900460ff1615610478576040517f08c379a000000000000000000000000000000000000000000000000000000000815260040161046f90610ae6565b60405180910390fd5b6001600060146101000a81548160ff021916908315150217905550565b600060159054906101000a900460ff1681565b6000809054906101000a900473ffffffffffffffffffffffffffffffffffffffff1681565b600082601f8301126104de57600080fd5b60026104f16104ec82610b4e565b610b21565b9150818385604084028201111561050757600080fd5b60005b83811015610537578161051d88826105b5565b84526020840193506040830192505060018101905061050a565b5050505092915050565b600082601f83011261055257600080fd5b600161056561056082610b70565b610b21565b9150818385602084028201111561057b57600080fd5b60005b838110156105ab5781610591888261063e565b84526020840193506020830192505060018101905061057e565b5050505092915050565b600082601f8301126105c657600080fd5b60026105d96105d482610b92565b610b21565b915081838560208402820111156105ef57600080fd5b60005b8381101561061f5781610605888261063e565b8452602084019350602083019250506001810190506105f2565b5050505092915050565b60008151905061063881610c9f565b92915050565b60008135905061064d81610cb6565b92915050565b600080600080610120858703121561066a57600080fd5b6000610678878288016105b5565b9450506040610689878288016104cd565b93505060c061069a878288016105b5565b9250506101006106ac87828801610541565b91505092959194509250565b6000602082840312156106ca57600080fd5b60006106d884828501610629565b91505092915050565b60006106ed8383610825565b60408301905092915050565b600061070583836109da565b60208301905092915050565b61071a81610c57565b82525050565b61072981610bd2565b6107338184610c1a565b925061073e82610bb4565b8060005b8381101561076f57815161075687826106e1565b965061076183610bf3565b925050600181019050610742565b505050505050565b61078081610bdd565b61078a8184610c25565b925061079582610bbe565b8060005b838110156107c65781516107ad87826106f9565b96506107b883610c00565b925050600181019050610799565b505050505050565b6107d781610be8565b6107e18184610c30565b92506107ec82610bc8565b8060005b8381101561081d57815161080487826106f9565b965061080f83610c0d565b9250506001810190506107f0565b505050505050565b61082e81610be8565b6108388184610c3b565b925061084382610bc8565b8060005b8381101561087457815161085b87826106f9565b965061086683610c0d565b925050600181019050610847565b505050505050565b61088581610c69565b82525050565b6000610898601b83610c46565b91507f53656e646572206973206e6f7420612067616d65206d617374657200000000006000830152602082019050919050565b60006108d8601783610c46565b91507f4661696c656420696e69742070726f6f6620636865636b0000000000000000006000830152602082019050919050565b6000610918600e83610c46565b91507f47616d65206973207061757365640000000000000000000000000000000000006000830152602082019050919050565b6000610958601883610c46565b91507f47616d6520697320616c726561647920756e70617573656400000000000000006000830152602082019050919050565b6000610998601683610c46565b91507f47616d6520697320616c726561647920706175736564000000000000000000006000830152602082019050919050565b6109d481610c95565b82525050565b6109e381610c95565b82525050565b60006020820190506109fe6000830184610711565b92915050565b600061012082019050610a1a60008301876107ce565b610a276040830186610720565b610a3460c08301856107ce565b610a42610100830184610777565b95945050505050565b6000602082019050610a60600083018461087c565b92915050565b60006020820190508181036000830152610a7f8161088b565b9050919050565b60006020820190508181036000830152610a9f816108cb565b9050919050565b60006020820190508181036000830152610abf8161090b565b9050919050565b60006020820190508181036000830152610adf8161094b565b9050919050565b60006020820190508181036000830152610aff8161098b565b9050919050565b6000602082019050610b1b60008301846109cb565b92915050565b6000604051905081810181811067ffffffffffffffff82111715610b4457600080fd5b8060405250919050565b600067ffffffffffffffff821115610b6557600080fd5b602082029050919050565b600067ffffffffffffffff821115610b8757600080fd5b602082029050919050565b600067ffffffffffffffff821115610ba957600080fd5b602082029050919050565b6000819050919050565b6000819050919050565b6000819050919050565b600060029050919050565b600060019050919050565b600060029050919050565b6000602082019050919050565b6000602082019050919050565b6000602082019050919050565b600081905092915050565b600081905092915050565b600081905092915050565b600081905092915050565b600082825260208201905092915050565b6000610c6282610c75565b9050919050565b60008115159050919050565b600073ffffffffffffffffffffffffffffffffffffffff82169050919050565b6000819050919050565b610ca881610c69565b8114610cb357600080fd5b50565b610cbf81610c95565b8114610cca57600080fd5b5056fea26469706673582212201352bca098bf5e38f1140c4ed1644a5bcf1804cbe424b41c5d65af0b00edb99764736f6c63430006070033",
  "source": "pragma solidity ^0.6.7;\npragma experimental ABIEncoderV2;\n\nimport \"./Verifier.sol\";\n\ncontract ZKChessCore {\n    address public adminAddress;\n    bool public paused;\n    bool public DISABLE_ZK_CHECK;\n\n    uint256 pfsVerified;\n\n    constructor(address _adminAddress, bool _disableZKCheck) public {\n        paused = false;\n        DISABLE_ZK_CHECK = _disableZKCheck;\n    }\n\n    //////////////\n    /// EVENTS ///\n    //////////////\n\n    event ProofVerified(uint256 pfsAccepted);\n\n    //////////////////////\n    /// ACCESS CONTROL ///\n    //////////////////////\n\n    modifier onlyAdmin() {\n        require(msg.sender == adminAddress, \"Sender is not a game master\");\n        _;\n    }\n\n    modifier notPaused() {\n        require(!paused, \"Game is paused\");\n        _;\n    }\n\n    /////////////\n    /// Admin ///\n    /////////////\n\n    function pause() public onlyAdmin {\n        require(!paused, \"Game is already paused\");\n        paused = true;\n    }\n\n    function unpause() public onlyAdmin {\n        require(paused, \"Game is already unpaused\");\n        paused = false;\n    }\n\n    //////////////\n    /// Helper ///\n    //////////////\n\n    //////////////////////\n    /// Game Mechanics ///\n    //////////////////////\n\n    function checkProof(\n        uint256[2] memory _a,\n        uint256[2][2] memory _b,\n        uint256[2] memory _c,\n        uint256[1] memory _input\n    ) public notPaused returns (bool) {\n        if (!DISABLE_ZK_CHECK) {\n            require(\n                Verifier.verifyMoveProof(_a, _b, _c, _input),\n                \"Failed init proof check\"\n            );\n        }\n        pfsVerified += 1;\n        emit ProofVerified(pfsVerified);\n        return true;\n    }\n}\n",
  "sourcePath": "/Users/bgu/zk-chess/eth/contracts/ZKChessCore.sol",
  "compiler": {
    "name": "solc",
    "version": "0.6.7+commit.b8d736ae.Emscripten.clang"
  },
  "schemaVersion": "3.3.1",
  "updatedAt": "2020-10-26T22:30:33.329Z",
  "networkType": "ethereum",
  "devdoc": {
    "methods": {}
  },
  "userdoc": {
    "methods": {
      "checkProof(uint256[2],uint256[2][2],uint256[2],uint256[1])": {
        "notice": "/////////// Helper /// /////////// /////////////////// Game Mechanics /// ///////////////////"
      },
      "pause()": {
        "notice": "////////// Admin /// //////////"
      }
    }
  }
}