{
  "contractName": "ZKChessGame",
  "abi": [
    {
      "anonymous": false,
      "inputs": [],
      "name": "GameFinished",
      "type": "event"
    },
    {
      "anonymous": false,
      "inputs": [
        {
          "indexed": false,
          "internalType": "address",
          "name": "p1",
          "type": "address"
        },
        {
          "indexed": false,
          "internalType": "address",
          "name": "p2",
          "type": "address"
        }
      ],
      "name": "GameStart",
      "type": "event"
    },
    {
      "anonymous": false,
      "inputs": [
        {
          "indexed": false,
          "internalType": "address",
          "name": "player",
          "type": "address"
        }
      ],
      "name": "MoveMade",
      "type": "event"
    },
    {
      "anonymous": false,
      "inputs": [
        {
          "indexed": false,
          "internalType": "uint256",
          "name": "pfsAccepted",
          "type": "uint256"
        }
      ],
      "name": "ProofVerified",
      "type": "event"
    },
    {
      "inputs": [],
      "name": "BOARD_SIZE",
      "outputs": [
        {
          "internalType": "uint256",
          "name": "",
          "type": "uint256"
        }
      ],
      "stateMutability": "view",
      "type": "function",
      "constant": true
    },
    {
      "inputs": [],
      "name": "DISABLE_ZK_CHECK",
      "outputs": [
        {
          "internalType": "bool",
          "name": "",
          "type": "bool"
        }
      ],
      "stateMutability": "view",
      "type": "function",
      "constant": true
    },
    {
      "inputs": [],
      "name": "FIELD_SIZE",
      "outputs": [
        {
          "internalType": "uint256",
          "name": "",
          "type": "uint256"
        }
      ],
      "stateMutability": "view",
      "type": "function",
      "constant": true
    },
    {
      "inputs": [],
      "name": "GHOST_START_COMMITMENT",
      "outputs": [
        {
          "internalType": "uint256",
          "name": "",
          "type": "uint256"
        }
      ],
      "stateMutability": "view",
      "type": "function",
      "constant": true
    },
    {
      "inputs": [
        {
          "internalType": "uint256",
          "name": "",
          "type": "uint256"
        },
        {
          "internalType": "uint256",
          "name": "",
          "type": "uint256"
        }
      ],
      "name": "boardObjectives",
      "outputs": [
        {
          "internalType": "uint8",
          "name": "",
          "type": "uint8"
        }
      ],
      "stateMutability": "view",
      "type": "function",
      "constant": true
    },
    {
      "inputs": [
        {
          "internalType": "uint256",
          "name": "",
          "type": "uint256"
        },
        {
          "internalType": "uint256",
          "name": "",
          "type": "uint256"
        }
      ],
      "name": "boardPieces",
      "outputs": [
        {
          "internalType": "uint8",
          "name": "",
          "type": "uint8"
        }
      ],
      "stateMutability": "view",
      "type": "function",
      "constant": true
    },
    {
      "inputs": [],
      "name": "gameState",
      "outputs": [
        {
          "internalType": "enum GameState",
          "name": "",
          "type": "uint8"
        }
      ],
      "stateMutability": "view",
      "type": "function",
      "constant": true
    },
    {
      "inputs": [
        {
          "internalType": "uint256",
          "name": "",
          "type": "uint256"
        }
      ],
      "name": "objectiveIds",
      "outputs": [
        {
          "internalType": "uint8",
          "name": "",
          "type": "uint8"
        }
      ],
      "stateMutability": "view",
      "type": "function",
      "constant": true
    },
    {
      "inputs": [
        {
          "internalType": "uint8",
          "name": "",
          "type": "uint8"
        }
      ],
      "name": "objectives",
      "outputs": [
        {
          "internalType": "uint8",
          "name": "id",
          "type": "uint8"
        },
        {
          "internalType": "uint8",
          "name": "value",
          "type": "uint8"
        },
        {
          "internalType": "uint8",
          "name": "row",
          "type": "uint8"
        },
        {
          "internalType": "uint8",
          "name": "col",
          "type": "uint8"
        },
        {
          "internalType": "address",
          "name": "capturedBy",
          "type": "address"
        }
      ],
      "stateMutability": "view",
      "type": "function",
      "constant": true
    },
    {
      "inputs": [
        {
          "internalType": "uint256",
          "name": "",
          "type": "uint256"
        }
      ],
      "name": "pieceIds",
      "outputs": [
        {
          "internalType": "uint8",
          "name": "",
          "type": "uint8"
        }
      ],
      "stateMutability": "view",
      "type": "function",
      "constant": true
    },
    {
      "inputs": [
        {
          "internalType": "uint8",
          "name": "",
          "type": "uint8"
        }
      ],
      "name": "pieces",
      "outputs": [
        {
          "internalType": "uint8",
          "name": "id",
          "type": "uint8"
        },
        {
          "internalType": "enum PieceType",
          "name": "pieceType",
          "type": "uint8"
        },
        {
          "internalType": "address",
          "name": "owner",
          "type": "address"
        },
        {
          "internalType": "uint8",
          "name": "row",
          "type": "uint8"
        },
        {
          "internalType": "uint8",
          "name": "col",
          "type": "uint8"
        },
        {
          "internalType": "bool",
          "name": "dead",
          "type": "bool"
        },
        {
          "internalType": "uint256",
          "name": "commitment",
          "type": "uint256"
        }
      ],
      "stateMutability": "view",
      "type": "function",
      "constant": true
    },
    {
      "inputs": [],
      "name": "player1",
      "outputs": [
        {
          "internalType": "address",
          "name": "",
          "type": "address"
        }
      ],
      "stateMutability": "view",
      "type": "function",
      "constant": true
    },
    {
      "inputs": [],
      "name": "player1Score",
      "outputs": [
        {
          "internalType": "uint8",
          "name": "",
          "type": "uint8"
        }
      ],
      "stateMutability": "view",
      "type": "function",
      "constant": true
    },
    {
      "inputs": [],
      "name": "player2",
      "outputs": [
        {
          "internalType": "address",
          "name": "",
          "type": "address"
        }
      ],
      "stateMutability": "view",
      "type": "function",
      "constant": true
    },
    {
      "inputs": [],
      "name": "player2Score",
      "outputs": [
        {
          "internalType": "uint8",
          "name": "",
          "type": "uint8"
        }
      ],
      "stateMutability": "view",
      "type": "function",
      "constant": true
    },
    {
      "inputs": [],
      "name": "turnNumber",
      "outputs": [
        {
          "internalType": "uint8",
          "name": "",
          "type": "uint8"
        }
      ],
      "stateMutability": "view",
      "type": "function",
      "constant": true
    },
    {
      "inputs": [
        {
          "internalType": "uint256",
          "name": "_gameId",
          "type": "uint256"
        },
        {
          "internalType": "bool",
          "name": "_disableZKCheck",
          "type": "bool"
        }
      ],
      "name": "initialize",
      "outputs": [],
      "stateMutability": "nonpayable",
      "type": "function"
    },
    {
      "inputs": [],
      "name": "getPieces",
      "outputs": [
        {
          "components": [
            {
              "internalType": "uint8",
              "name": "id",
              "type": "uint8"
            },
            {
              "internalType": "enum PieceType",
              "name": "pieceType",
              "type": "uint8"
            },
            {
              "internalType": "address",
              "name": "owner",
              "type": "address"
            },
            {
              "internalType": "uint8",
              "name": "row",
              "type": "uint8"
            },
            {
              "internalType": "uint8",
              "name": "col",
              "type": "uint8"
            },
            {
              "internalType": "bool",
              "name": "dead",
              "type": "bool"
            },
            {
              "internalType": "uint256",
              "name": "commitment",
              "type": "uint256"
            }
          ],
          "internalType": "struct Piece[]",
          "name": "ret",
          "type": "tuple[]"
        }
      ],
      "stateMutability": "view",
      "type": "function",
      "constant": true
    },
    {
      "inputs": [],
      "name": "getObjectives",
      "outputs": [
        {
          "components": [
            {
              "internalType": "uint8",
              "name": "id",
              "type": "uint8"
            },
            {
              "internalType": "uint8",
              "name": "value",
              "type": "uint8"
            },
            {
              "internalType": "uint8",
              "name": "row",
              "type": "uint8"
            },
            {
              "internalType": "uint8",
              "name": "col",
              "type": "uint8"
            },
            {
              "internalType": "address",
              "name": "capturedBy",
              "type": "address"
            }
          ],
          "internalType": "struct Objective[]",
          "name": "ret",
          "type": "tuple[]"
        }
      ],
      "stateMutability": "view",
      "type": "function",
      "constant": true
    },
    {
      "inputs": [
        {
          "components": [
            {
              "internalType": "uint8",
              "name": "id",
              "type": "uint8"
            },
            {
              "internalType": "enum PieceType",
              "name": "pieceType",
              "type": "uint8"
            },
            {
              "internalType": "address",
              "name": "owner",
              "type": "address"
            },
            {
              "internalType": "uint8",
              "name": "row",
              "type": "uint8"
            },
            {
              "internalType": "uint8",
              "name": "col",
              "type": "uint8"
            },
            {
              "internalType": "bool",
              "name": "dead",
              "type": "bool"
            },
            {
              "internalType": "uint256",
              "name": "commitment",
              "type": "uint256"
            }
          ],
          "internalType": "struct Piece",
          "name": "piece",
          "type": "tuple"
        },
        {
          "internalType": "uint8",
          "name": "toRow",
          "type": "uint8"
        },
        {
          "internalType": "uint8",
          "name": "toCol",
          "type": "uint8"
        }
      ],
      "name": "isValidMove",
      "outputs": [
        {
          "internalType": "bool",
          "name": "",
          "type": "bool"
        }
      ],
      "stateMutability": "view",
      "type": "function",
      "constant": true
    },
    {
      "inputs": [],
      "name": "gameShouldBeCompleted",
      "outputs": [
        {
          "internalType": "bool",
          "name": "",
          "type": "bool"
        }
      ],
      "stateMutability": "view",
      "type": "function",
      "constant": true
    },
    {
      "inputs": [],
      "name": "joinGame",
      "outputs": [],
      "stateMutability": "nonpayable",
      "type": "function"
    },
    {
      "inputs": [
        {
          "internalType": "uint8",
          "name": "pieceId",
          "type": "uint8"
        },
        {
          "internalType": "uint8",
          "name": "toRow",
          "type": "uint8"
        },
        {
          "internalType": "uint8",
          "name": "toCol",
          "type": "uint8"
        }
      ],
      "name": "movePiece",
      "outputs": [],
      "stateMutability": "nonpayable",
      "type": "function"
    },
    {
      "inputs": [
        {
          "internalType": "uint256[2]",
          "name": "_a",
          "type": "uint256[2]"
        },
        {
          "internalType": "uint256[2][2]",
          "name": "_b",
          "type": "uint256[2][2]"
        },
        {
          "internalType": "uint256[2]",
          "name": "_c",
          "type": "uint256[2]"
        },
        {
          "internalType": "uint256[2]",
          "name": "_input",
          "type": "uint256[2]"
        },
        {
          "internalType": "uint8",
          "name": "pieceId",
          "type": "uint8"
        }
      ],
      "name": "moveGhost",
      "outputs": [],
      "stateMutability": "nonpayable",
      "type": "function"
    },
    {
      "inputs": [
        {
          "internalType": "uint8",
          "name": "pieceId",
          "type": "uint8"
        },
        {
          "internalType": "uint256",
          "name": "row",
          "type": "uint256"
        },
        {
          "internalType": "uint256",
          "name": "col",
          "type": "uint256"
        },
        {
          "internalType": "uint256",
          "name": "salt",
          "type": "uint256"
        }
      ],
      "name": "ghostAttack",
      "outputs": [],
      "stateMutability": "nonpayable",
      "type": "function"
    }
  ],
  "bytecode": "0x608060405234801561001057600080fd5b5061591680620000216000396000f3fe608060405234801561001057600080fd5b50600436106101735760003560e01c80638af9d562116100de578063cf615f6c11610097578063d30895e411610071578063d30895e414610470578063d4f77b1c1461048e578063dc4a3e9514610498578063e645206a146104b657610173565b8063cf615f6c14610404578063cfecc6de14610422578063d1f9c24d1461045257610173565b80638af9d5621461032e57806396d579481461034c578063acbc1a9114610368578063b022824614610386578063bd91fdb4146103b6578063c6204ee2146103d457610173565b8063562fb42711610130578063562fb427146102665780635700401e1461028257806359a5f12d146102a05780635c3beb32146102be5780637174f2c0146102f25780637e15247d1461031057610173565b8063210851b51461017857806327964666146101a85780632c784f32146101c45780633fb7388e146101fa578063414a37ba1461022a57806351df541c14610248575b600080fd5b610192600480360381019061018d919061488a565b6104d2565b60405161019f91906152f9565b60405180910390f35b6101c260048036038101906101bd919061492d565b6107db565b005b6101de60048036038101906101d991906149a5565b611f17565b6040516101f1979695949392919061556a565b60405180910390f35b610214600480360381019061020f9190614969565b611fba565b604051610221919061554f565b60405180910390f35b610232611ff0565b60405161023f91906154ef565b60405180910390f35b610250612014565b60405161025d91906152f9565b60405180910390f35b610280600480360381019061027b91906147e7565b612187565b005b61028a6125e7565b604051610297919061554f565b60405180910390f35b6102a86125fa565b6040516102b5919061520f565b60405180910390f35b6102d860048036038101906102d391906149a5565b612620565b6040516102e99594939291906155d9565b60405180910390f35b6102fa6126aa565b604051610307919061554f565b60405180910390f35b6103186126bd565b604051610325919061526e565b60405180910390f35b610336612867565b60405161034391906152f9565b60405180910390f35b610366600480360381019061036191906149ce565b61287a565b005b610370612e6d565b60405161037d91906154ef565b60405180910390f35b6103a0600480360381019061039b9190614969565b612e91565b6040516103ad919061554f565b60405180910390f35b6103be612ec7565b6040516103cb919061554f565b60405180910390f35b6103ee60048036038101906103e991906148db565b612eda565b6040516103fb919061554f565b60405180910390f35b61040c612f01565b6040516104199190615290565b60405180910390f35b61043c600480360381019061043791906148db565b6130e0565b604051610449919061554f565b60405180910390f35b61045a613107565b6040516104679190615314565b60405180910390f35b61047861311a565b604051610485919061520f565b60405180910390f35b610496613140565b005b6104a06135b4565b6040516104ad91906154ef565b60405180910390f35b6104d060048036038101906104cb9190614a31565b6135b9565b005b600060078360ff161015806104eb575060078260ff1610155b156104f957600090506107d4565b600060358460ff166007811061050b57fe5b018360ff166007811061051a57fe5b602091828204019190069054906101000a900460ff1660ff16111561054257600090506107d4565b60028081111561054e57fe5b8460200151600281111561055e57fe5b141561056d57600090506107d4565b6000600281111561057a57fe5b8460200151600281111561058a57fe5b1415610670578260ff16846060015160ff161480156105b257508160ff16846080015160ff16145b156105c057600090506107d4565b60008360ff16856060015160ff1603905060018160010b138061060557507fffffffffffffffffffffffffffffffffffffffffffffffffffffffffffffffff8160010b125b156106145760009150506107d4565b60008360ff16866080015160ff1603905060018160010b138061065957507fffffffffffffffffffffffffffffffffffffffffffffffffffffffffffffffff8160010b125b15610669576000925050506107d4565b50506107cf565b6001600281111561067d57fe5b8460200151600281111561068d57fe5b14156107ce5760008360ff16856060015160ff1603905060008360ff16866080015160ff1603905060028260010b14806106e957507ffffffffffffffffffffffffffffffffffffffffffffffffffffffffffffffffe8260010b145b1561073a5760018160010b1415801561072557507fffffffffffffffffffffffffffffffffffffffffffffffffffffffffffffffff8160010b14155b15610735576000925050506107d4565b6107cb565b60018260010b148061076e57507fffffffffffffffffffffffffffffffffffffffffffffffffffffffffffffffff8260010b145b156107bf5760028160010b141580156107aa57507ffffffffffffffffffffffffffffffffffffffffffffffffffffffffffffffffe8160010b14155b156107ba576000925050506107d4565b6107ca565b6000925050506107d4565b5b50505b5b600190505b9392505050565b8160338190555080604760006101000a81548160ff0219169083151502179055506000603460016101000a81548160ff0219169083600381111561081b57fe5b0217905550604051806101000160405280600160ff168152602001600260ff168152602001600360ff168152602001600460ff168152602001600560ff168152602001600660ff168152602001600760ff168152602001600860ff16815250604390600861088a92919061439e565b506040518060c00160405280600960ff168152602001600a60ff168152602001600b60ff168152602001600c60ff168152602001600d60ff168152602001600e60ff1681525060459060066108e0929190614438565b506040518060e00160405280600160ff1681526020016000600281111561090357fe5b8152602001600073ffffffffffffffffffffffffffffffffffffffff168152602001600060ff168152602001600160ff168152602001600015158152602001600081525060446000600160ff16815260200190815260200160002060008201518160000160006101000a81548160ff021916908360ff16021790555060208201518160000160016101000a81548160ff021916908360028111156109a357fe5b021790555060408201518160000160026101000a81548173ffffffffffffffffffffffffffffffffffffffff021916908373ffffffffffffffffffffffffffffffffffffffff16021790555060608201518160000160166101000a81548160ff021916908360ff16021790555060808201518160000160176101000a81548160ff021916908360ff16021790555060a08201518160000160186101000a81548160ff02191690831515021790555060c0820151816001015590505060016035600060078110610a6e57fe5b01600160078110610a7b57fe5b602091828204019190066101000a81548160ff021916908360ff1602179055506040518060e00160405280600260ff16815260200160016002811115610abd57fe5b8152602001600073ffffffffffffffffffffffffffffffffffffffff168152602001600060ff168152602001600360ff168152602001600015158152602001600081525060446000600260ff16815260200190815260200160002060008201518160000160006101000a81548160ff021916908360ff16021790555060208201518160000160016101000a81548160ff02191690836002811115610b5d57fe5b021790555060408201518160000160026101000a81548173ffffffffffffffffffffffffffffffffffffffff021916908373ffffffffffffffffffffffffffffffffffffffff16021790555060608201518160000160166101000a81548160ff021916908360ff16021790555060808201518160000160176101000a81548160ff021916908360ff16021790555060a08201518160000160186101000a81548160ff02191690831515021790555060c0820151816001015590505060026035600060078110610c2857fe5b01600360078110610c3557fe5b602091828204019190066101000a81548160ff021916908360ff1602179055506040518060e00160405280600360ff16815260200160006002811115610c7757fe5b8152602001600073ffffffffffffffffffffffffffffffffffffffff168152602001600060ff168152602001600560ff168152602001600015158152602001600081525060446000600360ff16815260200190815260200160002060008201518160000160006101000a81548160ff021916908360ff16021790555060208201518160000160016101000a81548160ff02191690836002811115610d1757fe5b021790555060408201518160000160026101000a81548173ffffffffffffffffffffffffffffffffffffffff021916908373ffffffffffffffffffffffffffffffffffffffff16021790555060608201518160000160166101000a81548160ff021916908360ff16021790555060808201518160000160176101000a81548160ff021916908360ff16021790555060a08201518160000160186101000a81548160ff02191690831515021790555060c0820151816001015590505060036035600060078110610de257fe5b01600560078110610def57fe5b602091828204019190066101000a81548160ff021916908360ff1602179055506040518060e00160405280600460ff168152602001600280811115610e3057fe5b8152602001600073ffffffffffffffffffffffffffffffffffffffff168152602001600060ff168152602001600060ff1681526020016000151581526020017f104ddaefd01036b8465b22025720f944733190135fd4ed564186bc3cfcaec72281525060446000600460ff16815260200190815260200160002060008201518160000160006101000a81548160ff021916908360ff16021790555060208201518160000160016101000a81548160ff02191690836002811115610eef57fe5b021790555060408201518160000160026101000a81548173ffffffffffffffffffffffffffffffffffffffff021916908373ffffffffffffffffffffffffffffffffffffffff16021790555060608201518160000160166101000a81548160ff021916908360ff16021790555060808201518160000160176101000a81548160ff021916908360ff16021790555060a08201518160000160186101000a81548160ff02191690831515021790555060c082015181600101559050506040518060e00160405280600560ff16815260200160006002811115610fcc57fe5b8152602001600073ffffffffffffffffffffffffffffffffffffffff168152602001600660ff168152602001600160ff168152602001600015158152602001600081525060446000600560ff16815260200190815260200160002060008201518160000160006101000a81548160ff021916908360ff16021790555060208201518160000160016101000a81548160ff0219169083600281111561106c57fe5b021790555060408201518160000160026101000a81548173ffffffffffffffffffffffffffffffffffffffff021916908373ffffffffffffffffffffffffffffffffffffffff16021790555060608201518160000160166101000a81548160ff021916908360ff16021790555060808201518160000160176101000a81548160ff021916908360ff16021790555060a08201518160000160186101000a81548160ff02191690831515021790555060c082015181600101559050506005603560066007811061113757fe5b0160016007811061114457fe5b602091828204019190066101000a81548160ff021916908360ff1602179055506040518060e00160405280600660ff1681526020016001600281111561118657fe5b8152602001600073ffffffffffffffffffffffffffffffffffffffff168152602001600660ff168152602001600360ff168152602001600015158152602001600081525060446000600660ff16815260200190815260200160002060008201518160000160006101000a81548160ff021916908360ff16021790555060208201518160000160016101000a81548160ff0219169083600281111561122657fe5b021790555060408201518160000160026101000a81548173ffffffffffffffffffffffffffffffffffffffff021916908373ffffffffffffffffffffffffffffffffffffffff16021790555060608201518160000160166101000a81548160ff021916908360ff16021790555060808201518160000160176101000a81548160ff021916908360ff16021790555060a08201518160000160186101000a81548160ff02191690831515021790555060c08201518160010155905050600660356006600781106112f157fe5b016003600781106112fe57fe5b602091828204019190066101000a81548160ff021916908360ff1602179055506040518060e00160405280600760ff1681526020016000600281111561134057fe5b8152602001600073ffffffffffffffffffffffffffffffffffffffff168152602001600660ff168152602001600560ff168152602001600015158152602001600081525060446000600760ff16815260200190815260200160002060008201518160000160006101000a81548160ff021916908360ff16021790555060208201518160000160016101000a81548160ff021916908360028111156113e057fe5b021790555060408201518160000160026101000a81548173ffffffffffffffffffffffffffffffffffffffff021916908373ffffffffffffffffffffffffffffffffffffffff16021790555060608201518160000160166101000a81548160ff021916908360ff16021790555060808201518160000160176101000a81548160ff021916908360ff16021790555060a08201518160000160186101000a81548160ff02191690831515021790555060c08201518160010155905050600760356006600781106114ab57fe5b016005600781106114b857fe5b602091828204019190066101000a81548160ff021916908360ff1602179055506040518060e00160405280600860ff1681526020016002808111156114f957fe5b8152602001600073ffffffffffffffffffffffffffffffffffffffff168152602001600660ff168152602001600060ff1681526020016000151581526020017f104ddaefd01036b8465b22025720f944733190135fd4ed564186bc3cfcaec72281525060446000600860ff16815260200190815260200160002060008201518160000160006101000a81548160ff021916908360ff16021790555060208201518160000160016101000a81548160ff021916908360028111156115b857fe5b021790555060408201518160000160026101000a81548173ffffffffffffffffffffffffffffffffffffffff021916908373ffffffffffffffffffffffffffffffffffffffff16021790555060608201518160000160166101000a81548160ff021916908360ff16021790555060808201518160000160176101000a81548160ff021916908360ff16021790555060a08201518160000160186101000a81548160ff02191690831515021790555060c082015181600101559050506040518060a00160405280600960ff168152602001600560ff168152602001600360ff168152602001600060ff168152602001600073ffffffffffffffffffffffffffffffffffffffff1681525060466000600960ff16815260200190815260200160002060008201518160000160006101000a81548160ff021916908360ff16021790555060208201518160000160016101000a81548160ff021916908360ff16021790555060408201518160000160026101000a81548160ff021916908360ff16021790555060608201518160000160036101000a81548160ff021916908360ff16021790555060808201518160000160046101000a81548173ffffffffffffffffffffffffffffffffffffffff021916908373ffffffffffffffffffffffffffffffffffffffff1602179055509050506009603c6003600781106117b657fe5b016000600781106117c357fe5b602091828204019190066101000a81548160ff021916908360ff1602179055506040518060a00160405280600a60ff168152602001600560ff168152602001600260ff168152602001600260ff168152602001600073ffffffffffffffffffffffffffffffffffffffff1681525060466000600a60ff16815260200190815260200160002060008201518160000160006101000a81548160ff021916908360ff16021790555060208201518160000160016101000a81548160ff021916908360ff16021790555060408201518160000160026101000a81548160ff021916908360ff16021790555060608201518160000160036101000a81548160ff021916908360ff16021790555060808201518160000160046101000a81548173ffffffffffffffffffffffffffffffffffffffff021916908373ffffffffffffffffffffffffffffffffffffffff160217905550905050600a603c60026007811061192657fe5b0160026007811061193357fe5b602091828204019190066101000a81548160ff021916908360ff1602179055506040518060a00160405280600b60ff168152602001600a60ff168152602001600460ff168152602001600260ff168152602001600073ffffffffffffffffffffffffffffffffffffffff1681525060466000600b60ff16815260200190815260200160002060008201518160000160006101000a81548160ff021916908360ff16021790555060208201518160000160016101000a81548160ff021916908360ff16021790555060408201518160000160026101000a81548160ff021916908360ff16021790555060608201518160000160036101000a81548160ff021916908360ff16021790555060808201518160000160046101000a81548173ffffffffffffffffffffffffffffffffffffffff021916908373ffffffffffffffffffffffffffffffffffffffff160217905550905050600b603c600460078110611a9657fe5b01600260078110611aa357fe5b602091828204019190066101000a81548160ff021916908360ff1602179055506040518060a00160405280600c60ff168152602001600a60ff168152602001600260ff168152602001600460ff168152602001600073ffffffffffffffffffffffffffffffffffffffff1681525060466000600c60ff16815260200190815260200160002060008201518160000160006101000a81548160ff021916908360ff16021790555060208201518160000160016101000a81548160ff021916908360ff16021790555060408201518160000160026101000a81548160ff021916908360ff16021790555060608201518160000160036101000a81548160ff021916908360ff16021790555060808201518160000160046101000a81548173ffffffffffffffffffffffffffffffffffffffff021916908373ffffffffffffffffffffffffffffffffffffffff160217905550905050600c603c600260078110611c0657fe5b01600460078110611c1357fe5b602091828204019190066101000a81548160ff021916908360ff1602179055506040518060a00160405280600d60ff168152602001600560ff168152602001600460ff168152602001600460ff168152602001600073ffffffffffffffffffffffffffffffffffffffff1681525060466000600d60ff16815260200190815260200160002060008201518160000160006101000a81548160ff021916908360ff16021790555060208201518160000160016101000a81548160ff021916908360ff16021790555060408201518160000160026101000a81548160ff021916908360ff16021790555060608201518160000160036101000a81548160ff021916908360ff16021790555060808201518160000160046101000a81548173ffffffffffffffffffffffffffffffffffffffff021916908373ffffffffffffffffffffffffffffffffffffffff160217905550905050600d603c600460078110611d7657fe5b01600460078110611d8357fe5b602091828204019190066101000a81548160ff021916908360ff1602179055506040518060a00160405280600e60ff168152602001600560ff168152602001600360ff168152602001600660ff168152602001600073ffffffffffffffffffffffffffffffffffffffff1681525060466000600e60ff16815260200190815260200160002060008201518160000160006101000a81548160ff021916908360ff16021790555060208201518160000160016101000a81548160ff021916908360ff16021790555060408201518160000160026101000a81548160ff021916908360ff16021790555060608201518160000160036101000a81548160ff021916908360ff16021790555060808201518160000160046101000a81548173ffffffffffffffffffffffffffffffffffffffff021916908373ffffffffffffffffffffffffffffffffffffffff160217905550905050600e603c600360078110611ee657fe5b01600660078110611ef357fe5b602091828204019190066101000a81548160ff021916908360ff1602179055505050565b60446020528060005260406000206000915090508060000160009054906101000a900460ff16908060000160019054906101000a900460ff16908060000160029054906101000a900473ffffffffffffffffffffffffffffffffffffffff16908060000160169054906101000a900460ff16908060000160179054906101000a900460ff16908060000160189054906101000a900460ff16908060010154905087565b60358260078110611fc757fe5b018160078110611fd357fe5b60209182820401919006915091509054906101000a900460ff1681565b7f30644e72e131a029b85045b68181585d2833e84879b9709143e1f593f000000181565b6000806001905060008090505b60088160ff161015612096576044600060438360ff166008811061204157fe5b602091828204019190069054906101000a900460ff1660ff1660ff16815260200190815260200160002060000160189054906101000a900460ff166120895760009150612096565b8080600101915050612021565b5080156120a7576001915050612184565b60006001905060008090505b60068160ff16101561216b57600073ffffffffffffffffffffffffffffffffffffffff166046600060458460ff16600681106120eb57fe5b602091828204019190069054906101000a900460ff1660ff1660ff16815260200190815260200160002060000160049054906101000a900473ffffffffffffffffffffffffffffffffffffffff1673ffffffffffffffffffffffffffffffffffffffff16141561215e576000915061216b565b80806001019150506120b3565b50801561217d57600192505050612184565b6000925050505b90565b60038081111561219357fe5b603460019054906101000a900460ff1660038111156121ae57fe5b14156121ef576040517f08c379a00000000000000000000000000000000000000000000000000000000081526004016121e6906153ef565b60405180910390fd5b604760019054906101000a900473ffffffffffffffffffffffffffffffffffffffff1673ffffffffffffffffffffffffffffffffffffffff163373ffffffffffffffffffffffffffffffffffffffff1614156122ae576001600381111561225257fe5b603460019054906101000a900460ff16600381111561226d57fe5b146122ad576040517f08c379a00000000000000000000000000000000000000000000000000000000081526004016122a4906154cf565b60405180910390fd5b5b604860009054906101000a900473ffffffffffffffffffffffffffffffffffffffff1673ffffffffffffffffffffffffffffffffffffffff163373ffffffffffffffffffffffffffffffffffffffff16141561236d576002600381111561231157fe5b603460019054906101000a900460ff16600381111561232c57fe5b1461236c576040517f08c379a00000000000000000000000000000000000000000000000000000000081526004016123639061540f565b60405180910390fd5b5b6000604460008360ff1660ff168152602001908152602001600020905060028081111561239657fe5b8160000160019054906101000a900460ff1660028111156123b357fe5b146123f3576040517f08c379a00000000000000000000000000000000000000000000000000000000081526004016123ea906153cf565b60405180910390fd5b3373ffffffffffffffffffffffffffffffffffffffff168160000160029054906101000a900473ffffffffffffffffffffffffffffffffffffffff1673ffffffffffffffffffffffffffffffffffffffff1614612485576040517f08c379a000000000000000000000000000000000000000000000000000000000815260040161247c906154af565b60405180910390fd5b8260006002811061249257fe5b60200201518160010154146124dc576040517f08c379a00000000000000000000000000000000000000000000000000000000081526004016124d39061544f565b60405180910390fd5b604760009054906101000a900460ff166125bd5773__Verifier______________________________63ab475307878787876040518563ffffffff1660e01b815260040161252d94939291906152b2565b60206040518083038186803b15801561254557600080fd5b505af4158015612559573d6000803e3d6000fd5b505050506040513d601f19601f8201168201806040525081019061257d9190614861565b6125bc576040517f08c379a00000000000000000000000000000000000000000000000000000000081526004016125b39061536f565b60405180910390fd5b5b826001600281106125ca57fe5b602002015181600101819055506125df613d51565b505050505050565b603460009054906101000a900460ff1681565b604860009054906101000a900473ffffffffffffffffffffffffffffffffffffffff1681565b60466020528060005260406000206000915090508060000160009054906101000a900460ff16908060000160019054906101000a900460ff16908060000160029054906101000a900460ff16908060000160039054906101000a900460ff16908060000160049054906101000a900473ffffffffffffffffffffffffffffffffffffffff16905085565b604860149054906101000a900460ff1681565b6060600667ffffffffffffffff811180156126d757600080fd5b5060405190808252806020026020018201604052801561271157816020015b6126fe6144d2565b8152602001906001900390816126f65790505b50905060008090505b60068160ff161015612860576046600060458360ff166006811061273a57fe5b602091828204019190069054906101000a900460ff1660ff1660ff1681526020019081526020016000206040518060a00160405290816000820160009054906101000a900460ff1660ff1660ff1681526020016000820160019054906101000a900460ff1660ff1660ff1681526020016000820160029054906101000a900460ff1660ff1660ff1681526020016000820160039054906101000a900460ff1660ff1660ff1681526020016000820160049054906101000a900473ffffffffffffffffffffffffffffffffffffffff1673ffffffffffffffffffffffffffffffffffffffff1673ffffffffffffffffffffffffffffffffffffffff1681525050828260ff168151811061284857fe5b6020026020010181905250808060010191505061271a565b5080905090565b604760009054906101000a900460ff1681565b60038081111561288657fe5b603460019054906101000a900460ff1660038111156128a157fe5b14156128e2576040517f08c379a00000000000000000000000000000000000000000000000000000000081526004016128d9906153ef565b60405180910390fd5b604760019054906101000a900473ffffffffffffffffffffffffffffffffffffffff1673ffffffffffffffffffffffffffffffffffffffff163373ffffffffffffffffffffffffffffffffffffffff1614156129a1576001600381111561294557fe5b603460019054906101000a900460ff16600381111561296057fe5b146129a0576040517f08c379a0000000000000000000000000000000000000000000000000000000008152600401612997906154cf565b60405180910390fd5b5b604860009054906101000a900473ffffffffffffffffffffffffffffffffffffffff1673ffffffffffffffffffffffffffffffffffffffff163373ffffffffffffffffffffffffffffffffffffffff161415612a605760026003811115612a0457fe5b603460019054906101000a900460ff166003811115612a1f57fe5b14612a5f576040517f08c379a0000000000000000000000000000000000000000000000000000000008152600401612a569061540f565b60405180910390fd5b5b6000603460009054906101000a900460ff1660ff1611612ab5576040517f08c379a0000000000000000000000000000000000000000000000000000000008152600401612aac9061546f565b60405180910390fd5b6000604460008660ff1660ff1681526020019081526020016000209050600280811115612ade57fe5b8160000160019054906101000a900460ff166002811115612afb57fe5b14612b3b576040517f08c379a0000000000000000000000000000000000000000000000000000000008152600401612b32906153cf565b60405180910390fd5b3373ffffffffffffffffffffffffffffffffffffffff168160000160029054906101000a900473ffffffffffffffffffffffffffffffffffffffff1673ffffffffffffffffffffffffffffffffffffffff1614612bcd576040517f08c379a0000000000000000000000000000000000000000000000000000000008152600401612bc4906154af565b60405180910390fd5b806001015473__ZKChessUtils__________________________639c93c9858686867f30644e72e131a029b85045b68181585d2833e84879b9709143e1f593f00000016040518563ffffffff1660e01b8152600401612c2f949392919061550a565b60206040518083038186803b158015612c4757600080fd5b505af4158015612c5b573d6000803e3d6000fd5b505050506040513d601f19601f82011682018060405250810190612c7f9190614904565b14612cbf576040517f08c379a0000000000000000000000000000000000000000000000000000000008152600401612cb69061542f565b60405180910390fd5b60006044600060358760078110612cd257fe5b018660078110612cde57fe5b602091828204019190069054906101000a900460ff1660ff1660ff16815260200190815260200160002090506000604760019054906101000a900473ffffffffffffffffffffffffffffffffffffffff169050604760019054906101000a900473ffffffffffffffffffffffffffffffffffffffff1673ffffffffffffffffffffffffffffffffffffffff163373ffffffffffffffffffffffffffffffffffffffff161415612dad57604860009054906101000a900473ffffffffffffffffffffffffffffffffffffffff1690505b8073ffffffffffffffffffffffffffffffffffffffff168260000160029054906101000a900473ffffffffffffffffffffffffffffffffffffffff1673ffffffffffffffffffffffffffffffffffffffff1614612e3f576040517f08c379a0000000000000000000000000000000000000000000000000000000008152600401612e36906153af565b60405180910390fd5b60018260000160186101000a81548160ff021916908315150217905550612e64613d51565b50505050505050565b7f104ddaefd01036b8465b22025720f944733190135fd4ed564186bc3cfcaec72281565b603c8260078110612e9e57fe5b018160078110612eaa57fe5b60209182820401919006915091509054906101000a900460ff1681565b604860159054906101000a900460ff1681565b60458160068110612ee757fe5b60209182820401919006915054906101000a900460ff1681565b6060600867ffffffffffffffff81118015612f1b57600080fd5b50604051908082528060200260200182016040528015612f5557816020015b612f42614523565b815260200190600190039081612f3a5790505b50905060008090505b60088160ff1610156130d9576044600060438360ff1660088110612f7e57fe5b602091828204019190069054906101000a900460ff1660ff1660ff1681526020019081526020016000206040518060e00160405290816000820160009054906101000a900460ff1660ff1660ff1681526020016000820160019054906101000a900460ff166002811115612fee57fe5b6002811115612ff957fe5b81526020016000820160029054906101000a900473ffffffffffffffffffffffffffffffffffffffff1673ffffffffffffffffffffffffffffffffffffffff1673ffffffffffffffffffffffffffffffffffffffff1681526020016000820160169054906101000a900460ff1660ff1660ff1681526020016000820160179054906101000a900460ff1660ff1660ff1681526020016000820160189054906101000a900460ff16151515158152602001600182015481525050828260ff16815181106130c157fe5b60200260200101819052508080600101915050612f5e565b5080905090565b604381600881106130ed57fe5b60209182820401919006915054906101000a900460ff1681565b603460019054906101000a900460ff1681565b604760019054906101000a900473ffffffffffffffffffffffffffffffffffffffff1681565b6000600381111561314d57fe5b603460019054906101000a900460ff16600381111561316857fe5b146131a8576040517f08c379a000000000000000000000000000000000000000000000000000000000815260040161319f9061548f565b60405180910390fd5b600073ffffffffffffffffffffffffffffffffffffffff16604760019054906101000a900473ffffffffffffffffffffffffffffffffffffffff1673ffffffffffffffffffffffffffffffffffffffff1614156132455733604760016101000a81548173ffffffffffffffffffffffffffffffffffffffff021916908373ffffffffffffffffffffffffffffffffffffffff1602179055506135b2565b604760019054906101000a900473ffffffffffffffffffffffffffffffffffffffff1673ffffffffffffffffffffffffffffffffffffffff163373ffffffffffffffffffffffffffffffffffffffff1614156132d6576040517f08c379a00000000000000000000000000000000000000000000000000000000081526004016132cd9061534f565b60405180910390fd5b6000600242816132e257fe5b06141561332f5733604860006101000a81548173ffffffffffffffffffffffffffffffffffffffff021916908373ffffffffffffffffffffffffffffffffffffffff1602179055506133d4565b604760019054906101000a900473ffffffffffffffffffffffffffffffffffffffff16604860006101000a81548173ffffffffffffffffffffffffffffffffffffffff021916908373ffffffffffffffffffffffffffffffffffffffff16021790555033604760016101000a81548173ffffffffffffffffffffffffffffffffffffffff021916908373ffffffffffffffffffffffffffffffffffffffff1602179055505b6000600190505b60058160ff16101561347157604760019054906101000a900473ffffffffffffffffffffffffffffffffffffffff16604460008360ff1660ff16815260200190815260200160002060000160026101000a81548173ffffffffffffffffffffffffffffffffffffffff021916908373ffffffffffffffffffffffffffffffffffffffff16021790555080806001019150506133db565b506000600590505b60098160ff16101561350f57604860009054906101000a900473ffffffffffffffffffffffffffffffffffffffff16604460008360ff1660ff16815260200190815260200160002060000160026101000a81548173ffffffffffffffffffffffffffffffffffffffff021916908373ffffffffffffffffffffffffffffffffffffffff1602179055508080600101915050613479565b506001603460016101000a81548160ff0219169083600381111561352f57fe5b02179055507f8fd707874eb940598510258c64cad23fd35fe8c85c5c38e8782fac2cc887fb6e604760019054906101000a900473ffffffffffffffffffffffffffffffffffffffff16604860009054906101000a900473ffffffffffffffffffffffffffffffffffffffff166040516135a9929190615245565b60405180910390a15b565b600781565b6003808111156135c557fe5b603460019054906101000a900460ff1660038111156135e057fe5b1415613621576040517f08c379a0000000000000000000000000000000000000000000000000000000008152600401613618906153ef565b60405180910390fd5b604760019054906101000a900473ffffffffffffffffffffffffffffffffffffffff1673ffffffffffffffffffffffffffffffffffffffff163373ffffffffffffffffffffffffffffffffffffffff1614156136e0576001600381111561368457fe5b603460019054906101000a900460ff16600381111561369f57fe5b146136df576040517f08c379a00000000000000000000000000000000000000000000000000000000081526004016136d6906154cf565b60405180910390fd5b5b604860009054906101000a900473ffffffffffffffffffffffffffffffffffffffff1673ffffffffffffffffffffffffffffffffffffffff163373ffffffffffffffffffffffffffffffffffffffff16141561379f576002600381111561374357fe5b603460019054906101000a900460ff16600381111561375e57fe5b1461379e576040517f08c379a00000000000000000000000000000000000000000000000000000000081526004016137959061540f565b60405180910390fd5b5b6000603460009054906101000a900460ff1660ff16116137f4576040517f08c379a00000000000000000000000000000000000000000000000000000000081526004016137eb9061546f565b60405180910390fd5b6000604460008560ff1660ff16815260200190815260200160002090503373ffffffffffffffffffffffffffffffffffffffff168160000160029054906101000a900473ffffffffffffffffffffffffffffffffffffffff1673ffffffffffffffffffffffffffffffffffffffff16146138a3576040517f08c379a000000000000000000000000000000000000000000000000000000000815260040161389a906154af565b60405180910390fd5b8060000160189054906101000a900460ff16156138f5576040517f08c379a00000000000000000000000000000000000000000000000000000000081526004016138ec9061532f565b60405180910390fd5b613a0a816040518060e00160405290816000820160009054906101000a900460ff1660ff1660ff1681526020016000820160019054906101000a900460ff16600281111561393f57fe5b600281111561394a57fe5b81526020016000820160029054906101000a900473ffffffffffffffffffffffffffffffffffffffff1673ffffffffffffffffffffffffffffffffffffffff1673ffffffffffffffffffffffffffffffffffffffff1681526020016000820160169054906101000a900460ff1660ff1660ff1681526020016000820160179054906101000a900460ff1660ff1660ff1681526020016000820160189054906101000a900460ff1615151515815260200160018201548152505084846104d2565b613a49576040517f08c379a0000000000000000000000000000000000000000000000000000000008152600401613a409061538f565b60405180910390fd5b600060358260000160169054906101000a900460ff1660ff1660078110613a6c57fe5b018260000160179054906101000a900460ff1660ff1660078110613a8c57fe5b602091828204019190066101000a81548160ff021916908360ff1602179055508060000160009054906101000a900460ff1660358460ff1660078110613ace57fe5b018360ff1660078110613add57fe5b602091828204019190066101000a81548160ff021916908360ff160217905550828160000160166101000a81548160ff021916908360ff160217905550818160000160176101000a81548160ff021916908360ff160217905550600060466000603c8660ff1660078110613b4d57fe5b018560ff1660078110613b5c57fe5b602091828204019190069054906101000a900460ff1660ff1660ff16815260200190815260200160002060000160019054906101000a900460ff1660ff16118015613c435750600073ffffffffffffffffffffffffffffffffffffffff1660466000603c8660ff1660078110613bce57fe5b018560ff1660078110613bdd57fe5b602091828204019190069054906101000a900460ff1660ff1660ff16815260200190815260200160002060000160049054906101000a900473ffffffffffffffffffffffffffffffffffffffff1673ffffffffffffffffffffffffffffffffffffffff16145b15613d4357604760019054906101000a900473ffffffffffffffffffffffffffffffffffffffff1673ffffffffffffffffffffffffffffffffffffffff163373ffffffffffffffffffffffffffffffffffffffff161415613cf257603c8360ff1660078110613cae57fe5b018260ff1660078110613cbd57fe5b602091828204019190069054906101000a900460ff16604860166101000a81548160ff021916908360ff160217905550613d42565b603c8360ff1660078110613d0257fe5b018260ff1660078110613d1157fe5b602091828204019190069054906101000a900460ff16604860176101000a81548160ff021916908360ff1602179055505b5b613d4b613d51565b50505050565b604760019054906101000a900473ffffffffffffffffffffffffffffffffffffffff1673ffffffffffffffffffffffffffffffffffffffff163373ffffffffffffffffffffffffffffffffffffffff16141561404057600060466000604860179054906101000a900460ff1660ff1660ff168152602001908152602001600020905060008160000160019054906101000a900460ff1660ff16118015613e475750600073ffffffffffffffffffffffffffffffffffffffff168160000160049054906101000a900473ffffffffffffffffffffffffffffffffffffffff1673ffffffffffffffffffffffffffffffffffffffff16145b15613ffa5760006044600060358460000160029054906101000a900460ff1660ff1660078110613e7357fe5b018460000160039054906101000a900460ff1660ff1660078110613e9357fe5b602091828204019190069054906101000a900460ff1660ff1660ff1681526020019081526020016000209050604860009054906101000a900473ffffffffffffffffffffffffffffffffffffffff1673ffffffffffffffffffffffffffffffffffffffff168160000160029054906101000a900473ffffffffffffffffffffffffffffffffffffffff1673ffffffffffffffffffffffffffffffffffffffff16148015613f4f57508060000160189054906101000a900460ff16155b15613ff857604860009054906101000a900473ffffffffffffffffffffffffffffffffffffffff168260000160046101000a81548173ffffffffffffffffffffffffffffffffffffffff021916908373ffffffffffffffffffffffffffffffffffffffff1602179055508160000160019054906101000a900460ff16604860158282829054906101000a900460ff160192506101000a81548160ff021916908360ff1602179055505b505b6000604860176101000a81548160ff021916908360ff1602179055506002603460016101000a81548160ff0219169083600381111561403557fe5b021790555050614307565b600060466000604860169054906101000a900460ff1660ff1660ff168152602001908152602001600020905060008160000160019054906101000a900460ff1660ff161180156140e05750600073ffffffffffffffffffffffffffffffffffffffff168160000160049054906101000a900473ffffffffffffffffffffffffffffffffffffffff1673ffffffffffffffffffffffffffffffffffffffff16145b156142935760006044600060358460000160029054906101000a900460ff1660ff166007811061410c57fe5b018460000160039054906101000a900460ff1660ff166007811061412c57fe5b602091828204019190069054906101000a900460ff1660ff1660ff1681526020019081526020016000209050604760019054906101000a900473ffffffffffffffffffffffffffffffffffffffff1673ffffffffffffffffffffffffffffffffffffffff168160000160029054906101000a900473ffffffffffffffffffffffffffffffffffffffff1673ffffffffffffffffffffffffffffffffffffffff161480156141e857508060000160189054906101000a900460ff16155b1561429157604760019054906101000a900473ffffffffffffffffffffffffffffffffffffffff168260000160046101000a81548173ffffffffffffffffffffffffffffffffffffffff021916908373ffffffffffffffffffffffffffffffffffffffff1602179055508160000160019054906101000a900460ff16604860148282829054906101000a900460ff160192506101000a81548160ff021916908360ff1602179055505b505b6000604860166101000a81548160ff021916908360ff1602179055506034600081819054906101000a900460ff168092919060010191906101000a81548160ff021916908360ff160217905550506001603460016101000a81548160ff0219169083600381111561430057fe5b0217905550505b7f8eaa9f09cc5e3b56163bc8d93f99b4299c7172f83d51d1448e8d9a3dc6d1a10133604051614336919061522a565b60405180910390a1614346612014565b1561439c576003603460016101000a81548160ff0219169083600381111561436a57fe5b02179055507fb537cbcadc098cfedf5a04ef7e68a8554b55f7e45bfdaca1cbc51a686ef65f4860405160405180910390a15b565b826008601f016020900481019282156144275791602002820160005b838211156143f857835183826101000a81548160ff021916908360ff16021790555092602001926001016020816000010492830192600103026143ba565b80156144255782816101000a81549060ff02191690556001016020816000010492830192600103026143f8565b505b509050614434919061458c565b5090565b826006601f016020900481019282156144c15791602002820160005b8382111561449257835183826101000a81548160ff021916908360ff1602179055509260200192600101602081600001049283019260010302614454565b80156144bf5782816101000a81549060ff0219169055600101602081600001049283019260010302614492565b505b5090506144ce919061458c565b5090565b6040518060a00160405280600060ff168152602001600060ff168152602001600060ff168152602001600060ff168152602001600073ffffffffffffffffffffffffffffffffffffffff1681525090565b6040518060e00160405280600060ff1681526020016000600281111561454557fe5b8152602001600073ffffffffffffffffffffffffffffffffffffffff168152602001600060ff168152602001600060ff168152602001600015158152602001600081525090565b6145b991905b808211156145b557600081816101000a81549060ff021916905550600101614592565b5090565b90565b6000813590506145cb81615874565b92915050565b600082601f8301126145e257600080fd5b60026145f56145f082615659565b61562c565b9150818385604084028201111561460b57600080fd5b60005b8381101561463b57816146218882614645565b84526020840193506040830192505060018101905061460e565b5050505092915050565b600082601f83011261465657600080fd5b60026146696146648261567b565b61562c565b9150818385602084028201111561467f57600080fd5b60005b838110156146af578161469588826147a8565b845260208401935060208301925050600181019050614682565b5050505092915050565b6000813590506146c88161588b565b92915050565b6000815190506146dd8161588b565b92915050565b6000813590506146f2816158a2565b92915050565b600060e0828403121561470a57600080fd5b61471460e061562c565b90506000614724848285016147d2565b6000830152506020614738848285016146e3565b602083015250604061474c848285016145bc565b6040830152506060614760848285016147d2565b6060830152506080614774848285016147d2565b60808301525060a0614788848285016146b9565b60a08301525060c061479c848285016147a8565b60c08301525092915050565b6000813590506147b7816158b2565b92915050565b6000815190506147cc816158b2565b92915050565b6000813590506147e1816158c9565b92915050565b6000806000806000610160868803121561480057600080fd5b600061480e88828901614645565b955050604061481f888289016145d1565b94505060c061483088828901614645565b93505061010061484288828901614645565b925050610140614854888289016147d2565b9150509295509295909350565b60006020828403121561487357600080fd5b6000614881848285016146ce565b91505092915050565b600080600061012084860312156148a057600080fd5b60006148ae868287016146f8565b93505060e06148bf868287016147d2565b9250506101006148d1868287016147d2565b9150509250925092565b6000602082840312156148ed57600080fd5b60006148fb848285016147a8565b91505092915050565b60006020828403121561491657600080fd5b6000614924848285016147bd565b91505092915050565b6000806040838503121561494057600080fd5b600061494e858286016147a8565b925050602061495f858286016146b9565b9150509250929050565b6000806040838503121561497c57600080fd5b600061498a858286016147a8565b925050602061499b858286016147a8565b9150509250929050565b6000602082840312156149b757600080fd5b60006149c5848285016147d2565b91505092915050565b600080600080608085870312156149e457600080fd5b60006149f2878288016147d2565b9450506020614a03878288016147a8565b9350506040614a14878288016147a8565b9250506060614a25878288016147a8565b91505092959194509250565b600080600060608486031215614a4657600080fd5b6000614a54868287016147d2565b9350506020614a65868287016147d2565b9250506040614a76868287016147d2565b9150509250925092565b6000614a8c8383614c77565b60408301905092915050565b6000614aa483836150bf565b60a08301905092915050565b6000614abc8383615127565b60e08301905092915050565b6000614ad483836151e2565b60208301905092915050565b614ae981615800565b82525050565b614af881615785565b82525050565b614b0781615785565b82525050565b614b16816156d1565b614b208184615731565b9250614b2b8261569d565b8060005b83811015614b5c578151614b438782614a80565b9650614b4e836156fd565b925050600181019050614b2f565b505050505050565b6000614b6f826156dc565b614b79818561573c565b9350614b84836156a7565b8060005b83811015614bb5578151614b9c8882614a98565b9750614ba78361570a565b925050600181019050614b88565b5085935050505092915050565b6000614bcd826156e7565b614bd7818561574d565b9350614be2836156b7565b8060005b83811015614c13578151614bfa8882614ab0565b9750614c0583615717565b925050600181019050614be6565b5085935050505092915050565b614c29816156f2565b614c33818461575e565b9250614c3e826156c7565b8060005b83811015614c6f578151614c568782614ac8565b9650614c6183615724565b925050600181019050614c42565b505050505050565b614c80816156f2565b614c8a8184615769565b9250614c95826156c7565b8060005b83811015614cc6578151614cad8782614ac8565b9650614cb883615724565b925050600181019050614c99565b505050505050565b614cd781615797565b82525050565b614ce681615797565b82525050565b614cf581615812565b82525050565b614d0481615824565b82525050565b614d1381615824565b82525050565b6000614d26600d83615774565b91507f50696563652069732064656164000000000000000000000000000000000000006000830152602082019050919050565b6000614d66601583615774565b91507f63616e2774206a6f696e2067616d6520747769636500000000000000000000006000830152602082019050919050565b6000614da6601483615774565b91507f4661696c6564207a6b206d6f766520636865636b0000000000000000000000006000830152602082019050919050565b6000614de6600c83615774565b91507f496e76616c6964206d6f766500000000000000000000000000000000000000006000830152602082019050919050565b6000614e26602983615774565b91507f63616e206f6e6c792072657665616c20746f2063617074757265206f70706f7360008301527f696e6720706965636500000000000000000000000000000000000000000000006020830152604082019050919050565b6000614e8c601583615774565b91507f5069656365206d75737420626520612067686f737400000000000000000000006000830152602082019050919050565b6000614ecc600d83615774565b91507f47616d6520697320656e646564000000000000000000000000000000000000006000830152602082019050919050565b6000614f0c600d83615774565b91507f4e6f742070322773207475726e000000000000000000000000000000000000006000830152602082019050919050565b6000614f4c600e83615774565b91507f496e76616c69642072657665616c0000000000000000000000000000000000006000830152602082019050919050565b6000614f8c601083615774565b91507f5a4b2050726f6f6620696e76616c6964000000000000000000000000000000006000830152602082019050919050565b6000614fcc601d83615774565b91507f4d757374206d6f76652067686f7374206f6e206669727374207475726e0000006000830152602082019050919050565b600061500c601483615774565b91507f47616d6520616c726561647920737461727465640000000000000000000000006000830152602082019050919050565b600061504c601883615774565b91507f596f7520646f6e2774206f776e207468617420706965636500000000000000006000830152602082019050919050565b600061508c600d83615774565b91507f4e6f742070312773207475726e000000000000000000000000000000000000006000830152602082019050919050565b60a0820160008201516150d560008501826151f1565b5060208201516150e860208501826151f1565b5060408201516150fb60408501826151f1565b50606082015161510e60608501826151f1565b5060808201516151216080850182614aef565b50505050565b60e08201600082015161513d60008501826151f1565b5060208201516151506020850182614cfb565b5060408201516151636040850182614aef565b50606082015161517660608501826151f1565b50608082015161518960808501826151f1565b5060a082015161519c60a0850182614cce565b5060c08201516151af60c08501826151b5565b50505050565b6151be816157e9565b82525050565b6151cd816157e9565b82525050565b6151dc816157e9565b82525050565b6151eb816157e9565b82525050565b6151fa816157f3565b82525050565b615209816157f3565b82525050565b60006020820190506152246000830184614afe565b92915050565b600060208201905061523f6000830184614ae0565b92915050565b600060408201905061525a6000830185614afe565b6152676020830184614afe565b9392505050565b600060208201905081810360008301526152888184614b64565b905092915050565b600060208201905081810360008301526152aa8184614bc2565b905092915050565b6000610140820190506152c86000830187614c20565b6152d56040830186614b0d565b6152e260c0830185614c20565b6152f0610100830184614c20565b95945050505050565b600060208201905061530e6000830184614cdd565b92915050565b60006020820190506153296000830184614cec565b92915050565b6000602082019050818103600083015261534881614d19565b9050919050565b6000602082019050818103600083015261536881614d59565b9050919050565b6000602082019050818103600083015261538881614d99565b9050919050565b600060208201905081810360008301526153a881614dd9565b9050919050565b600060208201905081810360008301526153c881614e19565b9050919050565b600060208201905081810360008301526153e881614e7f565b9050919050565b6000602082019050818103600083015261540881614ebf565b9050919050565b6000602082019050818103600083015261542881614eff565b9050919050565b6000602082019050818103600083015261544881614f3f565b9050919050565b6000602082019050818103600083015261546881614f7f565b9050919050565b6000602082019050818103600083015261548881614fbf565b9050919050565b600060208201905081810360008301526154a881614fff565b9050919050565b600060208201905081810360008301526154c88161503f565b9050919050565b600060208201905081810360008301526154e88161507f565b9050919050565b600060208201905061550460008301846151c4565b92915050565b600060808201905061551f60008301876151d3565b61552c60208301866151d3565b61553960408301856151d3565b61554660608301846151d3565b95945050505050565b60006020820190506155646000830184615200565b92915050565b600060e08201905061557f600083018a615200565b61558c6020830189614d0a565b6155996040830188614afe565b6155a66060830187615200565b6155b36080830186615200565b6155c060a0830185614cdd565b6155cd60c08301846151c4565b98975050505050505050565b600060a0820190506155ee6000830188615200565b6155fb6020830187615200565b6156086040830186615200565b6156156060830185615200565b6156226080830184614afe565b9695505050505050565b6000604051905081810181811067ffffffffffffffff8211171561564f57600080fd5b8060405250919050565b600067ffffffffffffffff82111561567057600080fd5b602082029050919050565b600067ffffffffffffffff82111561569257600080fd5b602082029050919050565b6000819050919050565b6000819050602082019050919050565b6000819050602082019050919050565b6000819050919050565b600060029050919050565b600081519050919050565b600081519050919050565b600060029050919050565b6000602082019050919050565b6000602082019050919050565b6000602082019050919050565b6000602082019050919050565b600081905092915050565b600082825260208201905092915050565b600082825260208201905092915050565b600081905092915050565b600081905092915050565b600082825260208201905092915050565b6000615790826157c9565b9050919050565b60008115159050919050565b60008190506157b18261585a565b919050565b60008190506157c482615867565b919050565b600073ffffffffffffffffffffffffffffffffffffffff82169050919050565b6000819050919050565b600060ff82169050919050565b600061580b82615836565b9050919050565b600061581d826157a3565b9050919050565b600061582f826157b6565b9050919050565b600061584182615848565b9050919050565b6000615853826157c9565b9050919050565b6004811061586457fe5b50565b6003811061587157fe5b50565b61587d81615785565b811461588857600080fd5b50565b61589481615797565b811461589f57600080fd5b50565b600381106158af57600080fd5b50565b6158bb816157e9565b81146158c657600080fd5b50565b6158d2816157f3565b81146158dd57600080fd5b5056fea2646970667358221220874f6909cc28b5fa721b09bc5d61df9f2ede4c9f561c92a6c575ee5abe3423d164736f6c63430006070033",
  "immutableReferences": {},
  "source": "pragma solidity ^0.6.7;\npragma experimental ABIEncoderV2;\n\nimport \"@openzeppelin/contracts-ethereum-package/contracts/Initializable.sol\";\nimport \"./ZKChessTypes.sol\";\nimport \"./ZKChessUtils.sol\";\nimport \"./Verifier.sol\";\n\ncontract ZKChessGame is Initializable {\n    uint256\n        public constant FIELD_SIZE = 21888242871839275222246405745257275088548364400416034343698204186575808495617;\n    uint256\n        public constant GHOST_START_COMMITMENT = 7374563847362678215915084925243633004703986452179446109135597066279732561698;\n    uint256 public constant BOARD_SIZE = 7;\n\n    uint256 gameId;\n\n    uint8 public turnNumber;\n    GameState public gameState;\n    uint8[BOARD_SIZE][BOARD_SIZE] public boardPieces; // board[row][col]\n    uint8[BOARD_SIZE][BOARD_SIZE] public boardObjectives;\n\n    uint8[8] public pieceIds;\n    mapping(uint8 => Piece) public pieces;\n    uint8[6] public objectiveIds;\n    mapping(uint8 => Objective) public objectives;\n\n    bool public DISABLE_ZK_CHECK;\n\n    address public player1;\n    address public player2;\n\n    uint8 public player1Score;\n    uint8 public player2Score;\n\n    uint8 p1CurrentlyCapturing;\n    uint8 p2CurrentlyCapturing;\n\n    uint256 pfsVerified;\n\n    function initialize(uint256 _gameId, bool _disableZKCheck) public {\n        gameId = _gameId;\n        DISABLE_ZK_CHECK = _disableZKCheck;\n        gameState = GameState.WAITING_FOR_PLAYERS;\n\n        pieceIds = [1, 2, 3, 4, 5, 6, 7, 8];\n        objectiveIds = [9, 10, 11, 12, 13, 14];\n\n        // initialize pieces\n        pieces[1] = Piece({\n            id: 1,\n            pieceType: PieceType.KING,\n            owner: address(0),\n            row: 0,\n            col: 1,\n            dead: false,\n            commitment: 0\n        });\n        boardPieces[0][1] = 1;\n        pieces[2] = Piece({\n            id: 2,\n            pieceType: PieceType.KNIGHT,\n            owner: address(0),\n            row: 0,\n            col: 3,\n            dead: false,\n            commitment: 0\n        });\n        boardPieces[0][3] = 2;\n        pieces[3] = Piece({\n            id: 3,\n            pieceType: PieceType.KING,\n            owner: address(0),\n            row: 0,\n            col: 5,\n            dead: false,\n            commitment: 0\n        });\n        boardPieces[0][5] = 3;\n        pieces[4] = Piece({\n            id: 4,\n            pieceType: PieceType.GHOST,\n            owner: address(0),\n            row: 0,\n            col: 0,\n            dead: false,\n            commitment: GHOST_START_COMMITMENT\n        });\n        pieces[5] = Piece({\n            id: 5,\n            pieceType: PieceType.KING,\n            owner: address(0),\n            row: 6,\n            col: 1,\n            dead: false,\n            commitment: 0\n        });\n        boardPieces[6][1] = 5;\n        pieces[6] = Piece({\n            id: 6,\n            pieceType: PieceType.KNIGHT,\n            owner: address(0),\n            row: 6,\n            col: 3,\n            dead: false,\n            commitment: 0\n        });\n        boardPieces[6][3] = 6;\n        pieces[7] = Piece({\n            id: 7,\n            pieceType: PieceType.KING,\n            owner: address(0),\n            row: 6,\n            col: 5,\n            dead: false,\n            commitment: 0\n        });\n        boardPieces[6][5] = 7;\n        pieces[8] = Piece({\n            id: 8,\n            pieceType: PieceType.GHOST,\n            owner: address(0),\n            row: 6,\n            col: 0,\n            dead: false,\n            commitment: GHOST_START_COMMITMENT\n        });\n\n        // initialize objectives\n        objectives[9] = Objective({\n            id: 9,\n            value: 5,\n            row: 3,\n            col: 0,\n            capturedBy: address(0)\n        });\n        boardObjectives[3][0] = 9;\n        objectives[10] = Objective({\n            id: 10,\n            value: 5,\n            row: 2,\n            col: 2,\n            capturedBy: address(0)\n        });\n        boardObjectives[2][2] = 10;\n        objectives[11] = Objective({\n            id: 11,\n            value: 10,\n            row: 4,\n            col: 2,\n            capturedBy: address(0)\n        });\n        boardObjectives[4][2] = 11;\n        objectives[12] = Objective({\n            id: 12,\n            value: 10,\n            row: 2,\n            col: 4,\n            capturedBy: address(0)\n        });\n        boardObjectives[2][4] = 12;\n        objectives[13] = Objective({\n            id: 13,\n            value: 5,\n            row: 4,\n            col: 4,\n            capturedBy: address(0)\n        });\n        boardObjectives[4][4] = 13;\n        objectives[14] = Objective({\n            id: 14,\n            value: 5,\n            row: 3,\n            col: 6,\n            capturedBy: address(0)\n        });\n        boardObjectives[3][6] = 14;\n    }\n\n    //////////////\n    /// EVENTS ///\n    //////////////\n\n    event ProofVerified(uint256 pfsAccepted);\n    event GameStart(address p1, address p2);\n    event MoveMade(address player);\n    event GameFinished();\n\n    ///////////////\n    /// GETTERS ///\n    ///////////////\n\n    function getPieces() public view returns (Piece[] memory ret) {\n        ret = new Piece[](pieceIds.length);\n        for (uint8 i = 0; i < pieceIds.length; i++) {\n            ret[i] = pieces[pieceIds[i]];\n        }\n        return ret;\n    }\n\n    function getObjectives() public view returns (Objective[] memory ret) {\n        ret = new Objective[](objectiveIds.length);\n        for (uint8 i = 0; i < objectiveIds.length; i++) {\n            ret[i] = objectives[objectiveIds[i]];\n        }\n        return ret;\n    }\n\n    //////////////\n    /// Helper ///\n    //////////////\n\n    function isValidMove(\n        Piece memory piece,\n        uint8 toRow,\n        uint8 toCol\n    ) public view returns (bool) {\n        if (toRow >= BOARD_SIZE || toCol >= BOARD_SIZE) {\n            // must be in the range [0, SIZE - 1]\n            return false;\n        }\n        if (boardPieces[toRow][toCol] > 0) {\n            // a piece already exists there\n            return false;\n        }\n        if (piece.pieceType == PieceType.GHOST) {\n            return false;\n        } else if (piece.pieceType == PieceType.KING) {\n            if (piece.row == toRow && piece.col == toCol) {\n                return false;\n            }\n            int16 rowDiff = int16(piece.row) - int16(toRow);\n            if (rowDiff > 1 || rowDiff < -1) {\n                return false;\n            }\n            int16 colDiff = int16(piece.col) - int16(toCol);\n            if (colDiff > 1 || colDiff < -1) {\n                return false;\n            }\n        } else if (piece.pieceType == PieceType.KNIGHT) {\n            int16 rowDiff = int16(piece.row) - int16(toRow);\n            int16 colDiff = int16(piece.col) - int16(toCol);\n            if (rowDiff == 2 || rowDiff == -2) {\n                if (colDiff != 1 && colDiff != -1) {\n                    return false;\n                }\n            } else if (rowDiff == 1 || rowDiff == -1) {\n                if (colDiff != 2 && colDiff != -2) {\n                    return false;\n                }\n            } else {\n                return false;\n            }\n        }\n        return true;\n    }\n\n    function gameShouldBeCompleted() public view returns (bool) {\n        // check if game is over: no pieces left, OR no objectives left\n        bool noPiecesLeft = true;\n        for (uint8 i = 0; i < pieceIds.length; i++) {\n            if (!pieces[pieceIds[i]].dead) {\n                noPiecesLeft = false;\n                break;\n            }\n        }\n        if (noPiecesLeft) {\n            return true;\n        }\n\n        bool noObjectivesLeft = true;\n        for (uint8 i = 0; i < objectiveIds.length; i++) {\n            if (objectives[objectiveIds[i]].capturedBy == address(0)) {\n                noObjectivesLeft = false;\n                break;\n            }\n        }\n        if (noObjectivesLeft) {\n            return true;\n        }\n        return false;\n    }\n\n    //////////////////////\n    /// Game Mechanics ///\n    //////////////////////\n\n    function joinGame() public {\n        require(\n            gameState == GameState.WAITING_FOR_PLAYERS,\n            \"Game already started\"\n        );\n        if (player1 == address(0)) {\n            // first player to join game\n            player1 = msg.sender;\n            return;\n        }\n        // another player has joined. game is ready to start\n\n        require(msg.sender != player1, \"can't join game twice\");\n        // randomize player order\n        if (block.timestamp % 2 == 0) {\n            player2 = msg.sender;\n        } else {\n            player2 = player1;\n            player1 = msg.sender;\n        }\n\n        // set pieces\n        for (uint8 i = 1; i < 5; i++) {\n            pieces[i].owner = player1;\n        }\n        for (uint8 i = 5; i < 9; i++) {\n            pieces[i].owner = player2;\n        }\n\n        gameState = GameState.P1_TO_MOVE;\n        emit GameStart(player1, player2);\n    }\n\n    function movePiece(\n        uint8 pieceId,\n        uint8 toRow,\n        uint8 toCol\n    ) public {\n        require(gameState != GameState.COMPLETE, \"Game is ended\");\n        if (msg.sender == player1) {\n            require(gameState == GameState.P1_TO_MOVE, \"Not p1's turn\");\n        }\n        if (msg.sender == player2) {\n            require(gameState == GameState.P2_TO_MOVE, \"Not p2's turn\");\n        }\n        require(turnNumber > 0, \"Must move ghost on first turn\");\n        Piece storage piece = pieces[pieceId];\n        require(piece.owner == msg.sender, \"You don't own that piece\");\n        require(!piece.dead, \"Piece is dead\");\n        require(isValidMove(piece, toRow, toCol), \"Invalid move\");\n\n        boardPieces[piece.row][piece.col] = 0;\n        boardPieces[toRow][toCol] = piece.id;\n        piece.row = toRow;\n        piece.col = toCol;\n        if (\n            objectives[boardObjectives[toRow][toCol]].value > 0 &&\n            objectives[boardObjectives[toRow][toCol]].capturedBy == address(0)\n        ) {\n            if (msg.sender == player1) {\n                p1CurrentlyCapturing = boardObjectives[toRow][toCol];\n            } else {\n                p2CurrentlyCapturing = boardObjectives[toRow][toCol];\n            }\n        }\n        completeTurn();\n    }\n\n    function moveGhost(\n        uint256[2] memory _a,\n        uint256[2][2] memory _b,\n        uint256[2] memory _c,\n        uint256[2] memory _input,\n        uint8 pieceId\n    ) public {\n        require(gameState != GameState.COMPLETE, \"Game is ended\");\n        if (msg.sender == player1) {\n            require(gameState == GameState.P1_TO_MOVE, \"Not p1's turn\");\n        }\n        if (msg.sender == player2) {\n            require(gameState == GameState.P2_TO_MOVE, \"Not p2's turn\");\n        }\n        Piece storage piece = pieces[pieceId];\n        require(piece.pieceType == PieceType.GHOST, \"Piece must be a ghost\");\n        require(piece.owner == msg.sender, \"You don't own that piece\");\n        require(piece.commitment == _input[0], \"ZK Proof invalid\");\n        if (!DISABLE_ZK_CHECK) {\n            require(\n                Verifier.verifyMoveProof(_a, _b, _c, _input),\n                \"Failed zk move check\"\n            );\n        }\n        piece.commitment = _input[1];\n        completeTurn();\n    }\n\n    function ghostAttack(\n        uint8 pieceId,\n        uint256 row,\n        uint256 col,\n        uint256 salt\n    ) public {\n        require(gameState != GameState.COMPLETE, \"Game is ended\");\n        if (msg.sender == player1) {\n            require(gameState == GameState.P1_TO_MOVE, \"Not p1's turn\");\n        }\n        if (msg.sender == player2) {\n            require(gameState == GameState.P2_TO_MOVE, \"Not p2's turn\");\n        }\n        require(turnNumber > 0, \"Must move ghost on first turn\");\n        Piece storage piece = pieces[pieceId];\n        require(piece.pieceType == PieceType.GHOST, \"Piece must be a ghost\");\n        require(piece.owner == msg.sender, \"You don't own that piece\");\n        require(\n            ZKChessUtils.hashTriple(row, col, salt, FIELD_SIZE) ==\n                piece.commitment,\n            \"Invalid reveal\"\n        );\n        Piece storage theirPiece = pieces[boardPieces[row][col]];\n        address opponent = player1;\n        if (msg.sender == player1) {\n            opponent = player2;\n        }\n        require(\n            theirPiece.owner == opponent,\n            \"can only reveal to capture opposing piece\"\n        );\n        theirPiece.dead = true;\n        completeTurn();\n    }\n\n    function completeTurn() internal {\n        if (msg.sender == player1) {\n            // check if opponent captures any objectives\n            Objective storage capturing = objectives[p2CurrentlyCapturing];\n            if (capturing.value > 0 && capturing.capturedBy == address(0)) {\n                // is an uncaptured objective\n                Piece storage onObjective = pieces[boardPieces[capturing\n                    .row][capturing.col]];\n                if (onObjective.owner == player2 && !onObjective.dead) {\n                    // p2's live piece is stationed on top\n                    capturing.capturedBy = player2;\n                    player2Score += capturing.value;\n                }\n            }\n            // change to p2's turn\n            p2CurrentlyCapturing = 0;\n            gameState = GameState.P2_TO_MOVE;\n        } else {\n            // check if opponent captures any objectives\n            Objective storage capturing = objectives[p1CurrentlyCapturing];\n            if (capturing.value > 0 && capturing.capturedBy == address(0)) {\n                // is an uncaptured objective\n                Piece storage onObjective = pieces[boardPieces[capturing\n                    .row][capturing.col]];\n                if (onObjective.owner == player1 && !onObjective.dead) {\n                    // p1's live piece is stationed on top\n                    capturing.capturedBy = player1;\n                    player1Score += capturing.value;\n                }\n            }\n            // change to p1's turn\n            p1CurrentlyCapturing = 0;\n            turnNumber++;\n            gameState = GameState.P1_TO_MOVE;\n        }\n        emit MoveMade(msg.sender);\n\n        if (gameShouldBeCompleted()) {\n            gameState = GameState.COMPLETE;\n            emit GameFinished();\n        }\n    }\n}\n",
  "sourcePath": "/Users/bgu/zk-chess/eth/contracts/ZKChessGame.sol",
  "compiler": {
    "name": "solc",
    "version": "0.6.7+commit.b8d736ae.Emscripten.clang"
  },
  "schemaVersion": "3.3.1",
  "updatedAt": "2020-11-01T15:38:31.410Z",
  "networkType": "ethereum",
  "devdoc": {
    "methods": {}
  },
  "userdoc": {
    "methods": {
      "getPieces()": {
        "notice": "//////////// GETTERS /// ////////////"
      },
      "isValidMove((uint8,uint8,address,uint8,uint8,bool,uint256),uint8,uint8)": {
        "notice": "/////////// Helper /// ///////////"
      },
      "joinGame()": {
        "notice": "/////////////////// Game Mechanics /// ///////////////////"
      }
    }
  }
}