{
  "contractName": "ZKChessGame",
  "abi": [
    {
      "anonymous": false,
      "inputs": [
        {
          "indexed": false,
          "internalType": "uint16",
          "name": "sequenceNumber",
          "type": "uint16"
        },
        {
          "indexed": false,
          "internalType": "uint8",
          "name": "attacker",
          "type": "uint8"
        },
        {
          "indexed": false,
          "internalType": "uint8",
          "name": "attacked",
          "type": "uint8"
        },
        {
          "indexed": false,
          "internalType": "uint8",
          "name": "attackerHp",
          "type": "uint8"
        },
        {
          "indexed": false,
          "internalType": "uint8",
          "name": "attackedHp",
          "type": "uint8"
        }
      ],
      "name": "DidAttack",
      "type": "event"
    },
    {
      "anonymous": false,
      "inputs": [
        {
          "indexed": false,
          "internalType": "address",
          "name": "player",
          "type": "address"
        },
        {
          "indexed": false,
          "internalType": "uint8",
          "name": "turnNumber",
          "type": "uint8"
        },
        {
          "indexed": false,
          "internalType": "uint16",
          "name": "sequenceNumber",
          "type": "uint16"
        }
      ],
      "name": "DidEndTurn",
      "type": "event"
    },
    {
      "anonymous": false,
      "inputs": [
        {
          "indexed": false,
          "internalType": "uint16",
          "name": "sequenceNumber",
          "type": "uint16"
        },
        {
          "indexed": false,
          "internalType": "uint8",
          "name": "pieceId",
          "type": "uint8"
        },
        {
          "indexed": false,
          "internalType": "uint8",
          "name": "fromRow",
          "type": "uint8"
        },
        {
          "indexed": false,
          "internalType": "uint8",
          "name": "fromCol",
          "type": "uint8"
        },
        {
          "indexed": false,
          "internalType": "uint8",
          "name": "toRow",
          "type": "uint8"
        },
        {
          "indexed": false,
          "internalType": "uint8",
          "name": "toCol",
          "type": "uint8"
        }
      ],
      "name": "DidMove",
      "type": "event"
    },
    {
      "anonymous": false,
      "inputs": [
        {
          "indexed": false,
          "internalType": "address",
          "name": "player",
          "type": "address"
        },
        {
          "indexed": false,
          "internalType": "uint8",
          "name": "pieceId",
          "type": "uint8"
        },
        {
          "indexed": false,
          "internalType": "uint16",
          "name": "sequenceNumber",
          "type": "uint16"
        },
        {
          "indexed": false,
          "internalType": "enum PieceType",
          "name": "pieceType",
          "type": "uint8"
        },
        {
          "indexed": false,
          "internalType": "uint8",
          "name": "atRow",
          "type": "uint8"
        },
        {
          "indexed": false,
          "internalType": "uint8",
          "name": "atCol",
          "type": "uint8"
        }
      ],
      "name": "DidSummon",
      "type": "event"
    },
    {
      "anonymous": false,
      "inputs": [],
      "name": "GameFinished",
      "type": "event"
    },
    {
      "anonymous": false,
      "inputs": [
        {
          "indexed": false,
          "internalType": "address",
          "name": "p1",
          "type": "address"
        },
        {
          "indexed": false,
          "internalType": "address",
          "name": "p2",
          "type": "address"
        }
      ],
      "name": "GameStart",
      "type": "event"
    },
    {
      "inputs": [],
      "name": "NCOLS",
      "outputs": [
        {
          "internalType": "uint8",
          "name": "",
          "type": "uint8"
        }
      ],
      "stateMutability": "view",
      "type": "function",
      "constant": true
    },
    {
      "inputs": [],
      "name": "NROWS",
      "outputs": [
        {
          "internalType": "uint8",
          "name": "",
          "type": "uint8"
        }
      ],
      "stateMutability": "view",
      "type": "function",
      "constant": true
    },
    {
      "inputs": [
        {
          "internalType": "uint256",
          "name": "",
          "type": "uint256"
        },
        {
          "internalType": "uint256",
          "name": "",
          "type": "uint256"
        }
      ],
      "name": "boardPieces",
      "outputs": [
        {
          "internalType": "uint8",
          "name": "",
          "type": "uint8"
        }
      ],
      "stateMutability": "view",
      "type": "function",
      "constant": true
    },
    {
      "inputs": [
        {
          "internalType": "enum PieceType",
          "name": "",
          "type": "uint8"
        }
      ],
      "name": "defaultStats",
      "outputs": [
        {
          "internalType": "enum PieceType",
          "name": "pieceType",
          "type": "uint8"
        },
        {
          "internalType": "uint8",
          "name": "mvRange",
          "type": "uint8"
        },
        {
          "internalType": "uint8",
          "name": "atkMinRange",
          "type": "uint8"
        },
        {
          "internalType": "uint8",
          "name": "atkMaxRange",
          "type": "uint8"
        },
        {
          "internalType": "uint8",
          "name": "hp",
          "type": "uint8"
        },
        {
          "internalType": "uint8",
          "name": "atk",
          "type": "uint8"
        },
        {
          "internalType": "uint8",
          "name": "cost",
          "type": "uint8"
        },
        {
          "internalType": "bool",
          "name": "isZk",
          "type": "bool"
        },
        {
          "internalType": "bool",
          "name": "kamikaze",
          "type": "bool"
        }
      ],
      "stateMutability": "view",
      "type": "function",
      "constant": true
    },
    {
      "inputs": [],
      "name": "gameId",
      "outputs": [
        {
          "internalType": "uint256",
          "name": "",
          "type": "uint256"
        }
      ],
      "stateMutability": "view",
      "type": "function",
      "constant": true
    },
    {
      "inputs": [],
      "name": "gameState",
      "outputs": [
        {
          "internalType": "enum GameState",
          "name": "",
          "type": "uint8"
        }
      ],
      "stateMutability": "view",
      "type": "function",
      "constant": true
    },
    {
      "inputs": [
        {
          "internalType": "uint8",
          "name": "",
          "type": "uint8"
        },
        {
          "internalType": "uint8",
          "name": "",
          "type": "uint8"
        }
      ],
      "name": "hasAttacked",
      "outputs": [
        {
          "internalType": "bool",
          "name": "",
          "type": "bool"
        }
      ],
      "stateMutability": "view",
      "type": "function",
      "constant": true
    },
    {
      "inputs": [
        {
          "internalType": "uint8",
          "name": "",
          "type": "uint8"
        },
        {
          "internalType": "uint8",
          "name": "",
          "type": "uint8"
        }
      ],
      "name": "hasMoved",
      "outputs": [
        {
          "internalType": "bool",
          "name": "",
          "type": "bool"
        }
      ],
      "stateMutability": "view",
      "type": "function",
      "constant": true
    },
    {
      "inputs": [],
      "name": "lastActionTimestamp",
      "outputs": [
        {
          "internalType": "uint256",
          "name": "",
          "type": "uint256"
        }
      ],
      "stateMutability": "view",
      "type": "function",
      "constant": true
    },
    {
      "inputs": [
        {
          "internalType": "uint256",
          "name": "",
          "type": "uint256"
        }
      ],
      "name": "objectives",
      "outputs": [
        {
          "internalType": "uint8",
          "name": "row",
          "type": "uint8"
        },
        {
          "internalType": "uint8",
          "name": "col",
          "type": "uint8"
        }
      ],
      "stateMutability": "view",
      "type": "function",
      "constant": true
    },
    {
      "inputs": [
        {
          "internalType": "uint256",
          "name": "",
          "type": "uint256"
        }
      ],
      "name": "pieceIds",
      "outputs": [
        {
          "internalType": "uint8",
          "name": "",
          "type": "uint8"
        }
      ],
      "stateMutability": "view",
      "type": "function",
      "constant": true
    },
    {
      "inputs": [
        {
          "internalType": "uint8",
          "name": "",
          "type": "uint8"
        }
      ],
      "name": "pieces",
      "outputs": [
        {
          "internalType": "uint8",
          "name": "id",
          "type": "uint8"
        },
        {
          "internalType": "enum PieceType",
          "name": "pieceType",
          "type": "uint8"
        },
        {
          "internalType": "address",
          "name": "owner",
          "type": "address"
        },
        {
          "internalType": "uint8",
          "name": "row",
          "type": "uint8"
        },
        {
          "internalType": "uint8",
          "name": "col",
          "type": "uint8"
        },
        {
          "internalType": "bool",
          "name": "alive",
          "type": "bool"
        },
        {
          "internalType": "bool",
          "name": "initialized",
          "type": "bool"
        },
        {
          "internalType": "uint8",
          "name": "hp",
          "type": "uint8"
        },
        {
          "internalType": "uint8",
          "name": "initializedOnTurn",
          "type": "uint8"
        },
        {
          "internalType": "uint256",
          "name": "commitment",
          "type": "uint256"
        },
        {
          "internalType": "uint8",
          "name": "lastMove",
          "type": "uint8"
        },
        {
          "internalType": "uint8",
          "name": "lastAttack",
          "type": "uint8"
        }
      ],
      "stateMutability": "view",
      "type": "function",
      "constant": true
    },
    {
      "inputs": [],
      "name": "player1",
      "outputs": [
        {
          "internalType": "address",
          "name": "",
          "type": "address"
        }
      ],
      "stateMutability": "view",
      "type": "function",
      "constant": true
    },
    {
      "inputs": [],
      "name": "player1Mana",
      "outputs": [
        {
          "internalType": "uint8",
          "name": "",
          "type": "uint8"
        }
      ],
      "stateMutability": "view",
      "type": "function",
      "constant": true
    },
    {
      "inputs": [],
      "name": "player2",
      "outputs": [
        {
          "internalType": "address",
          "name": "",
          "type": "address"
        }
      ],
      "stateMutability": "view",
      "type": "function",
      "constant": true
    },
    {
      "inputs": [],
      "name": "player2Mana",
      "outputs": [
        {
          "internalType": "uint8",
          "name": "",
          "type": "uint8"
        }
      ],
      "stateMutability": "view",
      "type": "function",
      "constant": true
    },
    {
      "inputs": [],
      "name": "sequenceNumber",
      "outputs": [
        {
          "internalType": "uint16",
          "name": "",
          "type": "uint16"
        }
      ],
      "stateMutability": "view",
      "type": "function",
      "constant": true
    },
    {
      "inputs": [],
      "name": "turnNumber",
      "outputs": [
        {
          "internalType": "uint8",
          "name": "",
          "type": "uint8"
        }
      ],
      "stateMutability": "view",
      "type": "function",
      "constant": true
    },
    {
      "inputs": [
        {
          "internalType": "uint256",
          "name": "_gameId",
          "type": "uint256"
        }
      ],
      "name": "initialize",
      "outputs": [],
      "stateMutability": "nonpayable",
      "type": "function"
    },
    {
      "inputs": [],
      "name": "getInfo",
      "outputs": [
        {
          "components": [
            {
              "internalType": "uint256",
              "name": "gameId",
              "type": "uint256"
            },
            {
              "internalType": "uint8",
              "name": "NROWS",
              "type": "uint8"
            },
            {
              "internalType": "uint8",
              "name": "NCOLS",
              "type": "uint8"
            },
            {
              "internalType": "uint8",
              "name": "turnNumber",
              "type": "uint8"
            },
            {
              "internalType": "uint16",
              "name": "sequenceNumber",
              "type": "uint16"
            },
            {
              "internalType": "enum GameState",
              "name": "gameState",
              "type": "uint8"
            },
            {
              "internalType": "address",
              "name": "player1",
              "type": "address"
            },
            {
              "internalType": "address",
              "name": "player2",
              "type": "address"
            },
            {
              "internalType": "uint8",
              "name": "player1Mana",
              "type": "uint8"
            },
            {
              "internalType": "uint8",
              "name": "player2Mana",
              "type": "uint8"
            },
            {
              "internalType": "uint256",
              "name": "lastActionTimestamp",
              "type": "uint256"
            }
          ],
          "internalType": "struct GameInfo",
          "name": "ret",
          "type": "tuple"
        }
      ],
      "stateMutability": "view",
      "type": "function",
      "constant": true
    },
    {
      "inputs": [],
      "name": "getPieces",
      "outputs": [
        {
          "components": [
            {
              "internalType": "uint8",
              "name": "id",
              "type": "uint8"
            },
            {
              "internalType": "enum PieceType",
              "name": "pieceType",
              "type": "uint8"
            },
            {
              "internalType": "address",
              "name": "owner",
              "type": "address"
            },
            {
              "internalType": "uint8",
              "name": "row",
              "type": "uint8"
            },
            {
              "internalType": "uint8",
              "name": "col",
              "type": "uint8"
            },
            {
              "internalType": "bool",
              "name": "alive",
              "type": "bool"
            },
            {
              "internalType": "bool",
              "name": "initialized",
              "type": "bool"
            },
            {
              "internalType": "uint8",
              "name": "hp",
              "type": "uint8"
            },
            {
              "internalType": "uint8",
              "name": "initializedOnTurn",
              "type": "uint8"
            },
            {
              "internalType": "uint256",
              "name": "commitment",
              "type": "uint256"
            },
            {
              "internalType": "uint8",
              "name": "lastMove",
              "type": "uint8"
            },
            {
              "internalType": "uint8",
              "name": "lastAttack",
              "type": "uint8"
            }
          ],
          "internalType": "struct Piece[]",
          "name": "ret",
          "type": "tuple[]"
        }
      ],
      "stateMutability": "view",
      "type": "function",
      "constant": true
    },
    {
      "inputs": [],
      "name": "getDefaults",
      "outputs": [
        {
          "components": [
            {
              "internalType": "enum PieceType",
              "name": "pieceType",
              "type": "uint8"
            },
            {
              "internalType": "uint8",
              "name": "mvRange",
              "type": "uint8"
            },
            {
              "internalType": "uint8",
              "name": "atkMinRange",
              "type": "uint8"
            },
            {
              "internalType": "uint8",
              "name": "atkMaxRange",
              "type": "uint8"
            },
            {
              "internalType": "uint8",
              "name": "hp",
              "type": "uint8"
            },
            {
              "internalType": "uint8",
              "name": "atk",
              "type": "uint8"
            },
            {
              "internalType": "uint8",
              "name": "cost",
              "type": "uint8"
            },
            {
              "internalType": "bool",
              "name": "isZk",
              "type": "bool"
            },
            {
              "internalType": "bool",
              "name": "kamikaze",
              "type": "bool"
            }
          ],
          "internalType": "struct PieceDefaultStats[]",
          "name": "ret",
          "type": "tuple[]"
        }
      ],
      "stateMutability": "view",
      "type": "function",
      "constant": true
    },
    {
      "inputs": [],
      "name": "getObjectives",
      "outputs": [
        {
          "components": [
            {
              "internalType": "uint8",
              "name": "row",
              "type": "uint8"
            },
            {
              "internalType": "uint8",
              "name": "col",
              "type": "uint8"
            }
          ],
          "internalType": "struct Objective[]",
          "name": "ret",
          "type": "tuple[]"
        }
      ],
      "stateMutability": "view",
      "type": "function",
      "constant": true
    },
    {
      "inputs": [
        {
          "internalType": "uint8",
          "name": "_turnNumber",
          "type": "uint8"
        },
        {
          "internalType": "uint16",
          "name": "_sequenceNumber",
          "type": "uint16"
        }
      ],
      "name": "checkAction",
      "outputs": [
        {
          "internalType": "bool",
          "name": "",
          "type": "bool"
        }
      ],
      "stateMutability": "view",
      "type": "function",
      "constant": true
    },
    {
      "inputs": [],
      "name": "gameShouldBeCompleted",
      "outputs": [
        {
          "internalType": "bool",
          "name": "",
          "type": "bool"
        }
      ],
      "stateMutability": "view",
      "type": "function",
      "constant": true
    },
    {
      "inputs": [],
      "name": "joinGame",
      "outputs": [],
      "stateMutability": "nonpayable",
      "type": "function"
    },
    {
      "inputs": [
        {
          "components": [
            {
              "internalType": "uint8",
              "name": "turnNumber",
              "type": "uint8"
            },
            {
              "internalType": "uint16",
              "name": "sequenceNumber",
              "type": "uint16"
            },
            {
              "internalType": "uint8",
              "name": "pieceId",
              "type": "uint8"
            },
            {
              "internalType": "enum PieceType",
              "name": "pieceType",
              "type": "uint8"
            },
            {
              "internalType": "uint8",
              "name": "row",
              "type": "uint8"
            },
            {
              "internalType": "uint8",
              "name": "col",
              "type": "uint8"
            },
            {
              "components": [
                {
                  "internalType": "uint256[2]",
                  "name": "a",
                  "type": "uint256[2]"
                },
                {
                  "internalType": "uint256[2][2]",
                  "name": "b",
                  "type": "uint256[2][2]"
                },
                {
                  "internalType": "uint256[2]",
                  "name": "c",
                  "type": "uint256[2]"
                },
                {
                  "internalType": "uint256[6]",
                  "name": "input",
                  "type": "uint256[6]"
                }
              ],
              "internalType": "struct SummonZKP",
              "name": "zkp",
              "type": "tuple"
            }
          ],
          "internalType": "struct Summon",
          "name": "summon",
          "type": "tuple"
        }
      ],
      "name": "doSummon",
      "outputs": [],
      "stateMutability": "nonpayable",
      "type": "function"
    },
    {
      "inputs": [
        {
          "components": [
            {
              "internalType": "uint8",
              "name": "turnNumber",
              "type": "uint8"
            },
            {
              "internalType": "uint16",
              "name": "sequenceNumber",
              "type": "uint16"
            },
            {
              "internalType": "uint8",
              "name": "pieceId",
              "type": "uint8"
            },
            {
              "internalType": "uint8[]",
              "name": "moveToRow",
              "type": "uint8[]"
            },
            {
              "internalType": "uint8[]",
              "name": "moveToCol",
              "type": "uint8[]"
            },
            {
              "components": [
                {
                  "internalType": "uint256[2]",
                  "name": "a",
                  "type": "uint256[2]"
                },
                {
                  "internalType": "uint256[2][2]",
                  "name": "b",
                  "type": "uint256[2][2]"
                },
                {
                  "internalType": "uint256[2]",
                  "name": "c",
                  "type": "uint256[2]"
                },
                {
                  "internalType": "uint256[5]",
                  "name": "input",
                  "type": "uint256[5]"
                }
              ],
              "internalType": "struct MoveZKP",
              "name": "zkp",
              "type": "tuple"
            }
          ],
          "internalType": "struct Move",
          "name": "move",
          "type": "tuple"
        }
      ],
      "name": "doMove",
      "outputs": [],
      "stateMutability": "nonpayable",
      "type": "function"
    },
    {
      "inputs": [
        {
          "components": [
            {
              "internalType": "uint8",
              "name": "turnNumber",
              "type": "uint8"
            },
            {
              "internalType": "uint16",
              "name": "sequenceNumber",
              "type": "uint16"
            },
            {
              "internalType": "uint8",
              "name": "pieceId",
              "type": "uint8"
            },
            {
              "internalType": "uint8",
              "name": "attackedId",
              "type": "uint8"
            },
            {
              "components": [
                {
                  "internalType": "uint256[2]",
                  "name": "a",
                  "type": "uint256[2]"
                },
                {
                  "internalType": "uint256[2][2]",
                  "name": "b",
                  "type": "uint256[2][2]"
                },
                {
                  "internalType": "uint256[2]",
                  "name": "c",
                  "type": "uint256[2]"
                },
                {
                  "internalType": "uint256[6]",
                  "name": "input",
                  "type": "uint256[6]"
                }
              ],
              "internalType": "struct AttackZKP",
              "name": "zkp",
              "type": "tuple"
            }
          ],
          "internalType": "struct Attack",
          "name": "attack",
          "type": "tuple"
        }
      ],
      "name": "doAttack",
      "outputs": [],
      "stateMutability": "nonpayable",
      "type": "function"
    },
    {
      "inputs": [
        {
          "internalType": "uint8",
          "name": "_turnNumber",
          "type": "uint8"
        },
        {
          "internalType": "uint8",
          "name": "_sequenceNumber",
          "type": "uint8"
        }
      ],
      "name": "endTurn",
      "outputs": [],
      "stateMutability": "nonpayable",
      "type": "function"
    }
  ],
  "bytecode": "0x608060405234801561001057600080fd5b50615565806100206000396000f3fe608060405234801561001057600080fd5b50600436106101da5760003560e01c80637e15247d11610104578063d1f9c24d116100a2578063df54a92811610071578063df54a92814610563578063e8f5294d14610593578063eac697c9146105af578063fe4b84df146105cd576101da565b8063d1f9c24d146104ff578063d30895e41461051d578063d4f77b1c1461053b578063d7c81b5514610545576101da565b8063b172ed4d116100de578063b172ed4d14610463578063c0c74a7614610481578063cf615f6c146104b1578063cfecc6de146104cf576101da565b80637e15247d146103f957806381cb97ca1461041757806385c55ab914610447576101da565b806351df541c1161017c5780635a9b0b891161014b5780635a9b0b891461038157806362d9fd871461039f57806364ca23ef146103bd5780637267a359146103db576101da565b806351df541c1461030b5780635700401e1461032957806358f980911461034757806359a5f12d14610363576101da565b80632c784f32116101b85780632c784f321461024c57806339813cbd146102875780633fb7388e146102a3578063430632ea146102d3576101da565b806311628abc146101df5780631d99a4d3146101fd5780632a5102fb1461022e575b600080fd5b6101e76105e9565b6040516101f49190614f5b565b60405180910390f35b61021760048036038101906102129190613b31565b6105fc565b604051610225929190615030565b60405180910390f35b610236610643565b6040516102439190614f5b565b60405180910390f35b61026660048036038101906102619190613b96565b610648565b60405161027e9c9b9a99989796959493929190614f76565b60405180910390f35b6102a1600480360381019061029c9190613c24565b61074a565b005b6102bd60048036038101906102b89190613b5a565b610d63565b6040516102ca9190614f5b565b60405180910390f35b6102ed60048036038101906102e89190613a73565b610dac565b60405161030299989796959493929190614b2e565b60405180910390f35b610313610e6f565b6040516103209190614af8565b60405180910390f35b610331610efe565b60405161033e9190614f5b565b60405180910390f35b610361600480360381019061035c9190613a9c565b610f11565b005b61036b6111ae565b60405161037891906148f3565b60405180910390f35b6103896111d4565b6040516103969190614dd0565b60405180910390f35b6103a7611310565b6040516103b49190614f5b565b60405180910390f35b6103c5611315565b6040516103d29190614e71565b60405180910390f35b6103e3611329565b6040516103f09190614f5b565b60405180910390f35b61040161133c565b60405161040e9190614a30565b60405180910390f35b610431600480360381019061042c9190613c24565b61143a565b60405161043e9190614af8565b60405180910390f35b610461600480360381019061045c9190613ac6565b611469565b005b61046b6118aa565b6040516104789190614a6d565b60405180910390f35b61049b60048036038101906104969190613be8565b611a95565b6040516104a89190614af8565b60405180910390f35b6104b9611ba4565b6040516104c69190614a8f565b60405180910390f35b6104e960048036038101906104e49190613b31565b611e25565b6040516104f69190614f5b565b60405180910390f35b610507611e56565b6040516105149190614b13565b60405180910390f35b610525611e69565b60405161053291906148f3565b60405180910390f35b610543611e8f565b005b61054d6122cd565b60405161055a9190614f40565b60405180910390f35b61057d60048036038101906105789190613c24565b6122d3565b60405161058a9190614af8565b60405180910390f35b6105ad60048036038101906105a89190613b07565b612302565b005b6105b761307f565b6040516105c49190614f40565b60405180910390f35b6105e760048036038101906105e29190613b31565b613085565b005b603b60159054906101000a900460ff1681565b6037818154811061060957fe5b906000526020600020016000915090508060000160009054906101000a900460ff16908060000160019054906101000a900460ff16905082565b600581565b60386020528060005260406000206000915090508060000160009054906101000a900460ff16908060000160019054906101000a900460ff16908060000160029054906101000a900473ffffffffffffffffffffffffffffffffffffffff16908060000160169054906101000a900460ff16908060000160179054906101000a900460ff16908060000160189054906101000a900460ff16908060000160199054906101000a900460ff169080600001601a9054906101000a900460ff169080600001601b9054906101000a900460ff16908060010154908060020160009054906101000a900460ff16908060020160019054906101000a900460ff1690508c565b42603c8190555061075e828260ff16611a95565b50603a60009054906101000a900473ffffffffffffffffffffffffffffffffffffffff1673ffffffffffffffffffffffffffffffffffffffff163373ffffffffffffffffffffffffffffffffffffffff161415610a0c576000603b60146101000a81548160ff021916908360ff160217905550603460009054906101000a900460ff16603b60156101000a81548160ff021916908360ff1602179055506008603b60159054906101000a900460ff1660ff161115610833576008603b60156101000a81548160ff021916908360ff1602179055505b60008090505b6037805490508160ff1610156109e257600060378260ff168154811061085b57fe5b9060005260206000200160000160009054906101000a900460ff169050600060378360ff168154811061088a57fe5b9060005260206000200160000160019054906101000a900460ff16905060006038600060358560ff16815481106108bd57fe5b906000526020600020018460ff16815481106108d557fe5b90600052602060002090602091828204019190069054906101000a900460ff1660ff1660ff16815260200190815260200160002090508060000160189054906101000a900460ff16801561099a5750603b60009054906101000a900473ffffffffffffffffffffffffffffffffffffffff1673ffffffffffffffffffffffffffffffffffffffff168160000160029054906101000a900473ffffffffffffffffffffffffffffffffffffffff1673ffffffffffffffffffffffffffffffffffffffff16145b156109d257603b601581819054906101000a900460ff168092919060010191906101000a81548160ff021916908360ff160217905550505b5050508080600101915050610839565b506002603460036101000a81548160ff02191690836003811115610a0257fe5b0217905550610c91565b6034600081819054906101000a900460ff168092919060010191906101000a81548160ff021916908360ff160217905550506000603b60156101000a81548160ff021916908360ff160217905550603460009054906101000a900460ff16603b60146101000a81548160ff021916908360ff1602179055506008603b60149054906101000a900460ff1660ff161115610abc576008603b60146101000a81548160ff021916908360ff1602179055505b60008090505b6037805490508160ff161015610c6b57600060378260ff1681548110610ae457fe5b9060005260206000200160000160009054906101000a900460ff169050600060378360ff1681548110610b1357fe5b9060005260206000200160000160019054906101000a900460ff16905060006038600060358560ff1681548110610b4657fe5b906000526020600020018460ff1681548110610b5e57fe5b90600052602060002090602091828204019190069054906101000a900460ff1660ff1660ff16815260200190815260200160002090508060000160189054906101000a900460ff168015610c235750603a60009054906101000a900473ffffffffffffffffffffffffffffffffffffffff1673ffffffffffffffffffffffffffffffffffffffff168160000160029054906101000a900473ffffffffffffffffffffffffffffffffffffffff1673ffffffffffffffffffffffffffffffffffffffff16145b15610c5b57603b601481819054906101000a900460ff168092919060010191906101000a81548160ff021916908360ff160217905550505b5050508080600101915050610ac2565b506001603460036101000a81548160ff02191690836003811115610c8b57fe5b02179055505b7f27e77cb9303b56e18ceb82b3e0df64b35731cea5df6f30547f9fec78b1081bbf338383604051610cc49392919061496f565b60405180910390a16034600181819054906101000a900461ffff168092919060010191906101000a81548161ffff021916908361ffff16021790555050610d09610e6f565b15610d5f576003603460036101000a81548160ff02191690836003811115610d2d57fe5b02179055507fb537cbcadc098cfedf5a04ef7e68a8554b55f7e45bfdaca1cbc51a686ef65f4860405160405180910390a15b5050565b60358281548110610d7057fe5b906000526020600020018181548110610d8557fe5b9060005260206000209060209182820401919006915091509054906101000a900460ff1681565b60396020528060005260406000206000915090508060000160009054906101000a900460ff16908060000160019054906101000a900460ff16908060000160029054906101000a900460ff16908060000160039054906101000a900460ff16908060000160049054906101000a900460ff16908060000160059054906101000a900460ff16908060000160069054906101000a900460ff16908060000160079054906101000a900460ff16908060000160089054906101000a900460ff16905089565b600073__ZKChessUtils__________________________6386b05dba60386040518263ffffffff1660e01b8152600401610ea99190614bd6565b60206040518083038186803b158015610ec157600080fd5b505af4158015610ed5573d6000803e3d6000fd5b505050506040513d601f19601f82011682018060405250810190610ef99190613a4a565b905090565b603460009054906101000a900460ff1681565b42603c81905550610f2a81600001518260200151611a95565b5073__ZKChessUtils__________________________6369fe0a208260386039603e600560076040518763ffffffff1660e01b8152600401610f7196959493929190614d69565b60206040518083038186803b158015610f8957600080fd5b505af4158015610f9d573d6000803e3d6000fd5b505050506040513d601f19601f82011682018060405250810190610fc19190613a4a565b611000576040517f08c379a0000000000000000000000000000000000000000000000000000000008152600401610ff790614cb1565b60405180910390fd5b73__ZKChessUtils__________________________6317a5da6382603860356039603e6040518663ffffffff1660e01b8152600401611043959493929190614d11565b60006040518083038186803b15801561105b57600080fd5b505af415801561106f573d6000803e3d6000fd5b505050507f26b1bbbf4d915af107239a76abff01456db75ac5dd5aafafd4b3d1286060734681602001518260400151836060015160386000866040015160ff1660ff168152602001908152602001600020600001601a9054906101000a900460ff1660386000876060015160ff1660ff168152602001908152602001600020600001601a9054906101000a900460ff16604051611110959493929190614e8c565b60405180910390a16034600181819054906101000a900461ffff168092919060010191906101000a81548161ffff021916908361ffff16021790555050611155610e6f565b156111ab576003603460036101000a81548160ff0219169083600381111561117957fe5b02179055507fb537cbcadc098cfedf5a04ef7e68a8554b55f7e45bfdaca1cbc51a686ef65f4860405160405180910390a15b50565b603b60009054906101000a900473ffffffffffffffffffffffffffffffffffffffff1681565b6111dc613244565b6040518061016001604052806033548152602001600560ff168152602001600760ff168152602001603460009054906101000a900460ff1660ff168152602001603460019054906101000a900461ffff1661ffff168152602001603460039054906101000a900460ff16600381111561125157fe5b8152602001603a60009054906101000a900473ffffffffffffffffffffffffffffffffffffffff1673ffffffffffffffffffffffffffffffffffffffff168152602001603b60009054906101000a900473ffffffffffffffffffffffffffffffffffffffff1673ffffffffffffffffffffffffffffffffffffffff168152602001603b60149054906101000a900460ff1660ff168152602001603b60159054906101000a900460ff1660ff168152602001603c54815250905080905090565b600781565b603460019054906101000a900461ffff1681565b603b60149054906101000a900460ff1681565b606060378054905067ffffffffffffffff8111801561135a57600080fd5b5060405190808252806020026020018201604052801561139457816020015b6113816132e8565b8152602001906001900390816113795790505b50905060008090505b6037805490508160ff1610156114335760378160ff16815481106113bd57fe5b906000526020600020016040518060400160405290816000820160009054906101000a900460ff1660ff1660ff1681526020016000820160019054906101000a900460ff1660ff1660ff1681525050828260ff168151811061141b57fe5b6020026020010181905250808060010191505061139d565b5080905090565b603e6020528160005260406000206020528060005260406000206000915091509054906101000a900460ff1681565b42603c8190555061148281600001518260200151611a95565b50600060386000836040015160ff1660ff168152602001908152602001600020905060008160000160169054906101000a900460ff16905060008260000160179054906101000a900460ff16905073__ZKChessUtils__________________________630233d6fb8560386039603d603e6035600560076040518963ffffffff1660e01b815260040161151c989796959493929190614dec565b60206040518083038186803b15801561153457600080fd5b505af4158015611548573d6000803e3d6000fd5b505050506040513d601f19601f8201168201806040525081019061156c9190613a4a565b6115ab576040517f08c379a00000000000000000000000000000000000000000000000000000000081526004016115a290614c51565b60405180910390fd5b603960008460000160019054906101000a900460ff1660058111156115cc57fe5b60058111156115d757fe5b815260200190815260200160002060000160079054906101000a900460ff1615611622578360a001516060015160016005811061161057fe5b60200201518360010181905550611785565b60608460600151905060608560800151905060008260018451038151811061164657fe5b6020026020010151905060008260018451038151811061166257fe5b60200260200101519050600060358860000160169054906101000a900460ff1660ff168154811061168f57fe5b906000526020600020018860000160179054906101000a900460ff1660ff16815481106116b857fe5b90600052602060002090602091828204019190066101000a81548160ff021916908360ff1602179055508660000160009054906101000a900460ff1660358360ff168154811061170457fe5b906000526020600020018260ff168154811061171c57fe5b90600052602060002090602091828204019190066101000a81548160ff021916908360ff160217905550818760000160166101000a81548160ff021916908360ff160217905550808760000160176101000a81548160ff021916908360ff160217905550505050505b6001603d6000866000015160ff1660ff16815260200190815260200160002060008560000160009054906101000a900460ff1660ff1660ff16815260200190815260200160002060006101000a81548160ff02191690831515021790555083600001518360020160006101000a81548160ff021916908360ff1602179055507f7e2f4aae474473f9e261f72d50b4f8aaabb3f5380276750de70e0121b377fac68460200151856040015184848760000160169054906101000a900460ff168860000160179054906101000a900460ff1660405161186796959493929190614edf565b60405180910390a16034600181819054906101000a900461ffff168092919060010191906101000a81548161ffff021916908361ffff1602179055505050505050565b6060600667ffffffffffffffff811180156118c457600080fd5b506040519080825280602002602001820160405280156118fe57816020015b6118eb613308565b8152602001906001900390816118e35790505b50905060008090505b60068160ff161015611a8e57603960008260ff16600581111561192657fe5b600581111561193157fe5b600581111561193c57fe5b8152602001908152602001600020604051806101200160405290816000820160009054906101000a900460ff16600581111561197457fe5b600581111561197f57fe5b81526020016000820160019054906101000a900460ff1660ff1660ff1681526020016000820160029054906101000a900460ff1660ff1660ff1681526020016000820160039054906101000a900460ff1660ff1660ff1681526020016000820160049054906101000a900460ff1660ff1660ff1681526020016000820160059054906101000a900460ff1660ff1660ff1681526020016000820160069054906101000a900460ff1660ff1660ff1681526020016000820160079054906101000a900460ff161515151581526020016000820160089054906101000a900460ff161515151581525050828260ff1681518110611a7657fe5b60200260200101819052508080600101915050611907565b5080905090565b600073__ZKChessUtils__________________________63bbca541f84603460009054906101000a900460ff1685603460019054906101000a900461ffff16603a60009054906101000a900473ffffffffffffffffffffffffffffffffffffffff16603b60009054906101000a900473ffffffffffffffffffffffffffffffffffffffff16603460039054906101000a900460ff166040518863ffffffff1660e01b8152600401611b4c9796959493929190615059565b60206040518083038186803b158015611b6457600080fd5b505af4158015611b78573d6000803e3d6000fd5b505050506040513d601f19601f82011682018060405250810190611b9c9190613a4a565b905092915050565b606060368054905067ffffffffffffffff81118015611bc257600080fd5b50604051908082528060200260200182016040528015611bfc57816020015b611be9613375565b815260200190600190039081611be15790505b50905060008090505b6036805490508160ff161015611e1e576038600060368360ff1681548110611c2957fe5b90600052602060002090602091828204019190069054906101000a900460ff1660ff1660ff168152602001908152602001600020604051806101800160405290816000820160009054906101000a900460ff1660ff1660ff1681526020016000820160019054906101000a900460ff166005811115611ca457fe5b6005811115611caf57fe5b81526020016000820160029054906101000a900473ffffffffffffffffffffffffffffffffffffffff1673ffffffffffffffffffffffffffffffffffffffff1673ffffffffffffffffffffffffffffffffffffffff1681526020016000820160169054906101000a900460ff1660ff1660ff1681526020016000820160179054906101000a900460ff1660ff1660ff1681526020016000820160189054906101000a900460ff161515151581526020016000820160199054906101000a900460ff1615151515815260200160008201601a9054906101000a900460ff1660ff1660ff16815260200160008201601b9054906101000a900460ff1660ff1660ff168152602001600182015481526020016002820160009054906101000a900460ff1660ff1660ff1681526020016002820160019054906101000a900460ff1660ff1660ff1681525050828260ff1681518110611e0657fe5b60200260200101819052508080600101915050611c05565b5080905090565b60368181548110611e3257fe5b9060005260206000209060209182820401919006915054906101000a900460ff1681565b603460039054906101000a900460ff1681565b603a60009054906101000a900473ffffffffffffffffffffffffffffffffffffffff1681565b42603c8190555060006003811115611ea357fe5b603460039054906101000a900460ff166003811115611ebe57fe5b14611efe576040517f08c379a0000000000000000000000000000000000000000000000000000000008152600401611ef590614cf1565b60405180910390fd5b600073ffffffffffffffffffffffffffffffffffffffff16603a60009054906101000a900473ffffffffffffffffffffffffffffffffffffffff1673ffffffffffffffffffffffffffffffffffffffff161415611f9b5733603a60006101000a81548173ffffffffffffffffffffffffffffffffffffffff021916908373ffffffffffffffffffffffffffffffffffffffff1602179055506122cb565b603a60009054906101000a900473ffffffffffffffffffffffffffffffffffffffff1673ffffffffffffffffffffffffffffffffffffffff163373ffffffffffffffffffffffffffffffffffffffff16141561202c576040517f08c379a000000000000000000000000000000000000000000000000000000000815260040161202390614c31565b60405180910390fd5b60006002428161203857fe5b0614156120855733603b60006101000a81548173ffffffffffffffffffffffffffffffffffffffff021916908373ffffffffffffffffffffffffffffffffffffffff16021790555061212a565b603a60009054906101000a900473ffffffffffffffffffffffffffffffffffffffff16603b60006101000a81548173ffffffffffffffffffffffffffffffffffffffff021916908373ffffffffffffffffffffffffffffffffffffffff16021790555033603a60006101000a81548173ffffffffffffffffffffffffffffffffffffffff021916908373ffffffffffffffffffffffffffffffffffffffff1602179055505b73__ZKChessUtils__________________________63aa67b4af603a60009054906101000a900473ffffffffffffffffffffffffffffffffffffffff16603b60009054906101000a900473ffffffffffffffffffffffffffffffffffffffff1660386036603560396040518763ffffffff1660e01b81526004016121b3969594939291906149cf565b60006040518083038186803b1580156121cb57600080fd5b505af41580156121df573d6000803e3d6000fd5b505050506001603460036101000a81548160ff0219169083600381111561220257fe5b02179055506001603460006101000a81548160ff021916908360ff160217905550603460009054906101000a900460ff16603b60146101000a81548160ff021916908360ff1602179055507f8fd707874eb940598510258c64cad23fd35fe8c85c5c38e8782fac2cc887fb6e603a60009054906101000a900473ffffffffffffffffffffffffffffffffffffffff16603b60009054906101000a900473ffffffffffffffffffffffffffffffffffffffff166040516122c29291906149a6565b60405180910390a15b565b60335481565b603d6020528160005260406000206020528060005260406000206000915091509054906101000a900460ff1681565b42603c8190555061231b81600001518260200151611a95565b5060386000826040015160ff1660ff16815260200190815260200160002060000160199054906101000a900460ff161561238a576040517f08c379a000000000000000000000000000000000000000000000000000000000815260040161238190614c71565b60405180910390fd5b600080603a60009054906101000a900473ffffffffffffffffffffffffffffffffffffffff1673ffffffffffffffffffffffffffffffffffffffff163373ffffffffffffffffffffffffffffffffffffffff16141561243c5760386000600160ff16815260200190815260200160002060000160169054906101000a900460ff16915060386000600160ff16815260200190815260200160002060000160179054906101000a900460ff169050612491565b60386000600260ff16815260200190815260200160002060000160169054906101000a900460ff16915060386000600260ff16815260200190815260200160002060000160179054906101000a900460ff1690505b603a60009054906101000a900473ffffffffffffffffffffffffffffffffffffffff1673ffffffffffffffffffffffffffffffffffffffff163373ffffffffffffffffffffffffffffffffffffffff1614156125eb5760396000846060015160058111156124fb57fe5b600581111561250657fe5b815260200190815260200160002060000160069054906101000a900460ff1660ff16603b60149054906101000a900460ff1660ff16101561257c576040517f08c379a000000000000000000000000000000000000000000000000000000000815260040161257390614bf1565b60405180910390fd5b603960008460600151600581111561259057fe5b600581111561259b57fe5b815260200190815260200160002060000160069054906101000a900460ff16603b60148282829054906101000a900460ff160392506101000a81548160ff021916908360ff1602179055506126eb565b60396000846060015160058111156125ff57fe5b600581111561260a57fe5b815260200190815260200160002060000160069054906101000a900460ff1660ff16603b60159054906101000a900460ff1660ff161015612680576040517f08c379a000000000000000000000000000000000000000000000000000000000815260040161267790614bf1565b60405180910390fd5b603960008460600151600581111561269457fe5b600581111561269f57fe5b815260200190815260200160002060000160069054906101000a900460ff16603b60158282829054906101000a900460ff160392506101000a81548160ff021916908360ff1602179055505b60396000846060015160058111156126ff57fe5b600581111561270a57fe5b815260200190815260200160002060000160079054906101000a900460ff1661293457600560ff16836080015160ff161080156127515750600760ff168360a0015160ff16105b612790576040517f08c379a000000000000000000000000000000000000000000000000000000000815260040161278790614c91565b60405180910390fd5b60006035846080015160ff16815481106127a657fe5b906000526020600020018460a0015160ff16815481106127c257fe5b90600052602060002090602091828204019190069054906101000a900460ff1690506000603860008360ff1660ff16815260200190815260200160002090508060000160189054906101000a900460ff1615612853576040517f08c379a000000000000000000000000000000000000000000000000000000000815260040161284a90614cd1565b60405180910390fd5b600173__ZKChessUtils__________________________632542841a87608001518860a0015188886040518563ffffffff1660e01b815260040161289a94939291906150c8565b60206040518083038186803b1580156128b257600080fd5b505af41580156128c6573d6000803e3d6000fd5b505050506040513d601f19601f820116820180604052508101906128ea9190613bbf565b60ff161461292d576040517f08c379a000000000000000000000000000000000000000000000000000000000815260040161292490614cd1565b60405180910390fd5b5050612bc0565b8160ff168360c001516060015160016006811061294d57fe5b602002015114801561297a57508060ff168360c001516060015160026006811061297357fe5b6020020151145b6129b9576040517f08c379a00000000000000000000000000000000000000000000000000000000081526004016129b090614c11565b60405180910390fd5b60018360c00151606001516003600681106129d057fe5b602002015114612a15576040517f08c379a0000000000000000000000000000000000000000000000000000000008152600401612a0c90614c11565b60405180910390fd5b600560ff168360c0015160600151600460068110612a2f57fe5b602002015114612a74576040517f08c379a0000000000000000000000000000000000000000000000000000000008152600401612a6b90614c11565b60405180910390fd5b600760ff168360c0015160600151600560068110612a8e57fe5b602002015114612ad3576040517f08c379a0000000000000000000000000000000000000000000000000000000008152600401612aca90614c11565b60405180910390fd5b73__Verifier______________________________6395eb76fc8460c00151600001518560c00151602001518660c00151604001518760c00151606001516040518563ffffffff1660e01b8152600401612b309493929190614ab1565b60206040518083038186803b158015612b4857600080fd5b505af4158015612b5c573d6000803e3d6000fd5b505050506040513d601f19601f82011682018060405250810190612b809190613a4a565b612bbf576040517f08c379a0000000000000000000000000000000000000000000000000000000008152600401612bb690614c11565b60405180910390fd5b5b604051806101800160405280846040015160ff16815260200184606001516005811115612be957fe5b81526020013373ffffffffffffffffffffffffffffffffffffffff168152602001846080015160ff1681526020018460a0015160ff1681526020016001151581526020016001151581526020016039600086606001516005811115612c4a57fe5b6005811115612c5557fe5b815260200190815260200160002060000160049054906101000a900460ff1660ff168152602001603460009054906101000a900460ff1660ff1681526020018460c0015160600151600060068110612ca957fe5b60200201518152602001603460009054906101000a900460ff1660ff168152602001603460009054906101000a900460ff1660ff1681525060386000856040015160ff1660ff16815260200190815260200160002060008201518160000160006101000a81548160ff021916908360ff16021790555060208201518160000160016101000a81548160ff02191690836005811115612d4357fe5b021790555060408201518160000160026101000a81548173ffffffffffffffffffffffffffffffffffffffff021916908373ffffffffffffffffffffffffffffffffffffffff16021790555060608201518160000160166101000a81548160ff021916908360ff16021790555060808201518160000160176101000a81548160ff021916908360ff16021790555060a08201518160000160186101000a81548160ff02191690831515021790555060c08201518160000160196101000a81548160ff02191690831515021790555060e082015181600001601a6101000a81548160ff021916908360ff16021790555061010082015181600001601b6101000a81548160ff021916908360ff16021790555061012082015181600101556101408201518160020160006101000a81548160ff021916908360ff1602179055506101608201518160020160016101000a81548160ff021916908360ff1602179055509050506036836040015190806001815401808255809150506001900390600052602060002090602091828204019190069091909190916101000a81548160ff021916908360ff16021790555082604001516035846080015160ff1681548110612f0857fe5b906000526020600020018460a0015160ff1681548110612f2457fe5b90600052602060002090602091828204019190066101000a81548160ff021916908360ff1602179055506001603d6000856000015160ff1660ff1681526020019081526020016000206000856040015160ff1660ff16815260200190815260200160002060006101000a81548160ff0219169083151502179055506001603e6000856000015160ff1660ff1681526020019081526020016000206000856040015160ff1660ff16815260200190815260200160002060006101000a81548160ff0219169083151502179055507f0c028d8e3094b70fecb63c902612f5b21d26edfeea4f8ec3f69b411d1d50f20d3384604001518560200151866060015187608001518860a0015160405161303d9695949392919061490e565b60405180910390a16034600181819054906101000a900461ffff168092919060010191906101000a81548161ffff021916908361ffff16021790555050505050565b603c5481565b806033819055506000603460036101000a81548160ff021916908360038111156130ab57fe5b021790555060008090505b600560ff168160ff16101561317057603560018160018154018082558091505003906000526020600020505060008090505b600760ff168160ff1610156131625760358260ff168154811061310757fe5b90600052602060002001600090806001815401808255809150506001900390600052602060002090602091828204019190069091909190916101000a81548160ff021916908360ff16021790555080806001019150506130e8565b5080806001019150506130b6565b5073__ZKChessUtils__________________________63df9f019560396040518263ffffffff1660e01b81526004016131a99190614bbb565b60006040518083038186803b1580156131c157600080fd5b505af41580156131d5573d6000803e3d6000fd5b5050505073__ZKChessUtils__________________________63217be09060376040518263ffffffff1660e01b81526004016132119190614a52565b60006040518083038186803b15801561322957600080fd5b505af415801561323d573d6000803e3d6000fd5b5050505050565b60405180610160016040528060008152602001600060ff168152602001600060ff168152602001600060ff168152602001600061ffff1681526020016000600381111561328d57fe5b8152602001600073ffffffffffffffffffffffffffffffffffffffff168152602001600073ffffffffffffffffffffffffffffffffffffffff168152602001600060ff168152602001600060ff168152602001600081525090565b6040518060400160405280600060ff168152602001600060ff1681525090565b6040518061012001604052806000600581111561332157fe5b8152602001600060ff168152602001600060ff168152602001600060ff168152602001600060ff168152602001600060ff168152602001600060ff1681526020016000151581526020016000151581525090565b604051806101800160405280600060ff1681526020016000600581111561339857fe5b8152602001600073ffffffffffffffffffffffffffffffffffffffff168152602001600060ff168152602001600060ff168152602001600015158152602001600015158152602001600060ff168152602001600060ff16815260200160008152602001600060ff168152602001600060ff1681525090565b600082601f83011261342157600080fd5b600261343461342f8261513a565b61510d565b9150818385604084028201111561344a57600080fd5b60005b8381101561347a57816134608882613484565b84526020840193506040830192505060018101905061344d565b5050505092915050565b600082601f83011261349557600080fd5b60026134a86134a38261515c565b61510d565b915081838560208402820111156134be57600080fd5b60005b838110156134ee57816134d48882613a0b565b8452602084019350602083019250506001810190506134c1565b5050505092915050565b600082601f83011261350957600080fd5b600561351c6135178261517e565b61510d565b9150818385602084028201111561353257600080fd5b60005b8381101561356257816135488882613a0b565b845260208401935060208301925050600181019050613535565b5050505092915050565b600082601f83011261357d57600080fd5b600661359061358b826151a0565b61510d565b915081838560208402820111156135a657600080fd5b60005b838110156135d657816135bc8882613a0b565b8452602084019350602083019250506001810190506135a9565b5050505092915050565b600082601f8301126135f157600080fd5b81356136046135ff826151c2565b61510d565b9150818183526020840193506020810190508385602084028201111561362957600080fd5b60005b83811015613659578161363f8882613a20565b84526020840193506020830192505060018101905061362c565b5050505092915050565b600081519050613672816154c3565b92915050565b600081359050613687816154da565b92915050565b60006101c082840312156136a057600080fd5b6136aa608061510d565b905060006136ba84828501613484565b60008301525060406136ce84828501613410565b60208301525060c06136e284828501613484565b6040830152506101006136f78482850161356c565b60608301525092915050565b6000610240828403121561371657600080fd5b61372060a061510d565b9050600061373084828501613a20565b6000830152506020613744848285016139f6565b602083015250604061375884828501613a20565b604083015250606061376c84828501613a20565b60608301525060806137808482850161368d565b60808301525092915050565b60006101a0828403121561379f57600080fd5b6137a9608061510d565b905060006137b984828501613484565b60008301525060406137cd84828501613410565b60208301525060c06137e184828501613484565b6040830152506101006137f6848285016134f8565b60608301525092915050565b6000610240828403121561381557600080fd5b61381f60c061510d565b9050600061382f84828501613a20565b6000830152506020613843848285016139f6565b602083015250604061385784828501613a20565b604083015250606082013567ffffffffffffffff81111561387757600080fd5b613883848285016135e0565b606083015250608082013567ffffffffffffffff8111156138a357600080fd5b6138af848285016135e0565b60808301525060a06138c38482850161378c565b60a08301525092915050565b60006101c082840312156138e257600080fd5b6138ec608061510d565b905060006138fc84828501613484565b600083015250604061391084828501613410565b60208301525060c061392484828501613484565b6040830152506101006139398482850161356c565b60608301525092915050565b6000610280828403121561395857600080fd5b61396260e061510d565b9050600061397284828501613a20565b6000830152506020613986848285016139f6565b602083015250604061399a84828501613a20565b60408301525060606139ae84828501613678565b60608301525060806139c284828501613a20565b60808301525060a06139d684828501613a20565b60a08301525060c06139ea848285016138cf565b60c08301525092915050565b600081359050613a05816154ea565b92915050565b600081359050613a1a81615501565b92915050565b600081359050613a2f81615518565b92915050565b600081519050613a4481615518565b92915050565b600060208284031215613a5c57600080fd5b6000613a6a84828501613663565b91505092915050565b600060208284031215613a8557600080fd5b6000613a9384828501613678565b91505092915050565b60006102408284031215613aaf57600080fd5b6000613abd84828501613703565b91505092915050565b600060208284031215613ad857600080fd5b600082013567ffffffffffffffff811115613af257600080fd5b613afe84828501613802565b91505092915050565b60006102808284031215613b1a57600080fd5b6000613b2884828501613945565b91505092915050565b600060208284031215613b4357600080fd5b6000613b5184828501613a0b565b91505092915050565b60008060408385031215613b6d57600080fd5b6000613b7b85828601613a0b565b9250506020613b8c85828601613a0b565b9150509250929050565b600060208284031215613ba857600080fd5b6000613bb684828501613a20565b91505092915050565b600060208284031215613bd157600080fd5b6000613bdf84828501613a35565b91505092915050565b60008060408385031215613bfb57600080fd5b6000613c0985828601613a20565b9250506020613c1a858286016139f6565b9150509250929050565b60008060408385031215613c3757600080fd5b6000613c4585828601613a20565b9250506020613c5685828601613a20565b9150509250929050565b6000613c6c8383613f5b565b60408301905092915050565b6000613c848383614663565b60408301905092915050565b6000613c9c8383614692565b6101208301905092915050565b6000613cb58383614749565b6101808301905092915050565b6000613cce8383614899565b60208301905092915050565b6000613ce683836148e4565b60208301905092915050565b613cfb8161543d565b82525050565b613d0a816153b4565b82525050565b613d19816153b4565b82525050565b613d28816153b4565b82525050565b613d3781615252565b613d418184615312565b9250613d4c826151ea565b8060005b83811015613d7d578151613d648782613c60565b9650613d6f836152aa565b925050600181019050613d50565b505050505050565b613d8e81615252565b613d98818461531d565b9250613da3826151ea565b8060005b83811015613dd4578151613dbb8782613c60565b9650613dc6836152aa565b925050600181019050613da7565b505050505050565b8082525050565b6000613dee8261525d565b613df88185615328565b9350613e03836151f4565b8060005b83811015613e34578151613e1b8882613c78565b9750613e26836152b7565b925050600181019050613e07565b5085935050505092915050565b8082525050565b6000613e5382615268565b613e5d8185615339565b9350613e6883615204565b8060005b83811015613e99578151613e808882613c90565b9750613e8b836152c4565b925050600181019050613e6c565b5085935050505092915050565b6000613eb182615273565b613ebb818561534a565b9350613ec683615214565b8060005b83811015613ef7578151613ede8882613ca9565b9750613ee9836152d1565b925050600181019050613eca565b5085935050505092915050565b613f0d8161527e565b613f17818461535b565b9250613f2282615224565b8060005b83811015613f53578151613f3a8782613cc2565b9650613f45836152de565b925050600181019050613f26565b505050505050565b613f648161527e565b613f6e8184615366565b9250613f7982615224565b8060005b83811015613faa578151613f918782613cc2565b9650613f9c836152de565b925050600181019050613f7d565b505050505050565b613fbb81615289565b613fc58184615371565b9250613fd08261522e565b8060005b83811015614001578151613fe88782613cc2565b9650613ff3836152eb565b925050600181019050613fd4565b505050505050565b61401281615294565b61401c818461537c565b925061402782615238565b8060005b8381101561405857815161403f8782613cc2565b965061404a836152f8565b92505060018101905061402b565b505050505050565b61406981615294565b6140738184615387565b925061407e82615238565b8060005b838110156140af5781516140968782613cc2565b96506140a1836152f8565b925050600181019050614082565b505050505050565b60006140c28261529f565b6140cc8185615392565b93506140d783615242565b8060005b838110156141085781516140ef8882613cda565b97506140fa83615305565b9250506001810190506140db565b5085935050505092915050565b8082525050565b614125816153c6565b82525050565b614134816153c6565b82525050565b6141438161544f565b82525050565b6141528161544f565b82525050565b6141618161544f565b82525050565b61417081615461565b82525050565b61417f81615461565b82525050565b8082525050565b8082525050565b8082525050565b60006141a7600f836153a3565b91507f6e6f7420656e6f756768206d616e6100000000000000000000000000000000006000830152602082019050919050565b60006141e76007836153a3565b91507f626164205a4b50000000000000000000000000000000000000000000000000006000830152602082019050919050565b60006142276015836153a3565b91507f63616e2774206a6f696e2067616d6520747769636500000000000000000000006000830152602082019050919050565b6000614267600b836153a3565b91507f6d6f7665206661696c65640000000000000000000000000000000000000000006000830152602082019050919050565b60006142a76017836153a3565b91507f706965636520494420616c726561647920696e207573650000000000000000006000830152602082019050919050565b60006142e7600d836153a3565b91507f6e6f7420696e20626f756e6473000000000000000000000000000000000000006000830152602082019050919050565b6000614327600e836153a3565b91507f696e76616c69642061747461636b0000000000000000000000000000000000006000830152602082019050919050565b60006143676012836153a3565b91507f63616e27742073756d6d6f6e20746865726500000000000000000000000000006000830152602082019050919050565b60006143a76014836153a3565b91507f47616d6520616c726561647920737461727465640000000000000000000000006000830152602082019050919050565b6101c0820160008201516143f16000850182613f5b565b5060208201516144046040850182613d85565b50604082015161441760c0850182613f5b565b50606082015161442b610100850182614060565b50505050565b6102408201600082015161444860008501826148e4565b50602082015161445b602085018261486c565b50604082015161446e60408501826148e4565b50606082015161448160608501826148e4565b50608082015161449460808501826143da565b50505050565b610160820160008201516144b1600085018261487b565b5060208201516144c460208501826148b7565b5060408201516144d760408501826148b7565b5060608201516144ea60608501826148b7565b5060808201516144fd608085018261483f565b5060a082015161451060a085018261413a565b5060c082015161452360c0850182613d01565b5060e082015161453660e0850182613d01565b5061010082015161454b6101008501826148b7565b506101208201516145606101208501826148b7565b5061014082015161457561014085018261487b565b50505050565b6101a0820160008201516145926000850182613f5b565b5060208201516145a56040850182613d85565b5060408201516145b860c0850182613f5b565b5060608201516145cc610100850182613fb2565b50505050565b6000610240830160008301516145eb60008601826148e4565b5060208301516145fe602086018261486c565b50604083015161461160408601826148e4565b506060830151848203606086015261462982826140b7565b9150506080830151848203608086015261464382826140b7565b91505060a083015161465860a086018261457b565b508091505092915050565b60408201600082015161467960008501826148b7565b50602082015161468c60208501826148b7565b50505050565b610120820160008201516146a96000850182614167565b5060208201516146bc60208501826148b7565b5060408201516146cf60408501826148b7565b5060608201516146e260608501826148b7565b5060808201516146f560808501826148b7565b5060a082015161470860a08501826148b7565b5060c082015161471b60c08501826148b7565b5060e082015161472e60e085018261411c565b5061010082015161474361010085018261411c565b50505050565b6101808201600082015161476060008501826148b7565b5060208201516147736020850182614167565b5060408201516147866040850182613d01565b50606082015161479960608501826148b7565b5060808201516147ac60808501826148b7565b5060a08201516147bf60a085018261411c565b5060c08201516147d260c085018261411c565b5060e08201516147e560e08501826148b7565b506101008201516147fa6101008501826148b7565b5061012082015161480f61012085018261487b565b506101408201516148246101408501826148b7565b506101608201516148396101608501826148b7565b50505050565b614848816153f8565b82525050565b614857816153f8565b82525050565b614866816153f8565b82525050565b614875816153f8565b82525050565b61488481615426565b82525050565b61489381615426565b82525050565b6148a281615426565b82525050565b6148b181615497565b82525050565b6148c081615430565b82525050565b6148cf81615430565b82525050565b6148de81615430565b82525050565b6148ed81615430565b82525050565b60006020820190506149086000830184613d10565b92915050565b600060c0820190506149236000830189613cf2565b61493060208301886148c6565b61493d604083018761484e565b61494a6060830186614176565b61495760808301856148c6565b61496460a08301846148c6565b979650505050505050565b60006060820190506149846000830186613cf2565b61499160208301856148c6565b61499e60408301846148a8565b949350505050565b60006040820190506149bb6000830185613d10565b6149c86020830184613d10565b9392505050565b600060c0820190506149e46000830189613d1f565b6149f16020830188613d1f565b6149fe6040830187614193565b614a0b6060830186614115565b614a186080830185613ddc565b614a2560a0830184614185565b979650505050505050565b60006020820190508181036000830152614a4a8184613de3565b905092915050565b6000602082019050614a676000830184613e41565b92915050565b60006020820190508181036000830152614a878184613e48565b905092915050565b60006020820190508181036000830152614aa98184613ea6565b905092915050565b60006101c082019050614ac76000830187613f04565b614ad46040830186613d2e565b614ae160c0830185613f04565b614aef610100830184614009565b95945050505050565b6000602082019050614b0d600083018461412b565b92915050565b6000602082019050614b286000830184614149565b92915050565b600061012082019050614b44600083018c614176565b614b51602083018b6148c6565b614b5e604083018a6148c6565b614b6b60608301896148c6565b614b7860808301886148c6565b614b8560a08301876148c6565b614b9260c08301866148c6565b614b9f60e083018561412b565b614bad61010083018461412b565b9a9950505050505050505050565b6000602082019050614bd06000830184614185565b92915050565b6000602082019050614beb6000830184614193565b92915050565b60006020820190508181036000830152614c0a8161419a565b9050919050565b60006020820190508181036000830152614c2a816141da565b9050919050565b60006020820190508181036000830152614c4a8161421a565b9050919050565b60006020820190508181036000830152614c6a8161425a565b9050919050565b60006020820190508181036000830152614c8a8161429a565b9050919050565b60006020820190508181036000830152614caa816142da565b9050919050565b60006020820190508181036000830152614cca8161431a565b9050919050565b60006020820190508181036000830152614cea8161435a565b9050919050565b60006020820190508181036000830152614d0a8161439a565b9050919050565b60006102c082019050614d276000830188614431565b614d35610240830187614193565b614d43610260830186613ddc565b614d51610280830185614185565b614d5f6102a083018461418c565b9695505050505050565b60006102e082019050614d7f6000830189614431565b614d8d610240830188614193565b614d9b610260830187614185565b614da961028083018661418c565b614db76102a08301856148d5565b614dc56102c08301846148d5565b979650505050505050565b600061016082019050614de6600083018461449a565b92915050565b6000610100820190508181036000830152614e07818b6145d2565b9050614e16602083018a614193565b614e236040830189614185565b614e30606083018861418c565b614e3d608083018761418c565b614e4a60a0830186613ddc565b614e5760c08301856148d5565b614e6460e08301846148d5565b9998505050505050505050565b6000602082019050614e86600083018461484e565b92915050565b600060a082019050614ea1600083018861484e565b614eae60208301876148c6565b614ebb60408301866148c6565b614ec860608301856148c6565b614ed560808301846148c6565b9695505050505050565b600060c082019050614ef4600083018961484e565b614f0160208301886148c6565b614f0e60408301876148c6565b614f1b60608301866148c6565b614f2860808301856148c6565b614f3560a08301846148c6565b979650505050505050565b6000602082019050614f55600083018461488a565b92915050565b6000602082019050614f7060008301846148c6565b92915050565b600061018082019050614f8c600083018f6148c6565b614f99602083018e614176565b614fa6604083018d613d10565b614fb3606083018c6148c6565b614fc0608083018b6148c6565b614fcd60a083018a61412b565b614fda60c083018961412b565b614fe760e08301886148c6565b614ff56101008301876148c6565b61500361012083018661488a565b6150116101408301856148c6565b61501f6101608301846148c6565b9d9c50505050505050505050505050565b600060408201905061504560008301856148c6565b61505260208301846148c6565b9392505050565b600060e08201905061506e600083018a6148d5565b61507b60208301896148d5565b615088604083018861485d565b615095606083018761485d565b6150a26080830186613d1f565b6150af60a0830185613d1f565b6150bc60c0830184614158565b98975050505050505050565b60006080820190506150dd60008301876148d5565b6150ea60208301866148d5565b6150f760408301856148d5565b61510460608301846148d5565b95945050505050565b6000604051905081810181811067ffffffffffffffff8211171561513057600080fd5b8060405250919050565b600067ffffffffffffffff82111561515157600080fd5b602082029050919050565b600067ffffffffffffffff82111561517357600080fd5b602082029050919050565b600067ffffffffffffffff82111561519557600080fd5b602082029050919050565b600067ffffffffffffffff8211156151b757600080fd5b602082029050919050565b600067ffffffffffffffff8211156151d957600080fd5b602082029050602081019050919050565b6000819050919050565b6000819050602082019050919050565b6000819050602082019050919050565b6000819050602082019050919050565b6000819050919050565b6000819050919050565b6000819050919050565b6000819050602082019050919050565b600060029050919050565b600081519050919050565b600081519050919050565b600081519050919050565b600060029050919050565b600060059050919050565b600060069050919050565b600081519050919050565b6000602082019050919050565b6000602082019050919050565b6000602082019050919050565b6000602082019050919050565b6000602082019050919050565b6000602082019050919050565b6000602082019050919050565b6000602082019050919050565b600081905092915050565b600081905092915050565b600082825260208201905092915050565b600082825260208201905092915050565b600082825260208201905092915050565b600081905092915050565b600081905092915050565b600081905092915050565b600081905092915050565b600081905092915050565b600082825260208201905092915050565b600082825260208201905092915050565b60006153bf82615406565b9050919050565b60008115159050919050565b60008190506153e0826154a9565b919050565b60008190506153f3826154b6565b919050565b600061ffff82169050919050565b600073ffffffffffffffffffffffffffffffffffffffff82169050919050565b6000819050919050565b600060ff82169050919050565b600061544882615473565b9050919050565b600061545a826153d2565b9050919050565b600061546c826153e5565b9050919050565b600061547e82615485565b9050919050565b600061549082615406565b9050919050565b60006154a282615430565b9050919050565b600481106154b357fe5b50565b600681106154c057fe5b50565b6154cc816153c6565b81146154d757600080fd5b50565b600681106154e757600080fd5b50565b6154f3816153f8565b81146154fe57600080fd5b50565b61550a81615426565b811461551557600080fd5b50565b61552181615430565b811461552c57600080fd5b5056fea2646970667358221220a8f50ec40f8b0a6d08ce50f97f6f3bf435aa3f0728c3f08f53da7ccb44a0bf2864736f6c63430006070033",
  "immutableReferences": {},
  "source": "pragma solidity ^0.6.7;\npragma experimental ABIEncoderV2;\n\nimport \"@openzeppelin/contracts-ethereum-package/contracts/Initializable.sol\";\nimport \"./ZKChessTypes.sol\";\nimport \"./ZKChessUtils.sol\";\nimport \"./Verifier.sol\";\n\ncontract ZKChessGame is Initializable {\n    uint8 public constant NROWS = 5;\n    uint8 public constant NCOLS = 7;\n\n    uint256 public gameId;\n\n    uint8 public turnNumber;\n    uint16 public sequenceNumber;\n    GameState public gameState;\n    uint8[][] public boardPieces; // board[row][col]\n\n    uint8[] public pieceIds;\n    Objective[] public objectives;\n    mapping(uint8 => Piece) public pieces;\n\n    mapping(PieceType => PieceDefaultStats) public defaultStats;\n\n    address public player1;\n    address public player2;\n\n    uint8 public player1Mana;\n    uint8 public player2Mana;\n\n    uint256 public lastActionTimestamp;\n\n    // mapping from turn # -> piece # -> has acted\n    mapping(uint8 => mapping(uint8 => bool)) public hasMoved;\n    mapping(uint8 => mapping(uint8 => bool)) public hasAttacked;\n\n    function initialize(uint256 _gameId) public {\n        gameId = _gameId;\n        gameState = GameState.WAITING_FOR_PLAYERS;\n\n        for (uint8 i = 0; i < NROWS; i++) {\n            boardPieces.push();\n            for (uint8 j = 0; j < NCOLS; j++) {\n                boardPieces[i].push(0);\n            }\n        }\n\n        // initialize pieces\n        ZKChessUtils.initializeDefaults(defaultStats);\n        ZKChessUtils.initializeObjectives(objectives);\n    }\n\n    //////////////\n    /// EVENTS ///\n    //////////////\n\n    event GameStart(address p1, address p2);\n    event DidSummon(\n        address player,\n        uint8 pieceId,\n        uint16 sequenceNumber,\n        PieceType pieceType,\n        uint8 atRow,\n        uint8 atCol\n    );\n    event DidMove(\n        uint16 sequenceNumber,\n        uint8 pieceId,\n        uint8 fromRow,\n        uint8 fromCol,\n        uint8 toRow,\n        uint8 toCol\n    );\n    event DidAttack(\n        uint16 sequenceNumber,\n        uint8 attacker,\n        uint8 attacked,\n        uint8 attackerHp,\n        uint8 attackedHp\n    );\n    event DidEndTurn(address player, uint8 turnNumber, uint16 sequenceNumber);\n    event GameFinished();\n\n    ///////////////\n    /// GETTERS ///\n    ///////////////\n\n    function getInfo() public view returns (GameInfo memory ret) {\n        ret = GameInfo({\n            gameId: gameId,\n            NROWS: NROWS,\n            NCOLS: NCOLS,\n            turnNumber: turnNumber,\n            sequenceNumber: sequenceNumber,\n            gameState: gameState,\n            player1: player1,\n            player2: player2,\n            player1Mana: player1Mana,\n            player2Mana: player2Mana,\n            lastActionTimestamp: lastActionTimestamp\n        });\n        return ret;\n    }\n\n    function getPieces() public view returns (Piece[] memory ret) {\n        ret = new Piece[](pieceIds.length);\n        for (uint8 i = 0; i < pieceIds.length; i++) {\n            ret[i] = pieces[pieceIds[i]];\n        }\n        return ret;\n    }\n\n    function getDefaults()\n        public\n        view\n        returns (PieceDefaultStats[] memory ret)\n    {\n        ret = new PieceDefaultStats[](6);\n        // TODO hardcode bad >:(\n        for (uint8 i = 0; i < 6; i++) {\n            ret[i] = defaultStats[PieceType(i)];\n        }\n        return ret;\n    }\n\n    function getObjectives() public view returns (Objective[] memory ret) {\n        ret = new Objective[](objectives.length);\n        for (uint8 i = 0; i < objectives.length; i++) {\n            ret[i] = objectives[i];\n        }\n        return ret;\n    }\n\n    //////////////\n    /// Helper ///\n    //////////////\n\n    function checkAction(uint8 _turnNumber, uint16 _sequenceNumber)\n        public\n        view\n        returns (bool)\n    {\n        return\n            ZKChessUtils.checkAction(\n                _turnNumber,\n                turnNumber,\n                _sequenceNumber,\n                sequenceNumber,\n                player1,\n                player2,\n                gameState\n            );\n    }\n\n    function gameShouldBeCompleted() public view returns (bool) {\n        return ZKChessUtils.gameShouldBeCompleted(pieces);\n    }\n\n    //////////////////////\n    /// Game Mechanics ///\n    //////////////////////\n\n    function joinGame() public {\n        lastActionTimestamp = block.timestamp;\n        require(\n            gameState == GameState.WAITING_FOR_PLAYERS,\n            \"Game already started\"\n        );\n        if (player1 == address(0)) {\n            // first player to join game\n            player1 = msg.sender;\n            return;\n        }\n        // another player has joined. game is ready to start\n\n        require(msg.sender != player1, \"can't join game twice\");\n        // randomize player order\n        if (block.timestamp % 2 == 0) {\n            player2 = msg.sender;\n        } else {\n            player2 = player1;\n            player1 = msg.sender;\n        }\n\n        // set pieces\n        ZKChessUtils.initializePieces(\n            player1,\n            player2,\n            pieces,\n            pieceIds,\n            boardPieces,\n            defaultStats\n        );\n\n        gameState = GameState.P1_TO_MOVE;\n        turnNumber = 1;\n        player1Mana = turnNumber;\n        emit GameStart(player1, player2);\n    }\n\n    function doSummon(Summon memory summon) public {\n        lastActionTimestamp = block.timestamp;\n        checkAction(summon.turnNumber, summon.sequenceNumber);\n        require(!pieces[summon.pieceId].initialized, \"piece ID already in use\");\n\n        // PORT tile\n        uint8 homeRow;\n        uint8 homeCol;\n        if (msg.sender == player1) {\n            homeRow = pieces[1].row;\n            homeCol = pieces[1].col;\n        } else {\n            homeRow = pieces[2].row;\n            homeCol = pieces[2].col;\n        }\n\n        // MANA checks\n        if (msg.sender == player1) {\n            require(\n                player1Mana >= defaultStats[summon.pieceType].cost,\n                \"not enough mana\"\n            );\n            player1Mana -= defaultStats[summon.pieceType].cost;\n        } else {\n            require(\n                player2Mana >= defaultStats[summon.pieceType].cost,\n                \"not enough mana\"\n            );\n            player2Mana -= defaultStats[summon.pieceType].cost;\n        }\n\n        // validity checks\n        if (!defaultStats[summon.pieceType].isZk) {\n            require(summon.row < NROWS && summon.col < NCOLS, \"not in bounds\");\n            // if visible piece, can't summon on existing piece\n            uint8 pieceIdAtSummonTile = boardPieces[summon.row][summon.col];\n            Piece storage pieceAtSummonTile = pieces[pieceIdAtSummonTile];\n            require(!pieceAtSummonTile.alive, \"can't summon there\");\n            // must summon adjacent to the PORT tile\n            require(\n                ZKChessUtils.taxiDist(\n                    summon.row,\n                    summon.col,\n                    homeRow,\n                    homeCol\n                ) == 1,\n                \"can't summon there\"\n            );\n        } else {\n            require(\n                summon.zkp.input[1] == homeRow &&\n                    summon.zkp.input[2] == homeCol,\n                \"bad ZKP\"\n            );\n            require(summon.zkp.input[3] == 1, \"bad ZKP\");\n            require(summon.zkp.input[4] == NROWS, \"bad ZKP\");\n            require(summon.zkp.input[5] == NCOLS, \"bad ZKP\");\n            require(\n                Verifier.verifyDist1Proof(\n                    summon.zkp.a,\n                    summon.zkp.b,\n                    summon.zkp.c,\n                    summon.zkp.input\n                ),\n                \"bad ZKP\"\n            );\n        }\n\n        // create piece\n        pieces[summon.pieceId] = Piece({\n            id: summon.pieceId,\n            pieceType: summon.pieceType,\n            owner: msg.sender,\n            row: summon.row,\n            col: summon.col,\n            alive: true,\n            commitment: summon.zkp.input[0],\n            initialized: true,\n            hp: defaultStats[summon.pieceType].hp,\n            initializedOnTurn: turnNumber,\n            lastMove: turnNumber,\n            lastAttack: turnNumber\n        });\n        pieceIds.push(summon.pieceId);\n        boardPieces[summon.row][summon.col] = summon.pieceId;\n        // if piece has just been made, can't use it yet\n        // in the future this should be tracked in its own field\n        hasMoved[summon.turnNumber][summon.pieceId] = true;\n        hasAttacked[summon.turnNumber][summon.pieceId] = true;\n        emit DidSummon(\n            msg.sender,\n            summon.pieceId,\n            summon.sequenceNumber,\n            summon.pieceType,\n            summon.row,\n            summon.col\n        );\n        sequenceNumber++;\n    }\n\n    function doMove(Move memory move) public {\n        lastActionTimestamp = block.timestamp;\n        checkAction(move.turnNumber, move.sequenceNumber);\n        Piece storage piece = pieces[move.pieceId];\n        uint8 originRow = piece.row;\n        uint8 originCol = piece.col;\n\n        require(\n            ZKChessUtils.checkMove(\n                move,\n                pieces,\n                defaultStats,\n                hasMoved,\n                hasAttacked,\n                boardPieces,\n                NROWS,\n                NCOLS\n            ),\n            \"move failed\"\n        );\n\n        if (defaultStats[piece.pieceType].isZk) {\n            piece.commitment = move.zkp.input[1];\n        } else {\n            uint8[] memory moveToRow = move.moveToRow;\n            uint8[] memory moveToCol = move.moveToCol;\n            uint8 toRow = moveToRow[moveToRow.length - 1];\n            uint8 toCol = moveToCol[moveToCol.length - 1];\n            boardPieces[piece.row][piece.col] = 0;\n            boardPieces[toRow][toCol] = piece.id;\n            piece.row = toRow;\n            piece.col = toCol;\n        }\n        hasMoved[move.turnNumber][piece.id] = true;\n        piece.lastMove = move.turnNumber;\n        emit DidMove(\n            move.sequenceNumber,\n            move.pieceId,\n            originRow,\n            originCol,\n            piece.row,\n            piece.col\n        );\n        sequenceNumber++;\n    }\n\n    function doAttack(Attack memory attack) public {\n        lastActionTimestamp = block.timestamp;\n        checkAction(attack.turnNumber, attack.sequenceNumber);\n        require(\n            ZKChessUtils.checkAttack(\n                attack,\n                pieces,\n                defaultStats,\n                hasAttacked,\n                NROWS,\n                NCOLS\n            ),\n            \"invalid attack\"\n        );\n\n        ZKChessUtils.executeAttack(\n            attack,\n            pieces,\n            boardPieces,\n            defaultStats,\n            hasAttacked\n        );\n\n        emit DidAttack(\n            attack.sequenceNumber,\n            attack.pieceId,\n            attack.attackedId,\n            pieces[attack.pieceId].hp,\n            pieces[attack.attackedId].hp\n        );\n        sequenceNumber++;\n\n        if (gameShouldBeCompleted()) {\n            gameState = GameState.COMPLETE;\n            emit GameFinished();\n        }\n    }\n\n    function endTurn(uint8 _turnNumber, uint8 _sequenceNumber) public {\n        lastActionTimestamp = block.timestamp;\n        checkAction(_turnNumber, _sequenceNumber);\n        if (msg.sender == player1) {\n            // change to p2's turn\n            player1Mana = 0;\n            player2Mana = turnNumber;\n            if (player2Mana > 8) {\n                player2Mana = 8;\n            }\n            for (uint8 i = 0; i < objectives.length; i++) {\n                uint8 row = objectives[i].row;\n                uint8 col = objectives[i].col;\n                Piece storage occupyingPiece = pieces[boardPieces[row][col]];\n                if (occupyingPiece.alive && occupyingPiece.owner == player2) {\n                    player2Mana++;\n                }\n            }\n            gameState = GameState.P2_TO_MOVE;\n        } else {\n            // change to p1's turn\n            turnNumber++;\n            player2Mana = 0;\n            player1Mana = turnNumber;\n            if (player1Mana > 8) {\n                player1Mana = 8;\n            }\n            for (uint8 i = 0; i < objectives.length; i++) {\n                uint8 row = objectives[i].row;\n                uint8 col = objectives[i].col;\n                Piece storage occupyingPiece = pieces[boardPieces[row][col]];\n                if (occupyingPiece.alive && occupyingPiece.owner == player1) {\n                    player1Mana++;\n                }\n            }\n            gameState = GameState.P1_TO_MOVE;\n        }\n        emit DidEndTurn(msg.sender, _turnNumber, _sequenceNumber);\n        sequenceNumber++;\n\n        if (gameShouldBeCompleted()) {\n            gameState = GameState.COMPLETE;\n            emit GameFinished();\n        }\n    }\n}\n",
  "sourcePath": "/Users/bgu/zk-chess/eth/contracts/ZKChessGame.sol",
  "compiler": {
    "name": "solc",
    "version": "0.6.7+commit.b8d736ae.Emscripten.clang"
  },
  "schemaVersion": "3.3.1",
  "updatedAt": "2020-11-18T04:55:18.316Z",
  "networkType": "ethereum",
  "devdoc": {
    "methods": {}
  },
  "userdoc": {
    "methods": {
      "checkAction(uint8,uint16)": {
        "notice": "/////////// Helper /// ///////////"
      },
      "getInfo()": {
        "notice": "//////////// GETTERS /// ////////////"
      },
      "joinGame()": {
        "notice": "/////////////////// Game Mechanics /// ///////////////////"
      }
    }
  }
}