{
  "contractName": "ZKChessCore",
  "abi": [
    {
      "inputs": [
        {
          "internalType": "bool",
          "name": "_disableZKCheck",
          "type": "bool"
        }
      ],
      "stateMutability": "nonpayable",
      "type": "constructor"
    },
    {
      "anonymous": false,
      "inputs": [],
      "name": "GameFinished",
      "type": "event"
    },
    {
      "anonymous": false,
      "inputs": [
        {
          "indexed": false,
          "internalType": "address",
          "name": "p1",
          "type": "address"
        },
        {
          "indexed": false,
          "internalType": "address",
          "name": "p2",
          "type": "address"
        }
      ],
      "name": "GameStart",
      "type": "event"
    },
    {
      "anonymous": false,
      "inputs": [
        {
          "indexed": false,
          "internalType": "address",
          "name": "player",
          "type": "address"
        }
      ],
      "name": "MoveMade",
      "type": "event"
    },
    {
      "anonymous": false,
      "inputs": [
        {
          "indexed": false,
          "internalType": "uint256",
          "name": "pfsAccepted",
          "type": "uint256"
        }
      ],
      "name": "ProofVerified",
      "type": "event"
    },
    {
      "inputs": [],
      "name": "BOARD_SIZE",
      "outputs": [
        {
          "internalType": "uint256",
          "name": "",
          "type": "uint256"
        }
      ],
      "stateMutability": "view",
      "type": "function"
    },
    {
      "inputs": [],
      "name": "DISABLE_ZK_CHECK",
      "outputs": [
        {
          "internalType": "bool",
          "name": "",
          "type": "bool"
        }
      ],
      "stateMutability": "view",
      "type": "function"
    },
    {
      "inputs": [],
      "name": "FIELD_SIZE",
      "outputs": [
        {
          "internalType": "uint256",
          "name": "",
          "type": "uint256"
        }
      ],
      "stateMutability": "view",
      "type": "function"
    },
    {
      "inputs": [],
      "name": "GHOST_START_COMMITMENT",
      "outputs": [
        {
          "internalType": "uint256",
          "name": "",
          "type": "uint256"
        }
      ],
      "stateMutability": "view",
      "type": "function"
    },
    {
      "inputs": [
        {
          "internalType": "uint256",
          "name": "",
          "type": "uint256"
        },
        {
          "internalType": "uint256",
          "name": "",
          "type": "uint256"
        }
      ],
      "name": "boardObjectives",
      "outputs": [
        {
          "internalType": "uint8",
          "name": "",
          "type": "uint8"
        }
      ],
      "stateMutability": "view",
      "type": "function"
    },
    {
      "inputs": [
        {
          "internalType": "uint256",
          "name": "",
          "type": "uint256"
        },
        {
          "internalType": "uint256",
          "name": "",
          "type": "uint256"
        }
      ],
      "name": "boardPieces",
      "outputs": [
        {
          "internalType": "uint8",
          "name": "",
          "type": "uint8"
        }
      ],
      "stateMutability": "view",
      "type": "function"
    },
    {
      "inputs": [],
      "name": "gameState",
      "outputs": [
        {
          "internalType": "enum GameState",
          "name": "",
          "type": "uint8"
        }
      ],
      "stateMutability": "view",
      "type": "function"
    },
    {
      "inputs": [
        {
          "internalType": "uint256",
          "name": "",
          "type": "uint256"
        }
      ],
      "name": "objectiveIds",
      "outputs": [
        {
          "internalType": "uint8",
          "name": "",
          "type": "uint8"
        }
      ],
      "stateMutability": "view",
      "type": "function"
    },
    {
      "inputs": [
        {
          "internalType": "uint8",
          "name": "",
          "type": "uint8"
        }
      ],
      "name": "objectives",
      "outputs": [
        {
          "internalType": "uint8",
          "name": "id",
          "type": "uint8"
        },
        {
          "internalType": "uint8",
          "name": "value",
          "type": "uint8"
        },
        {
          "internalType": "uint8",
          "name": "row",
          "type": "uint8"
        },
        {
          "internalType": "uint8",
          "name": "col",
          "type": "uint8"
        },
        {
          "internalType": "address",
          "name": "capturedBy",
          "type": "address"
        }
      ],
      "stateMutability": "view",
      "type": "function"
    },
    {
      "inputs": [
        {
          "internalType": "uint256",
          "name": "",
          "type": "uint256"
        }
      ],
      "name": "pieceIds",
      "outputs": [
        {
          "internalType": "uint8",
          "name": "",
          "type": "uint8"
        }
      ],
      "stateMutability": "view",
      "type": "function"
    },
    {
      "inputs": [
        {
          "internalType": "uint8",
          "name": "",
          "type": "uint8"
        }
      ],
      "name": "pieces",
      "outputs": [
        {
          "internalType": "uint8",
          "name": "id",
          "type": "uint8"
        },
        {
          "internalType": "enum PieceType",
          "name": "pieceType",
          "type": "uint8"
        },
        {
          "internalType": "address",
          "name": "owner",
          "type": "address"
        },
        {
          "internalType": "uint8",
          "name": "row",
          "type": "uint8"
        },
        {
          "internalType": "uint8",
          "name": "col",
          "type": "uint8"
        },
        {
          "internalType": "bool",
          "name": "dead",
          "type": "bool"
        },
        {
          "internalType": "uint256",
          "name": "commitment",
          "type": "uint256"
        }
      ],
      "stateMutability": "view",
      "type": "function"
    },
    {
      "inputs": [],
      "name": "player1",
      "outputs": [
        {
          "internalType": "address",
          "name": "",
          "type": "address"
        }
      ],
      "stateMutability": "view",
      "type": "function"
    },
    {
      "inputs": [],
      "name": "player1Score",
      "outputs": [
        {
          "internalType": "uint8",
          "name": "",
          "type": "uint8"
        }
      ],
      "stateMutability": "view",
      "type": "function"
    },
    {
      "inputs": [],
      "name": "player2",
      "outputs": [
        {
          "internalType": "address",
          "name": "",
          "type": "address"
        }
      ],
      "stateMutability": "view",
      "type": "function"
    },
    {
      "inputs": [],
      "name": "player2Score",
      "outputs": [
        {
          "internalType": "uint8",
          "name": "",
          "type": "uint8"
        }
      ],
      "stateMutability": "view",
      "type": "function"
    },
    {
      "inputs": [],
      "name": "turnNumber",
      "outputs": [
        {
          "internalType": "uint8",
          "name": "",
          "type": "uint8"
        }
      ],
      "stateMutability": "view",
      "type": "function"
    },
    {
      "inputs": [
        {
          "internalType": "uint256",
          "name": "val1",
          "type": "uint256"
        },
        {
          "internalType": "uint256",
          "name": "val2",
          "type": "uint256"
        },
        {
          "internalType": "uint256",
          "name": "val3",
          "type": "uint256"
        }
      ],
      "name": "hashTriple",
      "outputs": [
        {
          "internalType": "uint256",
          "name": "",
          "type": "uint256"
        }
      ],
      "stateMutability": "pure",
      "type": "function"
    },
    {
      "inputs": [
        {
          "components": [
            {
              "internalType": "uint8",
              "name": "id",
              "type": "uint8"
            },
            {
              "internalType": "enum PieceType",
              "name": "pieceType",
              "type": "uint8"
            },
            {
              "internalType": "address",
              "name": "owner",
              "type": "address"
            },
            {
              "internalType": "uint8",
              "name": "row",
              "type": "uint8"
            },
            {
              "internalType": "uint8",
              "name": "col",
              "type": "uint8"
            },
            {
              "internalType": "bool",
              "name": "dead",
              "type": "bool"
            },
            {
              "internalType": "uint256",
              "name": "commitment",
              "type": "uint256"
            }
          ],
          "internalType": "struct Piece",
          "name": "piece",
          "type": "tuple"
        },
        {
          "internalType": "uint8",
          "name": "toRow",
          "type": "uint8"
        },
        {
          "internalType": "uint8",
          "name": "toCol",
          "type": "uint8"
        }
      ],
      "name": "isValidMove",
      "outputs": [
        {
          "internalType": "bool",
          "name": "",
          "type": "bool"
        }
      ],
      "stateMutability": "pure",
      "type": "function"
    },
    {
      "inputs": [],
      "name": "gameShouldBeCompleted",
      "outputs": [
        {
          "internalType": "bool",
          "name": "",
          "type": "bool"
        }
      ],
      "stateMutability": "view",
      "type": "function"
    },
    {
      "inputs": [],
      "name": "joinGame",
      "outputs": [],
      "stateMutability": "nonpayable",
      "type": "function"
    },
    {
      "inputs": [
        {
          "internalType": "uint256[2]",
          "name": "_a",
          "type": "uint256[2]"
        },
        {
          "internalType": "uint256[2][2]",
          "name": "_b",
          "type": "uint256[2][2]"
        },
        {
          "internalType": "uint256[2]",
          "name": "_c",
          "type": "uint256[2]"
        },
        {
          "internalType": "uint256[2]",
          "name": "_input",
          "type": "uint256[2]"
        }
      ],
      "name": "checkProof",
      "outputs": [
        {
          "internalType": "bool",
          "name": "",
          "type": "bool"
        }
      ],
      "stateMutability": "nonpayable",
      "type": "function"
    },
    {
      "inputs": [
        {
          "internalType": "uint8",
          "name": "pieceId",
          "type": "uint8"
        },
        {
          "internalType": "uint8",
          "name": "toRow",
          "type": "uint8"
        },
        {
          "internalType": "uint8",
          "name": "toCol",
          "type": "uint8"
        }
      ],
      "name": "movePiece",
      "outputs": [],
      "stateMutability": "nonpayable",
      "type": "function"
    },
    {
      "inputs": [
        {
          "internalType": "uint256[2]",
          "name": "_a",
          "type": "uint256[2]"
        },
        {
          "internalType": "uint256[2][2]",
          "name": "_b",
          "type": "uint256[2][2]"
        },
        {
          "internalType": "uint256[2]",
          "name": "_c",
          "type": "uint256[2]"
        },
        {
          "internalType": "uint256[2]",
          "name": "_input",
          "type": "uint256[2]"
        },
        {
          "internalType": "uint8",
          "name": "pieceId",
          "type": "uint8"
        }
      ],
      "name": "moveGhost",
      "outputs": [],
      "stateMutability": "nonpayable",
      "type": "function"
    },
    {
      "inputs": [
        {
          "internalType": "uint8",
          "name": "pieceId",
          "type": "uint8"
        },
        {
          "internalType": "uint256",
          "name": "row",
          "type": "uint256"
        },
        {
          "internalType": "uint256",
          "name": "col",
          "type": "uint256"
        },
        {
          "internalType": "uint256",
          "name": "salt",
          "type": "uint256"
        }
      ],
      "name": "revealGhost",
      "outputs": [],
      "stateMutability": "nonpayable",
      "type": "function"
    }
  ],
  "bytecode": "0x60806040523480156200001157600080fd5b50604051620053ab380380620053ab833981810160405281019062000037919062001926565b80601360006101000a81548160ff02191690831515021790555060008060016101000a81548160ff021916908360038111156200007057fe5b0217905550604051806101000160405280600160ff168152602001600260ff168152602001600360ff168152602001600460ff168152602001600560ff168152602001600660ff168152602001600760ff168152602001600860ff16815250600f906008620000e19291906200179a565b506040518060c00160405280600960ff168152602001600a60ff168152602001600b60ff168152602001600c60ff168152602001600d60ff168152602001600e60ff168152506011906006620001399291906200183b565b506040518060e00160405280600160ff168152602001600060028111156200015d57fe5b8152602001600073ffffffffffffffffffffffffffffffffffffffff168152602001600060ff168152602001600160ff168152602001600015158152602001600081525060106000600160ff16815260200190815260200160002060008201518160000160006101000a81548160ff021916908360ff16021790555060208201518160000160016101000a81548160ff02191690836002811115620001fe57fe5b021790555060408201518160000160026101000a81548173ffffffffffffffffffffffffffffffffffffffff021916908373ffffffffffffffffffffffffffffffffffffffff16021790555060608201518160000160166101000a81548160ff021916908360ff16021790555060808201518160000160176101000a81548160ff021916908360ff16021790555060a08201518160000160186101000a81548160ff02191690831515021790555060c08201518160010155905050600180600060078110620002c957fe5b01600160078110620002d757fe5b602091828204019190066101000a81548160ff021916908360ff1602179055506040518060e00160405280600260ff168152602001600160028111156200031a57fe5b8152602001600073ffffffffffffffffffffffffffffffffffffffff168152602001600060ff168152602001600360ff168152602001600015158152602001600081525060106000600260ff16815260200190815260200160002060008201518160000160006101000a81548160ff021916908360ff16021790555060208201518160000160016101000a81548160ff02191690836002811115620003bb57fe5b021790555060408201518160000160026101000a81548173ffffffffffffffffffffffffffffffffffffffff021916908373ffffffffffffffffffffffffffffffffffffffff16021790555060608201518160000160166101000a81548160ff021916908360ff16021790555060808201518160000160176101000a81548160ff021916908360ff16021790555060a08201518160000160186101000a81548160ff02191690831515021790555060c08201518160010155905050600260016000600781106200048757fe5b016003600781106200049557fe5b602091828204019190066101000a81548160ff021916908360ff1602179055506040518060e00160405280600360ff16815260200160006002811115620004d857fe5b8152602001600073ffffffffffffffffffffffffffffffffffffffff168152602001600060ff168152602001600560ff168152602001600015158152602001600081525060106000600360ff16815260200190815260200160002060008201518160000160006101000a81548160ff021916908360ff16021790555060208201518160000160016101000a81548160ff021916908360028111156200057957fe5b021790555060408201518160000160026101000a81548173ffffffffffffffffffffffffffffffffffffffff021916908373ffffffffffffffffffffffffffffffffffffffff16021790555060608201518160000160166101000a81548160ff021916908360ff16021790555060808201518160000160176101000a81548160ff021916908360ff16021790555060a08201518160000160186101000a81548160ff02191690831515021790555060c08201518160010155905050600360016000600781106200064557fe5b016005600781106200065357fe5b602091828204019190066101000a81548160ff021916908360ff1602179055506040518060e00160405280600460ff1681526020016002808111156200069557fe5b8152602001600073ffffffffffffffffffffffffffffffffffffffff168152602001600060ff168152602001600060ff1681526020016000151581526020017f0ff36786ffd15ba1a9d2753de6368f3f39ff69833d08a28656f0832ad2aa664781525060106000600460ff16815260200190815260200160002060008201518160000160006101000a81548160ff021916908360ff16021790555060208201518160000160016101000a81548160ff021916908360028111156200075557fe5b021790555060408201518160000160026101000a81548173ffffffffffffffffffffffffffffffffffffffff021916908373ffffffffffffffffffffffffffffffffffffffff16021790555060608201518160000160166101000a81548160ff021916908360ff16021790555060808201518160000160176101000a81548160ff021916908360ff16021790555060a08201518160000160186101000a81548160ff02191690831515021790555060c082015181600101559050506040518060e00160405280600560ff168152602001600060028111156200083357fe5b8152602001600073ffffffffffffffffffffffffffffffffffffffff168152602001600660ff168152602001600160ff168152602001600015158152602001600081525060106000600560ff16815260200190815260200160002060008201518160000160006101000a81548160ff021916908360ff16021790555060208201518160000160016101000a81548160ff02191690836002811115620008d457fe5b021790555060408201518160000160026101000a81548173ffffffffffffffffffffffffffffffffffffffff021916908373ffffffffffffffffffffffffffffffffffffffff16021790555060608201518160000160166101000a81548160ff021916908360ff16021790555060808201518160000160176101000a81548160ff021916908360ff16021790555060a08201518160000160186101000a81548160ff02191690831515021790555060c0820151816001015590505060056001600660078110620009a057fe5b01600160078110620009ae57fe5b602091828204019190066101000a81548160ff021916908360ff1602179055506040518060e00160405280600660ff16815260200160016002811115620009f157fe5b8152602001600073ffffffffffffffffffffffffffffffffffffffff168152602001600660ff168152602001600360ff168152602001600015158152602001600081525060106000600660ff16815260200190815260200160002060008201518160000160006101000a81548160ff021916908360ff16021790555060208201518160000160016101000a81548160ff0219169083600281111562000a9257fe5b021790555060408201518160000160026101000a81548173ffffffffffffffffffffffffffffffffffffffff021916908373ffffffffffffffffffffffffffffffffffffffff16021790555060608201518160000160166101000a81548160ff021916908360ff16021790555060808201518160000160176101000a81548160ff021916908360ff16021790555060a08201518160000160186101000a81548160ff02191690831515021790555060c082015181600101559050506006600160066007811062000b5e57fe5b0160036007811062000b6c57fe5b602091828204019190066101000a81548160ff021916908360ff1602179055506040518060e00160405280600760ff1681526020016000600281111562000baf57fe5b8152602001600073ffffffffffffffffffffffffffffffffffffffff168152602001600660ff168152602001600560ff168152602001600015158152602001600081525060106000600760ff16815260200190815260200160002060008201518160000160006101000a81548160ff021916908360ff16021790555060208201518160000160016101000a81548160ff0219169083600281111562000c5057fe5b021790555060408201518160000160026101000a81548173ffffffffffffffffffffffffffffffffffffffff021916908373ffffffffffffffffffffffffffffffffffffffff16021790555060608201518160000160166101000a81548160ff021916908360ff16021790555060808201518160000160176101000a81548160ff021916908360ff16021790555060a08201518160000160186101000a81548160ff02191690831515021790555060c082015181600101559050506007600160066007811062000d1c57fe5b0160056007811062000d2a57fe5b602091828204019190066101000a81548160ff021916908360ff1602179055506040518060e00160405280600860ff16815260200160028081111562000d6c57fe5b8152602001600073ffffffffffffffffffffffffffffffffffffffff168152602001600660ff168152602001600060ff1681526020016000151581526020017f0ff36786ffd15ba1a9d2753de6368f3f39ff69833d08a28656f0832ad2aa664781525060106000600860ff16815260200190815260200160002060008201518160000160006101000a81548160ff021916908360ff16021790555060208201518160000160016101000a81548160ff0219169083600281111562000e2c57fe5b021790555060408201518160000160026101000a81548173ffffffffffffffffffffffffffffffffffffffff021916908373ffffffffffffffffffffffffffffffffffffffff16021790555060608201518160000160166101000a81548160ff021916908360ff16021790555060808201518160000160176101000a81548160ff021916908360ff16021790555060a08201518160000160186101000a81548160ff02191690831515021790555060c082015181600101559050506040518060a00160405280600960ff168152602001600560ff168152602001600360ff168152602001600060ff168152602001600073ffffffffffffffffffffffffffffffffffffffff1681525060126000600960ff16815260200190815260200160002060008201518160000160006101000a81548160ff021916908360ff16021790555060208201518160000160016101000a81548160ff021916908360ff16021790555060408201518160000160026101000a81548160ff021916908360ff16021790555060608201518160000160036101000a81548160ff021916908360ff16021790555060808201518160000160046101000a81548173ffffffffffffffffffffffffffffffffffffffff021916908373ffffffffffffffffffffffffffffffffffffffff160217905550905050600960086003600781106200102b57fe5b016000600781106200103957fe5b602091828204019190066101000a81548160ff021916908360ff1602179055506040518060a00160405280600a60ff168152602001600560ff168152602001600260ff168152602001600260ff168152602001600073ffffffffffffffffffffffffffffffffffffffff1681525060126000600a60ff16815260200190815260200160002060008201518160000160006101000a81548160ff021916908360ff16021790555060208201518160000160016101000a81548160ff021916908360ff16021790555060408201518160000160026101000a81548160ff021916908360ff16021790555060608201518160000160036101000a81548160ff021916908360ff16021790555060808201518160000160046101000a81548173ffffffffffffffffffffffffffffffffffffffff021916908373ffffffffffffffffffffffffffffffffffffffff160217905550905050600a60086002600781106200119d57fe5b01600260078110620011ab57fe5b602091828204019190066101000a81548160ff021916908360ff1602179055506040518060a00160405280600b60ff168152602001600a60ff168152602001600460ff168152602001600260ff168152602001600073ffffffffffffffffffffffffffffffffffffffff1681525060126000600b60ff16815260200190815260200160002060008201518160000160006101000a81548160ff021916908360ff16021790555060208201518160000160016101000a81548160ff021916908360ff16021790555060408201518160000160026101000a81548160ff021916908360ff16021790555060608201518160000160036101000a81548160ff021916908360ff16021790555060808201518160000160046101000a81548173ffffffffffffffffffffffffffffffffffffffff021916908373ffffffffffffffffffffffffffffffffffffffff160217905550905050600b60086004600781106200130f57fe5b016002600781106200131d57fe5b602091828204019190066101000a81548160ff021916908360ff1602179055506040518060a00160405280600c60ff168152602001600a60ff168152602001600260ff168152602001600460ff168152602001600073ffffffffffffffffffffffffffffffffffffffff1681525060126000600c60ff16815260200190815260200160002060008201518160000160006101000a81548160ff021916908360ff16021790555060208201518160000160016101000a81548160ff021916908360ff16021790555060408201518160000160026101000a81548160ff021916908360ff16021790555060608201518160000160036101000a81548160ff021916908360ff16021790555060808201518160000160046101000a81548173ffffffffffffffffffffffffffffffffffffffff021916908373ffffffffffffffffffffffffffffffffffffffff160217905550905050600c60086002600781106200148157fe5b016004600781106200148f57fe5b602091828204019190066101000a81548160ff021916908360ff1602179055506040518060a00160405280600d60ff168152602001600560ff168152602001600460ff168152602001600460ff168152602001600073ffffffffffffffffffffffffffffffffffffffff1681525060126000600d60ff16815260200190815260200160002060008201518160000160006101000a81548160ff021916908360ff16021790555060208201518160000160016101000a81548160ff021916908360ff16021790555060408201518160000160026101000a81548160ff021916908360ff16021790555060608201518160000160036101000a81548160ff021916908360ff16021790555060808201518160000160046101000a81548173ffffffffffffffffffffffffffffffffffffffff021916908373ffffffffffffffffffffffffffffffffffffffff160217905550905050600d6008600460078110620015f357fe5b016004600781106200160157fe5b602091828204019190066101000a81548160ff021916908360ff1602179055506040518060a00160405280600e60ff168152602001600560ff168152602001600360ff168152602001600660ff168152602001600073ffffffffffffffffffffffffffffffffffffffff1681525060126000600e60ff16815260200190815260200160002060008201518160000160006101000a81548160ff021916908360ff16021790555060208201518160000160016101000a81548160ff021916908360ff16021790555060408201518160000160026101000a81548160ff021916908360ff16021790555060608201518160000160036101000a81548160ff021916908360ff16021790555060808201518160000160046101000a81548173ffffffffffffffffffffffffffffffffffffffff021916908373ffffffffffffffffffffffffffffffffffffffff160217905550905050600e60086003600781106200176557fe5b016006600781106200177357fe5b602091828204019190066101000a81548160ff021916908360ff1602179055505062001978565b826008601f01602090048101928215620018285791602002820160005b83821115620017f757835183826101000a81548160ff021916908360ff1602179055509260200192600101602081600001049283019260010302620017b7565b8015620018265782816101000a81549060ff0219169055600101602081600001049283019260010302620017f7565b505b509050620018379190620018dc565b5090565b826006601f01602090048101928215620018c95791602002820160005b838211156200189857835183826101000a81548160ff021916908360ff160217905550926020019260010160208160000104928301926001030262001858565b8015620018c75782816101000a81549060ff021916905560010160208160000104928301926001030262001898565b505b509050620018d89190620018dc565b5090565b6200190c91905b808211156200190857600081816101000a81549060ff021916905550600101620018e3565b5090565b90565b60008151905062001920816200195e565b92915050565b6000602082840312156200193957600080fd5b600062001949848285016200190f565b91505092915050565b60008115159050919050565b620019698162001952565b81146200197557600080fd5b50565b613a2380620019886000396000f3fe608060405234801561001057600080fd5b50600436106101575760003560e01c80638af9d562116100c3578063d1f9c24d1161007c578063d1f9c24d1461040e578063d30895e41461042c578063d4f77b1c1461044a578063dc4a3e9514610454578063e645206a14610472578063fb2fac761461048e57610157565b80638af9d56214610324578063acbc1a9114610342578063b022824614610360578063bd91fdb414610390578063c6204ee2146103ae578063cfecc6de146103de57610157565b806351df541c1161011557806351df541c1461025c578063562fb4271461027a5780635700401e1461029657806359a5f12d146102b45780635c3beb32146102d25780637174f2c01461030657610157565b80621c7f221461015c578063210851b51461018c5780632c784f32146101bc5780633fb7388e146101f2578063414a37ba1461022257806342ceecf514610240575b600080fd5b61017660048036038101906101719190612e19565b6104be565b604051610183919061366a565b60405180910390f35b6101a660048036038101906101a19190612d27565b610716565b6040516101b391906134b4565b60405180910390f35b6101d660048036038101906101d19190612e68565b6109d6565b6040516101e997969594939291906136d7565b60405180910390f35b61020c60048036038101906102079190612da1565b610a79565b60405161021991906136bc565b60405180910390f35b61022a610aaf565b604051610237919061366a565b60405180910390f35b61025a60048036038101906102559190612e91565b610ad3565b005b610264610f96565b60405161027191906134b4565b60405180910390f35b610294600480360381019061028f9190612c84565b611109565b005b61029e611569565b6040516102ab91906136bc565b60405180910390f35b6102bc61157b565b6040516102c9919061340e565b60405180910390f35b6102ec60048036038101906102e79190612e68565b6115a1565b6040516102fd959493929190613746565b60405180910390f35b61030e61162b565b60405161031b91906136bc565b60405180910390f35b61032c61163d565b60405161033991906134b4565b60405180910390f35b61034a611650565b604051610357919061366a565b60405180910390f35b61037a60048036038101906103759190612da1565b611674565b60405161038791906136bc565b60405180910390f35b6103986116aa565b6040516103a591906136bc565b60405180910390f35b6103c860048036038101906103c39190612d78565b6116bd565b6040516103d591906136bc565b60405180910390f35b6103f860048036038101906103f39190612d78565b6116e4565b60405161040591906136bc565b60405180910390f35b61041661170b565b60405161042391906134cf565b60405180910390f35b61043461171e565b604051610441919061340e565b60405180910390f35b610452611744565b005b61045c611b28565b604051610469919061366a565b60405180910390f35b61048c60048036038101906104879190612ef4565b611b2d565b005b6104a860048036038101906104a39190612c1f565b612270565b6040516104b591906134b4565b60405180910390f35b6000806000905060008090507f30644e72e131a029b85045b68181585d2833e84879b9709143e1f593f0000001806104f257fe5b868308915073__Hasher________________________________633f1a1187838360006040518463ffffffff1660e01b815260040161053393929190613685565b604080518083038186803b15801561054a57600080fd5b505af415801561055e573d6000803e3d6000fd5b505050506040513d601f19601f820116820180604052508101906105829190612ddd565b80925081935050507f30644e72e131a029b85045b68181585d2833e84879b9709143e1f593f0000001806105b257fe5b858308915073__Hasher________________________________633f1a1187838360006040518463ffffffff1660e01b81526004016105f393929190613685565b604080518083038186803b15801561060a57600080fd5b505af415801561061e573d6000803e3d6000fd5b505050506040513d601f19601f820116820180604052508101906106429190612ddd565b80925081935050507f30644e72e131a029b85045b68181585d2833e84879b9709143e1f593f00000018061067257fe5b848308915073__Hasher________________________________633f1a1187838360006040518463ffffffff1660e01b81526004016106b393929190613685565b604080518083038186803b1580156106ca57600080fd5b505af41580156106de573d6000803e3d6000fd5b505050506040513d601f19601f820116820180604052508101906107029190612ddd565b809250819350505081925050509392505050565b600060078360ff1610158061072f575060078260ff1610155b1561073d57600090506109cf565b60028081111561074957fe5b8460200151600281111561075957fe5b141561076857600090506109cf565b6000600281111561077557fe5b8460200151600281111561078557fe5b141561086b578260ff16846060015160ff161480156107ad57508160ff16846080015160ff16145b156107bb57600090506109cf565b60008360ff16856060015160ff1603905060018160010b138061080057507fffffffffffffffffffffffffffffffffffffffffffffffffffffffffffffffff8160010b125b1561080f5760009150506109cf565b60008360ff16866080015160ff1603905060018160010b138061085457507fffffffffffffffffffffffffffffffffffffffffffffffffffffffffffffffff8160010b125b15610864576000925050506109cf565b50506109ca565b6001600281111561087857fe5b8460200151600281111561088857fe5b14156109c95760008360ff16856060015160ff1603905060008360ff16866080015160ff1603905060028260010b14806108e457507ffffffffffffffffffffffffffffffffffffffffffffffffffffffffffffffffe8260010b145b156109355760018160010b1415801561092057507fffffffffffffffffffffffffffffffffffffffffffffffffffffffffffffffff8160010b14155b15610930576000925050506109cf565b6109c6565b60018260010b148061096957507fffffffffffffffffffffffffffffffffffffffffffffffffffffffffffffffff8260010b145b156109ba5760028160010b141580156109a557507ffffffffffffffffffffffffffffffffffffffffffffffffffffffffffffffffe8160010b14155b156109b5576000925050506109cf565b6109c5565b6000925050506109cf565b5b50505b5b600190505b9392505050565b60106020528060005260406000206000915090508060000160009054906101000a900460ff16908060000160019054906101000a900460ff16908060000160029054906101000a900473ffffffffffffffffffffffffffffffffffffffff16908060000160169054906101000a900460ff16908060000160179054906101000a900460ff16908060000160189054906101000a900460ff16908060010154905087565b60018260078110610a8657fe5b018160078110610a9257fe5b60209182820401919006915091509054906101000a900460ff1681565b7f30644e72e131a029b85045b68181585d2833e84879b9709143e1f593f000000181565b600380811115610adf57fe5b600060019054906101000a900460ff166003811115610afa57fe5b1415610b3b576040517f08c379a0000000000000000000000000000000000000000000000000000000008152600401610b329061358a565b60405180910390fd5b601360019054906101000a900473ffffffffffffffffffffffffffffffffffffffff1673ffffffffffffffffffffffffffffffffffffffff163373ffffffffffffffffffffffffffffffffffffffff161415610bfa5760016003811115610b9e57fe5b600060019054906101000a900460ff166003811115610bb957fe5b14610bf9576040517f08c379a0000000000000000000000000000000000000000000000000000000008152600401610bf09061364a565b60405180910390fd5b5b601460009054906101000a900473ffffffffffffffffffffffffffffffffffffffff1673ffffffffffffffffffffffffffffffffffffffff163373ffffffffffffffffffffffffffffffffffffffff161415610cb95760026003811115610c5d57fe5b600060019054906101000a900460ff166003811115610c7857fe5b14610cb8576040517f08c379a0000000000000000000000000000000000000000000000000000000008152600401610caf906135aa565b60405180910390fd5b5b6000601060008660ff1660ff1681526020019081526020016000209050600280811115610ce257fe5b8160000160019054906101000a900460ff166002811115610cff57fe5b14610d3f576040517f08c379a0000000000000000000000000000000000000000000000000000000008152600401610d369061356a565b60405180910390fd5b3373ffffffffffffffffffffffffffffffffffffffff168160000160029054906101000a900473ffffffffffffffffffffffffffffffffffffffff1673ffffffffffffffffffffffffffffffffffffffff1614610dd1576040517f08c379a0000000000000000000000000000000000000000000000000000000008152600401610dc89061362a565b60405180910390fd5b8060010154610de18585856104be565b14610e21576040517f08c379a0000000000000000000000000000000000000000000000000000000008152600401610e18906135ca565b60405180910390fd5b60006010600060018760078110610e3457fe5b018660078110610e4057fe5b602091828204019190069054906101000a900460ff1660ff1660ff16815260200190815260200160002090506000601360019054906101000a900473ffffffffffffffffffffffffffffffffffffffff169050601360019054906101000a900473ffffffffffffffffffffffffffffffffffffffff1673ffffffffffffffffffffffffffffffffffffffff163373ffffffffffffffffffffffffffffffffffffffff161415610f0f57601460009054906101000a900473ffffffffffffffffffffffffffffffffffffffff1690505b8073ffffffffffffffffffffffffffffffffffffffff168260000160029054906101000a900473ffffffffffffffffffffffffffffffffffffffff1673ffffffffffffffffffffffffffffffffffffffff161415610f855760018260000160186101000a81548160ff0219169083151502179055505b610f8d6123a9565b50505050505050565b6000806001905060008090505b60088160ff1610156110185760106000600f8360ff1660088110610fc357fe5b602091828204019190069054906101000a900460ff1660ff1660ff16815260200190815260200160002060000160189054906101000a900460ff1661100b5760009150611018565b8080600101915050610fa3565b508015611029576001915050611106565b60006001905060008090505b60068160ff1610156110ed57600073ffffffffffffffffffffffffffffffffffffffff166012600060118460ff166006811061106d57fe5b602091828204019190069054906101000a900460ff1660ff1660ff16815260200190815260200160002060000160049054906101000a900473ffffffffffffffffffffffffffffffffffffffff1673ffffffffffffffffffffffffffffffffffffffff1614156110e057600091506110ed565b8080600101915050611035565b5080156110ff57600192505050611106565b6000925050505b90565b60038081111561111557fe5b600060019054906101000a900460ff16600381111561113057fe5b1415611171576040517f08c379a00000000000000000000000000000000000000000000000000000000081526004016111689061358a565b60405180910390fd5b601360019054906101000a900473ffffffffffffffffffffffffffffffffffffffff1673ffffffffffffffffffffffffffffffffffffffff163373ffffffffffffffffffffffffffffffffffffffff16141561123057600160038111156111d457fe5b600060019054906101000a900460ff1660038111156111ef57fe5b1461122f576040517f08c379a00000000000000000000000000000000000000000000000000000000081526004016112269061364a565b60405180910390fd5b5b601460009054906101000a900473ffffffffffffffffffffffffffffffffffffffff1673ffffffffffffffffffffffffffffffffffffffff163373ffffffffffffffffffffffffffffffffffffffff1614156112ef576002600381111561129357fe5b600060019054906101000a900460ff1660038111156112ae57fe5b146112ee576040517f08c379a00000000000000000000000000000000000000000000000000000000081526004016112e5906135aa565b60405180910390fd5b5b6000601060008360ff1660ff168152602001908152602001600020905060028081111561131857fe5b8160000160019054906101000a900460ff16600281111561133557fe5b14611375576040517f08c379a000000000000000000000000000000000000000000000000000000000815260040161136c9061356a565b60405180910390fd5b3373ffffffffffffffffffffffffffffffffffffffff168160000160029054906101000a900473ffffffffffffffffffffffffffffffffffffffff1673ffffffffffffffffffffffffffffffffffffffff1614611407576040517f08c379a00000000000000000000000000000000000000000000000000000000081526004016113fe9061362a565b60405180910390fd5b8260006002811061141457fe5b602002015181600101541461145e576040517f08c379a0000000000000000000000000000000000000000000000000000000008152600401611455906135ea565b60405180910390fd5b601360009054906101000a900460ff1661153f5773__Verifier______________________________63ab475307878787876040518563ffffffff1660e01b81526004016114af949392919061346d565b60206040518083038186803b1580156114c757600080fd5b505af41580156114db573d6000803e3d6000fd5b505050506040513d601f19601f820116820180604052508101906114ff9190612cfe565b61153e576040517f08c379a00000000000000000000000000000000000000000000000000000000081526004016115359061352a565b60405180910390fd5b5b8260016002811061154c57fe5b602002015181600101819055506115616123a9565b505050505050565b6000809054906101000a900460ff1681565b601460009054906101000a900473ffffffffffffffffffffffffffffffffffffffff1681565b60126020528060005260406000206000915090508060000160009054906101000a900460ff16908060000160019054906101000a900460ff16908060000160029054906101000a900460ff16908060000160039054906101000a900460ff16908060000160049054906101000a900473ffffffffffffffffffffffffffffffffffffffff16905085565b6014809054906101000a900460ff1681565b601360009054906101000a900460ff1681565b7f0ff36786ffd15ba1a9d2753de6368f3f39ff69833d08a28656f0832ad2aa664781565b6008826007811061168157fe5b01816007811061168d57fe5b60209182820401919006915091509054906101000a900460ff1681565b601460159054906101000a900460ff1681565b601181600681106116ca57fe5b60209182820401919006915054906101000a900460ff1681565b600f81600881106116f157fe5b60209182820401919006915054906101000a900460ff1681565b600060019054906101000a900460ff1681565b601360019054906101000a900473ffffffffffffffffffffffffffffffffffffffff1681565b6000600381111561175157fe5b600060019054906101000a900460ff16600381111561176c57fe5b14156117ad576040517f08c379a00000000000000000000000000000000000000000000000000000000081526004016117a49061360a565b60405180910390fd5b600073ffffffffffffffffffffffffffffffffffffffff16601360019054906101000a900473ffffffffffffffffffffffffffffffffffffffff1673ffffffffffffffffffffffffffffffffffffffff16141561184a5733601360016101000a81548173ffffffffffffffffffffffffffffffffffffffff021916908373ffffffffffffffffffffffffffffffffffffffff160217905550611b26565b60006002428161185657fe5b0614156118a35733601460006101000a81548173ffffffffffffffffffffffffffffffffffffffff021916908373ffffffffffffffffffffffffffffffffffffffff160217905550611948565b601360019054906101000a900473ffffffffffffffffffffffffffffffffffffffff16601460006101000a81548173ffffffffffffffffffffffffffffffffffffffff021916908373ffffffffffffffffffffffffffffffffffffffff16021790555033601360016101000a81548173ffffffffffffffffffffffffffffffffffffffff021916908373ffffffffffffffffffffffffffffffffffffffff1602179055505b6000600190505b60058160ff1610156119e557601360019054906101000a900473ffffffffffffffffffffffffffffffffffffffff16601060008360ff1660ff16815260200190815260200160002060000160026101000a81548173ffffffffffffffffffffffffffffffffffffffff021916908373ffffffffffffffffffffffffffffffffffffffff160217905550808060010191505061194f565b506000600590505b60098160ff161015611a8357601460009054906101000a900473ffffffffffffffffffffffffffffffffffffffff16601060008360ff1660ff16815260200190815260200160002060000160026101000a81548173ffffffffffffffffffffffffffffffffffffffff021916908373ffffffffffffffffffffffffffffffffffffffff16021790555080806001019150506119ed565b506001600060016101000a81548160ff02191690836003811115611aa357fe5b02179055507f8fd707874eb940598510258c64cad23fd35fe8c85c5c38e8782fac2cc887fb6e601360019054906101000a900473ffffffffffffffffffffffffffffffffffffffff16601460009054906101000a900473ffffffffffffffffffffffffffffffffffffffff16604051611b1d929190613444565b60405180910390a15b565b600781565b600380811115611b3957fe5b600060019054906101000a900460ff166003811115611b5457fe5b1415611b95576040517f08c379a0000000000000000000000000000000000000000000000000000000008152600401611b8c9061358a565b60405180910390fd5b601360019054906101000a900473ffffffffffffffffffffffffffffffffffffffff1673ffffffffffffffffffffffffffffffffffffffff163373ffffffffffffffffffffffffffffffffffffffff161415611c545760016003811115611bf857fe5b600060019054906101000a900460ff166003811115611c1357fe5b14611c53576040517f08c379a0000000000000000000000000000000000000000000000000000000008152600401611c4a9061364a565b60405180910390fd5b5b601460009054906101000a900473ffffffffffffffffffffffffffffffffffffffff1673ffffffffffffffffffffffffffffffffffffffff163373ffffffffffffffffffffffffffffffffffffffff161415611d135760026003811115611cb757fe5b600060019054906101000a900460ff166003811115611cd257fe5b14611d12576040517f08c379a0000000000000000000000000000000000000000000000000000000008152600401611d09906135aa565b60405180910390fd5b5b6000601060008560ff1660ff16815260200190815260200160002090503373ffffffffffffffffffffffffffffffffffffffff168160000160029054906101000a900473ffffffffffffffffffffffffffffffffffffffff1673ffffffffffffffffffffffffffffffffffffffff1614611dc2576040517f08c379a0000000000000000000000000000000000000000000000000000000008152600401611db99061362a565b60405180910390fd5b8060000160189054906101000a900460ff1615611e14576040517f08c379a0000000000000000000000000000000000000000000000000000000008152600401611e0b906134ea565b60405180910390fd5b611f29816040518060e00160405290816000820160009054906101000a900460ff1660ff1660ff1681526020016000820160019054906101000a900460ff166002811115611e5e57fe5b6002811115611e6957fe5b81526020016000820160029054906101000a900473ffffffffffffffffffffffffffffffffffffffff1673ffffffffffffffffffffffffffffffffffffffff1673ffffffffffffffffffffffffffffffffffffffff1681526020016000820160169054906101000a900460ff1660ff1660ff1681526020016000820160179054906101000a900460ff1660ff1660ff1681526020016000820160189054906101000a900460ff161515151581526020016001820154815250508484610716565b611f68576040517f08c379a0000000000000000000000000000000000000000000000000000000008152600401611f5f9061354a565b60405180910390fd5b600060018260000160169054906101000a900460ff1660ff1660078110611f8b57fe5b018260000160179054906101000a900460ff1660ff1660078110611fab57fe5b602091828204019190066101000a81548160ff021916908360ff1602179055508060000160009054906101000a900460ff1660018460ff1660078110611fed57fe5b018360ff1660078110611ffc57fe5b602091828204019190066101000a81548160ff021916908360ff160217905550828160000160166101000a81548160ff021916908360ff160217905550818160000160176101000a81548160ff021916908360ff16021790555060006012600060088660ff166007811061206c57fe5b018560ff166007811061207b57fe5b602091828204019190069054906101000a900460ff1660ff1660ff16815260200190815260200160002060000160019054906101000a900460ff1660ff161180156121625750600073ffffffffffffffffffffffffffffffffffffffff166012600060088660ff16600781106120ed57fe5b018560ff16600781106120fc57fe5b602091828204019190069054906101000a900460ff1660ff1660ff16815260200190815260200160002060000160049054906101000a900473ffffffffffffffffffffffffffffffffffffffff1673ffffffffffffffffffffffffffffffffffffffff16145b1561226257601360019054906101000a900473ffffffffffffffffffffffffffffffffffffffff1673ffffffffffffffffffffffffffffffffffffffff163373ffffffffffffffffffffffffffffffffffffffff1614156122115760088360ff16600781106121cd57fe5b018260ff16600781106121dc57fe5b602091828204019190069054906101000a900460ff16601460166101000a81548160ff021916908360ff160217905550612261565b60088360ff166007811061222157fe5b018260ff166007811061223057fe5b602091828204019190069054906101000a900460ff16601460176101000a81548160ff021916908360ff1602179055505b5b61226a6123a9565b50505050565b6000601360009054906101000a900460ff166123535773__Verifier______________________________63ab475307868686866040518563ffffffff1660e01b81526004016122c3949392919061346d565b60206040518083038186803b1580156122db57600080fd5b505af41580156122ef573d6000803e3d6000fd5b505050506040513d601f19601f820116820180604052508101906123139190612cfe565b612352576040517f08c379a00000000000000000000000000000000000000000000000000000000081526004016123499061350a565b60405180910390fd5b5b60016015600082825401925050819055507f4eb5ee08f6bd1352ed7b0dac0ee5e5b7cb984b0477d694d9db613b705f47f2ab601554604051612395919061366a565b60405180910390a160019050949350505050565b601360019054906101000a900473ffffffffffffffffffffffffffffffffffffffff1673ffffffffffffffffffffffffffffffffffffffff163373ffffffffffffffffffffffffffffffffffffffff16141561269857600060126000601460179054906101000a900460ff1660ff1660ff168152602001908152602001600020905060008160000160019054906101000a900460ff1660ff1611801561249f5750600073ffffffffffffffffffffffffffffffffffffffff168160000160049054906101000a900473ffffffffffffffffffffffffffffffffffffffff1673ffffffffffffffffffffffffffffffffffffffff16145b156126525760006010600060018460000160029054906101000a900460ff1660ff16600781106124cb57fe5b018460000160039054906101000a900460ff1660ff16600781106124eb57fe5b602091828204019190069054906101000a900460ff1660ff1660ff1681526020019081526020016000209050601460009054906101000a900473ffffffffffffffffffffffffffffffffffffffff1673ffffffffffffffffffffffffffffffffffffffff168160000160029054906101000a900473ffffffffffffffffffffffffffffffffffffffff1673ffffffffffffffffffffffffffffffffffffffff161480156125a757508060000160189054906101000a900460ff16155b1561265057601460009054906101000a900473ffffffffffffffffffffffffffffffffffffffff168260000160046101000a81548173ffffffffffffffffffffffffffffffffffffffff021916908373ffffffffffffffffffffffffffffffffffffffff1602179055508160000160019054906101000a900460ff16601460158282829054906101000a900460ff160192506101000a81548160ff021916908360ff1602179055505b505b6000601460176101000a81548160ff021916908360ff1602179055506002600060016101000a81548160ff0219169083600381111561268d57fe5b02179055505061295d565b600060126000601460169054906101000a900460ff1660ff1660ff168152602001908152602001600020905060008160000160019054906101000a900460ff1660ff161180156127385750600073ffffffffffffffffffffffffffffffffffffffff168160000160049054906101000a900473ffffffffffffffffffffffffffffffffffffffff1673ffffffffffffffffffffffffffffffffffffffff16145b156128ea5760006010600060018460000160029054906101000a900460ff1660ff166007811061276457fe5b018460000160039054906101000a900460ff1660ff166007811061278457fe5b602091828204019190069054906101000a900460ff1660ff1660ff1681526020019081526020016000209050601360019054906101000a900473ffffffffffffffffffffffffffffffffffffffff1673ffffffffffffffffffffffffffffffffffffffff168160000160029054906101000a900473ffffffffffffffffffffffffffffffffffffffff1673ffffffffffffffffffffffffffffffffffffffff1614801561284057508060000160189054906101000a900460ff16155b156128e857601360019054906101000a900473ffffffffffffffffffffffffffffffffffffffff168260000160046101000a81548173ffffffffffffffffffffffffffffffffffffffff021916908373ffffffffffffffffffffffffffffffffffffffff1602179055508160000160019054906101000a900460ff166014808282829054906101000a900460ff160192506101000a81548160ff021916908360ff1602179055505b505b6000601460166101000a81548160ff021916908360ff16021790555060008081819054906101000a900460ff168092919060010191906101000a81548160ff021916908360ff160217905550506001600060016101000a81548160ff0219169083600381111561295657fe5b0217905550505b7f8eaa9f09cc5e3b56163bc8d93f99b4299c7172f83d51d1448e8d9a3dc6d1a1013360405161298c9190613429565b60405180910390a161299c610f96565b156129f2576003600060016101000a81548160ff021916908360038111156129c057fe5b02179055507fb537cbcadc098cfedf5a04ef7e68a8554b55f7e45bfdaca1cbc51a686ef65f4860405160405180910390a15b565b600081359050612a0381613981565b92915050565b600082601f830112612a1a57600080fd5b6002612a2d612a28826137c6565b613799565b91508183856040840282011115612a4357600080fd5b60005b83811015612a735781612a598882612a7d565b845260208401935060408301925050600181019050612a46565b5050505092915050565b600082601f830112612a8e57600080fd5b6002612aa1612a9c826137e8565b613799565b91508183856020840282011115612ab757600080fd5b60005b83811015612ae75781612acd8882612be0565b845260208401935060208301925050600181019050612aba565b5050505092915050565b600081359050612b0081613998565b92915050565b600081519050612b1581613998565b92915050565b600081359050612b2a816139af565b92915050565b600060e08284031215612b4257600080fd5b612b4c60e0613799565b90506000612b5c84828501612c0a565b6000830152506020612b7084828501612b1b565b6020830152506040612b84848285016129f4565b6040830152506060612b9884828501612c0a565b6060830152506080612bac84828501612c0a565b60808301525060a0612bc084828501612af1565b60a08301525060c0612bd484828501612be0565b60c08301525092915050565b600081359050612bef816139bf565b92915050565b600081519050612c04816139bf565b92915050565b600081359050612c19816139d6565b92915050565b6000806000806101408587031215612c3657600080fd5b6000612c4487828801612a7d565b9450506040612c5587828801612a09565b93505060c0612c6687828801612a7d565b925050610100612c7887828801612a7d565b91505092959194509250565b60008060008060006101608688031215612c9d57600080fd5b6000612cab88828901612a7d565b9550506040612cbc88828901612a09565b94505060c0612ccd88828901612a7d565b935050610100612cdf88828901612a7d565b925050610140612cf188828901612c0a565b9150509295509295909350565b600060208284031215612d1057600080fd5b6000612d1e84828501612b06565b91505092915050565b60008060006101208486031215612d3d57600080fd5b6000612d4b86828701612b30565b93505060e0612d5c86828701612c0a565b925050610100612d6e86828701612c0a565b9150509250925092565b600060208284031215612d8a57600080fd5b6000612d9884828501612be0565b91505092915050565b60008060408385031215612db457600080fd5b6000612dc285828601612be0565b9250506020612dd385828601612be0565b9150509250929050565b60008060408385031215612df057600080fd5b6000612dfe85828601612bf5565b9250506020612e0f85828601612bf5565b9150509250929050565b600080600060608486031215612e2e57600080fd5b6000612e3c86828701612be0565b9350506020612e4d86828701612be0565b9250506040612e5e86828701612be0565b9150509250925092565b600060208284031215612e7a57600080fd5b6000612e8884828501612c0a565b91505092915050565b60008060008060808587031215612ea757600080fd5b6000612eb587828801612c0a565b9450506020612ec687828801612be0565b9350506040612ed787828801612be0565b9250506060612ee887828801612be0565b91505092959194509250565b600080600060608486031215612f0957600080fd5b6000612f1786828701612c0a565b9350506020612f2886828701612c0a565b9250506040612f3986828701612c0a565b9150509250925092565b6000612f4f838361303f565b60408301905092915050565b6000612f6783836133f0565b60208301905092915050565b612f7c816138fb565b82525050565b612f8b81613880565b82525050565b612f9a8161381e565b612fa4818461384e565b9250612faf8261380a565b8060005b83811015612fe0578151612fc78782612f43565b9650612fd283613834565b925050600181019050612fb3565b505050505050565b612ff181613829565b612ffb8184613859565b925061300682613814565b8060005b8381101561303757815161301e8782612f5b565b965061302983613841565b92505060018101905061300a565b505050505050565b61304881613829565b6130528184613864565b925061305d82613814565b8060005b8381101561308e5781516130758782612f5b565b965061308083613841565b925050600181019050613061565b505050505050565b61309f81613892565b82525050565b6130ae8161390d565b82525050565b6130bd8161391f565b82525050565b6130cc81613931565b82525050565b60006130df600d8361386f565b91507f50696563652069732064656164000000000000000000000000000000000000006000830152602082019050919050565b600061311f60178361386f565b91507f4661696c656420696e69742070726f6f6620636865636b0000000000000000006000830152602082019050919050565b600061315f60148361386f565b91507f4661696c6564207a6b206d6f766520636865636b0000000000000000000000006000830152602082019050919050565b600061319f600c8361386f565b91507f496e76616c6964206d6f766500000000000000000000000000000000000000006000830152602082019050919050565b60006131df60158361386f565b91507f5069656365206d75737420626520612067686f737400000000000000000000006000830152602082019050919050565b600061321f600d8361386f565b91507f47616d6520697320656e646564000000000000000000000000000000000000006000830152602082019050919050565b600061325f600d8361386f565b91507f4e6f742070322773207475726e000000000000000000000000000000000000006000830152602082019050919050565b600061329f600e8361386f565b91507f496e76616c69642072657665616c0000000000000000000000000000000000006000830152602082019050919050565b60006132df60108361386f565b91507f5a4b2050726f6f6620696e76616c6964000000000000000000000000000000006000830152602082019050919050565b600061331f60148361386f565b91507f47616d6520616c726561647920737461727465640000000000000000000000006000830152602082019050919050565b600061335f60188361386f565b91507f596f7520646f6e2774206f776e207468617420706965636500000000000000006000830152602082019050919050565b600061339f600d8361386f565b91507f4e6f742070312773207475726e000000000000000000000000000000000000006000830152602082019050919050565b6133db816138e4565b82525050565b6133ea816138e4565b82525050565b6133f9816138e4565b82525050565b613408816138ee565b82525050565b60006020820190506134236000830184612f82565b92915050565b600060208201905061343e6000830184612f73565b92915050565b60006040820190506134596000830185612f82565b6134666020830184612f82565b9392505050565b6000610140820190506134836000830187612fe8565b6134906040830186612f91565b61349d60c0830185612fe8565b6134ab610100830184612fe8565b95945050505050565b60006020820190506134c96000830184613096565b92915050565b60006020820190506134e460008301846130a5565b92915050565b60006020820190508181036000830152613503816130d2565b9050919050565b6000602082019050818103600083015261352381613112565b9050919050565b6000602082019050818103600083015261354381613152565b9050919050565b6000602082019050818103600083015261356381613192565b9050919050565b60006020820190508181036000830152613583816131d2565b9050919050565b600060208201905081810360008301526135a381613212565b9050919050565b600060208201905081810360008301526135c381613252565b9050919050565b600060208201905081810360008301526135e381613292565b9050919050565b60006020820190508181036000830152613603816132d2565b9050919050565b6000602082019050818103600083015261362381613312565b9050919050565b6000602082019050818103600083015261364381613352565b9050919050565b6000602082019050818103600083015261366381613392565b9050919050565b600060208201905061367f60008301846133d2565b92915050565b600060608201905061369a60008301866133e1565b6136a760208301856133e1565b6136b460408301846130c3565b949350505050565b60006020820190506136d160008301846133ff565b92915050565b600060e0820190506136ec600083018a6133ff565b6136f960208301896130b4565b6137066040830188612f82565b61371360608301876133ff565b61372060808301866133ff565b61372d60a0830185613096565b61373a60c08301846133d2565b98975050505050505050565b600060a08201905061375b60008301886133ff565b61376860208301876133ff565b61377560408301866133ff565b61378260608301856133ff565b61378f6080830184612f82565b9695505050505050565b6000604051905081810181811067ffffffffffffffff821117156137bc57600080fd5b8060405250919050565b600067ffffffffffffffff8211156137dd57600080fd5b602082029050919050565b600067ffffffffffffffff8211156137ff57600080fd5b602082029050919050565b6000819050919050565b6000819050919050565b600060029050919050565b600060029050919050565b6000602082019050919050565b6000602082019050919050565b600081905092915050565b600081905092915050565b600081905092915050565b600082825260208201905092915050565b600061388b826138c4565b9050919050565b60008115159050919050565b60008190506138ac82613967565b919050565b60008190506138bf82613974565b919050565b600073ffffffffffffffffffffffffffffffffffffffff82169050919050565b6000819050919050565b600060ff82169050919050565b600061390682613943565b9050919050565b60006139188261389e565b9050919050565b600061392a826138b1565b9050919050565b600061393c826138e4565b9050919050565b600061394e82613955565b9050919050565b6000613960826138c4565b9050919050565b6004811061397157fe5b50565b6003811061397e57fe5b50565b61398a81613880565b811461399557600080fd5b50565b6139a181613892565b81146139ac57600080fd5b50565b600381106139bc57600080fd5b50565b6139c8816138e4565b81146139d357600080fd5b50565b6139df816138ee565b81146139ea57600080fd5b5056fea2646970667358221220f095af7b005fb1427ef3dfaa34b257149bfd3bb1653a082f4e2fa7dabad0bfcd64736f6c63430006070033",
  "immutableReferences": {},
  "source": "pragma solidity ^0.6.7;\npragma experimental ABIEncoderV2;\n\nimport \"./ZKChessTypes.sol\";\nimport \"./Verifier.sol\";\nimport \"./Hasher.sol\";\n\ncontract ZKChessCore {\n    uint256\n        public constant FIELD_SIZE = 21888242871839275222246405745257275088548364400416034343698204186575808495617;\n    uint256\n        public constant GHOST_START_COMMITMENT = 7214751084937475278685990361647698062370992456785139288868246743057894630983;\n    uint256 public constant BOARD_SIZE = 7;\n\n    uint8 public turnNumber;\n    GameState public gameState;\n    uint8[BOARD_SIZE][BOARD_SIZE] public boardPieces; // board[row][col]\n    uint8[BOARD_SIZE][BOARD_SIZE] public boardObjectives;\n\n    uint8[8] public pieceIds;\n    mapping(uint8 => Piece) public pieces;\n    uint8[6] public objectiveIds;\n    mapping(uint8 => Objective) public objectives;\n\n    bool public DISABLE_ZK_CHECK;\n\n    address public player1;\n    address public player2;\n\n    uint8 public player1Score;\n    uint8 public player2Score;\n\n    uint8 p1CurrentlyCapturing;\n    uint8 p2CurrentlyCapturing;\n\n    uint256 pfsVerified;\n\n    constructor(bool _disableZKCheck) public {\n        DISABLE_ZK_CHECK = _disableZKCheck;\n        gameState = GameState.WAITING_FOR_PLAYERS;\n\n        pieceIds = [1, 2, 3, 4, 5, 6, 7, 8];\n        objectiveIds = [9, 10, 11, 12, 13, 14];\n\n        // initialize pieces\n        pieces[1] = Piece({\n            id: 1,\n            pieceType: PieceType.KING,\n            owner: address(0),\n            row: 0,\n            col: 1,\n            dead: false,\n            commitment: 0\n        });\n        boardPieces[0][1] = 1;\n        pieces[2] = Piece({\n            id: 2,\n            pieceType: PieceType.KNIGHT,\n            owner: address(0),\n            row: 0,\n            col: 3,\n            dead: false,\n            commitment: 0\n        });\n        boardPieces[0][3] = 2;\n        pieces[3] = Piece({\n            id: 3,\n            pieceType: PieceType.KING,\n            owner: address(0),\n            row: 0,\n            col: 5,\n            dead: false,\n            commitment: 0\n        });\n        boardPieces[0][5] = 3;\n        pieces[4] = Piece({\n            id: 4,\n            pieceType: PieceType.GHOST,\n            owner: address(0),\n            row: 0,\n            col: 0,\n            dead: false,\n            commitment: GHOST_START_COMMITMENT\n        });\n        pieces[5] = Piece({\n            id: 5,\n            pieceType: PieceType.KING,\n            owner: address(0),\n            row: 6,\n            col: 1,\n            dead: false,\n            commitment: 0\n        });\n        boardPieces[6][1] = 5;\n        pieces[6] = Piece({\n            id: 6,\n            pieceType: PieceType.KNIGHT,\n            owner: address(0),\n            row: 6,\n            col: 3,\n            dead: false,\n            commitment: 0\n        });\n        boardPieces[6][3] = 6;\n        pieces[7] = Piece({\n            id: 7,\n            pieceType: PieceType.KING,\n            owner: address(0),\n            row: 6,\n            col: 5,\n            dead: false,\n            commitment: 0\n        });\n        boardPieces[6][5] = 7;\n        pieces[8] = Piece({\n            id: 8,\n            pieceType: PieceType.GHOST,\n            owner: address(0),\n            row: 6,\n            col: 0,\n            dead: false,\n            commitment: GHOST_START_COMMITMENT\n        });\n\n        // initialize objectives\n        objectives[9] = Objective({\n            id: 9,\n            value: 5,\n            row: 3,\n            col: 0,\n            capturedBy: address(0)\n        });\n        boardObjectives[3][0] = 9;\n        objectives[10] = Objective({\n            id: 10,\n            value: 5,\n            row: 2,\n            col: 2,\n            capturedBy: address(0)\n        });\n        boardObjectives[2][2] = 10;\n        objectives[11] = Objective({\n            id: 11,\n            value: 10,\n            row: 4,\n            col: 2,\n            capturedBy: address(0)\n        });\n        boardObjectives[4][2] = 11;\n        objectives[12] = Objective({\n            id: 12,\n            value: 10,\n            row: 2,\n            col: 4,\n            capturedBy: address(0)\n        });\n        boardObjectives[2][4] = 12;\n        objectives[13] = Objective({\n            id: 13,\n            value: 5,\n            row: 4,\n            col: 4,\n            capturedBy: address(0)\n        });\n        boardObjectives[4][4] = 13;\n        objectives[14] = Objective({\n            id: 14,\n            value: 5,\n            row: 3,\n            col: 6,\n            capturedBy: address(0)\n        });\n        boardObjectives[3][6] = 14;\n    }\n\n    //////////////\n    /// EVENTS ///\n    //////////////\n\n    event ProofVerified(uint256 pfsAccepted);\n    event GameStart(address p1, address p2);\n    event MoveMade(address player);\n    event GameFinished();\n\n    //////////////\n    /// Helper ///\n    //////////////\n\n    function hashTriple(\n        uint256 val1,\n        uint256 val2,\n        uint256 val3\n    ) public pure returns (uint256) {\n        uint256 R = 0;\n        uint256 C = 0;\n\n        R = addmod(R, val1, FIELD_SIZE);\n        (R, C) = Hasher.MiMCSponge(R, C, 0);\n        R = addmod(R, val2, FIELD_SIZE);\n        (R, C) = Hasher.MiMCSponge(R, C, 0);\n        R = addmod(R, val3, FIELD_SIZE);\n        (R, C) = Hasher.MiMCSponge(R, C, 0);\n\n        return R;\n    }\n\n    function isValidMove(\n        Piece memory piece,\n        uint8 toRow,\n        uint8 toCol\n    ) public pure returns (bool) {\n        if (toRow >= BOARD_SIZE || toCol >= BOARD_SIZE) {\n            // must be in the range [0, SIZE - 1]\n            return false;\n        }\n        if (piece.pieceType == PieceType.GHOST) {\n            return false;\n        } else if (piece.pieceType == PieceType.KING) {\n            if (piece.row == toRow && piece.col == toCol) {\n                return false;\n            }\n            int16 rowDiff = int16(piece.row) - int16(toRow);\n            if (rowDiff > 1 || rowDiff < -1) {\n                return false;\n            }\n            int16 colDiff = int16(piece.col) - int16(toCol);\n            if (colDiff > 1 || colDiff < -1) {\n                return false;\n            }\n        } else if (piece.pieceType == PieceType.KNIGHT) {\n            int16 rowDiff = int16(piece.row) - int16(toRow);\n            int16 colDiff = int16(piece.col) - int16(toCol);\n            if (rowDiff == 2 || rowDiff == -2) {\n                if (colDiff != 1 && colDiff != -1) {\n                    return false;\n                }\n            } else if (rowDiff == 1 || rowDiff == -1) {\n                if (colDiff != 2 && colDiff != -2) {\n                    return false;\n                }\n            } else {\n                return false;\n            }\n        }\n        return true;\n    }\n\n    function gameShouldBeCompleted() public view returns (bool) {\n        // check if game is over: no pieces left, OR no objectives left\n        bool noPiecesLeft = true;\n        for (uint8 i = 0; i < pieceIds.length; i++) {\n            if (!pieces[pieceIds[i]].dead) {\n                noPiecesLeft = false;\n                break;\n            }\n        }\n        if (noPiecesLeft) {\n            return true;\n        }\n\n        bool noObjectivesLeft = true;\n        for (uint8 i = 0; i < objectiveIds.length; i++) {\n            if (objectives[objectiveIds[i]].capturedBy == address(0)) {\n                noObjectivesLeft = false;\n                break;\n            }\n        }\n        if (noObjectivesLeft) {\n            return true;\n        }\n        return false;\n    }\n\n    //////////////////////\n    /// Game Mechanics ///\n    //////////////////////\n\n    function joinGame() public {\n        require(\n            gameState != GameState.WAITING_FOR_PLAYERS,\n            \"Game already started\"\n        );\n        if (player1 == address(0)) {\n            // first player to join game\n            player1 = msg.sender;\n            return;\n        }\n        // another player has joined. game is ready to start\n\n        // randomize player order\n        if (block.timestamp % 2 == 0) {\n            player2 = msg.sender;\n        } else {\n            player2 = player1;\n            player1 = msg.sender;\n        }\n\n        // set pieces\n        for (uint8 i = 1; i < 5; i++) {\n            pieces[i].owner = player1;\n        }\n        for (uint8 i = 5; i < 9; i++) {\n            pieces[i].owner = player2;\n        }\n\n        gameState = GameState.P1_TO_MOVE;\n        emit GameStart(player1, player2);\n    }\n\n    function checkProof(\n        uint256[2] memory _a,\n        uint256[2][2] memory _b,\n        uint256[2] memory _c,\n        uint256[2] memory _input\n    ) public returns (bool) {\n        if (!DISABLE_ZK_CHECK) {\n            require(\n                Verifier.verifyMoveProof(_a, _b, _c, _input),\n                \"Failed init proof check\"\n            );\n        }\n        pfsVerified += 1;\n        emit ProofVerified(pfsVerified);\n        return true;\n    }\n\n    function movePiece(\n        uint8 pieceId,\n        uint8 toRow,\n        uint8 toCol\n    ) public {\n        require(gameState != GameState.COMPLETE, \"Game is ended\");\n        if (msg.sender == player1) {\n            require(gameState == GameState.P1_TO_MOVE, \"Not p1's turn\");\n        }\n        if (msg.sender == player2) {\n            require(gameState == GameState.P2_TO_MOVE, \"Not p2's turn\");\n        }\n        Piece storage piece = pieces[pieceId];\n        require(piece.owner == msg.sender, \"You don't own that piece\");\n        require(!piece.dead, \"Piece is dead\");\n        require(isValidMove(piece, toRow, toCol), \"Invalid move\");\n\n        boardPieces[piece.row][piece.col] = 0;\n        boardPieces[toRow][toCol] = piece.id;\n        piece.row = toRow;\n        piece.col = toCol;\n        if (\n            objectives[boardObjectives[toRow][toCol]].value > 0 &&\n            objectives[boardObjectives[toRow][toCol]].capturedBy == address(0)\n        ) {\n            if (msg.sender == player1) {\n                p1CurrentlyCapturing = boardObjectives[toRow][toCol];\n            } else {\n                p2CurrentlyCapturing = boardObjectives[toRow][toCol];\n            }\n        }\n        completeTurn();\n    }\n\n    function moveGhost(\n        uint256[2] memory _a,\n        uint256[2][2] memory _b,\n        uint256[2] memory _c,\n        uint256[2] memory _input,\n        uint8 pieceId\n    ) public {\n        require(gameState != GameState.COMPLETE, \"Game is ended\");\n        if (msg.sender == player1) {\n            require(gameState == GameState.P1_TO_MOVE, \"Not p1's turn\");\n        }\n        if (msg.sender == player2) {\n            require(gameState == GameState.P2_TO_MOVE, \"Not p2's turn\");\n        }\n        Piece storage piece = pieces[pieceId];\n        require(piece.pieceType == PieceType.GHOST, \"Piece must be a ghost\");\n        require(piece.owner == msg.sender, \"You don't own that piece\");\n        require(piece.commitment == _input[0], \"ZK Proof invalid\");\n        if (!DISABLE_ZK_CHECK) {\n            require(\n                Verifier.verifyMoveProof(_a, _b, _c, _input),\n                \"Failed zk move check\"\n            );\n        }\n        piece.commitment = _input[1];\n        completeTurn();\n    }\n\n    function revealGhost(\n        uint8 pieceId,\n        uint256 row,\n        uint256 col,\n        uint256 salt\n    ) public {\n        require(gameState != GameState.COMPLETE, \"Game is ended\");\n        if (msg.sender == player1) {\n            require(gameState == GameState.P1_TO_MOVE, \"Not p1's turn\");\n        }\n        if (msg.sender == player2) {\n            require(gameState == GameState.P2_TO_MOVE, \"Not p2's turn\");\n        }\n        Piece storage piece = pieces[pieceId];\n        require(piece.pieceType == PieceType.GHOST, \"Piece must be a ghost\");\n        require(piece.owner == msg.sender, \"You don't own that piece\");\n        require(\n            hashTriple(row, col, salt) == piece.commitment,\n            \"Invalid reveal\"\n        );\n        Piece storage theirPiece = pieces[boardPieces[row][col]];\n        address opponent = player1;\n        if (msg.sender == player1) {\n            opponent = player2;\n        }\n        if (theirPiece.owner == opponent) {\n            theirPiece.dead = true;\n        }\n        completeTurn();\n    }\n\n    function completeTurn() internal {\n        if (msg.sender == player1) {\n            // check if opponent captures any objectives\n            Objective storage capturing = objectives[p2CurrentlyCapturing];\n            if (capturing.value > 0 && capturing.capturedBy == address(0)) {\n                // is an uncaptured objective\n                Piece storage onObjective = pieces[boardPieces[capturing\n                    .row][capturing.col]];\n                if (onObjective.owner == player2 && !onObjective.dead) {\n                    // p2's live piece is stationed on top\n                    capturing.capturedBy = player2;\n                    player2Score += capturing.value;\n                }\n            }\n            // change to p2's turn\n            p2CurrentlyCapturing = 0;\n            gameState = GameState.P2_TO_MOVE;\n        } else {\n            // check if opponent captures any objectives\n            Objective storage capturing = objectives[p1CurrentlyCapturing];\n            if (capturing.value > 0 && capturing.capturedBy == address(0)) {\n                // is an uncaptured objective\n                Piece storage onObjective = pieces[boardPieces[capturing\n                    .row][capturing.col]];\n                if (onObjective.owner == player1 && !onObjective.dead) {\n                    // p1's live piece is stationed on top\n                    capturing.capturedBy = player1;\n                    player1Score += capturing.value;\n                }\n            }\n            // change to p1's turn\n            p1CurrentlyCapturing = 0;\n            turnNumber++;\n            gameState = GameState.P1_TO_MOVE;\n        }\n        emit MoveMade(msg.sender);\n\n        if (gameShouldBeCompleted()) {\n            gameState = GameState.COMPLETE;\n            emit GameFinished();\n        }\n    }\n}\n",
  "sourcePath": "/Users/bgu/zk-chess/eth/contracts/ZKChessCore.sol",
  "compiler": {
    "name": "solc",
    "version": "0.6.7+commit.b8d736ae.Emscripten.clang"
  },
  "schemaVersion": "3.3.1",
  "updatedAt": "2020-10-28T03:05:57.818Z",
  "devdoc": {
    "methods": {}
  },
  "userdoc": {
    "methods": {
      "hashTriple(uint256,uint256,uint256)": {
        "notice": "/////////// Helper /// ///////////"
      },
      "joinGame()": {
        "notice": "/////////////////// Game Mechanics /// ///////////////////"
      }
    }
  }
}